{"project/contracts/ProxyWallet.sol":{"ProxyWallet":{"abi":[{"inputs":[{"internalType":"address","name":"_owner","type":"address"}],"stateMutability":"nonpayable","type":"constructor"},{"inputs":[],"name":"ECDSAInvalidSignature","type":"error"},{"inputs":[{"internalType":"uint256","name":"length","type":"uint256"}],"name":"ECDSAInvalidSignatureLength","type":"error"},{"inputs":[{"internalType":"bytes32","name":"s","type":"bytes32"}],"name":"ECDSAInvalidSignatureS","type":"error"},{"anonymous":false,"inputs":[{"indexed":true,"internalType":"address","name":"to","type":"address"},{"indexed":false,"internalType":"uint256","name":"value","type":"uint256"},{"indexed":false,"internalType":"bytes","name":"data","type":"bytes"}],"name":"ExecutionFailure","type":"event"},{"anonymous":false,"inputs":[{"indexed":true,"internalType":"address","name":"to","type":"address"},{"indexed":false,"internalType":"uint256","name":"value","type":"uint256"},{"indexed":false,"internalType":"bytes","name":"data","type":"bytes"},{"indexed":false,"internalType":"bytes","name":"returnData","type":"bytes"}],"name":"ExecutionSuccess","type":"event"},{"anonymous":false,"inputs":[{"indexed":true,"internalType":"address","name":"user","type":"address"},{"indexed":true,"internalType":"address","name":"target","type":"address"},{"indexed":false,"internalType":"uint256","name":"nonce","type":"uint256"}],"name":"MetaTransactionExecuted","type":"event"},{"inputs":[],"name":"DOMAIN_SEPARATOR","outputs":[{"internalType":"bytes32","name":"","type":"bytes32"}],"stateMutability":"view","type":"function"},{"inputs":[],"name":"META_TRANSACTION_TYPEHASH","outputs":[{"internalType":"bytes32","name":"","type":"bytes32"}],"stateMutability":"view","type":"function"},{"inputs":[{"internalType":"address","name":"to","type":"address"},{"internalType":"bytes","name":"data","type":"bytes"},{"internalType":"uint256","name":"value","type":"uint256"}],"name":"execute","outputs":[{"internalType":"bytes","name":"","type":"bytes"}],"stateMutability":"payable","type":"function"},{"inputs":[{"components":[{"internalType":"address","name":"to","type":"address"},{"internalType":"bytes","name":"data","type":"bytes"},{"internalType":"uint256","name":"value","type":"uint256"}],"internalType":"struct ProxyWallet.Call[]","name":"calls","type":"tuple[]"}],"name":"executeBatch","outputs":[{"internalType":"bytes[]","name":"","type":"bytes[]"}],"stateMutability":"payable","type":"function"},{"inputs":[{"internalType":"address","name":"user","type":"address"},{"internalType":"address","name":"target","type":"address"},{"internalType":"bytes","name":"data","type":"bytes"},{"internalType":"bytes","name":"signature","type":"bytes"},{"internalType":"uint256","name":"deadline","type":"uint256"}],"name":"executeMetaTransaction","outputs":[{"internalType":"bytes","name":"","type":"bytes"}],"stateMutability":"payable","type":"function"},{"inputs":[{"internalType":"address","name":"user","type":"address"}],"name":"getNonce","outputs":[{"internalType":"uint256","name":"","type":"uint256"}],"stateMutability":"view","type":"function"},{"inputs":[],"name":"getOwner","outputs":[{"internalType":"address","name":"","type":"address"}],"stateMutability":"view","type":"function"},{"inputs":[{"internalType":"address","name":"","type":"address"}],"name":"nonces","outputs":[{"internalType":"uint256","name":"","type":"uint256"}],"stateMutability":"view","type":"function"},{"inputs":[{"internalType":"address","name":"","type":"address"},{"internalType":"address","name":"","type":"address"},{"internalType":"uint256[]","name":"","type":"uint256[]"},{"internalType":"uint256[]","name":"","type":"uint256[]"},{"internalType":"bytes","name":"","type":"bytes"}],"name":"onERC1155BatchReceived","outputs":[{"internalType":"bytes4","name":"","type":"bytes4"}],"stateMutability":"pure","type":"function"},{"inputs":[{"internalType":"address","name":"","type":"address"},{"internalType":"address","name":"","type":"address"},{"internalType":"uint256","name":"","type":"uint256"},{"internalType":"uint256","name":"","type":"uint256"},{"internalType":"bytes","name":"","type":"bytes"}],"name":"onERC1155Received","outputs":[{"internalType":"bytes4","name":"","type":"bytes4"}],"stateMutability":"pure","type":"function"},{"inputs":[],"name":"owner","outputs":[{"internalType":"address","name":"","type":"address"}],"stateMutability":"view","type":"function"},{"inputs":[{"internalType":"bytes4","name":"interfaceId","type":"bytes4"}],"name":"supportsInterface","outputs":[{"internalType":"bool","name":"","type":"bool"}],"stateMutability":"pure","type":"function"},{"stateMutability":"payable","type":"receive"}],"evm":{"bytecode":{"linkReferences":{},"object":"60c034610145576001600160401b0390601f61101838819003918201601f191683019291908484118385101761013157816020928492604096875283398101031261014557516001600160a01b038116810361014557608052600b6020825161006781610149565b828152016a141c9bde1e55d85b1b195d60aa1b8152209060016020825161008d81610149565b82815201603160f81b8152209080519160208301937f8b73c3c69bb8fe3d512ecc4cf759cc79239f7b179b0ffacaa9a75d522b39400f85528284015260608301524660808301523060a083015260a0825260c0820193828510908511176101315783905251902060a052610eb390816101658239608051818181610239015281816105db015281816107300152610a7f015260a05181818161031301526109e60152f35b634e487b7160e01b5f52604160045260245ffd5b5f80fd5b604081019081106001600160401b038211176101315760405256fe6080604090808252600480361015610021575b505050361561001f575f80fd5b005b5f3560e01c91826301ffc9a714610a09575081632d0335ab146109995781633644e515146109cf5781637ecebe0014610999578163893d20e8146106ed5781638a89b44b146106f25781638da5cb5b146106ed578163a04a09081461058f578163aff2d5ee146101cb578163bc197c8114610144578163f23a6e61146100f0575063fa2c322d146100b3578080610012565b346100ec575f3660031901126100ec57602090517f50951fe990efbd6182c4475e502cea0fd67be6229aa8ce079a484588a8902cc48152f35b5f80fd5b82346100ec5760a03660031901126100ec5761010a610a3e565b50610113610a54565b5060843567ffffffffffffffff81116100ec5760209261013591369101610b1d565b50505163f23a6e6160e01b8152f35b82346100ec5760a03660031901126100ec5761015e610a3e565b50610167610a54565b5067ffffffffffffffff6044358181116100ec576101889036908501610aae565b50506064358181116100ec576101a19036908501610aae565b50506084359081116100ec576020926101bc91369101610b1d565b50505163bc197c8160e01b8152f35b905060a03660031901126100ec576101e1610a3e565b906101ea610a54565b67ffffffffffffffff936044358581116100ec5761020b9036908501610b1d565b6064358781116100ec576102229036908701610b1d565b6084359791956001600160a01b03928316949290917f0000000000000000000000000000000000000000000000000000000000000000821686036105575789421161052057855f526020975f8952875f209a8b549b5f198d1461050d57988c9d8b9c9d9a92829c9360018d01905561029b368b8b610cfd565b8481519101209b8b8451958601947f50951fe990efbd6182c4475e502cea0fd67be6229aa8ce079a484588a8902cc486528601528789169c8d6060870152608086015260a085015260c084015260c0835260e0830191838310828411176104fa57828d528351902061190160f01b61010085019081527f0000000000000000000000000000000000000000000000000000000000000000610102860152610122850191909152604283529261016001908111828210176104e75761038193610378938b979693610372938f52519020923691610cfd565b90610d33565b90929192610d6d565b16036104b0575f809187518585823780868101848152039134905af1966103a6610c6b565b97156104255750948697847ff4800c13ce03d6b46be439e64c27067ebb2921fda2eff0daa77e8e3bae518a307f03a8e3abe17734f998ec7aacc8db66f8ab07e8096a306018130db6d465f0da749461042199610409869c8b519384933485610cba565b0390a28551908152a351928284938452830190610adf565b0390f35b8686867f8d1ecf04e6462600e647fec505da5fb931c5d7e2c8171df5f6629beab50ec07f608495876104668551928392348452878985015287840191610c9a565b0390a25162461bcd60e51b815291820152602160248201527f4d6574612d7472616e73616374696f6e20657865637574696f6e206661696c656044820152601960fa1b6064820152fd5b855162461bcd60e51b81528089018890526011602482015270496e76616c6964207369676e617475726560781b6044820152606490fd5b60418e634e487b7160e01b5f525260245ffd5b60418f634e487b7160e01b5f525260245ffd5b60118c634e487b7160e01b5f525260245ffd5b865162461bcd60e51b81526020818b0152601160248201527014da59db985d1d5c9948195e1c1a5c9959607a1b6044820152606490fd5b865162461bcd60e51b81526020818b015260126024820152712ab9b2b91036bab9ba1031329037bbb732b960711b6044820152606490fd5b905060603660031901126100ec576105a5610a3e565b9160243567ffffffffffffffff81116100ec576105c59036908401610b1d565b6001600160a01b039460443592909190610602337f0000000000000000000000000000000000000000000000000000000000000000891614610b4b565b5f8086518484823780858101838152039087875af195610620610c6b565b96156106755750916106608661042198937ff4800c13ce03d6b46be439e64c27067ebb2921fda2eff0daa77e8e3bae518a30958851958695169785610cba565b0390a251918291602083526020830190610adf565b602086847f8d1ecf04e6462600e647fec505da5fb931c5d7e2c8171df5f6629beab50ec07f87896106ba6064988f87519485948552888a860152169587840191610c9a565b0390a25162461bcd60e51b815291820152601060248201526f115e1958dd5d1a5bdb8819985a5b195960821b6044820152fd5b610a6a565b60209150366003190182136100ec57803567ffffffffffffffff81116100ec5761071f9036908301610aae565b6001600160a01b03929091610757337f0000000000000000000000000000000000000000000000000000000000000000861614610b4b565b61076083610bba565b9361076d87519586610b84565b83855261077984610bba565b601f1901865f5b828110610989575050505f5b8481106107ef57878787825191808301818452825180915281858501958260051b8601019301915f955b8287106107c35785850386f35b9091929382806107df600193603f198a82030186528851610adf565b96019201960195929190926107b6565b5f806108046107ff848988610bd2565b610c08565b8a80610811868b8a610bd2565b013561082a610821878c8b610bd2565b8d810190610c1c565b8093519384928337810185815203925af1610843610c6b565b90156108d9579081847ff4800c13ce03d6b46be439e64c27067ebb2921fda2eff0daa77e8e3bae518a3085826108ba6001978f8f6108ad908f8b818561089c83836108966107ff838f996108a49a610bd2565b9c610bd2565b01359b610bd2565b90810190610c1c565b9151958695169785610cba565b0390a26108c78289610ce9565b526108d28188610ce9565b500161078c565b606485898b867f8d1ecf04e6462600e647fec505da5fb931c5d7e2c8171df5f6629beab50ec07f8b8a61095061093861092f8c61091a6107ff828888610bd2565b9589610927838389610bd2565b013595610bd2565b88810190610c1c565b9587519485948552888a860152169587840191610c9a565b0390a25162461bcd60e51b815291820152601660248201527510985d18da08195e1958dd5d1a5bdb8819985a5b195960521b6044820152fd5b606082828a010152018790610780565b82346100ec5760203660031901126100ec576020906001600160a01b036109be610a3e565b165f525f8252805f20549051908152f35b82346100ec575f3660031901126100ec57602090517f00000000000000000000000000000000000000000000000000000000000000008152f35b90346100ec5760203660031901126100ec57359063ffffffff60e01b82168092036100ec57602091630271189760e51b148152f35b600435906001600160a01b03821682036100ec57565b602435906001600160a01b03821682036100ec57565b346100ec575f3660031901126100ec576040517f00000000000000000000000000000000000000000000000000000000000000006001600160a01b03168152602090f35b9181601f840112156100ec5782359167ffffffffffffffff83116100ec576020808501948460051b0101116100ec57565b91908251928382525f5b848110610b09575050825f602080949584010152601f8019910116010190565b602081830181015184830182015201610ae9565b9181601f840112156100ec5782359167ffffffffffffffff83116100ec57602083818601950101116100ec57565b15610b5257565b60405162461bcd60e51b815260206004820152600a60248201526927b7363c9037bbb732b960b11b6044820152606490fd5b90601f8019910116810190811067ffffffffffffffff821117610ba657604052565b634e487b7160e01b5f52604160045260245ffd5b67ffffffffffffffff8111610ba65760051b60200190565b9190811015610bf45760051b81013590605e19813603018212156100ec570190565b634e487b7160e01b5f52603260045260245ffd5b356001600160a01b03811681036100ec5790565b903590601e19813603018212156100ec570180359067ffffffffffffffff82116100ec576020019181360383136100ec57565b67ffffffffffffffff8111610ba657601f01601f191660200190565b3d15610c95573d90610c7c82610c4f565b91610c8a6040519384610b84565b82523d5f602084013e565b606090565b908060209392818452848401375f828201840152601f01601f1916010190565b9291610ce69492610cd8928552606060208601526060850191610c9a565b916040818403910152610adf565b90565b8051821015610bf45760209160051b010190565b929192610d0982610c4f565b91610d176040519384610b84565b8294818452818301116100ec578281602093845f960137010152565b8151919060418303610d6357610d5c9250602082015190606060408401519301515f1a90610df0565b9192909190565b50505f9160029190565b6004811015610ddc5780610d7f575050565b60018103610d995760405163f645eedf60e01b8152600490fd5b60028103610dba5760405163fce698f760e01b815260048101839052602490fd5b600314610dc45750565b602490604051906335e2f38360e21b82526004820152fd5b634e487b7160e01b5f52602160045260245ffd5b91907f7fffffffffffffffffffffffffffffff5d576e7357a4501ddfe92f46681b20a08411610e72579160209360809260ff5f9560405194855216868401526040830152606082015282805260015afa15610e67575f516001600160a01b03811615610e5d57905f905f90565b505f906001905f90565b6040513d5f823e3d90fd5b5050505f916003919056fea264697066735822122042b8d92cd57354b663dbda664b96608a615be5c1a0ef996c89af8b55363c0c6664736f6c63430008180033","opcodes":"PUSH1 0xC0 CALLVALUE PUSH2 0x145 JUMPI PUSH1 0x1 PUSH1 0x1 PUSH1 0x40 SHL SUB SWAP1 PUSH1 0x1F PUSH2 0x1018 CODESIZE DUP2 SWAP1 SUB SWAP2 DUP3 ADD PUSH1 0x1F NOT AND DUP4 ADD SWAP3 SWAP2 SWAP1 DUP5 DUP5 GT DUP4 DUP6 LT OR PUSH2 0x131 JUMPI DUP2 PUSH1 0x20 SWAP3 DUP5 SWAP3 PUSH1 0x40 SWAP7 DUP8 MSTORE DUP4 CODECOPY DUP2 ADD SUB SLT PUSH2 0x145 JUMPI MLOAD PUSH1 0x1 PUSH1 0x1 PUSH1 0xA0 SHL SUB DUP2 AND DUP2 SUB PUSH2 0x145 JUMPI PUSH1 0x80 MSTORE PUSH1 0xB PUSH1 0x20 DUP3 MLOAD PUSH2 0x67 DUP2 PUSH2 0x149 JUMP JUMPDEST DUP3 DUP2 MSTORE ADD PUSH11 0x141C9BDE1E55D85B1B195D PUSH1 0xAA SHL DUP2 MSTORE KECCAK256 SWAP1 PUSH1 0x1 PUSH1 0x20 DUP3 MLOAD PUSH2 0x8D DUP2 PUSH2 0x149 JUMP JUMPDEST DUP3 DUP2 MSTORE ADD PUSH1 0x31 PUSH1 0xF8 SHL DUP2 MSTORE KECCAK256 SWAP1 DUP1 MLOAD SWAP2 PUSH1 0x20 DUP4 ADD SWAP4 PUSH32 0x8B73C3C69BB8FE3D512ECC4CF759CC79239F7B179B0FFACAA9A75D522B39400F DUP6 MSTORE DUP3 DUP5 ADD MSTORE PUSH1 0x60 DUP4 ADD MSTORE CHAINID PUSH1 0x80 DUP4 ADD MSTORE ADDRESS PUSH1 0xA0 DUP4 ADD MSTORE PUSH1 0xA0 DUP3 MSTORE PUSH1 0xC0 DUP3 ADD SWAP4 DUP3 DUP6 LT SWAP1 DUP6 GT OR PUSH2 0x131 JUMPI DUP4 SWAP1 MSTORE MLOAD SWAP1 KECCAK256 PUSH1 0xA0 MSTORE PUSH2 0xEB3 SWAP1 DUP2 PUSH2 0x165 DUP3 CODECOPY PUSH1 0x80 MLOAD DUP2 DUP2 DUP2 PUSH2 0x239 ADD MSTORE DUP2 DUP2 PUSH2 0x5DB ADD MSTORE DUP2 DUP2 PUSH2 0x730 ADD MSTORE PUSH2 0xA7F ADD MSTORE PUSH1 0xA0 MLOAD DUP2 DUP2 DUP2 PUSH2 0x313 ADD MSTORE PUSH2 0x9E6 ADD MSTORE RETURN JUMPDEST PUSH4 0x4E487B71 PUSH1 0xE0 SHL PUSH0 MSTORE PUSH1 0x41 PUSH1 0x4 MSTORE PUSH1 0x24 PUSH0 REVERT JUMPDEST PUSH0 DUP1 REVERT JUMPDEST PUSH1 0x40 DUP2 ADD SWAP1 DUP2 LT PUSH1 0x1 PUSH1 0x1 PUSH1 0x40 SHL SUB DUP3 GT OR PUSH2 0x131 JUMPI PUSH1 0x40 MSTORE JUMP INVALID PUSH1 0x80 PUSH1 0x40 SWAP1 DUP1 DUP3 MSTORE PUSH1 0x4 DUP1 CALLDATASIZE LT ISZERO PUSH2 0x21 JUMPI JUMPDEST POP POP POP CALLDATASIZE ISZERO PUSH2 0x1F JUMPI PUSH0 DUP1 REVERT JUMPDEST STOP JUMPDEST PUSH0 CALLDATALOAD PUSH1 0xE0 SHR SWAP2 DUP3 PUSH4 0x1FFC9A7 EQ PUSH2 0xA09 JUMPI POP DUP2 PUSH4 0x2D0335AB EQ PUSH2 0x999 JUMPI DUP2 PUSH4 0x3644E515 EQ PUSH2 0x9CF JUMPI DUP2 PUSH4 0x7ECEBE00 EQ PUSH2 0x999 JUMPI DUP2 PUSH4 0x893D20E8 EQ PUSH2 0x6ED JUMPI DUP2 PUSH4 0x8A89B44B EQ PUSH2 0x6F2 JUMPI DUP2 PUSH4 0x8DA5CB5B EQ PUSH2 0x6ED JUMPI DUP2 PUSH4 0xA04A0908 EQ PUSH2 0x58F JUMPI DUP2 PUSH4 0xAFF2D5EE EQ PUSH2 0x1CB JUMPI DUP2 PUSH4 0xBC197C81 EQ PUSH2 0x144 JUMPI DUP2 PUSH4 0xF23A6E61 EQ PUSH2 0xF0 JUMPI POP PUSH4 0xFA2C322D EQ PUSH2 0xB3 JUMPI DUP1 DUP1 PUSH2 0x12 JUMP JUMPDEST CALLVALUE PUSH2 0xEC JUMPI PUSH0 CALLDATASIZE PUSH1 0x3 NOT ADD SLT PUSH2 0xEC JUMPI PUSH1 0x20 SWAP1 MLOAD PUSH32 0x50951FE990EFBD6182C4475E502CEA0FD67BE6229AA8CE079A484588A8902CC4 DUP2 MSTORE RETURN JUMPDEST PUSH0 DUP1 REVERT JUMPDEST DUP3 CALLVALUE PUSH2 0xEC JUMPI PUSH1 0xA0 CALLDATASIZE PUSH1 0x3 NOT ADD SLT PUSH2 0xEC JUMPI PUSH2 0x10A PUSH2 0xA3E JUMP JUMPDEST POP PUSH2 0x113 PUSH2 0xA54 JUMP JUMPDEST POP PUSH1 0x84 CALLDATALOAD PUSH8 0xFFFFFFFFFFFFFFFF DUP2 GT PUSH2 0xEC JUMPI PUSH1 0x20 SWAP3 PUSH2 0x135 SWAP2 CALLDATASIZE SWAP2 ADD PUSH2 0xB1D JUMP JUMPDEST POP POP MLOAD PUSH4 0xF23A6E61 PUSH1 0xE0 SHL DUP2 MSTORE RETURN JUMPDEST DUP3 CALLVALUE PUSH2 0xEC JUMPI PUSH1 0xA0 CALLDATASIZE PUSH1 0x3 NOT ADD SLT PUSH2 0xEC JUMPI PUSH2 0x15E PUSH2 0xA3E JUMP JUMPDEST POP PUSH2 0x167 PUSH2 0xA54 JUMP JUMPDEST POP PUSH8 0xFFFFFFFFFFFFFFFF PUSH1 0x44 CALLDATALOAD DUP2 DUP2 GT PUSH2 0xEC JUMPI PUSH2 0x188 SWAP1 CALLDATASIZE SWAP1 DUP6 ADD PUSH2 0xAAE JUMP JUMPDEST POP POP PUSH1 0x64 CALLDATALOAD DUP2 DUP2 GT PUSH2 0xEC JUMPI PUSH2 0x1A1 SWAP1 CALLDATASIZE SWAP1 DUP6 ADD PUSH2 0xAAE JUMP JUMPDEST POP POP PUSH1 0x84 CALLDATALOAD SWAP1 DUP2 GT PUSH2 0xEC JUMPI PUSH1 0x20 SWAP3 PUSH2 0x1BC SWAP2 CALLDATASIZE SWAP2 ADD PUSH2 0xB1D JUMP JUMPDEST POP POP MLOAD PUSH4 0xBC197C81 PUSH1 0xE0 SHL DUP2 MSTORE RETURN JUMPDEST SWAP1 POP PUSH1 0xA0 CALLDATASIZE PUSH1 0x3 NOT ADD SLT PUSH2 0xEC JUMPI PUSH2 0x1E1 PUSH2 0xA3E JUMP JUMPDEST SWAP1 PUSH2 0x1EA PUSH2 0xA54 JUMP JUMPDEST PUSH8 0xFFFFFFFFFFFFFFFF SWAP4 PUSH1 0x44 CALLDATALOAD DUP6 DUP2 GT PUSH2 0xEC JUMPI PUSH2 0x20B SWAP1 CALLDATASIZE SWAP1 DUP6 ADD PUSH2 0xB1D JUMP JUMPDEST PUSH1 0x64 CALLDATALOAD DUP8 DUP2 GT PUSH2 0xEC JUMPI PUSH2 0x222 SWAP1 CALLDATASIZE SWAP1 DUP8 ADD PUSH2 0xB1D JUMP JUMPDEST PUSH1 0x84 CALLDATALOAD SWAP8 SWAP2 SWAP6 PUSH1 0x1 PUSH1 0x1 PUSH1 0xA0 SHL SUB SWAP3 DUP4 AND SWAP5 SWAP3 SWAP1 SWAP2 PUSH32 0x0 DUP3 AND DUP7 SUB PUSH2 0x557 JUMPI DUP10 TIMESTAMP GT PUSH2 0x520 JUMPI DUP6 PUSH0 MSTORE PUSH1 0x20 SWAP8 PUSH0 DUP10 MSTORE DUP8 PUSH0 KECCAK256 SWAP11 DUP12 SLOAD SWAP12 PUSH0 NOT DUP14 EQ PUSH2 0x50D JUMPI SWAP9 DUP13 SWAP14 DUP12 SWAP13 SWAP14 SWAP11 SWAP3 DUP3 SWAP13 SWAP4 PUSH1 0x1 DUP14 ADD SWAP1 SSTORE PUSH2 0x29B CALLDATASIZE DUP12 DUP12 PUSH2 0xCFD JUMP JUMPDEST DUP5 DUP2 MLOAD SWAP2 ADD KECCAK256 SWAP12 DUP12 DUP5 MLOAD SWAP6 DUP7 ADD SWAP5 PUSH32 0x50951FE990EFBD6182C4475E502CEA0FD67BE6229AA8CE079A484588A8902CC4 DUP7 MSTORE DUP7 ADD MSTORE DUP8 DUP10 AND SWAP13 DUP14 PUSH1 0x60 DUP8 ADD MSTORE PUSH1 0x80 DUP7 ADD MSTORE PUSH1 0xA0 DUP6 ADD MSTORE PUSH1 0xC0 DUP5 ADD MSTORE PUSH1 0xC0 DUP4 MSTORE PUSH1 0xE0 DUP4 ADD SWAP2 DUP4 DUP4 LT DUP3 DUP5 GT OR PUSH2 0x4FA JUMPI DUP3 DUP14 MSTORE DUP4 MLOAD SWAP1 KECCAK256 PUSH2 0x1901 PUSH1 0xF0 SHL PUSH2 0x100 DUP6 ADD SWAP1 DUP2 MSTORE PUSH32 0x0 PUSH2 0x102 DUP7 ADD MSTORE PUSH2 0x122 DUP6 ADD SWAP2 SWAP1 SWAP2 MSTORE PUSH1 0x42 DUP4 MSTORE SWAP3 PUSH2 0x160 ADD SWAP1 DUP2 GT DUP3 DUP3 LT OR PUSH2 0x4E7 JUMPI PUSH2 0x381 SWAP4 PUSH2 0x378 SWAP4 DUP12 SWAP8 SWAP7 SWAP4 PUSH2 0x372 SWAP4 DUP16 MSTORE MLOAD SWAP1 KECCAK256 SWAP3 CALLDATASIZE SWAP2 PUSH2 0xCFD JUMP JUMPDEST SWAP1 PUSH2 0xD33 JUMP JUMPDEST SWAP1 SWAP3 SWAP2 SWAP3 PUSH2 0xD6D JUMP JUMPDEST AND SUB PUSH2 0x4B0 JUMPI PUSH0 DUP1 SWAP2 DUP8 MLOAD DUP6 DUP6 DUP3 CALLDATACOPY DUP1 DUP7 DUP2 ADD DUP5 DUP2 MSTORE SUB SWAP2 CALLVALUE SWAP1 GAS CALL SWAP7 PUSH2 0x3A6 PUSH2 0xC6B JUMP JUMPDEST SWAP8 ISZERO PUSH2 0x425 JUMPI POP SWAP5 DUP7 SWAP8 DUP5 PUSH32 0xF4800C13CE03D6B46BE439E64C27067EBB2921FDA2EFF0DAA77E8E3BAE518A30 PUSH32 0x3A8E3ABE17734F998EC7AACC8DB66F8AB07E8096A306018130DB6D465F0DA74 SWAP5 PUSH2 0x421 SWAP10 PUSH2 0x409 DUP7 SWAP13 DUP12 MLOAD SWAP4 DUP5 SWAP4 CALLVALUE DUP6 PUSH2 0xCBA JUMP JUMPDEST SUB SWAP1 LOG2 DUP6 MLOAD SWAP1 DUP2 MSTORE LOG3 MLOAD SWAP3 DUP3 DUP5 SWAP4 DUP5 MSTORE DUP4 ADD SWAP1 PUSH2 0xADF JUMP JUMPDEST SUB SWAP1 RETURN JUMPDEST DUP7 DUP7 DUP7 PUSH32 0x8D1ECF04E6462600E647FEC505DA5FB931C5D7E2C8171DF5F6629BEAB50EC07F PUSH1 0x84 SWAP6 DUP8 PUSH2 0x466 DUP6 MLOAD SWAP3 DUP4 SWAP3 CALLVALUE DUP5 MSTORE DUP8 DUP10 DUP6 ADD MSTORE DUP8 DUP5 ADD SWAP2 PUSH2 0xC9A JUMP JUMPDEST SUB SWAP1 LOG2 MLOAD PUSH3 0x461BCD PUSH1 0xE5 SHL DUP2 MSTORE SWAP2 DUP3 ADD MSTORE PUSH1 0x21 PUSH1 0x24 DUP3 ADD MSTORE PUSH32 0x4D6574612D7472616E73616374696F6E20657865637574696F6E206661696C65 PUSH1 0x44 DUP3 ADD MSTORE PUSH1 0x19 PUSH1 0xFA SHL PUSH1 0x64 DUP3 ADD MSTORE REVERT JUMPDEST DUP6 MLOAD PUSH3 0x461BCD PUSH1 0xE5 SHL DUP2 MSTORE DUP1 DUP10 ADD DUP9 SWAP1 MSTORE PUSH1 0x11 PUSH1 0x24 DUP3 ADD MSTORE PUSH17 0x496E76616C6964207369676E6174757265 PUSH1 0x78 SHL PUSH1 0x44 DUP3 ADD MSTORE PUSH1 0x64 SWAP1 REVERT JUMPDEST PUSH1 0x41 DUP15 PUSH4 0x4E487B71 PUSH1 0xE0 SHL PUSH0 MSTORE MSTORE PUSH1 0x24 PUSH0 REVERT JUMPDEST PUSH1 0x41 DUP16 PUSH4 0x4E487B71 PUSH1 0xE0 SHL PUSH0 MSTORE MSTORE PUSH1 0x24 PUSH0 REVERT JUMPDEST PUSH1 0x11 DUP13 PUSH4 0x4E487B71 PUSH1 0xE0 SHL PUSH0 MSTORE MSTORE PUSH1 0x24 PUSH0 REVERT JUMPDEST DUP7 MLOAD PUSH3 0x461BCD PUSH1 0xE5 SHL DUP2 MSTORE PUSH1 0x20 DUP2 DUP12 ADD MSTORE PUSH1 0x11 PUSH1 0x24 DUP3 ADD MSTORE PUSH17 0x14DA59DB985D1D5C9948195E1C1A5C9959 PUSH1 0x7A SHL PUSH1 0x44 DUP3 ADD MSTORE PUSH1 0x64 SWAP1 REVERT JUMPDEST DUP7 MLOAD PUSH3 0x461BCD PUSH1 0xE5 SHL DUP2 MSTORE PUSH1 0x20 DUP2 DUP12 ADD MSTORE PUSH1 0x12 PUSH1 0x24 DUP3 ADD MSTORE PUSH18 0x2AB9B2B91036BAB9BA1031329037BBB732B9 PUSH1 0x71 SHL PUSH1 0x44 DUP3 ADD MSTORE PUSH1 0x64 SWAP1 REVERT JUMPDEST SWAP1 POP PUSH1 0x60 CALLDATASIZE PUSH1 0x3 NOT ADD SLT PUSH2 0xEC JUMPI PUSH2 0x5A5 PUSH2 0xA3E JUMP JUMPDEST SWAP2 PUSH1 0x24 CALLDATALOAD PUSH8 0xFFFFFFFFFFFFFFFF DUP2 GT PUSH2 0xEC JUMPI PUSH2 0x5C5 SWAP1 CALLDATASIZE SWAP1 DUP5 ADD PUSH2 0xB1D JUMP JUMPDEST PUSH1 0x1 PUSH1 0x1 PUSH1 0xA0 SHL SUB SWAP5 PUSH1 0x44 CALLDATALOAD SWAP3 SWAP1 SWAP2 SWAP1 PUSH2 0x602 CALLER PUSH32 0x0 DUP10 AND EQ PUSH2 0xB4B JUMP JUMPDEST PUSH0 DUP1 DUP7 MLOAD DUP5 DUP5 DUP3 CALLDATACOPY DUP1 DUP6 DUP2 ADD DUP4 DUP2 MSTORE SUB SWAP1 DUP8 DUP8 GAS CALL SWAP6 PUSH2 0x620 PUSH2 0xC6B JUMP JUMPDEST SWAP7 ISZERO PUSH2 0x675 JUMPI POP SWAP2 PUSH2 0x660 DUP7 PUSH2 0x421 SWAP9 SWAP4 PUSH32 0xF4800C13CE03D6B46BE439E64C27067EBB2921FDA2EFF0DAA77E8E3BAE518A30 SWAP6 DUP9 MLOAD SWAP6 DUP7 SWAP6 AND SWAP8 DUP6 PUSH2 0xCBA JUMP JUMPDEST SUB SWAP1 LOG2 MLOAD SWAP2 DUP3 SWAP2 PUSH1 0x20 DUP4 MSTORE PUSH1 0x20 DUP4 ADD SWAP1 PUSH2 0xADF JUMP JUMPDEST PUSH1 0x20 DUP7 DUP5 PUSH32 0x8D1ECF04E6462600E647FEC505DA5FB931C5D7E2C8171DF5F6629BEAB50EC07F DUP8 DUP10 PUSH2 0x6BA PUSH1 0x64 SWAP9 DUP16 DUP8 MLOAD SWAP5 DUP6 SWAP5 DUP6 MSTORE DUP9 DUP11 DUP7 ADD MSTORE AND SWAP6 DUP8 DUP5 ADD SWAP2 PUSH2 0xC9A JUMP JUMPDEST SUB SWAP1 LOG2 MLOAD PUSH3 0x461BCD PUSH1 0xE5 SHL DUP2 MSTORE SWAP2 DUP3 ADD MSTORE PUSH1 0x10 PUSH1 0x24 DUP3 ADD MSTORE PUSH16 0x115E1958DD5D1A5BDB8819985A5B1959 PUSH1 0x82 SHL PUSH1 0x44 DUP3 ADD MSTORE REVERT JUMPDEST PUSH2 0xA6A JUMP JUMPDEST PUSH1 0x20 SWAP2 POP CALLDATASIZE PUSH1 0x3 NOT ADD DUP3 SGT PUSH2 0xEC JUMPI DUP1 CALLDATALOAD PUSH8 0xFFFFFFFFFFFFFFFF DUP2 GT PUSH2 0xEC JUMPI PUSH2 0x71F SWAP1 CALLDATASIZE SWAP1 DUP4 ADD PUSH2 0xAAE JUMP JUMPDEST PUSH1 0x1 PUSH1 0x1 PUSH1 0xA0 SHL SUB SWAP3 SWAP1 SWAP2 PUSH2 0x757 CALLER PUSH32 0x0 DUP7 AND EQ PUSH2 0xB4B JUMP JUMPDEST PUSH2 0x760 DUP4 PUSH2 0xBBA JUMP JUMPDEST SWAP4 PUSH2 0x76D DUP8 MLOAD SWAP6 DUP7 PUSH2 0xB84 JUMP JUMPDEST DUP4 DUP6 MSTORE PUSH2 0x779 DUP5 PUSH2 0xBBA JUMP JUMPDEST PUSH1 0x1F NOT ADD DUP7 PUSH0 JUMPDEST DUP3 DUP2 LT PUSH2 0x989 JUMPI POP POP POP PUSH0 JUMPDEST DUP5 DUP2 LT PUSH2 0x7EF JUMPI DUP8 DUP8 DUP8 DUP3 MLOAD SWAP2 DUP1 DUP4 ADD DUP2 DUP5 MSTORE DUP3 MLOAD DUP1 SWAP2 MSTORE DUP2 DUP6 DUP6 ADD SWAP6 DUP3 PUSH1 0x5 SHL DUP7 ADD ADD SWAP4 ADD SWAP2 PUSH0 SWAP6 JUMPDEST DUP3 DUP8 LT PUSH2 0x7C3 JUMPI DUP6 DUP6 SUB DUP7 RETURN JUMPDEST SWAP1 SWAP2 SWAP3 SWAP4 DUP3 DUP1 PUSH2 0x7DF PUSH1 0x1 SWAP4 PUSH1 0x3F NOT DUP11 DUP3 SUB ADD DUP7 MSTORE DUP9 MLOAD PUSH2 0xADF JUMP JUMPDEST SWAP7 ADD SWAP3 ADD SWAP7 ADD SWAP6 SWAP3 SWAP2 SWAP1 SWAP3 PUSH2 0x7B6 JUMP JUMPDEST PUSH0 DUP1 PUSH2 0x804 PUSH2 0x7FF DUP5 DUP10 DUP9 PUSH2 0xBD2 JUMP JUMPDEST PUSH2 0xC08 JUMP JUMPDEST DUP11 DUP1 PUSH2 0x811 DUP7 DUP12 DUP11 PUSH2 0xBD2 JUMP JUMPDEST ADD CALLDATALOAD PUSH2 0x82A PUSH2 0x821 DUP8 DUP13 DUP12 PUSH2 0xBD2 JUMP JUMPDEST DUP14 DUP2 ADD SWAP1 PUSH2 0xC1C JUMP JUMPDEST DUP1 SWAP4 MLOAD SWAP4 DUP5 SWAP3 DUP4 CALLDATACOPY DUP2 ADD DUP6 DUP2 MSTORE SUB SWAP3 GAS CALL PUSH2 0x843 PUSH2 0xC6B JUMP JUMPDEST SWAP1 ISZERO PUSH2 0x8D9 JUMPI SWAP1 DUP2 DUP5 PUSH32 0xF4800C13CE03D6B46BE439E64C27067EBB2921FDA2EFF0DAA77E8E3BAE518A30 DUP6 DUP3 PUSH2 0x8BA PUSH1 0x1 SWAP8 DUP16 DUP16 PUSH2 0x8AD SWAP1 DUP16 DUP12 DUP2 DUP6 PUSH2 0x89C DUP4 DUP4 PUSH2 0x896 PUSH2 0x7FF DUP4 DUP16 SWAP10 PUSH2 0x8A4 SWAP11 PUSH2 0xBD2 JUMP JUMPDEST SWAP13 PUSH2 0xBD2 JUMP JUMPDEST ADD CALLDATALOAD SWAP12 PUSH2 0xBD2 JUMP JUMPDEST SWAP1 DUP2 ADD SWAP1 PUSH2 0xC1C JUMP JUMPDEST SWAP2 MLOAD SWAP6 DUP7 SWAP6 AND SWAP8 DUP6 PUSH2 0xCBA JUMP JUMPDEST SUB SWAP1 LOG2 PUSH2 0x8C7 DUP3 DUP10 PUSH2 0xCE9 JUMP JUMPDEST MSTORE PUSH2 0x8D2 DUP2 DUP9 PUSH2 0xCE9 JUMP JUMPDEST POP ADD PUSH2 0x78C JUMP JUMPDEST PUSH1 0x64 DUP6 DUP10 DUP12 DUP7 PUSH32 0x8D1ECF04E6462600E647FEC505DA5FB931C5D7E2C8171DF5F6629BEAB50EC07F DUP12 DUP11 PUSH2 0x950 PUSH2 0x938 PUSH2 0x92F DUP13 PUSH2 0x91A PUSH2 0x7FF DUP3 DUP9 DUP9 PUSH2 0xBD2 JUMP JUMPDEST SWAP6 DUP10 PUSH2 0x927 DUP4 DUP4 DUP10 PUSH2 0xBD2 JUMP JUMPDEST ADD CALLDATALOAD SWAP6 PUSH2 0xBD2 JUMP JUMPDEST DUP9 DUP2 ADD SWAP1 PUSH2 0xC1C JUMP JUMPDEST SWAP6 DUP8 MLOAD SWAP5 DUP6 SWAP5 DUP6 MSTORE DUP9 DUP11 DUP7 ADD MSTORE AND SWAP6 DUP8 DUP5 ADD SWAP2 PUSH2 0xC9A JUMP JUMPDEST SUB SWAP1 LOG2 MLOAD PUSH3 0x461BCD PUSH1 0xE5 SHL DUP2 MSTORE SWAP2 DUP3 ADD MSTORE PUSH1 0x16 PUSH1 0x24 DUP3 ADD MSTORE PUSH22 0x10985D18DA08195E1958DD5D1A5BDB8819985A5B1959 PUSH1 0x52 SHL PUSH1 0x44 DUP3 ADD MSTORE REVERT JUMPDEST PUSH1 0x60 DUP3 DUP3 DUP11 ADD ADD MSTORE ADD DUP8 SWAP1 PUSH2 0x780 JUMP JUMPDEST DUP3 CALLVALUE PUSH2 0xEC JUMPI PUSH1 0x20 CALLDATASIZE PUSH1 0x3 NOT ADD SLT PUSH2 0xEC JUMPI PUSH1 0x20 SWAP1 PUSH1 0x1 PUSH1 0x1 PUSH1 0xA0 SHL SUB PUSH2 0x9BE PUSH2 0xA3E JUMP JUMPDEST AND PUSH0 MSTORE PUSH0 DUP3 MSTORE DUP1 PUSH0 KECCAK256 SLOAD SWAP1 MLOAD SWAP1 DUP2 MSTORE RETURN JUMPDEST DUP3 CALLVALUE PUSH2 0xEC JUMPI PUSH0 CALLDATASIZE PUSH1 0x3 NOT ADD SLT PUSH2 0xEC JUMPI PUSH1 0x20 SWAP1 MLOAD PUSH32 0x0 DUP2 MSTORE RETURN JUMPDEST SWAP1 CALLVALUE PUSH2 0xEC JUMPI PUSH1 0x20 CALLDATASIZE PUSH1 0x3 NOT ADD SLT PUSH2 0xEC JUMPI CALLDATALOAD SWAP1 PUSH4 0xFFFFFFFF PUSH1 0xE0 SHL DUP3 AND DUP1 SWAP3 SUB PUSH2 0xEC JUMPI PUSH1 0x20 SWAP2 PUSH4 0x2711897 PUSH1 0xE5 SHL EQ DUP2 MSTORE RETURN JUMPDEST PUSH1 0x4 CALLDATALOAD SWAP1 PUSH1 0x1 PUSH1 0x1 PUSH1 0xA0 SHL SUB DUP3 AND DUP3 SUB PUSH2 0xEC JUMPI JUMP JUMPDEST PUSH1 0x24 CALLDATALOAD SWAP1 PUSH1 0x1 PUSH1 0x1 PUSH1 0xA0 SHL SUB DUP3 AND DUP3 SUB PUSH2 0xEC JUMPI JUMP JUMPDEST CALLVALUE PUSH2 0xEC JUMPI PUSH0 CALLDATASIZE PUSH1 0x3 NOT ADD SLT PUSH2 0xEC JUMPI PUSH1 0x40 MLOAD PUSH32 0x0 PUSH1 0x1 PUSH1 0x1 PUSH1 0xA0 SHL SUB AND DUP2 MSTORE PUSH1 0x20 SWAP1 RETURN JUMPDEST SWAP2 DUP2 PUSH1 0x1F DUP5 ADD SLT ISZERO PUSH2 0xEC JUMPI DUP3 CALLDATALOAD SWAP2 PUSH8 0xFFFFFFFFFFFFFFFF DUP4 GT PUSH2 0xEC JUMPI PUSH1 0x20 DUP1 DUP6 ADD SWAP5 DUP5 PUSH1 0x5 SHL ADD ADD GT PUSH2 0xEC JUMPI JUMP JUMPDEST SWAP2 SWAP1 DUP3 MLOAD SWAP3 DUP4 DUP3 MSTORE PUSH0 JUMPDEST DUP5 DUP2 LT PUSH2 0xB09 JUMPI POP POP DUP3 PUSH0 PUSH1 0x20 DUP1 SWAP5 SWAP6 DUP5 ADD ADD MSTORE PUSH1 0x1F DUP1 NOT SWAP2 ADD AND ADD ADD SWAP1 JUMP JUMPDEST PUSH1 0x20 DUP2 DUP4 ADD DUP2 ADD MLOAD DUP5 DUP4 ADD DUP3 ADD MSTORE ADD PUSH2 0xAE9 JUMP JUMPDEST SWAP2 DUP2 PUSH1 0x1F DUP5 ADD SLT ISZERO PUSH2 0xEC JUMPI DUP3 CALLDATALOAD SWAP2 PUSH8 0xFFFFFFFFFFFFFFFF DUP4 GT PUSH2 0xEC JUMPI PUSH1 0x20 DUP4 DUP2 DUP7 ADD SWAP6 ADD ADD GT PUSH2 0xEC JUMPI JUMP JUMPDEST ISZERO PUSH2 0xB52 JUMPI JUMP JUMPDEST PUSH1 0x40 MLOAD PUSH3 0x461BCD PUSH1 0xE5 SHL DUP2 MSTORE PUSH1 0x20 PUSH1 0x4 DUP3 ADD MSTORE PUSH1 0xA PUSH1 0x24 DUP3 ADD MSTORE PUSH10 0x27B7363C9037BBB732B9 PUSH1 0xB1 SHL PUSH1 0x44 DUP3 ADD MSTORE PUSH1 0x64 SWAP1 REVERT JUMPDEST SWAP1 PUSH1 0x1F DUP1 NOT SWAP2 ADD AND DUP2 ADD SWAP1 DUP2 LT PUSH8 0xFFFFFFFFFFFFFFFF DUP3 GT OR PUSH2 0xBA6 JUMPI PUSH1 0x40 MSTORE JUMP JUMPDEST PUSH4 0x4E487B71 PUSH1 0xE0 SHL PUSH0 MSTORE PUSH1 0x41 PUSH1 0x4 MSTORE PUSH1 0x24 PUSH0 REVERT JUMPDEST PUSH8 0xFFFFFFFFFFFFFFFF DUP2 GT PUSH2 0xBA6 JUMPI PUSH1 0x5 SHL PUSH1 0x20 ADD SWAP1 JUMP JUMPDEST SWAP2 SWAP1 DUP2 LT ISZERO PUSH2 0xBF4 JUMPI PUSH1 0x5 SHL DUP2 ADD CALLDATALOAD SWAP1 PUSH1 0x5E NOT DUP2 CALLDATASIZE SUB ADD DUP3 SLT ISZERO PUSH2 0xEC JUMPI ADD SWAP1 JUMP JUMPDEST PUSH4 0x4E487B71 PUSH1 0xE0 SHL PUSH0 MSTORE PUSH1 0x32 PUSH1 0x4 MSTORE PUSH1 0x24 PUSH0 REVERT JUMPDEST CALLDATALOAD PUSH1 0x1 PUSH1 0x1 PUSH1 0xA0 SHL SUB DUP2 AND DUP2 SUB PUSH2 0xEC JUMPI SWAP1 JUMP JUMPDEST SWAP1 CALLDATALOAD SWAP1 PUSH1 0x1E NOT DUP2 CALLDATASIZE SUB ADD DUP3 SLT ISZERO PUSH2 0xEC JUMPI ADD DUP1 CALLDATALOAD SWAP1 PUSH8 0xFFFFFFFFFFFFFFFF DUP3 GT PUSH2 0xEC JUMPI PUSH1 0x20 ADD SWAP2 DUP2 CALLDATASIZE SUB DUP4 SGT PUSH2 0xEC JUMPI JUMP JUMPDEST PUSH8 0xFFFFFFFFFFFFFFFF DUP2 GT PUSH2 0xBA6 JUMPI PUSH1 0x1F ADD PUSH1 0x1F NOT AND PUSH1 0x20 ADD SWAP1 JUMP JUMPDEST RETURNDATASIZE ISZERO PUSH2 0xC95 JUMPI RETURNDATASIZE SWAP1 PUSH2 0xC7C DUP3 PUSH2 0xC4F JUMP JUMPDEST SWAP2 PUSH2 0xC8A PUSH1 0x40 MLOAD SWAP4 DUP5 PUSH2 0xB84 JUMP JUMPDEST DUP3 MSTORE RETURNDATASIZE PUSH0 PUSH1 0x20 DUP5 ADD RETURNDATACOPY JUMP JUMPDEST PUSH1 0x60 SWAP1 JUMP JUMPDEST SWAP1 DUP1 PUSH1 0x20 SWAP4 SWAP3 DUP2 DUP5 MSTORE DUP5 DUP5 ADD CALLDATACOPY PUSH0 DUP3 DUP3 ADD DUP5 ADD MSTORE PUSH1 0x1F ADD PUSH1 0x1F NOT AND ADD ADD SWAP1 JUMP JUMPDEST SWAP3 SWAP2 PUSH2 0xCE6 SWAP5 SWAP3 PUSH2 0xCD8 SWAP3 DUP6 MSTORE PUSH1 0x60 PUSH1 0x20 DUP7 ADD MSTORE PUSH1 0x60 DUP6 ADD SWAP2 PUSH2 0xC9A JUMP JUMPDEST SWAP2 PUSH1 0x40 DUP2 DUP5 SUB SWAP2 ADD MSTORE PUSH2 0xADF JUMP JUMPDEST SWAP1 JUMP JUMPDEST DUP1 MLOAD DUP3 LT ISZERO PUSH2 0xBF4 JUMPI PUSH1 0x20 SWAP2 PUSH1 0x5 SHL ADD ADD SWAP1 JUMP JUMPDEST SWAP3 SWAP2 SWAP3 PUSH2 0xD09 DUP3 PUSH2 0xC4F JUMP JUMPDEST SWAP2 PUSH2 0xD17 PUSH1 0x40 MLOAD SWAP4 DUP5 PUSH2 0xB84 JUMP JUMPDEST DUP3 SWAP5 DUP2 DUP5 MSTORE DUP2 DUP4 ADD GT PUSH2 0xEC JUMPI DUP3 DUP2 PUSH1 0x20 SWAP4 DUP5 PUSH0 SWAP7 ADD CALLDATACOPY ADD ADD MSTORE JUMP JUMPDEST DUP2 MLOAD SWAP2 SWAP1 PUSH1 0x41 DUP4 SUB PUSH2 0xD63 JUMPI PUSH2 0xD5C SWAP3 POP PUSH1 0x20 DUP3 ADD MLOAD SWAP1 PUSH1 0x60 PUSH1 0x40 DUP5 ADD MLOAD SWAP4 ADD MLOAD PUSH0 BYTE SWAP1 PUSH2 0xDF0 JUMP JUMPDEST SWAP2 SWAP3 SWAP1 SWAP2 SWAP1 JUMP JUMPDEST POP POP PUSH0 SWAP2 PUSH1 0x2 SWAP2 SWAP1 JUMP JUMPDEST PUSH1 0x4 DUP2 LT ISZERO PUSH2 0xDDC JUMPI DUP1 PUSH2 0xD7F JUMPI POP POP JUMP JUMPDEST PUSH1 0x1 DUP2 SUB PUSH2 0xD99 JUMPI PUSH1 0x40 MLOAD PUSH4 0xF645EEDF PUSH1 0xE0 SHL DUP2 MSTORE PUSH1 0x4 SWAP1 REVERT JUMPDEST PUSH1 0x2 DUP2 SUB PUSH2 0xDBA JUMPI PUSH1 0x40 MLOAD PUSH4 0xFCE698F7 PUSH1 0xE0 SHL DUP2 MSTORE PUSH1 0x4 DUP2 ADD DUP4 SWAP1 MSTORE PUSH1 0x24 SWAP1 REVERT JUMPDEST PUSH1 0x3 EQ PUSH2 0xDC4 JUMPI POP JUMP JUMPDEST PUSH1 0x24 SWAP1 PUSH1 0x40 MLOAD SWAP1 PUSH4 0x35E2F383 PUSH1 0xE2 SHL DUP3 MSTORE PUSH1 0x4 DUP3 ADD MSTORE REVERT JUMPDEST PUSH4 0x4E487B71 PUSH1 0xE0 SHL PUSH0 MSTORE PUSH1 0x21 PUSH1 0x4 MSTORE PUSH1 0x24 PUSH0 REVERT JUMPDEST SWAP2 SWAP1 PUSH32 0x7FFFFFFFFFFFFFFFFFFFFFFFFFFFFFFF5D576E7357A4501DDFE92F46681B20A0 DUP5 GT PUSH2 0xE72 JUMPI SWAP2 PUSH1 0x20 SWAP4 PUSH1 0x80 SWAP3 PUSH1 0xFF PUSH0 SWAP6 PUSH1 0x40 MLOAD SWAP5 DUP6 MSTORE AND DUP7 DUP5 ADD MSTORE PUSH1 0x40 DUP4 ADD MSTORE PUSH1 0x60 DUP3 ADD MSTORE DUP3 DUP1 MSTORE PUSH1 0x1 GAS STATICCALL ISZERO PUSH2 0xE67 JUMPI PUSH0 MLOAD PUSH1 0x1 PUSH1 0x1 PUSH1 0xA0 SHL SUB DUP2 AND ISZERO PUSH2 0xE5D JUMPI SWAP1 PUSH0 SWAP1 PUSH0 SWAP1 JUMP JUMPDEST POP PUSH0 SWAP1 PUSH1 0x1 SWAP1 PUSH0 SWAP1 JUMP JUMPDEST PUSH1 0x40 MLOAD RETURNDATASIZE PUSH0 DUP3 RETURNDATACOPY RETURNDATASIZE SWAP1 REVERT JUMPDEST POP POP POP PUSH0 SWAP2 PUSH1 0x3 SWAP2 SWAP1 JUMP INVALID LOG2 PUSH5 0x6970667358 0x22 SLT KECCAK256 TIMESTAMP 0xB8 0xD9 0x2C 0xD5 PUSH20 0x54B663DBDA664B96608A615BE5C1A0EF996C89AF DUP12 SSTORE CALLDATASIZE EXTCODECOPY 0xC PUSH7 0x64736F6C634300 ADDMOD XOR STOP CALLER "},"methodIdentifiers":{"DOMAIN_SEPARATOR()":"3644e515","META_TRANSACTION_TYPEHASH()":"fa2c322d","execute(address,bytes,uint256)":"a04a0908","executeBatch((address,bytes,uint256)[])":"8a89b44b","executeMetaTransaction(address,address,bytes,bytes,uint256)":"aff2d5ee","getNonce(address)":"2d0335ab","getOwner()":"893d20e8","nonces(address)":"7ecebe00","onERC1155BatchReceived(address,address,uint256[],uint256[],bytes)":"bc197c81","onERC1155Received(address,address,uint256,uint256,bytes)":"f23a6e61","owner()":"8da5cb5b","supportsInterface(bytes4)":"01ffc9a7"}}}}}