{"project/contracts/AMMPoolFactorySimple.sol":{"AMMPoolFactorySimple":{"abi":[{"inputs":[{"internalType":"address","name":"_collateralToken","type":"address"},{"internalType":"address","name":"_conditionalTokens","type":"address"},{"internalType":"address","name":"_treasury","type":"address"}],"stateMutability":"nonpayable","type":"constructor"},{"inputs":[{"internalType":"address","name":"owner","type":"address"}],"name":"OwnableInvalidOwner","type":"error"},{"inputs":[{"internalType":"address","name":"account","type":"address"}],"name":"OwnableUnauthorizedAccount","type":"error"},{"anonymous":false,"inputs":[{"indexed":false,"internalType":"uint256","name":"lpFee","type":"uint256"},{"indexed":false,"internalType":"uint256","name":"protocolFee","type":"uint256"}],"name":"DefaultFeesUpdated","type":"event"},{"anonymous":false,"inputs":[{"indexed":false,"internalType":"uint256","name":"minLPFee","type":"uint256"},{"indexed":false,"internalType":"uint256","name":"maxLPFee","type":"uint256"},{"indexed":false,"internalType":"uint256","name":"minProtocolFee","type":"uint256"},{"indexed":false,"internalType":"uint256","name":"maxProtocolFee","type":"uint256"}],"name":"FeeLimitsUpdated","type":"event"},{"anonymous":false,"inputs":[{"indexed":true,"internalType":"address","name":"previousOwner","type":"address"},{"indexed":true,"internalType":"address","name":"newOwner","type":"address"}],"name":"OwnershipTransferred","type":"event"},{"anonymous":false,"inputs":[{"indexed":true,"internalType":"address","name":"pool","type":"address"},{"indexed":true,"internalType":"bytes32","name":"conditionId","type":"bytes32"},{"indexed":false,"internalType":"uint256","name":"yesPositionId","type":"uint256"},{"indexed":false,"internalType":"uint256","name":"noPositionId","type":"uint256"},{"indexed":false,"internalType":"uint256","name":"lpFee","type":"uint256"},{"indexed":false,"internalType":"uint256","name":"protocolFee","type":"uint256"}],"name":"PoolCreated","type":"event"},{"anonymous":false,"inputs":[{"indexed":false,"internalType":"address","name":"newTreasury","type":"address"}],"name":"TreasuryUpdated","type":"event"},{"inputs":[{"internalType":"uint256","name":"","type":"uint256"}],"name":"allPools","outputs":[{"internalType":"address","name":"","type":"address"}],"stateMutability":"view","type":"function"},{"inputs":[],"name":"collateralToken","outputs":[{"internalType":"address","name":"","type":"address"}],"stateMutability":"view","type":"function"},{"inputs":[],"name":"conditionalTokens","outputs":[{"internalType":"address","name":"","type":"address"}],"stateMutability":"view","type":"function"},{"inputs":[{"internalType":"string","name":"name","type":"string"},{"internalType":"string","name":"symbol","type":"string"},{"internalType":"bytes32","name":"conditionId","type":"bytes32"},{"internalType":"address","name":"oracle","type":"address"},{"internalType":"uint256","name":"yesPositionId","type":"uint256"},{"internalType":"uint256","name":"noPositionId","type":"uint256"},{"internalType":"uint256","name":"lpFee","type":"uint256"},{"internalType":"uint256","name":"protocolFee","type":"uint256"}],"name":"createPool","outputs":[{"internalType":"address","name":"pool","type":"address"}],"stateMutability":"nonpayable","type":"function"},{"inputs":[{"internalType":"string","name":"name","type":"string"},{"internalType":"string","name":"symbol","type":"string"},{"internalType":"bytes32","name":"conditionId","type":"bytes32"},{"internalType":"address","name":"oracle","type":"address"},{"internalType":"uint256","name":"yesPositionId","type":"uint256"},{"internalType":"uint256","name":"noPositionId","type":"uint256"}],"name":"createPoolWithDefaults","outputs":[{"internalType":"address","name":"pool","type":"address"}],"stateMutability":"nonpayable","type":"function"},{"inputs":[],"name":"defaultLPFee","outputs":[{"internalType":"uint256","name":"","type":"uint256"}],"stateMutability":"view","type":"function"},{"inputs":[],"name":"defaultProtocolFee","outputs":[{"internalType":"uint256","name":"","type":"uint256"}],"stateMutability":"view","type":"function"},{"inputs":[{"internalType":"bytes32","name":"conditionId","type":"bytes32"}],"name":"getPool","outputs":[{"internalType":"address","name":"","type":"address"}],"stateMutability":"view","type":"function"},{"inputs":[],"name":"getPoolCount","outputs":[{"internalType":"uint256","name":"","type":"uint256"}],"stateMutability":"view","type":"function"},{"inputs":[],"name":"maxLPFee","outputs":[{"internalType":"uint256","name":"","type":"uint256"}],"stateMutability":"view","type":"function"},{"inputs":[],"name":"maxProtocolFee","outputs":[{"internalType":"uint256","name":"","type":"uint256"}],"stateMutability":"view","type":"function"},{"inputs":[],"name":"minLPFee","outputs":[{"internalType":"uint256","name":"","type":"uint256"}],"stateMutability":"view","type":"function"},{"inputs":[],"name":"minProtocolFee","outputs":[{"internalType":"uint256","name":"","type":"uint256"}],"stateMutability":"view","type":"function"},{"inputs":[],"name":"owner","outputs":[{"internalType":"address","name":"","type":"address"}],"stateMutability":"view","type":"function"},{"inputs":[{"internalType":"bytes32","name":"","type":"bytes32"}],"name":"pools","outputs":[{"internalType":"address","name":"","type":"address"}],"stateMutability":"view","type":"function"},{"inputs":[],"name":"renounceOwnership","outputs":[],"stateMutability":"nonpayable","type":"function"},{"inputs":[{"internalType":"address","name":"newOwner","type":"address"}],"name":"transferOwnership","outputs":[],"stateMutability":"nonpayable","type":"function"},{"inputs":[],"name":"treasury","outputs":[{"internalType":"address","name":"","type":"address"}],"stateMutability":"view","type":"function"},{"inputs":[{"internalType":"uint256","name":"_lpFee","type":"uint256"},{"internalType":"uint256","name":"_protocolFee","type":"uint256"}],"name":"updateDefaultFees","outputs":[],"stateMutability":"nonpayable","type":"function"},{"inputs":[{"internalType":"uint256","name":"_minLPFee","type":"uint256"},{"internalType":"uint256","name":"_maxLPFee","type":"uint256"},{"internalType":"uint256","name":"_minProtocolFee","type":"uint256"},{"internalType":"uint256","name":"_maxProtocolFee","type":"uint256"}],"name":"updateFeeLimits","outputs":[],"stateMutability":"nonpayable","type":"function"},{"inputs":[{"internalType":"address","name":"_treasury","type":"address"}],"name":"updateTreasury","outputs":[],"stateMutability":"nonpayable","type":"function"}],"evm":{"bytecode":{"linkReferences":{},"object":"60c0346101ec57601f6131a538819003918201601f191683019291906001600160401b038411838510176101f05781606092849260409687528339810103126101ec5761004b81610204565b906100638361005c60208401610204565b9201610204565b9033156101d5575f80546001600160a01b0319808216339081178455875191956001600160a01b039490938516907f8be0079c531659141344cd1fd0a4f28419497f9722a3daafe3b4186f6b6457e09080a360326002556101f4600355600a60045560c8600555609660065560326007558286161561019e57508183161561016d57169283156101365760805260a052600154161760015551612f8c90816102198239608051818181610359015281816104890152610952015260a0518181816103370152818161083a01526109300152f35b845162461bcd60e51b815260206004820152601060248201526f496e76616c696420747265617375727960801b6044820152606490fd5b855162461bcd60e51b815260206004820152600a602482015269125b9d985b1a590810d560b21b6044820152606490fd5b62461bcd60e51b8152602060048201526012602482015271125b9d985b1a590818dbdb1b185d195c985b60721b6044820152606490fd5b8351631e4fbdf760e01b81525f6004820152602490fd5b5f80fd5b634e487b7160e01b5f52604160045260245ffd5b51906001600160a01b03821682036101ec5756fe608060408181526004918236101562000016575f80fd5b5f3560e01c90816341d1de971462000a2857508063421bcbdf1462000a085780635bc2a57e14620008695780635bd9e29914620008245780635ee31c7c146200080457806361d027b314620007da57806366c6146d14620006cf578063715018a614620006745780637f51bb1f14620005c45780638da5cb5b146200059b5780638eec5d70146200057b578063a3784e1d14620004d8578063abce0cd514620004b8578063b2016bd41462000473578063b5217bb41462000442578063bdf57194146200023d578063d74fb90d146200021d578063e904e09d14620001ff578063f2fde38b1462000170578063f30853fb14620001505763f6c00927146200011c575f80fd5b346200014c5760203660031901126200014c57602091355f526008825260018060a01b03815f2054169051908152f35b5f80fd5b50346200014c575f3660031901126200014c576020906002549051908152f35b5090346200014c5760203660031901126200014c576200018f62000b13565b906200019a62000d1d565b6001600160a01b03918216928315620001e95750505f54826001600160601b0360a01b8216175f55167f8be0079c531659141344cd1fd0a4f28419497f9722a3daafe3b4186f6b6457e05f80a3005b905f6024925191631e4fbdf760e01b8352820152fd5b50346200014c575f3660031901126200014c57602091549051908152f35b50346200014c575f3660031901126200014c576020906006549051908152f35b5090346200014c576101003660031901126200014c5767ffffffffffffffff9181358381116200014c5762000276903690840162000a82565b916024358481116200014c5762000291903690830162000a82565b604435916200029f62000afc565b956084359160a4359760c4359460e43598875f52600860205260018060a01b0394620002d1868b5f2054161562000b2a565b6002548810158062000435575b620002e99062000c9b565b84548b10158062000428575b620003009062000cd9565b8560015416928a519561220d9081880193888510908511176200041557508d898c8f94966200037f98968b9a988f9662000d4a8d397f0000000000000000000000000000000000000000000000000000000000000000927f00000000000000000000000000000000000000000000000000000000000000009262000ba5565b03905ff080156200040b579162000402602098927f6a8809def78dc86b8283b720aa0252607294925c6a692dc5083e4a576a3844f89416978895875f5260088b52885f20876001600160601b0360a01b825416179055620003e08762000c1d565b8851948594859094939260609260808301968352602083015260408201520152565b0390a351908152f35b85513d5f823e3d90fd5b604190634e487b7160e01b5f525260245ffd5b506005548b1115620002f5565b50600354881115620002de565b50346200014c5760203660031901126200014c57602091355f526008825260018060a01b03815f2054169051908152f35b50346200014c575f3660031901126200014c57517f00000000000000000000000000000000000000000000000000000000000000006001600160a01b03168152602090f35b50346200014c575f3660031901126200014c576020906003549051908152f35b50346200014c57806003193601126200014c57817fd31db2d23fe42d625fd61189088b6ca9e19f1d03ed676d9480fee9705dfca300923590602435906200051e62000d1d565b600254831015806200056e575b620005369062000c9b565b548110158062000561575b6200054c9062000cd9565b816006558060075582519182526020820152a1005b5060055481111562000541565b506003548311156200052b565b50346200014c575f3660031901126200014c576020906009549051908152f35b50346200014c575f3660031901126200014c575f5490516001600160a01b039091168152602090f35b5090346200014c5760203660031901126200014c57620005e362000b13565b620005ed62000d1d565b6001600160a01b03169081156200063e577f7dae230f18360d76a040c81f050aa14eb9d6dc7901b20fc5d855e2a20fe814d160208385816001600160601b0360a01b600154161760015551908152a1005b606490602084519162461bcd60e51b8352820152601060248201526f496e76616c696420747265617375727960801b6044820152fd5b346200014c575f3660031901126200014c576200069062000d1d565b5f80546001600160a01b0319811682556001600160a01b03167f8be0079c531659141344cd1fd0a4f28419497f9722a3daafe3b4186f6b6457e08280a3005b5090346200014c5760803660031901126200014c5780356024359160443560643591620006fb62000d1d565b848411620007a4578282116200076857907f7729779159307ca6c59cd8533245b6b4b8f92ab117061a96dee2b18c6efc824995816200076394938660025587600355558260055551948594859094939260609260808301968352602083015260408201520152565b0390a1005b606490602087519162461bcd60e51b83528201526016602482015275496e76616c69642070726f746f636f6c2072616e676560501b6044820152fd5b606490602087519162461bcd60e51b8352820152601060248201526f496e76616c6964204c502072616e676560801b6044820152fd5b50346200014c575f3660031901126200014c5760015490516001600160a01b039091168152602090f35b50346200014c575f3660031901126200014c576020906005549051908152f35b50346200014c575f3660031901126200014c57517f00000000000000000000000000000000000000000000000000000000000000006001600160a01b03168152602090f35b50346200014c5760c03660031901126200014c5767ffffffffffffffff9082358281116200014c57620008a0903690850162000a82565b926024358381116200014c57620008bb903690830162000a82565b60443591620008c962000afc565b6084359260a43596855f52600860205260018060a01b0398620008f28a895f2054161562000b2a565b60065490600754928b60015416948a519761220d90818a01938a8510908511176200041557508a89989694620009789896948f948d9462000d4a8d397f0000000000000000000000000000000000000000000000000000000000000000927f00000000000000000000000000000000000000000000000000000000000000009262000ba5565b03905ff08015620009fe576020957f6a8809def78dc86b8283b720aa0252607294925c6a692dc5083e4a576a3844f89116948592845f5260088852855f20846001600160601b0360a01b825416179055620009d38462000c1d565b6006546007548751928352602083019390935260408201526060810191909152806080810162000402565b83513d5f823e3d90fd5b50346200014c575f3660031901126200014c576020906007549051908152f35b83346200014c5760203660031901126200014c5735906009548210156200014c5760095f527f6e1540171b6c0c960b71a7020d9f60077f6af931a8bbf590da0223dacf75c7af909101546001600160a01b03168152602090f35b81601f820112156200014c5780359067ffffffffffffffff9283831162000ae85760405193601f8401601f19908116603f011685019081118582101762000ae857604052828452602083830101116200014c57815f926020809301838601378301015290565b634e487b7160e01b5f52604160045260245ffd5b606435906001600160a01b03821682036200014c57565b600435906001600160a01b03821682036200014c57565b1562000b3257565b60405162461bcd60e51b815260206004820152600b60248201526a506f6f6c2065786973747360a81b6044820152606490fd5b91908251928382525f5b84811062000b90575050825f602080949584010152601f8019910116010190565b60208183018101518483018201520162000b6f565b99948a989362000bde6101409b969e9d999462000bcf60409a958d61016090818152019062000b65565b8c810360208e01529062000b65565b9d60018060a01b039a8b998a8094169101521660608c015260808b015260a08a015260c089015260e08801526101008701521661012085015216910152565b6009546801000000000000000081101562000ae857600181018060095581101562000c875760095f527f6e1540171b6c0c960b71a7020d9f60077f6af931a8bbf590da0223dacf75c7af0180546001600160a01b0319166001600160a01b03909216919091179055565b634e487b7160e01b5f52603260045260245ffd5b1562000ca357565b60405162461bcd60e51b815260206004820152600e60248201526d496e76616c6964204c502066656560901b6044820152606490fd5b1562000ce157565b60405162461bcd60e51b8152602060048201526014602482015273496e76616c69642070726f746f636f6c2066656560601b6044820152606490fd5b5f546001600160a01b0316330362000d3157565b60405163118cdaa760e01b8152336004820152602490fdfe6101a0604052346200048a576200220d803803806200001e816200048e565b928339810161016080838303126200048a5782516001600160401b0391908281116200048a578362000052918601620004b4565b936020808201518481116200048a57620000be9562000073918401620004b4565b90620000826040840162000524565b620000906060850162000524565b90608085015160a08601519060c08701519260e0880151946101009c8d8a0151976101209d8e8c0162000524565b9c620000cf610140809d0162000524565b9a835182811162000395576003918254916001968784811c941680156200047f575b878510146200046b578190601f9485811162000418575b508790858311600114620003b5575f92620003a9575b50505f1982861b1c191690871b1783555b8051938411620003955760049485548781811c911680156200038a575b8282101462000377579081848796959493116200031e575b5080928511600114620002b457505f93620002a8575b505082851b925f19911b1c19161790555b6005556001600160a01b039182166080521660a05260c05260e0528852835283526101809384528452604051611cd395909490866200053a87396080518661043f015260a0518681816102c9015281816104e30152818161086b01528181610d44015281816112a80152611507015260c05186610f5b015260e0518681816102a601528181610529015281816108b201528181610f960152818161134b01526114e6015251858181610360015281816105820152818161090e01528181610d0c0152818161128701526115a7015251848181610c2b0152610dc701525183818161018201528181610bb701526111f3015251828181610b9601528181610d8b0152611222015251818181610cc5015281816113ff01526116140152f35b015191505f806200017a565b929190879550601f198516875f52845f20945f905b828210620003045750508511620002ea575b50505050811b0190556200018b565b01519060f8845f19921b161c191690555f808080620002db565b8484015187558a98909601959384019390810190620002c9565b909192939450865f52815f208480880160051c8201928489106200036d575b918a91899897969594930160051c01915b8281106200035e57505062000164565b5f81558897508a91016200034e565b925081926200033d565b602287634e487b7160e01b5f525260245ffd5b90607f16906200014c565b634e487b7160e01b5f52604160045260245ffd5b015190505f806200011e565b90899350601f19831691875f52895f20925f5b8b828210620004015750508411620003e9575b505050811b0183556200012f565b01515f1983881b60f8161c191690555f8080620003db565b8385015186558d97909501949384019301620003c8565b909150855f52875f208580850160051c8201928a861062000461575b918b91869594930160051c01915b8281106200045257505062000108565b5f81558594508b910162000442565b9250819262000434565b634e487b7160e01b5f52602260045260245ffd5b93607f1693620000f1565b5f80fd5b6040519190601f01601f191682016001600160401b038111838210176200039557604052565b919080601f840112156200048a5782516001600160401b0381116200039557602090620004ea601f8201601f191683016200048e565b928184528282870101116200048a575f5b818110620005105750825f9394955001015290565b8581018301518482018401528201620004fb565b51906001600160a01b03821682036200048a5756fe6080604081815260049182361015610015575f80fd5b5f925f3560e01c91826306fdde03146117225750816308c84c211461119a5781630902f1ac14611175578163095ea7b3146110cb57816318160ddd146110ac57816323b872dd14610fb95781632474b6bc14610f7e5781632ddc7de714610f43578163313ce56714610f275781633f6fa65514610f035781634f896d4f14610dae57816358f8588014610d735781635bd9e29914610d2f57816360e30d9e14610cf457816361d027b314610cb057816370a0823114610c7957816372a9fa6e14610c5a5781637dc0d1d014610c16578163827b650814610b6a5781638779086f14610b4657816395d89b4114610a415781639b34ae0314610a225781639c8f9f23146107c45781639cd441da1461049f578163a9059cbb1461046e578163b2016bd41461042a578163b2670d741461040b578163bdeda833146101f557508063dd62ed3e146101a95763f5b9848d1461016c575f80fd5b346101a557816003193601126101a557602090517f00000000000000000000000000000000000000000000000000000000000000008152f35b5080fd5b50346101a557806003193601126101a5576020916101c5611869565b826101ce61187f565b6001600160a01b03928316845260018652922091165f908152908352819020549051908152f35b9190503461034f57602036600319011261034f57813591610214611b07565b60ff60085416156103d35761022a8315156118df565b3384528360205261024083838620541015611ac2565b6002549261024f841515611969565b61027260016009541494855f146103c85761026d6006545b846119c5565b6119d8565b938415610399576102999190156103855761028f856006546119f6565b6006555b33611bf1565b60095460010361035d57837f0000000000000000000000000000000000000000000000000000000000000000915b7f00000000000000000000000000000000000000000000000000000000000000006001600160a01b0316803b1561034f5761031d93838793875196879586948593637921219560e11b8552339030908601611a03565b03925af180156103535761033b575b60208383600160055551908152f35b6103458491611895565b61034f578261032c565b8280fd5b82513d86823e3d90fd5b837f0000000000000000000000000000000000000000000000000000000000000000916102c7565b610391856007546119f6565b600755610293565b835162461bcd60e51b81526020818501526009602482015268139bc81c185e5bdd5d60ba1b6044820152606490fd5b61026d600754610267565b6020606492519162461bcd60e51b8352820152601360248201527213585c9ad95d081b9bdd081c995cdbdb1d9959606a1b6044820152fd5b5050346101a557816003193601126101a5576020906006549051908152f35b5050346101a557816003193601126101a557517f00000000000000000000000000000000000000000000000000000000000000006001600160a01b03168152602090f35b5050346101a557806003193601126101a55760209061049861048e611869565b6024359033611b2a565b5160018152f35b9190503461034f578060031936011261034f578135602435936104c0611b07565b811515806107bb575b6104d2906118df565b6104e160ff600854161561192b565b7f00000000000000000000000000000000000000000000000000000000000000006001600160a01b0316803b156101a5578351637921219560e11b80825290838180610552887f000000000000000000000000000000000000000000000000000000000000000030338e8601611a03565b038183875af180156107b15790849161079d575b5050813b1561034f57845190815290829082908183816105ab8c7f000000000000000000000000000000000000000000000000000000000000000030338f8601611a03565b03925af180156107935790829161077c575b5050600254908161074f576105d286846119a4565b916103e89081841061070c578181018091116106f9575f80516020611c7e83398151915260206001935f936002558484528382528884208181540190558851908152a36103e71982019182116106e65750925b610630841515611ac2565b61063c826006546119a4565b60065561064b856007546119a4565b60075533156106d057507f64b83944e79c3ce8d4c297411de637c3e102d064677aac0c163976ebdcd6f50e83602095610686826002546119a4565b600255335f525f8752845f2082815401905584518281525f5f80516020611c7e833981519152893393a38451938452602084015260408301523391606090a2600160055551908152f35b6024905f84519163ec442f0560e01b8352820152fd5b634e487b7160e01b815260118552602490fd5b601187634e487b7160e01b5f525260245ffd5b855162461bcd60e51b8152602081890152601e60248201527f496e73756666696369656e7420696e697469616c206c697175696469747900006044820152606490fd5b506107769061026d610766600654600754906119a4565b9161077188866119a4565b6119c5565b92610625565b61078590611895565b61079057805f6105bd565b80fd5b84513d84823e3d90fd5b6107a690611895565b61034f57825f610566565b86513d86823e3d90fd5b508415156104c9565b839150346101a55760203660031901126101a55780356107e2611b07565b6107ed8115156118df565b3383528260205261080381858520541015611ac2565b60025492610812841515611969565b600654926108248561026d86866119c5565b946108366007549161026d83876119c5565b9486151580610a19575b156109e05761085c916108548888936119f6565b6006556119f6565b6007556108698333611bf1565b7f00000000000000000000000000000000000000000000000000000000000000006001600160a01b031690813b1561034f578651637921219560e11b808252908481806108db8b7f000000000000000000000000000000000000000000000000000000000000000033308a8601611a03565b038183885af180156109d6579085916109c2575b5050823b156109be576109399284928388938b519687958694859384527f000000000000000000000000000000000000000000000000000000000000000090339030908601611a03565b03925af180156109b4576109a0575b50507f1dc8bb69df2b8e91fbdcbfcf93d951b3f0000f085a95fe3f7946d6161439245d84518061098c33948688846040919493926060820195825260208201520152565b0390a2600160055582519182526020820152f35b6109aa8291611895565b6107905780610948565b86513d84823e3d90fd5b8380fd5b6109cb90611895565b6109be5783896108ef565b89513d87823e3d90fd5b875162461bcd60e51b81526020818501526013602482015272125b9cdd59999a58da595b9d081bdd5d1c1d5d606a1b6044820152606490fd5b50851515610840565b5050346101a557816003193601126101a5576020906009549051908152f35b8383346101a557816003193601126101a55780519180938054916001908360011c9260018516948515610b3c575b6020958686108114610b2957858952908115610b055750600114610aad575b610aa98787610a9f828c03836118bd565b5191829182611813565b0390f35b81529295507f8a35acfbc15ff81a39ae7d344fd709f28e8600b4aa8c65c6b64bfe7fe36bd19b5b828410610af25750505082610aa994610a9f92820101948680610a8e565b8054868501880152928601928101610ad4565b60ff19168887015250505050151560051b8301019250610a9f82610aa98680610a8e565b634e487b7160e01b845260228352602484fd5b93607f1693610a6f565b5050346101a557816003193601126101a557602090610b63611a7a565b9051908152f35b82843461079057816003193601126107905750610b8561185a565b602435610be3612710610bdb6102677f00000000000000000000000000000000000000000000000000000000000000007f00000000000000000000000000000000000000000000000000000000000000006119a4565b0480926119f6565b9115610c0357610bf7600754831115611a36565b82519182526020820152f35b610c11600654831115611a36565b610bf7565b5050346101a557816003193601126101a557517f00000000000000000000000000000000000000000000000000000000000000006001600160a01b03168152602090f35b5050346101a557816003193601126101a5576020906007549051908152f35b5050346101a55760203660031901126101a55760209181906001600160a01b03610ca1611869565b16815280845220549051908152f35b5050346101a557816003193601126101a557517f00000000000000000000000000000000000000000000000000000000000000006001600160a01b03168152602090f35b5050346101a557816003193601126101a557602090517f00000000000000000000000000000000000000000000000000000000000000008152f35b5050346101a557816003193601126101a557517f00000000000000000000000000000000000000000000000000000000000000006001600160a01b03168152602090f35b5050346101a557816003193601126101a557602090517f00000000000000000000000000000000000000000000000000000000000000008152f35b9190503461034f57602036600319011261034f578135917f00000000000000000000000000000000000000000000000000000000000000006001600160a01b03163303610ec1576008549060ff8216610e8b5783158015610e81575b15610e4c575060ff19166001176008556009829055519081527f93608ecbcf057462da63f5aef413ce7f78c5e1b3bb51859d77a40845ece2bfc390602090a180f35b606490602084519162461bcd60e51b8352820152600f60248201526e496e76616c6964206f7574636f6d6560881b6044820152fd5b5060018414610e0a565b606490602084519162461bcd60e51b8352820152601060248201526f105b1c9958591e481c995cdbdb1d995960821b6044820152fd5b6020606492519162461bcd60e51b8352820152601760248201527f4f6e6c79206f7261636c652063616e207265736f6c76650000000000000000006044820152fd5b5050346101a557816003193601126101a55760209060ff6008541690519015158152f35b5050346101a557816003193601126101a5576020905160128152f35b5050346101a557816003193601126101a557602090517f00000000000000000000000000000000000000000000000000000000000000008152f35b5050346101a557816003193601126101a557602090517f00000000000000000000000000000000000000000000000000000000000000008152f35b839150346101a55760603660031901126101a557610fd5611869565b610fdd61187f565b91604435938560018060a01b03841691828152600160205220335f52602052855f2054915f198310611018575b602087610498888888611b2a565b85831061108057811561106a57331561105457505f9081526001602090815286822033835281529086902091859003909155829061049861100a565b6024905f885191634a1406b160e11b8352820152fd5b6024905f88519163e602df0560e01b8352820152fd5b8651637dc7a0d960e11b8152339181019182526020820193909352604081018690528291506060010390fd5b5050346101a557816003193601126101a5576020906002549051908152f35b828434610790578160031936011261079057506110e6611869565b60243590331561115f576001600160a01b03169081156111495760209350335f5260018452825f20825f52845280835f205582519081527f8c5be1e5ebec7d5bd14f71427d1e84f3dd0314c0f7b2291e5b200ac8c7c3b925843392a35160018152f35b8251634a1406b160e11b81525f81860152602490fd5b825163e602df0560e01b81525f81860152602490fd5b8284346107905780600319360112610790575060065460075482519182526020820152f35b91905034611699576060366003190112611699576111b661185a565b6024356111c1611b07565b6111cc8115156118df565b6111db60ff600854161561192b565b6006549384151580611717575b6111f190611969565b7f0000000000000000000000000000000000000000000000000000000000000000916127106112558161124d6112477f0000000000000000000000000000000000000000000000000000000000000000886119a4565b856119c5565b0494836119c5565b049161126b61126484866119f6565b94836119f6565b9660443588106116e05785156114de5750600754871161149b577f00000000000000000000000000000000000000000000000000000000000000007f00000000000000000000000000000000000000000000000000000000000000006001600160a01b0316803b15611497578751637921219560e11b80825293908b908181806112fa8a8930338a8601611a03565b038183885af1801561147957611483575b505061132261131a88876119f6565b6007546119a4565b6007556113318a6006546119f6565b600655813b156114755788518481528b908181806113748f7f000000000000000000000000000000000000000000000000000000000000000033308a8601611a03565b038183885af1801561147957611461575b5050866113e1575b50505050602096505b84519315158452868401528484840152606083015260808201527fd55848f048ca7d5fd9869d414bb60a426c2b0125c8adb982fee123da3f841ed860a03392a2600160055551908152f35b908a9291813b156109be578388956114288c519788968795869485527f00000000000000000000000000000000000000000000000000000000000000009030908601611a03565b03925af180156114575761143f575b80808061138d565b6114498891611895565b6114535786611437565b8680fd5b86513d8a823e3d90fd5b61146a90611895565b611475578a5f611385565b8a80fd5b8b513d84823e3d90fd5b61148c90611895565b611475578a5f61130b565b8980fd5b606490602087519162461bcd60e51b8352820152601760248201527f496e73756666696369656e74204e4f20726573657276650000000000000000006044820152fd5b871161169d577f00000000000000000000000000000000000000000000000000000000000000007f00000000000000000000000000000000000000000000000000000000000000006001600160a01b0316803b15611699578751637921219560e11b80825293905f818061155789883033898601611a03565b038183875af1801561168f5761167c575b5061157e61157688876119f6565b6006546119a4565b60065561158d8a6007546119f6565b600755813b156114755788518481528b908181806115d08f7f000000000000000000000000000000000000000000000000000000000000000033308a8601611a03565b038183885af1801561147957611668575b5050866115f6575b5050505060209650611396565b908a9291813b156109be5783889561163d8c519788968795869485527f00000000000000000000000000000000000000000000000000000000000000009030908601611a03565b03925af1801561145757611654575b8080806115e9565b61165e8891611895565b611453578661164c565b61167190611895565b611475578a5f6115e1565b611687919b50611895565b5f995f611568565b8a513d5f823e3d90fd5b5f80fd5b606490602087519162461bcd60e51b8352820152601860248201527f496e73756666696369656e7420594553207265736572766500000000000000006044820152fd5b865162461bcd60e51b8152602081840152601160248201527014db1a5c1c1859d948195e18d959591959607a1b6044820152606490fd5b5060075415156111e8565b8334611699575f366003190112611699575f9260035460018160011c91600181168015611809575b60209485851082146117f657508387529081156117d6575060011461177c575b505050610a9f82610aa99403836118bd565b60035f9081529295507fc2575a0e9e593c00f959f8c92f12db2869c3395a3b0502d05e2516446f71f85b5b8284106117c35750505082610aa994610a9f928201019461176a565b80548685018801529286019281016117a7565b60ff1916868501525050151560051b8301019250610a9f82610aa961176a565b602290634e487b7160e01b5f525260245ffd5b92607f169261174a565b602080825282518183018190529093925f5b82811061184657505060409293505f838284010152601f8019910116010190565b818101860151848201604001528501611825565b60043590811515820361169957565b600435906001600160a01b038216820361169957565b602435906001600160a01b038216820361169957565b67ffffffffffffffff81116118a957604052565b634e487b7160e01b5f52604160045260245ffd5b90601f8019910116810190811067ffffffffffffffff8211176118a957604052565b156118e657565b60405162461bcd60e51b815260206004820152601760248201527f416d6f756e74206d75737420626520706f7369746976650000000000000000006044820152606490fd5b1561193257565b60405162461bcd60e51b815260206004820152600f60248201526e13585c9ad95d081c995cdbdb1d9959608a1b6044820152606490fd5b1561197057565b60405162461bcd60e51b815260206004820152600c60248201526b4e6f206c697175696469747960a01b6044820152606490fd5b919082018092116119b157565b634e487b7160e01b5f52601160045260245ffd5b818102929181159184041417156119b157565b81156119e2570490565b634e487b7160e01b5f52601260045260245ffd5b919082039182116119b157565b929060c0949260018060a01b0380921685521660208401526040830152606082015260a060808201525f60a08201520190565b15611a3d57565b60405162461bcd60e51b8152602060048201526015602482015274496e73756666696369656e7420726573657276657360581b6044820152606490fd5b60065460075490611a8b82826119a4565b15611aba57612710908183029183830414831517156119b157611ab792611ab1916119a4565b906119d8565b90565b505061138890565b15611ac957565b60405162461bcd60e51b8152602060048201526016602482015275496e73756666696369656e74204c5020746f6b656e7360501b6044820152606490fd5b600260055414611b18576002600555565b604051633ee5aeb560e01b8152600490fd5b916001600160a01b03808416928315611bd95716928315611bc157825f525f60205260405f205490828210611b8f5750815f80516020611c7e83398151915292602092855f525f84520360405f2055845f5260405f20818154019055604051908152a3565b60405163391434e360e21b81526001600160a01b03919091166004820152602481019190915260448101829052606490fd5b60405163ec442f0560e01b81525f6004820152602490fd5b604051634b637e8f60e11b81525f6004820152602490fd5b91906001600160a01b038316908115611bd957815f525f60205260405f205493818510611c4b57506020815f80516020611c7e833981519152925f95968587528684520360408620558060025403600255604051908152a3565b60405163391434e360e21b81526001600160a01b03919091166004820152602481018590526044810191909152606490fdfeddf252ad1be2c89b69c2b068fc378daa952ba7f163c4a11628f55a4df523b3efa26469706673582212208632ebe483375ffbef9409336541b496c3429a8a194876cf7c7a09e3ee3254c164736f6c63430008180033a2646970667358221220b7e80e2f4280477acd56ef0d84afa4ed87d879d40ae61fdd8bbb40ad590d198a64736f6c63430008180033","opcodes":"PUSH1 0xC0 CALLVALUE PUSH2 0x1EC JUMPI PUSH1 0x1F PUSH2 0x31A5 CODESIZE DUP2 SWAP1 SUB SWAP2 DUP3 ADD PUSH1 0x1F NOT AND DUP4 ADD SWAP3 SWAP2 SWAP1 PUSH1 0x1 PUSH1 0x1 PUSH1 0x40 SHL SUB DUP5 GT DUP4 DUP6 LT OR PUSH2 0x1F0 JUMPI DUP2 PUSH1 0x60 SWAP3 DUP5 SWAP3 PUSH1 0x40 SWAP7 DUP8 MSTORE DUP4 CODECOPY DUP2 ADD SUB SLT PUSH2 0x1EC JUMPI PUSH2 0x4B DUP2 PUSH2 0x204 JUMP JUMPDEST SWAP1 PUSH2 0x63 DUP4 PUSH2 0x5C PUSH1 0x20 DUP5 ADD PUSH2 0x204 JUMP JUMPDEST SWAP3 ADD PUSH2 0x204 JUMP JUMPDEST SWAP1 CALLER ISZERO PUSH2 0x1D5 JUMPI PUSH0 DUP1 SLOAD PUSH1 0x1 PUSH1 0x1 PUSH1 0xA0 SHL SUB NOT DUP1 DUP3 AND CALLER SWAP1 DUP2 OR DUP5 SSTORE DUP8 MLOAD SWAP2 SWAP6 PUSH1 0x1 PUSH1 0x1 PUSH1 0xA0 SHL SUB SWAP5 SWAP1 SWAP4 DUP6 AND SWAP1 PUSH32 0x8BE0079C531659141344CD1FD0A4F28419497F9722A3DAAFE3B4186F6B6457E0 SWAP1 DUP1 LOG3 PUSH1 0x32 PUSH1 0x2 SSTORE PUSH2 0x1F4 PUSH1 0x3 SSTORE PUSH1 0xA PUSH1 0x4 SSTORE PUSH1 0xC8 PUSH1 0x5 SSTORE PUSH1 0x96 PUSH1 0x6 SSTORE PUSH1 0x32 PUSH1 0x7 SSTORE DUP3 DUP7 AND ISZERO PUSH2 0x19E JUMPI POP DUP2 DUP4 AND ISZERO PUSH2 0x16D JUMPI AND SWAP3 DUP4 ISZERO PUSH2 0x136 JUMPI PUSH1 0x80 MSTORE PUSH1 0xA0 MSTORE PUSH1 0x1 SLOAD AND OR PUSH1 0x1 SSTORE MLOAD PUSH2 0x2F8C SWAP1 DUP2 PUSH2 0x219 DUP3 CODECOPY PUSH1 0x80 MLOAD DUP2 DUP2 DUP2 PUSH2 0x359 ADD MSTORE DUP2 DUP2 PUSH2 0x489 ADD MSTORE PUSH2 0x952 ADD MSTORE PUSH1 0xA0 MLOAD DUP2 DUP2 DUP2 PUSH2 0x337 ADD MSTORE DUP2 DUP2 PUSH2 0x83A ADD MSTORE PUSH2 0x930 ADD MSTORE RETURN JUMPDEST DUP5 MLOAD PUSH3 0x461BCD PUSH1 0xE5 SHL DUP2 MSTORE PUSH1 0x20 PUSH1 0x4 DUP3 ADD MSTORE PUSH1 0x10 PUSH1 0x24 DUP3 ADD MSTORE PUSH16 0x496E76616C6964207472656173757279 PUSH1 0x80 SHL PUSH1 0x44 DUP3 ADD MSTORE PUSH1 0x64 SWAP1 REVERT JUMPDEST DUP6 MLOAD PUSH3 0x461BCD PUSH1 0xE5 SHL DUP2 MSTORE PUSH1 0x20 PUSH1 0x4 DUP3 ADD MSTORE PUSH1 0xA PUSH1 0x24 DUP3 ADD MSTORE PUSH10 0x125B9D985B1A590810D5 PUSH1 0xB2 SHL PUSH1 0x44 DUP3 ADD MSTORE PUSH1 0x64 SWAP1 REVERT JUMPDEST PUSH3 0x461BCD PUSH1 0xE5 SHL DUP2 MSTORE PUSH1 0x20 PUSH1 0x4 DUP3 ADD MSTORE PUSH1 0x12 PUSH1 0x24 DUP3 ADD MSTORE PUSH18 0x125B9D985B1A590818DBDB1B185D195C985B PUSH1 0x72 SHL PUSH1 0x44 DUP3 ADD MSTORE PUSH1 0x64 SWAP1 REVERT JUMPDEST DUP4 MLOAD PUSH4 0x1E4FBDF7 PUSH1 0xE0 SHL DUP2 MSTORE PUSH0 PUSH1 0x4 DUP3 ADD MSTORE PUSH1 0x24 SWAP1 REVERT JUMPDEST PUSH0 DUP1 REVERT JUMPDEST PUSH4 0x4E487B71 PUSH1 0xE0 SHL PUSH0 MSTORE PUSH1 0x41 PUSH1 0x4 MSTORE PUSH1 0x24 PUSH0 REVERT JUMPDEST MLOAD SWAP1 PUSH1 0x1 PUSH1 0x1 PUSH1 0xA0 SHL SUB DUP3 AND DUP3 SUB PUSH2 0x1EC JUMPI JUMP INVALID PUSH1 0x80 PUSH1 0x40 DUP2 DUP2 MSTORE PUSH1 0x4 SWAP2 DUP3 CALLDATASIZE LT ISZERO PUSH3 0x16 JUMPI PUSH0 DUP1 REVERT JUMPDEST PUSH0 CALLDATALOAD PUSH1 0xE0 SHR SWAP1 DUP2 PUSH4 0x41D1DE97 EQ PUSH3 0xA28 JUMPI POP DUP1 PUSH4 0x421BCBDF EQ PUSH3 0xA08 JUMPI DUP1 PUSH4 0x5BC2A57E EQ PUSH3 0x869 JUMPI DUP1 PUSH4 0x5BD9E299 EQ PUSH3 0x824 JUMPI DUP1 PUSH4 0x5EE31C7C EQ PUSH3 0x804 JUMPI DUP1 PUSH4 0x61D027B3 EQ PUSH3 0x7DA JUMPI DUP1 PUSH4 0x66C6146D EQ PUSH3 0x6CF JUMPI DUP1 PUSH4 0x715018A6 EQ PUSH3 0x674 JUMPI DUP1 PUSH4 0x7F51BB1F EQ PUSH3 0x5C4 JUMPI DUP1 PUSH4 0x8DA5CB5B EQ PUSH3 0x59B JUMPI DUP1 PUSH4 0x8EEC5D70 EQ PUSH3 0x57B JUMPI DUP1 PUSH4 0xA3784E1D EQ PUSH3 0x4D8 JUMPI DUP1 PUSH4 0xABCE0CD5 EQ PUSH3 0x4B8 JUMPI DUP1 PUSH4 0xB2016BD4 EQ PUSH3 0x473 JUMPI DUP1 PUSH4 0xB5217BB4 EQ PUSH3 0x442 JUMPI DUP1 PUSH4 0xBDF57194 EQ PUSH3 0x23D JUMPI DUP1 PUSH4 0xD74FB90D EQ PUSH3 0x21D JUMPI DUP1 PUSH4 0xE904E09D EQ PUSH3 0x1FF JUMPI DUP1 PUSH4 0xF2FDE38B EQ PUSH3 0x170 JUMPI DUP1 PUSH4 0xF30853FB EQ PUSH3 0x150 JUMPI PUSH4 0xF6C00927 EQ PUSH3 0x11C JUMPI PUSH0 DUP1 REVERT JUMPDEST CALLVALUE PUSH3 0x14C JUMPI PUSH1 0x20 CALLDATASIZE PUSH1 0x3 NOT ADD SLT PUSH3 0x14C JUMPI PUSH1 0x20 SWAP2 CALLDATALOAD PUSH0 MSTORE PUSH1 0x8 DUP3 MSTORE PUSH1 0x1 DUP1 PUSH1 0xA0 SHL SUB DUP2 PUSH0 KECCAK256 SLOAD AND SWAP1 MLOAD SWAP1 DUP2 MSTORE RETURN JUMPDEST PUSH0 DUP1 REVERT JUMPDEST POP CALLVALUE PUSH3 0x14C JUMPI PUSH0 CALLDATASIZE PUSH1 0x3 NOT ADD SLT PUSH3 0x14C JUMPI PUSH1 0x20 SWAP1 PUSH1 0x2 SLOAD SWAP1 MLOAD SWAP1 DUP2 MSTORE RETURN JUMPDEST POP SWAP1 CALLVALUE PUSH3 0x14C JUMPI PUSH1 0x20 CALLDATASIZE PUSH1 0x3 NOT ADD SLT PUSH3 0x14C JUMPI PUSH3 0x18F PUSH3 0xB13 JUMP JUMPDEST SWAP1 PUSH3 0x19A PUSH3 0xD1D JUMP JUMPDEST PUSH1 0x1 PUSH1 0x1 PUSH1 0xA0 SHL SUB SWAP2 DUP3 AND SWAP3 DUP4 ISZERO PUSH3 0x1E9 JUMPI POP POP PUSH0 SLOAD DUP3 PUSH1 0x1 PUSH1 0x1 PUSH1 0x60 SHL SUB PUSH1 0xA0 SHL DUP3 AND OR PUSH0 SSTORE AND PUSH32 0x8BE0079C531659141344CD1FD0A4F28419497F9722A3DAAFE3B4186F6B6457E0 PUSH0 DUP1 LOG3 STOP JUMPDEST SWAP1 PUSH0 PUSH1 0x24 SWAP3 MLOAD SWAP2 PUSH4 0x1E4FBDF7 PUSH1 0xE0 SHL DUP4 MSTORE DUP3 ADD MSTORE REVERT JUMPDEST POP CALLVALUE PUSH3 0x14C JUMPI PUSH0 CALLDATASIZE PUSH1 0x3 NOT ADD SLT PUSH3 0x14C JUMPI PUSH1 0x20 SWAP2 SLOAD SWAP1 MLOAD SWAP1 DUP2 MSTORE RETURN JUMPDEST POP CALLVALUE PUSH3 0x14C JUMPI PUSH0 CALLDATASIZE PUSH1 0x3 NOT ADD SLT PUSH3 0x14C JUMPI PUSH1 0x20 SWAP1 PUSH1 0x6 SLOAD SWAP1 MLOAD SWAP1 DUP2 MSTORE RETURN JUMPDEST POP SWAP1 CALLVALUE PUSH3 0x14C JUMPI PUSH2 0x100 CALLDATASIZE PUSH1 0x3 NOT ADD SLT PUSH3 0x14C JUMPI PUSH8 0xFFFFFFFFFFFFFFFF SWAP2 DUP2 CALLDATALOAD DUP4 DUP2 GT PUSH3 0x14C JUMPI PUSH3 0x276 SWAP1 CALLDATASIZE SWAP1 DUP5 ADD PUSH3 0xA82 JUMP JUMPDEST SWAP2 PUSH1 0x24 CALLDATALOAD DUP5 DUP2 GT PUSH3 0x14C JUMPI PUSH3 0x291 SWAP1 CALLDATASIZE SWAP1 DUP4 ADD PUSH3 0xA82 JUMP JUMPDEST PUSH1 0x44 CALLDATALOAD SWAP2 PUSH3 0x29F PUSH3 0xAFC JUMP JUMPDEST SWAP6 PUSH1 0x84 CALLDATALOAD SWAP2 PUSH1 0xA4 CALLDATALOAD SWAP8 PUSH1 0xC4 CALLDATALOAD SWAP5 PUSH1 0xE4 CALLDATALOAD SWAP9 DUP8 PUSH0 MSTORE PUSH1 0x8 PUSH1 0x20 MSTORE PUSH1 0x1 DUP1 PUSH1 0xA0 SHL SUB SWAP5 PUSH3 0x2D1 DUP7 DUP12 PUSH0 KECCAK256 SLOAD AND ISZERO PUSH3 0xB2A JUMP JUMPDEST PUSH1 0x2 SLOAD DUP9 LT ISZERO DUP1 PUSH3 0x435 JUMPI JUMPDEST PUSH3 0x2E9 SWAP1 PUSH3 0xC9B JUMP JUMPDEST DUP5 SLOAD DUP12 LT ISZERO DUP1 PUSH3 0x428 JUMPI JUMPDEST PUSH3 0x300 SWAP1 PUSH3 0xCD9 JUMP JUMPDEST DUP6 PUSH1 0x1 SLOAD AND SWAP3 DUP11 MLOAD SWAP6 PUSH2 0x220D SWAP1 DUP2 DUP9 ADD SWAP4 DUP9 DUP6 LT SWAP1 DUP6 GT OR PUSH3 0x415 JUMPI POP DUP14 DUP10 DUP13 DUP16 SWAP5 SWAP7 PUSH3 0x37F SWAP9 SWAP7 DUP12 SWAP11 SWAP9 DUP16 SWAP7 PUSH3 0xD4A DUP14 CODECOPY PUSH32 0x0 SWAP3 PUSH32 0x0 SWAP3 PUSH3 0xBA5 JUMP JUMPDEST SUB SWAP1 PUSH0 CREATE DUP1 ISZERO PUSH3 0x40B JUMPI SWAP2 PUSH3 0x402 PUSH1 0x20 SWAP9 SWAP3 PUSH32 0x6A8809DEF78DC86B8283B720AA0252607294925C6A692DC5083E4A576A3844F8 SWAP5 AND SWAP8 DUP9 SWAP6 DUP8 PUSH0 MSTORE PUSH1 0x8 DUP12 MSTORE DUP9 PUSH0 KECCAK256 DUP8 PUSH1 0x1 PUSH1 0x1 PUSH1 0x60 SHL SUB PUSH1 0xA0 SHL DUP3 SLOAD AND OR SWAP1 SSTORE PUSH3 0x3E0 DUP8 PUSH3 0xC1D JUMP JUMPDEST DUP9 MLOAD SWAP5 DUP6 SWAP5 DUP6 SWAP1 SWAP5 SWAP4 SWAP3 PUSH1 0x60 SWAP3 PUSH1 0x80 DUP4 ADD SWAP7 DUP4 MSTORE PUSH1 0x20 DUP4 ADD MSTORE PUSH1 0x40 DUP3 ADD MSTORE ADD MSTORE JUMP JUMPDEST SUB SWAP1 LOG3 MLOAD SWAP1 DUP2 MSTORE RETURN JUMPDEST DUP6 MLOAD RETURNDATASIZE PUSH0 DUP3 RETURNDATACOPY RETURNDATASIZE SWAP1 REVERT JUMPDEST PUSH1 0x41 SWAP1 PUSH4 0x4E487B71 PUSH1 0xE0 SHL PUSH0 MSTORE MSTORE PUSH1 0x24 PUSH0 REVERT JUMPDEST POP PUSH1 0x5 SLOAD DUP12 GT ISZERO PUSH3 0x2F5 JUMP JUMPDEST POP PUSH1 0x3 SLOAD DUP9 GT ISZERO PUSH3 0x2DE JUMP JUMPDEST POP CALLVALUE PUSH3 0x14C JUMPI PUSH1 0x20 CALLDATASIZE PUSH1 0x3 NOT ADD SLT PUSH3 0x14C JUMPI PUSH1 0x20 SWAP2 CALLDATALOAD PUSH0 MSTORE PUSH1 0x8 DUP3 MSTORE PUSH1 0x1 DUP1 PUSH1 0xA0 SHL SUB DUP2 PUSH0 KECCAK256 SLOAD AND SWAP1 MLOAD SWAP1 DUP2 MSTORE RETURN JUMPDEST POP CALLVALUE PUSH3 0x14C JUMPI PUSH0 CALLDATASIZE PUSH1 0x3 NOT ADD SLT PUSH3 0x14C JUMPI MLOAD PUSH32 0x0 PUSH1 0x1 PUSH1 0x1 PUSH1 0xA0 SHL SUB AND DUP2 MSTORE PUSH1 0x20 SWAP1 RETURN JUMPDEST POP CALLVALUE PUSH3 0x14C JUMPI PUSH0 CALLDATASIZE PUSH1 0x3 NOT ADD SLT PUSH3 0x14C JUMPI PUSH1 0x20 SWAP1 PUSH1 0x3 SLOAD SWAP1 MLOAD SWAP1 DUP2 MSTORE RETURN JUMPDEST POP CALLVALUE PUSH3 0x14C JUMPI DUP1 PUSH1 0x3 NOT CALLDATASIZE ADD SLT PUSH3 0x14C JUMPI DUP2 PUSH32 0xD31DB2D23FE42D625FD61189088B6CA9E19F1D03ED676D9480FEE9705DFCA300 SWAP3 CALLDATALOAD SWAP1 PUSH1 0x24 CALLDATALOAD SWAP1 PUSH3 0x51E PUSH3 0xD1D JUMP JUMPDEST PUSH1 0x2 SLOAD DUP4 LT ISZERO DUP1 PUSH3 0x56E JUMPI JUMPDEST PUSH3 0x536 SWAP1 PUSH3 0xC9B JUMP JUMPDEST SLOAD DUP2 LT ISZERO DUP1 PUSH3 0x561 JUMPI JUMPDEST PUSH3 0x54C SWAP1 PUSH3 0xCD9 JUMP JUMPDEST DUP2 PUSH1 0x6 SSTORE DUP1 PUSH1 0x7 SSTORE DUP3 MLOAD SWAP2 DUP3 MSTORE PUSH1 0x20 DUP3 ADD MSTORE LOG1 STOP JUMPDEST POP PUSH1 0x5 SLOAD DUP2 GT ISZERO PUSH3 0x541 JUMP JUMPDEST POP PUSH1 0x3 SLOAD DUP4 GT ISZERO PUSH3 0x52B JUMP JUMPDEST POP CALLVALUE PUSH3 0x14C JUMPI PUSH0 CALLDATASIZE PUSH1 0x3 NOT ADD SLT PUSH3 0x14C JUMPI PUSH1 0x20 SWAP1 PUSH1 0x9 SLOAD SWAP1 MLOAD SWAP1 DUP2 MSTORE RETURN JUMPDEST POP CALLVALUE PUSH3 0x14C JUMPI PUSH0 CALLDATASIZE PUSH1 0x3 NOT ADD SLT PUSH3 0x14C JUMPI PUSH0 SLOAD SWAP1 MLOAD PUSH1 0x1 PUSH1 0x1 PUSH1 0xA0 SHL SUB SWAP1 SWAP2 AND DUP2 MSTORE PUSH1 0x20 SWAP1 RETURN JUMPDEST POP SWAP1 CALLVALUE PUSH3 0x14C JUMPI PUSH1 0x20 CALLDATASIZE PUSH1 0x3 NOT ADD SLT PUSH3 0x14C JUMPI PUSH3 0x5E3 PUSH3 0xB13 JUMP JUMPDEST PUSH3 0x5ED PUSH3 0xD1D JUMP JUMPDEST PUSH1 0x1 PUSH1 0x1 PUSH1 0xA0 SHL SUB AND SWAP1 DUP2 ISZERO PUSH3 0x63E JUMPI PUSH32 0x7DAE230F18360D76A040C81F050AA14EB9D6DC7901B20FC5D855E2A20FE814D1 PUSH1 0x20 DUP4 DUP6 DUP2 PUSH1 0x1 PUSH1 0x1 PUSH1 0x60 SHL SUB PUSH1 0xA0 SHL PUSH1 0x1 SLOAD AND OR PUSH1 0x1 SSTORE MLOAD SWAP1 DUP2 MSTORE LOG1 STOP JUMPDEST PUSH1 0x64 SWAP1 PUSH1 0x20 DUP5 MLOAD SWAP2 PUSH3 0x461BCD PUSH1 0xE5 SHL DUP4 MSTORE DUP3 ADD MSTORE PUSH1 0x10 PUSH1 0x24 DUP3 ADD MSTORE PUSH16 0x496E76616C6964207472656173757279 PUSH1 0x80 SHL PUSH1 0x44 DUP3 ADD MSTORE REVERT JUMPDEST CALLVALUE PUSH3 0x14C JUMPI PUSH0 CALLDATASIZE PUSH1 0x3 NOT ADD SLT PUSH3 0x14C JUMPI PUSH3 0x690 PUSH3 0xD1D JUMP JUMPDEST PUSH0 DUP1 SLOAD PUSH1 0x1 PUSH1 0x1 PUSH1 0xA0 SHL SUB NOT DUP2 AND DUP3 SSTORE PUSH1 0x1 PUSH1 0x1 PUSH1 0xA0 SHL SUB AND PUSH32 0x8BE0079C531659141344CD1FD0A4F28419497F9722A3DAAFE3B4186F6B6457E0 DUP3 DUP1 LOG3 STOP JUMPDEST POP SWAP1 CALLVALUE PUSH3 0x14C JUMPI PUSH1 0x80 CALLDATASIZE PUSH1 0x3 NOT ADD SLT PUSH3 0x14C JUMPI DUP1 CALLDATALOAD PUSH1 0x24 CALLDATALOAD SWAP2 PUSH1 0x44 CALLDATALOAD PUSH1 0x64 CALLDATALOAD SWAP2 PUSH3 0x6FB PUSH3 0xD1D JUMP JUMPDEST DUP5 DUP5 GT PUSH3 0x7A4 JUMPI DUP3 DUP3 GT PUSH3 0x768 JUMPI SWAP1 PUSH32 0x7729779159307CA6C59CD8533245B6B4B8F92AB117061A96DEE2B18C6EFC8249 SWAP6 DUP2 PUSH3 0x763 SWAP5 SWAP4 DUP7 PUSH1 0x2 SSTORE DUP8 PUSH1 0x3 SSTORE SSTORE DUP3 PUSH1 0x5 SSTORE MLOAD SWAP5 DUP6 SWAP5 DUP6 SWAP1 SWAP5 SWAP4 SWAP3 PUSH1 0x60 SWAP3 PUSH1 0x80 DUP4 ADD SWAP7 DUP4 MSTORE PUSH1 0x20 DUP4 ADD MSTORE PUSH1 0x40 DUP3 ADD MSTORE ADD MSTORE JUMP JUMPDEST SUB SWAP1 LOG1 STOP JUMPDEST PUSH1 0x64 SWAP1 PUSH1 0x20 DUP8 MLOAD SWAP2 PUSH3 0x461BCD PUSH1 0xE5 SHL DUP4 MSTORE DUP3 ADD MSTORE PUSH1 0x16 PUSH1 0x24 DUP3 ADD MSTORE PUSH22 0x496E76616C69642070726F746F636F6C2072616E6765 PUSH1 0x50 SHL PUSH1 0x44 DUP3 ADD MSTORE REVERT JUMPDEST PUSH1 0x64 SWAP1 PUSH1 0x20 DUP8 MLOAD SWAP2 PUSH3 0x461BCD PUSH1 0xE5 SHL DUP4 MSTORE DUP3 ADD MSTORE PUSH1 0x10 PUSH1 0x24 DUP3 ADD MSTORE PUSH16 0x496E76616C6964204C502072616E6765 PUSH1 0x80 SHL PUSH1 0x44 DUP3 ADD MSTORE REVERT JUMPDEST POP CALLVALUE PUSH3 0x14C JUMPI PUSH0 CALLDATASIZE PUSH1 0x3 NOT ADD SLT PUSH3 0x14C JUMPI PUSH1 0x1 SLOAD SWAP1 MLOAD PUSH1 0x1 PUSH1 0x1 PUSH1 0xA0 SHL SUB SWAP1 SWAP2 AND DUP2 MSTORE PUSH1 0x20 SWAP1 RETURN JUMPDEST POP CALLVALUE PUSH3 0x14C JUMPI PUSH0 CALLDATASIZE PUSH1 0x3 NOT ADD SLT PUSH3 0x14C JUMPI PUSH1 0x20 SWAP1 PUSH1 0x5 SLOAD SWAP1 MLOAD SWAP1 DUP2 MSTORE RETURN JUMPDEST POP CALLVALUE PUSH3 0x14C JUMPI PUSH0 CALLDATASIZE PUSH1 0x3 NOT ADD SLT PUSH3 0x14C JUMPI MLOAD PUSH32 0x0 PUSH1 0x1 PUSH1 0x1 PUSH1 0xA0 SHL SUB AND DUP2 MSTORE PUSH1 0x20 SWAP1 RETURN JUMPDEST POP CALLVALUE PUSH3 0x14C JUMPI PUSH1 0xC0 CALLDATASIZE PUSH1 0x3 NOT ADD SLT PUSH3 0x14C JUMPI PUSH8 0xFFFFFFFFFFFFFFFF SWAP1 DUP3 CALLDATALOAD DUP3 DUP2 GT PUSH3 0x14C JUMPI PUSH3 0x8A0 SWAP1 CALLDATASIZE SWAP1 DUP6 ADD PUSH3 0xA82 JUMP JUMPDEST SWAP3 PUSH1 0x24 CALLDATALOAD DUP4 DUP2 GT PUSH3 0x14C JUMPI PUSH3 0x8BB SWAP1 CALLDATASIZE SWAP1 DUP4 ADD PUSH3 0xA82 JUMP JUMPDEST PUSH1 0x44 CALLDATALOAD SWAP2 PUSH3 0x8C9 PUSH3 0xAFC JUMP JUMPDEST PUSH1 0x84 CALLDATALOAD SWAP3 PUSH1 0xA4 CALLDATALOAD SWAP7 DUP6 PUSH0 MSTORE PUSH1 0x8 PUSH1 0x20 MSTORE PUSH1 0x1 DUP1 PUSH1 0xA0 SHL SUB SWAP9 PUSH3 0x8F2 DUP11 DUP10 PUSH0 KECCAK256 SLOAD AND ISZERO PUSH3 0xB2A JUMP JUMPDEST PUSH1 0x6 SLOAD SWAP1 PUSH1 0x7 SLOAD SWAP3 DUP12 PUSH1 0x1 SLOAD AND SWAP5 DUP11 MLOAD SWAP8 PUSH2 0x220D SWAP1 DUP2 DUP11 ADD SWAP4 DUP11 DUP6 LT SWAP1 DUP6 GT OR PUSH3 0x415 JUMPI POP DUP11 DUP10 SWAP9 SWAP7 SWAP5 PUSH3 0x978 SWAP9 SWAP7 SWAP5 DUP16 SWAP5 DUP14 SWAP5 PUSH3 0xD4A DUP14 CODECOPY PUSH32 0x0 SWAP3 PUSH32 0x0 SWAP3 PUSH3 0xBA5 JUMP JUMPDEST SUB SWAP1 PUSH0 CREATE DUP1 ISZERO PUSH3 0x9FE JUMPI PUSH1 0x20 SWAP6 PUSH32 0x6A8809DEF78DC86B8283B720AA0252607294925C6A692DC5083E4A576A3844F8 SWAP2 AND SWAP5 DUP6 SWAP3 DUP5 PUSH0 MSTORE PUSH1 0x8 DUP9 MSTORE DUP6 PUSH0 KECCAK256 DUP5 PUSH1 0x1 PUSH1 0x1 PUSH1 0x60 SHL SUB PUSH1 0xA0 SHL DUP3 SLOAD AND OR SWAP1 SSTORE PUSH3 0x9D3 DUP5 PUSH3 0xC1D JUMP JUMPDEST PUSH1 0x6 SLOAD PUSH1 0x7 SLOAD DUP8 MLOAD SWAP3 DUP4 MSTORE PUSH1 0x20 DUP4 ADD SWAP4 SWAP1 SWAP4 MSTORE PUSH1 0x40 DUP3 ADD MSTORE PUSH1 0x60 DUP2 ADD SWAP2 SWAP1 SWAP2 MSTORE DUP1 PUSH1 0x80 DUP2 ADD PUSH3 0x402 JUMP JUMPDEST DUP4 MLOAD RETURNDATASIZE PUSH0 DUP3 RETURNDATACOPY RETURNDATASIZE SWAP1 REVERT JUMPDEST POP CALLVALUE PUSH3 0x14C JUMPI PUSH0 CALLDATASIZE PUSH1 0x3 NOT ADD SLT PUSH3 0x14C JUMPI PUSH1 0x20 SWAP1 PUSH1 0x7 SLOAD SWAP1 MLOAD SWAP1 DUP2 MSTORE RETURN JUMPDEST DUP4 CALLVALUE PUSH3 0x14C JUMPI PUSH1 0x20 CALLDATASIZE PUSH1 0x3 NOT ADD SLT PUSH3 0x14C JUMPI CALLDATALOAD SWAP1 PUSH1 0x9 SLOAD DUP3 LT ISZERO PUSH3 0x14C JUMPI PUSH1 0x9 PUSH0 MSTORE PUSH32 0x6E1540171B6C0C960B71A7020D9F60077F6AF931A8BBF590DA0223DACF75C7AF SWAP1 SWAP2 ADD SLOAD PUSH1 0x1 PUSH1 0x1 PUSH1 0xA0 SHL SUB AND DUP2 MSTORE PUSH1 0x20 SWAP1 RETURN JUMPDEST DUP2 PUSH1 0x1F DUP3 ADD SLT ISZERO PUSH3 0x14C JUMPI DUP1 CALLDATALOAD SWAP1 PUSH8 0xFFFFFFFFFFFFFFFF SWAP3 DUP4 DUP4 GT PUSH3 0xAE8 JUMPI PUSH1 0x40 MLOAD SWAP4 PUSH1 0x1F DUP5 ADD PUSH1 0x1F NOT SWAP1 DUP2 AND PUSH1 0x3F ADD AND DUP6 ADD SWAP1 DUP2 GT DUP6 DUP3 LT OR PUSH3 0xAE8 JUMPI PUSH1 0x40 MSTORE DUP3 DUP5 MSTORE PUSH1 0x20 DUP4 DUP4 ADD ADD GT PUSH3 0x14C JUMPI DUP2 PUSH0 SWAP3 PUSH1 0x20 DUP1 SWAP4 ADD DUP4 DUP7 ADD CALLDATACOPY DUP4 ADD ADD MSTORE SWAP1 JUMP JUMPDEST PUSH4 0x4E487B71 PUSH1 0xE0 SHL PUSH0 MSTORE PUSH1 0x41 PUSH1 0x4 MSTORE PUSH1 0x24 PUSH0 REVERT JUMPDEST PUSH1 0x64 CALLDATALOAD SWAP1 PUSH1 0x1 PUSH1 0x1 PUSH1 0xA0 SHL SUB DUP3 AND DUP3 SUB PUSH3 0x14C JUMPI JUMP JUMPDEST PUSH1 0x4 CALLDATALOAD SWAP1 PUSH1 0x1 PUSH1 0x1 PUSH1 0xA0 SHL SUB DUP3 AND DUP3 SUB PUSH3 0x14C JUMPI JUMP JUMPDEST ISZERO PUSH3 0xB32 JUMPI JUMP JUMPDEST PUSH1 0x40 MLOAD PUSH3 0x461BCD PUSH1 0xE5 SHL DUP2 MSTORE PUSH1 0x20 PUSH1 0x4 DUP3 ADD MSTORE PUSH1 0xB PUSH1 0x24 DUP3 ADD MSTORE PUSH11 0x506F6F6C20657869737473 PUSH1 0xA8 SHL PUSH1 0x44 DUP3 ADD MSTORE PUSH1 0x64 SWAP1 REVERT JUMPDEST SWAP2 SWAP1 DUP3 MLOAD SWAP3 DUP4 DUP3 MSTORE PUSH0 JUMPDEST DUP5 DUP2 LT PUSH3 0xB90 JUMPI POP POP DUP3 PUSH0 PUSH1 0x20 DUP1 SWAP5 SWAP6 DUP5 ADD ADD MSTORE PUSH1 0x1F DUP1 NOT SWAP2 ADD AND ADD ADD SWAP1 JUMP JUMPDEST PUSH1 0x20 DUP2 DUP4 ADD DUP2 ADD MLOAD DUP5 DUP4 ADD DUP3 ADD MSTORE ADD PUSH3 0xB6F JUMP JUMPDEST SWAP10 SWAP5 DUP11 SWAP9 SWAP4 PUSH3 0xBDE PUSH2 0x140 SWAP12 SWAP7 SWAP15 SWAP14 SWAP10 SWAP5 PUSH3 0xBCF PUSH1 0x40 SWAP11 SWAP6 DUP14 PUSH2 0x160 SWAP1 DUP2 DUP2 MSTORE ADD SWAP1 PUSH3 0xB65 JUMP JUMPDEST DUP13 DUP2 SUB PUSH1 0x20 DUP15 ADD MSTORE SWAP1 PUSH3 0xB65 JUMP JUMPDEST SWAP14 PUSH1 0x1 DUP1 PUSH1 0xA0 SHL SUB SWAP11 DUP12 SWAP10 DUP11 DUP1 SWAP5 AND SWAP2 ADD MSTORE AND PUSH1 0x60 DUP13 ADD MSTORE PUSH1 0x80 DUP12 ADD MSTORE PUSH1 0xA0 DUP11 ADD MSTORE PUSH1 0xC0 DUP10 ADD MSTORE PUSH1 0xE0 DUP9 ADD MSTORE PUSH2 0x100 DUP8 ADD MSTORE AND PUSH2 0x120 DUP6 ADD MSTORE AND SWAP2 ADD MSTORE JUMP JUMPDEST PUSH1 0x9 SLOAD PUSH9 0x10000000000000000 DUP2 LT ISZERO PUSH3 0xAE8 JUMPI PUSH1 0x1 DUP2 ADD DUP1 PUSH1 0x9 SSTORE DUP2 LT ISZERO PUSH3 0xC87 JUMPI PUSH1 0x9 PUSH0 MSTORE PUSH32 0x6E1540171B6C0C960B71A7020D9F60077F6AF931A8BBF590DA0223DACF75C7AF ADD DUP1 SLOAD PUSH1 0x1 PUSH1 0x1 PUSH1 0xA0 SHL SUB NOT AND PUSH1 0x1 PUSH1 0x1 PUSH1 0xA0 SHL SUB SWAP1 SWAP3 AND SWAP2 SWAP1 SWAP2 OR SWAP1 SSTORE JUMP JUMPDEST PUSH4 0x4E487B71 PUSH1 0xE0 SHL PUSH0 MSTORE PUSH1 0x32 PUSH1 0x4 MSTORE PUSH1 0x24 PUSH0 REVERT JUMPDEST ISZERO PUSH3 0xCA3 JUMPI JUMP JUMPDEST PUSH1 0x40 MLOAD PUSH3 0x461BCD PUSH1 0xE5 SHL DUP2 MSTORE PUSH1 0x20 PUSH1 0x4 DUP3 ADD MSTORE PUSH1 0xE PUSH1 0x24 DUP3 ADD MSTORE PUSH14 0x496E76616C6964204C5020666565 PUSH1 0x90 SHL PUSH1 0x44 DUP3 ADD MSTORE PUSH1 0x64 SWAP1 REVERT JUMPDEST ISZERO PUSH3 0xCE1 JUMPI JUMP JUMPDEST PUSH1 0x40 MLOAD PUSH3 0x461BCD PUSH1 0xE5 SHL DUP2 MSTORE PUSH1 0x20 PUSH1 0x4 DUP3 ADD MSTORE PUSH1 0x14 PUSH1 0x24 DUP3 ADD MSTORE PUSH20 0x496E76616C69642070726F746F636F6C20666565 PUSH1 0x60 SHL PUSH1 0x44 DUP3 ADD MSTORE PUSH1 0x64 SWAP1 REVERT JUMPDEST PUSH0 SLOAD PUSH1 0x1 PUSH1 0x1 PUSH1 0xA0 SHL SUB AND CALLER SUB PUSH3 0xD31 JUMPI JUMP JUMPDEST PUSH1 0x40 MLOAD PUSH4 0x118CDAA7 PUSH1 0xE0 SHL DUP2 MSTORE CALLER PUSH1 0x4 DUP3 ADD MSTORE PUSH1 0x24 SWAP1 REVERT INVALID PUSH2 0x1A0 PUSH1 0x40 MSTORE CALLVALUE PUSH3 0x48A JUMPI PUSH3 0x220D DUP1 CODESIZE SUB DUP1 PUSH3 0x1E DUP2 PUSH3 0x48E JUMP JUMPDEST SWAP3 DUP4 CODECOPY DUP2 ADD PUSH2 0x160 DUP1 DUP4 DUP4 SUB SLT PUSH3 0x48A JUMPI DUP3 MLOAD PUSH1 0x1 PUSH1 0x1 PUSH1 0x40 SHL SUB SWAP2 SWAP1 DUP3 DUP2 GT PUSH3 0x48A JUMPI DUP4 PUSH3 0x52 SWAP2 DUP7 ADD PUSH3 0x4B4 JUMP JUMPDEST SWAP4 PUSH1 0x20 DUP1 DUP3 ADD MLOAD DUP5 DUP2 GT PUSH3 0x48A JUMPI PUSH3 0xBE SWAP6 PUSH3 0x73 SWAP2 DUP5 ADD PUSH3 0x4B4 JUMP JUMPDEST SWAP1 PUSH3 0x82 PUSH1 0x40 DUP5 ADD PUSH3 0x524 JUMP JUMPDEST PUSH3 0x90 PUSH1 0x60 DUP6 ADD PUSH3 0x524 JUMP JUMPDEST SWAP1 PUSH1 0x80 DUP6 ADD MLOAD PUSH1 0xA0 DUP7 ADD MLOAD SWAP1 PUSH1 0xC0 DUP8 ADD MLOAD SWAP3 PUSH1 0xE0 DUP9 ADD MLOAD SWAP5 PUSH2 0x100 SWAP13 DUP14 DUP11 ADD MLOAD SWAP8 PUSH2 0x120 SWAP14 DUP15 DUP13 ADD PUSH3 0x524 JUMP JUMPDEST SWAP13 PUSH3 0xCF PUSH2 0x140 DUP1 SWAP14 ADD PUSH3 0x524 JUMP JUMPDEST SWAP11 DUP4 MLOAD DUP3 DUP2 GT PUSH3 0x395 JUMPI PUSH1 0x3 SWAP2 DUP3 SLOAD SWAP2 PUSH1 0x1 SWAP7 DUP8 DUP5 DUP2 SHR SWAP5 AND DUP1 ISZERO PUSH3 0x47F JUMPI JUMPDEST DUP8 DUP6 LT EQ PUSH3 0x46B JUMPI DUP2 SWAP1 PUSH1 0x1F SWAP5 DUP6 DUP2 GT PUSH3 0x418 JUMPI JUMPDEST POP DUP8 SWAP1 DUP6 DUP4 GT PUSH1 0x1 EQ PUSH3 0x3B5 JUMPI PUSH0 SWAP3 PUSH3 0x3A9 JUMPI JUMPDEST POP POP PUSH0 NOT DUP3 DUP7 SHL SHR NOT AND SWAP1 DUP8 SHL OR DUP4 SSTORE JUMPDEST DUP1 MLOAD SWAP4 DUP5 GT PUSH3 0x395 JUMPI PUSH1 0x4 SWAP5 DUP6 SLOAD DUP8 DUP2 DUP2 SHR SWAP2 AND DUP1 ISZERO PUSH3 0x38A JUMPI JUMPDEST DUP3 DUP3 LT EQ PUSH3 0x377 JUMPI SWAP1 DUP2 DUP5 DUP8 SWAP7 SWAP6 SWAP5 SWAP4 GT PUSH3 0x31E JUMPI JUMPDEST POP DUP1 SWAP3 DUP6 GT PUSH1 0x1 EQ PUSH3 0x2B4 JUMPI POP PUSH0 SWAP4 PUSH3 0x2A8 JUMPI JUMPDEST POP POP DUP3 DUP6 SHL SWAP3 PUSH0 NOT SWAP2 SHL SHR NOT AND OR SWAP1 SSTORE JUMPDEST PUSH1 0x5 SSTORE PUSH1 0x1 PUSH1 0x1 PUSH1 0xA0 SHL SUB SWAP2 DUP3 AND PUSH1 0x80 MSTORE AND PUSH1 0xA0 MSTORE PUSH1 0xC0 MSTORE PUSH1 0xE0 MSTORE DUP9 MSTORE DUP4 MSTORE DUP4 MSTORE PUSH2 0x180 SWAP4 DUP5 MSTORE DUP5 MSTORE PUSH1 0x40 MLOAD PUSH2 0x1CD3 SWAP6 SWAP1 SWAP5 SWAP1 DUP7 PUSH3 0x53A DUP8 CODECOPY PUSH1 0x80 MLOAD DUP7 PUSH2 0x43F ADD MSTORE PUSH1 0xA0 MLOAD DUP7 DUP2 DUP2 PUSH2 0x2C9 ADD MSTORE DUP2 DUP2 PUSH2 0x4E3 ADD MSTORE DUP2 DUP2 PUSH2 0x86B ADD MSTORE DUP2 DUP2 PUSH2 0xD44 ADD MSTORE DUP2 DUP2 PUSH2 0x12A8 ADD MSTORE PUSH2 0x1507 ADD MSTORE PUSH1 0xC0 MLOAD DUP7 PUSH2 0xF5B ADD MSTORE PUSH1 0xE0 MLOAD DUP7 DUP2 DUP2 PUSH2 0x2A6 ADD MSTORE DUP2 DUP2 PUSH2 0x529 ADD MSTORE DUP2 DUP2 PUSH2 0x8B2 ADD MSTORE DUP2 DUP2 PUSH2 0xF96 ADD MSTORE DUP2 DUP2 PUSH2 0x134B ADD MSTORE PUSH2 0x14E6 ADD MSTORE MLOAD DUP6 DUP2 DUP2 PUSH2 0x360 ADD MSTORE DUP2 DUP2 PUSH2 0x582 ADD MSTORE DUP2 DUP2 PUSH2 0x90E ADD MSTORE DUP2 DUP2 PUSH2 0xD0C ADD MSTORE DUP2 DUP2 PUSH2 0x1287 ADD MSTORE PUSH2 0x15A7 ADD MSTORE MLOAD DUP5 DUP2 DUP2 PUSH2 0xC2B ADD MSTORE PUSH2 0xDC7 ADD MSTORE MLOAD DUP4 DUP2 DUP2 PUSH2 0x182 ADD MSTORE DUP2 DUP2 PUSH2 0xBB7 ADD MSTORE PUSH2 0x11F3 ADD MSTORE MLOAD DUP3 DUP2 DUP2 PUSH2 0xB96 ADD MSTORE DUP2 DUP2 PUSH2 0xD8B ADD MSTORE PUSH2 0x1222 ADD MSTORE MLOAD DUP2 DUP2 DUP2 PUSH2 0xCC5 ADD MSTORE DUP2 DUP2 PUSH2 0x13FF ADD MSTORE PUSH2 0x1614 ADD MSTORE RETURN JUMPDEST ADD MLOAD SWAP2 POP PUSH0 DUP1 PUSH3 0x17A JUMP JUMPDEST SWAP3 SWAP2 SWAP1 DUP8 SWAP6 POP PUSH1 0x1F NOT DUP6 AND DUP8 PUSH0 MSTORE DUP5 PUSH0 KECCAK256 SWAP5 PUSH0 SWAP1 JUMPDEST DUP3 DUP3 LT PUSH3 0x304 JUMPI POP POP DUP6 GT PUSH3 0x2EA JUMPI JUMPDEST POP POP POP POP DUP2 SHL ADD SWAP1 SSTORE PUSH3 0x18B JUMP JUMPDEST ADD MLOAD SWAP1 PUSH1 0xF8 DUP5 PUSH0 NOT SWAP3 SHL AND SHR NOT AND SWAP1 SSTORE PUSH0 DUP1 DUP1 DUP1 PUSH3 0x2DB JUMP JUMPDEST DUP5 DUP5 ADD MLOAD DUP8 SSTORE DUP11 SWAP9 SWAP1 SWAP7 ADD SWAP6 SWAP4 DUP5 ADD SWAP4 SWAP1 DUP2 ADD SWAP1 PUSH3 0x2C9 JUMP JUMPDEST SWAP1 SWAP2 SWAP3 SWAP4 SWAP5 POP DUP7 PUSH0 MSTORE DUP2 PUSH0 KECCAK256 DUP5 DUP1 DUP9 ADD PUSH1 0x5 SHR DUP3 ADD SWAP3 DUP5 DUP10 LT PUSH3 0x36D JUMPI JUMPDEST SWAP2 DUP11 SWAP2 DUP10 SWAP9 SWAP8 SWAP7 SWAP6 SWAP5 SWAP4 ADD PUSH1 0x5 SHR ADD SWAP2 JUMPDEST DUP3 DUP2 LT PUSH3 0x35E JUMPI POP POP PUSH3 0x164 JUMP JUMPDEST PUSH0 DUP2 SSTORE DUP9 SWAP8 POP DUP11 SWAP2 ADD PUSH3 0x34E JUMP JUMPDEST SWAP3 POP DUP2 SWAP3 PUSH3 0x33D JUMP JUMPDEST PUSH1 0x22 DUP8 PUSH4 0x4E487B71 PUSH1 0xE0 SHL PUSH0 MSTORE MSTORE PUSH1 0x24 PUSH0 REVERT JUMPDEST SWAP1 PUSH1 0x7F AND SWAP1 PUSH3 0x14C JUMP JUMPDEST PUSH4 0x4E487B71 PUSH1 0xE0 SHL PUSH0 MSTORE PUSH1 0x41 PUSH1 0x4 MSTORE PUSH1 0x24 PUSH0 REVERT JUMPDEST ADD MLOAD SWAP1 POP PUSH0 DUP1 PUSH3 0x11E JUMP JUMPDEST SWAP1 DUP10 SWAP4 POP PUSH1 0x1F NOT DUP4 AND SWAP2 DUP8 PUSH0 MSTORE DUP10 PUSH0 KECCAK256 SWAP3 PUSH0 JUMPDEST DUP12 DUP3 DUP3 LT PUSH3 0x401 JUMPI POP POP DUP5 GT PUSH3 0x3E9 JUMPI JUMPDEST POP POP POP DUP2 SHL ADD DUP4 SSTORE PUSH3 0x12F JUMP JUMPDEST ADD MLOAD PUSH0 NOT DUP4 DUP9 SHL PUSH1 0xF8 AND SHR NOT AND SWAP1 SSTORE PUSH0 DUP1 DUP1 PUSH3 0x3DB JUMP JUMPDEST DUP4 DUP6 ADD MLOAD DUP7 SSTORE DUP14 SWAP8 SWAP1 SWAP6 ADD SWAP5 SWAP4 DUP5 ADD SWAP4 ADD PUSH3 0x3C8 JUMP JUMPDEST SWAP1 SWAP2 POP DUP6 PUSH0 MSTORE DUP8 PUSH0 KECCAK256 DUP6 DUP1 DUP6 ADD PUSH1 0x5 SHR DUP3 ADD SWAP3 DUP11 DUP7 LT PUSH3 0x461 JUMPI JUMPDEST SWAP2 DUP12 SWAP2 DUP7 SWAP6 SWAP5 SWAP4 ADD PUSH1 0x5 SHR ADD SWAP2 JUMPDEST DUP3 DUP2 LT PUSH3 0x452 JUMPI POP POP PUSH3 0x108 JUMP JUMPDEST PUSH0 DUP2 SSTORE DUP6 SWAP5 POP DUP12 SWAP2 ADD PUSH3 0x442 JUMP JUMPDEST SWAP3 POP DUP2 SWAP3 PUSH3 0x434 JUMP JUMPDEST PUSH4 0x4E487B71 PUSH1 0xE0 SHL PUSH0 MSTORE PUSH1 0x22 PUSH1 0x4 MSTORE PUSH1 0x24 PUSH0 REVERT JUMPDEST SWAP4 PUSH1 0x7F AND SWAP4 PUSH3 0xF1 JUMP JUMPDEST PUSH0 DUP1 REVERT JUMPDEST PUSH1 0x40 MLOAD SWAP2 SWAP1 PUSH1 0x1F ADD PUSH1 0x1F NOT AND DUP3 ADD PUSH1 0x1 PUSH1 0x1 PUSH1 0x40 SHL SUB DUP2 GT DUP4 DUP3 LT OR PUSH3 0x395 JUMPI PUSH1 0x40 MSTORE JUMP JUMPDEST SWAP2 SWAP1 DUP1 PUSH1 0x1F DUP5 ADD SLT ISZERO PUSH3 0x48A JUMPI DUP3 MLOAD PUSH1 0x1 PUSH1 0x1 PUSH1 0x40 SHL SUB DUP2 GT PUSH3 0x395 JUMPI PUSH1 0x20 SWAP1 PUSH3 0x4EA PUSH1 0x1F DUP3 ADD PUSH1 0x1F NOT AND DUP4 ADD PUSH3 0x48E JUMP JUMPDEST SWAP3 DUP2 DUP5 MSTORE DUP3 DUP3 DUP8 ADD ADD GT PUSH3 0x48A JUMPI PUSH0 JUMPDEST DUP2 DUP2 LT PUSH3 0x510 JUMPI POP DUP3 PUSH0 SWAP4 SWAP5 SWAP6 POP ADD ADD MSTORE SWAP1 JUMP JUMPDEST DUP6 DUP2 ADD DUP4 ADD MLOAD DUP5 DUP3 ADD DUP5 ADD MSTORE DUP3 ADD PUSH3 0x4FB JUMP JUMPDEST MLOAD SWAP1 PUSH1 0x1 PUSH1 0x1 PUSH1 0xA0 SHL SUB DUP3 AND DUP3 SUB PUSH3 0x48A JUMPI JUMP INVALID PUSH1 0x80 PUSH1 0x40 DUP2 DUP2 MSTORE PUSH1 0x4 SWAP2 DUP3 CALLDATASIZE LT ISZERO PUSH2 0x15 JUMPI PUSH0 DUP1 REVERT JUMPDEST PUSH0 SWAP3 PUSH0 CALLDATALOAD PUSH1 0xE0 SHR SWAP2 DUP3 PUSH4 0x6FDDE03 EQ PUSH2 0x1722 JUMPI POP DUP2 PUSH4 0x8C84C21 EQ PUSH2 0x119A JUMPI DUP2 PUSH4 0x902F1AC EQ PUSH2 0x1175 JUMPI DUP2 PUSH4 0x95EA7B3 EQ PUSH2 0x10CB JUMPI DUP2 PUSH4 0x18160DDD EQ PUSH2 0x10AC JUMPI DUP2 PUSH4 0x23B872DD EQ PUSH2 0xFB9 JUMPI DUP2 PUSH4 0x2474B6BC EQ PUSH2 0xF7E JUMPI DUP2 PUSH4 0x2DDC7DE7 EQ PUSH2 0xF43 JUMPI DUP2 PUSH4 0x313CE567 EQ PUSH2 0xF27 JUMPI DUP2 PUSH4 0x3F6FA655 EQ PUSH2 0xF03 JUMPI DUP2 PUSH4 0x4F896D4F EQ PUSH2 0xDAE JUMPI DUP2 PUSH4 0x58F85880 EQ PUSH2 0xD73 JUMPI DUP2 PUSH4 0x5BD9E299 EQ PUSH2 0xD2F JUMPI DUP2 PUSH4 0x60E30D9E EQ PUSH2 0xCF4 JUMPI DUP2 PUSH4 0x61D027B3 EQ PUSH2 0xCB0 JUMPI DUP2 PUSH4 0x70A08231 EQ PUSH2 0xC79 JUMPI DUP2 PUSH4 0x72A9FA6E EQ PUSH2 0xC5A JUMPI DUP2 PUSH4 0x7DC0D1D0 EQ PUSH2 0xC16 JUMPI DUP2 PUSH4 0x827B6508 EQ PUSH2 0xB6A JUMPI DUP2 PUSH4 0x8779086F EQ PUSH2 0xB46 JUMPI DUP2 PUSH4 0x95D89B41 EQ PUSH2 0xA41 JUMPI DUP2 PUSH4 0x9B34AE03 EQ PUSH2 0xA22 JUMPI DUP2 PUSH4 0x9C8F9F23 EQ PUSH2 0x7C4 JUMPI DUP2 PUSH4 0x9CD441DA EQ PUSH2 0x49F JUMPI DUP2 PUSH4 0xA9059CBB EQ PUSH2 0x46E JUMPI DUP2 PUSH4 0xB2016BD4 EQ PUSH2 0x42A JUMPI DUP2 PUSH4 0xB2670D74 EQ PUSH2 0x40B JUMPI DUP2 PUSH4 0xBDEDA833 EQ PUSH2 0x1F5 JUMPI POP DUP1 PUSH4 0xDD62ED3E EQ PUSH2 0x1A9 JUMPI PUSH4 0xF5B9848D EQ PUSH2 0x16C JUMPI PUSH0 DUP1 REVERT JUMPDEST CALLVALUE PUSH2 0x1A5 JUMPI DUP2 PUSH1 0x3 NOT CALLDATASIZE ADD SLT PUSH2 0x1A5 JUMPI PUSH1 0x20 SWAP1 MLOAD PUSH32 0x0 DUP2 MSTORE RETURN JUMPDEST POP DUP1 REVERT JUMPDEST POP CALLVALUE PUSH2 0x1A5 JUMPI DUP1 PUSH1 0x3 NOT CALLDATASIZE ADD SLT PUSH2 0x1A5 JUMPI PUSH1 0x20 SWAP2 PUSH2 0x1C5 PUSH2 0x1869 JUMP JUMPDEST DUP3 PUSH2 0x1CE PUSH2 0x187F JUMP JUMPDEST PUSH1 0x1 PUSH1 0x1 PUSH1 0xA0 SHL SUB SWAP3 DUP4 AND DUP5 MSTORE PUSH1 0x1 DUP7 MSTORE SWAP3 KECCAK256 SWAP2 AND PUSH0 SWAP1 DUP2 MSTORE SWAP1 DUP4 MSTORE DUP2 SWAP1 KECCAK256 SLOAD SWAP1 MLOAD SWAP1 DUP2 MSTORE RETURN JUMPDEST SWAP2 SWAP1 POP CALLVALUE PUSH2 0x34F JUMPI PUSH1 0x20 CALLDATASIZE PUSH1 0x3 NOT ADD SLT PUSH2 0x34F JUMPI DUP2 CALLDATALOAD SWAP2 PUSH2 0x214 PUSH2 0x1B07 JUMP JUMPDEST PUSH1 0xFF PUSH1 0x8 SLOAD AND ISZERO PUSH2 0x3D3 JUMPI PUSH2 0x22A DUP4 ISZERO ISZERO PUSH2 0x18DF JUMP JUMPDEST CALLER DUP5 MSTORE DUP4 PUSH1 0x20 MSTORE PUSH2 0x240 DUP4 DUP4 DUP7 KECCAK256 SLOAD LT ISZERO PUSH2 0x1AC2 JUMP JUMPDEST PUSH1 0x2 SLOAD SWAP3 PUSH2 0x24F DUP5 ISZERO ISZERO PUSH2 0x1969 JUMP JUMPDEST PUSH2 0x272 PUSH1 0x1 PUSH1 0x9 SLOAD EQ SWAP5 DUP6 PUSH0 EQ PUSH2 0x3C8 JUMPI PUSH2 0x26D PUSH1 0x6 SLOAD JUMPDEST DUP5 PUSH2 0x19C5 JUMP JUMPDEST PUSH2 0x19D8 JUMP JUMPDEST SWAP4 DUP5 ISZERO PUSH2 0x399 JUMPI PUSH2 0x299 SWAP2 SWAP1 ISZERO PUSH2 0x385 JUMPI PUSH2 0x28F DUP6 PUSH1 0x6 SLOAD PUSH2 0x19F6 JUMP JUMPDEST PUSH1 0x6 SSTORE JUMPDEST CALLER PUSH2 0x1BF1 JUMP JUMPDEST PUSH1 0x9 SLOAD PUSH1 0x1 SUB PUSH2 0x35D JUMPI DUP4 PUSH32 0x0 SWAP2 JUMPDEST PUSH32 0x0 PUSH1 0x1 PUSH1 0x1 PUSH1 0xA0 SHL SUB AND DUP1 EXTCODESIZE ISZERO PUSH2 0x34F JUMPI PUSH2 0x31D SWAP4 DUP4 DUP8 SWAP4 DUP8 MLOAD SWAP7 DUP8 SWAP6 DUP7 SWAP5 DUP6 SWAP4 PUSH4 0x79212195 PUSH1 0xE1 SHL DUP6 MSTORE CALLER SWAP1 ADDRESS SWAP1 DUP7 ADD PUSH2 0x1A03 JUMP JUMPDEST SUB SWAP3 GAS CALL DUP1 ISZERO PUSH2 0x353 JUMPI PUSH2 0x33B JUMPI JUMPDEST PUSH1 0x20 DUP4 DUP4 PUSH1 0x1 PUSH1 0x5 SSTORE MLOAD SWAP1 DUP2 MSTORE RETURN JUMPDEST PUSH2 0x345 DUP5 SWAP2 PUSH2 0x1895 JUMP JUMPDEST PUSH2 0x34F JUMPI DUP3 PUSH2 0x32C JUMP JUMPDEST DUP3 DUP1 REVERT JUMPDEST DUP3 MLOAD RETURNDATASIZE DUP7 DUP3 RETURNDATACOPY RETURNDATASIZE SWAP1 REVERT JUMPDEST DUP4 PUSH32 0x0 SWAP2 PUSH2 0x2C7 JUMP JUMPDEST PUSH2 0x391 DUP6 PUSH1 0x7 SLOAD PUSH2 0x19F6 JUMP JUMPDEST PUSH1 0x7 SSTORE PUSH2 0x293 JUMP JUMPDEST DUP4 MLOAD PUSH3 0x461BCD PUSH1 0xE5 SHL DUP2 MSTORE PUSH1 0x20 DUP2 DUP6 ADD MSTORE PUSH1 0x9 PUSH1 0x24 DUP3 ADD MSTORE PUSH9 0x139BC81C185E5BDD5D PUSH1 0xBA SHL PUSH1 0x44 DUP3 ADD MSTORE PUSH1 0x64 SWAP1 REVERT JUMPDEST PUSH2 0x26D PUSH1 0x7 SLOAD PUSH2 0x267 JUMP JUMPDEST PUSH1 0x20 PUSH1 0x64 SWAP3 MLOAD SWAP2 PUSH3 0x461BCD PUSH1 0xE5 SHL DUP4 MSTORE DUP3 ADD MSTORE PUSH1 0x13 PUSH1 0x24 DUP3 ADD MSTORE PUSH19 0x13585C9AD95D081B9BDD081C995CDBDB1D9959 PUSH1 0x6A SHL PUSH1 0x44 DUP3 ADD MSTORE REVERT JUMPDEST POP POP CALLVALUE PUSH2 0x1A5 JUMPI DUP2 PUSH1 0x3 NOT CALLDATASIZE ADD SLT PUSH2 0x1A5 JUMPI PUSH1 0x20 SWAP1 PUSH1 0x6 SLOAD SWAP1 MLOAD SWAP1 DUP2 MSTORE RETURN JUMPDEST POP POP CALLVALUE PUSH2 0x1A5 JUMPI DUP2 PUSH1 0x3 NOT CALLDATASIZE ADD SLT PUSH2 0x1A5 JUMPI MLOAD PUSH32 0x0 PUSH1 0x1 PUSH1 0x1 PUSH1 0xA0 SHL SUB AND DUP2 MSTORE PUSH1 0x20 SWAP1 RETURN JUMPDEST POP POP CALLVALUE PUSH2 0x1A5 JUMPI DUP1 PUSH1 0x3 NOT CALLDATASIZE ADD SLT PUSH2 0x1A5 JUMPI PUSH1 0x20 SWAP1 PUSH2 0x498 PUSH2 0x48E PUSH2 0x1869 JUMP JUMPDEST PUSH1 0x24 CALLDATALOAD SWAP1 CALLER PUSH2 0x1B2A JUMP JUMPDEST MLOAD PUSH1 0x1 DUP2 MSTORE RETURN JUMPDEST SWAP2 SWAP1 POP CALLVALUE PUSH2 0x34F JUMPI DUP1 PUSH1 0x3 NOT CALLDATASIZE ADD SLT PUSH2 0x34F JUMPI DUP2 CALLDATALOAD PUSH1 0x24 CALLDATALOAD SWAP4 PUSH2 0x4C0 PUSH2 0x1B07 JUMP JUMPDEST DUP2 ISZERO ISZERO DUP1 PUSH2 0x7BB JUMPI JUMPDEST PUSH2 0x4D2 SWAP1 PUSH2 0x18DF JUMP JUMPDEST PUSH2 0x4E1 PUSH1 0xFF PUSH1 0x8 SLOAD AND ISZERO PUSH2 0x192B JUMP JUMPDEST PUSH32 0x0 PUSH1 0x1 PUSH1 0x1 PUSH1 0xA0 SHL SUB AND DUP1 EXTCODESIZE ISZERO PUSH2 0x1A5 JUMPI DUP4 MLOAD PUSH4 0x79212195 PUSH1 0xE1 SHL DUP1 DUP3 MSTORE SWAP1 DUP4 DUP2 DUP1 PUSH2 0x552 DUP9 PUSH32 0x0 ADDRESS CALLER DUP15 DUP7 ADD PUSH2 0x1A03 JUMP JUMPDEST SUB DUP2 DUP4 DUP8 GAS CALL DUP1 ISZERO PUSH2 0x7B1 JUMPI SWAP1 DUP5 SWAP2 PUSH2 0x79D JUMPI JUMPDEST POP POP DUP2 EXTCODESIZE ISZERO PUSH2 0x34F JUMPI DUP5 MLOAD SWAP1 DUP2 MSTORE SWAP1 DUP3 SWAP1 DUP3 SWAP1 DUP2 DUP4 DUP2 PUSH2 0x5AB DUP13 PUSH32 0x0 ADDRESS CALLER DUP16 DUP7 ADD PUSH2 0x1A03 JUMP JUMPDEST SUB SWAP3 GAS CALL DUP1 ISZERO PUSH2 0x793 JUMPI SWAP1 DUP3 SWAP2 PUSH2 0x77C JUMPI JUMPDEST POP POP PUSH1 0x2 SLOAD SWAP1 DUP2 PUSH2 0x74F JUMPI PUSH2 0x5D2 DUP7 DUP5 PUSH2 0x19A4 JUMP JUMPDEST SWAP2 PUSH2 0x3E8 SWAP1 DUP2 DUP5 LT PUSH2 0x70C JUMPI DUP2 DUP2 ADD DUP1 SWAP2 GT PUSH2 0x6F9 JUMPI PUSH0 DUP1 MLOAD PUSH1 0x20 PUSH2 0x1C7E DUP4 CODECOPY DUP2 MLOAD SWAP2 MSTORE PUSH1 0x20 PUSH1 0x1 SWAP4 PUSH0 SWAP4 PUSH1 0x2 SSTORE DUP5 DUP5 MSTORE DUP4 DUP3 MSTORE DUP9 DUP5 KECCAK256 DUP2 DUP2 SLOAD ADD SWAP1 SSTORE DUP9 MLOAD SWAP1 DUP2 MSTORE LOG3 PUSH2 0x3E7 NOT DUP3 ADD SWAP2 DUP3 GT PUSH2 0x6E6 JUMPI POP SWAP3 JUMPDEST PUSH2 0x630 DUP5 ISZERO ISZERO PUSH2 0x1AC2 JUMP JUMPDEST PUSH2 0x63C DUP3 PUSH1 0x6 SLOAD PUSH2 0x19A4 JUMP JUMPDEST PUSH1 0x6 SSTORE PUSH2 0x64B DUP6 PUSH1 0x7 SLOAD PUSH2 0x19A4 JUMP JUMPDEST PUSH1 0x7 SSTORE CALLER ISZERO PUSH2 0x6D0 JUMPI POP PUSH32 0x64B83944E79C3CE8D4C297411DE637C3E102D064677AAC0C163976EBDCD6F50E DUP4 PUSH1 0x20 SWAP6 PUSH2 0x686 DUP3 PUSH1 0x2 SLOAD PUSH2 0x19A4 JUMP JUMPDEST PUSH1 0x2 SSTORE CALLER PUSH0 MSTORE PUSH0 DUP8 MSTORE DUP5 PUSH0 KECCAK256 DUP3 DUP2 SLOAD ADD SWAP1 SSTORE DUP5 MLOAD DUP3 DUP2 MSTORE PUSH0 PUSH0 DUP1 MLOAD PUSH1 0x20 PUSH2 0x1C7E DUP4 CODECOPY DUP2 MLOAD SWAP2 MSTORE DUP10 CALLER SWAP4 LOG3 DUP5 MLOAD SWAP4 DUP5 MSTORE PUSH1 0x20 DUP5 ADD MSTORE PUSH1 0x40 DUP4 ADD MSTORE CALLER SWAP2 PUSH1 0x60 SWAP1 LOG2 PUSH1 0x1 PUSH1 0x5 SSTORE MLOAD SWAP1 DUP2 MSTORE RETURN JUMPDEST PUSH1 0x24 SWAP1 PUSH0 DUP5 MLOAD SWAP2 PUSH4 0xEC442F05 PUSH1 0xE0 SHL DUP4 MSTORE DUP3 ADD MSTORE REVERT JUMPDEST PUSH4 0x4E487B71 PUSH1 0xE0 SHL DUP2 MSTORE PUSH1 0x11 DUP6 MSTORE PUSH1 0x24 SWAP1 REVERT JUMPDEST PUSH1 0x11 DUP8 PUSH4 0x4E487B71 PUSH1 0xE0 SHL PUSH0 MSTORE MSTORE PUSH1 0x24 PUSH0 REVERT JUMPDEST DUP6 MLOAD PUSH3 0x461BCD PUSH1 0xE5 SHL DUP2 MSTORE PUSH1 0x20 DUP2 DUP10 ADD MSTORE PUSH1 0x1E PUSH1 0x24 DUP3 ADD MSTORE PUSH32 0x496E73756666696369656E7420696E697469616C206C69717569646974790000 PUSH1 0x44 DUP3 ADD MSTORE PUSH1 0x64 SWAP1 REVERT JUMPDEST POP PUSH2 0x776 SWAP1 PUSH2 0x26D PUSH2 0x766 PUSH1 0x6 SLOAD PUSH1 0x7 SLOAD SWAP1 PUSH2 0x19A4 JUMP JUMPDEST SWAP2 PUSH2 0x771 DUP9 DUP7 PUSH2 0x19A4 JUMP JUMPDEST PUSH2 0x19C5 JUMP JUMPDEST SWAP3 PUSH2 0x625 JUMP JUMPDEST PUSH2 0x785 SWAP1 PUSH2 0x1895 JUMP JUMPDEST PUSH2 0x790 JUMPI DUP1 PUSH0 PUSH2 0x5BD JUMP JUMPDEST DUP1 REVERT JUMPDEST DUP5 MLOAD RETURNDATASIZE DUP5 DUP3 RETURNDATACOPY RETURNDATASIZE SWAP1 REVERT JUMPDEST PUSH2 0x7A6 SWAP1 PUSH2 0x1895 JUMP JUMPDEST PUSH2 0x34F JUMPI DUP3 PUSH0 PUSH2 0x566 JUMP JUMPDEST DUP7 MLOAD RETURNDATASIZE DUP7 DUP3 RETURNDATACOPY RETURNDATASIZE SWAP1 REVERT JUMPDEST POP DUP5 ISZERO ISZERO PUSH2 0x4C9 JUMP JUMPDEST DUP4 SWAP2 POP CALLVALUE PUSH2 0x1A5 JUMPI PUSH1 0x20 CALLDATASIZE PUSH1 0x3 NOT ADD SLT PUSH2 0x1A5 JUMPI DUP1 CALLDATALOAD PUSH2 0x7E2 PUSH2 0x1B07 JUMP JUMPDEST PUSH2 0x7ED DUP2 ISZERO ISZERO PUSH2 0x18DF JUMP JUMPDEST CALLER DUP4 MSTORE DUP3 PUSH1 0x20 MSTORE PUSH2 0x803 DUP2 DUP6 DUP6 KECCAK256 SLOAD LT ISZERO PUSH2 0x1AC2 JUMP JUMPDEST PUSH1 0x2 SLOAD SWAP3 PUSH2 0x812 DUP5 ISZERO ISZERO PUSH2 0x1969 JUMP JUMPDEST PUSH1 0x6 SLOAD SWAP3 PUSH2 0x824 DUP6 PUSH2 0x26D DUP7 DUP7 PUSH2 0x19C5 JUMP JUMPDEST SWAP5 PUSH2 0x836 PUSH1 0x7 SLOAD SWAP2 PUSH2 0x26D DUP4 DUP8 PUSH2 0x19C5 JUMP JUMPDEST SWAP5 DUP7 ISZERO ISZERO DUP1 PUSH2 0xA19 JUMPI JUMPDEST ISZERO PUSH2 0x9E0 JUMPI PUSH2 0x85C SWAP2 PUSH2 0x854 DUP9 DUP9 SWAP4 PUSH2 0x19F6 JUMP JUMPDEST PUSH1 0x6 SSTORE PUSH2 0x19F6 JUMP JUMPDEST PUSH1 0x7 SSTORE PUSH2 0x869 DUP4 CALLER PUSH2 0x1BF1 JUMP JUMPDEST PUSH32 0x0 PUSH1 0x1 PUSH1 0x1 PUSH1 0xA0 SHL SUB AND SWAP1 DUP2 EXTCODESIZE ISZERO PUSH2 0x34F JUMPI DUP7 MLOAD PUSH4 0x79212195 PUSH1 0xE1 SHL DUP1 DUP3 MSTORE SWAP1 DUP5 DUP2 DUP1 PUSH2 0x8DB DUP12 PUSH32 0x0 CALLER ADDRESS DUP11 DUP7 ADD PUSH2 0x1A03 JUMP JUMPDEST SUB DUP2 DUP4 DUP9 GAS CALL DUP1 ISZERO PUSH2 0x9D6 JUMPI SWAP1 DUP6 SWAP2 PUSH2 0x9C2 JUMPI JUMPDEST POP POP DUP3 EXTCODESIZE ISZERO PUSH2 0x9BE JUMPI PUSH2 0x939 SWAP3 DUP5 SWAP3 DUP4 DUP9 SWAP4 DUP12 MLOAD SWAP7 DUP8 SWAP6 DUP7 SWAP5 DUP6 SWAP4 DUP5 MSTORE PUSH32 0x0 SWAP1 CALLER SWAP1 ADDRESS SWAP1 DUP7 ADD PUSH2 0x1A03 JUMP JUMPDEST SUB SWAP3 GAS CALL DUP1 ISZERO PUSH2 0x9B4 JUMPI PUSH2 0x9A0 JUMPI JUMPDEST POP POP PUSH32 0x1DC8BB69DF2B8E91FBDCBFCF93D951B3F0000F085A95FE3F7946D6161439245D DUP5 MLOAD DUP1 PUSH2 0x98C CALLER SWAP5 DUP7 DUP9 DUP5 PUSH1 0x40 SWAP2 SWAP5 SWAP4 SWAP3 PUSH1 0x60 DUP3 ADD SWAP6 DUP3 MSTORE PUSH1 0x20 DUP3 ADD MSTORE ADD MSTORE JUMP JUMPDEST SUB SWAP1 LOG2 PUSH1 0x1 PUSH1 0x5 SSTORE DUP3 MLOAD SWAP2 DUP3 MSTORE PUSH1 0x20 DUP3 ADD MSTORE RETURN JUMPDEST PUSH2 0x9AA DUP3 SWAP2 PUSH2 0x1895 JUMP JUMPDEST PUSH2 0x790 JUMPI DUP1 PUSH2 0x948 JUMP JUMPDEST DUP7 MLOAD RETURNDATASIZE DUP5 DUP3 RETURNDATACOPY RETURNDATASIZE SWAP1 REVERT JUMPDEST DUP4 DUP1 REVERT JUMPDEST PUSH2 0x9CB SWAP1 PUSH2 0x1895 JUMP JUMPDEST PUSH2 0x9BE JUMPI DUP4 DUP10 PUSH2 0x8EF JUMP JUMPDEST DUP10 MLOAD RETURNDATASIZE DUP8 DUP3 RETURNDATACOPY RETURNDATASIZE SWAP1 REVERT JUMPDEST DUP8 MLOAD PUSH3 0x461BCD PUSH1 0xE5 SHL DUP2 MSTORE PUSH1 0x20 DUP2 DUP6 ADD MSTORE PUSH1 0x13 PUSH1 0x24 DUP3 ADD MSTORE PUSH19 0x125B9CDD59999A58DA595B9D081BDD5D1C1D5D PUSH1 0x6A SHL PUSH1 0x44 DUP3 ADD MSTORE PUSH1 0x64 SWAP1 REVERT JUMPDEST POP DUP6 ISZERO ISZERO PUSH2 0x840 JUMP JUMPDEST POP POP CALLVALUE PUSH2 0x1A5 JUMPI DUP2 PUSH1 0x3 NOT CALLDATASIZE ADD SLT PUSH2 0x1A5 JUMPI PUSH1 0x20 SWAP1 PUSH1 0x9 SLOAD SWAP1 MLOAD SWAP1 DUP2 MSTORE RETURN JUMPDEST DUP4 DUP4 CALLVALUE PUSH2 0x1A5 JUMPI DUP2 PUSH1 0x3 NOT CALLDATASIZE ADD SLT PUSH2 0x1A5 JUMPI DUP1 MLOAD SWAP2 DUP1 SWAP4 DUP1 SLOAD SWAP2 PUSH1 0x1 SWAP1 DUP4 PUSH1 0x1 SHR SWAP3 PUSH1 0x1 DUP6 AND SWAP5 DUP6 ISZERO PUSH2 0xB3C JUMPI JUMPDEST PUSH1 0x20 SWAP6 DUP7 DUP7 LT DUP2 EQ PUSH2 0xB29 JUMPI DUP6 DUP10 MSTORE SWAP1 DUP2 ISZERO PUSH2 0xB05 JUMPI POP PUSH1 0x1 EQ PUSH2 0xAAD JUMPI JUMPDEST PUSH2 0xAA9 DUP8 DUP8 PUSH2 0xA9F DUP3 DUP13 SUB DUP4 PUSH2 0x18BD JUMP JUMPDEST MLOAD SWAP2 DUP3 SWAP2 DUP3 PUSH2 0x1813 JUMP JUMPDEST SUB SWAP1 RETURN JUMPDEST DUP2 MSTORE SWAP3 SWAP6 POP PUSH32 0x8A35ACFBC15FF81A39AE7D344FD709F28E8600B4AA8C65C6B64BFE7FE36BD19B JUMPDEST DUP3 DUP5 LT PUSH2 0xAF2 JUMPI POP POP POP DUP3 PUSH2 0xAA9 SWAP5 PUSH2 0xA9F SWAP3 DUP3 ADD ADD SWAP5 DUP7 DUP1 PUSH2 0xA8E JUMP JUMPDEST DUP1 SLOAD DUP7 DUP6 ADD DUP9 ADD MSTORE SWAP3 DUP7 ADD SWAP3 DUP2 ADD PUSH2 0xAD4 JUMP JUMPDEST PUSH1 0xFF NOT AND DUP9 DUP8 ADD MSTORE POP POP POP POP ISZERO ISZERO PUSH1 0x5 SHL DUP4 ADD ADD SWAP3 POP PUSH2 0xA9F DUP3 PUSH2 0xAA9 DUP7 DUP1 PUSH2 0xA8E JUMP JUMPDEST PUSH4 0x4E487B71 PUSH1 0xE0 SHL DUP5 MSTORE PUSH1 0x22 DUP4 MSTORE PUSH1 0x24 DUP5 REVERT JUMPDEST SWAP4 PUSH1 0x7F AND SWAP4 PUSH2 0xA6F JUMP JUMPDEST POP POP CALLVALUE PUSH2 0x1A5 JUMPI DUP2 PUSH1 0x3 NOT CALLDATASIZE ADD SLT PUSH2 0x1A5 JUMPI PUSH1 0x20 SWAP1 PUSH2 0xB63 PUSH2 0x1A7A JUMP JUMPDEST SWAP1 MLOAD SWAP1 DUP2 MSTORE RETURN JUMPDEST DUP3 DUP5 CALLVALUE PUSH2 0x790 JUMPI DUP2 PUSH1 0x3 NOT CALLDATASIZE ADD SLT PUSH2 0x790 JUMPI POP PUSH2 0xB85 PUSH2 0x185A JUMP JUMPDEST PUSH1 0x24 CALLDATALOAD PUSH2 0xBE3 PUSH2 0x2710 PUSH2 0xBDB PUSH2 0x267 PUSH32 0x0 PUSH32 0x0 PUSH2 0x19A4 JUMP JUMPDEST DIV DUP1 SWAP3 PUSH2 0x19F6 JUMP JUMPDEST SWAP2 ISZERO PUSH2 0xC03 JUMPI PUSH2 0xBF7 PUSH1 0x7 SLOAD DUP4 GT ISZERO PUSH2 0x1A36 JUMP JUMPDEST DUP3 MLOAD SWAP2 DUP3 MSTORE PUSH1 0x20 DUP3 ADD MSTORE RETURN JUMPDEST PUSH2 0xC11 PUSH1 0x6 SLOAD DUP4 GT ISZERO PUSH2 0x1A36 JUMP JUMPDEST PUSH2 0xBF7 JUMP JUMPDEST POP POP CALLVALUE PUSH2 0x1A5 JUMPI DUP2 PUSH1 0x3 NOT CALLDATASIZE ADD SLT PUSH2 0x1A5 JUMPI MLOAD PUSH32 0x0 PUSH1 0x1 PUSH1 0x1 PUSH1 0xA0 SHL SUB AND DUP2 MSTORE PUSH1 0x20 SWAP1 RETURN JUMPDEST POP POP CALLVALUE PUSH2 0x1A5 JUMPI DUP2 PUSH1 0x3 NOT CALLDATASIZE ADD SLT PUSH2 0x1A5 JUMPI PUSH1 0x20 SWAP1 PUSH1 0x7 SLOAD SWAP1 MLOAD SWAP1 DUP2 MSTORE RETURN JUMPDEST POP POP CALLVALUE PUSH2 0x1A5 JUMPI PUSH1 0x20 CALLDATASIZE PUSH1 0x3 NOT ADD SLT PUSH2 0x1A5 JUMPI PUSH1 0x20 SWAP2 DUP2 SWAP1 PUSH1 0x1 PUSH1 0x1 PUSH1 0xA0 SHL SUB PUSH2 0xCA1 PUSH2 0x1869 JUMP JUMPDEST AND DUP2 MSTORE DUP1 DUP5 MSTORE KECCAK256 SLOAD SWAP1 MLOAD SWAP1 DUP2 MSTORE RETURN JUMPDEST POP POP CALLVALUE PUSH2 0x1A5 JUMPI DUP2 PUSH1 0x3 NOT CALLDATASIZE ADD SLT PUSH2 0x1A5 JUMPI MLOAD PUSH32 0x0 PUSH1 0x1 PUSH1 0x1 PUSH1 0xA0 SHL SUB AND DUP2 MSTORE PUSH1 0x20 SWAP1 RETURN JUMPDEST POP POP CALLVALUE PUSH2 0x1A5 JUMPI DUP2 PUSH1 0x3 NOT CALLDATASIZE ADD SLT PUSH2 0x1A5 JUMPI PUSH1 0x20 SWAP1 MLOAD PUSH32 0x0 DUP2 MSTORE RETURN JUMPDEST POP POP CALLVALUE PUSH2 0x1A5 JUMPI DUP2 PUSH1 0x3 NOT CALLDATASIZE ADD SLT PUSH2 0x1A5 JUMPI MLOAD PUSH32 0x0 PUSH1 0x1 PUSH1 0x1 PUSH1 0xA0 SHL SUB AND DUP2 MSTORE PUSH1 0x20 SWAP1 RETURN JUMPDEST POP POP CALLVALUE PUSH2 0x1A5 JUMPI DUP2 PUSH1 0x3 NOT CALLDATASIZE ADD SLT PUSH2 0x1A5 JUMPI PUSH1 0x20 SWAP1 MLOAD PUSH32 0x0 DUP2 MSTORE RETURN JUMPDEST SWAP2 SWAP1 POP CALLVALUE PUSH2 0x34F JUMPI PUSH1 0x20 CALLDATASIZE PUSH1 0x3 NOT ADD SLT PUSH2 0x34F JUMPI DUP2 CALLDATALOAD SWAP2 PUSH32 0x0 PUSH1 0x1 PUSH1 0x1 PUSH1 0xA0 SHL SUB AND CALLER SUB PUSH2 0xEC1 JUMPI PUSH1 0x8 SLOAD SWAP1 PUSH1 0xFF DUP3 AND PUSH2 0xE8B JUMPI DUP4 ISZERO DUP1 ISZERO PUSH2 0xE81 JUMPI JUMPDEST ISZERO PUSH2 0xE4C JUMPI POP PUSH1 0xFF NOT AND PUSH1 0x1 OR PUSH1 0x8 SSTORE PUSH1 0x9 DUP3 SWAP1 SSTORE MLOAD SWAP1 DUP2 MSTORE PUSH32 0x93608ECBCF057462DA63F5AEF413CE7F78C5E1B3BB51859D77A40845ECE2BFC3 SWAP1 PUSH1 0x20 SWAP1 LOG1 DUP1 RETURN JUMPDEST PUSH1 0x64 SWAP1 PUSH1 0x20 DUP5 MLOAD SWAP2 PUSH3 0x461BCD PUSH1 0xE5 SHL DUP4 MSTORE DUP3 ADD MSTORE PUSH1 0xF PUSH1 0x24 DUP3 ADD MSTORE PUSH15 0x496E76616C6964206F7574636F6D65 PUSH1 0x88 SHL PUSH1 0x44 DUP3 ADD MSTORE REVERT JUMPDEST POP PUSH1 0x1 DUP5 EQ PUSH2 0xE0A JUMP JUMPDEST PUSH1 0x64 SWAP1 PUSH1 0x20 DUP5 MLOAD SWAP2 PUSH3 0x461BCD PUSH1 0xE5 SHL DUP4 MSTORE DUP3 ADD MSTORE PUSH1 0x10 PUSH1 0x24 DUP3 ADD MSTORE PUSH16 0x105B1C9958591E481C995CDBDB1D9959 PUSH1 0x82 SHL PUSH1 0x44 DUP3 ADD MSTORE REVERT JUMPDEST PUSH1 0x20 PUSH1 0x64 SWAP3 MLOAD SWAP2 PUSH3 0x461BCD PUSH1 0xE5 SHL DUP4 MSTORE DUP3 ADD MSTORE PUSH1 0x17 PUSH1 0x24 DUP3 ADD MSTORE PUSH32 0x4F6E6C79206F7261636C652063616E207265736F6C7665000000000000000000 PUSH1 0x44 DUP3 ADD MSTORE REVERT JUMPDEST POP POP CALLVALUE PUSH2 0x1A5 JUMPI DUP2 PUSH1 0x3 NOT CALLDATASIZE ADD SLT PUSH2 0x1A5 JUMPI PUSH1 0x20 SWAP1 PUSH1 0xFF PUSH1 0x8 SLOAD AND SWAP1 MLOAD SWAP1 ISZERO ISZERO DUP2 MSTORE RETURN JUMPDEST POP POP CALLVALUE PUSH2 0x1A5 JUMPI DUP2 PUSH1 0x3 NOT CALLDATASIZE ADD SLT PUSH2 0x1A5 JUMPI PUSH1 0x20 SWAP1 MLOAD PUSH1 0x12 DUP2 MSTORE RETURN JUMPDEST POP POP CALLVALUE PUSH2 0x1A5 JUMPI DUP2 PUSH1 0x3 NOT CALLDATASIZE ADD SLT PUSH2 0x1A5 JUMPI PUSH1 0x20 SWAP1 MLOAD PUSH32 0x0 DUP2 MSTORE RETURN JUMPDEST POP POP CALLVALUE PUSH2 0x1A5 JUMPI DUP2 PUSH1 0x3 NOT CALLDATASIZE ADD SLT PUSH2 0x1A5 JUMPI PUSH1 0x20 SWAP1 MLOAD PUSH32 0x0 DUP2 MSTORE RETURN JUMPDEST DUP4 SWAP2 POP CALLVALUE PUSH2 0x1A5 JUMPI PUSH1 0x60 CALLDATASIZE PUSH1 0x3 NOT ADD SLT PUSH2 0x1A5 JUMPI PUSH2 0xFD5 PUSH2 0x1869 JUMP JUMPDEST PUSH2 0xFDD PUSH2 0x187F JUMP JUMPDEST SWAP2 PUSH1 0x44 CALLDATALOAD SWAP4 DUP6 PUSH1 0x1 DUP1 PUSH1 0xA0 SHL SUB DUP5 AND SWAP2 DUP3 DUP2 MSTORE PUSH1 0x1 PUSH1 0x20 MSTORE KECCAK256 CALLER PUSH0 MSTORE PUSH1 0x20 MSTORE DUP6 PUSH0 KECCAK256 SLOAD SWAP2 PUSH0 NOT DUP4 LT PUSH2 0x1018 JUMPI JUMPDEST PUSH1 0x20 DUP8 PUSH2 0x498 DUP9 DUP9 DUP9 PUSH2 0x1B2A JUMP JUMPDEST DUP6 DUP4 LT PUSH2 0x1080 JUMPI DUP2 ISZERO PUSH2 0x106A JUMPI CALLER ISZERO PUSH2 0x1054 JUMPI POP PUSH0 SWAP1 DUP2 MSTORE PUSH1 0x1 PUSH1 0x20 SWAP1 DUP2 MSTORE DUP7 DUP3 KECCAK256 CALLER DUP4 MSTORE DUP2 MSTORE SWAP1 DUP7 SWAP1 KECCAK256 SWAP2 DUP6 SWAP1 SUB SWAP1 SWAP2 SSTORE DUP3 SWAP1 PUSH2 0x498 PUSH2 0x100A JUMP JUMPDEST PUSH1 0x24 SWAP1 PUSH0 DUP9 MLOAD SWAP2 PUSH4 0x4A1406B1 PUSH1 0xE1 SHL DUP4 MSTORE DUP3 ADD MSTORE REVERT JUMPDEST PUSH1 0x24 SWAP1 PUSH0 DUP9 MLOAD SWAP2 PUSH4 0xE602DF05 PUSH1 0xE0 SHL DUP4 MSTORE DUP3 ADD MSTORE REVERT JUMPDEST DUP7 MLOAD PUSH4 0x7DC7A0D9 PUSH1 0xE1 SHL DUP2 MSTORE CALLER SWAP2 DUP2 ADD SWAP2 DUP3 MSTORE PUSH1 0x20 DUP3 ADD SWAP4 SWAP1 SWAP4 MSTORE PUSH1 0x40 DUP2 ADD DUP7 SWAP1 MSTORE DUP3 SWAP2 POP PUSH1 0x60 ADD SUB SWAP1 REVERT JUMPDEST POP POP CALLVALUE PUSH2 0x1A5 JUMPI DUP2 PUSH1 0x3 NOT CALLDATASIZE ADD SLT PUSH2 0x1A5 JUMPI PUSH1 0x20 SWAP1 PUSH1 0x2 SLOAD SWAP1 MLOAD SWAP1 DUP2 MSTORE RETURN JUMPDEST DUP3 DUP5 CALLVALUE PUSH2 0x790 JUMPI DUP2 PUSH1 0x3 NOT CALLDATASIZE ADD SLT PUSH2 0x790 JUMPI POP PUSH2 0x10E6 PUSH2 0x1869 JUMP JUMPDEST PUSH1 0x24 CALLDATALOAD SWAP1 CALLER ISZERO PUSH2 0x115F JUMPI PUSH1 0x1 PUSH1 0x1 PUSH1 0xA0 SHL SUB AND SWAP1 DUP2 ISZERO PUSH2 0x1149 JUMPI PUSH1 0x20 SWAP4 POP CALLER PUSH0 MSTORE PUSH1 0x1 DUP5 MSTORE DUP3 PUSH0 KECCAK256 DUP3 PUSH0 MSTORE DUP5 MSTORE DUP1 DUP4 PUSH0 KECCAK256 SSTORE DUP3 MLOAD SWAP1 DUP2 MSTORE PUSH32 0x8C5BE1E5EBEC7D5BD14F71427D1E84F3DD0314C0F7B2291E5B200AC8C7C3B925 DUP5 CALLER SWAP3 LOG3 MLOAD PUSH1 0x1 DUP2 MSTORE RETURN JUMPDEST DUP3 MLOAD PUSH4 0x4A1406B1 PUSH1 0xE1 SHL DUP2 MSTORE PUSH0 DUP2 DUP7 ADD MSTORE PUSH1 0x24 SWAP1 REVERT JUMPDEST DUP3 MLOAD PUSH4 0xE602DF05 PUSH1 0xE0 SHL DUP2 MSTORE PUSH0 DUP2 DUP7 ADD MSTORE PUSH1 0x24 SWAP1 REVERT JUMPDEST DUP3 DUP5 CALLVALUE PUSH2 0x790 JUMPI DUP1 PUSH1 0x3 NOT CALLDATASIZE ADD SLT PUSH2 0x790 JUMPI POP PUSH1 0x6 SLOAD PUSH1 0x7 SLOAD DUP3 MLOAD SWAP2 DUP3 MSTORE PUSH1 0x20 DUP3 ADD MSTORE RETURN JUMPDEST SWAP2 SWAP1 POP CALLVALUE PUSH2 0x1699 JUMPI PUSH1 0x60 CALLDATASIZE PUSH1 0x3 NOT ADD SLT PUSH2 0x1699 JUMPI PUSH2 0x11B6 PUSH2 0x185A JUMP JUMPDEST PUSH1 0x24 CALLDATALOAD PUSH2 0x11C1 PUSH2 0x1B07 JUMP JUMPDEST PUSH2 0x11CC DUP2 ISZERO ISZERO PUSH2 0x18DF JUMP JUMPDEST PUSH2 0x11DB PUSH1 0xFF PUSH1 0x8 SLOAD AND ISZERO PUSH2 0x192B JUMP JUMPDEST PUSH1 0x6 SLOAD SWAP4 DUP5 ISZERO ISZERO DUP1 PUSH2 0x1717 JUMPI JUMPDEST PUSH2 0x11F1 SWAP1 PUSH2 0x1969 JUMP JUMPDEST PUSH32 0x0 SWAP2 PUSH2 0x2710 PUSH2 0x1255 DUP2 PUSH2 0x124D PUSH2 0x1247 PUSH32 0x0 DUP9 PUSH2 0x19A4 JUMP JUMPDEST DUP6 PUSH2 0x19C5 JUMP JUMPDEST DIV SWAP5 DUP4 PUSH2 0x19C5 JUMP JUMPDEST DIV SWAP2 PUSH2 0x126B PUSH2 0x1264 DUP5 DUP7 PUSH2 0x19F6 JUMP JUMPDEST SWAP5 DUP4 PUSH2 0x19F6 JUMP JUMPDEST SWAP7 PUSH1 0x44 CALLDATALOAD DUP9 LT PUSH2 0x16E0 JUMPI DUP6 ISZERO PUSH2 0x14DE JUMPI POP PUSH1 0x7 SLOAD DUP8 GT PUSH2 0x149B JUMPI PUSH32 0x0 PUSH32 0x0 PUSH1 0x1 PUSH1 0x1 PUSH1 0xA0 SHL SUB AND DUP1 EXTCODESIZE ISZERO PUSH2 0x1497 JUMPI DUP8 MLOAD PUSH4 0x79212195 PUSH1 0xE1 SHL DUP1 DUP3 MSTORE SWAP4 SWAP1 DUP12 SWAP1 DUP2 DUP2 DUP1 PUSH2 0x12FA DUP11 DUP10 ADDRESS CALLER DUP11 DUP7 ADD PUSH2 0x1A03 JUMP JUMPDEST SUB DUP2 DUP4 DUP9 GAS CALL DUP1 ISZERO PUSH2 0x1479 JUMPI PUSH2 0x1483 JUMPI JUMPDEST POP POP PUSH2 0x1322 PUSH2 0x131A DUP9 DUP8 PUSH2 0x19F6 JUMP JUMPDEST PUSH1 0x7 SLOAD PUSH2 0x19A4 JUMP JUMPDEST PUSH1 0x7 SSTORE PUSH2 0x1331 DUP11 PUSH1 0x6 SLOAD PUSH2 0x19F6 JUMP JUMPDEST PUSH1 0x6 SSTORE DUP2 EXTCODESIZE ISZERO PUSH2 0x1475 JUMPI DUP9 MLOAD DUP5 DUP2 MSTORE DUP12 SWAP1 DUP2 DUP2 DUP1 PUSH2 0x1374 DUP16 PUSH32 0x0 CALLER ADDRESS DUP11 DUP7 ADD PUSH2 0x1A03 JUMP JUMPDEST SUB DUP2 DUP4 DUP9 GAS CALL DUP1 ISZERO PUSH2 0x1479 JUMPI PUSH2 0x1461 JUMPI JUMPDEST POP POP DUP7 PUSH2 0x13E1 JUMPI JUMPDEST POP POP POP POP PUSH1 0x20 SWAP7 POP JUMPDEST DUP5 MLOAD SWAP4 ISZERO ISZERO DUP5 MSTORE DUP7 DUP5 ADD MSTORE DUP5 DUP5 DUP5 ADD MSTORE PUSH1 0x60 DUP4 ADD MSTORE PUSH1 0x80 DUP3 ADD MSTORE PUSH32 0xD55848F048CA7D5FD9869D414BB60A426C2B0125C8ADB982FEE123DA3F841ED8 PUSH1 0xA0 CALLER SWAP3 LOG2 PUSH1 0x1 PUSH1 0x5 SSTORE MLOAD SWAP1 DUP2 MSTORE RETURN JUMPDEST SWAP1 DUP11 SWAP3 SWAP2 DUP2 EXTCODESIZE ISZERO PUSH2 0x9BE JUMPI DUP4 DUP9 SWAP6 PUSH2 0x1428 DUP13 MLOAD SWAP8 DUP9 SWAP7 DUP8 SWAP6 DUP7 SWAP5 DUP6 MSTORE PUSH32 0x0 SWAP1 ADDRESS SWAP1 DUP7 ADD PUSH2 0x1A03 JUMP JUMPDEST SUB SWAP3 GAS CALL DUP1 ISZERO PUSH2 0x1457 JUMPI PUSH2 0x143F JUMPI JUMPDEST DUP1 DUP1 DUP1 PUSH2 0x138D JUMP JUMPDEST PUSH2 0x1449 DUP9 SWAP2 PUSH2 0x1895 JUMP JUMPDEST PUSH2 0x1453 JUMPI DUP7 PUSH2 0x1437 JUMP JUMPDEST DUP7 DUP1 REVERT JUMPDEST DUP7 MLOAD RETURNDATASIZE DUP11 DUP3 RETURNDATACOPY RETURNDATASIZE SWAP1 REVERT JUMPDEST PUSH2 0x146A SWAP1 PUSH2 0x1895 JUMP JUMPDEST PUSH2 0x1475 JUMPI DUP11 PUSH0 PUSH2 0x1385 JUMP JUMPDEST DUP11 DUP1 REVERT JUMPDEST DUP12 MLOAD RETURNDATASIZE DUP5 DUP3 RETURNDATACOPY RETURNDATASIZE SWAP1 REVERT JUMPDEST PUSH2 0x148C SWAP1 PUSH2 0x1895 JUMP JUMPDEST PUSH2 0x1475 JUMPI DUP11 PUSH0 PUSH2 0x130B JUMP JUMPDEST DUP10 DUP1 REVERT JUMPDEST PUSH1 0x64 SWAP1 PUSH1 0x20 DUP8 MLOAD SWAP2 PUSH3 0x461BCD PUSH1 0xE5 SHL DUP4 MSTORE DUP3 ADD MSTORE PUSH1 0x17 PUSH1 0x24 DUP3 ADD MSTORE PUSH32 0x496E73756666696369656E74204E4F2072657365727665000000000000000000 PUSH1 0x44 DUP3 ADD MSTORE REVERT JUMPDEST DUP8 GT PUSH2 0x169D JUMPI PUSH32 0x0 PUSH32 0x0 PUSH1 0x1 PUSH1 0x1 PUSH1 0xA0 SHL SUB AND DUP1 EXTCODESIZE ISZERO PUSH2 0x1699 JUMPI DUP8 MLOAD PUSH4 0x79212195 PUSH1 0xE1 SHL DUP1 DUP3 MSTORE SWAP4 SWAP1 PUSH0 DUP2 DUP1 PUSH2 0x1557 DUP10 DUP9 ADDRESS CALLER DUP10 DUP7 ADD PUSH2 0x1A03 JUMP JUMPDEST SUB DUP2 DUP4 DUP8 GAS CALL DUP1 ISZERO PUSH2 0x168F JUMPI PUSH2 0x167C JUMPI JUMPDEST POP PUSH2 0x157E PUSH2 0x1576 DUP9 DUP8 PUSH2 0x19F6 JUMP JUMPDEST PUSH1 0x6 SLOAD PUSH2 0x19A4 JUMP JUMPDEST PUSH1 0x6 SSTORE PUSH2 0x158D DUP11 PUSH1 0x7 SLOAD PUSH2 0x19F6 JUMP JUMPDEST PUSH1 0x7 SSTORE DUP2 EXTCODESIZE ISZERO PUSH2 0x1475 JUMPI DUP9 MLOAD DUP5 DUP2 MSTORE DUP12 SWAP1 DUP2 DUP2 DUP1 PUSH2 0x15D0 DUP16 PUSH32 0x0 CALLER ADDRESS DUP11 DUP7 ADD PUSH2 0x1A03 JUMP JUMPDEST SUB DUP2 DUP4 DUP9 GAS CALL DUP1 ISZERO PUSH2 0x1479 JUMPI PUSH2 0x1668 JUMPI JUMPDEST POP POP DUP7 PUSH2 0x15F6 JUMPI JUMPDEST POP POP POP POP PUSH1 0x20 SWAP7 POP PUSH2 0x1396 JUMP JUMPDEST SWAP1 DUP11 SWAP3 SWAP2 DUP2 EXTCODESIZE ISZERO PUSH2 0x9BE JUMPI DUP4 DUP9 SWAP6 PUSH2 0x163D DUP13 MLOAD SWAP8 DUP9 SWAP7 DUP8 SWAP6 DUP7 SWAP5 DUP6 MSTORE PUSH32 0x0 SWAP1 ADDRESS SWAP1 DUP7 ADD PUSH2 0x1A03 JUMP JUMPDEST SUB SWAP3 GAS CALL DUP1 ISZERO PUSH2 0x1457 JUMPI PUSH2 0x1654 JUMPI JUMPDEST DUP1 DUP1 DUP1 PUSH2 0x15E9 JUMP JUMPDEST PUSH2 0x165E DUP9 SWAP2 PUSH2 0x1895 JUMP JUMPDEST PUSH2 0x1453 JUMPI DUP7 PUSH2 0x164C JUMP JUMPDEST PUSH2 0x1671 SWAP1 PUSH2 0x1895 JUMP JUMPDEST PUSH2 0x1475 JUMPI DUP11 PUSH0 PUSH2 0x15E1 JUMP JUMPDEST PUSH2 0x1687 SWAP2 SWAP12 POP PUSH2 0x1895 JUMP JUMPDEST PUSH0 SWAP10 PUSH0 PUSH2 0x1568 JUMP JUMPDEST DUP11 MLOAD RETURNDATASIZE PUSH0 DUP3 RETURNDATACOPY RETURNDATASIZE SWAP1 REVERT JUMPDEST PUSH0 DUP1 REVERT JUMPDEST PUSH1 0x64 SWAP1 PUSH1 0x20 DUP8 MLOAD SWAP2 PUSH3 0x461BCD PUSH1 0xE5 SHL DUP4 MSTORE DUP3 ADD MSTORE PUSH1 0x18 PUSH1 0x24 DUP3 ADD MSTORE PUSH32 0x496E73756666696369656E742059455320726573657276650000000000000000 PUSH1 0x44 DUP3 ADD MSTORE REVERT JUMPDEST DUP7 MLOAD PUSH3 0x461BCD PUSH1 0xE5 SHL DUP2 MSTORE PUSH1 0x20 DUP2 DUP5 ADD MSTORE PUSH1 0x11 PUSH1 0x24 DUP3 ADD MSTORE PUSH17 0x14DB1A5C1C1859D948195E18D959591959 PUSH1 0x7A SHL PUSH1 0x44 DUP3 ADD MSTORE PUSH1 0x64 SWAP1 REVERT JUMPDEST POP PUSH1 0x7 SLOAD ISZERO ISZERO PUSH2 0x11E8 JUMP JUMPDEST DUP4 CALLVALUE PUSH2 0x1699 JUMPI PUSH0 CALLDATASIZE PUSH1 0x3 NOT ADD SLT PUSH2 0x1699 JUMPI PUSH0 SWAP3 PUSH1 0x3 SLOAD PUSH1 0x1 DUP2 PUSH1 0x1 SHR SWAP2 PUSH1 0x1 DUP2 AND DUP1 ISZERO PUSH2 0x1809 JUMPI JUMPDEST PUSH1 0x20 SWAP5 DUP6 DUP6 LT DUP3 EQ PUSH2 0x17F6 JUMPI POP DUP4 DUP8 MSTORE SWAP1 DUP2 ISZERO PUSH2 0x17D6 JUMPI POP PUSH1 0x1 EQ PUSH2 0x177C JUMPI JUMPDEST POP POP POP PUSH2 0xA9F DUP3 PUSH2 0xAA9 SWAP5 SUB DUP4 PUSH2 0x18BD JUMP JUMPDEST PUSH1 0x3 PUSH0 SWAP1 DUP2 MSTORE SWAP3 SWAP6 POP PUSH32 0xC2575A0E9E593C00F959F8C92F12DB2869C3395A3B0502D05E2516446F71F85B JUMPDEST DUP3 DUP5 LT PUSH2 0x17C3 JUMPI POP POP POP DUP3 PUSH2 0xAA9 SWAP5 PUSH2 0xA9F SWAP3 DUP3 ADD ADD SWAP5 PUSH2 0x176A JUMP JUMPDEST DUP1 SLOAD DUP7 DUP6 ADD DUP9 ADD MSTORE SWAP3 DUP7 ADD SWAP3 DUP2 ADD PUSH2 0x17A7 JUMP JUMPDEST PUSH1 0xFF NOT AND DUP7 DUP6 ADD MSTORE POP POP ISZERO ISZERO PUSH1 0x5 SHL DUP4 ADD ADD SWAP3 POP PUSH2 0xA9F DUP3 PUSH2 0xAA9 PUSH2 0x176A JUMP JUMPDEST PUSH1 0x22 SWAP1 PUSH4 0x4E487B71 PUSH1 0xE0 SHL PUSH0 MSTORE MSTORE PUSH1 0x24 PUSH0 REVERT JUMPDEST SWAP3 PUSH1 0x7F AND SWAP3 PUSH2 0x174A JUMP JUMPDEST PUSH1 0x20 DUP1 DUP3 MSTORE DUP3 MLOAD DUP2 DUP4 ADD DUP2 SWAP1 MSTORE SWAP1 SWAP4 SWAP3 PUSH0 JUMPDEST DUP3 DUP2 LT PUSH2 0x1846 JUMPI POP POP PUSH1 0x40 SWAP3 SWAP4 POP PUSH0 DUP4 DUP3 DUP5 ADD ADD MSTORE PUSH1 0x1F DUP1 NOT SWAP2 ADD AND ADD ADD SWAP1 JUMP JUMPDEST DUP2 DUP2 ADD DUP7 ADD MLOAD DUP5 DUP3 ADD PUSH1 0x40 ADD MSTORE DUP6 ADD PUSH2 0x1825 JUMP JUMPDEST PUSH1 0x4 CALLDATALOAD SWAP1 DUP2 ISZERO ISZERO DUP3 SUB PUSH2 0x1699 JUMPI JUMP JUMPDEST PUSH1 0x4 CALLDATALOAD SWAP1 PUSH1 0x1 PUSH1 0x1 PUSH1 0xA0 SHL SUB DUP3 AND DUP3 SUB PUSH2 0x1699 JUMPI JUMP JUMPDEST PUSH1 0x24 CALLDATALOAD SWAP1 PUSH1 0x1 PUSH1 0x1 PUSH1 0xA0 SHL SUB DUP3 AND DUP3 SUB PUSH2 0x1699 JUMPI JUMP JUMPDEST PUSH8 0xFFFFFFFFFFFFFFFF DUP2 GT PUSH2 0x18A9 JUMPI PUSH1 0x40 MSTORE JUMP JUMPDEST PUSH4 0x4E487B71 PUSH1 0xE0 SHL PUSH0 MSTORE PUSH1 0x41 PUSH1 0x4 MSTORE PUSH1 0x24 PUSH0 REVERT JUMPDEST SWAP1 PUSH1 0x1F DUP1 NOT SWAP2 ADD AND DUP2 ADD SWAP1 DUP2 LT PUSH8 0xFFFFFFFFFFFFFFFF DUP3 GT OR PUSH2 0x18A9 JUMPI PUSH1 0x40 MSTORE JUMP JUMPDEST ISZERO PUSH2 0x18E6 JUMPI JUMP JUMPDEST PUSH1 0x40 MLOAD PUSH3 0x461BCD PUSH1 0xE5 SHL DUP2 MSTORE PUSH1 0x20 PUSH1 0x4 DUP3 ADD MSTORE PUSH1 0x17 PUSH1 0x24 DUP3 ADD MSTORE PUSH32 0x416D6F756E74206D75737420626520706F736974697665000000000000000000 PUSH1 0x44 DUP3 ADD MSTORE PUSH1 0x64 SWAP1 REVERT JUMPDEST ISZERO PUSH2 0x1932 JUMPI JUMP JUMPDEST PUSH1 0x40 MLOAD PUSH3 0x461BCD PUSH1 0xE5 SHL DUP2 MSTORE PUSH1 0x20 PUSH1 0x4 DUP3 ADD MSTORE PUSH1 0xF PUSH1 0x24 DUP3 ADD MSTORE PUSH15 0x13585C9AD95D081C995CDBDB1D9959 PUSH1 0x8A SHL PUSH1 0x44 DUP3 ADD MSTORE PUSH1 0x64 SWAP1 REVERT JUMPDEST ISZERO PUSH2 0x1970 JUMPI JUMP JUMPDEST PUSH1 0x40 MLOAD PUSH3 0x461BCD PUSH1 0xE5 SHL DUP2 MSTORE PUSH1 0x20 PUSH1 0x4 DUP3 ADD MSTORE PUSH1 0xC PUSH1 0x24 DUP3 ADD MSTORE PUSH12 0x4E6F206C6971756964697479 PUSH1 0xA0 SHL PUSH1 0x44 DUP3 ADD MSTORE PUSH1 0x64 SWAP1 REVERT JUMPDEST SWAP2 SWAP1 DUP3 ADD DUP1 SWAP3 GT PUSH2 0x19B1 JUMPI JUMP JUMPDEST PUSH4 0x4E487B71 PUSH1 0xE0 SHL PUSH0 MSTORE PUSH1 0x11 PUSH1 0x4 MSTORE PUSH1 0x24 PUSH0 REVERT JUMPDEST DUP2 DUP2 MUL SWAP3 SWAP2 DUP2 ISZERO SWAP2 DUP5 DIV EQ OR ISZERO PUSH2 0x19B1 JUMPI JUMP JUMPDEST DUP2 ISZERO PUSH2 0x19E2 JUMPI DIV SWAP1 JUMP JUMPDEST PUSH4 0x4E487B71 PUSH1 0xE0 SHL PUSH0 MSTORE PUSH1 0x12 PUSH1 0x4 MSTORE PUSH1 0x24 PUSH0 REVERT JUMPDEST SWAP2 SWAP1 DUP3 SUB SWAP2 DUP3 GT PUSH2 0x19B1 JUMPI JUMP JUMPDEST SWAP3 SWAP1 PUSH1 0xC0 SWAP5 SWAP3 PUSH1 0x1 DUP1 PUSH1 0xA0 SHL SUB DUP1 SWAP3 AND DUP6 MSTORE AND PUSH1 0x20 DUP5 ADD MSTORE PUSH1 0x40 DUP4 ADD MSTORE PUSH1 0x60 DUP3 ADD MSTORE PUSH1 0xA0 PUSH1 0x80 DUP3 ADD MSTORE PUSH0 PUSH1 0xA0 DUP3 ADD MSTORE ADD SWAP1 JUMP JUMPDEST ISZERO PUSH2 0x1A3D JUMPI JUMP JUMPDEST PUSH1 0x40 MLOAD PUSH3 0x461BCD PUSH1 0xE5 SHL DUP2 MSTORE PUSH1 0x20 PUSH1 0x4 DUP3 ADD MSTORE PUSH1 0x15 PUSH1 0x24 DUP3 ADD MSTORE PUSH21 0x496E73756666696369656E74207265736572766573 PUSH1 0x58 SHL PUSH1 0x44 DUP3 ADD MSTORE PUSH1 0x64 SWAP1 REVERT JUMPDEST PUSH1 0x6 SLOAD PUSH1 0x7 SLOAD SWAP1 PUSH2 0x1A8B DUP3 DUP3 PUSH2 0x19A4 JUMP JUMPDEST ISZERO PUSH2 0x1ABA JUMPI PUSH2 0x2710 SWAP1 DUP2 DUP4 MUL SWAP2 DUP4 DUP4 DIV EQ DUP4 ISZERO OR ISZERO PUSH2 0x19B1 JUMPI PUSH2 0x1AB7 SWAP3 PUSH2 0x1AB1 SWAP2 PUSH2 0x19A4 JUMP JUMPDEST SWAP1 PUSH2 0x19D8 JUMP JUMPDEST SWAP1 JUMP JUMPDEST POP POP PUSH2 0x1388 SWAP1 JUMP JUMPDEST ISZERO PUSH2 0x1AC9 JUMPI JUMP JUMPDEST PUSH1 0x40 MLOAD PUSH3 0x461BCD PUSH1 0xE5 SHL DUP2 MSTORE PUSH1 0x20 PUSH1 0x4 DUP3 ADD MSTORE PUSH1 0x16 PUSH1 0x24 DUP3 ADD MSTORE PUSH22 0x496E73756666696369656E74204C5020746F6B656E73 PUSH1 0x50 SHL PUSH1 0x44 DUP3 ADD MSTORE PUSH1 0x64 SWAP1 REVERT JUMPDEST PUSH1 0x2 PUSH1 0x5 SLOAD EQ PUSH2 0x1B18 JUMPI PUSH1 0x2 PUSH1 0x5 SSTORE JUMP JUMPDEST PUSH1 0x40 MLOAD PUSH4 0x3EE5AEB5 PUSH1 0xE0 SHL DUP2 MSTORE PUSH1 0x4 SWAP1 REVERT JUMPDEST SWAP2 PUSH1 0x1 PUSH1 0x1 PUSH1 0xA0 SHL SUB DUP1 DUP5 AND SWAP3 DUP4 ISZERO PUSH2 0x1BD9 JUMPI AND SWAP3 DUP4 ISZERO PUSH2 0x1BC1 JUMPI DUP3 PUSH0 MSTORE PUSH0 PUSH1 0x20 MSTORE PUSH1 0x40 PUSH0 KECCAK256 SLOAD SWAP1 DUP3 DUP3 LT PUSH2 0x1B8F JUMPI POP DUP2 PUSH0 DUP1 MLOAD PUSH1 0x20 PUSH2 0x1C7E DUP4 CODECOPY DUP2 MLOAD SWAP2 MSTORE SWAP3 PUSH1 0x20 SWAP3 DUP6 PUSH0 MSTORE PUSH0 DUP5 MSTORE SUB PUSH1 0x40 PUSH0 KECCAK256 SSTORE DUP5 PUSH0 MSTORE PUSH1 0x40 PUSH0 KECCAK256 DUP2 DUP2 SLOAD ADD SWAP1 SSTORE PUSH1 0x40 MLOAD SWAP1 DUP2 MSTORE LOG3 JUMP JUMPDEST PUSH1 0x40 MLOAD PUSH4 0x391434E3 PUSH1 0xE2 SHL DUP2 MSTORE PUSH1 0x1 PUSH1 0x1 PUSH1 0xA0 SHL SUB SWAP2 SWAP1 SWAP2 AND PUSH1 0x4 DUP3 ADD MSTORE PUSH1 0x24 DUP2 ADD SWAP2 SWAP1 SWAP2 MSTORE PUSH1 0x44 DUP2 ADD DUP3 SWAP1 MSTORE PUSH1 0x64 SWAP1 REVERT JUMPDEST PUSH1 0x40 MLOAD PUSH4 0xEC442F05 PUSH1 0xE0 SHL DUP2 MSTORE PUSH0 PUSH1 0x4 DUP3 ADD MSTORE PUSH1 0x24 SWAP1 REVERT JUMPDEST PUSH1 0x40 MLOAD PUSH4 0x4B637E8F PUSH1 0xE1 SHL DUP2 MSTORE PUSH0 PUSH1 0x4 DUP3 ADD MSTORE PUSH1 0x24 SWAP1 REVERT JUMPDEST SWAP2 SWAP1 PUSH1 0x1 PUSH1 0x1 PUSH1 0xA0 SHL SUB DUP4 AND SWAP1 DUP2 ISZERO PUSH2 0x1BD9 JUMPI DUP2 PUSH0 MSTORE PUSH0 PUSH1 0x20 MSTORE PUSH1 0x40 PUSH0 KECCAK256 SLOAD SWAP4 DUP2 DUP6 LT PUSH2 0x1C4B JUMPI POP PUSH1 0x20 DUP2 PUSH0 DUP1 MLOAD PUSH1 0x20 PUSH2 0x1C7E DUP4 CODECOPY DUP2 MLOAD SWAP2 MSTORE SWAP3 PUSH0 SWAP6 SWAP7 DUP6 DUP8 MSTORE DUP7 DUP5 MSTORE SUB PUSH1 0x40 DUP7 KECCAK256 SSTORE DUP1 PUSH1 0x2 SLOAD SUB PUSH1 0x2 SSTORE PUSH1 0x40 MLOAD SWAP1 DUP2 MSTORE LOG3 JUMP JUMPDEST PUSH1 0x40 MLOAD PUSH4 0x391434E3 PUSH1 0xE2 SHL DUP2 MSTORE PUSH1 0x1 PUSH1 0x1 PUSH1 0xA0 SHL SUB SWAP2 SWAP1 SWAP2 AND PUSH1 0x4 DUP3 ADD MSTORE PUSH1 0x24 DUP2 ADD DUP6 SWAP1 MSTORE PUSH1 0x44 DUP2 ADD SWAP2 SWAP1 SWAP2 MSTORE PUSH1 0x64 SWAP1 REVERT INVALID 0xDD CALLCODE MSTORE 0xAD SHL 0xE2 0xC8 SWAP12 PUSH10 0xC2B068FC378DAA952BA7 CALL PUSH4 0xC4A11628 CREATE2 GAS 0x4D CREATE2 0x23 0xB3 0xEF LOG2 PUSH5 0x6970667358 0x22 SLT KECCAK256 DUP7 ORIGIN 0xEB 0xE4 DUP4 CALLDATACOPY PUSH0 0xFB 0xEF SWAP5 MULMOD CALLER PUSH6 0x41B496C3429A DUP11 NOT BASEFEE PUSH23 0xCF7C7A09E3EE3254C164736F6C63430008180033A26469 PUSH17 0x667358221220B7E80E2F4280477ACD56EF 0xD DUP5 0xAF LOG4 0xED DUP8 0xD8 PUSH26 0xD40AE61FDD8BBB40AD590D198A64736F6C634300081800330000 "},"methodIdentifiers":{"allPools(uint256)":"41d1de97","collateralToken()":"b2016bd4","conditionalTokens()":"5bd9e299","createPool(string,string,bytes32,address,uint256,uint256,uint256,uint256)":"bdf57194","createPoolWithDefaults(string,string,bytes32,address,uint256,uint256)":"5bc2a57e","defaultLPFee()":"d74fb90d","defaultProtocolFee()":"421bcbdf","getPool(bytes32)":"f6c00927","getPoolCount()":"8eec5d70","maxLPFee()":"abce0cd5","maxProtocolFee()":"5ee31c7c","minLPFee()":"f30853fb","minProtocolFee()":"e904e09d","owner()":"8da5cb5b","pools(bytes32)":"b5217bb4","renounceOwnership()":"715018a6","transferOwnership(address)":"f2fde38b","treasury()":"61d027b3","updateDefaultFees(uint256,uint256)":"a3784e1d","updateFeeLimits(uint256,uint256,uint256,uint256)":"66c6146d","updateTreasury(address)":"7f51bb1f"}}}}}