{"project/contracts/ProxyWallet.sol":{"ProxyWallet":{"abi":[{"inputs":[{"internalType":"address","name":"_owner","type":"address"}],"stateMutability":"nonpayable","type":"constructor"},{"inputs":[],"name":"ECDSAInvalidSignature","type":"error"},{"inputs":[{"internalType":"uint256","name":"length","type":"uint256"}],"name":"ECDSAInvalidSignatureLength","type":"error"},{"inputs":[{"internalType":"bytes32","name":"s","type":"bytes32"}],"name":"ECDSAInvalidSignatureS","type":"error"},{"anonymous":false,"inputs":[{"indexed":true,"internalType":"address","name":"to","type":"address"},{"indexed":false,"internalType":"uint256","name":"value","type":"uint256"},{"indexed":false,"internalType":"bytes","name":"data","type":"bytes"}],"name":"ExecutionFailure","type":"event"},{"anonymous":false,"inputs":[{"indexed":true,"internalType":"address","name":"to","type":"address"},{"indexed":false,"internalType":"uint256","name":"value","type":"uint256"},{"indexed":false,"internalType":"bytes","name":"data","type":"bytes"},{"indexed":false,"internalType":"bytes","name":"returnData","type":"bytes"}],"name":"ExecutionSuccess","type":"event"},{"anonymous":false,"inputs":[{"indexed":true,"internalType":"address","name":"user","type":"address"},{"indexed":true,"internalType":"address","name":"target","type":"address"},{"indexed":false,"internalType":"uint256","name":"nonce","type":"uint256"}],"name":"MetaTransactionExecuted","type":"event"},{"inputs":[],"name":"DOMAIN_SEPARATOR","outputs":[{"internalType":"bytes32","name":"","type":"bytes32"}],"stateMutability":"view","type":"function"},{"inputs":[],"name":"META_TRANSACTION_TYPEHASH","outputs":[{"internalType":"bytes32","name":"","type":"bytes32"}],"stateMutability":"view","type":"function"},{"inputs":[{"internalType":"address","name":"to","type":"address"},{"internalType":"bytes","name":"data","type":"bytes"},{"internalType":"uint256","name":"value","type":"uint256"}],"name":"execute","outputs":[{"internalType":"bytes","name":"","type":"bytes"}],"stateMutability":"payable","type":"function"},{"inputs":[{"components":[{"internalType":"address","name":"to","type":"address"},{"internalType":"bytes","name":"data","type":"bytes"},{"internalType":"uint256","name":"value","type":"uint256"}],"internalType":"struct ProxyWallet.Call[]","name":"calls","type":"tuple[]"}],"name":"executeBatch","outputs":[{"internalType":"bytes[]","name":"","type":"bytes[]"}],"stateMutability":"payable","type":"function"},{"inputs":[{"internalType":"address","name":"user","type":"address"},{"internalType":"address","name":"target","type":"address"},{"internalType":"bytes","name":"data","type":"bytes"},{"internalType":"bytes","name":"signature","type":"bytes"},{"internalType":"uint256","name":"deadline","type":"uint256"}],"name":"executeMetaTransaction","outputs":[{"internalType":"bytes","name":"","type":"bytes"}],"stateMutability":"payable","type":"function"},{"inputs":[{"internalType":"address","name":"user","type":"address"}],"name":"getNonce","outputs":[{"internalType":"uint256","name":"","type":"uint256"}],"stateMutability":"view","type":"function"},{"inputs":[],"name":"getOwner","outputs":[{"internalType":"address","name":"","type":"address"}],"stateMutability":"view","type":"function"},{"inputs":[{"internalType":"address","name":"","type":"address"}],"name":"nonces","outputs":[{"internalType":"uint256","name":"","type":"uint256"}],"stateMutability":"view","type":"function"},{"inputs":[{"internalType":"address","name":"","type":"address"},{"internalType":"address","name":"","type":"address"},{"internalType":"uint256[]","name":"","type":"uint256[]"},{"internalType":"uint256[]","name":"","type":"uint256[]"},{"internalType":"bytes","name":"","type":"bytes"}],"name":"onERC1155BatchReceived","outputs":[{"internalType":"bytes4","name":"","type":"bytes4"}],"stateMutability":"pure","type":"function"},{"inputs":[{"internalType":"address","name":"","type":"address"},{"internalType":"address","name":"","type":"address"},{"internalType":"uint256","name":"","type":"uint256"},{"internalType":"uint256","name":"","type":"uint256"},{"internalType":"bytes","name":"","type":"bytes"}],"name":"onERC1155Received","outputs":[{"internalType":"bytes4","name":"","type":"bytes4"}],"stateMutability":"pure","type":"function"},{"inputs":[],"name":"owner","outputs":[{"internalType":"address","name":"","type":"address"}],"stateMutability":"view","type":"function"},{"inputs":[{"internalType":"bytes4","name":"interfaceId","type":"bytes4"}],"name":"supportsInterface","outputs":[{"internalType":"bool","name":"","type":"bool"}],"stateMutability":"pure","type":"function"},{"stateMutability":"payable","type":"receive"}],"evm":{"bytecode":{"linkReferences":{},"object":"60c060405234801561000f575f80fd5b5060405161157338038061157383398101604081905261002e91610116565b6001600160a01b03166080908152604080518082018252600b81526a141c9bde1e55d85b1b195d60aa1b6020918201528151808301835260018152603160f81b9082015281517f8b73c3c69bb8fe3d512ecc4cf759cc79239f7b179b0ffacaa9a75d522b39400f818301527fcb8126777ef39ab398dd5455966426f9d0bcde9e865787dbe9b7c2e5d2b0deba818401527fc89efdaa54c0f20c7adf612882df0950f5a951637e0307cdcb4c672f298b8bc6606082015246938101939093523060a08085019190915282518085038201815260c090940190925282519201919091209052610143565b5f60208284031215610126575f80fd5b81516001600160a01b038116811461013c575f80fd5b9392505050565b60805160a0516113ec6101875f395f818161014b01526109f901525f81816101a60152818161020f01528181610317015281816106de015261087901526113ec5ff3fe6080604052600436106100a8575f3560e01c80638da5cb5b116100625780638da5cb5b146101fe578063a04a090814610231578063aff2d5ee14610251578063bc197c8114610264578063f23a6e61146102ab578063fa2c322d146102d7575f80fd5b806301ffc9a7146100b35780632d0335ab146100f85780633644e5151461013a5780637ecebe001461016d578063893d20e8146101985780638a89b44b146101de575f80fd5b366100af57005b5f80fd5b3480156100be575f80fd5b506100e36100cd366004610e79565b6001600160e01b031916630271189760e51b1490565b60405190151581526020015b60405180910390f35b348015610103575f80fd5b5061012c610112366004610ec2565b6001600160a01b03165f9081526020819052604090205490565b6040519081526020016100ef565b348015610145575f80fd5b5061012c7f000000000000000000000000000000000000000000000000000000000000000081565b348015610178575f80fd5b5061012c610187366004610ec2565b5f6020819052908152604090205481565b3480156101a3575f80fd5b507f00000000000000000000000000000000000000000000000000000000000000005b6040516001600160a01b0390911681526020016100ef565b6101f16101ec366004610f23565b61030a565b6040516100ef9190610fa5565b348015610209575f80fd5b506101c67f000000000000000000000000000000000000000000000000000000000000000081565b61024461023f366004611045565b6106d1565b6040516100ef919061109b565b61024461025f3660046110ad565b610875565b34801561026f575f80fd5b5061029261027e366004611140565b63bc197c8160e01b98975050505050505050565b6040516001600160e01b031990911681526020016100ef565b3480156102b6575f80fd5b506102926102c53660046111f3565b63f23a6e6160e01b9695505050505050565b3480156102e2575f80fd5b5061012c7f50951fe990efbd6182c4475e502cea0fd67be6229aa8ce079a484588a8902cc481565b6060336001600160a01b037f000000000000000000000000000000000000000000000000000000000000000016146103765760405162461bcd60e51b815260206004820152600a60248201526927b7363c9037bbb732b960b11b60448201526064015b60405180910390fd5b5f8267ffffffffffffffff81111561039057610390611266565b6040519080825280602002602001820160405280156103c357816020015b60608152602001906001900390816103ae5790505b5090505f5b838110156106c9575f808686848181106103e4576103e461127a565b90506020028101906103f6919061128e565b610404906020810190610ec2565b6001600160a01b031687878581811061041f5761041f61127a565b9050602002810190610431919061128e565b604001358888868181106104475761044761127a565b9050602002810190610459919061128e565b6104679060208101906112ac565b6040516104759291906112ef565b5f6040518083038185875af1925050503d805f81146104af576040519150601f19603f3d011682016040523d82523d5f602084013e6104b4565b606091505b509150915081156105b1578686848181106104d1576104d161127a565b90506020028101906104e3919061128e565b6104f1906020810190610ec2565b6001600160a01b03167ff4800c13ce03d6b46be439e64c27067ebb2921fda2eff0daa77e8e3bae518a3088888681811061052d5761052d61127a565b905060200281019061053f919061128e565b604001358989878181106105555761055561127a565b9050602002810190610567919061128e565b6105759060208101906112ac565b856040516105869493929190611326565b60405180910390a2808484815181106105a1576105a161127a565b60200260200101819052506106bf565b8686848181106105c3576105c361127a565b90506020028101906105d5919061128e565b6105e3906020810190610ec2565b6001600160a01b03167f8d1ecf04e6462600e647fec505da5fb931c5d7e2c8171df5f6629beab50ec07f88888681811061061f5761061f61127a565b9050602002810190610631919061128e565b604001358989878181106106475761064761127a565b9050602002810190610659919061128e565b6106679060208101906112ac565b6040516106769392919061135c565b60405180910390a260405162461bcd60e51b815260206004820152601660248201527510985d18da08195e1958dd5d1a5bdb8819985a5b195960521b604482015260640161036d565b50506001016103c8565b509392505050565b6060336001600160a01b037f000000000000000000000000000000000000000000000000000000000000000016146107385760405162461bcd60e51b815260206004820152600a60248201526927b7363c9037bbb732b960b11b604482015260640161036d565b5f80866001600160a01b03168487876040516107559291906112ef565b5f6040518083038185875af1925050503d805f811461078f576040519150601f19603f3d011682016040523d82523d5f602084013e610794565b606091505b509150915081156107eb57866001600160a01b03167ff4800c13ce03d6b46be439e64c27067ebb2921fda2eff0daa77e8e3bae518a30858888856040516107de9493929190611326565b60405180910390a261086b565b866001600160a01b03167f8d1ecf04e6462600e647fec505da5fb931c5d7e2c8171df5f6629beab50ec07f8588886040516108289392919061135c565b60405180910390a260405162461bcd60e51b815260206004820152601060248201526f115e1958dd5d1a5bdb8819985a5b195960821b604482015260640161036d565b9695505050505050565b60607f00000000000000000000000000000000000000000000000000000000000000006001600160a01b0316886001600160a01b0316146108ed5760405162461bcd60e51b81526020600482015260126024820152712ab9b2b91036bab9ba1031329037bbb732b960711b604482015260640161036d565b814211156109315760405162461bcd60e51b815260206004820152601160248201527014da59db985d1d5c9948195e1c1a5c9959607a1b604482015260640161036d565b6001600160a01b0388165f9081526020819052604081208054918291906109578361137e565b91905055505f7f50951fe990efbd6182c4475e502cea0fd67be6229aa8ce079a484588a8902cc48a8a8a8a6040516109909291906112ef565b6040805191829003822060208301959095526001600160a01b039384169082015291166060820152608081019190915260a0810183905260c0810185905260e00160408051601f1981840301815290829052805160209182012061190160f01b918301919091527f000000000000000000000000000000000000000000000000000000000000000060228301526042820181905291505f906062016040516020818303038152906040528051906020012090505f610a8588888080601f0160208091040260200160405190810160405280939291908181526020018383808284375f920191909152508693925050610c849050565b90508b6001600160a01b0316816001600160a01b031614610adc5760405162461bcd60e51b8152602060048201526011602482015270496e76616c6964207369676e617475726560781b604482015260640161036d565b5f808c6001600160a01b0316348d8d604051610af99291906112ef565b5f6040518083038185875af1925050503d805f8114610b33576040519150601f19603f3d011682016040523d82523d5f602084013e610b38565b606091505b50915091508115610bdc578c6001600160a01b03167ff4800c13ce03d6b46be439e64c27067ebb2921fda2eff0daa77e8e3bae518a30348e8e85604051610b829493929190611326565b60405180910390a28c6001600160a01b03168e6001600160a01b03167f03a8e3abe17734f998ec7aacc8db66f8ab07e8096a306018130db6d465f0da7488604051610bcf91815260200190565b60405180910390a3610c73565b8c6001600160a01b03167f8d1ecf04e6462600e647fec505da5fb931c5d7e2c8171df5f6629beab50ec07f348e8e604051610c199392919061135c565b60405180910390a260405162461bcd60e51b815260206004820152602160248201527f4d6574612d7472616e73616374696f6e20657865637574696f6e206661696c656044820152601960fa1b606482015260840161036d565b9d9c50505050505050505050505050565b5f805f80610c928686610cac565b925092509250610ca28282610cf5565b5090949350505050565b5f805f8351604103610ce3576020840151604085015160608601515f1a610cd588828585610db1565b955095509550505050610cee565b505081515f91506002905b9250925092565b5f826003811115610d0857610d086113a2565b03610d11575050565b6001826003811115610d2557610d256113a2565b03610d435760405163f645eedf60e01b815260040160405180910390fd5b6002826003811115610d5757610d576113a2565b03610d785760405163fce698f760e01b81526004810182905260240161036d565b6003826003811115610d8c57610d8c6113a2565b03610dad576040516335e2f38360e21b81526004810182905260240161036d565b5050565b5f80807f7fffffffffffffffffffffffffffffff5d576e7357a4501ddfe92f46681b20a0841115610dea57505f91506003905082610e6f565b604080515f808252602082018084528a905260ff891692820192909252606081018790526080810186905260019060a0016020604051602081039080840390855afa158015610e3b573d5f803e3d5ffd5b5050604051601f1901519150506001600160a01b038116610e6657505f925060019150829050610e6f565b92505f91508190505b9450945094915050565b5f60208284031215610e89575f80fd5b81356001600160e01b031981168114610ea0575f80fd5b9392505050565b80356001600160a01b0381168114610ebd575f80fd5b919050565b5f60208284031215610ed2575f80fd5b610ea082610ea7565b5f8083601f840112610eeb575f80fd5b50813567ffffffffffffffff811115610f02575f80fd5b6020830191508360208260051b8501011115610f1c575f80fd5b9250929050565b5f8060208385031215610f34575f80fd5b823567ffffffffffffffff811115610f4a575f80fd5b610f5685828601610edb565b90969095509350505050565b5f81518084525f5b81811015610f8657602081850181015186830182015201610f6a565b505f602082860101526020601f19601f83011685010191505092915050565b5f60208083016020845280855180835260408601915060408160051b8701019250602087015f5b82811015610ffa57603f19888603018452610fe8858351610f62565b94509285019290850190600101610fcc565b5092979650505050505050565b5f8083601f840112611017575f80fd5b50813567ffffffffffffffff81111561102e575f80fd5b602083019150836020828501011115610f1c575f80fd5b5f805f8060608587031215611058575f80fd5b61106185610ea7565b9350602085013567ffffffffffffffff81111561107c575f80fd5b61108887828801611007565b9598909750949560400135949350505050565b602081525f610ea06020830184610f62565b5f805f805f805f60a0888a0312156110c3575f80fd5b6110cc88610ea7565b96506110da60208901610ea7565b9550604088013567ffffffffffffffff808211156110f6575f80fd5b6111028b838c01611007565b909750955060608a013591508082111561111a575f80fd5b506111278a828b01611007565b989b979a50959894979596608090950135949350505050565b5f805f805f805f8060a0898b031215611157575f80fd5b61116089610ea7565b975061116e60208a01610ea7565b9650604089013567ffffffffffffffff8082111561118a575f80fd5b6111968c838d01610edb565b909850965060608b01359150808211156111ae575f80fd5b6111ba8c838d01610edb565b909650945060808b01359150808211156111d2575f80fd5b506111df8b828c01611007565b999c989b5096995094979396929594505050565b5f805f805f8060a08789031215611208575f80fd5b61121187610ea7565b955061121f60208801610ea7565b94506040870135935060608701359250608087013567ffffffffffffffff811115611248575f80fd5b61125489828a01611007565b979a9699509497509295939492505050565b634e487b7160e01b5f52604160045260245ffd5b634e487b7160e01b5f52603260045260245ffd5b5f8235605e198336030181126112a2575f80fd5b9190910192915050565b5f808335601e198436030181126112c1575f80fd5b83018035915067ffffffffffffffff8211156112db575f80fd5b602001915036819003821315610f1c575f80fd5b818382375f9101908152919050565b81835281816020850137505f828201602090810191909152601f909101601f19169091010190565b848152606060208201525f61133f6060830185876112fe565b82810360408401526113518185610f62565b979650505050505050565b838152604060208201525f6113756040830184866112fe565b95945050505050565b5f6001820161139b57634e487b7160e01b5f52601160045260245ffd5b5060010190565b634e487b7160e01b5f52602160045260245ffdfea26469706673582212203035ae570acd6641275f08fb82cc11882c32260abbd8025b57158986a534e41664736f6c63430008180033","opcodes":"PUSH1 0xC0 PUSH1 0x40 MSTORE CALLVALUE DUP1 ISZERO PUSH2 0xF JUMPI PUSH0 DUP1 REVERT JUMPDEST POP PUSH1 0x40 MLOAD PUSH2 0x1573 CODESIZE SUB DUP1 PUSH2 0x1573 DUP4 CODECOPY DUP2 ADD PUSH1 0x40 DUP2 SWAP1 MSTORE PUSH2 0x2E SWAP2 PUSH2 0x116 JUMP JUMPDEST PUSH1 0x1 PUSH1 0x1 PUSH1 0xA0 SHL SUB AND PUSH1 0x80 SWAP1 DUP2 MSTORE PUSH1 0x40 DUP1 MLOAD DUP1 DUP3 ADD DUP3 MSTORE PUSH1 0xB DUP2 MSTORE PUSH11 0x141C9BDE1E55D85B1B195D PUSH1 0xAA SHL PUSH1 0x20 SWAP2 DUP3 ADD MSTORE DUP2 MLOAD DUP1 DUP4 ADD DUP4 MSTORE PUSH1 0x1 DUP2 MSTORE PUSH1 0x31 PUSH1 0xF8 SHL SWAP1 DUP3 ADD MSTORE DUP2 MLOAD PUSH32 0x8B73C3C69BB8FE3D512ECC4CF759CC79239F7B179B0FFACAA9A75D522B39400F DUP2 DUP4 ADD MSTORE PUSH32 0xCB8126777EF39AB398DD5455966426F9D0BCDE9E865787DBE9B7C2E5D2B0DEBA DUP2 DUP5 ADD MSTORE PUSH32 0xC89EFDAA54C0F20C7ADF612882DF0950F5A951637E0307CDCB4C672F298B8BC6 PUSH1 0x60 DUP3 ADD MSTORE CHAINID SWAP4 DUP2 ADD SWAP4 SWAP1 SWAP4 MSTORE ADDRESS PUSH1 0xA0 DUP1 DUP6 ADD SWAP2 SWAP1 SWAP2 MSTORE DUP3 MLOAD DUP1 DUP6 SUB DUP3 ADD DUP2 MSTORE PUSH1 0xC0 SWAP1 SWAP5 ADD SWAP1 SWAP3 MSTORE DUP3 MLOAD SWAP3 ADD SWAP2 SWAP1 SWAP2 KECCAK256 SWAP1 MSTORE PUSH2 0x143 JUMP JUMPDEST PUSH0 PUSH1 0x20 DUP3 DUP5 SUB SLT ISZERO PUSH2 0x126 JUMPI PUSH0 DUP1 REVERT JUMPDEST DUP2 MLOAD PUSH1 0x1 PUSH1 0x1 PUSH1 0xA0 SHL SUB DUP2 AND DUP2 EQ PUSH2 0x13C JUMPI PUSH0 DUP1 REVERT JUMPDEST SWAP4 SWAP3 POP POP POP JUMP JUMPDEST PUSH1 0x80 MLOAD PUSH1 0xA0 MLOAD PUSH2 0x13EC PUSH2 0x187 PUSH0 CODECOPY PUSH0 DUP2 DUP2 PUSH2 0x14B ADD MSTORE PUSH2 0x9F9 ADD MSTORE PUSH0 DUP2 DUP2 PUSH2 0x1A6 ADD MSTORE DUP2 DUP2 PUSH2 0x20F ADD MSTORE DUP2 DUP2 PUSH2 0x317 ADD MSTORE DUP2 DUP2 PUSH2 0x6DE ADD MSTORE PUSH2 0x879 ADD MSTORE PUSH2 0x13EC PUSH0 RETURN INVALID PUSH1 0x80 PUSH1 0x40 MSTORE PUSH1 0x4 CALLDATASIZE LT PUSH2 0xA8 JUMPI PUSH0 CALLDATALOAD PUSH1 0xE0 SHR DUP1 PUSH4 0x8DA5CB5B GT PUSH2 0x62 JUMPI DUP1 PUSH4 0x8DA5CB5B EQ PUSH2 0x1FE JUMPI DUP1 PUSH4 0xA04A0908 EQ PUSH2 0x231 JUMPI DUP1 PUSH4 0xAFF2D5EE EQ PUSH2 0x251 JUMPI DUP1 PUSH4 0xBC197C81 EQ PUSH2 0x264 JUMPI DUP1 PUSH4 0xF23A6E61 EQ PUSH2 0x2AB JUMPI DUP1 PUSH4 0xFA2C322D EQ PUSH2 0x2D7 JUMPI PUSH0 DUP1 REVERT JUMPDEST DUP1 PUSH4 0x1FFC9A7 EQ PUSH2 0xB3 JUMPI DUP1 PUSH4 0x2D0335AB EQ PUSH2 0xF8 JUMPI DUP1 PUSH4 0x3644E515 EQ PUSH2 0x13A JUMPI DUP1 PUSH4 0x7ECEBE00 EQ PUSH2 0x16D JUMPI DUP1 PUSH4 0x893D20E8 EQ PUSH2 0x198 JUMPI DUP1 PUSH4 0x8A89B44B EQ PUSH2 0x1DE JUMPI PUSH0 DUP1 REVERT JUMPDEST CALLDATASIZE PUSH2 0xAF JUMPI STOP JUMPDEST PUSH0 DUP1 REVERT JUMPDEST CALLVALUE DUP1 ISZERO PUSH2 0xBE JUMPI PUSH0 DUP1 REVERT JUMPDEST POP PUSH2 0xE3 PUSH2 0xCD CALLDATASIZE PUSH1 0x4 PUSH2 0xE79 JUMP JUMPDEST PUSH1 0x1 PUSH1 0x1 PUSH1 0xE0 SHL SUB NOT AND PUSH4 0x2711897 PUSH1 0xE5 SHL EQ SWAP1 JUMP JUMPDEST PUSH1 0x40 MLOAD SWAP1 ISZERO ISZERO DUP2 MSTORE PUSH1 0x20 ADD JUMPDEST PUSH1 0x40 MLOAD DUP1 SWAP2 SUB SWAP1 RETURN JUMPDEST CALLVALUE DUP1 ISZERO PUSH2 0x103 JUMPI PUSH0 DUP1 REVERT JUMPDEST POP PUSH2 0x12C PUSH2 0x112 CALLDATASIZE PUSH1 0x4 PUSH2 0xEC2 JUMP JUMPDEST PUSH1 0x1 PUSH1 0x1 PUSH1 0xA0 SHL SUB AND PUSH0 SWAP1 DUP2 MSTORE PUSH1 0x20 DUP2 SWAP1 MSTORE PUSH1 0x40 SWAP1 KECCAK256 SLOAD SWAP1 JUMP JUMPDEST PUSH1 0x40 MLOAD SWAP1 DUP2 MSTORE PUSH1 0x20 ADD PUSH2 0xEF JUMP JUMPDEST CALLVALUE DUP1 ISZERO PUSH2 0x145 JUMPI PUSH0 DUP1 REVERT JUMPDEST POP PUSH2 0x12C PUSH32 0x0 DUP2 JUMP JUMPDEST CALLVALUE DUP1 ISZERO PUSH2 0x178 JUMPI PUSH0 DUP1 REVERT JUMPDEST POP PUSH2 0x12C PUSH2 0x187 CALLDATASIZE PUSH1 0x4 PUSH2 0xEC2 JUMP JUMPDEST PUSH0 PUSH1 0x20 DUP2 SWAP1 MSTORE SWAP1 DUP2 MSTORE PUSH1 0x40 SWAP1 KECCAK256 SLOAD DUP2 JUMP JUMPDEST CALLVALUE DUP1 ISZERO PUSH2 0x1A3 JUMPI PUSH0 DUP1 REVERT JUMPDEST POP PUSH32 0x0 JUMPDEST PUSH1 0x40 MLOAD PUSH1 0x1 PUSH1 0x1 PUSH1 0xA0 SHL SUB SWAP1 SWAP2 AND DUP2 MSTORE PUSH1 0x20 ADD PUSH2 0xEF JUMP JUMPDEST PUSH2 0x1F1 PUSH2 0x1EC CALLDATASIZE PUSH1 0x4 PUSH2 0xF23 JUMP JUMPDEST PUSH2 0x30A JUMP JUMPDEST PUSH1 0x40 MLOAD PUSH2 0xEF SWAP2 SWAP1 PUSH2 0xFA5 JUMP JUMPDEST CALLVALUE DUP1 ISZERO PUSH2 0x209 JUMPI PUSH0 DUP1 REVERT JUMPDEST POP PUSH2 0x1C6 PUSH32 0x0 DUP2 JUMP JUMPDEST PUSH2 0x244 PUSH2 0x23F CALLDATASIZE PUSH1 0x4 PUSH2 0x1045 JUMP JUMPDEST PUSH2 0x6D1 JUMP JUMPDEST PUSH1 0x40 MLOAD PUSH2 0xEF SWAP2 SWAP1 PUSH2 0x109B JUMP JUMPDEST PUSH2 0x244 PUSH2 0x25F CALLDATASIZE PUSH1 0x4 PUSH2 0x10AD JUMP JUMPDEST PUSH2 0x875 JUMP JUMPDEST CALLVALUE DUP1 ISZERO PUSH2 0x26F JUMPI PUSH0 DUP1 REVERT JUMPDEST POP PUSH2 0x292 PUSH2 0x27E CALLDATASIZE PUSH1 0x4 PUSH2 0x1140 JUMP JUMPDEST PUSH4 0xBC197C81 PUSH1 0xE0 SHL SWAP9 SWAP8 POP POP POP POP POP POP POP POP JUMP JUMPDEST PUSH1 0x40 MLOAD PUSH1 0x1 PUSH1 0x1 PUSH1 0xE0 SHL SUB NOT SWAP1 SWAP2 AND DUP2 MSTORE PUSH1 0x20 ADD PUSH2 0xEF JUMP JUMPDEST CALLVALUE DUP1 ISZERO PUSH2 0x2B6 JUMPI PUSH0 DUP1 REVERT JUMPDEST POP PUSH2 0x292 PUSH2 0x2C5 CALLDATASIZE PUSH1 0x4 PUSH2 0x11F3 JUMP JUMPDEST PUSH4 0xF23A6E61 PUSH1 0xE0 SHL SWAP7 SWAP6 POP POP POP POP POP POP JUMP JUMPDEST CALLVALUE DUP1 ISZERO PUSH2 0x2E2 JUMPI PUSH0 DUP1 REVERT JUMPDEST POP PUSH2 0x12C PUSH32 0x50951FE990EFBD6182C4475E502CEA0FD67BE6229AA8CE079A484588A8902CC4 DUP2 JUMP JUMPDEST PUSH1 0x60 CALLER PUSH1 0x1 PUSH1 0x1 PUSH1 0xA0 SHL SUB PUSH32 0x0 AND EQ PUSH2 0x376 JUMPI PUSH1 0x40 MLOAD PUSH3 0x461BCD PUSH1 0xE5 SHL DUP2 MSTORE PUSH1 0x20 PUSH1 0x4 DUP3 ADD MSTORE PUSH1 0xA PUSH1 0x24 DUP3 ADD MSTORE PUSH10 0x27B7363C9037BBB732B9 PUSH1 0xB1 SHL PUSH1 0x44 DUP3 ADD MSTORE PUSH1 0x64 ADD JUMPDEST PUSH1 0x40 MLOAD DUP1 SWAP2 SUB SWAP1 REVERT JUMPDEST PUSH0 DUP3 PUSH8 0xFFFFFFFFFFFFFFFF DUP2 GT ISZERO PUSH2 0x390 JUMPI PUSH2 0x390 PUSH2 0x1266 JUMP JUMPDEST PUSH1 0x40 MLOAD SWAP1 DUP1 DUP3 MSTORE DUP1 PUSH1 0x20 MUL PUSH1 0x20 ADD DUP3 ADD PUSH1 0x40 MSTORE DUP1 ISZERO PUSH2 0x3C3 JUMPI DUP2 PUSH1 0x20 ADD JUMPDEST PUSH1 0x60 DUP2 MSTORE PUSH1 0x20 ADD SWAP1 PUSH1 0x1 SWAP1 SUB SWAP1 DUP2 PUSH2 0x3AE JUMPI SWAP1 POP JUMPDEST POP SWAP1 POP PUSH0 JUMPDEST DUP4 DUP2 LT ISZERO PUSH2 0x6C9 JUMPI PUSH0 DUP1 DUP7 DUP7 DUP5 DUP2 DUP2 LT PUSH2 0x3E4 JUMPI PUSH2 0x3E4 PUSH2 0x127A JUMP JUMPDEST SWAP1 POP PUSH1 0x20 MUL DUP2 ADD SWAP1 PUSH2 0x3F6 SWAP2 SWAP1 PUSH2 0x128E JUMP JUMPDEST PUSH2 0x404 SWAP1 PUSH1 0x20 DUP2 ADD SWAP1 PUSH2 0xEC2 JUMP JUMPDEST PUSH1 0x1 PUSH1 0x1 PUSH1 0xA0 SHL SUB AND DUP8 DUP8 DUP6 DUP2 DUP2 LT PUSH2 0x41F JUMPI PUSH2 0x41F PUSH2 0x127A JUMP JUMPDEST SWAP1 POP PUSH1 0x20 MUL DUP2 ADD SWAP1 PUSH2 0x431 SWAP2 SWAP1 PUSH2 0x128E JUMP JUMPDEST PUSH1 0x40 ADD CALLDATALOAD DUP9 DUP9 DUP7 DUP2 DUP2 LT PUSH2 0x447 JUMPI PUSH2 0x447 PUSH2 0x127A JUMP JUMPDEST SWAP1 POP PUSH1 0x20 MUL DUP2 ADD SWAP1 PUSH2 0x459 SWAP2 SWAP1 PUSH2 0x128E JUMP JUMPDEST PUSH2 0x467 SWAP1 PUSH1 0x20 DUP2 ADD SWAP1 PUSH2 0x12AC JUMP JUMPDEST PUSH1 0x40 MLOAD PUSH2 0x475 SWAP3 SWAP2 SWAP1 PUSH2 0x12EF JUMP JUMPDEST PUSH0 PUSH1 0x40 MLOAD DUP1 DUP4 SUB DUP2 DUP6 DUP8 GAS CALL SWAP3 POP POP POP RETURNDATASIZE DUP1 PUSH0 DUP2 EQ PUSH2 0x4AF JUMPI PUSH1 0x40 MLOAD SWAP2 POP PUSH1 0x1F NOT PUSH1 0x3F RETURNDATASIZE ADD AND DUP3 ADD PUSH1 0x40 MSTORE RETURNDATASIZE DUP3 MSTORE RETURNDATASIZE PUSH0 PUSH1 0x20 DUP5 ADD RETURNDATACOPY PUSH2 0x4B4 JUMP JUMPDEST PUSH1 0x60 SWAP2 POP JUMPDEST POP SWAP2 POP SWAP2 POP DUP2 ISZERO PUSH2 0x5B1 JUMPI DUP7 DUP7 DUP5 DUP2 DUP2 LT PUSH2 0x4D1 JUMPI PUSH2 0x4D1 PUSH2 0x127A JUMP JUMPDEST SWAP1 POP PUSH1 0x20 MUL DUP2 ADD SWAP1 PUSH2 0x4E3 SWAP2 SWAP1 PUSH2 0x128E JUMP JUMPDEST PUSH2 0x4F1 SWAP1 PUSH1 0x20 DUP2 ADD SWAP1 PUSH2 0xEC2 JUMP JUMPDEST PUSH1 0x1 PUSH1 0x1 PUSH1 0xA0 SHL SUB AND PUSH32 0xF4800C13CE03D6B46BE439E64C27067EBB2921FDA2EFF0DAA77E8E3BAE518A30 DUP9 DUP9 DUP7 DUP2 DUP2 LT PUSH2 0x52D JUMPI PUSH2 0x52D PUSH2 0x127A JUMP JUMPDEST SWAP1 POP PUSH1 0x20 MUL DUP2 ADD SWAP1 PUSH2 0x53F SWAP2 SWAP1 PUSH2 0x128E JUMP JUMPDEST PUSH1 0x40 ADD CALLDATALOAD DUP10 DUP10 DUP8 DUP2 DUP2 LT PUSH2 0x555 JUMPI PUSH2 0x555 PUSH2 0x127A JUMP JUMPDEST SWAP1 POP PUSH1 0x20 MUL DUP2 ADD SWAP1 PUSH2 0x567 SWAP2 SWAP1 PUSH2 0x128E JUMP JUMPDEST PUSH2 0x575 SWAP1 PUSH1 0x20 DUP2 ADD SWAP1 PUSH2 0x12AC JUMP JUMPDEST DUP6 PUSH1 0x40 MLOAD PUSH2 0x586 SWAP5 SWAP4 SWAP3 SWAP2 SWAP1 PUSH2 0x1326 JUMP JUMPDEST PUSH1 0x40 MLOAD DUP1 SWAP2 SUB SWAP1 LOG2 DUP1 DUP5 DUP5 DUP2 MLOAD DUP2 LT PUSH2 0x5A1 JUMPI PUSH2 0x5A1 PUSH2 0x127A JUMP JUMPDEST PUSH1 0x20 MUL PUSH1 0x20 ADD ADD DUP2 SWAP1 MSTORE POP PUSH2 0x6BF JUMP JUMPDEST DUP7 DUP7 DUP5 DUP2 DUP2 LT PUSH2 0x5C3 JUMPI PUSH2 0x5C3 PUSH2 0x127A JUMP JUMPDEST SWAP1 POP PUSH1 0x20 MUL DUP2 ADD SWAP1 PUSH2 0x5D5 SWAP2 SWAP1 PUSH2 0x128E JUMP JUMPDEST PUSH2 0x5E3 SWAP1 PUSH1 0x20 DUP2 ADD SWAP1 PUSH2 0xEC2 JUMP JUMPDEST PUSH1 0x1 PUSH1 0x1 PUSH1 0xA0 SHL SUB AND PUSH32 0x8D1ECF04E6462600E647FEC505DA5FB931C5D7E2C8171DF5F6629BEAB50EC07F DUP9 DUP9 DUP7 DUP2 DUP2 LT PUSH2 0x61F JUMPI PUSH2 0x61F PUSH2 0x127A JUMP JUMPDEST SWAP1 POP PUSH1 0x20 MUL DUP2 ADD SWAP1 PUSH2 0x631 SWAP2 SWAP1 PUSH2 0x128E JUMP JUMPDEST PUSH1 0x40 ADD CALLDATALOAD DUP10 DUP10 DUP8 DUP2 DUP2 LT PUSH2 0x647 JUMPI PUSH2 0x647 PUSH2 0x127A JUMP JUMPDEST SWAP1 POP PUSH1 0x20 MUL DUP2 ADD SWAP1 PUSH2 0x659 SWAP2 SWAP1 PUSH2 0x128E JUMP JUMPDEST PUSH2 0x667 SWAP1 PUSH1 0x20 DUP2 ADD SWAP1 PUSH2 0x12AC JUMP JUMPDEST PUSH1 0x40 MLOAD PUSH2 0x676 SWAP4 SWAP3 SWAP2 SWAP1 PUSH2 0x135C JUMP JUMPDEST PUSH1 0x40 MLOAD DUP1 SWAP2 SUB SWAP1 LOG2 PUSH1 0x40 MLOAD PUSH3 0x461BCD PUSH1 0xE5 SHL DUP2 MSTORE PUSH1 0x20 PUSH1 0x4 DUP3 ADD MSTORE PUSH1 0x16 PUSH1 0x24 DUP3 ADD MSTORE PUSH22 0x10985D18DA08195E1958DD5D1A5BDB8819985A5B1959 PUSH1 0x52 SHL PUSH1 0x44 DUP3 ADD MSTORE PUSH1 0x64 ADD PUSH2 0x36D JUMP JUMPDEST POP POP PUSH1 0x1 ADD PUSH2 0x3C8 JUMP JUMPDEST POP SWAP4 SWAP3 POP POP POP JUMP JUMPDEST PUSH1 0x60 CALLER PUSH1 0x1 PUSH1 0x1 PUSH1 0xA0 SHL SUB PUSH32 0x0 AND EQ PUSH2 0x738 JUMPI PUSH1 0x40 MLOAD PUSH3 0x461BCD PUSH1 0xE5 SHL DUP2 MSTORE PUSH1 0x20 PUSH1 0x4 DUP3 ADD MSTORE PUSH1 0xA PUSH1 0x24 DUP3 ADD MSTORE PUSH10 0x27B7363C9037BBB732B9 PUSH1 0xB1 SHL PUSH1 0x44 DUP3 ADD MSTORE PUSH1 0x64 ADD PUSH2 0x36D JUMP JUMPDEST PUSH0 DUP1 DUP7 PUSH1 0x1 PUSH1 0x1 PUSH1 0xA0 SHL SUB AND DUP5 DUP8 DUP8 PUSH1 0x40 MLOAD PUSH2 0x755 SWAP3 SWAP2 SWAP1 PUSH2 0x12EF JUMP JUMPDEST PUSH0 PUSH1 0x40 MLOAD DUP1 DUP4 SUB DUP2 DUP6 DUP8 GAS CALL SWAP3 POP POP POP RETURNDATASIZE DUP1 PUSH0 DUP2 EQ PUSH2 0x78F JUMPI PUSH1 0x40 MLOAD SWAP2 POP PUSH1 0x1F NOT PUSH1 0x3F RETURNDATASIZE ADD AND DUP3 ADD PUSH1 0x40 MSTORE RETURNDATASIZE DUP3 MSTORE RETURNDATASIZE PUSH0 PUSH1 0x20 DUP5 ADD RETURNDATACOPY PUSH2 0x794 JUMP JUMPDEST PUSH1 0x60 SWAP2 POP JUMPDEST POP SWAP2 POP SWAP2 POP DUP2 ISZERO PUSH2 0x7EB JUMPI DUP7 PUSH1 0x1 PUSH1 0x1 PUSH1 0xA0 SHL SUB AND PUSH32 0xF4800C13CE03D6B46BE439E64C27067EBB2921FDA2EFF0DAA77E8E3BAE518A30 DUP6 DUP9 DUP9 DUP6 PUSH1 0x40 MLOAD PUSH2 0x7DE SWAP5 SWAP4 SWAP3 SWAP2 SWAP1 PUSH2 0x1326 JUMP JUMPDEST PUSH1 0x40 MLOAD DUP1 SWAP2 SUB SWAP1 LOG2 PUSH2 0x86B JUMP JUMPDEST DUP7 PUSH1 0x1 PUSH1 0x1 PUSH1 0xA0 SHL SUB AND PUSH32 0x8D1ECF04E6462600E647FEC505DA5FB931C5D7E2C8171DF5F6629BEAB50EC07F DUP6 DUP9 DUP9 PUSH1 0x40 MLOAD PUSH2 0x828 SWAP4 SWAP3 SWAP2 SWAP1 PUSH2 0x135C JUMP JUMPDEST PUSH1 0x40 MLOAD DUP1 SWAP2 SUB SWAP1 LOG2 PUSH1 0x40 MLOAD PUSH3 0x461BCD PUSH1 0xE5 SHL DUP2 MSTORE PUSH1 0x20 PUSH1 0x4 DUP3 ADD MSTORE PUSH1 0x10 PUSH1 0x24 DUP3 ADD MSTORE PUSH16 0x115E1958DD5D1A5BDB8819985A5B1959 PUSH1 0x82 SHL PUSH1 0x44 DUP3 ADD MSTORE PUSH1 0x64 ADD PUSH2 0x36D JUMP JUMPDEST SWAP7 SWAP6 POP POP POP POP POP POP JUMP JUMPDEST PUSH1 0x60 PUSH32 0x0 PUSH1 0x1 PUSH1 0x1 PUSH1 0xA0 SHL SUB AND DUP9 PUSH1 0x1 PUSH1 0x1 PUSH1 0xA0 SHL SUB AND EQ PUSH2 0x8ED JUMPI PUSH1 0x40 MLOAD PUSH3 0x461BCD PUSH1 0xE5 SHL DUP2 MSTORE PUSH1 0x20 PUSH1 0x4 DUP3 ADD MSTORE PUSH1 0x12 PUSH1 0x24 DUP3 ADD MSTORE PUSH18 0x2AB9B2B91036BAB9BA1031329037BBB732B9 PUSH1 0x71 SHL PUSH1 0x44 DUP3 ADD MSTORE PUSH1 0x64 ADD PUSH2 0x36D JUMP JUMPDEST DUP2 TIMESTAMP GT ISZERO PUSH2 0x931 JUMPI PUSH1 0x40 MLOAD PUSH3 0x461BCD PUSH1 0xE5 SHL DUP2 MSTORE PUSH1 0x20 PUSH1 0x4 DUP3 ADD MSTORE PUSH1 0x11 PUSH1 0x24 DUP3 ADD MSTORE PUSH17 0x14DA59DB985D1D5C9948195E1C1A5C9959 PUSH1 0x7A SHL PUSH1 0x44 DUP3 ADD MSTORE PUSH1 0x64 ADD PUSH2 0x36D JUMP JUMPDEST PUSH1 0x1 PUSH1 0x1 PUSH1 0xA0 SHL SUB DUP9 AND PUSH0 SWAP1 DUP2 MSTORE PUSH1 0x20 DUP2 SWAP1 MSTORE PUSH1 0x40 DUP2 KECCAK256 DUP1 SLOAD SWAP2 DUP3 SWAP2 SWAP1 PUSH2 0x957 DUP4 PUSH2 0x137E JUMP JUMPDEST SWAP2 SWAP1 POP SSTORE POP PUSH0 PUSH32 0x50951FE990EFBD6182C4475E502CEA0FD67BE6229AA8CE079A484588A8902CC4 DUP11 DUP11 DUP11 DUP11 PUSH1 0x40 MLOAD PUSH2 0x990 SWAP3 SWAP2 SWAP1 PUSH2 0x12EF JUMP JUMPDEST PUSH1 0x40 DUP1 MLOAD SWAP2 DUP3 SWAP1 SUB DUP3 KECCAK256 PUSH1 0x20 DUP4 ADD SWAP6 SWAP1 SWAP6 MSTORE PUSH1 0x1 PUSH1 0x1 PUSH1 0xA0 SHL SUB SWAP4 DUP5 AND SWAP1 DUP3 ADD MSTORE SWAP2 AND PUSH1 0x60 DUP3 ADD MSTORE PUSH1 0x80 DUP2 ADD SWAP2 SWAP1 SWAP2 MSTORE PUSH1 0xA0 DUP2 ADD DUP4 SWAP1 MSTORE PUSH1 0xC0 DUP2 ADD DUP6 SWAP1 MSTORE PUSH1 0xE0 ADD PUSH1 0x40 DUP1 MLOAD PUSH1 0x1F NOT DUP2 DUP5 SUB ADD DUP2 MSTORE SWAP1 DUP3 SWAP1 MSTORE DUP1 MLOAD PUSH1 0x20 SWAP2 DUP3 ADD KECCAK256 PUSH2 0x1901 PUSH1 0xF0 SHL SWAP2 DUP4 ADD SWAP2 SWAP1 SWAP2 MSTORE PUSH32 0x0 PUSH1 0x22 DUP4 ADD MSTORE PUSH1 0x42 DUP3 ADD DUP2 SWAP1 MSTORE SWAP2 POP PUSH0 SWAP1 PUSH1 0x62 ADD PUSH1 0x40 MLOAD PUSH1 0x20 DUP2 DUP4 SUB SUB DUP2 MSTORE SWAP1 PUSH1 0x40 MSTORE DUP1 MLOAD SWAP1 PUSH1 0x20 ADD KECCAK256 SWAP1 POP PUSH0 PUSH2 0xA85 DUP9 DUP9 DUP1 DUP1 PUSH1 0x1F ADD PUSH1 0x20 DUP1 SWAP2 DIV MUL PUSH1 0x20 ADD PUSH1 0x40 MLOAD SWAP1 DUP2 ADD PUSH1 0x40 MSTORE DUP1 SWAP4 SWAP3 SWAP2 SWAP1 DUP2 DUP2 MSTORE PUSH1 0x20 ADD DUP4 DUP4 DUP1 DUP3 DUP5 CALLDATACOPY PUSH0 SWAP3 ADD SWAP2 SWAP1 SWAP2 MSTORE POP DUP7 SWAP4 SWAP3 POP POP PUSH2 0xC84 SWAP1 POP JUMP JUMPDEST SWAP1 POP DUP12 PUSH1 0x1 PUSH1 0x1 PUSH1 0xA0 SHL SUB AND DUP2 PUSH1 0x1 PUSH1 0x1 PUSH1 0xA0 SHL SUB AND EQ PUSH2 0xADC JUMPI PUSH1 0x40 MLOAD PUSH3 0x461BCD PUSH1 0xE5 SHL DUP2 MSTORE PUSH1 0x20 PUSH1 0x4 DUP3 ADD MSTORE PUSH1 0x11 PUSH1 0x24 DUP3 ADD MSTORE PUSH17 0x496E76616C6964207369676E6174757265 PUSH1 0x78 SHL PUSH1 0x44 DUP3 ADD MSTORE PUSH1 0x64 ADD PUSH2 0x36D JUMP JUMPDEST PUSH0 DUP1 DUP13 PUSH1 0x1 PUSH1 0x1 PUSH1 0xA0 SHL SUB AND CALLVALUE DUP14 DUP14 PUSH1 0x40 MLOAD PUSH2 0xAF9 SWAP3 SWAP2 SWAP1 PUSH2 0x12EF JUMP JUMPDEST PUSH0 PUSH1 0x40 MLOAD DUP1 DUP4 SUB DUP2 DUP6 DUP8 GAS CALL SWAP3 POP POP POP RETURNDATASIZE DUP1 PUSH0 DUP2 EQ PUSH2 0xB33 JUMPI PUSH1 0x40 MLOAD SWAP2 POP PUSH1 0x1F NOT PUSH1 0x3F RETURNDATASIZE ADD AND DUP3 ADD PUSH1 0x40 MSTORE RETURNDATASIZE DUP3 MSTORE RETURNDATASIZE PUSH0 PUSH1 0x20 DUP5 ADD RETURNDATACOPY PUSH2 0xB38 JUMP JUMPDEST PUSH1 0x60 SWAP2 POP JUMPDEST POP SWAP2 POP SWAP2 POP DUP2 ISZERO PUSH2 0xBDC JUMPI DUP13 PUSH1 0x1 PUSH1 0x1 PUSH1 0xA0 SHL SUB AND PUSH32 0xF4800C13CE03D6B46BE439E64C27067EBB2921FDA2EFF0DAA77E8E3BAE518A30 CALLVALUE DUP15 DUP15 DUP6 PUSH1 0x40 MLOAD PUSH2 0xB82 SWAP5 SWAP4 SWAP3 SWAP2 SWAP1 PUSH2 0x1326 JUMP JUMPDEST PUSH1 0x40 MLOAD DUP1 SWAP2 SUB SWAP1 LOG2 DUP13 PUSH1 0x1 PUSH1 0x1 PUSH1 0xA0 SHL SUB AND DUP15 PUSH1 0x1 PUSH1 0x1 PUSH1 0xA0 SHL SUB AND PUSH32 0x3A8E3ABE17734F998EC7AACC8DB66F8AB07E8096A306018130DB6D465F0DA74 DUP9 PUSH1 0x40 MLOAD PUSH2 0xBCF SWAP2 DUP2 MSTORE PUSH1 0x20 ADD SWAP1 JUMP JUMPDEST PUSH1 0x40 MLOAD DUP1 SWAP2 SUB SWAP1 LOG3 PUSH2 0xC73 JUMP JUMPDEST DUP13 PUSH1 0x1 PUSH1 0x1 PUSH1 0xA0 SHL SUB AND PUSH32 0x8D1ECF04E6462600E647FEC505DA5FB931C5D7E2C8171DF5F6629BEAB50EC07F CALLVALUE DUP15 DUP15 PUSH1 0x40 MLOAD PUSH2 0xC19 SWAP4 SWAP3 SWAP2 SWAP1 PUSH2 0x135C JUMP JUMPDEST PUSH1 0x40 MLOAD DUP1 SWAP2 SUB SWAP1 LOG2 PUSH1 0x40 MLOAD PUSH3 0x461BCD PUSH1 0xE5 SHL DUP2 MSTORE PUSH1 0x20 PUSH1 0x4 DUP3 ADD MSTORE PUSH1 0x21 PUSH1 0x24 DUP3 ADD MSTORE PUSH32 0x4D6574612D7472616E73616374696F6E20657865637574696F6E206661696C65 PUSH1 0x44 DUP3 ADD MSTORE PUSH1 0x19 PUSH1 0xFA SHL PUSH1 0x64 DUP3 ADD MSTORE PUSH1 0x84 ADD PUSH2 0x36D JUMP JUMPDEST SWAP14 SWAP13 POP POP POP POP POP POP POP POP POP POP POP POP POP JUMP JUMPDEST PUSH0 DUP1 PUSH0 DUP1 PUSH2 0xC92 DUP7 DUP7 PUSH2 0xCAC JUMP JUMPDEST SWAP3 POP SWAP3 POP SWAP3 POP PUSH2 0xCA2 DUP3 DUP3 PUSH2 0xCF5 JUMP JUMPDEST POP SWAP1 SWAP5 SWAP4 POP POP POP POP JUMP JUMPDEST PUSH0 DUP1 PUSH0 DUP4 MLOAD PUSH1 0x41 SUB PUSH2 0xCE3 JUMPI PUSH1 0x20 DUP5 ADD MLOAD PUSH1 0x40 DUP6 ADD MLOAD PUSH1 0x60 DUP7 ADD MLOAD PUSH0 BYTE PUSH2 0xCD5 DUP9 DUP3 DUP6 DUP6 PUSH2 0xDB1 JUMP JUMPDEST SWAP6 POP SWAP6 POP SWAP6 POP POP POP POP PUSH2 0xCEE JUMP JUMPDEST POP POP DUP2 MLOAD PUSH0 SWAP2 POP PUSH1 0x2 SWAP1 JUMPDEST SWAP3 POP SWAP3 POP SWAP3 JUMP JUMPDEST PUSH0 DUP3 PUSH1 0x3 DUP2 GT ISZERO PUSH2 0xD08 JUMPI PUSH2 0xD08 PUSH2 0x13A2 JUMP JUMPDEST SUB PUSH2 0xD11 JUMPI POP POP JUMP JUMPDEST PUSH1 0x1 DUP3 PUSH1 0x3 DUP2 GT ISZERO PUSH2 0xD25 JUMPI PUSH2 0xD25 PUSH2 0x13A2 JUMP JUMPDEST SUB PUSH2 0xD43 JUMPI PUSH1 0x40 MLOAD PUSH4 0xF645EEDF PUSH1 0xE0 SHL DUP2 MSTORE PUSH1 0x4 ADD PUSH1 0x40 MLOAD DUP1 SWAP2 SUB SWAP1 REVERT JUMPDEST PUSH1 0x2 DUP3 PUSH1 0x3 DUP2 GT ISZERO PUSH2 0xD57 JUMPI PUSH2 0xD57 PUSH2 0x13A2 JUMP JUMPDEST SUB PUSH2 0xD78 JUMPI PUSH1 0x40 MLOAD PUSH4 0xFCE698F7 PUSH1 0xE0 SHL DUP2 MSTORE PUSH1 0x4 DUP2 ADD DUP3 SWAP1 MSTORE PUSH1 0x24 ADD PUSH2 0x36D JUMP JUMPDEST PUSH1 0x3 DUP3 PUSH1 0x3 DUP2 GT ISZERO PUSH2 0xD8C JUMPI PUSH2 0xD8C PUSH2 0x13A2 JUMP JUMPDEST SUB PUSH2 0xDAD JUMPI PUSH1 0x40 MLOAD PUSH4 0x35E2F383 PUSH1 0xE2 SHL DUP2 MSTORE PUSH1 0x4 DUP2 ADD DUP3 SWAP1 MSTORE PUSH1 0x24 ADD PUSH2 0x36D JUMP JUMPDEST POP POP JUMP JUMPDEST PUSH0 DUP1 DUP1 PUSH32 0x7FFFFFFFFFFFFFFFFFFFFFFFFFFFFFFF5D576E7357A4501DDFE92F46681B20A0 DUP5 GT ISZERO PUSH2 0xDEA JUMPI POP PUSH0 SWAP2 POP PUSH1 0x3 SWAP1 POP DUP3 PUSH2 0xE6F JUMP JUMPDEST PUSH1 0x40 DUP1 MLOAD PUSH0 DUP1 DUP3 MSTORE PUSH1 0x20 DUP3 ADD DUP1 DUP5 MSTORE DUP11 SWAP1 MSTORE PUSH1 0xFF DUP10 AND SWAP3 DUP3 ADD SWAP3 SWAP1 SWAP3 MSTORE PUSH1 0x60 DUP2 ADD DUP8 SWAP1 MSTORE PUSH1 0x80 DUP2 ADD DUP7 SWAP1 MSTORE PUSH1 0x1 SWAP1 PUSH1 0xA0 ADD PUSH1 0x20 PUSH1 0x40 MLOAD PUSH1 0x20 DUP2 SUB SWAP1 DUP1 DUP5 SUB SWAP1 DUP6 GAS STATICCALL ISZERO DUP1 ISZERO PUSH2 0xE3B JUMPI RETURNDATASIZE PUSH0 DUP1 RETURNDATACOPY RETURNDATASIZE PUSH0 REVERT JUMPDEST POP POP PUSH1 0x40 MLOAD PUSH1 0x1F NOT ADD MLOAD SWAP2 POP POP PUSH1 0x1 PUSH1 0x1 PUSH1 0xA0 SHL SUB DUP2 AND PUSH2 0xE66 JUMPI POP PUSH0 SWAP3 POP PUSH1 0x1 SWAP2 POP DUP3 SWAP1 POP PUSH2 0xE6F JUMP JUMPDEST SWAP3 POP PUSH0 SWAP2 POP DUP2 SWAP1 POP JUMPDEST SWAP5 POP SWAP5 POP SWAP5 SWAP2 POP POP JUMP JUMPDEST PUSH0 PUSH1 0x20 DUP3 DUP5 SUB SLT ISZERO PUSH2 0xE89 JUMPI PUSH0 DUP1 REVERT JUMPDEST DUP2 CALLDATALOAD PUSH1 0x1 PUSH1 0x1 PUSH1 0xE0 SHL SUB NOT DUP2 AND DUP2 EQ PUSH2 0xEA0 JUMPI PUSH0 DUP1 REVERT JUMPDEST SWAP4 SWAP3 POP POP POP JUMP JUMPDEST DUP1 CALLDATALOAD PUSH1 0x1 PUSH1 0x1 PUSH1 0xA0 SHL SUB DUP2 AND DUP2 EQ PUSH2 0xEBD JUMPI PUSH0 DUP1 REVERT JUMPDEST SWAP2 SWAP1 POP JUMP JUMPDEST PUSH0 PUSH1 0x20 DUP3 DUP5 SUB SLT ISZERO PUSH2 0xED2 JUMPI PUSH0 DUP1 REVERT JUMPDEST PUSH2 0xEA0 DUP3 PUSH2 0xEA7 JUMP JUMPDEST PUSH0 DUP1 DUP4 PUSH1 0x1F DUP5 ADD SLT PUSH2 0xEEB JUMPI PUSH0 DUP1 REVERT JUMPDEST POP DUP2 CALLDATALOAD PUSH8 0xFFFFFFFFFFFFFFFF DUP2 GT ISZERO PUSH2 0xF02 JUMPI PUSH0 DUP1 REVERT JUMPDEST PUSH1 0x20 DUP4 ADD SWAP2 POP DUP4 PUSH1 0x20 DUP3 PUSH1 0x5 SHL DUP6 ADD ADD GT ISZERO PUSH2 0xF1C JUMPI PUSH0 DUP1 REVERT JUMPDEST SWAP3 POP SWAP3 SWAP1 POP JUMP JUMPDEST PUSH0 DUP1 PUSH1 0x20 DUP4 DUP6 SUB SLT ISZERO PUSH2 0xF34 JUMPI PUSH0 DUP1 REVERT JUMPDEST DUP3 CALLDATALOAD PUSH8 0xFFFFFFFFFFFFFFFF DUP2 GT ISZERO PUSH2 0xF4A JUMPI PUSH0 DUP1 REVERT JUMPDEST PUSH2 0xF56 DUP6 DUP3 DUP7 ADD PUSH2 0xEDB JUMP JUMPDEST SWAP1 SWAP7 SWAP1 SWAP6 POP SWAP4 POP POP POP POP JUMP JUMPDEST PUSH0 DUP2 MLOAD DUP1 DUP5 MSTORE PUSH0 JUMPDEST DUP2 DUP2 LT ISZERO PUSH2 0xF86 JUMPI PUSH1 0x20 DUP2 DUP6 ADD DUP2 ADD MLOAD DUP7 DUP4 ADD DUP3 ADD MSTORE ADD PUSH2 0xF6A JUMP JUMPDEST POP PUSH0 PUSH1 0x20 DUP3 DUP7 ADD ADD MSTORE PUSH1 0x20 PUSH1 0x1F NOT PUSH1 0x1F DUP4 ADD AND DUP6 ADD ADD SWAP2 POP POP SWAP3 SWAP2 POP POP JUMP JUMPDEST PUSH0 PUSH1 0x20 DUP1 DUP4 ADD PUSH1 0x20 DUP5 MSTORE DUP1 DUP6 MLOAD DUP1 DUP4 MSTORE PUSH1 0x40 DUP7 ADD SWAP2 POP PUSH1 0x40 DUP2 PUSH1 0x5 SHL DUP8 ADD ADD SWAP3 POP PUSH1 0x20 DUP8 ADD PUSH0 JUMPDEST DUP3 DUP2 LT ISZERO PUSH2 0xFFA JUMPI PUSH1 0x3F NOT DUP9 DUP7 SUB ADD DUP5 MSTORE PUSH2 0xFE8 DUP6 DUP4 MLOAD PUSH2 0xF62 JUMP JUMPDEST SWAP5 POP SWAP3 DUP6 ADD SWAP3 SWAP1 DUP6 ADD SWAP1 PUSH1 0x1 ADD PUSH2 0xFCC JUMP JUMPDEST POP SWAP3 SWAP8 SWAP7 POP POP POP POP POP POP POP JUMP JUMPDEST PUSH0 DUP1 DUP4 PUSH1 0x1F DUP5 ADD SLT PUSH2 0x1017 JUMPI PUSH0 DUP1 REVERT JUMPDEST POP DUP2 CALLDATALOAD PUSH8 0xFFFFFFFFFFFFFFFF DUP2 GT ISZERO PUSH2 0x102E JUMPI PUSH0 DUP1 REVERT JUMPDEST PUSH1 0x20 DUP4 ADD SWAP2 POP DUP4 PUSH1 0x20 DUP3 DUP6 ADD ADD GT ISZERO PUSH2 0xF1C JUMPI PUSH0 DUP1 REVERT JUMPDEST PUSH0 DUP1 PUSH0 DUP1 PUSH1 0x60 DUP6 DUP8 SUB SLT ISZERO PUSH2 0x1058 JUMPI PUSH0 DUP1 REVERT JUMPDEST PUSH2 0x1061 DUP6 PUSH2 0xEA7 JUMP JUMPDEST SWAP4 POP PUSH1 0x20 DUP6 ADD CALLDATALOAD PUSH8 0xFFFFFFFFFFFFFFFF DUP2 GT ISZERO PUSH2 0x107C JUMPI PUSH0 DUP1 REVERT JUMPDEST PUSH2 0x1088 DUP8 DUP3 DUP9 ADD PUSH2 0x1007 JUMP JUMPDEST SWAP6 SWAP9 SWAP1 SWAP8 POP SWAP5 SWAP6 PUSH1 0x40 ADD CALLDATALOAD SWAP5 SWAP4 POP POP POP POP JUMP JUMPDEST PUSH1 0x20 DUP2 MSTORE PUSH0 PUSH2 0xEA0 PUSH1 0x20 DUP4 ADD DUP5 PUSH2 0xF62 JUMP JUMPDEST PUSH0 DUP1 PUSH0 DUP1 PUSH0 DUP1 PUSH0 PUSH1 0xA0 DUP9 DUP11 SUB SLT ISZERO PUSH2 0x10C3 JUMPI PUSH0 DUP1 REVERT JUMPDEST PUSH2 0x10CC DUP9 PUSH2 0xEA7 JUMP JUMPDEST SWAP7 POP PUSH2 0x10DA PUSH1 0x20 DUP10 ADD PUSH2 0xEA7 JUMP JUMPDEST SWAP6 POP PUSH1 0x40 DUP9 ADD CALLDATALOAD PUSH8 0xFFFFFFFFFFFFFFFF DUP1 DUP3 GT ISZERO PUSH2 0x10F6 JUMPI PUSH0 DUP1 REVERT JUMPDEST PUSH2 0x1102 DUP12 DUP4 DUP13 ADD PUSH2 0x1007 JUMP JUMPDEST SWAP1 SWAP8 POP SWAP6 POP PUSH1 0x60 DUP11 ADD CALLDATALOAD SWAP2 POP DUP1 DUP3 GT ISZERO PUSH2 0x111A JUMPI PUSH0 DUP1 REVERT JUMPDEST POP PUSH2 0x1127 DUP11 DUP3 DUP12 ADD PUSH2 0x1007 JUMP JUMPDEST SWAP9 SWAP12 SWAP8 SWAP11 POP SWAP6 SWAP9 SWAP5 SWAP8 SWAP6 SWAP7 PUSH1 0x80 SWAP1 SWAP6 ADD CALLDATALOAD SWAP5 SWAP4 POP POP POP POP JUMP JUMPDEST PUSH0 DUP1 PUSH0 DUP1 PUSH0 DUP1 PUSH0 DUP1 PUSH1 0xA0 DUP10 DUP12 SUB SLT ISZERO PUSH2 0x1157 JUMPI PUSH0 DUP1 REVERT JUMPDEST PUSH2 0x1160 DUP10 PUSH2 0xEA7 JUMP JUMPDEST SWAP8 POP PUSH2 0x116E PUSH1 0x20 DUP11 ADD PUSH2 0xEA7 JUMP JUMPDEST SWAP7 POP PUSH1 0x40 DUP10 ADD CALLDATALOAD PUSH8 0xFFFFFFFFFFFFFFFF DUP1 DUP3 GT ISZERO PUSH2 0x118A JUMPI PUSH0 DUP1 REVERT JUMPDEST PUSH2 0x1196 DUP13 DUP4 DUP14 ADD PUSH2 0xEDB JUMP JUMPDEST SWAP1 SWAP9 POP SWAP7 POP PUSH1 0x60 DUP12 ADD CALLDATALOAD SWAP2 POP DUP1 DUP3 GT ISZERO PUSH2 0x11AE JUMPI PUSH0 DUP1 REVERT JUMPDEST PUSH2 0x11BA DUP13 DUP4 DUP14 ADD PUSH2 0xEDB JUMP JUMPDEST SWAP1 SWAP7 POP SWAP5 POP PUSH1 0x80 DUP12 ADD CALLDATALOAD SWAP2 POP DUP1 DUP3 GT ISZERO PUSH2 0x11D2 JUMPI PUSH0 DUP1 REVERT JUMPDEST POP PUSH2 0x11DF DUP12 DUP3 DUP13 ADD PUSH2 0x1007 JUMP JUMPDEST SWAP10 SWAP13 SWAP9 SWAP12 POP SWAP7 SWAP10 POP SWAP5 SWAP8 SWAP4 SWAP7 SWAP3 SWAP6 SWAP5 POP POP POP JUMP JUMPDEST PUSH0 DUP1 PUSH0 DUP1 PUSH0 DUP1 PUSH1 0xA0 DUP8 DUP10 SUB SLT ISZERO PUSH2 0x1208 JUMPI PUSH0 DUP1 REVERT JUMPDEST PUSH2 0x1211 DUP8 PUSH2 0xEA7 JUMP JUMPDEST SWAP6 POP PUSH2 0x121F PUSH1 0x20 DUP9 ADD PUSH2 0xEA7 JUMP JUMPDEST SWAP5 POP PUSH1 0x40 DUP8 ADD CALLDATALOAD SWAP4 POP PUSH1 0x60 DUP8 ADD CALLDATALOAD SWAP3 POP PUSH1 0x80 DUP8 ADD CALLDATALOAD PUSH8 0xFFFFFFFFFFFFFFFF DUP2 GT ISZERO PUSH2 0x1248 JUMPI PUSH0 DUP1 REVERT JUMPDEST PUSH2 0x1254 DUP10 DUP3 DUP11 ADD PUSH2 0x1007 JUMP JUMPDEST SWAP8 SWAP11 SWAP7 SWAP10 POP SWAP5 SWAP8 POP SWAP3 SWAP6 SWAP4 SWAP5 SWAP3 POP POP POP JUMP JUMPDEST PUSH4 0x4E487B71 PUSH1 0xE0 SHL PUSH0 MSTORE PUSH1 0x41 PUSH1 0x4 MSTORE PUSH1 0x24 PUSH0 REVERT JUMPDEST PUSH4 0x4E487B71 PUSH1 0xE0 SHL PUSH0 MSTORE PUSH1 0x32 PUSH1 0x4 MSTORE PUSH1 0x24 PUSH0 REVERT JUMPDEST PUSH0 DUP3 CALLDATALOAD PUSH1 0x5E NOT DUP4 CALLDATASIZE SUB ADD DUP2 SLT PUSH2 0x12A2 JUMPI PUSH0 DUP1 REVERT JUMPDEST SWAP2 SWAP1 SWAP2 ADD SWAP3 SWAP2 POP POP JUMP JUMPDEST PUSH0 DUP1 DUP4 CALLDATALOAD PUSH1 0x1E NOT DUP5 CALLDATASIZE SUB ADD DUP2 SLT PUSH2 0x12C1 JUMPI PUSH0 DUP1 REVERT JUMPDEST DUP4 ADD DUP1 CALLDATALOAD SWAP2 POP PUSH8 0xFFFFFFFFFFFFFFFF DUP3 GT ISZERO PUSH2 0x12DB JUMPI PUSH0 DUP1 REVERT JUMPDEST PUSH1 0x20 ADD SWAP2 POP CALLDATASIZE DUP2 SWAP1 SUB DUP3 SGT ISZERO PUSH2 0xF1C JUMPI PUSH0 DUP1 REVERT JUMPDEST DUP2 DUP4 DUP3 CALLDATACOPY PUSH0 SWAP2 ADD SWAP1 DUP2 MSTORE SWAP2 SWAP1 POP JUMP JUMPDEST DUP2 DUP4 MSTORE DUP2 DUP2 PUSH1 0x20 DUP6 ADD CALLDATACOPY POP PUSH0 DUP3 DUP3 ADD PUSH1 0x20 SWAP1 DUP2 ADD SWAP2 SWAP1 SWAP2 MSTORE PUSH1 0x1F SWAP1 SWAP2 ADD PUSH1 0x1F NOT AND SWAP1 SWAP2 ADD ADD SWAP1 JUMP JUMPDEST DUP5 DUP2 MSTORE PUSH1 0x60 PUSH1 0x20 DUP3 ADD MSTORE PUSH0 PUSH2 0x133F PUSH1 0x60 DUP4 ADD DUP6 DUP8 PUSH2 0x12FE JUMP JUMPDEST DUP3 DUP2 SUB PUSH1 0x40 DUP5 ADD MSTORE PUSH2 0x1351 DUP2 DUP6 PUSH2 0xF62 JUMP JUMPDEST SWAP8 SWAP7 POP POP POP POP POP POP POP JUMP JUMPDEST DUP4 DUP2 MSTORE PUSH1 0x40 PUSH1 0x20 DUP3 ADD MSTORE PUSH0 PUSH2 0x1375 PUSH1 0x40 DUP4 ADD DUP5 DUP7 PUSH2 0x12FE JUMP JUMPDEST SWAP6 SWAP5 POP POP POP POP POP JUMP JUMPDEST PUSH0 PUSH1 0x1 DUP3 ADD PUSH2 0x139B JUMPI PUSH4 0x4E487B71 PUSH1 0xE0 SHL PUSH0 MSTORE PUSH1 0x11 PUSH1 0x4 MSTORE PUSH1 0x24 PUSH0 REVERT JUMPDEST POP PUSH1 0x1 ADD SWAP1 JUMP JUMPDEST PUSH4 0x4E487B71 PUSH1 0xE0 SHL PUSH0 MSTORE PUSH1 0x21 PUSH1 0x4 MSTORE PUSH1 0x24 PUSH0 REVERT INVALID LOG2 PUSH5 0x6970667358 0x22 SLT KECCAK256 ADDRESS CALLDATALOAD 0xAE JUMPI EXP 0xCD PUSH7 0x41275F08FB82CC GT DUP9 0x2C ORIGIN 0x26 EXP 0xBB 0xD8 MUL JUMPDEST JUMPI ISZERO DUP10 DUP7 0xA5 CALLVALUE 0xE4 AND PUSH5 0x736F6C6343 STOP ADDMOD XOR STOP CALLER "},"methodIdentifiers":{"DOMAIN_SEPARATOR()":"3644e515","META_TRANSACTION_TYPEHASH()":"fa2c322d","execute(address,bytes,uint256)":"a04a0908","executeBatch((address,bytes,uint256)[])":"8a89b44b","executeMetaTransaction(address,address,bytes,bytes,uint256)":"aff2d5ee","getNonce(address)":"2d0335ab","getOwner()":"893d20e8","nonces(address)":"7ecebe00","onERC1155BatchReceived(address,address,uint256[],uint256[],bytes)":"bc197c81","onERC1155Received(address,address,uint256,uint256,bytes)":"f23a6e61","owner()":"8da5cb5b","supportsInterface(bytes4)":"01ffc9a7"}}}}}