{"project/contracts/AMMPoolFactorySimple.sol":{"AMMPoolFactorySimple":{"abi":[{"inputs":[{"internalType":"address","name":"_collateralToken","type":"address"},{"internalType":"address","name":"_conditionalTokens","type":"address"},{"internalType":"address","name":"_treasury","type":"address"}],"stateMutability":"nonpayable","type":"constructor"},{"inputs":[{"internalType":"address","name":"owner","type":"address"}],"name":"OwnableInvalidOwner","type":"error"},{"inputs":[{"internalType":"address","name":"account","type":"address"}],"name":"OwnableUnauthorizedAccount","type":"error"},{"anonymous":false,"inputs":[{"indexed":false,"internalType":"uint256","name":"lpFee","type":"uint256"},{"indexed":false,"internalType":"uint256","name":"protocolFee","type":"uint256"}],"name":"DefaultFeesUpdated","type":"event"},{"anonymous":false,"inputs":[{"indexed":false,"internalType":"uint256","name":"minLPFee","type":"uint256"},{"indexed":false,"internalType":"uint256","name":"maxLPFee","type":"uint256"},{"indexed":false,"internalType":"uint256","name":"minProtocolFee","type":"uint256"},{"indexed":false,"internalType":"uint256","name":"maxProtocolFee","type":"uint256"}],"name":"FeeLimitsUpdated","type":"event"},{"anonymous":false,"inputs":[{"indexed":true,"internalType":"address","name":"previousOwner","type":"address"},{"indexed":true,"internalType":"address","name":"newOwner","type":"address"}],"name":"OwnershipTransferred","type":"event"},{"anonymous":false,"inputs":[{"indexed":true,"internalType":"address","name":"pool","type":"address"},{"indexed":true,"internalType":"bytes32","name":"conditionId","type":"bytes32"},{"indexed":false,"internalType":"uint256","name":"yesPositionId","type":"uint256"},{"indexed":false,"internalType":"uint256","name":"noPositionId","type":"uint256"},{"indexed":false,"internalType":"uint256","name":"lpFee","type":"uint256"},{"indexed":false,"internalType":"uint256","name":"protocolFee","type":"uint256"}],"name":"PoolCreated","type":"event"},{"anonymous":false,"inputs":[{"indexed":false,"internalType":"address","name":"newTreasury","type":"address"}],"name":"TreasuryUpdated","type":"event"},{"inputs":[{"internalType":"uint256","name":"","type":"uint256"}],"name":"allPools","outputs":[{"internalType":"address","name":"","type":"address"}],"stateMutability":"view","type":"function"},{"inputs":[],"name":"collateralToken","outputs":[{"internalType":"address","name":"","type":"address"}],"stateMutability":"view","type":"function"},{"inputs":[],"name":"conditionalTokens","outputs":[{"internalType":"address","name":"","type":"address"}],"stateMutability":"view","type":"function"},{"inputs":[{"internalType":"string","name":"name","type":"string"},{"internalType":"string","name":"symbol","type":"string"},{"internalType":"bytes32","name":"conditionId","type":"bytes32"},{"internalType":"address","name":"oracle","type":"address"},{"internalType":"uint256","name":"yesPositionId","type":"uint256"},{"internalType":"uint256","name":"noPositionId","type":"uint256"},{"internalType":"uint256","name":"lpFee","type":"uint256"},{"internalType":"uint256","name":"protocolFee","type":"uint256"}],"name":"createPool","outputs":[{"internalType":"address","name":"pool","type":"address"}],"stateMutability":"nonpayable","type":"function"},{"inputs":[{"internalType":"string","name":"name","type":"string"},{"internalType":"string","name":"symbol","type":"string"},{"internalType":"bytes32","name":"conditionId","type":"bytes32"},{"internalType":"address","name":"oracle","type":"address"},{"internalType":"uint256","name":"yesPositionId","type":"uint256"},{"internalType":"uint256","name":"noPositionId","type":"uint256"}],"name":"createPoolWithDefaults","outputs":[{"internalType":"address","name":"pool","type":"address"}],"stateMutability":"nonpayable","type":"function"},{"inputs":[],"name":"defaultLPFee","outputs":[{"internalType":"uint256","name":"","type":"uint256"}],"stateMutability":"view","type":"function"},{"inputs":[],"name":"defaultProtocolFee","outputs":[{"internalType":"uint256","name":"","type":"uint256"}],"stateMutability":"view","type":"function"},{"inputs":[{"internalType":"bytes32","name":"conditionId","type":"bytes32"}],"name":"getPool","outputs":[{"internalType":"address","name":"","type":"address"}],"stateMutability":"view","type":"function"},{"inputs":[],"name":"getPoolCount","outputs":[{"internalType":"uint256","name":"","type":"uint256"}],"stateMutability":"view","type":"function"},{"inputs":[],"name":"maxLPFee","outputs":[{"internalType":"uint256","name":"","type":"uint256"}],"stateMutability":"view","type":"function"},{"inputs":[],"name":"maxProtocolFee","outputs":[{"internalType":"uint256","name":"","type":"uint256"}],"stateMutability":"view","type":"function"},{"inputs":[],"name":"minLPFee","outputs":[{"internalType":"uint256","name":"","type":"uint256"}],"stateMutability":"view","type":"function"},{"inputs":[],"name":"minProtocolFee","outputs":[{"internalType":"uint256","name":"","type":"uint256"}],"stateMutability":"view","type":"function"},{"inputs":[],"name":"owner","outputs":[{"internalType":"address","name":"","type":"address"}],"stateMutability":"view","type":"function"},{"inputs":[{"internalType":"bytes32","name":"","type":"bytes32"}],"name":"pools","outputs":[{"internalType":"address","name":"","type":"address"}],"stateMutability":"view","type":"function"},{"inputs":[],"name":"renounceOwnership","outputs":[],"stateMutability":"nonpayable","type":"function"},{"inputs":[{"internalType":"address","name":"newOwner","type":"address"}],"name":"transferOwnership","outputs":[],"stateMutability":"nonpayable","type":"function"},{"inputs":[],"name":"treasury","outputs":[{"internalType":"address","name":"","type":"address"}],"stateMutability":"view","type":"function"},{"inputs":[{"internalType":"uint256","name":"_lpFee","type":"uint256"},{"internalType":"uint256","name":"_protocolFee","type":"uint256"}],"name":"updateDefaultFees","outputs":[],"stateMutability":"nonpayable","type":"function"},{"inputs":[{"internalType":"uint256","name":"_minLPFee","type":"uint256"},{"internalType":"uint256","name":"_maxLPFee","type":"uint256"},{"internalType":"uint256","name":"_minProtocolFee","type":"uint256"},{"internalType":"uint256","name":"_maxProtocolFee","type":"uint256"}],"name":"updateFeeLimits","outputs":[],"stateMutability":"nonpayable","type":"function"},{"inputs":[{"internalType":"address","name":"_treasury","type":"address"}],"name":"updateTreasury","outputs":[],"stateMutability":"nonpayable","type":"function"}],"evm":{"bytecode":{"linkReferences":{},"object":"60c0346101ec57601f61333f38819003918201601f191683019291906001600160401b038411838510176101f05781606092849260409687528339810103126101ec5761004b81610204565b906100638361005c60208401610204565b9201610204565b9033156101d5575f80546001600160a01b0319808216339081178455875191956001600160a01b039490938516907f8be0079c531659141344cd1fd0a4f28419497f9722a3daafe3b4186f6b6457e09080a360326002556101f4600355600a60045560c8600555609660065560326007558286161561019e57508183161561016d57169283156101365760805260a05260015416176001555161312690816102198239608051818181610359015281816104890152610952015260a0518181816103370152818161083a01526109300152f35b845162461bcd60e51b815260206004820152601060248201526f496e76616c696420747265617375727960801b6044820152606490fd5b855162461bcd60e51b815260206004820152600a602482015269125b9d985b1a590810d560b21b6044820152606490fd5b62461bcd60e51b8152602060048201526012602482015271125b9d985b1a590818dbdb1b185d195c985b60721b6044820152606490fd5b8351631e4fbdf760e01b81525f6004820152602490fd5b5f80fd5b634e487b7160e01b5f52604160045260245ffd5b51906001600160a01b03821682036101ec5756fe608060408181526004918236101562000016575f80fd5b5f3560e01c90816341d1de971462000a2857508063421bcbdf1462000a085780635bc2a57e14620008695780635bd9e29914620008245780635ee31c7c146200080457806361d027b314620007da57806366c6146d14620006cf578063715018a614620006745780637f51bb1f14620005c45780638da5cb5b146200059b5780638eec5d70146200057b578063a3784e1d14620004d8578063abce0cd514620004b8578063b2016bd41462000473578063b5217bb41462000442578063bdf57194146200023d578063d74fb90d146200021d578063e904e09d14620001ff578063f2fde38b1462000170578063f30853fb14620001505763f6c00927146200011c575f80fd5b346200014c5760203660031901126200014c57602091355f526008825260018060a01b03815f2054169051908152f35b5f80fd5b50346200014c575f3660031901126200014c576020906002549051908152f35b5090346200014c5760203660031901126200014c576200018f62000b13565b906200019a62000d1d565b6001600160a01b03918216928315620001e95750505f54826001600160601b0360a01b8216175f55167f8be0079c531659141344cd1fd0a4f28419497f9722a3daafe3b4186f6b6457e05f80a3005b905f6024925191631e4fbdf760e01b8352820152fd5b50346200014c575f3660031901126200014c57602091549051908152f35b50346200014c575f3660031901126200014c576020906006549051908152f35b5090346200014c576101003660031901126200014c5767ffffffffffffffff9181358381116200014c5762000276903690840162000a82565b916024358481116200014c5762000291903690830162000a82565b604435916200029f62000afc565b956084359160a4359760c4359460e43598875f52600860205260018060a01b0394620002d1868b5f2054161562000b2a565b6002548810158062000435575b620002e99062000c9b565b84548b10158062000428575b620003009062000cd9565b8560015416928a51956123a79081880193888510908511176200041557508d898c8f94966200037f98968b9a988f9662000d4a8d397f0000000000000000000000000000000000000000000000000000000000000000927f00000000000000000000000000000000000000000000000000000000000000009262000ba5565b03905ff080156200040b579162000402602098927f6a8809def78dc86b8283b720aa0252607294925c6a692dc5083e4a576a3844f89416978895875f5260088b52885f20876001600160601b0360a01b825416179055620003e08762000c1d565b8851948594859094939260609260808301968352602083015260408201520152565b0390a351908152f35b85513d5f823e3d90fd5b604190634e487b7160e01b5f525260245ffd5b506005548b1115620002f5565b50600354881115620002de565b50346200014c5760203660031901126200014c57602091355f526008825260018060a01b03815f2054169051908152f35b50346200014c575f3660031901126200014c57517f00000000000000000000000000000000000000000000000000000000000000006001600160a01b03168152602090f35b50346200014c575f3660031901126200014c576020906003549051908152f35b50346200014c57806003193601126200014c57817fd31db2d23fe42d625fd61189088b6ca9e19f1d03ed676d9480fee9705dfca300923590602435906200051e62000d1d565b600254831015806200056e575b620005369062000c9b565b548110158062000561575b6200054c9062000cd9565b816006558060075582519182526020820152a1005b5060055481111562000541565b506003548311156200052b565b50346200014c575f3660031901126200014c576020906009549051908152f35b50346200014c575f3660031901126200014c575f5490516001600160a01b039091168152602090f35b5090346200014c5760203660031901126200014c57620005e362000b13565b620005ed62000d1d565b6001600160a01b03169081156200063e577f7dae230f18360d76a040c81f050aa14eb9d6dc7901b20fc5d855e2a20fe814d160208385816001600160601b0360a01b600154161760015551908152a1005b606490602084519162461bcd60e51b8352820152601060248201526f496e76616c696420747265617375727960801b6044820152fd5b346200014c575f3660031901126200014c576200069062000d1d565b5f80546001600160a01b0319811682556001600160a01b03167f8be0079c531659141344cd1fd0a4f28419497f9722a3daafe3b4186f6b6457e08280a3005b5090346200014c5760803660031901126200014c5780356024359160443560643591620006fb62000d1d565b848411620007a4578282116200076857907f7729779159307ca6c59cd8533245b6b4b8f92ab117061a96dee2b18c6efc824995816200076394938660025587600355558260055551948594859094939260609260808301968352602083015260408201520152565b0390a1005b606490602087519162461bcd60e51b83528201526016602482015275496e76616c69642070726f746f636f6c2072616e676560501b6044820152fd5b606490602087519162461bcd60e51b8352820152601060248201526f496e76616c6964204c502072616e676560801b6044820152fd5b50346200014c575f3660031901126200014c5760015490516001600160a01b039091168152602090f35b50346200014c575f3660031901126200014c576020906005549051908152f35b50346200014c575f3660031901126200014c57517f00000000000000000000000000000000000000000000000000000000000000006001600160a01b03168152602090f35b50346200014c5760c03660031901126200014c5767ffffffffffffffff9082358281116200014c57620008a0903690850162000a82565b926024358381116200014c57620008bb903690830162000a82565b60443591620008c962000afc565b6084359260a43596855f52600860205260018060a01b0398620008f28a895f2054161562000b2a565b60065490600754928b60015416948a51976123a790818a01938a8510908511176200041557508a89989694620009789896948f948d9462000d4a8d397f0000000000000000000000000000000000000000000000000000000000000000927f00000000000000000000000000000000000000000000000000000000000000009262000ba5565b03905ff08015620009fe576020957f6a8809def78dc86b8283b720aa0252607294925c6a692dc5083e4a576a3844f89116948592845f5260088852855f20846001600160601b0360a01b825416179055620009d38462000c1d565b6006546007548751928352602083019390935260408201526060810191909152806080810162000402565b83513d5f823e3d90fd5b50346200014c575f3660031901126200014c576020906007549051908152f35b83346200014c5760203660031901126200014c5735906009548210156200014c5760095f527f6e1540171b6c0c960b71a7020d9f60077f6af931a8bbf590da0223dacf75c7af909101546001600160a01b03168152602090f35b81601f820112156200014c5780359067ffffffffffffffff9283831162000ae85760405193601f8401601f19908116603f011685019081118582101762000ae857604052828452602083830101116200014c57815f926020809301838601378301015290565b634e487b7160e01b5f52604160045260245ffd5b606435906001600160a01b03821682036200014c57565b600435906001600160a01b03821682036200014c57565b1562000b3257565b60405162461bcd60e51b815260206004820152600b60248201526a506f6f6c2065786973747360a81b6044820152606490fd5b91908251928382525f5b84811062000b90575050825f602080949584010152601f8019910116010190565b60208183018101518483018201520162000b6f565b99948a989362000bde6101409b969e9d999462000bcf60409a958d61016090818152019062000b65565b8c810360208e01529062000b65565b9d60018060a01b039a8b998a8094169101521660608c015260808b015260a08a015260c089015260e08801526101008701521661012085015216910152565b6009546801000000000000000081101562000ae857600181018060095581101562000c875760095f527f6e1540171b6c0c960b71a7020d9f60077f6af931a8bbf590da0223dacf75c7af0180546001600160a01b0319166001600160a01b03909216919091179055565b634e487b7160e01b5f52603260045260245ffd5b1562000ca357565b60405162461bcd60e51b815260206004820152600e60248201526d496e76616c6964204c502066656560901b6044820152606490fd5b1562000ce157565b60405162461bcd60e51b8152602060048201526014602482015273496e76616c69642070726f746f636f6c2066656560601b6044820152606490fd5b5f546001600160a01b0316330362000d3157565b60405163118cdaa760e01b8152336004820152602490fdfe6101a0604052346200048a57620023a7803803806200001e816200048e565b928339810161016080838303126200048a5782516001600160401b0391908281116200048a578362000052918601620004b4565b936020808201518481116200048a57620000be9562000073918401620004b4565b90620000826040840162000524565b620000906060850162000524565b90608085015160a08601519060c08701519260e0880151946101009c8d8a0151976101209d8e8c0162000524565b9c620000cf610140809d0162000524565b9a835182811162000395576003918254916001968784811c941680156200047f575b878510146200046b578190601f9485811162000418575b508790858311600114620003b5575f92620003a9575b50505f1982861b1c191690871b1783555b8051938411620003955760049485548781811c911680156200038a575b8282101462000377579081848796959493116200031e575b5080928511600114620002b457505f93620002a8575b505082851b925f19911b1c19161790555b6005556001600160a01b039182166080521660a05260c05260e0528852835283526101809384528452604051611e6d95909490866200053a873960805186610545015260a051868181610345015281816105e90152818161096e01528181610e47015281816113ab015261160a015260c0518661105e015260e0518681816103220152818161062f015281816109b5015281816110990152818161144e01526115e90152518581816103dc0152818161068801528181610a1101528181610e0f0152818161138a01526116aa015251848181610d2e0152610eca0152518381816101a301528181610cba01526112f6015251828181610c9901528181610e8e0152611325015251818181610dc80152818161150201526117170152f35b015191505f806200017a565b929190879550601f198516875f52845f20945f905b828210620003045750508511620002ea575b50505050811b0190556200018b565b01519060f8845f19921b161c191690555f808080620002db565b8484015187558a98909601959384019390810190620002c9565b909192939450865f52815f208480880160051c8201928489106200036d575b918a91899897969594930160051c01915b8281106200035e57505062000164565b5f81558897508a91016200034e565b925081926200033d565b602287634e487b7160e01b5f525260245ffd5b90607f16906200014c565b634e487b7160e01b5f52604160045260245ffd5b015190505f806200011e565b90899350601f19831691875f52895f20925f5b8b828210620004015750508411620003e9575b505050811b0183556200012f565b01515f1983881b60f8161c191690555f8080620003db565b8385015186558d97909501949384019301620003c8565b909150855f52875f208580850160051c8201928a861062000461575b918b91869594930160051c01915b8281106200045257505062000108565b5f81558594508b910162000442565b9250819262000434565b634e487b7160e01b5f52602260045260245ffd5b93607f1693620000f1565b5f80fd5b6040519190601f01601f191682016001600160401b038111838210176200039557604052565b919080601f840112156200048a5782516001600160401b0381116200039557602090620004ea601f8201601f191683016200048e565b928184528282870101116200048a575f5b818110620005105750825f9394955001015290565b8581018301518482018401528201620004fb565b51906001600160a01b03821682036200048a5756fe6080604081815260049182361015610015575f80fd5b5f925f3560e01c91826301ffc9a7146119195750816306fdde031461182557816308c84c211461129d5781630902f1ac14611278578163095ea7b3146111ce57816318160ddd146111af57816323b872dd146110bc5781632474b6bc146110815781632ddc7de714611046578163313ce5671461102a5781633f6fa655146110065781634f896d4f14610eb157816358f8588014610e765781635bd9e29914610e3257816360e30d9e14610df757816361d027b314610db357816370a0823114610d7c57816372a9fa6e14610d5d5781637dc0d1d014610d19578163827b650814610c6d5781638779086f14610c4957816395d89b4114610b445781639b34ae0314610b255781639c8f9f23146108c75781639cd441da146105a5578163a9059cbb14610574578163b2016bd414610530578163b2670d7414610511578163bc197c8114610487578163bdeda83314610271578163dd62ed3e14610224578163f23a6e61146101ca575063f5b9848d1461018d575f80fd5b346101c657816003193601126101c657602090517f00000000000000000000000000000000000000000000000000000000000000008152f35b5080fd5b8284346102215760a0366003190112610221576101e56119a4565b506101ee6119ba565b506084359067ffffffffffffffff8211610221575060209261021291369101611a01565b50505163f23a6e6160e01b8152f35b80fd5b5050346101c657806003193601126101c6576020916102416119a4565b8261024a6119ba565b6001600160a01b03928316845260018652922091165f908152908352819020549051908152f35b919050346103cb5760203660031901126103cb57813591610290611ca1565b60ff600854161561044f576102a6831515611a79565b338452836020526102bc83838620541015611c5c565b600254926102cb841515611b03565b6102ee60016009541494855f14610444576102e96006545b84611b5f565b611b72565b938415610415576103159190156104015761030b85600654611b90565b6006555b33611d8b565b6009546001036103d957837f0000000000000000000000000000000000000000000000000000000000000000915b7f00000000000000000000000000000000000000000000000000000000000000006001600160a01b0316803b156103cb5761039993838793875196879586948593637921219560e11b8552339030908601611b9d565b03925af180156103cf576103b7575b60208383600160055551908152f35b6103c18491611a2f565b6103cb57826103a8565b8280fd5b82513d86823e3d90fd5b837f000000000000000000000000000000000000000000000000000000000000000091610343565b61040d85600754611b90565b60075561030f565b835162461bcd60e51b81526020818501526009602482015268139bc81c185e5bdd5d60ba1b6044820152606490fd5b6102e96007546102e3565b6020606492519162461bcd60e51b8352820152601360248201527213585c9ad95d081b9bdd081c995cdbdb1d9959606a1b6044820152fd5b8284346102215760a0366003190112610221576104a26119a4565b506104ab6119ba565b5067ffffffffffffffff906044358281116101c6576104cd90369086016119d0565b50506064358281116101c6576104e690369086016119d0565b5050608435918211610221575060209261050291369101611a01565b50505163bc197c8160e01b8152f35b5050346101c657816003193601126101c6576020906006549051908152f35b5050346101c657816003193601126101c657517f00000000000000000000000000000000000000000000000000000000000000006001600160a01b03168152602090f35b5050346101c657806003193601126101c65760209061059e6105946119a4565b6024359033611cc4565b5160018152f35b919050346103cb57806003193601126103cb578135602435936105c6611ca1565b811515806108be575b6105d890611a79565b6105e760ff6008541615611ac5565b7f00000000000000000000000000000000000000000000000000000000000000006001600160a01b0316803b156101c6578351637921219560e11b80825290838180610658887f000000000000000000000000000000000000000000000000000000000000000030338e8601611b9d565b038183875af180156108b4579084916108a0575b5050813b156103cb57845190815290829082908183816106b18c7f000000000000000000000000000000000000000000000000000000000000000030338f8601611b9d565b03925af1801561089657908291610882575b50506002549081610855576106d88684611b3e565b916103e890818410610812578181018091116107ff575f80516020611e1883398151915260206001935f936002558484528382528884208181540190558851908152a36103e71982019182116107ec5750925b610736841515611c5c565b61074282600654611b3e565b60065561075185600754611b3e565b60075533156107d657507f64b83944e79c3ce8d4c297411de637c3e102d064677aac0c163976ebdcd6f50e8360209561078c82600254611b3e565b600255335f525f8752845f2082815401905584518281525f5f80516020611e18833981519152893393a38451938452602084015260408301523391606090a2600160055551908152f35b6024905f84519163ec442f0560e01b8352820152fd5b634e487b7160e01b815260118552602490fd5b601187634e487b7160e01b5f525260245ffd5b855162461bcd60e51b8152602081890152601e60248201527f496e73756666696369656e7420696e697469616c206c697175696469747900006044820152606490fd5b5061087c906102e961086c60065460075490611b3e565b916108778886611b3e565b611b5f565b9261072b565b61088b90611a2f565b61022157805f6106c3565b84513d84823e3d90fd5b6108a990611a2f565b6103cb57825f61066c565b86513d86823e3d90fd5b508415156105cf565b839150346101c65760203660031901126101c65780356108e5611ca1565b6108f0811515611a79565b3383528260205261090681858520541015611c5c565b60025492610915841515611b03565b60065492610927856102e98686611b5f565b94610939600754916102e98387611b5f565b9486151580610b1c575b15610ae35761095f91610957888893611b90565b600655611b90565b60075561096c8333611d8b565b7f00000000000000000000000000000000000000000000000000000000000000006001600160a01b031690813b156103cb578651637921219560e11b808252908481806109de8b7f000000000000000000000000000000000000000000000000000000000000000033308a8601611b9d565b038183885af18015610ad957908591610ac5575b5050823b15610ac157610a3c9284928388938b519687958694859384527f000000000000000000000000000000000000000000000000000000000000000090339030908601611b9d565b03925af18015610ab757610aa3575b50507f1dc8bb69df2b8e91fbdcbfcf93d951b3f0000f085a95fe3f7946d6161439245d845180610a8f33948688846040919493926060820195825260208201520152565b0390a2600160055582519182526020820152f35b610aad8291611a2f565b6102215780610a4b565b86513d84823e3d90fd5b8380fd5b610ace90611a2f565b610ac15783896109f2565b89513d87823e3d90fd5b875162461bcd60e51b81526020818501526013602482015272125b9cdd59999a58da595b9d081bdd5d1c1d5d606a1b6044820152606490fd5b50851515610943565b5050346101c657816003193601126101c6576020906009549051908152f35b8383346101c657816003193601126101c65780519180938054916001908360011c9260018516948515610c3f575b6020958686108114610c2c57858952908115610c085750600114610bb0575b610bac8787610ba2828c0383611a57565b519182918261194e565b0390f35b81529295507f8a35acfbc15ff81a39ae7d344fd709f28e8600b4aa8c65c6b64bfe7fe36bd19b5b828410610bf55750505082610bac94610ba292820101948680610b91565b8054868501880152928601928101610bd7565b60ff19168887015250505050151560051b8301019250610ba282610bac8680610b91565b634e487b7160e01b845260228352602484fd5b93607f1693610b72565b5050346101c657816003193601126101c657602090610c66611c14565b9051908152f35b82843461022157816003193601126102215750610c88611995565b602435610ce6612710610cde6102e37f00000000000000000000000000000000000000000000000000000000000000007f0000000000000000000000000000000000000000000000000000000000000000611b3e565b048092611b90565b9115610d0657610cfa600754831115611bd0565b82519182526020820152f35b610d14600654831115611bd0565b610cfa565b5050346101c657816003193601126101c657517f00000000000000000000000000000000000000000000000000000000000000006001600160a01b03168152602090f35b5050346101c657816003193601126101c6576020906007549051908152f35b5050346101c65760203660031901126101c65760209181906001600160a01b03610da46119a4565b16815280845220549051908152f35b5050346101c657816003193601126101c657517f00000000000000000000000000000000000000000000000000000000000000006001600160a01b03168152602090f35b5050346101c657816003193601126101c657602090517f00000000000000000000000000000000000000000000000000000000000000008152f35b5050346101c657816003193601126101c657517f00000000000000000000000000000000000000000000000000000000000000006001600160a01b03168152602090f35b5050346101c657816003193601126101c657602090517f00000000000000000000000000000000000000000000000000000000000000008152f35b919050346103cb5760203660031901126103cb578135917f00000000000000000000000000000000000000000000000000000000000000006001600160a01b03163303610fc4576008549060ff8216610f8e5783158015610f84575b15610f4f575060ff19166001176008556009829055519081527f93608ecbcf057462da63f5aef413ce7f78c5e1b3bb51859d77a40845ece2bfc390602090a180f35b606490602084519162461bcd60e51b8352820152600f60248201526e496e76616c6964206f7574636f6d6560881b6044820152fd5b5060018414610f0d565b606490602084519162461bcd60e51b8352820152601060248201526f105b1c9958591e481c995cdbdb1d995960821b6044820152fd5b6020606492519162461bcd60e51b8352820152601760248201527f4f6e6c79206f7261636c652063616e207265736f6c76650000000000000000006044820152fd5b5050346101c657816003193601126101c65760209060ff6008541690519015158152f35b5050346101c657816003193601126101c6576020905160128152f35b5050346101c657816003193601126101c657602090517f00000000000000000000000000000000000000000000000000000000000000008152f35b5050346101c657816003193601126101c657602090517f00000000000000000000000000000000000000000000000000000000000000008152f35b839150346101c65760603660031901126101c6576110d86119a4565b6110e06119ba565b91604435938560018060a01b03841691828152600160205220335f52602052855f2054915f19831061111b575b60208761059e888888611cc4565b85831061118357811561116d57331561115757505f9081526001602090815286822033835281529086902091859003909155829061059e61110d565b6024905f885191634a1406b160e11b8352820152fd5b6024905f88519163e602df0560e01b8352820152fd5b8651637dc7a0d960e11b8152339181019182526020820193909352604081018690528291506060010390fd5b5050346101c657816003193601126101c6576020906002549051908152f35b828434610221578160031936011261022157506111e96119a4565b602435903315611262576001600160a01b031690811561124c5760209350335f5260018452825f20825f52845280835f205582519081527f8c5be1e5ebec7d5bd14f71427d1e84f3dd0314c0f7b2291e5b200ac8c7c3b925843392a35160018152f35b8251634a1406b160e11b81525f81860152602490fd5b825163e602df0560e01b81525f81860152602490fd5b8284346102215780600319360112610221575060065460075482519182526020820152f35b9190503461179c57606036600319011261179c576112b9611995565b6024356112c4611ca1565b6112cf811515611a79565b6112de60ff6008541615611ac5565b600654938415158061181a575b6112f490611b03565b7f0000000000000000000000000000000000000000000000000000000000000000916127106113588161135061134a7f000000000000000000000000000000000000000000000000000000000000000088611b3e565b85611b5f565b049483611b5f565b049161136e6113678486611b90565b9483611b90565b9660443588106117e35785156115e15750600754871161159e577f00000000000000000000000000000000000000000000000000000000000000007f00000000000000000000000000000000000000000000000000000000000000006001600160a01b0316803b1561159a578751637921219560e11b80825293908b908181806113fd8a8930338a8601611b9d565b038183885af1801561157c57611586575b505061142561141d8887611b90565b600754611b3e565b6007556114348a600654611b90565b600655813b156115785788518481528b908181806114778f7f000000000000000000000000000000000000000000000000000000000000000033308a8601611b9d565b038183885af1801561157c57611564575b5050866114e4575b50505050602096505b84519315158452868401528484840152606083015260808201527fd55848f048ca7d5fd9869d414bb60a426c2b0125c8adb982fee123da3f841ed860a03392a2600160055551908152f35b908a9291813b15610ac15783889561152b8c519788968795869485527f00000000000000000000000000000000000000000000000000000000000000009030908601611b9d565b03925af1801561155a57611542575b808080611490565b61154c8891611a2f565b611556578661153a565b8680fd5b86513d8a823e3d90fd5b61156d90611a2f565b611578578a5f611488565b8a80fd5b8b513d84823e3d90fd5b61158f90611a2f565b611578578a5f61140e565b8980fd5b606490602087519162461bcd60e51b8352820152601760248201527f496e73756666696369656e74204e4f20726573657276650000000000000000006044820152fd5b87116117a0577f00000000000000000000000000000000000000000000000000000000000000007f00000000000000000000000000000000000000000000000000000000000000006001600160a01b0316803b1561179c578751637921219560e11b80825293905f818061165a89883033898601611b9d565b038183875af180156117925761177f575b506116816116798887611b90565b600654611b3e565b6006556116908a600754611b90565b600755813b156115785788518481528b908181806116d38f7f000000000000000000000000000000000000000000000000000000000000000033308a8601611b9d565b038183885af1801561157c5761176b575b5050866116f9575b5050505060209650611499565b908a9291813b15610ac1578388956117408c519788968795869485527f00000000000000000000000000000000000000000000000000000000000000009030908601611b9d565b03925af1801561155a57611757575b8080806116ec565b6117618891611a2f565b611556578661174f565b61177490611a2f565b611578578a5f6116e4565b61178a919b50611a2f565b5f995f61166b565b8a513d5f823e3d90fd5b5f80fd5b606490602087519162461bcd60e51b8352820152601860248201527f496e73756666696369656e7420594553207265736572766500000000000000006044820152fd5b865162461bcd60e51b8152602081840152601160248201527014db1a5c1c1859d948195e18d959591959607a1b6044820152606490fd5b5060075415156112eb565b823461179c575f36600319011261179c578051905f9260035460018160011c9160018116801561190f575b60209485851082146118fc57508387529081156118dc5750600114611882575b505050610ba282610bac940383611a57565b60035f9081529295507fc2575a0e9e593c00f959f8c92f12db2869c3395a3b0502d05e2516446f71f85b5b8284106118c95750505082610bac94610ba29282010194611870565b80548685018801529286019281016118ad565b60ff1916868501525050151560051b8301019250610ba282610bac611870565b602290634e487b7160e01b5f525260245ffd5b92607f1692611850565b903461179c57602036600319011261179c57359063ffffffff60e01b821680920361179c57602091630271189760e51b148152f35b602080825282518183018190529093925f5b82811061198157505060409293505f838284010152601f8019910116010190565b818101860151848201604001528501611960565b60043590811515820361179c57565b600435906001600160a01b038216820361179c57565b602435906001600160a01b038216820361179c57565b9181601f8401121561179c5782359167ffffffffffffffff831161179c576020808501948460051b01011161179c57565b9181601f8401121561179c5782359167ffffffffffffffff831161179c576020838186019501011161179c57565b67ffffffffffffffff8111611a4357604052565b634e487b7160e01b5f52604160045260245ffd5b90601f8019910116810190811067ffffffffffffffff821117611a4357604052565b15611a8057565b60405162461bcd60e51b815260206004820152601760248201527f416d6f756e74206d75737420626520706f7369746976650000000000000000006044820152606490fd5b15611acc57565b60405162461bcd60e51b815260206004820152600f60248201526e13585c9ad95d081c995cdbdb1d9959608a1b6044820152606490fd5b15611b0a57565b60405162461bcd60e51b815260206004820152600c60248201526b4e6f206c697175696469747960a01b6044820152606490fd5b91908201809211611b4b57565b634e487b7160e01b5f52601160045260245ffd5b81810292918115918404141715611b4b57565b8115611b7c570490565b634e487b7160e01b5f52601260045260245ffd5b91908203918211611b4b57565b929060c0949260018060a01b0380921685521660208401526040830152606082015260a060808201525f60a08201520190565b15611bd757565b60405162461bcd60e51b8152602060048201526015602482015274496e73756666696369656e7420726573657276657360581b6044820152606490fd5b60065460075490611c258282611b3e565b15611c545761271090818302918383041483151715611b4b57611c5192611c4b91611b3e565b90611b72565b90565b505061138890565b15611c6357565b60405162461bcd60e51b8152602060048201526016602482015275496e73756666696369656e74204c5020746f6b656e7360501b6044820152606490fd5b600260055414611cb2576002600555565b604051633ee5aeb560e01b8152600490fd5b916001600160a01b03808416928315611d735716928315611d5b57825f525f60205260405f205490828210611d295750815f80516020611e1883398151915292602092855f525f84520360405f2055845f5260405f20818154019055604051908152a3565b60405163391434e360e21b81526001600160a01b03919091166004820152602481019190915260448101829052606490fd5b60405163ec442f0560e01b81525f6004820152602490fd5b604051634b637e8f60e11b81525f6004820152602490fd5b91906001600160a01b038316908115611d7357815f525f60205260405f205493818510611de557506020815f80516020611e18833981519152925f95968587528684520360408620558060025403600255604051908152a3565b60405163391434e360e21b81526001600160a01b03919091166004820152602481018590526044810191909152606490fdfeddf252ad1be2c89b69c2b068fc378daa952ba7f163c4a11628f55a4df523b3efa2646970667358221220db43ef3fb1ed87eee1f33290e02ccf53c457e27a9a0873128eb1c2e80249bd2f64736f6c63430008180033a2646970667358221220c71c56fde8477f8b74d89c4378c71d625ac700680abe84113ce44ff424010a5b64736f6c63430008180033","opcodes":"PUSH1 0xC0 CALLVALUE PUSH2 0x1EC JUMPI PUSH1 0x1F PUSH2 0x333F CODESIZE DUP2 SWAP1 SUB SWAP2 DUP3 ADD PUSH1 0x1F NOT AND DUP4 ADD SWAP3 SWAP2 SWAP1 PUSH1 0x1 PUSH1 0x1 PUSH1 0x40 SHL SUB DUP5 GT DUP4 DUP6 LT OR PUSH2 0x1F0 JUMPI DUP2 PUSH1 0x60 SWAP3 DUP5 SWAP3 PUSH1 0x40 SWAP7 DUP8 MSTORE DUP4 CODECOPY DUP2 ADD SUB SLT PUSH2 0x1EC JUMPI PUSH2 0x4B DUP2 PUSH2 0x204 JUMP JUMPDEST SWAP1 PUSH2 0x63 DUP4 PUSH2 0x5C PUSH1 0x20 DUP5 ADD PUSH2 0x204 JUMP JUMPDEST SWAP3 ADD PUSH2 0x204 JUMP JUMPDEST SWAP1 CALLER ISZERO PUSH2 0x1D5 JUMPI PUSH0 DUP1 SLOAD PUSH1 0x1 PUSH1 0x1 PUSH1 0xA0 SHL SUB NOT DUP1 DUP3 AND CALLER SWAP1 DUP2 OR DUP5 SSTORE DUP8 MLOAD SWAP2 SWAP6 PUSH1 0x1 PUSH1 0x1 PUSH1 0xA0 SHL SUB SWAP5 SWAP1 SWAP4 DUP6 AND SWAP1 PUSH32 0x8BE0079C531659141344CD1FD0A4F28419497F9722A3DAAFE3B4186F6B6457E0 SWAP1 DUP1 LOG3 PUSH1 0x32 PUSH1 0x2 SSTORE PUSH2 0x1F4 PUSH1 0x3 SSTORE PUSH1 0xA PUSH1 0x4 SSTORE PUSH1 0xC8 PUSH1 0x5 SSTORE PUSH1 0x96 PUSH1 0x6 SSTORE PUSH1 0x32 PUSH1 0x7 SSTORE DUP3 DUP7 AND ISZERO PUSH2 0x19E JUMPI POP DUP2 DUP4 AND ISZERO PUSH2 0x16D JUMPI AND SWAP3 DUP4 ISZERO PUSH2 0x136 JUMPI PUSH1 0x80 MSTORE PUSH1 0xA0 MSTORE PUSH1 0x1 SLOAD AND OR PUSH1 0x1 SSTORE MLOAD PUSH2 0x3126 SWAP1 DUP2 PUSH2 0x219 DUP3 CODECOPY PUSH1 0x80 MLOAD DUP2 DUP2 DUP2 PUSH2 0x359 ADD MSTORE DUP2 DUP2 PUSH2 0x489 ADD MSTORE PUSH2 0x952 ADD MSTORE PUSH1 0xA0 MLOAD DUP2 DUP2 DUP2 PUSH2 0x337 ADD MSTORE DUP2 DUP2 PUSH2 0x83A ADD MSTORE PUSH2 0x930 ADD MSTORE RETURN JUMPDEST DUP5 MLOAD PUSH3 0x461BCD PUSH1 0xE5 SHL DUP2 MSTORE PUSH1 0x20 PUSH1 0x4 DUP3 ADD MSTORE PUSH1 0x10 PUSH1 0x24 DUP3 ADD MSTORE PUSH16 0x496E76616C6964207472656173757279 PUSH1 0x80 SHL PUSH1 0x44 DUP3 ADD MSTORE PUSH1 0x64 SWAP1 REVERT JUMPDEST DUP6 MLOAD PUSH3 0x461BCD PUSH1 0xE5 SHL DUP2 MSTORE PUSH1 0x20 PUSH1 0x4 DUP3 ADD MSTORE PUSH1 0xA PUSH1 0x24 DUP3 ADD MSTORE PUSH10 0x125B9D985B1A590810D5 PUSH1 0xB2 SHL PUSH1 0x44 DUP3 ADD MSTORE PUSH1 0x64 SWAP1 REVERT JUMPDEST PUSH3 0x461BCD PUSH1 0xE5 SHL DUP2 MSTORE PUSH1 0x20 PUSH1 0x4 DUP3 ADD MSTORE PUSH1 0x12 PUSH1 0x24 DUP3 ADD MSTORE PUSH18 0x125B9D985B1A590818DBDB1B185D195C985B PUSH1 0x72 SHL PUSH1 0x44 DUP3 ADD MSTORE PUSH1 0x64 SWAP1 REVERT JUMPDEST DUP4 MLOAD PUSH4 0x1E4FBDF7 PUSH1 0xE0 SHL DUP2 MSTORE PUSH0 PUSH1 0x4 DUP3 ADD MSTORE PUSH1 0x24 SWAP1 REVERT JUMPDEST PUSH0 DUP1 REVERT JUMPDEST PUSH4 0x4E487B71 PUSH1 0xE0 SHL PUSH0 MSTORE PUSH1 0x41 PUSH1 0x4 MSTORE PUSH1 0x24 PUSH0 REVERT JUMPDEST MLOAD SWAP1 PUSH1 0x1 PUSH1 0x1 PUSH1 0xA0 SHL SUB DUP3 AND DUP3 SUB PUSH2 0x1EC JUMPI JUMP INVALID PUSH1 0x80 PUSH1 0x40 DUP2 DUP2 MSTORE PUSH1 0x4 SWAP2 DUP3 CALLDATASIZE LT ISZERO PUSH3 0x16 JUMPI PUSH0 DUP1 REVERT JUMPDEST PUSH0 CALLDATALOAD PUSH1 0xE0 SHR SWAP1 DUP2 PUSH4 0x41D1DE97 EQ PUSH3 0xA28 JUMPI POP DUP1 PUSH4 0x421BCBDF EQ PUSH3 0xA08 JUMPI DUP1 PUSH4 0x5BC2A57E EQ PUSH3 0x869 JUMPI DUP1 PUSH4 0x5BD9E299 EQ PUSH3 0x824 JUMPI DUP1 PUSH4 0x5EE31C7C EQ PUSH3 0x804 JUMPI DUP1 PUSH4 0x61D027B3 EQ PUSH3 0x7DA JUMPI DUP1 PUSH4 0x66C6146D EQ PUSH3 0x6CF JUMPI DUP1 PUSH4 0x715018A6 EQ PUSH3 0x674 JUMPI DUP1 PUSH4 0x7F51BB1F EQ PUSH3 0x5C4 JUMPI DUP1 PUSH4 0x8DA5CB5B EQ PUSH3 0x59B JUMPI DUP1 PUSH4 0x8EEC5D70 EQ PUSH3 0x57B JUMPI DUP1 PUSH4 0xA3784E1D EQ PUSH3 0x4D8 JUMPI DUP1 PUSH4 0xABCE0CD5 EQ PUSH3 0x4B8 JUMPI DUP1 PUSH4 0xB2016BD4 EQ PUSH3 0x473 JUMPI DUP1 PUSH4 0xB5217BB4 EQ PUSH3 0x442 JUMPI DUP1 PUSH4 0xBDF57194 EQ PUSH3 0x23D JUMPI DUP1 PUSH4 0xD74FB90D EQ PUSH3 0x21D JUMPI DUP1 PUSH4 0xE904E09D EQ PUSH3 0x1FF JUMPI DUP1 PUSH4 0xF2FDE38B EQ PUSH3 0x170 JUMPI DUP1 PUSH4 0xF30853FB EQ PUSH3 0x150 JUMPI PUSH4 0xF6C00927 EQ PUSH3 0x11C JUMPI PUSH0 DUP1 REVERT JUMPDEST CALLVALUE PUSH3 0x14C JUMPI PUSH1 0x20 CALLDATASIZE PUSH1 0x3 NOT ADD SLT PUSH3 0x14C JUMPI PUSH1 0x20 SWAP2 CALLDATALOAD PUSH0 MSTORE PUSH1 0x8 DUP3 MSTORE PUSH1 0x1 DUP1 PUSH1 0xA0 SHL SUB DUP2 PUSH0 KECCAK256 SLOAD AND SWAP1 MLOAD SWAP1 DUP2 MSTORE RETURN JUMPDEST PUSH0 DUP1 REVERT JUMPDEST POP CALLVALUE PUSH3 0x14C JUMPI PUSH0 CALLDATASIZE PUSH1 0x3 NOT ADD SLT PUSH3 0x14C JUMPI PUSH1 0x20 SWAP1 PUSH1 0x2 SLOAD SWAP1 MLOAD SWAP1 DUP2 MSTORE RETURN JUMPDEST POP SWAP1 CALLVALUE PUSH3 0x14C JUMPI PUSH1 0x20 CALLDATASIZE PUSH1 0x3 NOT ADD SLT PUSH3 0x14C JUMPI PUSH3 0x18F PUSH3 0xB13 JUMP JUMPDEST SWAP1 PUSH3 0x19A PUSH3 0xD1D JUMP JUMPDEST PUSH1 0x1 PUSH1 0x1 PUSH1 0xA0 SHL SUB SWAP2 DUP3 AND SWAP3 DUP4 ISZERO PUSH3 0x1E9 JUMPI POP POP PUSH0 SLOAD DUP3 PUSH1 0x1 PUSH1 0x1 PUSH1 0x60 SHL SUB PUSH1 0xA0 SHL DUP3 AND OR PUSH0 SSTORE AND PUSH32 0x8BE0079C531659141344CD1FD0A4F28419497F9722A3DAAFE3B4186F6B6457E0 PUSH0 DUP1 LOG3 STOP JUMPDEST SWAP1 PUSH0 PUSH1 0x24 SWAP3 MLOAD SWAP2 PUSH4 0x1E4FBDF7 PUSH1 0xE0 SHL DUP4 MSTORE DUP3 ADD MSTORE REVERT JUMPDEST POP CALLVALUE PUSH3 0x14C JUMPI PUSH0 CALLDATASIZE PUSH1 0x3 NOT ADD SLT PUSH3 0x14C JUMPI PUSH1 0x20 SWAP2 SLOAD SWAP1 MLOAD SWAP1 DUP2 MSTORE RETURN JUMPDEST POP CALLVALUE PUSH3 0x14C JUMPI PUSH0 CALLDATASIZE PUSH1 0x3 NOT ADD SLT PUSH3 0x14C JUMPI PUSH1 0x20 SWAP1 PUSH1 0x6 SLOAD SWAP1 MLOAD SWAP1 DUP2 MSTORE RETURN JUMPDEST POP SWAP1 CALLVALUE PUSH3 0x14C JUMPI PUSH2 0x100 CALLDATASIZE PUSH1 0x3 NOT ADD SLT PUSH3 0x14C JUMPI PUSH8 0xFFFFFFFFFFFFFFFF SWAP2 DUP2 CALLDATALOAD DUP4 DUP2 GT PUSH3 0x14C JUMPI PUSH3 0x276 SWAP1 CALLDATASIZE SWAP1 DUP5 ADD PUSH3 0xA82 JUMP JUMPDEST SWAP2 PUSH1 0x24 CALLDATALOAD DUP5 DUP2 GT PUSH3 0x14C JUMPI PUSH3 0x291 SWAP1 CALLDATASIZE SWAP1 DUP4 ADD PUSH3 0xA82 JUMP JUMPDEST PUSH1 0x44 CALLDATALOAD SWAP2 PUSH3 0x29F PUSH3 0xAFC JUMP JUMPDEST SWAP6 PUSH1 0x84 CALLDATALOAD SWAP2 PUSH1 0xA4 CALLDATALOAD SWAP8 PUSH1 0xC4 CALLDATALOAD SWAP5 PUSH1 0xE4 CALLDATALOAD SWAP9 DUP8 PUSH0 MSTORE PUSH1 0x8 PUSH1 0x20 MSTORE PUSH1 0x1 DUP1 PUSH1 0xA0 SHL SUB SWAP5 PUSH3 0x2D1 DUP7 DUP12 PUSH0 KECCAK256 SLOAD AND ISZERO PUSH3 0xB2A JUMP JUMPDEST PUSH1 0x2 SLOAD DUP9 LT ISZERO DUP1 PUSH3 0x435 JUMPI JUMPDEST PUSH3 0x2E9 SWAP1 PUSH3 0xC9B JUMP JUMPDEST DUP5 SLOAD DUP12 LT ISZERO DUP1 PUSH3 0x428 JUMPI JUMPDEST PUSH3 0x300 SWAP1 PUSH3 0xCD9 JUMP JUMPDEST DUP6 PUSH1 0x1 SLOAD AND SWAP3 DUP11 MLOAD SWAP6 PUSH2 0x23A7 SWAP1 DUP2 DUP9 ADD SWAP4 DUP9 DUP6 LT SWAP1 DUP6 GT OR PUSH3 0x415 JUMPI POP DUP14 DUP10 DUP13 DUP16 SWAP5 SWAP7 PUSH3 0x37F SWAP9 SWAP7 DUP12 SWAP11 SWAP9 DUP16 SWAP7 PUSH3 0xD4A DUP14 CODECOPY PUSH32 0x0 SWAP3 PUSH32 0x0 SWAP3 PUSH3 0xBA5 JUMP JUMPDEST SUB SWAP1 PUSH0 CREATE DUP1 ISZERO PUSH3 0x40B JUMPI SWAP2 PUSH3 0x402 PUSH1 0x20 SWAP9 SWAP3 PUSH32 0x6A8809DEF78DC86B8283B720AA0252607294925C6A692DC5083E4A576A3844F8 SWAP5 AND SWAP8 DUP9 SWAP6 DUP8 PUSH0 MSTORE PUSH1 0x8 DUP12 MSTORE DUP9 PUSH0 KECCAK256 DUP8 PUSH1 0x1 PUSH1 0x1 PUSH1 0x60 SHL SUB PUSH1 0xA0 SHL DUP3 SLOAD AND OR SWAP1 SSTORE PUSH3 0x3E0 DUP8 PUSH3 0xC1D JUMP JUMPDEST DUP9 MLOAD SWAP5 DUP6 SWAP5 DUP6 SWAP1 SWAP5 SWAP4 SWAP3 PUSH1 0x60 SWAP3 PUSH1 0x80 DUP4 ADD SWAP7 DUP4 MSTORE PUSH1 0x20 DUP4 ADD MSTORE PUSH1 0x40 DUP3 ADD MSTORE ADD MSTORE JUMP JUMPDEST SUB SWAP1 LOG3 MLOAD SWAP1 DUP2 MSTORE RETURN JUMPDEST DUP6 MLOAD RETURNDATASIZE PUSH0 DUP3 RETURNDATACOPY RETURNDATASIZE SWAP1 REVERT JUMPDEST PUSH1 0x41 SWAP1 PUSH4 0x4E487B71 PUSH1 0xE0 SHL PUSH0 MSTORE MSTORE PUSH1 0x24 PUSH0 REVERT JUMPDEST POP PUSH1 0x5 SLOAD DUP12 GT ISZERO PUSH3 0x2F5 JUMP JUMPDEST POP PUSH1 0x3 SLOAD DUP9 GT ISZERO PUSH3 0x2DE JUMP JUMPDEST POP CALLVALUE PUSH3 0x14C JUMPI PUSH1 0x20 CALLDATASIZE PUSH1 0x3 NOT ADD SLT PUSH3 0x14C JUMPI PUSH1 0x20 SWAP2 CALLDATALOAD PUSH0 MSTORE PUSH1 0x8 DUP3 MSTORE PUSH1 0x1 DUP1 PUSH1 0xA0 SHL SUB DUP2 PUSH0 KECCAK256 SLOAD AND SWAP1 MLOAD SWAP1 DUP2 MSTORE RETURN JUMPDEST POP CALLVALUE PUSH3 0x14C JUMPI PUSH0 CALLDATASIZE PUSH1 0x3 NOT ADD SLT PUSH3 0x14C JUMPI MLOAD PUSH32 0x0 PUSH1 0x1 PUSH1 0x1 PUSH1 0xA0 SHL SUB AND DUP2 MSTORE PUSH1 0x20 SWAP1 RETURN JUMPDEST POP CALLVALUE PUSH3 0x14C JUMPI PUSH0 CALLDATASIZE PUSH1 0x3 NOT ADD SLT PUSH3 0x14C JUMPI PUSH1 0x20 SWAP1 PUSH1 0x3 SLOAD SWAP1 MLOAD SWAP1 DUP2 MSTORE RETURN JUMPDEST POP CALLVALUE PUSH3 0x14C JUMPI DUP1 PUSH1 0x3 NOT CALLDATASIZE ADD SLT PUSH3 0x14C JUMPI DUP2 PUSH32 0xD31DB2D23FE42D625FD61189088B6CA9E19F1D03ED676D9480FEE9705DFCA300 SWAP3 CALLDATALOAD SWAP1 PUSH1 0x24 CALLDATALOAD SWAP1 PUSH3 0x51E PUSH3 0xD1D JUMP JUMPDEST PUSH1 0x2 SLOAD DUP4 LT ISZERO DUP1 PUSH3 0x56E JUMPI JUMPDEST PUSH3 0x536 SWAP1 PUSH3 0xC9B JUMP JUMPDEST SLOAD DUP2 LT ISZERO DUP1 PUSH3 0x561 JUMPI JUMPDEST PUSH3 0x54C SWAP1 PUSH3 0xCD9 JUMP JUMPDEST DUP2 PUSH1 0x6 SSTORE DUP1 PUSH1 0x7 SSTORE DUP3 MLOAD SWAP2 DUP3 MSTORE PUSH1 0x20 DUP3 ADD MSTORE LOG1 STOP JUMPDEST POP PUSH1 0x5 SLOAD DUP2 GT ISZERO PUSH3 0x541 JUMP JUMPDEST POP PUSH1 0x3 SLOAD DUP4 GT ISZERO PUSH3 0x52B JUMP JUMPDEST POP CALLVALUE PUSH3 0x14C JUMPI PUSH0 CALLDATASIZE PUSH1 0x3 NOT ADD SLT PUSH3 0x14C JUMPI PUSH1 0x20 SWAP1 PUSH1 0x9 SLOAD SWAP1 MLOAD SWAP1 DUP2 MSTORE RETURN JUMPDEST POP CALLVALUE PUSH3 0x14C JUMPI PUSH0 CALLDATASIZE PUSH1 0x3 NOT ADD SLT PUSH3 0x14C JUMPI PUSH0 SLOAD SWAP1 MLOAD PUSH1 0x1 PUSH1 0x1 PUSH1 0xA0 SHL SUB SWAP1 SWAP2 AND DUP2 MSTORE PUSH1 0x20 SWAP1 RETURN JUMPDEST POP SWAP1 CALLVALUE PUSH3 0x14C JUMPI PUSH1 0x20 CALLDATASIZE PUSH1 0x3 NOT ADD SLT PUSH3 0x14C JUMPI PUSH3 0x5E3 PUSH3 0xB13 JUMP JUMPDEST PUSH3 0x5ED PUSH3 0xD1D JUMP JUMPDEST PUSH1 0x1 PUSH1 0x1 PUSH1 0xA0 SHL SUB AND SWAP1 DUP2 ISZERO PUSH3 0x63E JUMPI PUSH32 0x7DAE230F18360D76A040C81F050AA14EB9D6DC7901B20FC5D855E2A20FE814D1 PUSH1 0x20 DUP4 DUP6 DUP2 PUSH1 0x1 PUSH1 0x1 PUSH1 0x60 SHL SUB PUSH1 0xA0 SHL PUSH1 0x1 SLOAD AND OR PUSH1 0x1 SSTORE MLOAD SWAP1 DUP2 MSTORE LOG1 STOP JUMPDEST PUSH1 0x64 SWAP1 PUSH1 0x20 DUP5 MLOAD SWAP2 PUSH3 0x461BCD PUSH1 0xE5 SHL DUP4 MSTORE DUP3 ADD MSTORE PUSH1 0x10 PUSH1 0x24 DUP3 ADD MSTORE PUSH16 0x496E76616C6964207472656173757279 PUSH1 0x80 SHL PUSH1 0x44 DUP3 ADD MSTORE REVERT JUMPDEST CALLVALUE PUSH3 0x14C JUMPI PUSH0 CALLDATASIZE PUSH1 0x3 NOT ADD SLT PUSH3 0x14C JUMPI PUSH3 0x690 PUSH3 0xD1D JUMP JUMPDEST PUSH0 DUP1 SLOAD PUSH1 0x1 PUSH1 0x1 PUSH1 0xA0 SHL SUB NOT DUP2 AND DUP3 SSTORE PUSH1 0x1 PUSH1 0x1 PUSH1 0xA0 SHL SUB AND PUSH32 0x8BE0079C531659141344CD1FD0A4F28419497F9722A3DAAFE3B4186F6B6457E0 DUP3 DUP1 LOG3 STOP JUMPDEST POP SWAP1 CALLVALUE PUSH3 0x14C JUMPI PUSH1 0x80 CALLDATASIZE PUSH1 0x3 NOT ADD SLT PUSH3 0x14C JUMPI DUP1 CALLDATALOAD PUSH1 0x24 CALLDATALOAD SWAP2 PUSH1 0x44 CALLDATALOAD PUSH1 0x64 CALLDATALOAD SWAP2 PUSH3 0x6FB PUSH3 0xD1D JUMP JUMPDEST DUP5 DUP5 GT PUSH3 0x7A4 JUMPI DUP3 DUP3 GT PUSH3 0x768 JUMPI SWAP1 PUSH32 0x7729779159307CA6C59CD8533245B6B4B8F92AB117061A96DEE2B18C6EFC8249 SWAP6 DUP2 PUSH3 0x763 SWAP5 SWAP4 DUP7 PUSH1 0x2 SSTORE DUP8 PUSH1 0x3 SSTORE SSTORE DUP3 PUSH1 0x5 SSTORE MLOAD SWAP5 DUP6 SWAP5 DUP6 SWAP1 SWAP5 SWAP4 SWAP3 PUSH1 0x60 SWAP3 PUSH1 0x80 DUP4 ADD SWAP7 DUP4 MSTORE PUSH1 0x20 DUP4 ADD MSTORE PUSH1 0x40 DUP3 ADD MSTORE ADD MSTORE JUMP JUMPDEST SUB SWAP1 LOG1 STOP JUMPDEST PUSH1 0x64 SWAP1 PUSH1 0x20 DUP8 MLOAD SWAP2 PUSH3 0x461BCD PUSH1 0xE5 SHL DUP4 MSTORE DUP3 ADD MSTORE PUSH1 0x16 PUSH1 0x24 DUP3 ADD MSTORE PUSH22 0x496E76616C69642070726F746F636F6C2072616E6765 PUSH1 0x50 SHL PUSH1 0x44 DUP3 ADD MSTORE REVERT JUMPDEST PUSH1 0x64 SWAP1 PUSH1 0x20 DUP8 MLOAD SWAP2 PUSH3 0x461BCD PUSH1 0xE5 SHL DUP4 MSTORE DUP3 ADD MSTORE PUSH1 0x10 PUSH1 0x24 DUP3 ADD MSTORE PUSH16 0x496E76616C6964204C502072616E6765 PUSH1 0x80 SHL PUSH1 0x44 DUP3 ADD MSTORE REVERT JUMPDEST POP CALLVALUE PUSH3 0x14C JUMPI PUSH0 CALLDATASIZE PUSH1 0x3 NOT ADD SLT PUSH3 0x14C JUMPI PUSH1 0x1 SLOAD SWAP1 MLOAD PUSH1 0x1 PUSH1 0x1 PUSH1 0xA0 SHL SUB SWAP1 SWAP2 AND DUP2 MSTORE PUSH1 0x20 SWAP1 RETURN JUMPDEST POP CALLVALUE PUSH3 0x14C JUMPI PUSH0 CALLDATASIZE PUSH1 0x3 NOT ADD SLT PUSH3 0x14C JUMPI PUSH1 0x20 SWAP1 PUSH1 0x5 SLOAD SWAP1 MLOAD SWAP1 DUP2 MSTORE RETURN JUMPDEST POP CALLVALUE PUSH3 0x14C JUMPI PUSH0 CALLDATASIZE PUSH1 0x3 NOT ADD SLT PUSH3 0x14C JUMPI MLOAD PUSH32 0x0 PUSH1 0x1 PUSH1 0x1 PUSH1 0xA0 SHL SUB AND DUP2 MSTORE PUSH1 0x20 SWAP1 RETURN JUMPDEST POP CALLVALUE PUSH3 0x14C JUMPI PUSH1 0xC0 CALLDATASIZE PUSH1 0x3 NOT ADD SLT PUSH3 0x14C JUMPI PUSH8 0xFFFFFFFFFFFFFFFF SWAP1 DUP3 CALLDATALOAD DUP3 DUP2 GT PUSH3 0x14C JUMPI PUSH3 0x8A0 SWAP1 CALLDATASIZE SWAP1 DUP6 ADD PUSH3 0xA82 JUMP JUMPDEST SWAP3 PUSH1 0x24 CALLDATALOAD DUP4 DUP2 GT PUSH3 0x14C JUMPI PUSH3 0x8BB SWAP1 CALLDATASIZE SWAP1 DUP4 ADD PUSH3 0xA82 JUMP JUMPDEST PUSH1 0x44 CALLDATALOAD SWAP2 PUSH3 0x8C9 PUSH3 0xAFC JUMP JUMPDEST PUSH1 0x84 CALLDATALOAD SWAP3 PUSH1 0xA4 CALLDATALOAD SWAP7 DUP6 PUSH0 MSTORE PUSH1 0x8 PUSH1 0x20 MSTORE PUSH1 0x1 DUP1 PUSH1 0xA0 SHL SUB SWAP9 PUSH3 0x8F2 DUP11 DUP10 PUSH0 KECCAK256 SLOAD AND ISZERO PUSH3 0xB2A JUMP JUMPDEST PUSH1 0x6 SLOAD SWAP1 PUSH1 0x7 SLOAD SWAP3 DUP12 PUSH1 0x1 SLOAD AND SWAP5 DUP11 MLOAD SWAP8 PUSH2 0x23A7 SWAP1 DUP2 DUP11 ADD SWAP4 DUP11 DUP6 LT SWAP1 DUP6 GT OR PUSH3 0x415 JUMPI POP DUP11 DUP10 SWAP9 SWAP7 SWAP5 PUSH3 0x978 SWAP9 SWAP7 SWAP5 DUP16 SWAP5 DUP14 SWAP5 PUSH3 0xD4A DUP14 CODECOPY PUSH32 0x0 SWAP3 PUSH32 0x0 SWAP3 PUSH3 0xBA5 JUMP JUMPDEST SUB SWAP1 PUSH0 CREATE DUP1 ISZERO PUSH3 0x9FE JUMPI PUSH1 0x20 SWAP6 PUSH32 0x6A8809DEF78DC86B8283B720AA0252607294925C6A692DC5083E4A576A3844F8 SWAP2 AND SWAP5 DUP6 SWAP3 DUP5 PUSH0 MSTORE PUSH1 0x8 DUP9 MSTORE DUP6 PUSH0 KECCAK256 DUP5 PUSH1 0x1 PUSH1 0x1 PUSH1 0x60 SHL SUB PUSH1 0xA0 SHL DUP3 SLOAD AND OR SWAP1 SSTORE PUSH3 0x9D3 DUP5 PUSH3 0xC1D JUMP JUMPDEST PUSH1 0x6 SLOAD PUSH1 0x7 SLOAD DUP8 MLOAD SWAP3 DUP4 MSTORE PUSH1 0x20 DUP4 ADD SWAP4 SWAP1 SWAP4 MSTORE PUSH1 0x40 DUP3 ADD MSTORE PUSH1 0x60 DUP2 ADD SWAP2 SWAP1 SWAP2 MSTORE DUP1 PUSH1 0x80 DUP2 ADD PUSH3 0x402 JUMP JUMPDEST DUP4 MLOAD RETURNDATASIZE PUSH0 DUP3 RETURNDATACOPY RETURNDATASIZE SWAP1 REVERT JUMPDEST POP CALLVALUE PUSH3 0x14C JUMPI PUSH0 CALLDATASIZE PUSH1 0x3 NOT ADD SLT PUSH3 0x14C JUMPI PUSH1 0x20 SWAP1 PUSH1 0x7 SLOAD SWAP1 MLOAD SWAP1 DUP2 MSTORE RETURN JUMPDEST DUP4 CALLVALUE PUSH3 0x14C JUMPI PUSH1 0x20 CALLDATASIZE PUSH1 0x3 NOT ADD SLT PUSH3 0x14C JUMPI CALLDATALOAD SWAP1 PUSH1 0x9 SLOAD DUP3 LT ISZERO PUSH3 0x14C JUMPI PUSH1 0x9 PUSH0 MSTORE PUSH32 0x6E1540171B6C0C960B71A7020D9F60077F6AF931A8BBF590DA0223DACF75C7AF SWAP1 SWAP2 ADD SLOAD PUSH1 0x1 PUSH1 0x1 PUSH1 0xA0 SHL SUB AND DUP2 MSTORE PUSH1 0x20 SWAP1 RETURN JUMPDEST DUP2 PUSH1 0x1F DUP3 ADD SLT ISZERO PUSH3 0x14C JUMPI DUP1 CALLDATALOAD SWAP1 PUSH8 0xFFFFFFFFFFFFFFFF SWAP3 DUP4 DUP4 GT PUSH3 0xAE8 JUMPI PUSH1 0x40 MLOAD SWAP4 PUSH1 0x1F DUP5 ADD PUSH1 0x1F NOT SWAP1 DUP2 AND PUSH1 0x3F ADD AND DUP6 ADD SWAP1 DUP2 GT DUP6 DUP3 LT OR PUSH3 0xAE8 JUMPI PUSH1 0x40 MSTORE DUP3 DUP5 MSTORE PUSH1 0x20 DUP4 DUP4 ADD ADD GT PUSH3 0x14C JUMPI DUP2 PUSH0 SWAP3 PUSH1 0x20 DUP1 SWAP4 ADD DUP4 DUP7 ADD CALLDATACOPY DUP4 ADD ADD MSTORE SWAP1 JUMP JUMPDEST PUSH4 0x4E487B71 PUSH1 0xE0 SHL PUSH0 MSTORE PUSH1 0x41 PUSH1 0x4 MSTORE PUSH1 0x24 PUSH0 REVERT JUMPDEST PUSH1 0x64 CALLDATALOAD SWAP1 PUSH1 0x1 PUSH1 0x1 PUSH1 0xA0 SHL SUB DUP3 AND DUP3 SUB PUSH3 0x14C JUMPI JUMP JUMPDEST PUSH1 0x4 CALLDATALOAD SWAP1 PUSH1 0x1 PUSH1 0x1 PUSH1 0xA0 SHL SUB DUP3 AND DUP3 SUB PUSH3 0x14C JUMPI JUMP JUMPDEST ISZERO PUSH3 0xB32 JUMPI JUMP JUMPDEST PUSH1 0x40 MLOAD PUSH3 0x461BCD PUSH1 0xE5 SHL DUP2 MSTORE PUSH1 0x20 PUSH1 0x4 DUP3 ADD MSTORE PUSH1 0xB PUSH1 0x24 DUP3 ADD MSTORE PUSH11 0x506F6F6C20657869737473 PUSH1 0xA8 SHL PUSH1 0x44 DUP3 ADD MSTORE PUSH1 0x64 SWAP1 REVERT JUMPDEST SWAP2 SWAP1 DUP3 MLOAD SWAP3 DUP4 DUP3 MSTORE PUSH0 JUMPDEST DUP5 DUP2 LT PUSH3 0xB90 JUMPI POP POP DUP3 PUSH0 PUSH1 0x20 DUP1 SWAP5 SWAP6 DUP5 ADD ADD MSTORE PUSH1 0x1F DUP1 NOT SWAP2 ADD AND ADD ADD SWAP1 JUMP JUMPDEST PUSH1 0x20 DUP2 DUP4 ADD DUP2 ADD MLOAD DUP5 DUP4 ADD DUP3 ADD MSTORE ADD PUSH3 0xB6F JUMP JUMPDEST SWAP10 SWAP5 DUP11 SWAP9 SWAP4 PUSH3 0xBDE PUSH2 0x140 SWAP12 SWAP7 SWAP15 SWAP14 SWAP10 SWAP5 PUSH3 0xBCF PUSH1 0x40 SWAP11 SWAP6 DUP14 PUSH2 0x160 SWAP1 DUP2 DUP2 MSTORE ADD SWAP1 PUSH3 0xB65 JUMP JUMPDEST DUP13 DUP2 SUB PUSH1 0x20 DUP15 ADD MSTORE SWAP1 PUSH3 0xB65 JUMP JUMPDEST SWAP14 PUSH1 0x1 DUP1 PUSH1 0xA0 SHL SUB SWAP11 DUP12 SWAP10 DUP11 DUP1 SWAP5 AND SWAP2 ADD MSTORE AND PUSH1 0x60 DUP13 ADD MSTORE PUSH1 0x80 DUP12 ADD MSTORE PUSH1 0xA0 DUP11 ADD MSTORE PUSH1 0xC0 DUP10 ADD MSTORE PUSH1 0xE0 DUP9 ADD MSTORE PUSH2 0x100 DUP8 ADD MSTORE AND PUSH2 0x120 DUP6 ADD MSTORE AND SWAP2 ADD MSTORE JUMP JUMPDEST PUSH1 0x9 SLOAD PUSH9 0x10000000000000000 DUP2 LT ISZERO PUSH3 0xAE8 JUMPI PUSH1 0x1 DUP2 ADD DUP1 PUSH1 0x9 SSTORE DUP2 LT ISZERO PUSH3 0xC87 JUMPI PUSH1 0x9 PUSH0 MSTORE PUSH32 0x6E1540171B6C0C960B71A7020D9F60077F6AF931A8BBF590DA0223DACF75C7AF ADD DUP1 SLOAD PUSH1 0x1 PUSH1 0x1 PUSH1 0xA0 SHL SUB NOT AND PUSH1 0x1 PUSH1 0x1 PUSH1 0xA0 SHL SUB SWAP1 SWAP3 AND SWAP2 SWAP1 SWAP2 OR SWAP1 SSTORE JUMP JUMPDEST PUSH4 0x4E487B71 PUSH1 0xE0 SHL PUSH0 MSTORE PUSH1 0x32 PUSH1 0x4 MSTORE PUSH1 0x24 PUSH0 REVERT JUMPDEST ISZERO PUSH3 0xCA3 JUMPI JUMP JUMPDEST PUSH1 0x40 MLOAD PUSH3 0x461BCD PUSH1 0xE5 SHL DUP2 MSTORE PUSH1 0x20 PUSH1 0x4 DUP3 ADD MSTORE PUSH1 0xE PUSH1 0x24 DUP3 ADD MSTORE PUSH14 0x496E76616C6964204C5020666565 PUSH1 0x90 SHL PUSH1 0x44 DUP3 ADD MSTORE PUSH1 0x64 SWAP1 REVERT JUMPDEST ISZERO PUSH3 0xCE1 JUMPI JUMP JUMPDEST PUSH1 0x40 MLOAD PUSH3 0x461BCD PUSH1 0xE5 SHL DUP2 MSTORE PUSH1 0x20 PUSH1 0x4 DUP3 ADD MSTORE PUSH1 0x14 PUSH1 0x24 DUP3 ADD MSTORE PUSH20 0x496E76616C69642070726F746F636F6C20666565 PUSH1 0x60 SHL PUSH1 0x44 DUP3 ADD MSTORE PUSH1 0x64 SWAP1 REVERT JUMPDEST PUSH0 SLOAD PUSH1 0x1 PUSH1 0x1 PUSH1 0xA0 SHL SUB AND CALLER SUB PUSH3 0xD31 JUMPI JUMP JUMPDEST PUSH1 0x40 MLOAD PUSH4 0x118CDAA7 PUSH1 0xE0 SHL DUP2 MSTORE CALLER PUSH1 0x4 DUP3 ADD MSTORE PUSH1 0x24 SWAP1 REVERT INVALID PUSH2 0x1A0 PUSH1 0x40 MSTORE CALLVALUE PUSH3 0x48A JUMPI PUSH3 0x23A7 DUP1 CODESIZE SUB DUP1 PUSH3 0x1E DUP2 PUSH3 0x48E JUMP JUMPDEST SWAP3 DUP4 CODECOPY DUP2 ADD PUSH2 0x160 DUP1 DUP4 DUP4 SUB SLT PUSH3 0x48A JUMPI DUP3 MLOAD PUSH1 0x1 PUSH1 0x1 PUSH1 0x40 SHL SUB SWAP2 SWAP1 DUP3 DUP2 GT PUSH3 0x48A JUMPI DUP4 PUSH3 0x52 SWAP2 DUP7 ADD PUSH3 0x4B4 JUMP JUMPDEST SWAP4 PUSH1 0x20 DUP1 DUP3 ADD MLOAD DUP5 DUP2 GT PUSH3 0x48A JUMPI PUSH3 0xBE SWAP6 PUSH3 0x73 SWAP2 DUP5 ADD PUSH3 0x4B4 JUMP JUMPDEST SWAP1 PUSH3 0x82 PUSH1 0x40 DUP5 ADD PUSH3 0x524 JUMP JUMPDEST PUSH3 0x90 PUSH1 0x60 DUP6 ADD PUSH3 0x524 JUMP JUMPDEST SWAP1 PUSH1 0x80 DUP6 ADD MLOAD PUSH1 0xA0 DUP7 ADD MLOAD SWAP1 PUSH1 0xC0 DUP8 ADD MLOAD SWAP3 PUSH1 0xE0 DUP9 ADD MLOAD SWAP5 PUSH2 0x100 SWAP13 DUP14 DUP11 ADD MLOAD SWAP8 PUSH2 0x120 SWAP14 DUP15 DUP13 ADD PUSH3 0x524 JUMP JUMPDEST SWAP13 PUSH3 0xCF PUSH2 0x140 DUP1 SWAP14 ADD PUSH3 0x524 JUMP JUMPDEST SWAP11 DUP4 MLOAD DUP3 DUP2 GT PUSH3 0x395 JUMPI PUSH1 0x3 SWAP2 DUP3 SLOAD SWAP2 PUSH1 0x1 SWAP7 DUP8 DUP5 DUP2 SHR SWAP5 AND DUP1 ISZERO PUSH3 0x47F JUMPI JUMPDEST DUP8 DUP6 LT EQ PUSH3 0x46B JUMPI DUP2 SWAP1 PUSH1 0x1F SWAP5 DUP6 DUP2 GT PUSH3 0x418 JUMPI JUMPDEST POP DUP8 SWAP1 DUP6 DUP4 GT PUSH1 0x1 EQ PUSH3 0x3B5 JUMPI PUSH0 SWAP3 PUSH3 0x3A9 JUMPI JUMPDEST POP POP PUSH0 NOT DUP3 DUP7 SHL SHR NOT AND SWAP1 DUP8 SHL OR DUP4 SSTORE JUMPDEST DUP1 MLOAD SWAP4 DUP5 GT PUSH3 0x395 JUMPI PUSH1 0x4 SWAP5 DUP6 SLOAD DUP8 DUP2 DUP2 SHR SWAP2 AND DUP1 ISZERO PUSH3 0x38A JUMPI JUMPDEST DUP3 DUP3 LT EQ PUSH3 0x377 JUMPI SWAP1 DUP2 DUP5 DUP8 SWAP7 SWAP6 SWAP5 SWAP4 GT PUSH3 0x31E JUMPI JUMPDEST POP DUP1 SWAP3 DUP6 GT PUSH1 0x1 EQ PUSH3 0x2B4 JUMPI POP PUSH0 SWAP4 PUSH3 0x2A8 JUMPI JUMPDEST POP POP DUP3 DUP6 SHL SWAP3 PUSH0 NOT SWAP2 SHL SHR NOT AND OR SWAP1 SSTORE JUMPDEST PUSH1 0x5 SSTORE PUSH1 0x1 PUSH1 0x1 PUSH1 0xA0 SHL SUB SWAP2 DUP3 AND PUSH1 0x80 MSTORE AND PUSH1 0xA0 MSTORE PUSH1 0xC0 MSTORE PUSH1 0xE0 MSTORE DUP9 MSTORE DUP4 MSTORE DUP4 MSTORE PUSH2 0x180 SWAP4 DUP5 MSTORE DUP5 MSTORE PUSH1 0x40 MLOAD PUSH2 0x1E6D SWAP6 SWAP1 SWAP5 SWAP1 DUP7 PUSH3 0x53A DUP8 CODECOPY PUSH1 0x80 MLOAD DUP7 PUSH2 0x545 ADD MSTORE PUSH1 0xA0 MLOAD DUP7 DUP2 DUP2 PUSH2 0x345 ADD MSTORE DUP2 DUP2 PUSH2 0x5E9 ADD MSTORE DUP2 DUP2 PUSH2 0x96E ADD MSTORE DUP2 DUP2 PUSH2 0xE47 ADD MSTORE DUP2 DUP2 PUSH2 0x13AB ADD MSTORE PUSH2 0x160A ADD MSTORE PUSH1 0xC0 MLOAD DUP7 PUSH2 0x105E ADD MSTORE PUSH1 0xE0 MLOAD DUP7 DUP2 DUP2 PUSH2 0x322 ADD MSTORE DUP2 DUP2 PUSH2 0x62F ADD MSTORE DUP2 DUP2 PUSH2 0x9B5 ADD MSTORE DUP2 DUP2 PUSH2 0x1099 ADD MSTORE DUP2 DUP2 PUSH2 0x144E ADD MSTORE PUSH2 0x15E9 ADD MSTORE MLOAD DUP6 DUP2 DUP2 PUSH2 0x3DC ADD MSTORE DUP2 DUP2 PUSH2 0x688 ADD MSTORE DUP2 DUP2 PUSH2 0xA11 ADD MSTORE DUP2 DUP2 PUSH2 0xE0F ADD MSTORE DUP2 DUP2 PUSH2 0x138A ADD MSTORE PUSH2 0x16AA ADD MSTORE MLOAD DUP5 DUP2 DUP2 PUSH2 0xD2E ADD MSTORE PUSH2 0xECA ADD MSTORE MLOAD DUP4 DUP2 DUP2 PUSH2 0x1A3 ADD MSTORE DUP2 DUP2 PUSH2 0xCBA ADD MSTORE PUSH2 0x12F6 ADD MSTORE MLOAD DUP3 DUP2 DUP2 PUSH2 0xC99 ADD MSTORE DUP2 DUP2 PUSH2 0xE8E ADD MSTORE PUSH2 0x1325 ADD MSTORE MLOAD DUP2 DUP2 DUP2 PUSH2 0xDC8 ADD MSTORE DUP2 DUP2 PUSH2 0x1502 ADD MSTORE PUSH2 0x1717 ADD MSTORE RETURN JUMPDEST ADD MLOAD SWAP2 POP PUSH0 DUP1 PUSH3 0x17A JUMP JUMPDEST SWAP3 SWAP2 SWAP1 DUP8 SWAP6 POP PUSH1 0x1F NOT DUP6 AND DUP8 PUSH0 MSTORE DUP5 PUSH0 KECCAK256 SWAP5 PUSH0 SWAP1 JUMPDEST DUP3 DUP3 LT PUSH3 0x304 JUMPI POP POP DUP6 GT PUSH3 0x2EA JUMPI JUMPDEST POP POP POP POP DUP2 SHL ADD SWAP1 SSTORE PUSH3 0x18B JUMP JUMPDEST ADD MLOAD SWAP1 PUSH1 0xF8 DUP5 PUSH0 NOT SWAP3 SHL AND SHR NOT AND SWAP1 SSTORE PUSH0 DUP1 DUP1 DUP1 PUSH3 0x2DB JUMP JUMPDEST DUP5 DUP5 ADD MLOAD DUP8 SSTORE DUP11 SWAP9 SWAP1 SWAP7 ADD SWAP6 SWAP4 DUP5 ADD SWAP4 SWAP1 DUP2 ADD SWAP1 PUSH3 0x2C9 JUMP JUMPDEST SWAP1 SWAP2 SWAP3 SWAP4 SWAP5 POP DUP7 PUSH0 MSTORE DUP2 PUSH0 KECCAK256 DUP5 DUP1 DUP9 ADD PUSH1 0x5 SHR DUP3 ADD SWAP3 DUP5 DUP10 LT PUSH3 0x36D JUMPI JUMPDEST SWAP2 DUP11 SWAP2 DUP10 SWAP9 SWAP8 SWAP7 SWAP6 SWAP5 SWAP4 ADD PUSH1 0x5 SHR ADD SWAP2 JUMPDEST DUP3 DUP2 LT PUSH3 0x35E JUMPI POP POP PUSH3 0x164 JUMP JUMPDEST PUSH0 DUP2 SSTORE DUP9 SWAP8 POP DUP11 SWAP2 ADD PUSH3 0x34E JUMP JUMPDEST SWAP3 POP DUP2 SWAP3 PUSH3 0x33D JUMP JUMPDEST PUSH1 0x22 DUP8 PUSH4 0x4E487B71 PUSH1 0xE0 SHL PUSH0 MSTORE MSTORE PUSH1 0x24 PUSH0 REVERT JUMPDEST SWAP1 PUSH1 0x7F AND SWAP1 PUSH3 0x14C JUMP JUMPDEST PUSH4 0x4E487B71 PUSH1 0xE0 SHL PUSH0 MSTORE PUSH1 0x41 PUSH1 0x4 MSTORE PUSH1 0x24 PUSH0 REVERT JUMPDEST ADD MLOAD SWAP1 POP PUSH0 DUP1 PUSH3 0x11E JUMP JUMPDEST SWAP1 DUP10 SWAP4 POP PUSH1 0x1F NOT DUP4 AND SWAP2 DUP8 PUSH0 MSTORE DUP10 PUSH0 KECCAK256 SWAP3 PUSH0 JUMPDEST DUP12 DUP3 DUP3 LT PUSH3 0x401 JUMPI POP POP DUP5 GT PUSH3 0x3E9 JUMPI JUMPDEST POP POP POP DUP2 SHL ADD DUP4 SSTORE PUSH3 0x12F JUMP JUMPDEST ADD MLOAD PUSH0 NOT DUP4 DUP9 SHL PUSH1 0xF8 AND SHR NOT AND SWAP1 SSTORE PUSH0 DUP1 DUP1 PUSH3 0x3DB JUMP JUMPDEST DUP4 DUP6 ADD MLOAD DUP7 SSTORE DUP14 SWAP8 SWAP1 SWAP6 ADD SWAP5 SWAP4 DUP5 ADD SWAP4 ADD PUSH3 0x3C8 JUMP JUMPDEST SWAP1 SWAP2 POP DUP6 PUSH0 MSTORE DUP8 PUSH0 KECCAK256 DUP6 DUP1 DUP6 ADD PUSH1 0x5 SHR DUP3 ADD SWAP3 DUP11 DUP7 LT PUSH3 0x461 JUMPI JUMPDEST SWAP2 DUP12 SWAP2 DUP7 SWAP6 SWAP5 SWAP4 ADD PUSH1 0x5 SHR ADD SWAP2 JUMPDEST DUP3 DUP2 LT PUSH3 0x452 JUMPI POP POP PUSH3 0x108 JUMP JUMPDEST PUSH0 DUP2 SSTORE DUP6 SWAP5 POP DUP12 SWAP2 ADD PUSH3 0x442 JUMP JUMPDEST SWAP3 POP DUP2 SWAP3 PUSH3 0x434 JUMP JUMPDEST PUSH4 0x4E487B71 PUSH1 0xE0 SHL PUSH0 MSTORE PUSH1 0x22 PUSH1 0x4 MSTORE PUSH1 0x24 PUSH0 REVERT JUMPDEST SWAP4 PUSH1 0x7F AND SWAP4 PUSH3 0xF1 JUMP JUMPDEST PUSH0 DUP1 REVERT JUMPDEST PUSH1 0x40 MLOAD SWAP2 SWAP1 PUSH1 0x1F ADD PUSH1 0x1F NOT AND DUP3 ADD PUSH1 0x1 PUSH1 0x1 PUSH1 0x40 SHL SUB DUP2 GT DUP4 DUP3 LT OR PUSH3 0x395 JUMPI PUSH1 0x40 MSTORE JUMP JUMPDEST SWAP2 SWAP1 DUP1 PUSH1 0x1F DUP5 ADD SLT ISZERO PUSH3 0x48A JUMPI DUP3 MLOAD PUSH1 0x1 PUSH1 0x1 PUSH1 0x40 SHL SUB DUP2 GT PUSH3 0x395 JUMPI PUSH1 0x20 SWAP1 PUSH3 0x4EA PUSH1 0x1F DUP3 ADD PUSH1 0x1F NOT AND DUP4 ADD PUSH3 0x48E JUMP JUMPDEST SWAP3 DUP2 DUP5 MSTORE DUP3 DUP3 DUP8 ADD ADD GT PUSH3 0x48A JUMPI PUSH0 JUMPDEST DUP2 DUP2 LT PUSH3 0x510 JUMPI POP DUP3 PUSH0 SWAP4 SWAP5 SWAP6 POP ADD ADD MSTORE SWAP1 JUMP JUMPDEST DUP6 DUP2 ADD DUP4 ADD MLOAD DUP5 DUP3 ADD DUP5 ADD MSTORE DUP3 ADD PUSH3 0x4FB JUMP JUMPDEST MLOAD SWAP1 PUSH1 0x1 PUSH1 0x1 PUSH1 0xA0 SHL SUB DUP3 AND DUP3 SUB PUSH3 0x48A JUMPI JUMP INVALID PUSH1 0x80 PUSH1 0x40 DUP2 DUP2 MSTORE PUSH1 0x4 SWAP2 DUP3 CALLDATASIZE LT ISZERO PUSH2 0x15 JUMPI PUSH0 DUP1 REVERT JUMPDEST PUSH0 SWAP3 PUSH0 CALLDATALOAD PUSH1 0xE0 SHR SWAP2 DUP3 PUSH4 0x1FFC9A7 EQ PUSH2 0x1919 JUMPI POP DUP2 PUSH4 0x6FDDE03 EQ PUSH2 0x1825 JUMPI DUP2 PUSH4 0x8C84C21 EQ PUSH2 0x129D JUMPI DUP2 PUSH4 0x902F1AC EQ PUSH2 0x1278 JUMPI DUP2 PUSH4 0x95EA7B3 EQ PUSH2 0x11CE JUMPI DUP2 PUSH4 0x18160DDD EQ PUSH2 0x11AF JUMPI DUP2 PUSH4 0x23B872DD EQ PUSH2 0x10BC JUMPI DUP2 PUSH4 0x2474B6BC EQ PUSH2 0x1081 JUMPI DUP2 PUSH4 0x2DDC7DE7 EQ PUSH2 0x1046 JUMPI DUP2 PUSH4 0x313CE567 EQ PUSH2 0x102A JUMPI DUP2 PUSH4 0x3F6FA655 EQ PUSH2 0x1006 JUMPI DUP2 PUSH4 0x4F896D4F EQ PUSH2 0xEB1 JUMPI DUP2 PUSH4 0x58F85880 EQ PUSH2 0xE76 JUMPI DUP2 PUSH4 0x5BD9E299 EQ PUSH2 0xE32 JUMPI DUP2 PUSH4 0x60E30D9E EQ PUSH2 0xDF7 JUMPI DUP2 PUSH4 0x61D027B3 EQ PUSH2 0xDB3 JUMPI DUP2 PUSH4 0x70A08231 EQ PUSH2 0xD7C JUMPI DUP2 PUSH4 0x72A9FA6E EQ PUSH2 0xD5D JUMPI DUP2 PUSH4 0x7DC0D1D0 EQ PUSH2 0xD19 JUMPI DUP2 PUSH4 0x827B6508 EQ PUSH2 0xC6D JUMPI DUP2 PUSH4 0x8779086F EQ PUSH2 0xC49 JUMPI DUP2 PUSH4 0x95D89B41 EQ PUSH2 0xB44 JUMPI DUP2 PUSH4 0x9B34AE03 EQ PUSH2 0xB25 JUMPI DUP2 PUSH4 0x9C8F9F23 EQ PUSH2 0x8C7 JUMPI DUP2 PUSH4 0x9CD441DA EQ PUSH2 0x5A5 JUMPI DUP2 PUSH4 0xA9059CBB EQ PUSH2 0x574 JUMPI DUP2 PUSH4 0xB2016BD4 EQ PUSH2 0x530 JUMPI DUP2 PUSH4 0xB2670D74 EQ PUSH2 0x511 JUMPI DUP2 PUSH4 0xBC197C81 EQ PUSH2 0x487 JUMPI DUP2 PUSH4 0xBDEDA833 EQ PUSH2 0x271 JUMPI DUP2 PUSH4 0xDD62ED3E EQ PUSH2 0x224 JUMPI DUP2 PUSH4 0xF23A6E61 EQ PUSH2 0x1CA JUMPI POP PUSH4 0xF5B9848D EQ PUSH2 0x18D JUMPI PUSH0 DUP1 REVERT JUMPDEST CALLVALUE PUSH2 0x1C6 JUMPI DUP2 PUSH1 0x3 NOT CALLDATASIZE ADD SLT PUSH2 0x1C6 JUMPI PUSH1 0x20 SWAP1 MLOAD PUSH32 0x0 DUP2 MSTORE RETURN JUMPDEST POP DUP1 REVERT JUMPDEST DUP3 DUP5 CALLVALUE PUSH2 0x221 JUMPI PUSH1 0xA0 CALLDATASIZE PUSH1 0x3 NOT ADD SLT PUSH2 0x221 JUMPI PUSH2 0x1E5 PUSH2 0x19A4 JUMP JUMPDEST POP PUSH2 0x1EE PUSH2 0x19BA JUMP JUMPDEST POP PUSH1 0x84 CALLDATALOAD SWAP1 PUSH8 0xFFFFFFFFFFFFFFFF DUP3 GT PUSH2 0x221 JUMPI POP PUSH1 0x20 SWAP3 PUSH2 0x212 SWAP2 CALLDATASIZE SWAP2 ADD PUSH2 0x1A01 JUMP JUMPDEST POP POP MLOAD PUSH4 0xF23A6E61 PUSH1 0xE0 SHL DUP2 MSTORE RETURN JUMPDEST DUP1 REVERT JUMPDEST POP POP CALLVALUE PUSH2 0x1C6 JUMPI DUP1 PUSH1 0x3 NOT CALLDATASIZE ADD SLT PUSH2 0x1C6 JUMPI PUSH1 0x20 SWAP2 PUSH2 0x241 PUSH2 0x19A4 JUMP JUMPDEST DUP3 PUSH2 0x24A PUSH2 0x19BA JUMP JUMPDEST PUSH1 0x1 PUSH1 0x1 PUSH1 0xA0 SHL SUB SWAP3 DUP4 AND DUP5 MSTORE PUSH1 0x1 DUP7 MSTORE SWAP3 KECCAK256 SWAP2 AND PUSH0 SWAP1 DUP2 MSTORE SWAP1 DUP4 MSTORE DUP2 SWAP1 KECCAK256 SLOAD SWAP1 MLOAD SWAP1 DUP2 MSTORE RETURN JUMPDEST SWAP2 SWAP1 POP CALLVALUE PUSH2 0x3CB JUMPI PUSH1 0x20 CALLDATASIZE PUSH1 0x3 NOT ADD SLT PUSH2 0x3CB JUMPI DUP2 CALLDATALOAD SWAP2 PUSH2 0x290 PUSH2 0x1CA1 JUMP JUMPDEST PUSH1 0xFF PUSH1 0x8 SLOAD AND ISZERO PUSH2 0x44F JUMPI PUSH2 0x2A6 DUP4 ISZERO ISZERO PUSH2 0x1A79 JUMP JUMPDEST CALLER DUP5 MSTORE DUP4 PUSH1 0x20 MSTORE PUSH2 0x2BC DUP4 DUP4 DUP7 KECCAK256 SLOAD LT ISZERO PUSH2 0x1C5C JUMP JUMPDEST PUSH1 0x2 SLOAD SWAP3 PUSH2 0x2CB DUP5 ISZERO ISZERO PUSH2 0x1B03 JUMP JUMPDEST PUSH2 0x2EE PUSH1 0x1 PUSH1 0x9 SLOAD EQ SWAP5 DUP6 PUSH0 EQ PUSH2 0x444 JUMPI PUSH2 0x2E9 PUSH1 0x6 SLOAD JUMPDEST DUP5 PUSH2 0x1B5F JUMP JUMPDEST PUSH2 0x1B72 JUMP JUMPDEST SWAP4 DUP5 ISZERO PUSH2 0x415 JUMPI PUSH2 0x315 SWAP2 SWAP1 ISZERO PUSH2 0x401 JUMPI PUSH2 0x30B DUP6 PUSH1 0x6 SLOAD PUSH2 0x1B90 JUMP JUMPDEST PUSH1 0x6 SSTORE JUMPDEST CALLER PUSH2 0x1D8B JUMP JUMPDEST PUSH1 0x9 SLOAD PUSH1 0x1 SUB PUSH2 0x3D9 JUMPI DUP4 PUSH32 0x0 SWAP2 JUMPDEST PUSH32 0x0 PUSH1 0x1 PUSH1 0x1 PUSH1 0xA0 SHL SUB AND DUP1 EXTCODESIZE ISZERO PUSH2 0x3CB JUMPI PUSH2 0x399 SWAP4 DUP4 DUP8 SWAP4 DUP8 MLOAD SWAP7 DUP8 SWAP6 DUP7 SWAP5 DUP6 SWAP4 PUSH4 0x79212195 PUSH1 0xE1 SHL DUP6 MSTORE CALLER SWAP1 ADDRESS SWAP1 DUP7 ADD PUSH2 0x1B9D JUMP JUMPDEST SUB SWAP3 GAS CALL DUP1 ISZERO PUSH2 0x3CF JUMPI PUSH2 0x3B7 JUMPI JUMPDEST PUSH1 0x20 DUP4 DUP4 PUSH1 0x1 PUSH1 0x5 SSTORE MLOAD SWAP1 DUP2 MSTORE RETURN JUMPDEST PUSH2 0x3C1 DUP5 SWAP2 PUSH2 0x1A2F JUMP JUMPDEST PUSH2 0x3CB JUMPI DUP3 PUSH2 0x3A8 JUMP JUMPDEST DUP3 DUP1 REVERT JUMPDEST DUP3 MLOAD RETURNDATASIZE DUP7 DUP3 RETURNDATACOPY RETURNDATASIZE SWAP1 REVERT JUMPDEST DUP4 PUSH32 0x0 SWAP2 PUSH2 0x343 JUMP JUMPDEST PUSH2 0x40D DUP6 PUSH1 0x7 SLOAD PUSH2 0x1B90 JUMP JUMPDEST PUSH1 0x7 SSTORE PUSH2 0x30F JUMP JUMPDEST DUP4 MLOAD PUSH3 0x461BCD PUSH1 0xE5 SHL DUP2 MSTORE PUSH1 0x20 DUP2 DUP6 ADD MSTORE PUSH1 0x9 PUSH1 0x24 DUP3 ADD MSTORE PUSH9 0x139BC81C185E5BDD5D PUSH1 0xBA SHL PUSH1 0x44 DUP3 ADD MSTORE PUSH1 0x64 SWAP1 REVERT JUMPDEST PUSH2 0x2E9 PUSH1 0x7 SLOAD PUSH2 0x2E3 JUMP JUMPDEST PUSH1 0x20 PUSH1 0x64 SWAP3 MLOAD SWAP2 PUSH3 0x461BCD PUSH1 0xE5 SHL DUP4 MSTORE DUP3 ADD MSTORE PUSH1 0x13 PUSH1 0x24 DUP3 ADD MSTORE PUSH19 0x13585C9AD95D081B9BDD081C995CDBDB1D9959 PUSH1 0x6A SHL PUSH1 0x44 DUP3 ADD MSTORE REVERT JUMPDEST DUP3 DUP5 CALLVALUE PUSH2 0x221 JUMPI PUSH1 0xA0 CALLDATASIZE PUSH1 0x3 NOT ADD SLT PUSH2 0x221 JUMPI PUSH2 0x4A2 PUSH2 0x19A4 JUMP JUMPDEST POP PUSH2 0x4AB PUSH2 0x19BA JUMP JUMPDEST POP PUSH8 0xFFFFFFFFFFFFFFFF SWAP1 PUSH1 0x44 CALLDATALOAD DUP3 DUP2 GT PUSH2 0x1C6 JUMPI PUSH2 0x4CD SWAP1 CALLDATASIZE SWAP1 DUP7 ADD PUSH2 0x19D0 JUMP JUMPDEST POP POP PUSH1 0x64 CALLDATALOAD DUP3 DUP2 GT PUSH2 0x1C6 JUMPI PUSH2 0x4E6 SWAP1 CALLDATASIZE SWAP1 DUP7 ADD PUSH2 0x19D0 JUMP JUMPDEST POP POP PUSH1 0x84 CALLDATALOAD SWAP2 DUP3 GT PUSH2 0x221 JUMPI POP PUSH1 0x20 SWAP3 PUSH2 0x502 SWAP2 CALLDATASIZE SWAP2 ADD PUSH2 0x1A01 JUMP JUMPDEST POP POP MLOAD PUSH4 0xBC197C81 PUSH1 0xE0 SHL DUP2 MSTORE RETURN JUMPDEST POP POP CALLVALUE PUSH2 0x1C6 JUMPI DUP2 PUSH1 0x3 NOT CALLDATASIZE ADD SLT PUSH2 0x1C6 JUMPI PUSH1 0x20 SWAP1 PUSH1 0x6 SLOAD SWAP1 MLOAD SWAP1 DUP2 MSTORE RETURN JUMPDEST POP POP CALLVALUE PUSH2 0x1C6 JUMPI DUP2 PUSH1 0x3 NOT CALLDATASIZE ADD SLT PUSH2 0x1C6 JUMPI MLOAD PUSH32 0x0 PUSH1 0x1 PUSH1 0x1 PUSH1 0xA0 SHL SUB AND DUP2 MSTORE PUSH1 0x20 SWAP1 RETURN JUMPDEST POP POP CALLVALUE PUSH2 0x1C6 JUMPI DUP1 PUSH1 0x3 NOT CALLDATASIZE ADD SLT PUSH2 0x1C6 JUMPI PUSH1 0x20 SWAP1 PUSH2 0x59E PUSH2 0x594 PUSH2 0x19A4 JUMP JUMPDEST PUSH1 0x24 CALLDATALOAD SWAP1 CALLER PUSH2 0x1CC4 JUMP JUMPDEST MLOAD PUSH1 0x1 DUP2 MSTORE RETURN JUMPDEST SWAP2 SWAP1 POP CALLVALUE PUSH2 0x3CB JUMPI DUP1 PUSH1 0x3 NOT CALLDATASIZE ADD SLT PUSH2 0x3CB JUMPI DUP2 CALLDATALOAD PUSH1 0x24 CALLDATALOAD SWAP4 PUSH2 0x5C6 PUSH2 0x1CA1 JUMP JUMPDEST DUP2 ISZERO ISZERO DUP1 PUSH2 0x8BE JUMPI JUMPDEST PUSH2 0x5D8 SWAP1 PUSH2 0x1A79 JUMP JUMPDEST PUSH2 0x5E7 PUSH1 0xFF PUSH1 0x8 SLOAD AND ISZERO PUSH2 0x1AC5 JUMP JUMPDEST PUSH32 0x0 PUSH1 0x1 PUSH1 0x1 PUSH1 0xA0 SHL SUB AND DUP1 EXTCODESIZE ISZERO PUSH2 0x1C6 JUMPI DUP4 MLOAD PUSH4 0x79212195 PUSH1 0xE1 SHL DUP1 DUP3 MSTORE SWAP1 DUP4 DUP2 DUP1 PUSH2 0x658 DUP9 PUSH32 0x0 ADDRESS CALLER DUP15 DUP7 ADD PUSH2 0x1B9D JUMP JUMPDEST SUB DUP2 DUP4 DUP8 GAS CALL DUP1 ISZERO PUSH2 0x8B4 JUMPI SWAP1 DUP5 SWAP2 PUSH2 0x8A0 JUMPI JUMPDEST POP POP DUP2 EXTCODESIZE ISZERO PUSH2 0x3CB JUMPI DUP5 MLOAD SWAP1 DUP2 MSTORE SWAP1 DUP3 SWAP1 DUP3 SWAP1 DUP2 DUP4 DUP2 PUSH2 0x6B1 DUP13 PUSH32 0x0 ADDRESS CALLER DUP16 DUP7 ADD PUSH2 0x1B9D JUMP JUMPDEST SUB SWAP3 GAS CALL DUP1 ISZERO PUSH2 0x896 JUMPI SWAP1 DUP3 SWAP2 PUSH2 0x882 JUMPI JUMPDEST POP POP PUSH1 0x2 SLOAD SWAP1 DUP2 PUSH2 0x855 JUMPI PUSH2 0x6D8 DUP7 DUP5 PUSH2 0x1B3E JUMP JUMPDEST SWAP2 PUSH2 0x3E8 SWAP1 DUP2 DUP5 LT PUSH2 0x812 JUMPI DUP2 DUP2 ADD DUP1 SWAP2 GT PUSH2 0x7FF JUMPI PUSH0 DUP1 MLOAD PUSH1 0x20 PUSH2 0x1E18 DUP4 CODECOPY DUP2 MLOAD SWAP2 MSTORE PUSH1 0x20 PUSH1 0x1 SWAP4 PUSH0 SWAP4 PUSH1 0x2 SSTORE DUP5 DUP5 MSTORE DUP4 DUP3 MSTORE DUP9 DUP5 KECCAK256 DUP2 DUP2 SLOAD ADD SWAP1 SSTORE DUP9 MLOAD SWAP1 DUP2 MSTORE LOG3 PUSH2 0x3E7 NOT DUP3 ADD SWAP2 DUP3 GT PUSH2 0x7EC JUMPI POP SWAP3 JUMPDEST PUSH2 0x736 DUP5 ISZERO ISZERO PUSH2 0x1C5C JUMP JUMPDEST PUSH2 0x742 DUP3 PUSH1 0x6 SLOAD PUSH2 0x1B3E JUMP JUMPDEST PUSH1 0x6 SSTORE PUSH2 0x751 DUP6 PUSH1 0x7 SLOAD PUSH2 0x1B3E JUMP JUMPDEST PUSH1 0x7 SSTORE CALLER ISZERO PUSH2 0x7D6 JUMPI POP PUSH32 0x64B83944E79C3CE8D4C297411DE637C3E102D064677AAC0C163976EBDCD6F50E DUP4 PUSH1 0x20 SWAP6 PUSH2 0x78C DUP3 PUSH1 0x2 SLOAD PUSH2 0x1B3E JUMP JUMPDEST PUSH1 0x2 SSTORE CALLER PUSH0 MSTORE PUSH0 DUP8 MSTORE DUP5 PUSH0 KECCAK256 DUP3 DUP2 SLOAD ADD SWAP1 SSTORE DUP5 MLOAD DUP3 DUP2 MSTORE PUSH0 PUSH0 DUP1 MLOAD PUSH1 0x20 PUSH2 0x1E18 DUP4 CODECOPY DUP2 MLOAD SWAP2 MSTORE DUP10 CALLER SWAP4 LOG3 DUP5 MLOAD SWAP4 DUP5 MSTORE PUSH1 0x20 DUP5 ADD MSTORE PUSH1 0x40 DUP4 ADD MSTORE CALLER SWAP2 PUSH1 0x60 SWAP1 LOG2 PUSH1 0x1 PUSH1 0x5 SSTORE MLOAD SWAP1 DUP2 MSTORE RETURN JUMPDEST PUSH1 0x24 SWAP1 PUSH0 DUP5 MLOAD SWAP2 PUSH4 0xEC442F05 PUSH1 0xE0 SHL DUP4 MSTORE DUP3 ADD MSTORE REVERT JUMPDEST PUSH4 0x4E487B71 PUSH1 0xE0 SHL DUP2 MSTORE PUSH1 0x11 DUP6 MSTORE PUSH1 0x24 SWAP1 REVERT JUMPDEST PUSH1 0x11 DUP8 PUSH4 0x4E487B71 PUSH1 0xE0 SHL PUSH0 MSTORE MSTORE PUSH1 0x24 PUSH0 REVERT JUMPDEST DUP6 MLOAD PUSH3 0x461BCD PUSH1 0xE5 SHL DUP2 MSTORE PUSH1 0x20 DUP2 DUP10 ADD MSTORE PUSH1 0x1E PUSH1 0x24 DUP3 ADD MSTORE PUSH32 0x496E73756666696369656E7420696E697469616C206C69717569646974790000 PUSH1 0x44 DUP3 ADD MSTORE PUSH1 0x64 SWAP1 REVERT JUMPDEST POP PUSH2 0x87C SWAP1 PUSH2 0x2E9 PUSH2 0x86C PUSH1 0x6 SLOAD PUSH1 0x7 SLOAD SWAP1 PUSH2 0x1B3E JUMP JUMPDEST SWAP2 PUSH2 0x877 DUP9 DUP7 PUSH2 0x1B3E JUMP JUMPDEST PUSH2 0x1B5F JUMP JUMPDEST SWAP3 PUSH2 0x72B JUMP JUMPDEST PUSH2 0x88B SWAP1 PUSH2 0x1A2F JUMP JUMPDEST PUSH2 0x221 JUMPI DUP1 PUSH0 PUSH2 0x6C3 JUMP JUMPDEST DUP5 MLOAD RETURNDATASIZE DUP5 DUP3 RETURNDATACOPY RETURNDATASIZE SWAP1 REVERT JUMPDEST PUSH2 0x8A9 SWAP1 PUSH2 0x1A2F JUMP JUMPDEST PUSH2 0x3CB JUMPI DUP3 PUSH0 PUSH2 0x66C JUMP JUMPDEST DUP7 MLOAD RETURNDATASIZE DUP7 DUP3 RETURNDATACOPY RETURNDATASIZE SWAP1 REVERT JUMPDEST POP DUP5 ISZERO ISZERO PUSH2 0x5CF JUMP JUMPDEST DUP4 SWAP2 POP CALLVALUE PUSH2 0x1C6 JUMPI PUSH1 0x20 CALLDATASIZE PUSH1 0x3 NOT ADD SLT PUSH2 0x1C6 JUMPI DUP1 CALLDATALOAD PUSH2 0x8E5 PUSH2 0x1CA1 JUMP JUMPDEST PUSH2 0x8F0 DUP2 ISZERO ISZERO PUSH2 0x1A79 JUMP JUMPDEST CALLER DUP4 MSTORE DUP3 PUSH1 0x20 MSTORE PUSH2 0x906 DUP2 DUP6 DUP6 KECCAK256 SLOAD LT ISZERO PUSH2 0x1C5C JUMP JUMPDEST PUSH1 0x2 SLOAD SWAP3 PUSH2 0x915 DUP5 ISZERO ISZERO PUSH2 0x1B03 JUMP JUMPDEST PUSH1 0x6 SLOAD SWAP3 PUSH2 0x927 DUP6 PUSH2 0x2E9 DUP7 DUP7 PUSH2 0x1B5F JUMP JUMPDEST SWAP5 PUSH2 0x939 PUSH1 0x7 SLOAD SWAP2 PUSH2 0x2E9 DUP4 DUP8 PUSH2 0x1B5F JUMP JUMPDEST SWAP5 DUP7 ISZERO ISZERO DUP1 PUSH2 0xB1C JUMPI JUMPDEST ISZERO PUSH2 0xAE3 JUMPI PUSH2 0x95F SWAP2 PUSH2 0x957 DUP9 DUP9 SWAP4 PUSH2 0x1B90 JUMP JUMPDEST PUSH1 0x6 SSTORE PUSH2 0x1B90 JUMP JUMPDEST PUSH1 0x7 SSTORE PUSH2 0x96C DUP4 CALLER PUSH2 0x1D8B JUMP JUMPDEST PUSH32 0x0 PUSH1 0x1 PUSH1 0x1 PUSH1 0xA0 SHL SUB AND SWAP1 DUP2 EXTCODESIZE ISZERO PUSH2 0x3CB JUMPI DUP7 MLOAD PUSH4 0x79212195 PUSH1 0xE1 SHL DUP1 DUP3 MSTORE SWAP1 DUP5 DUP2 DUP1 PUSH2 0x9DE DUP12 PUSH32 0x0 CALLER ADDRESS DUP11 DUP7 ADD PUSH2 0x1B9D JUMP JUMPDEST SUB DUP2 DUP4 DUP9 GAS CALL DUP1 ISZERO PUSH2 0xAD9 JUMPI SWAP1 DUP6 SWAP2 PUSH2 0xAC5 JUMPI JUMPDEST POP POP DUP3 EXTCODESIZE ISZERO PUSH2 0xAC1 JUMPI PUSH2 0xA3C SWAP3 DUP5 SWAP3 DUP4 DUP9 SWAP4 DUP12 MLOAD SWAP7 DUP8 SWAP6 DUP7 SWAP5 DUP6 SWAP4 DUP5 MSTORE PUSH32 0x0 SWAP1 CALLER SWAP1 ADDRESS SWAP1 DUP7 ADD PUSH2 0x1B9D JUMP JUMPDEST SUB SWAP3 GAS CALL DUP1 ISZERO PUSH2 0xAB7 JUMPI PUSH2 0xAA3 JUMPI JUMPDEST POP POP PUSH32 0x1DC8BB69DF2B8E91FBDCBFCF93D951B3F0000F085A95FE3F7946D6161439245D DUP5 MLOAD DUP1 PUSH2 0xA8F CALLER SWAP5 DUP7 DUP9 DUP5 PUSH1 0x40 SWAP2 SWAP5 SWAP4 SWAP3 PUSH1 0x60 DUP3 ADD SWAP6 DUP3 MSTORE PUSH1 0x20 DUP3 ADD MSTORE ADD MSTORE JUMP JUMPDEST SUB SWAP1 LOG2 PUSH1 0x1 PUSH1 0x5 SSTORE DUP3 MLOAD SWAP2 DUP3 MSTORE PUSH1 0x20 DUP3 ADD MSTORE RETURN JUMPDEST PUSH2 0xAAD DUP3 SWAP2 PUSH2 0x1A2F JUMP JUMPDEST PUSH2 0x221 JUMPI DUP1 PUSH2 0xA4B JUMP JUMPDEST DUP7 MLOAD RETURNDATASIZE DUP5 DUP3 RETURNDATACOPY RETURNDATASIZE SWAP1 REVERT JUMPDEST DUP4 DUP1 REVERT JUMPDEST PUSH2 0xACE SWAP1 PUSH2 0x1A2F JUMP JUMPDEST PUSH2 0xAC1 JUMPI DUP4 DUP10 PUSH2 0x9F2 JUMP JUMPDEST DUP10 MLOAD RETURNDATASIZE DUP8 DUP3 RETURNDATACOPY RETURNDATASIZE SWAP1 REVERT JUMPDEST DUP8 MLOAD PUSH3 0x461BCD PUSH1 0xE5 SHL DUP2 MSTORE PUSH1 0x20 DUP2 DUP6 ADD MSTORE PUSH1 0x13 PUSH1 0x24 DUP3 ADD MSTORE PUSH19 0x125B9CDD59999A58DA595B9D081BDD5D1C1D5D PUSH1 0x6A SHL PUSH1 0x44 DUP3 ADD MSTORE PUSH1 0x64 SWAP1 REVERT JUMPDEST POP DUP6 ISZERO ISZERO PUSH2 0x943 JUMP JUMPDEST POP POP CALLVALUE PUSH2 0x1C6 JUMPI DUP2 PUSH1 0x3 NOT CALLDATASIZE ADD SLT PUSH2 0x1C6 JUMPI PUSH1 0x20 SWAP1 PUSH1 0x9 SLOAD SWAP1 MLOAD SWAP1 DUP2 MSTORE RETURN JUMPDEST DUP4 DUP4 CALLVALUE PUSH2 0x1C6 JUMPI DUP2 PUSH1 0x3 NOT CALLDATASIZE ADD SLT PUSH2 0x1C6 JUMPI DUP1 MLOAD SWAP2 DUP1 SWAP4 DUP1 SLOAD SWAP2 PUSH1 0x1 SWAP1 DUP4 PUSH1 0x1 SHR SWAP3 PUSH1 0x1 DUP6 AND SWAP5 DUP6 ISZERO PUSH2 0xC3F JUMPI JUMPDEST PUSH1 0x20 SWAP6 DUP7 DUP7 LT DUP2 EQ PUSH2 0xC2C JUMPI DUP6 DUP10 MSTORE SWAP1 DUP2 ISZERO PUSH2 0xC08 JUMPI POP PUSH1 0x1 EQ PUSH2 0xBB0 JUMPI JUMPDEST PUSH2 0xBAC DUP8 DUP8 PUSH2 0xBA2 DUP3 DUP13 SUB DUP4 PUSH2 0x1A57 JUMP JUMPDEST MLOAD SWAP2 DUP3 SWAP2 DUP3 PUSH2 0x194E JUMP JUMPDEST SUB SWAP1 RETURN JUMPDEST DUP2 MSTORE SWAP3 SWAP6 POP PUSH32 0x8A35ACFBC15FF81A39AE7D344FD709F28E8600B4AA8C65C6B64BFE7FE36BD19B JUMPDEST DUP3 DUP5 LT PUSH2 0xBF5 JUMPI POP POP POP DUP3 PUSH2 0xBAC SWAP5 PUSH2 0xBA2 SWAP3 DUP3 ADD ADD SWAP5 DUP7 DUP1 PUSH2 0xB91 JUMP JUMPDEST DUP1 SLOAD DUP7 DUP6 ADD DUP9 ADD MSTORE SWAP3 DUP7 ADD SWAP3 DUP2 ADD PUSH2 0xBD7 JUMP JUMPDEST PUSH1 0xFF NOT AND DUP9 DUP8 ADD MSTORE POP POP POP POP ISZERO ISZERO PUSH1 0x5 SHL DUP4 ADD ADD SWAP3 POP PUSH2 0xBA2 DUP3 PUSH2 0xBAC DUP7 DUP1 PUSH2 0xB91 JUMP JUMPDEST PUSH4 0x4E487B71 PUSH1 0xE0 SHL DUP5 MSTORE PUSH1 0x22 DUP4 MSTORE PUSH1 0x24 DUP5 REVERT JUMPDEST SWAP4 PUSH1 0x7F AND SWAP4 PUSH2 0xB72 JUMP JUMPDEST POP POP CALLVALUE PUSH2 0x1C6 JUMPI DUP2 PUSH1 0x3 NOT CALLDATASIZE ADD SLT PUSH2 0x1C6 JUMPI PUSH1 0x20 SWAP1 PUSH2 0xC66 PUSH2 0x1C14 JUMP JUMPDEST SWAP1 MLOAD SWAP1 DUP2 MSTORE RETURN JUMPDEST DUP3 DUP5 CALLVALUE PUSH2 0x221 JUMPI DUP2 PUSH1 0x3 NOT CALLDATASIZE ADD SLT PUSH2 0x221 JUMPI POP PUSH2 0xC88 PUSH2 0x1995 JUMP JUMPDEST PUSH1 0x24 CALLDATALOAD PUSH2 0xCE6 PUSH2 0x2710 PUSH2 0xCDE PUSH2 0x2E3 PUSH32 0x0 PUSH32 0x0 PUSH2 0x1B3E JUMP JUMPDEST DIV DUP1 SWAP3 PUSH2 0x1B90 JUMP JUMPDEST SWAP2 ISZERO PUSH2 0xD06 JUMPI PUSH2 0xCFA PUSH1 0x7 SLOAD DUP4 GT ISZERO PUSH2 0x1BD0 JUMP JUMPDEST DUP3 MLOAD SWAP2 DUP3 MSTORE PUSH1 0x20 DUP3 ADD MSTORE RETURN JUMPDEST PUSH2 0xD14 PUSH1 0x6 SLOAD DUP4 GT ISZERO PUSH2 0x1BD0 JUMP JUMPDEST PUSH2 0xCFA JUMP JUMPDEST POP POP CALLVALUE PUSH2 0x1C6 JUMPI DUP2 PUSH1 0x3 NOT CALLDATASIZE ADD SLT PUSH2 0x1C6 JUMPI MLOAD PUSH32 0x0 PUSH1 0x1 PUSH1 0x1 PUSH1 0xA0 SHL SUB AND DUP2 MSTORE PUSH1 0x20 SWAP1 RETURN JUMPDEST POP POP CALLVALUE PUSH2 0x1C6 JUMPI DUP2 PUSH1 0x3 NOT CALLDATASIZE ADD SLT PUSH2 0x1C6 JUMPI PUSH1 0x20 SWAP1 PUSH1 0x7 SLOAD SWAP1 MLOAD SWAP1 DUP2 MSTORE RETURN JUMPDEST POP POP CALLVALUE PUSH2 0x1C6 JUMPI PUSH1 0x20 CALLDATASIZE PUSH1 0x3 NOT ADD SLT PUSH2 0x1C6 JUMPI PUSH1 0x20 SWAP2 DUP2 SWAP1 PUSH1 0x1 PUSH1 0x1 PUSH1 0xA0 SHL SUB PUSH2 0xDA4 PUSH2 0x19A4 JUMP JUMPDEST AND DUP2 MSTORE DUP1 DUP5 MSTORE KECCAK256 SLOAD SWAP1 MLOAD SWAP1 DUP2 MSTORE RETURN JUMPDEST POP POP CALLVALUE PUSH2 0x1C6 JUMPI DUP2 PUSH1 0x3 NOT CALLDATASIZE ADD SLT PUSH2 0x1C6 JUMPI MLOAD PUSH32 0x0 PUSH1 0x1 PUSH1 0x1 PUSH1 0xA0 SHL SUB AND DUP2 MSTORE PUSH1 0x20 SWAP1 RETURN JUMPDEST POP POP CALLVALUE PUSH2 0x1C6 JUMPI DUP2 PUSH1 0x3 NOT CALLDATASIZE ADD SLT PUSH2 0x1C6 JUMPI PUSH1 0x20 SWAP1 MLOAD PUSH32 0x0 DUP2 MSTORE RETURN JUMPDEST POP POP CALLVALUE PUSH2 0x1C6 JUMPI DUP2 PUSH1 0x3 NOT CALLDATASIZE ADD SLT PUSH2 0x1C6 JUMPI MLOAD PUSH32 0x0 PUSH1 0x1 PUSH1 0x1 PUSH1 0xA0 SHL SUB AND DUP2 MSTORE PUSH1 0x20 SWAP1 RETURN JUMPDEST POP POP CALLVALUE PUSH2 0x1C6 JUMPI DUP2 PUSH1 0x3 NOT CALLDATASIZE ADD SLT PUSH2 0x1C6 JUMPI PUSH1 0x20 SWAP1 MLOAD PUSH32 0x0 DUP2 MSTORE RETURN JUMPDEST SWAP2 SWAP1 POP CALLVALUE PUSH2 0x3CB JUMPI PUSH1 0x20 CALLDATASIZE PUSH1 0x3 NOT ADD SLT PUSH2 0x3CB JUMPI DUP2 CALLDATALOAD SWAP2 PUSH32 0x0 PUSH1 0x1 PUSH1 0x1 PUSH1 0xA0 SHL SUB AND CALLER SUB PUSH2 0xFC4 JUMPI PUSH1 0x8 SLOAD SWAP1 PUSH1 0xFF DUP3 AND PUSH2 0xF8E JUMPI DUP4 ISZERO DUP1 ISZERO PUSH2 0xF84 JUMPI JUMPDEST ISZERO PUSH2 0xF4F JUMPI POP PUSH1 0xFF NOT AND PUSH1 0x1 OR PUSH1 0x8 SSTORE PUSH1 0x9 DUP3 SWAP1 SSTORE MLOAD SWAP1 DUP2 MSTORE PUSH32 0x93608ECBCF057462DA63F5AEF413CE7F78C5E1B3BB51859D77A40845ECE2BFC3 SWAP1 PUSH1 0x20 SWAP1 LOG1 DUP1 RETURN JUMPDEST PUSH1 0x64 SWAP1 PUSH1 0x20 DUP5 MLOAD SWAP2 PUSH3 0x461BCD PUSH1 0xE5 SHL DUP4 MSTORE DUP3 ADD MSTORE PUSH1 0xF PUSH1 0x24 DUP3 ADD MSTORE PUSH15 0x496E76616C6964206F7574636F6D65 PUSH1 0x88 SHL PUSH1 0x44 DUP3 ADD MSTORE REVERT JUMPDEST POP PUSH1 0x1 DUP5 EQ PUSH2 0xF0D JUMP JUMPDEST PUSH1 0x64 SWAP1 PUSH1 0x20 DUP5 MLOAD SWAP2 PUSH3 0x461BCD PUSH1 0xE5 SHL DUP4 MSTORE DUP3 ADD MSTORE PUSH1 0x10 PUSH1 0x24 DUP3 ADD MSTORE PUSH16 0x105B1C9958591E481C995CDBDB1D9959 PUSH1 0x82 SHL PUSH1 0x44 DUP3 ADD MSTORE REVERT JUMPDEST PUSH1 0x20 PUSH1 0x64 SWAP3 MLOAD SWAP2 PUSH3 0x461BCD PUSH1 0xE5 SHL DUP4 MSTORE DUP3 ADD MSTORE PUSH1 0x17 PUSH1 0x24 DUP3 ADD MSTORE PUSH32 0x4F6E6C79206F7261636C652063616E207265736F6C7665000000000000000000 PUSH1 0x44 DUP3 ADD MSTORE REVERT JUMPDEST POP POP CALLVALUE PUSH2 0x1C6 JUMPI DUP2 PUSH1 0x3 NOT CALLDATASIZE ADD SLT PUSH2 0x1C6 JUMPI PUSH1 0x20 SWAP1 PUSH1 0xFF PUSH1 0x8 SLOAD AND SWAP1 MLOAD SWAP1 ISZERO ISZERO DUP2 MSTORE RETURN JUMPDEST POP POP CALLVALUE PUSH2 0x1C6 JUMPI DUP2 PUSH1 0x3 NOT CALLDATASIZE ADD SLT PUSH2 0x1C6 JUMPI PUSH1 0x20 SWAP1 MLOAD PUSH1 0x12 DUP2 MSTORE RETURN JUMPDEST POP POP CALLVALUE PUSH2 0x1C6 JUMPI DUP2 PUSH1 0x3 NOT CALLDATASIZE ADD SLT PUSH2 0x1C6 JUMPI PUSH1 0x20 SWAP1 MLOAD PUSH32 0x0 DUP2 MSTORE RETURN JUMPDEST POP POP CALLVALUE PUSH2 0x1C6 JUMPI DUP2 PUSH1 0x3 NOT CALLDATASIZE ADD SLT PUSH2 0x1C6 JUMPI PUSH1 0x20 SWAP1 MLOAD PUSH32 0x0 DUP2 MSTORE RETURN JUMPDEST DUP4 SWAP2 POP CALLVALUE PUSH2 0x1C6 JUMPI PUSH1 0x60 CALLDATASIZE PUSH1 0x3 NOT ADD SLT PUSH2 0x1C6 JUMPI PUSH2 0x10D8 PUSH2 0x19A4 JUMP JUMPDEST PUSH2 0x10E0 PUSH2 0x19BA JUMP JUMPDEST SWAP2 PUSH1 0x44 CALLDATALOAD SWAP4 DUP6 PUSH1 0x1 DUP1 PUSH1 0xA0 SHL SUB DUP5 AND SWAP2 DUP3 DUP2 MSTORE PUSH1 0x1 PUSH1 0x20 MSTORE KECCAK256 CALLER PUSH0 MSTORE PUSH1 0x20 MSTORE DUP6 PUSH0 KECCAK256 SLOAD SWAP2 PUSH0 NOT DUP4 LT PUSH2 0x111B JUMPI JUMPDEST PUSH1 0x20 DUP8 PUSH2 0x59E DUP9 DUP9 DUP9 PUSH2 0x1CC4 JUMP JUMPDEST DUP6 DUP4 LT PUSH2 0x1183 JUMPI DUP2 ISZERO PUSH2 0x116D JUMPI CALLER ISZERO PUSH2 0x1157 JUMPI POP PUSH0 SWAP1 DUP2 MSTORE PUSH1 0x1 PUSH1 0x20 SWAP1 DUP2 MSTORE DUP7 DUP3 KECCAK256 CALLER DUP4 MSTORE DUP2 MSTORE SWAP1 DUP7 SWAP1 KECCAK256 SWAP2 DUP6 SWAP1 SUB SWAP1 SWAP2 SSTORE DUP3 SWAP1 PUSH2 0x59E PUSH2 0x110D JUMP JUMPDEST PUSH1 0x24 SWAP1 PUSH0 DUP9 MLOAD SWAP2 PUSH4 0x4A1406B1 PUSH1 0xE1 SHL DUP4 MSTORE DUP3 ADD MSTORE REVERT JUMPDEST PUSH1 0x24 SWAP1 PUSH0 DUP9 MLOAD SWAP2 PUSH4 0xE602DF05 PUSH1 0xE0 SHL DUP4 MSTORE DUP3 ADD MSTORE REVERT JUMPDEST DUP7 MLOAD PUSH4 0x7DC7A0D9 PUSH1 0xE1 SHL DUP2 MSTORE CALLER SWAP2 DUP2 ADD SWAP2 DUP3 MSTORE PUSH1 0x20 DUP3 ADD SWAP4 SWAP1 SWAP4 MSTORE PUSH1 0x40 DUP2 ADD DUP7 SWAP1 MSTORE DUP3 SWAP2 POP PUSH1 0x60 ADD SUB SWAP1 REVERT JUMPDEST POP POP CALLVALUE PUSH2 0x1C6 JUMPI DUP2 PUSH1 0x3 NOT CALLDATASIZE ADD SLT PUSH2 0x1C6 JUMPI PUSH1 0x20 SWAP1 PUSH1 0x2 SLOAD SWAP1 MLOAD SWAP1 DUP2 MSTORE RETURN JUMPDEST DUP3 DUP5 CALLVALUE PUSH2 0x221 JUMPI DUP2 PUSH1 0x3 NOT CALLDATASIZE ADD SLT PUSH2 0x221 JUMPI POP PUSH2 0x11E9 PUSH2 0x19A4 JUMP JUMPDEST PUSH1 0x24 CALLDATALOAD SWAP1 CALLER ISZERO PUSH2 0x1262 JUMPI PUSH1 0x1 PUSH1 0x1 PUSH1 0xA0 SHL SUB AND SWAP1 DUP2 ISZERO PUSH2 0x124C JUMPI PUSH1 0x20 SWAP4 POP CALLER PUSH0 MSTORE PUSH1 0x1 DUP5 MSTORE DUP3 PUSH0 KECCAK256 DUP3 PUSH0 MSTORE DUP5 MSTORE DUP1 DUP4 PUSH0 KECCAK256 SSTORE DUP3 MLOAD SWAP1 DUP2 MSTORE PUSH32 0x8C5BE1E5EBEC7D5BD14F71427D1E84F3DD0314C0F7B2291E5B200AC8C7C3B925 DUP5 CALLER SWAP3 LOG3 MLOAD PUSH1 0x1 DUP2 MSTORE RETURN JUMPDEST DUP3 MLOAD PUSH4 0x4A1406B1 PUSH1 0xE1 SHL DUP2 MSTORE PUSH0 DUP2 DUP7 ADD MSTORE PUSH1 0x24 SWAP1 REVERT JUMPDEST DUP3 MLOAD PUSH4 0xE602DF05 PUSH1 0xE0 SHL DUP2 MSTORE PUSH0 DUP2 DUP7 ADD MSTORE PUSH1 0x24 SWAP1 REVERT JUMPDEST DUP3 DUP5 CALLVALUE PUSH2 0x221 JUMPI DUP1 PUSH1 0x3 NOT CALLDATASIZE ADD SLT PUSH2 0x221 JUMPI POP PUSH1 0x6 SLOAD PUSH1 0x7 SLOAD DUP3 MLOAD SWAP2 DUP3 MSTORE PUSH1 0x20 DUP3 ADD MSTORE RETURN JUMPDEST SWAP2 SWAP1 POP CALLVALUE PUSH2 0x179C JUMPI PUSH1 0x60 CALLDATASIZE PUSH1 0x3 NOT ADD SLT PUSH2 0x179C JUMPI PUSH2 0x12B9 PUSH2 0x1995 JUMP JUMPDEST PUSH1 0x24 CALLDATALOAD PUSH2 0x12C4 PUSH2 0x1CA1 JUMP JUMPDEST PUSH2 0x12CF DUP2 ISZERO ISZERO PUSH2 0x1A79 JUMP JUMPDEST PUSH2 0x12DE PUSH1 0xFF PUSH1 0x8 SLOAD AND ISZERO PUSH2 0x1AC5 JUMP JUMPDEST PUSH1 0x6 SLOAD SWAP4 DUP5 ISZERO ISZERO DUP1 PUSH2 0x181A JUMPI JUMPDEST PUSH2 0x12F4 SWAP1 PUSH2 0x1B03 JUMP JUMPDEST PUSH32 0x0 SWAP2 PUSH2 0x2710 PUSH2 0x1358 DUP2 PUSH2 0x1350 PUSH2 0x134A PUSH32 0x0 DUP9 PUSH2 0x1B3E JUMP JUMPDEST DUP6 PUSH2 0x1B5F JUMP JUMPDEST DIV SWAP5 DUP4 PUSH2 0x1B5F JUMP JUMPDEST DIV SWAP2 PUSH2 0x136E PUSH2 0x1367 DUP5 DUP7 PUSH2 0x1B90 JUMP JUMPDEST SWAP5 DUP4 PUSH2 0x1B90 JUMP JUMPDEST SWAP7 PUSH1 0x44 CALLDATALOAD DUP9 LT PUSH2 0x17E3 JUMPI DUP6 ISZERO PUSH2 0x15E1 JUMPI POP PUSH1 0x7 SLOAD DUP8 GT PUSH2 0x159E JUMPI PUSH32 0x0 PUSH32 0x0 PUSH1 0x1 PUSH1 0x1 PUSH1 0xA0 SHL SUB AND DUP1 EXTCODESIZE ISZERO PUSH2 0x159A JUMPI DUP8 MLOAD PUSH4 0x79212195 PUSH1 0xE1 SHL DUP1 DUP3 MSTORE SWAP4 SWAP1 DUP12 SWAP1 DUP2 DUP2 DUP1 PUSH2 0x13FD DUP11 DUP10 ADDRESS CALLER DUP11 DUP7 ADD PUSH2 0x1B9D JUMP JUMPDEST SUB DUP2 DUP4 DUP9 GAS CALL DUP1 ISZERO PUSH2 0x157C JUMPI PUSH2 0x1586 JUMPI JUMPDEST POP POP PUSH2 0x1425 PUSH2 0x141D DUP9 DUP8 PUSH2 0x1B90 JUMP JUMPDEST PUSH1 0x7 SLOAD PUSH2 0x1B3E JUMP JUMPDEST PUSH1 0x7 SSTORE PUSH2 0x1434 DUP11 PUSH1 0x6 SLOAD PUSH2 0x1B90 JUMP JUMPDEST PUSH1 0x6 SSTORE DUP2 EXTCODESIZE ISZERO PUSH2 0x1578 JUMPI DUP9 MLOAD DUP5 DUP2 MSTORE DUP12 SWAP1 DUP2 DUP2 DUP1 PUSH2 0x1477 DUP16 PUSH32 0x0 CALLER ADDRESS DUP11 DUP7 ADD PUSH2 0x1B9D JUMP JUMPDEST SUB DUP2 DUP4 DUP9 GAS CALL DUP1 ISZERO PUSH2 0x157C JUMPI PUSH2 0x1564 JUMPI JUMPDEST POP POP DUP7 PUSH2 0x14E4 JUMPI JUMPDEST POP POP POP POP PUSH1 0x20 SWAP7 POP JUMPDEST DUP5 MLOAD SWAP4 ISZERO ISZERO DUP5 MSTORE DUP7 DUP5 ADD MSTORE DUP5 DUP5 DUP5 ADD MSTORE PUSH1 0x60 DUP4 ADD MSTORE PUSH1 0x80 DUP3 ADD MSTORE PUSH32 0xD55848F048CA7D5FD9869D414BB60A426C2B0125C8ADB982FEE123DA3F841ED8 PUSH1 0xA0 CALLER SWAP3 LOG2 PUSH1 0x1 PUSH1 0x5 SSTORE MLOAD SWAP1 DUP2 MSTORE RETURN JUMPDEST SWAP1 DUP11 SWAP3 SWAP2 DUP2 EXTCODESIZE ISZERO PUSH2 0xAC1 JUMPI DUP4 DUP9 SWAP6 PUSH2 0x152B DUP13 MLOAD SWAP8 DUP9 SWAP7 DUP8 SWAP6 DUP7 SWAP5 DUP6 MSTORE PUSH32 0x0 SWAP1 ADDRESS SWAP1 DUP7 ADD PUSH2 0x1B9D JUMP JUMPDEST SUB SWAP3 GAS CALL DUP1 ISZERO PUSH2 0x155A JUMPI PUSH2 0x1542 JUMPI JUMPDEST DUP1 DUP1 DUP1 PUSH2 0x1490 JUMP JUMPDEST PUSH2 0x154C DUP9 SWAP2 PUSH2 0x1A2F JUMP JUMPDEST PUSH2 0x1556 JUMPI DUP7 PUSH2 0x153A JUMP JUMPDEST DUP7 DUP1 REVERT JUMPDEST DUP7 MLOAD RETURNDATASIZE DUP11 DUP3 RETURNDATACOPY RETURNDATASIZE SWAP1 REVERT JUMPDEST PUSH2 0x156D SWAP1 PUSH2 0x1A2F JUMP JUMPDEST PUSH2 0x1578 JUMPI DUP11 PUSH0 PUSH2 0x1488 JUMP JUMPDEST DUP11 DUP1 REVERT JUMPDEST DUP12 MLOAD RETURNDATASIZE DUP5 DUP3 RETURNDATACOPY RETURNDATASIZE SWAP1 REVERT JUMPDEST PUSH2 0x158F SWAP1 PUSH2 0x1A2F JUMP JUMPDEST PUSH2 0x1578 JUMPI DUP11 PUSH0 PUSH2 0x140E JUMP JUMPDEST DUP10 DUP1 REVERT JUMPDEST PUSH1 0x64 SWAP1 PUSH1 0x20 DUP8 MLOAD SWAP2 PUSH3 0x461BCD PUSH1 0xE5 SHL DUP4 MSTORE DUP3 ADD MSTORE PUSH1 0x17 PUSH1 0x24 DUP3 ADD MSTORE PUSH32 0x496E73756666696369656E74204E4F2072657365727665000000000000000000 PUSH1 0x44 DUP3 ADD MSTORE REVERT JUMPDEST DUP8 GT PUSH2 0x17A0 JUMPI PUSH32 0x0 PUSH32 0x0 PUSH1 0x1 PUSH1 0x1 PUSH1 0xA0 SHL SUB AND DUP1 EXTCODESIZE ISZERO PUSH2 0x179C JUMPI DUP8 MLOAD PUSH4 0x79212195 PUSH1 0xE1 SHL DUP1 DUP3 MSTORE SWAP4 SWAP1 PUSH0 DUP2 DUP1 PUSH2 0x165A DUP10 DUP9 ADDRESS CALLER DUP10 DUP7 ADD PUSH2 0x1B9D JUMP JUMPDEST SUB DUP2 DUP4 DUP8 GAS CALL DUP1 ISZERO PUSH2 0x1792 JUMPI PUSH2 0x177F JUMPI JUMPDEST POP PUSH2 0x1681 PUSH2 0x1679 DUP9 DUP8 PUSH2 0x1B90 JUMP JUMPDEST PUSH1 0x6 SLOAD PUSH2 0x1B3E JUMP JUMPDEST PUSH1 0x6 SSTORE PUSH2 0x1690 DUP11 PUSH1 0x7 SLOAD PUSH2 0x1B90 JUMP JUMPDEST PUSH1 0x7 SSTORE DUP2 EXTCODESIZE ISZERO PUSH2 0x1578 JUMPI DUP9 MLOAD DUP5 DUP2 MSTORE DUP12 SWAP1 DUP2 DUP2 DUP1 PUSH2 0x16D3 DUP16 PUSH32 0x0 CALLER ADDRESS DUP11 DUP7 ADD PUSH2 0x1B9D JUMP JUMPDEST SUB DUP2 DUP4 DUP9 GAS CALL DUP1 ISZERO PUSH2 0x157C JUMPI PUSH2 0x176B JUMPI JUMPDEST POP POP DUP7 PUSH2 0x16F9 JUMPI JUMPDEST POP POP POP POP PUSH1 0x20 SWAP7 POP PUSH2 0x1499 JUMP JUMPDEST SWAP1 DUP11 SWAP3 SWAP2 DUP2 EXTCODESIZE ISZERO PUSH2 0xAC1 JUMPI DUP4 DUP9 SWAP6 PUSH2 0x1740 DUP13 MLOAD SWAP8 DUP9 SWAP7 DUP8 SWAP6 DUP7 SWAP5 DUP6 MSTORE PUSH32 0x0 SWAP1 ADDRESS SWAP1 DUP7 ADD PUSH2 0x1B9D JUMP JUMPDEST SUB SWAP3 GAS CALL DUP1 ISZERO PUSH2 0x155A JUMPI PUSH2 0x1757 JUMPI JUMPDEST DUP1 DUP1 DUP1 PUSH2 0x16EC JUMP JUMPDEST PUSH2 0x1761 DUP9 SWAP2 PUSH2 0x1A2F JUMP JUMPDEST PUSH2 0x1556 JUMPI DUP7 PUSH2 0x174F JUMP JUMPDEST PUSH2 0x1774 SWAP1 PUSH2 0x1A2F JUMP JUMPDEST PUSH2 0x1578 JUMPI DUP11 PUSH0 PUSH2 0x16E4 JUMP JUMPDEST PUSH2 0x178A SWAP2 SWAP12 POP PUSH2 0x1A2F JUMP JUMPDEST PUSH0 SWAP10 PUSH0 PUSH2 0x166B JUMP JUMPDEST DUP11 MLOAD RETURNDATASIZE PUSH0 DUP3 RETURNDATACOPY RETURNDATASIZE SWAP1 REVERT JUMPDEST PUSH0 DUP1 REVERT JUMPDEST PUSH1 0x64 SWAP1 PUSH1 0x20 DUP8 MLOAD SWAP2 PUSH3 0x461BCD PUSH1 0xE5 SHL DUP4 MSTORE DUP3 ADD MSTORE PUSH1 0x18 PUSH1 0x24 DUP3 ADD MSTORE PUSH32 0x496E73756666696369656E742059455320726573657276650000000000000000 PUSH1 0x44 DUP3 ADD MSTORE REVERT JUMPDEST DUP7 MLOAD PUSH3 0x461BCD PUSH1 0xE5 SHL DUP2 MSTORE PUSH1 0x20 DUP2 DUP5 ADD MSTORE PUSH1 0x11 PUSH1 0x24 DUP3 ADD MSTORE PUSH17 0x14DB1A5C1C1859D948195E18D959591959 PUSH1 0x7A SHL PUSH1 0x44 DUP3 ADD MSTORE PUSH1 0x64 SWAP1 REVERT JUMPDEST POP PUSH1 0x7 SLOAD ISZERO ISZERO PUSH2 0x12EB JUMP JUMPDEST DUP3 CALLVALUE PUSH2 0x179C JUMPI PUSH0 CALLDATASIZE PUSH1 0x3 NOT ADD SLT PUSH2 0x179C JUMPI DUP1 MLOAD SWAP1 PUSH0 SWAP3 PUSH1 0x3 SLOAD PUSH1 0x1 DUP2 PUSH1 0x1 SHR SWAP2 PUSH1 0x1 DUP2 AND DUP1 ISZERO PUSH2 0x190F JUMPI JUMPDEST PUSH1 0x20 SWAP5 DUP6 DUP6 LT DUP3 EQ PUSH2 0x18FC JUMPI POP DUP4 DUP8 MSTORE SWAP1 DUP2 ISZERO PUSH2 0x18DC JUMPI POP PUSH1 0x1 EQ PUSH2 0x1882 JUMPI JUMPDEST POP POP POP PUSH2 0xBA2 DUP3 PUSH2 0xBAC SWAP5 SUB DUP4 PUSH2 0x1A57 JUMP JUMPDEST PUSH1 0x3 PUSH0 SWAP1 DUP2 MSTORE SWAP3 SWAP6 POP PUSH32 0xC2575A0E9E593C00F959F8C92F12DB2869C3395A3B0502D05E2516446F71F85B JUMPDEST DUP3 DUP5 LT PUSH2 0x18C9 JUMPI POP POP POP DUP3 PUSH2 0xBAC SWAP5 PUSH2 0xBA2 SWAP3 DUP3 ADD ADD SWAP5 PUSH2 0x1870 JUMP JUMPDEST DUP1 SLOAD DUP7 DUP6 ADD DUP9 ADD MSTORE SWAP3 DUP7 ADD SWAP3 DUP2 ADD PUSH2 0x18AD JUMP JUMPDEST PUSH1 0xFF NOT AND DUP7 DUP6 ADD MSTORE POP POP ISZERO ISZERO PUSH1 0x5 SHL DUP4 ADD ADD SWAP3 POP PUSH2 0xBA2 DUP3 PUSH2 0xBAC PUSH2 0x1870 JUMP JUMPDEST PUSH1 0x22 SWAP1 PUSH4 0x4E487B71 PUSH1 0xE0 SHL PUSH0 MSTORE MSTORE PUSH1 0x24 PUSH0 REVERT JUMPDEST SWAP3 PUSH1 0x7F AND SWAP3 PUSH2 0x1850 JUMP JUMPDEST SWAP1 CALLVALUE PUSH2 0x179C JUMPI PUSH1 0x20 CALLDATASIZE PUSH1 0x3 NOT ADD SLT PUSH2 0x179C JUMPI CALLDATALOAD SWAP1 PUSH4 0xFFFFFFFF PUSH1 0xE0 SHL DUP3 AND DUP1 SWAP3 SUB PUSH2 0x179C JUMPI PUSH1 0x20 SWAP2 PUSH4 0x2711897 PUSH1 0xE5 SHL EQ DUP2 MSTORE RETURN JUMPDEST PUSH1 0x20 DUP1 DUP3 MSTORE DUP3 MLOAD DUP2 DUP4 ADD DUP2 SWAP1 MSTORE SWAP1 SWAP4 SWAP3 PUSH0 JUMPDEST DUP3 DUP2 LT PUSH2 0x1981 JUMPI POP POP PUSH1 0x40 SWAP3 SWAP4 POP PUSH0 DUP4 DUP3 DUP5 ADD ADD MSTORE PUSH1 0x1F DUP1 NOT SWAP2 ADD AND ADD ADD SWAP1 JUMP JUMPDEST DUP2 DUP2 ADD DUP7 ADD MLOAD DUP5 DUP3 ADD PUSH1 0x40 ADD MSTORE DUP6 ADD PUSH2 0x1960 JUMP JUMPDEST PUSH1 0x4 CALLDATALOAD SWAP1 DUP2 ISZERO ISZERO DUP3 SUB PUSH2 0x179C JUMPI JUMP JUMPDEST PUSH1 0x4 CALLDATALOAD SWAP1 PUSH1 0x1 PUSH1 0x1 PUSH1 0xA0 SHL SUB DUP3 AND DUP3 SUB PUSH2 0x179C JUMPI JUMP JUMPDEST PUSH1 0x24 CALLDATALOAD SWAP1 PUSH1 0x1 PUSH1 0x1 PUSH1 0xA0 SHL SUB DUP3 AND DUP3 SUB PUSH2 0x179C JUMPI JUMP JUMPDEST SWAP2 DUP2 PUSH1 0x1F DUP5 ADD SLT ISZERO PUSH2 0x179C JUMPI DUP3 CALLDATALOAD SWAP2 PUSH8 0xFFFFFFFFFFFFFFFF DUP4 GT PUSH2 0x179C JUMPI PUSH1 0x20 DUP1 DUP6 ADD SWAP5 DUP5 PUSH1 0x5 SHL ADD ADD GT PUSH2 0x179C JUMPI JUMP JUMPDEST SWAP2 DUP2 PUSH1 0x1F DUP5 ADD SLT ISZERO PUSH2 0x179C JUMPI DUP3 CALLDATALOAD SWAP2 PUSH8 0xFFFFFFFFFFFFFFFF DUP4 GT PUSH2 0x179C JUMPI PUSH1 0x20 DUP4 DUP2 DUP7 ADD SWAP6 ADD ADD GT PUSH2 0x179C JUMPI JUMP JUMPDEST PUSH8 0xFFFFFFFFFFFFFFFF DUP2 GT PUSH2 0x1A43 JUMPI PUSH1 0x40 MSTORE JUMP JUMPDEST PUSH4 0x4E487B71 PUSH1 0xE0 SHL PUSH0 MSTORE PUSH1 0x41 PUSH1 0x4 MSTORE PUSH1 0x24 PUSH0 REVERT JUMPDEST SWAP1 PUSH1 0x1F DUP1 NOT SWAP2 ADD AND DUP2 ADD SWAP1 DUP2 LT PUSH8 0xFFFFFFFFFFFFFFFF DUP3 GT OR PUSH2 0x1A43 JUMPI PUSH1 0x40 MSTORE JUMP JUMPDEST ISZERO PUSH2 0x1A80 JUMPI JUMP JUMPDEST PUSH1 0x40 MLOAD PUSH3 0x461BCD PUSH1 0xE5 SHL DUP2 MSTORE PUSH1 0x20 PUSH1 0x4 DUP3 ADD MSTORE PUSH1 0x17 PUSH1 0x24 DUP3 ADD MSTORE PUSH32 0x416D6F756E74206D75737420626520706F736974697665000000000000000000 PUSH1 0x44 DUP3 ADD MSTORE PUSH1 0x64 SWAP1 REVERT JUMPDEST ISZERO PUSH2 0x1ACC JUMPI JUMP JUMPDEST PUSH1 0x40 MLOAD PUSH3 0x461BCD PUSH1 0xE5 SHL DUP2 MSTORE PUSH1 0x20 PUSH1 0x4 DUP3 ADD MSTORE PUSH1 0xF PUSH1 0x24 DUP3 ADD MSTORE PUSH15 0x13585C9AD95D081C995CDBDB1D9959 PUSH1 0x8A SHL PUSH1 0x44 DUP3 ADD MSTORE PUSH1 0x64 SWAP1 REVERT JUMPDEST ISZERO PUSH2 0x1B0A JUMPI JUMP JUMPDEST PUSH1 0x40 MLOAD PUSH3 0x461BCD PUSH1 0xE5 SHL DUP2 MSTORE PUSH1 0x20 PUSH1 0x4 DUP3 ADD MSTORE PUSH1 0xC PUSH1 0x24 DUP3 ADD MSTORE PUSH12 0x4E6F206C6971756964697479 PUSH1 0xA0 SHL PUSH1 0x44 DUP3 ADD MSTORE PUSH1 0x64 SWAP1 REVERT JUMPDEST SWAP2 SWAP1 DUP3 ADD DUP1 SWAP3 GT PUSH2 0x1B4B JUMPI JUMP JUMPDEST PUSH4 0x4E487B71 PUSH1 0xE0 SHL PUSH0 MSTORE PUSH1 0x11 PUSH1 0x4 MSTORE PUSH1 0x24 PUSH0 REVERT JUMPDEST DUP2 DUP2 MUL SWAP3 SWAP2 DUP2 ISZERO SWAP2 DUP5 DIV EQ OR ISZERO PUSH2 0x1B4B JUMPI JUMP JUMPDEST DUP2 ISZERO PUSH2 0x1B7C JUMPI DIV SWAP1 JUMP JUMPDEST PUSH4 0x4E487B71 PUSH1 0xE0 SHL PUSH0 MSTORE PUSH1 0x12 PUSH1 0x4 MSTORE PUSH1 0x24 PUSH0 REVERT JUMPDEST SWAP2 SWAP1 DUP3 SUB SWAP2 DUP3 GT PUSH2 0x1B4B JUMPI JUMP JUMPDEST SWAP3 SWAP1 PUSH1 0xC0 SWAP5 SWAP3 PUSH1 0x1 DUP1 PUSH1 0xA0 SHL SUB DUP1 SWAP3 AND DUP6 MSTORE AND PUSH1 0x20 DUP5 ADD MSTORE PUSH1 0x40 DUP4 ADD MSTORE PUSH1 0x60 DUP3 ADD MSTORE PUSH1 0xA0 PUSH1 0x80 DUP3 ADD MSTORE PUSH0 PUSH1 0xA0 DUP3 ADD MSTORE ADD SWAP1 JUMP JUMPDEST ISZERO PUSH2 0x1BD7 JUMPI JUMP JUMPDEST PUSH1 0x40 MLOAD PUSH3 0x461BCD PUSH1 0xE5 SHL DUP2 MSTORE PUSH1 0x20 PUSH1 0x4 DUP3 ADD MSTORE PUSH1 0x15 PUSH1 0x24 DUP3 ADD MSTORE PUSH21 0x496E73756666696369656E74207265736572766573 PUSH1 0x58 SHL PUSH1 0x44 DUP3 ADD MSTORE PUSH1 0x64 SWAP1 REVERT JUMPDEST PUSH1 0x6 SLOAD PUSH1 0x7 SLOAD SWAP1 PUSH2 0x1C25 DUP3 DUP3 PUSH2 0x1B3E JUMP JUMPDEST ISZERO PUSH2 0x1C54 JUMPI PUSH2 0x2710 SWAP1 DUP2 DUP4 MUL SWAP2 DUP4 DUP4 DIV EQ DUP4 ISZERO OR ISZERO PUSH2 0x1B4B JUMPI PUSH2 0x1C51 SWAP3 PUSH2 0x1C4B SWAP2 PUSH2 0x1B3E JUMP JUMPDEST SWAP1 PUSH2 0x1B72 JUMP JUMPDEST SWAP1 JUMP JUMPDEST POP POP PUSH2 0x1388 SWAP1 JUMP JUMPDEST ISZERO PUSH2 0x1C63 JUMPI JUMP JUMPDEST PUSH1 0x40 MLOAD PUSH3 0x461BCD PUSH1 0xE5 SHL DUP2 MSTORE PUSH1 0x20 PUSH1 0x4 DUP3 ADD MSTORE PUSH1 0x16 PUSH1 0x24 DUP3 ADD MSTORE PUSH22 0x496E73756666696369656E74204C5020746F6B656E73 PUSH1 0x50 SHL PUSH1 0x44 DUP3 ADD MSTORE PUSH1 0x64 SWAP1 REVERT JUMPDEST PUSH1 0x2 PUSH1 0x5 SLOAD EQ PUSH2 0x1CB2 JUMPI PUSH1 0x2 PUSH1 0x5 SSTORE JUMP JUMPDEST PUSH1 0x40 MLOAD PUSH4 0x3EE5AEB5 PUSH1 0xE0 SHL DUP2 MSTORE PUSH1 0x4 SWAP1 REVERT JUMPDEST SWAP2 PUSH1 0x1 PUSH1 0x1 PUSH1 0xA0 SHL SUB DUP1 DUP5 AND SWAP3 DUP4 ISZERO PUSH2 0x1D73 JUMPI AND SWAP3 DUP4 ISZERO PUSH2 0x1D5B JUMPI DUP3 PUSH0 MSTORE PUSH0 PUSH1 0x20 MSTORE PUSH1 0x40 PUSH0 KECCAK256 SLOAD SWAP1 DUP3 DUP3 LT PUSH2 0x1D29 JUMPI POP DUP2 PUSH0 DUP1 MLOAD PUSH1 0x20 PUSH2 0x1E18 DUP4 CODECOPY DUP2 MLOAD SWAP2 MSTORE SWAP3 PUSH1 0x20 SWAP3 DUP6 PUSH0 MSTORE PUSH0 DUP5 MSTORE SUB PUSH1 0x40 PUSH0 KECCAK256 SSTORE DUP5 PUSH0 MSTORE PUSH1 0x40 PUSH0 KECCAK256 DUP2 DUP2 SLOAD ADD SWAP1 SSTORE PUSH1 0x40 MLOAD SWAP1 DUP2 MSTORE LOG3 JUMP JUMPDEST PUSH1 0x40 MLOAD PUSH4 0x391434E3 PUSH1 0xE2 SHL DUP2 MSTORE PUSH1 0x1 PUSH1 0x1 PUSH1 0xA0 SHL SUB SWAP2 SWAP1 SWAP2 AND PUSH1 0x4 DUP3 ADD MSTORE PUSH1 0x24 DUP2 ADD SWAP2 SWAP1 SWAP2 MSTORE PUSH1 0x44 DUP2 ADD DUP3 SWAP1 MSTORE PUSH1 0x64 SWAP1 REVERT JUMPDEST PUSH1 0x40 MLOAD PUSH4 0xEC442F05 PUSH1 0xE0 SHL DUP2 MSTORE PUSH0 PUSH1 0x4 DUP3 ADD MSTORE PUSH1 0x24 SWAP1 REVERT JUMPDEST PUSH1 0x40 MLOAD PUSH4 0x4B637E8F PUSH1 0xE1 SHL DUP2 MSTORE PUSH0 PUSH1 0x4 DUP3 ADD MSTORE PUSH1 0x24 SWAP1 REVERT JUMPDEST SWAP2 SWAP1 PUSH1 0x1 PUSH1 0x1 PUSH1 0xA0 SHL SUB DUP4 AND SWAP1 DUP2 ISZERO PUSH2 0x1D73 JUMPI DUP2 PUSH0 MSTORE PUSH0 PUSH1 0x20 MSTORE PUSH1 0x40 PUSH0 KECCAK256 SLOAD SWAP4 DUP2 DUP6 LT PUSH2 0x1DE5 JUMPI POP PUSH1 0x20 DUP2 PUSH0 DUP1 MLOAD PUSH1 0x20 PUSH2 0x1E18 DUP4 CODECOPY DUP2 MLOAD SWAP2 MSTORE SWAP3 PUSH0 SWAP6 SWAP7 DUP6 DUP8 MSTORE DUP7 DUP5 MSTORE SUB PUSH1 0x40 DUP7 KECCAK256 SSTORE DUP1 PUSH1 0x2 SLOAD SUB PUSH1 0x2 SSTORE PUSH1 0x40 MLOAD SWAP1 DUP2 MSTORE LOG3 JUMP JUMPDEST PUSH1 0x40 MLOAD PUSH4 0x391434E3 PUSH1 0xE2 SHL DUP2 MSTORE PUSH1 0x1 PUSH1 0x1 PUSH1 0xA0 SHL SUB SWAP2 SWAP1 SWAP2 AND PUSH1 0x4 DUP3 ADD MSTORE PUSH1 0x24 DUP2 ADD DUP6 SWAP1 MSTORE PUSH1 0x44 DUP2 ADD SWAP2 SWAP1 SWAP2 MSTORE PUSH1 0x64 SWAP1 REVERT INVALID 0xDD CALLCODE MSTORE 0xAD SHL 0xE2 0xC8 SWAP12 PUSH10 0xC2B068FC378DAA952BA7 CALL PUSH4 0xC4A11628 CREATE2 GAS 0x4D CREATE2 0x23 0xB3 0xEF LOG2 PUSH5 0x6970667358 0x22 SLT KECCAK256 0xDB NUMBER 0xEF EXTCODEHASH 0xB1 0xED DUP8 0xEE 0xE1 RETURN ORIGIN SWAP1 0xE0 0x2C 0xCF MSTORE8 0xC4 JUMPI 0xE2 PUSH27 0x9A0873128EB1C2E80249BD2F64736F6C63430008180033A2646970 PUSH7 0x7358221220C71C JUMP REVERT 0xE8 SELFBALANCE PUSH32 0x8B74D89C4378C71D625AC700680ABE84113CE44FF424010A5B64736F6C634300 ADDMOD XOR STOP CALLER "},"methodIdentifiers":{"allPools(uint256)":"41d1de97","collateralToken()":"b2016bd4","conditionalTokens()":"5bd9e299","createPool(string,string,bytes32,address,uint256,uint256,uint256,uint256)":"bdf57194","createPoolWithDefaults(string,string,bytes32,address,uint256,uint256)":"5bc2a57e","defaultLPFee()":"d74fb90d","defaultProtocolFee()":"421bcbdf","getPool(bytes32)":"f6c00927","getPoolCount()":"8eec5d70","maxLPFee()":"abce0cd5","maxProtocolFee()":"5ee31c7c","minLPFee()":"f30853fb","minProtocolFee()":"e904e09d","owner()":"8da5cb5b","pools(bytes32)":"b5217bb4","renounceOwnership()":"715018a6","transferOwnership(address)":"f2fde38b","treasury()":"61d027b3","updateDefaultFees(uint256,uint256)":"a3784e1d","updateFeeLimits(uint256,uint256,uint256,uint256)":"66c6146d","updateTreasury(address)":"7f51bb1f"}}}}}