{"project/contracts/AMMPool.sol":{"AMMPool":{"abi":[{"inputs":[{"internalType":"string","name":"name","type":"string"},{"internalType":"string","name":"symbol","type":"string"},{"internalType":"address","name":"_collateralToken","type":"address"},{"internalType":"address","name":"_conditionalTokens","type":"address"},{"internalType":"bytes32","name":"_conditionId","type":"bytes32"},{"internalType":"uint256","name":"_yesPositionId","type":"uint256"},{"internalType":"uint256","name":"_noPositionId","type":"uint256"},{"internalType":"uint256","name":"_lpFeeRate","type":"uint256"},{"internalType":"uint256","name":"_protocolFeeRate","type":"uint256"},{"internalType":"address","name":"_treasury","type":"address"}],"stateMutability":"nonpayable","type":"constructor"},{"inputs":[{"internalType":"address","name":"spender","type":"address"},{"internalType":"uint256","name":"allowance","type":"uint256"},{"internalType":"uint256","name":"needed","type":"uint256"}],"name":"ERC20InsufficientAllowance","type":"error"},{"inputs":[{"internalType":"address","name":"sender","type":"address"},{"internalType":"uint256","name":"balance","type":"uint256"},{"internalType":"uint256","name":"needed","type":"uint256"}],"name":"ERC20InsufficientBalance","type":"error"},{"inputs":[{"internalType":"address","name":"approver","type":"address"}],"name":"ERC20InvalidApprover","type":"error"},{"inputs":[{"internalType":"address","name":"receiver","type":"address"}],"name":"ERC20InvalidReceiver","type":"error"},{"inputs":[{"internalType":"address","name":"sender","type":"address"}],"name":"ERC20InvalidSender","type":"error"},{"inputs":[{"internalType":"address","name":"spender","type":"address"}],"name":"ERC20InvalidSpender","type":"error"},{"inputs":[],"name":"ReentrancyGuardReentrantCall","type":"error"},{"anonymous":false,"inputs":[{"indexed":true,"internalType":"address","name":"owner","type":"address"},{"indexed":true,"internalType":"address","name":"spender","type":"address"},{"indexed":false,"internalType":"uint256","name":"value","type":"uint256"}],"name":"Approval","type":"event"},{"anonymous":false,"inputs":[{"indexed":true,"internalType":"address","name":"provider","type":"address"},{"indexed":false,"internalType":"uint256","name":"yesAmount","type":"uint256"},{"indexed":false,"internalType":"uint256","name":"noAmount","type":"uint256"},{"indexed":false,"internalType":"uint256","name":"lpTokens","type":"uint256"}],"name":"LiquidityAdded","type":"event"},{"anonymous":false,"inputs":[{"indexed":true,"internalType":"address","name":"provider","type":"address"},{"indexed":false,"internalType":"uint256","name":"yesAmount","type":"uint256"},{"indexed":false,"internalType":"uint256","name":"noAmount","type":"uint256"},{"indexed":false,"internalType":"uint256","name":"lpTokens","type":"uint256"}],"name":"LiquidityRemoved","type":"event"},{"anonymous":false,"inputs":[{"indexed":false,"internalType":"uint256","name":"winningOutcome","type":"uint256"}],"name":"MarketResolved","type":"event"},{"anonymous":false,"inputs":[{"indexed":true,"internalType":"address","name":"user","type":"address"},{"indexed":false,"internalType":"bool","name":"buyYes","type":"bool"},{"indexed":false,"internalType":"uint256","name":"amountIn","type":"uint256"},{"indexed":false,"internalType":"uint256","name":"amountOut","type":"uint256"},{"indexed":false,"internalType":"uint256","name":"lpFee","type":"uint256"},{"indexed":false,"internalType":"uint256","name":"protocolFee","type":"uint256"}],"name":"Swap","type":"event"},{"anonymous":false,"inputs":[{"indexed":true,"internalType":"address","name":"from","type":"address"},{"indexed":true,"internalType":"address","name":"to","type":"address"},{"indexed":false,"internalType":"uint256","name":"value","type":"uint256"}],"name":"Transfer","type":"event"},{"inputs":[{"internalType":"uint256","name":"yesAmount","type":"uint256"},{"internalType":"uint256","name":"noAmount","type":"uint256"}],"name":"addLiquidity","outputs":[{"internalType":"uint256","name":"lpTokens","type":"uint256"}],"stateMutability":"nonpayable","type":"function"},{"inputs":[{"internalType":"address","name":"owner","type":"address"},{"internalType":"address","name":"spender","type":"address"}],"name":"allowance","outputs":[{"internalType":"uint256","name":"","type":"uint256"}],"stateMutability":"view","type":"function"},{"inputs":[{"internalType":"address","name":"spender","type":"address"},{"internalType":"uint256","name":"value","type":"uint256"}],"name":"approve","outputs":[{"internalType":"bool","name":"","type":"bool"}],"stateMutability":"nonpayable","type":"function"},{"inputs":[{"internalType":"address","name":"account","type":"address"}],"name":"balanceOf","outputs":[{"internalType":"uint256","name":"","type":"uint256"}],"stateMutability":"view","type":"function"},{"inputs":[],"name":"collateralToken","outputs":[{"internalType":"contract IERC20","name":"","type":"address"}],"stateMutability":"view","type":"function"},{"inputs":[],"name":"conditionId","outputs":[{"internalType":"bytes32","name":"","type":"bytes32"}],"stateMutability":"view","type":"function"},{"inputs":[],"name":"conditionalTokens","outputs":[{"internalType":"contract IConditionalTokens","name":"","type":"address"}],"stateMutability":"view","type":"function"},{"inputs":[],"name":"decimals","outputs":[{"internalType":"uint8","name":"","type":"uint8"}],"stateMutability":"view","type":"function"},{"inputs":[],"name":"getReserves","outputs":[{"internalType":"uint256","name":"","type":"uint256"},{"internalType":"uint256","name":"","type":"uint256"}],"stateMutability":"view","type":"function"},{"inputs":[{"internalType":"bool","name":"buyYes","type":"bool"},{"internalType":"uint256","name":"amountIn","type":"uint256"}],"name":"getSwapOutput","outputs":[{"internalType":"uint256","name":"amountOut","type":"uint256"},{"internalType":"uint256","name":"totalFee","type":"uint256"}],"stateMutability":"view","type":"function"},{"inputs":[],"name":"getYesPrice","outputs":[{"internalType":"uint256","name":"","type":"uint256"}],"stateMutability":"view","type":"function"},{"inputs":[],"name":"lpFeeRate","outputs":[{"internalType":"uint256","name":"","type":"uint256"}],"stateMutability":"view","type":"function"},{"inputs":[],"name":"name","outputs":[{"internalType":"string","name":"","type":"string"}],"stateMutability":"view","type":"function"},{"inputs":[],"name":"noPositionId","outputs":[{"internalType":"uint256","name":"","type":"uint256"}],"stateMutability":"view","type":"function"},{"inputs":[],"name":"noReserve","outputs":[{"internalType":"uint256","name":"","type":"uint256"}],"stateMutability":"view","type":"function"},{"inputs":[],"name":"protocolFeeRate","outputs":[{"internalType":"uint256","name":"","type":"uint256"}],"stateMutability":"view","type":"function"},{"inputs":[{"internalType":"uint256","name":"lpTokens","type":"uint256"}],"name":"redeemLPTokens","outputs":[{"internalType":"uint256","name":"payout","type":"uint256"}],"stateMutability":"nonpayable","type":"function"},{"inputs":[{"internalType":"uint256","name":"lpTokens","type":"uint256"}],"name":"removeLiquidity","outputs":[{"internalType":"uint256","name":"yesAmount","type":"uint256"},{"internalType":"uint256","name":"noAmount","type":"uint256"}],"stateMutability":"nonpayable","type":"function"},{"inputs":[{"internalType":"uint256","name":"_winningOutcome","type":"uint256"}],"name":"resolve","outputs":[],"stateMutability":"nonpayable","type":"function"},{"inputs":[],"name":"resolved","outputs":[{"internalType":"bool","name":"","type":"bool"}],"stateMutability":"view","type":"function"},{"inputs":[{"internalType":"bool","name":"buyYes","type":"bool"},{"internalType":"uint256","name":"amountIn","type":"uint256"},{"internalType":"uint256","name":"minAmountOut","type":"uint256"}],"name":"swap","outputs":[{"internalType":"uint256","name":"amountOut","type":"uint256"}],"stateMutability":"nonpayable","type":"function"},{"inputs":[],"name":"symbol","outputs":[{"internalType":"string","name":"","type":"string"}],"stateMutability":"view","type":"function"},{"inputs":[],"name":"totalSupply","outputs":[{"internalType":"uint256","name":"","type":"uint256"}],"stateMutability":"view","type":"function"},{"inputs":[{"internalType":"address","name":"to","type":"address"},{"internalType":"uint256","name":"value","type":"uint256"}],"name":"transfer","outputs":[{"internalType":"bool","name":"","type":"bool"}],"stateMutability":"nonpayable","type":"function"},{"inputs":[{"internalType":"address","name":"from","type":"address"},{"internalType":"address","name":"to","type":"address"},{"internalType":"uint256","name":"value","type":"uint256"}],"name":"transferFrom","outputs":[{"internalType":"bool","name":"","type":"bool"}],"stateMutability":"nonpayable","type":"function"},{"inputs":[],"name":"treasury","outputs":[{"internalType":"address","name":"","type":"address"}],"stateMutability":"view","type":"function"},{"inputs":[],"name":"winningOutcome","outputs":[{"internalType":"uint256","name":"","type":"uint256"}],"stateMutability":"view","type":"function"},{"inputs":[],"name":"yesPositionId","outputs":[{"internalType":"uint256","name":"","type":"uint256"}],"stateMutability":"view","type":"function"},{"inputs":[],"name":"yesReserve","outputs":[{"internalType":"uint256","name":"","type":"uint256"}],"stateMutability":"view","type":"function"}],"evm":{"bytecode":{"linkReferences":{},"object":"610180604052346200046a5762002119803803806200001e816200046e565b92833981019061014080828403126200046a5781516001600160401b0391908281116200046a57846200005391850162000494565b9160209485850151908282116200046a576200007191860162000494565b92620000806040860162000504565b6200008e6060870162000504565b90608087015160a08801519160c08901519360e08a0151956101009b8c8c015198620000bf610120809e0162000504565b9b835182811162000375576003918254916001968784811c941680156200045f575b878510146200044b578190601f94858111620003f8575b50879085831160011462000395575f9262000389575b50505f1982861b1c191690871b1783555b8051938411620003755760049485548781811c911680156200036a575b828210146200035757908184879695949311620002fe575b50809285116001146200029457505f9362000288575b505082851b925f19911b1c19161790555b6005556001600160a01b039182166080521660a05260c05260e052865284528152610160918252604051611bff94909390856200051a863960805185610434015260a0518581816102be015281816104d80152818161086001528181610cf5015281816111e6015261143c015260c05185610e99015260e05185818161029b0152818161051e015281816108a701528181610ed401528181611280015261141b015251848181610355015281816105770152818161090301528181610cbd015281816111c501526114d301525183818161017701528181610bac0152611131015251828181610b8b01528181610d3c0152611160015251818181610c760152818161133401526115400152f35b015191505f806200016a565b929190879550601f198516875f52845f20945f905b828210620002e45750508511620002ca575b50505050811b0190556200017b565b01519060f8845f19921b161c191690555f808080620002bb565b8484015187558a98909601959384019390810190620002a9565b909192939450865f52815f208480880160051c8201928489106200034d575b918a91899897969594930160051c01915b8281106200033e57505062000154565b5f81558897508a91016200032e565b925081926200031d565b602287634e487b7160e01b5f525260245ffd5b90607f16906200013c565b634e487b7160e01b5f52604160045260245ffd5b015190505f806200010e565b90899350601f19831691875f52895f20925f5b8b828210620003e15750508411620003c9575b505050811b0183556200011f565b01515f1983881b60f8161c191690555f8080620003bb565b8385015186558d97909501949384019301620003a8565b909150855f52875f208580850160051c8201928a861062000441575b918b91869594930160051c01915b82811062000432575050620000f8565b5f81558594508b910162000422565b9250819262000414565b634e487b7160e01b5f52602260045260245ffd5b93607f1693620000e1565b5f80fd5b6040519190601f01601f191682016001600160401b038111838210176200037557604052565b919080601f840112156200046a5782516001600160401b0381116200037557602090620004ca601f8201601f191683016200046e565b928184528282870101116200046a575f5b818110620004f05750825f9394955001015290565b8581018301518482018401528201620004db565b51906001600160a01b03821682036200046a5756fe6080604081815260049182361015610015575f80fd5b5f925f3560e01c91826306fdde031461164e5750816308c84c21146110d85781630902f1ac146110b3578163095ea7b31461100957816318160ddd14610fea57816323b872dd14610ef75781632474b6bc14610ebc5781632ddc7de714610e81578163313ce56714610e655781633f6fa65514610e415781634f896d4f14610d5f57816358f8588014610d245781635bd9e29914610ce057816360e30d9e14610ca557816361d027b314610c6157816370a0823114610c2a57816372a9fa6e14610c0b578163827b650814610b5f5781638779086f14610b3b57816395d89b4114610a365781639b34ae0314610a175781639c8f9f23146107b95781639cd441da14610494578163a9059cbb14610463578163b2016bd41461041f578163b2670d7414610400578163bdeda833146101ea57508063dd62ed3e1461019e5763f5b9848d14610161575f80fd5b3461019a578160031936011261019a57602090517f00000000000000000000000000000000000000000000000000000000000000008152f35b5080fd5b503461019a578060031936011261019a576020916101ba611795565b826101c36117ab565b6001600160a01b03928316845260018652922091165f908152908352819020549051908152f35b9190503461034457602036600319011261034457813591610209611a33565b60ff60085416156103c85761021f83151561180b565b33845283602052610235838386205410156119ee565b60025492610244841515611895565b61026760016009541494855f146103bd576102626006545b846118f1565b611904565b93841561038e5761028e91901561037a5761028485600654611922565b6006555b33611b1d565b60095460010361035257837f0000000000000000000000000000000000000000000000000000000000000000915b7f00000000000000000000000000000000000000000000000000000000000000006001600160a01b0316803b156103445761031293838793875196879586948593637921219560e11b855233903090860161192f565b03925af1801561034857610330575b60208383600160055551908152f35b61033a84916117c1565b6103445782610321565b8280fd5b82513d86823e3d90fd5b837f0000000000000000000000000000000000000000000000000000000000000000916102bc565b61038685600754611922565b600755610288565b835162461bcd60e51b81526020818501526009602482015268139bc81c185e5bdd5d60ba1b6044820152606490fd5b61026260075461025c565b6020606492519162461bcd60e51b8352820152601360248201527213585c9ad95d081b9bdd081c995cdbdb1d9959606a1b6044820152fd5b50503461019a578160031936011261019a576020906006549051908152f35b50503461019a578160031936011261019a57517f00000000000000000000000000000000000000000000000000000000000000006001600160a01b03168152602090f35b50503461019a578060031936011261019a5760209061048d610483611795565b6024359033611a56565b5160018152f35b919050346103445780600319360112610344578135602435936104b5611a33565b811515806107b0575b6104c79061180b565b6104d660ff6008541615611857565b7f00000000000000000000000000000000000000000000000000000000000000006001600160a01b0316803b1561019a578351637921219560e11b80825290838180610547887f000000000000000000000000000000000000000000000000000000000000000030338e860161192f565b038183875af180156107a657908491610792575b5050813b1561034457845190815290829082908183816105a08c7f000000000000000000000000000000000000000000000000000000000000000030338f860161192f565b03925af1801561078857908291610771575b50506002549081610744576105c786846118d0565b916103e890818410610701578181018091116106ee575f80516020611baa83398151915260206001935f936002558484528382528884208181540190558851908152a36103e71982019182116106db5750925b6106258415156119ee565b610631826006546118d0565b600655610640856007546118d0565b60075533156106c557507f64b83944e79c3ce8d4c297411de637c3e102d064677aac0c163976ebdcd6f50e8360209561067b826002546118d0565b600255335f525f8752845f2082815401905584518281525f5f80516020611baa833981519152893393a38451938452602084015260408301523391606090a2600160055551908152f35b6024905f84519163ec442f0560e01b8352820152fd5b634e487b7160e01b815260118552602490fd5b601187634e487b7160e01b5f525260245ffd5b855162461bcd60e51b8152602081890152601e60248201527f496e73756666696369656e7420696e697469616c206c697175696469747900006044820152606490fd5b5061076b9061026261075b600654600754906118d0565b9161076688866118d0565b6118f1565b9261061a565b61077a906117c1565b61078557805f6105b2565b80fd5b84513d84823e3d90fd5b61079b906117c1565b61034457825f61055b565b86513d86823e3d90fd5b508415156104be565b8391503461019a57602036600319011261019a5780356107d7611a33565b6107e281151561180b565b338352826020526107f8818585205410156119ee565b60025492610807841515611895565b600654926108198561026286866118f1565b9461082b6007549161026283876118f1565b9486151580610a0e575b156109d55761085191610849888893611922565b600655611922565b60075561085e8333611b1d565b7f00000000000000000000000000000000000000000000000000000000000000006001600160a01b031690813b15610344578651637921219560e11b808252908481806108d08b7f000000000000000000000000000000000000000000000000000000000000000033308a860161192f565b038183885af180156109cb579085916109b7575b5050823b156109b35761092e9284928388938b519687958694859384527f00000000000000000000000000000000000000000000000000000000000000009033903090860161192f565b03925af180156109a957610995575b50507f1dc8bb69df2b8e91fbdcbfcf93d951b3f0000f085a95fe3f7946d6161439245d84518061098133948688846040919493926060820195825260208201520152565b0390a2600160055582519182526020820152f35b61099f82916117c1565b610785578061093d565b86513d84823e3d90fd5b8380fd5b6109c0906117c1565b6109b35783896108e4565b89513d87823e3d90fd5b875162461bcd60e51b81526020818501526013602482015272125b9cdd59999a58da595b9d081bdd5d1c1d5d606a1b6044820152606490fd5b50851515610835565b50503461019a578160031936011261019a576020906009549051908152f35b83833461019a578160031936011261019a5780519180938054916001908360011c9260018516948515610b31575b6020958686108114610b1e57858952908115610afa5750600114610aa2575b610a9e8787610a94828c03836117e9565b519182918261173f565b0390f35b81529295507f8a35acfbc15ff81a39ae7d344fd709f28e8600b4aa8c65c6b64bfe7fe36bd19b5b828410610ae75750505082610a9e94610a9492820101948680610a83565b8054868501880152928601928101610ac9565b60ff19168887015250505050151560051b8301019250610a9482610a9e8680610a83565b634e487b7160e01b845260228352602484fd5b93607f1693610a64565b50503461019a578160031936011261019a57602090610b586119a6565b9051908152f35b82843461078557816003193601126107855750610b7a611786565b602435610bd8612710610bd061025c7f00000000000000000000000000000000000000000000000000000000000000007f00000000000000000000000000000000000000000000000000000000000000006118d0565b048092611922565b9115610bf857610bec600754831115611962565b82519182526020820152f35b610c06600654831115611962565b610bec565b50503461019a578160031936011261019a576020906007549051908152f35b50503461019a57602036600319011261019a5760209181906001600160a01b03610c52611795565b16815280845220549051908152f35b50503461019a578160031936011261019a57517f00000000000000000000000000000000000000000000000000000000000000006001600160a01b03168152602090f35b50503461019a578160031936011261019a57602090517f00000000000000000000000000000000000000000000000000000000000000008152f35b50503461019a578160031936011261019a57517f00000000000000000000000000000000000000000000000000000000000000006001600160a01b03168152602090f35b50503461019a578160031936011261019a57602090517f00000000000000000000000000000000000000000000000000000000000000008152f35b919050346103445760203660031901126103445760085482359260ff8216610e0b5783158015610e01575b15610dcc575060ff19166001176008556009829055519081527f93608ecbcf057462da63f5aef413ce7f78c5e1b3bb51859d77a40845ece2bfc390602090a180f35b606490602084519162461bcd60e51b8352820152600f60248201526e496e76616c6964206f7574636f6d6560881b6044820152fd5b5060018414610d8a565b606490602084519162461bcd60e51b8352820152601060248201526f105b1c9958591e481c995cdbdb1d995960821b6044820152fd5b50503461019a578160031936011261019a5760209060ff6008541690519015158152f35b50503461019a578160031936011261019a576020905160128152f35b50503461019a578160031936011261019a57602090517f00000000000000000000000000000000000000000000000000000000000000008152f35b50503461019a578160031936011261019a57602090517f00000000000000000000000000000000000000000000000000000000000000008152f35b8391503461019a57606036600319011261019a57610f13611795565b610f1b6117ab565b91604435938560018060a01b03841691828152600160205220335f52602052855f2054915f198310610f56575b60208761048d888888611a56565b858310610fbe578115610fa8573315610f9257505f9081526001602090815286822033835281529086902091859003909155829061048d610f48565b6024905f885191634a1406b160e11b8352820152fd5b6024905f88519163e602df0560e01b8352820152fd5b8651637dc7a0d960e11b8152339181019182526020820193909352604081018690528291506060010390fd5b50503461019a578160031936011261019a576020906002549051908152f35b82843461078557816003193601126107855750611024611795565b60243590331561109d576001600160a01b03169081156110875760209350335f5260018452825f20825f52845280835f205582519081527f8c5be1e5ebec7d5bd14f71427d1e84f3dd0314c0f7b2291e5b200ac8c7c3b925843392a35160018152f35b8251634a1406b160e11b81525f81860152602490fd5b825163e602df0560e01b81525f81860152602490fd5b8284346107855780600319360112610785575060065460075482519182526020820152f35b919050346115c55760603660031901126115c5576110f4611786565b6024356110ff611a33565b61110a81151561180b565b61111960ff6008541615611857565b6006549384151580611643575b61112f90611895565b7f0000000000000000000000000000000000000000000000000000000000000000916127106111938161118b6111857f0000000000000000000000000000000000000000000000000000000000000000886118d0565b856118f1565b0494836118f1565b04916111a96111a28486611922565b9483611922565b96604435881061160c578515611413575060075487116113d0577f00000000000000000000000000000000000000000000000000000000000000007f00000000000000000000000000000000000000000000000000000000000000006001600160a01b0316803b156113cc578751637921219560e11b80825293908b908181806112388a8930338a860161192f565b038183885af180156113ae576113b8575b50506112578a6007546118d0565b6007556112668a600654611922565b600655813b156113aa5788518481528b908181806112a98f7f000000000000000000000000000000000000000000000000000000000000000033308a860161192f565b038183885af180156113ae57611396575b505086611316575b50505050602096505b84519315158452868401528484840152606083015260808201527fd55848f048ca7d5fd9869d414bb60a426c2b0125c8adb982fee123da3f841ed860a03392a2600160055551908152f35b908a9291813b156109b35783889561135d8c519788968795869485527f0000000000000000000000000000000000000000000000000000000000000000903090860161192f565b03925af1801561138c57611374575b8080806112c2565b61137e88916117c1565b611388578661136c565b8680fd5b86513d8a823e3d90fd5b61139f906117c1565b6113aa578a5f6112ba565b8a80fd5b8b513d84823e3d90fd5b6113c1906117c1565b6113aa578a5f611249565b8980fd5b606490602087519162461bcd60e51b8352820152601760248201527f496e73756666696369656e74204e4f20726573657276650000000000000000006044820152fd5b87116115c9577f00000000000000000000000000000000000000000000000000000000000000007f00000000000000000000000000000000000000000000000000000000000000006001600160a01b0316803b156115c5578751637921219560e11b80825293905f818061148c8988303389860161192f565b038183875af180156115bb576115a8575b506114aa8a6006546118d0565b6006556114b98a600754611922565b600755813b156113aa5788518481528b908181806114fc8f7f000000000000000000000000000000000000000000000000000000000000000033308a860161192f565b038183885af180156113ae57611594575b505086611522575b50505050602096506112cb565b908a9291813b156109b3578388956115698c519788968795869485527f0000000000000000000000000000000000000000000000000000000000000000903090860161192f565b03925af1801561138c57611580575b808080611515565b61158a88916117c1565b6113885786611578565b61159d906117c1565b6113aa578a5f61150d565b6115b3919b506117c1565b5f995f61149d565b8a513d5f823e3d90fd5b5f80fd5b606490602087519162461bcd60e51b8352820152601860248201527f496e73756666696369656e7420594553207265736572766500000000000000006044820152fd5b865162461bcd60e51b8152602081840152601160248201527014db1a5c1c1859d948195e18d959591959607a1b6044820152606490fd5b506007541515611126565b83346115c5575f3660031901126115c5575f9260035460018160011c91600181168015611735575b6020948585108214611722575083875290811561170257506001146116a8575b505050610a9482610a9e9403836117e9565b60035f9081529295507fc2575a0e9e593c00f959f8c92f12db2869c3395a3b0502d05e2516446f71f85b5b8284106116ef5750505082610a9e94610a949282010194611696565b80548685018801529286019281016116d3565b60ff1916868501525050151560051b8301019250610a9482610a9e611696565b602290634e487b7160e01b5f525260245ffd5b92607f1692611676565b602080825282518183018190529093925f5b82811061177257505060409293505f838284010152601f8019910116010190565b818101860151848201604001528501611751565b6004359081151582036115c557565b600435906001600160a01b03821682036115c557565b602435906001600160a01b03821682036115c557565b67ffffffffffffffff81116117d557604052565b634e487b7160e01b5f52604160045260245ffd5b90601f8019910116810190811067ffffffffffffffff8211176117d557604052565b1561181257565b60405162461bcd60e51b815260206004820152601760248201527f416d6f756e74206d75737420626520706f7369746976650000000000000000006044820152606490fd5b1561185e57565b60405162461bcd60e51b815260206004820152600f60248201526e13585c9ad95d081c995cdbdb1d9959608a1b6044820152606490fd5b1561189c57565b60405162461bcd60e51b815260206004820152600c60248201526b4e6f206c697175696469747960a01b6044820152606490fd5b919082018092116118dd57565b634e487b7160e01b5f52601160045260245ffd5b818102929181159184041417156118dd57565b811561190e570490565b634e487b7160e01b5f52601260045260245ffd5b919082039182116118dd57565b929060c0949260018060a01b0380921685521660208401526040830152606082015260a060808201525f60a08201520190565b1561196957565b60405162461bcd60e51b8152602060048201526015602482015274496e73756666696369656e7420726573657276657360581b6044820152606490fd5b600654600754906119b782826118d0565b156119e657612710908181029181830414811517156118dd576119e3926119dd916118d0565b90611904565b90565b505061138890565b156119f557565b60405162461bcd60e51b8152602060048201526016602482015275496e73756666696369656e74204c5020746f6b656e7360501b6044820152606490fd5b600260055414611a44576002600555565b604051633ee5aeb560e01b8152600490fd5b916001600160a01b03808416928315611b055716928315611aed57825f525f60205260405f205490828210611abb5750815f80516020611baa83398151915292602092855f525f84520360405f2055845f5260405f20818154019055604051908152a3565b60405163391434e360e21b81526001600160a01b03919091166004820152602481019190915260448101829052606490fd5b60405163ec442f0560e01b81525f6004820152602490fd5b604051634b637e8f60e11b81525f6004820152602490fd5b91906001600160a01b038316908115611b0557815f525f60205260405f205493818510611b7757506020815f80516020611baa833981519152925f95968587528684520360408620558060025403600255604051908152a3565b60405163391434e360e21b81526001600160a01b03919091166004820152602481018590526044810191909152606490fdfeddf252ad1be2c89b69c2b068fc378daa952ba7f163c4a11628f55a4df523b3efa26469706673582212207d9e2ca83e39c6f32deef138b6a6ee3101f4a4e58b33b094a7c146e77a5952ec64736f6c63430008180033","opcodes":"PUSH2 0x180 PUSH1 0x40 MSTORE CALLVALUE PUSH3 0x46A JUMPI PUSH3 0x2119 DUP1 CODESIZE SUB DUP1 PUSH3 0x1E DUP2 PUSH3 0x46E JUMP JUMPDEST SWAP3 DUP4 CODECOPY DUP2 ADD SWAP1 PUSH2 0x140 DUP1 DUP3 DUP5 SUB SLT PUSH3 0x46A JUMPI DUP2 MLOAD PUSH1 0x1 PUSH1 0x1 PUSH1 0x40 SHL SUB SWAP2 SWAP1 DUP3 DUP2 GT PUSH3 0x46A JUMPI DUP5 PUSH3 0x53 SWAP2 DUP6 ADD PUSH3 0x494 JUMP JUMPDEST SWAP2 PUSH1 0x20 SWAP5 DUP6 DUP6 ADD MLOAD SWAP1 DUP3 DUP3 GT PUSH3 0x46A JUMPI PUSH3 0x71 SWAP2 DUP7 ADD PUSH3 0x494 JUMP JUMPDEST SWAP3 PUSH3 0x80 PUSH1 0x40 DUP7 ADD PUSH3 0x504 JUMP JUMPDEST PUSH3 0x8E PUSH1 0x60 DUP8 ADD PUSH3 0x504 JUMP JUMPDEST SWAP1 PUSH1 0x80 DUP8 ADD MLOAD PUSH1 0xA0 DUP9 ADD MLOAD SWAP2 PUSH1 0xC0 DUP10 ADD MLOAD SWAP4 PUSH1 0xE0 DUP11 ADD MLOAD SWAP6 PUSH2 0x100 SWAP12 DUP13 DUP13 ADD MLOAD SWAP9 PUSH3 0xBF PUSH2 0x120 DUP1 SWAP15 ADD PUSH3 0x504 JUMP JUMPDEST SWAP12 DUP4 MLOAD DUP3 DUP2 GT PUSH3 0x375 JUMPI PUSH1 0x3 SWAP2 DUP3 SLOAD SWAP2 PUSH1 0x1 SWAP7 DUP8 DUP5 DUP2 SHR SWAP5 AND DUP1 ISZERO PUSH3 0x45F JUMPI JUMPDEST DUP8 DUP6 LT EQ PUSH3 0x44B JUMPI DUP2 SWAP1 PUSH1 0x1F SWAP5 DUP6 DUP2 GT PUSH3 0x3F8 JUMPI JUMPDEST POP DUP8 SWAP1 DUP6 DUP4 GT PUSH1 0x1 EQ PUSH3 0x395 JUMPI PUSH0 SWAP3 PUSH3 0x389 JUMPI JUMPDEST POP POP PUSH0 NOT DUP3 DUP7 SHL SHR NOT AND SWAP1 DUP8 SHL OR DUP4 SSTORE JUMPDEST DUP1 MLOAD SWAP4 DUP5 GT PUSH3 0x375 JUMPI PUSH1 0x4 SWAP5 DUP6 SLOAD DUP8 DUP2 DUP2 SHR SWAP2 AND DUP1 ISZERO PUSH3 0x36A JUMPI JUMPDEST DUP3 DUP3 LT EQ PUSH3 0x357 JUMPI SWAP1 DUP2 DUP5 DUP8 SWAP7 SWAP6 SWAP5 SWAP4 GT PUSH3 0x2FE JUMPI JUMPDEST POP DUP1 SWAP3 DUP6 GT PUSH1 0x1 EQ PUSH3 0x294 JUMPI POP PUSH0 SWAP4 PUSH3 0x288 JUMPI JUMPDEST POP POP DUP3 DUP6 SHL SWAP3 PUSH0 NOT SWAP2 SHL SHR NOT AND OR SWAP1 SSTORE JUMPDEST PUSH1 0x5 SSTORE PUSH1 0x1 PUSH1 0x1 PUSH1 0xA0 SHL SUB SWAP2 DUP3 AND PUSH1 0x80 MSTORE AND PUSH1 0xA0 MSTORE PUSH1 0xC0 MSTORE PUSH1 0xE0 MSTORE DUP7 MSTORE DUP5 MSTORE DUP2 MSTORE PUSH2 0x160 SWAP2 DUP3 MSTORE PUSH1 0x40 MLOAD PUSH2 0x1BFF SWAP5 SWAP1 SWAP4 SWAP1 DUP6 PUSH3 0x51A DUP7 CODECOPY PUSH1 0x80 MLOAD DUP6 PUSH2 0x434 ADD MSTORE PUSH1 0xA0 MLOAD DUP6 DUP2 DUP2 PUSH2 0x2BE ADD MSTORE DUP2 DUP2 PUSH2 0x4D8 ADD MSTORE DUP2 DUP2 PUSH2 0x860 ADD MSTORE DUP2 DUP2 PUSH2 0xCF5 ADD MSTORE DUP2 DUP2 PUSH2 0x11E6 ADD MSTORE PUSH2 0x143C ADD MSTORE PUSH1 0xC0 MLOAD DUP6 PUSH2 0xE99 ADD MSTORE PUSH1 0xE0 MLOAD DUP6 DUP2 DUP2 PUSH2 0x29B ADD MSTORE DUP2 DUP2 PUSH2 0x51E ADD MSTORE DUP2 DUP2 PUSH2 0x8A7 ADD MSTORE DUP2 DUP2 PUSH2 0xED4 ADD MSTORE DUP2 DUP2 PUSH2 0x1280 ADD MSTORE PUSH2 0x141B ADD MSTORE MLOAD DUP5 DUP2 DUP2 PUSH2 0x355 ADD MSTORE DUP2 DUP2 PUSH2 0x577 ADD MSTORE DUP2 DUP2 PUSH2 0x903 ADD MSTORE DUP2 DUP2 PUSH2 0xCBD ADD MSTORE DUP2 DUP2 PUSH2 0x11C5 ADD MSTORE PUSH2 0x14D3 ADD MSTORE MLOAD DUP4 DUP2 DUP2 PUSH2 0x177 ADD MSTORE DUP2 DUP2 PUSH2 0xBAC ADD MSTORE PUSH2 0x1131 ADD MSTORE MLOAD DUP3 DUP2 DUP2 PUSH2 0xB8B ADD MSTORE DUP2 DUP2 PUSH2 0xD3C ADD MSTORE PUSH2 0x1160 ADD MSTORE MLOAD DUP2 DUP2 DUP2 PUSH2 0xC76 ADD MSTORE DUP2 DUP2 PUSH2 0x1334 ADD MSTORE PUSH2 0x1540 ADD MSTORE RETURN JUMPDEST ADD MLOAD SWAP2 POP PUSH0 DUP1 PUSH3 0x16A JUMP JUMPDEST SWAP3 SWAP2 SWAP1 DUP8 SWAP6 POP PUSH1 0x1F NOT DUP6 AND DUP8 PUSH0 MSTORE DUP5 PUSH0 KECCAK256 SWAP5 PUSH0 SWAP1 JUMPDEST DUP3 DUP3 LT PUSH3 0x2E4 JUMPI POP POP DUP6 GT PUSH3 0x2CA JUMPI JUMPDEST POP POP POP POP DUP2 SHL ADD SWAP1 SSTORE PUSH3 0x17B JUMP JUMPDEST ADD MLOAD SWAP1 PUSH1 0xF8 DUP5 PUSH0 NOT SWAP3 SHL AND SHR NOT AND SWAP1 SSTORE PUSH0 DUP1 DUP1 DUP1 PUSH3 0x2BB JUMP JUMPDEST DUP5 DUP5 ADD MLOAD DUP8 SSTORE DUP11 SWAP9 SWAP1 SWAP7 ADD SWAP6 SWAP4 DUP5 ADD SWAP4 SWAP1 DUP2 ADD SWAP1 PUSH3 0x2A9 JUMP JUMPDEST SWAP1 SWAP2 SWAP3 SWAP4 SWAP5 POP DUP7 PUSH0 MSTORE DUP2 PUSH0 KECCAK256 DUP5 DUP1 DUP9 ADD PUSH1 0x5 SHR DUP3 ADD SWAP3 DUP5 DUP10 LT PUSH3 0x34D JUMPI JUMPDEST SWAP2 DUP11 SWAP2 DUP10 SWAP9 SWAP8 SWAP7 SWAP6 SWAP5 SWAP4 ADD PUSH1 0x5 SHR ADD SWAP2 JUMPDEST DUP3 DUP2 LT PUSH3 0x33E JUMPI POP POP PUSH3 0x154 JUMP JUMPDEST PUSH0 DUP2 SSTORE DUP9 SWAP8 POP DUP11 SWAP2 ADD PUSH3 0x32E JUMP JUMPDEST SWAP3 POP DUP2 SWAP3 PUSH3 0x31D JUMP JUMPDEST PUSH1 0x22 DUP8 PUSH4 0x4E487B71 PUSH1 0xE0 SHL PUSH0 MSTORE MSTORE PUSH1 0x24 PUSH0 REVERT JUMPDEST SWAP1 PUSH1 0x7F AND SWAP1 PUSH3 0x13C JUMP JUMPDEST PUSH4 0x4E487B71 PUSH1 0xE0 SHL PUSH0 MSTORE PUSH1 0x41 PUSH1 0x4 MSTORE PUSH1 0x24 PUSH0 REVERT JUMPDEST ADD MLOAD SWAP1 POP PUSH0 DUP1 PUSH3 0x10E JUMP JUMPDEST SWAP1 DUP10 SWAP4 POP PUSH1 0x1F NOT DUP4 AND SWAP2 DUP8 PUSH0 MSTORE DUP10 PUSH0 KECCAK256 SWAP3 PUSH0 JUMPDEST DUP12 DUP3 DUP3 LT PUSH3 0x3E1 JUMPI POP POP DUP5 GT PUSH3 0x3C9 JUMPI JUMPDEST POP POP POP DUP2 SHL ADD DUP4 SSTORE PUSH3 0x11F JUMP JUMPDEST ADD MLOAD PUSH0 NOT DUP4 DUP9 SHL PUSH1 0xF8 AND SHR NOT AND SWAP1 SSTORE PUSH0 DUP1 DUP1 PUSH3 0x3BB JUMP JUMPDEST DUP4 DUP6 ADD MLOAD DUP7 SSTORE DUP14 SWAP8 SWAP1 SWAP6 ADD SWAP5 SWAP4 DUP5 ADD SWAP4 ADD PUSH3 0x3A8 JUMP JUMPDEST SWAP1 SWAP2 POP DUP6 PUSH0 MSTORE DUP8 PUSH0 KECCAK256 DUP6 DUP1 DUP6 ADD PUSH1 0x5 SHR DUP3 ADD SWAP3 DUP11 DUP7 LT PUSH3 0x441 JUMPI JUMPDEST SWAP2 DUP12 SWAP2 DUP7 SWAP6 SWAP5 SWAP4 ADD PUSH1 0x5 SHR ADD SWAP2 JUMPDEST DUP3 DUP2 LT PUSH3 0x432 JUMPI POP POP PUSH3 0xF8 JUMP JUMPDEST PUSH0 DUP2 SSTORE DUP6 SWAP5 POP DUP12 SWAP2 ADD PUSH3 0x422 JUMP JUMPDEST SWAP3 POP DUP2 SWAP3 PUSH3 0x414 JUMP JUMPDEST PUSH4 0x4E487B71 PUSH1 0xE0 SHL PUSH0 MSTORE PUSH1 0x22 PUSH1 0x4 MSTORE PUSH1 0x24 PUSH0 REVERT JUMPDEST SWAP4 PUSH1 0x7F AND SWAP4 PUSH3 0xE1 JUMP JUMPDEST PUSH0 DUP1 REVERT JUMPDEST PUSH1 0x40 MLOAD SWAP2 SWAP1 PUSH1 0x1F ADD PUSH1 0x1F NOT AND DUP3 ADD PUSH1 0x1 PUSH1 0x1 PUSH1 0x40 SHL SUB DUP2 GT DUP4 DUP3 LT OR PUSH3 0x375 JUMPI PUSH1 0x40 MSTORE JUMP JUMPDEST SWAP2 SWAP1 DUP1 PUSH1 0x1F DUP5 ADD SLT ISZERO PUSH3 0x46A JUMPI DUP3 MLOAD PUSH1 0x1 PUSH1 0x1 PUSH1 0x40 SHL SUB DUP2 GT PUSH3 0x375 JUMPI PUSH1 0x20 SWAP1 PUSH3 0x4CA PUSH1 0x1F DUP3 ADD PUSH1 0x1F NOT AND DUP4 ADD PUSH3 0x46E JUMP JUMPDEST SWAP3 DUP2 DUP5 MSTORE DUP3 DUP3 DUP8 ADD ADD GT PUSH3 0x46A JUMPI PUSH0 JUMPDEST DUP2 DUP2 LT PUSH3 0x4F0 JUMPI POP DUP3 PUSH0 SWAP4 SWAP5 SWAP6 POP ADD ADD MSTORE SWAP1 JUMP JUMPDEST DUP6 DUP2 ADD DUP4 ADD MLOAD DUP5 DUP3 ADD DUP5 ADD MSTORE DUP3 ADD PUSH3 0x4DB JUMP JUMPDEST MLOAD SWAP1 PUSH1 0x1 PUSH1 0x1 PUSH1 0xA0 SHL SUB DUP3 AND DUP3 SUB PUSH3 0x46A JUMPI JUMP INVALID PUSH1 0x80 PUSH1 0x40 DUP2 DUP2 MSTORE PUSH1 0x4 SWAP2 DUP3 CALLDATASIZE LT ISZERO PUSH2 0x15 JUMPI PUSH0 DUP1 REVERT JUMPDEST PUSH0 SWAP3 PUSH0 CALLDATALOAD PUSH1 0xE0 SHR SWAP2 DUP3 PUSH4 0x6FDDE03 EQ PUSH2 0x164E JUMPI POP DUP2 PUSH4 0x8C84C21 EQ PUSH2 0x10D8 JUMPI DUP2 PUSH4 0x902F1AC EQ PUSH2 0x10B3 JUMPI DUP2 PUSH4 0x95EA7B3 EQ PUSH2 0x1009 JUMPI DUP2 PUSH4 0x18160DDD EQ PUSH2 0xFEA JUMPI DUP2 PUSH4 0x23B872DD EQ PUSH2 0xEF7 JUMPI DUP2 PUSH4 0x2474B6BC EQ PUSH2 0xEBC JUMPI DUP2 PUSH4 0x2DDC7DE7 EQ PUSH2 0xE81 JUMPI DUP2 PUSH4 0x313CE567 EQ PUSH2 0xE65 JUMPI DUP2 PUSH4 0x3F6FA655 EQ PUSH2 0xE41 JUMPI DUP2 PUSH4 0x4F896D4F EQ PUSH2 0xD5F JUMPI DUP2 PUSH4 0x58F85880 EQ PUSH2 0xD24 JUMPI DUP2 PUSH4 0x5BD9E299 EQ PUSH2 0xCE0 JUMPI DUP2 PUSH4 0x60E30D9E EQ PUSH2 0xCA5 JUMPI DUP2 PUSH4 0x61D027B3 EQ PUSH2 0xC61 JUMPI DUP2 PUSH4 0x70A08231 EQ PUSH2 0xC2A JUMPI DUP2 PUSH4 0x72A9FA6E EQ PUSH2 0xC0B JUMPI DUP2 PUSH4 0x827B6508 EQ PUSH2 0xB5F JUMPI DUP2 PUSH4 0x8779086F EQ PUSH2 0xB3B JUMPI DUP2 PUSH4 0x95D89B41 EQ PUSH2 0xA36 JUMPI DUP2 PUSH4 0x9B34AE03 EQ PUSH2 0xA17 JUMPI DUP2 PUSH4 0x9C8F9F23 EQ PUSH2 0x7B9 JUMPI DUP2 PUSH4 0x9CD441DA EQ PUSH2 0x494 JUMPI DUP2 PUSH4 0xA9059CBB EQ PUSH2 0x463 JUMPI DUP2 PUSH4 0xB2016BD4 EQ PUSH2 0x41F JUMPI DUP2 PUSH4 0xB2670D74 EQ PUSH2 0x400 JUMPI DUP2 PUSH4 0xBDEDA833 EQ PUSH2 0x1EA JUMPI POP DUP1 PUSH4 0xDD62ED3E EQ PUSH2 0x19E JUMPI PUSH4 0xF5B9848D EQ PUSH2 0x161 JUMPI PUSH0 DUP1 REVERT JUMPDEST CALLVALUE PUSH2 0x19A JUMPI DUP2 PUSH1 0x3 NOT CALLDATASIZE ADD SLT PUSH2 0x19A JUMPI PUSH1 0x20 SWAP1 MLOAD PUSH32 0x0 DUP2 MSTORE RETURN JUMPDEST POP DUP1 REVERT JUMPDEST POP CALLVALUE PUSH2 0x19A JUMPI DUP1 PUSH1 0x3 NOT CALLDATASIZE ADD SLT PUSH2 0x19A JUMPI PUSH1 0x20 SWAP2 PUSH2 0x1BA PUSH2 0x1795 JUMP JUMPDEST DUP3 PUSH2 0x1C3 PUSH2 0x17AB JUMP JUMPDEST PUSH1 0x1 PUSH1 0x1 PUSH1 0xA0 SHL SUB SWAP3 DUP4 AND DUP5 MSTORE PUSH1 0x1 DUP7 MSTORE SWAP3 KECCAK256 SWAP2 AND PUSH0 SWAP1 DUP2 MSTORE SWAP1 DUP4 MSTORE DUP2 SWAP1 KECCAK256 SLOAD SWAP1 MLOAD SWAP1 DUP2 MSTORE RETURN JUMPDEST SWAP2 SWAP1 POP CALLVALUE PUSH2 0x344 JUMPI PUSH1 0x20 CALLDATASIZE PUSH1 0x3 NOT ADD SLT PUSH2 0x344 JUMPI DUP2 CALLDATALOAD SWAP2 PUSH2 0x209 PUSH2 0x1A33 JUMP JUMPDEST PUSH1 0xFF PUSH1 0x8 SLOAD AND ISZERO PUSH2 0x3C8 JUMPI PUSH2 0x21F DUP4 ISZERO ISZERO PUSH2 0x180B JUMP JUMPDEST CALLER DUP5 MSTORE DUP4 PUSH1 0x20 MSTORE PUSH2 0x235 DUP4 DUP4 DUP7 KECCAK256 SLOAD LT ISZERO PUSH2 0x19EE JUMP JUMPDEST PUSH1 0x2 SLOAD SWAP3 PUSH2 0x244 DUP5 ISZERO ISZERO PUSH2 0x1895 JUMP JUMPDEST PUSH2 0x267 PUSH1 0x1 PUSH1 0x9 SLOAD EQ SWAP5 DUP6 PUSH0 EQ PUSH2 0x3BD JUMPI PUSH2 0x262 PUSH1 0x6 SLOAD JUMPDEST DUP5 PUSH2 0x18F1 JUMP JUMPDEST PUSH2 0x1904 JUMP JUMPDEST SWAP4 DUP5 ISZERO PUSH2 0x38E JUMPI PUSH2 0x28E SWAP2 SWAP1 ISZERO PUSH2 0x37A JUMPI PUSH2 0x284 DUP6 PUSH1 0x6 SLOAD PUSH2 0x1922 JUMP JUMPDEST PUSH1 0x6 SSTORE JUMPDEST CALLER PUSH2 0x1B1D JUMP JUMPDEST PUSH1 0x9 SLOAD PUSH1 0x1 SUB PUSH2 0x352 JUMPI DUP4 PUSH32 0x0 SWAP2 JUMPDEST PUSH32 0x0 PUSH1 0x1 PUSH1 0x1 PUSH1 0xA0 SHL SUB AND DUP1 EXTCODESIZE ISZERO PUSH2 0x344 JUMPI PUSH2 0x312 SWAP4 DUP4 DUP8 SWAP4 DUP8 MLOAD SWAP7 DUP8 SWAP6 DUP7 SWAP5 DUP6 SWAP4 PUSH4 0x79212195 PUSH1 0xE1 SHL DUP6 MSTORE CALLER SWAP1 ADDRESS SWAP1 DUP7 ADD PUSH2 0x192F JUMP JUMPDEST SUB SWAP3 GAS CALL DUP1 ISZERO PUSH2 0x348 JUMPI PUSH2 0x330 JUMPI JUMPDEST PUSH1 0x20 DUP4 DUP4 PUSH1 0x1 PUSH1 0x5 SSTORE MLOAD SWAP1 DUP2 MSTORE RETURN JUMPDEST PUSH2 0x33A DUP5 SWAP2 PUSH2 0x17C1 JUMP JUMPDEST PUSH2 0x344 JUMPI DUP3 PUSH2 0x321 JUMP JUMPDEST DUP3 DUP1 REVERT JUMPDEST DUP3 MLOAD RETURNDATASIZE DUP7 DUP3 RETURNDATACOPY RETURNDATASIZE SWAP1 REVERT JUMPDEST DUP4 PUSH32 0x0 SWAP2 PUSH2 0x2BC JUMP JUMPDEST PUSH2 0x386 DUP6 PUSH1 0x7 SLOAD PUSH2 0x1922 JUMP JUMPDEST PUSH1 0x7 SSTORE PUSH2 0x288 JUMP JUMPDEST DUP4 MLOAD PUSH3 0x461BCD PUSH1 0xE5 SHL DUP2 MSTORE PUSH1 0x20 DUP2 DUP6 ADD MSTORE PUSH1 0x9 PUSH1 0x24 DUP3 ADD MSTORE PUSH9 0x139BC81C185E5BDD5D PUSH1 0xBA SHL PUSH1 0x44 DUP3 ADD MSTORE PUSH1 0x64 SWAP1 REVERT JUMPDEST PUSH2 0x262 PUSH1 0x7 SLOAD PUSH2 0x25C JUMP JUMPDEST PUSH1 0x20 PUSH1 0x64 SWAP3 MLOAD SWAP2 PUSH3 0x461BCD PUSH1 0xE5 SHL DUP4 MSTORE DUP3 ADD MSTORE PUSH1 0x13 PUSH1 0x24 DUP3 ADD MSTORE PUSH19 0x13585C9AD95D081B9BDD081C995CDBDB1D9959 PUSH1 0x6A SHL PUSH1 0x44 DUP3 ADD MSTORE REVERT JUMPDEST POP POP CALLVALUE PUSH2 0x19A JUMPI DUP2 PUSH1 0x3 NOT CALLDATASIZE ADD SLT PUSH2 0x19A JUMPI PUSH1 0x20 SWAP1 PUSH1 0x6 SLOAD SWAP1 MLOAD SWAP1 DUP2 MSTORE RETURN JUMPDEST POP POP CALLVALUE PUSH2 0x19A JUMPI DUP2 PUSH1 0x3 NOT CALLDATASIZE ADD SLT PUSH2 0x19A JUMPI MLOAD PUSH32 0x0 PUSH1 0x1 PUSH1 0x1 PUSH1 0xA0 SHL SUB AND DUP2 MSTORE PUSH1 0x20 SWAP1 RETURN JUMPDEST POP POP CALLVALUE PUSH2 0x19A JUMPI DUP1 PUSH1 0x3 NOT CALLDATASIZE ADD SLT PUSH2 0x19A JUMPI PUSH1 0x20 SWAP1 PUSH2 0x48D PUSH2 0x483 PUSH2 0x1795 JUMP JUMPDEST PUSH1 0x24 CALLDATALOAD SWAP1 CALLER PUSH2 0x1A56 JUMP JUMPDEST MLOAD PUSH1 0x1 DUP2 MSTORE RETURN JUMPDEST SWAP2 SWAP1 POP CALLVALUE PUSH2 0x344 JUMPI DUP1 PUSH1 0x3 NOT CALLDATASIZE ADD SLT PUSH2 0x344 JUMPI DUP2 CALLDATALOAD PUSH1 0x24 CALLDATALOAD SWAP4 PUSH2 0x4B5 PUSH2 0x1A33 JUMP JUMPDEST DUP2 ISZERO ISZERO DUP1 PUSH2 0x7B0 JUMPI JUMPDEST PUSH2 0x4C7 SWAP1 PUSH2 0x180B JUMP JUMPDEST PUSH2 0x4D6 PUSH1 0xFF PUSH1 0x8 SLOAD AND ISZERO PUSH2 0x1857 JUMP JUMPDEST PUSH32 0x0 PUSH1 0x1 PUSH1 0x1 PUSH1 0xA0 SHL SUB AND DUP1 EXTCODESIZE ISZERO PUSH2 0x19A JUMPI DUP4 MLOAD PUSH4 0x79212195 PUSH1 0xE1 SHL DUP1 DUP3 MSTORE SWAP1 DUP4 DUP2 DUP1 PUSH2 0x547 DUP9 PUSH32 0x0 ADDRESS CALLER DUP15 DUP7 ADD PUSH2 0x192F JUMP JUMPDEST SUB DUP2 DUP4 DUP8 GAS CALL DUP1 ISZERO PUSH2 0x7A6 JUMPI SWAP1 DUP5 SWAP2 PUSH2 0x792 JUMPI JUMPDEST POP POP DUP2 EXTCODESIZE ISZERO PUSH2 0x344 JUMPI DUP5 MLOAD SWAP1 DUP2 MSTORE SWAP1 DUP3 SWAP1 DUP3 SWAP1 DUP2 DUP4 DUP2 PUSH2 0x5A0 DUP13 PUSH32 0x0 ADDRESS CALLER DUP16 DUP7 ADD PUSH2 0x192F JUMP JUMPDEST SUB SWAP3 GAS CALL DUP1 ISZERO PUSH2 0x788 JUMPI SWAP1 DUP3 SWAP2 PUSH2 0x771 JUMPI JUMPDEST POP POP PUSH1 0x2 SLOAD SWAP1 DUP2 PUSH2 0x744 JUMPI PUSH2 0x5C7 DUP7 DUP5 PUSH2 0x18D0 JUMP JUMPDEST SWAP2 PUSH2 0x3E8 SWAP1 DUP2 DUP5 LT PUSH2 0x701 JUMPI DUP2 DUP2 ADD DUP1 SWAP2 GT PUSH2 0x6EE JUMPI PUSH0 DUP1 MLOAD PUSH1 0x20 PUSH2 0x1BAA DUP4 CODECOPY DUP2 MLOAD SWAP2 MSTORE PUSH1 0x20 PUSH1 0x1 SWAP4 PUSH0 SWAP4 PUSH1 0x2 SSTORE DUP5 DUP5 MSTORE DUP4 DUP3 MSTORE DUP9 DUP5 KECCAK256 DUP2 DUP2 SLOAD ADD SWAP1 SSTORE DUP9 MLOAD SWAP1 DUP2 MSTORE LOG3 PUSH2 0x3E7 NOT DUP3 ADD SWAP2 DUP3 GT PUSH2 0x6DB JUMPI POP SWAP3 JUMPDEST PUSH2 0x625 DUP5 ISZERO ISZERO PUSH2 0x19EE JUMP JUMPDEST PUSH2 0x631 DUP3 PUSH1 0x6 SLOAD PUSH2 0x18D0 JUMP JUMPDEST PUSH1 0x6 SSTORE PUSH2 0x640 DUP6 PUSH1 0x7 SLOAD PUSH2 0x18D0 JUMP JUMPDEST PUSH1 0x7 SSTORE CALLER ISZERO PUSH2 0x6C5 JUMPI POP PUSH32 0x64B83944E79C3CE8D4C297411DE637C3E102D064677AAC0C163976EBDCD6F50E DUP4 PUSH1 0x20 SWAP6 PUSH2 0x67B DUP3 PUSH1 0x2 SLOAD PUSH2 0x18D0 JUMP JUMPDEST PUSH1 0x2 SSTORE CALLER PUSH0 MSTORE PUSH0 DUP8 MSTORE DUP5 PUSH0 KECCAK256 DUP3 DUP2 SLOAD ADD SWAP1 SSTORE DUP5 MLOAD DUP3 DUP2 MSTORE PUSH0 PUSH0 DUP1 MLOAD PUSH1 0x20 PUSH2 0x1BAA DUP4 CODECOPY DUP2 MLOAD SWAP2 MSTORE DUP10 CALLER SWAP4 LOG3 DUP5 MLOAD SWAP4 DUP5 MSTORE PUSH1 0x20 DUP5 ADD MSTORE PUSH1 0x40 DUP4 ADD MSTORE CALLER SWAP2 PUSH1 0x60 SWAP1 LOG2 PUSH1 0x1 PUSH1 0x5 SSTORE MLOAD SWAP1 DUP2 MSTORE RETURN JUMPDEST PUSH1 0x24 SWAP1 PUSH0 DUP5 MLOAD SWAP2 PUSH4 0xEC442F05 PUSH1 0xE0 SHL DUP4 MSTORE DUP3 ADD MSTORE REVERT JUMPDEST PUSH4 0x4E487B71 PUSH1 0xE0 SHL DUP2 MSTORE PUSH1 0x11 DUP6 MSTORE PUSH1 0x24 SWAP1 REVERT JUMPDEST PUSH1 0x11 DUP8 PUSH4 0x4E487B71 PUSH1 0xE0 SHL PUSH0 MSTORE MSTORE PUSH1 0x24 PUSH0 REVERT JUMPDEST DUP6 MLOAD PUSH3 0x461BCD PUSH1 0xE5 SHL DUP2 MSTORE PUSH1 0x20 DUP2 DUP10 ADD MSTORE PUSH1 0x1E PUSH1 0x24 DUP3 ADD MSTORE PUSH32 0x496E73756666696369656E7420696E697469616C206C69717569646974790000 PUSH1 0x44 DUP3 ADD MSTORE PUSH1 0x64 SWAP1 REVERT JUMPDEST POP PUSH2 0x76B SWAP1 PUSH2 0x262 PUSH2 0x75B PUSH1 0x6 SLOAD PUSH1 0x7 SLOAD SWAP1 PUSH2 0x18D0 JUMP JUMPDEST SWAP2 PUSH2 0x766 DUP9 DUP7 PUSH2 0x18D0 JUMP JUMPDEST PUSH2 0x18F1 JUMP JUMPDEST SWAP3 PUSH2 0x61A JUMP JUMPDEST PUSH2 0x77A SWAP1 PUSH2 0x17C1 JUMP JUMPDEST PUSH2 0x785 JUMPI DUP1 PUSH0 PUSH2 0x5B2 JUMP JUMPDEST DUP1 REVERT JUMPDEST DUP5 MLOAD RETURNDATASIZE DUP5 DUP3 RETURNDATACOPY RETURNDATASIZE SWAP1 REVERT JUMPDEST PUSH2 0x79B SWAP1 PUSH2 0x17C1 JUMP JUMPDEST PUSH2 0x344 JUMPI DUP3 PUSH0 PUSH2 0x55B JUMP JUMPDEST DUP7 MLOAD RETURNDATASIZE DUP7 DUP3 RETURNDATACOPY RETURNDATASIZE SWAP1 REVERT JUMPDEST POP DUP5 ISZERO ISZERO PUSH2 0x4BE JUMP JUMPDEST DUP4 SWAP2 POP CALLVALUE PUSH2 0x19A JUMPI PUSH1 0x20 CALLDATASIZE PUSH1 0x3 NOT ADD SLT PUSH2 0x19A JUMPI DUP1 CALLDATALOAD PUSH2 0x7D7 PUSH2 0x1A33 JUMP JUMPDEST PUSH2 0x7E2 DUP2 ISZERO ISZERO PUSH2 0x180B JUMP JUMPDEST CALLER DUP4 MSTORE DUP3 PUSH1 0x20 MSTORE PUSH2 0x7F8 DUP2 DUP6 DUP6 KECCAK256 SLOAD LT ISZERO PUSH2 0x19EE JUMP JUMPDEST PUSH1 0x2 SLOAD SWAP3 PUSH2 0x807 DUP5 ISZERO ISZERO PUSH2 0x1895 JUMP JUMPDEST PUSH1 0x6 SLOAD SWAP3 PUSH2 0x819 DUP6 PUSH2 0x262 DUP7 DUP7 PUSH2 0x18F1 JUMP JUMPDEST SWAP5 PUSH2 0x82B PUSH1 0x7 SLOAD SWAP2 PUSH2 0x262 DUP4 DUP8 PUSH2 0x18F1 JUMP JUMPDEST SWAP5 DUP7 ISZERO ISZERO DUP1 PUSH2 0xA0E JUMPI JUMPDEST ISZERO PUSH2 0x9D5 JUMPI PUSH2 0x851 SWAP2 PUSH2 0x849 DUP9 DUP9 SWAP4 PUSH2 0x1922 JUMP JUMPDEST PUSH1 0x6 SSTORE PUSH2 0x1922 JUMP JUMPDEST PUSH1 0x7 SSTORE PUSH2 0x85E DUP4 CALLER PUSH2 0x1B1D JUMP JUMPDEST PUSH32 0x0 PUSH1 0x1 PUSH1 0x1 PUSH1 0xA0 SHL SUB AND SWAP1 DUP2 EXTCODESIZE ISZERO PUSH2 0x344 JUMPI DUP7 MLOAD PUSH4 0x79212195 PUSH1 0xE1 SHL DUP1 DUP3 MSTORE SWAP1 DUP5 DUP2 DUP1 PUSH2 0x8D0 DUP12 PUSH32 0x0 CALLER ADDRESS DUP11 DUP7 ADD PUSH2 0x192F JUMP JUMPDEST SUB DUP2 DUP4 DUP9 GAS CALL DUP1 ISZERO PUSH2 0x9CB JUMPI SWAP1 DUP6 SWAP2 PUSH2 0x9B7 JUMPI JUMPDEST POP POP DUP3 EXTCODESIZE ISZERO PUSH2 0x9B3 JUMPI PUSH2 0x92E SWAP3 DUP5 SWAP3 DUP4 DUP9 SWAP4 DUP12 MLOAD SWAP7 DUP8 SWAP6 DUP7 SWAP5 DUP6 SWAP4 DUP5 MSTORE PUSH32 0x0 SWAP1 CALLER SWAP1 ADDRESS SWAP1 DUP7 ADD PUSH2 0x192F JUMP JUMPDEST SUB SWAP3 GAS CALL DUP1 ISZERO PUSH2 0x9A9 JUMPI PUSH2 0x995 JUMPI JUMPDEST POP POP PUSH32 0x1DC8BB69DF2B8E91FBDCBFCF93D951B3F0000F085A95FE3F7946D6161439245D DUP5 MLOAD DUP1 PUSH2 0x981 CALLER SWAP5 DUP7 DUP9 DUP5 PUSH1 0x40 SWAP2 SWAP5 SWAP4 SWAP3 PUSH1 0x60 DUP3 ADD SWAP6 DUP3 MSTORE PUSH1 0x20 DUP3 ADD MSTORE ADD MSTORE JUMP JUMPDEST SUB SWAP1 LOG2 PUSH1 0x1 PUSH1 0x5 SSTORE DUP3 MLOAD SWAP2 DUP3 MSTORE PUSH1 0x20 DUP3 ADD MSTORE RETURN JUMPDEST PUSH2 0x99F DUP3 SWAP2 PUSH2 0x17C1 JUMP JUMPDEST PUSH2 0x785 JUMPI DUP1 PUSH2 0x93D JUMP JUMPDEST DUP7 MLOAD RETURNDATASIZE DUP5 DUP3 RETURNDATACOPY RETURNDATASIZE SWAP1 REVERT JUMPDEST DUP4 DUP1 REVERT JUMPDEST PUSH2 0x9C0 SWAP1 PUSH2 0x17C1 JUMP JUMPDEST PUSH2 0x9B3 JUMPI DUP4 DUP10 PUSH2 0x8E4 JUMP JUMPDEST DUP10 MLOAD RETURNDATASIZE DUP8 DUP3 RETURNDATACOPY RETURNDATASIZE SWAP1 REVERT JUMPDEST DUP8 MLOAD PUSH3 0x461BCD PUSH1 0xE5 SHL DUP2 MSTORE PUSH1 0x20 DUP2 DUP6 ADD MSTORE PUSH1 0x13 PUSH1 0x24 DUP3 ADD MSTORE PUSH19 0x125B9CDD59999A58DA595B9D081BDD5D1C1D5D PUSH1 0x6A SHL PUSH1 0x44 DUP3 ADD MSTORE PUSH1 0x64 SWAP1 REVERT JUMPDEST POP DUP6 ISZERO ISZERO PUSH2 0x835 JUMP JUMPDEST POP POP CALLVALUE PUSH2 0x19A JUMPI DUP2 PUSH1 0x3 NOT CALLDATASIZE ADD SLT PUSH2 0x19A JUMPI PUSH1 0x20 SWAP1 PUSH1 0x9 SLOAD SWAP1 MLOAD SWAP1 DUP2 MSTORE RETURN JUMPDEST DUP4 DUP4 CALLVALUE PUSH2 0x19A JUMPI DUP2 PUSH1 0x3 NOT CALLDATASIZE ADD SLT PUSH2 0x19A JUMPI DUP1 MLOAD SWAP2 DUP1 SWAP4 DUP1 SLOAD SWAP2 PUSH1 0x1 SWAP1 DUP4 PUSH1 0x1 SHR SWAP3 PUSH1 0x1 DUP6 AND SWAP5 DUP6 ISZERO PUSH2 0xB31 JUMPI JUMPDEST PUSH1 0x20 SWAP6 DUP7 DUP7 LT DUP2 EQ PUSH2 0xB1E JUMPI DUP6 DUP10 MSTORE SWAP1 DUP2 ISZERO PUSH2 0xAFA JUMPI POP PUSH1 0x1 EQ PUSH2 0xAA2 JUMPI JUMPDEST PUSH2 0xA9E DUP8 DUP8 PUSH2 0xA94 DUP3 DUP13 SUB DUP4 PUSH2 0x17E9 JUMP JUMPDEST MLOAD SWAP2 DUP3 SWAP2 DUP3 PUSH2 0x173F JUMP JUMPDEST SUB SWAP1 RETURN JUMPDEST DUP2 MSTORE SWAP3 SWAP6 POP PUSH32 0x8A35ACFBC15FF81A39AE7D344FD709F28E8600B4AA8C65C6B64BFE7FE36BD19B JUMPDEST DUP3 DUP5 LT PUSH2 0xAE7 JUMPI POP POP POP DUP3 PUSH2 0xA9E SWAP5 PUSH2 0xA94 SWAP3 DUP3 ADD ADD SWAP5 DUP7 DUP1 PUSH2 0xA83 JUMP JUMPDEST DUP1 SLOAD DUP7 DUP6 ADD DUP9 ADD MSTORE SWAP3 DUP7 ADD SWAP3 DUP2 ADD PUSH2 0xAC9 JUMP JUMPDEST PUSH1 0xFF NOT AND DUP9 DUP8 ADD MSTORE POP POP POP POP ISZERO ISZERO PUSH1 0x5 SHL DUP4 ADD ADD SWAP3 POP PUSH2 0xA94 DUP3 PUSH2 0xA9E DUP7 DUP1 PUSH2 0xA83 JUMP JUMPDEST PUSH4 0x4E487B71 PUSH1 0xE0 SHL DUP5 MSTORE PUSH1 0x22 DUP4 MSTORE PUSH1 0x24 DUP5 REVERT JUMPDEST SWAP4 PUSH1 0x7F AND SWAP4 PUSH2 0xA64 JUMP JUMPDEST POP POP CALLVALUE PUSH2 0x19A JUMPI DUP2 PUSH1 0x3 NOT CALLDATASIZE ADD SLT PUSH2 0x19A JUMPI PUSH1 0x20 SWAP1 PUSH2 0xB58 PUSH2 0x19A6 JUMP JUMPDEST SWAP1 MLOAD SWAP1 DUP2 MSTORE RETURN JUMPDEST DUP3 DUP5 CALLVALUE PUSH2 0x785 JUMPI DUP2 PUSH1 0x3 NOT CALLDATASIZE ADD SLT PUSH2 0x785 JUMPI POP PUSH2 0xB7A PUSH2 0x1786 JUMP JUMPDEST PUSH1 0x24 CALLDATALOAD PUSH2 0xBD8 PUSH2 0x2710 PUSH2 0xBD0 PUSH2 0x25C PUSH32 0x0 PUSH32 0x0 PUSH2 0x18D0 JUMP JUMPDEST DIV DUP1 SWAP3 PUSH2 0x1922 JUMP JUMPDEST SWAP2 ISZERO PUSH2 0xBF8 JUMPI PUSH2 0xBEC PUSH1 0x7 SLOAD DUP4 GT ISZERO PUSH2 0x1962 JUMP JUMPDEST DUP3 MLOAD SWAP2 DUP3 MSTORE PUSH1 0x20 DUP3 ADD MSTORE RETURN JUMPDEST PUSH2 0xC06 PUSH1 0x6 SLOAD DUP4 GT ISZERO PUSH2 0x1962 JUMP JUMPDEST PUSH2 0xBEC JUMP JUMPDEST POP POP CALLVALUE PUSH2 0x19A JUMPI DUP2 PUSH1 0x3 NOT CALLDATASIZE ADD SLT PUSH2 0x19A JUMPI PUSH1 0x20 SWAP1 PUSH1 0x7 SLOAD SWAP1 MLOAD SWAP1 DUP2 MSTORE RETURN JUMPDEST POP POP CALLVALUE PUSH2 0x19A JUMPI PUSH1 0x20 CALLDATASIZE PUSH1 0x3 NOT ADD SLT PUSH2 0x19A JUMPI PUSH1 0x20 SWAP2 DUP2 SWAP1 PUSH1 0x1 PUSH1 0x1 PUSH1 0xA0 SHL SUB PUSH2 0xC52 PUSH2 0x1795 JUMP JUMPDEST AND DUP2 MSTORE DUP1 DUP5 MSTORE KECCAK256 SLOAD SWAP1 MLOAD SWAP1 DUP2 MSTORE RETURN JUMPDEST POP POP CALLVALUE PUSH2 0x19A JUMPI DUP2 PUSH1 0x3 NOT CALLDATASIZE ADD SLT PUSH2 0x19A JUMPI MLOAD PUSH32 0x0 PUSH1 0x1 PUSH1 0x1 PUSH1 0xA0 SHL SUB AND DUP2 MSTORE PUSH1 0x20 SWAP1 RETURN JUMPDEST POP POP CALLVALUE PUSH2 0x19A JUMPI DUP2 PUSH1 0x3 NOT CALLDATASIZE ADD SLT PUSH2 0x19A JUMPI PUSH1 0x20 SWAP1 MLOAD PUSH32 0x0 DUP2 MSTORE RETURN JUMPDEST POP POP CALLVALUE PUSH2 0x19A JUMPI DUP2 PUSH1 0x3 NOT CALLDATASIZE ADD SLT PUSH2 0x19A JUMPI MLOAD PUSH32 0x0 PUSH1 0x1 PUSH1 0x1 PUSH1 0xA0 SHL SUB AND DUP2 MSTORE PUSH1 0x20 SWAP1 RETURN JUMPDEST POP POP CALLVALUE PUSH2 0x19A JUMPI DUP2 PUSH1 0x3 NOT CALLDATASIZE ADD SLT PUSH2 0x19A JUMPI PUSH1 0x20 SWAP1 MLOAD PUSH32 0x0 DUP2 MSTORE RETURN JUMPDEST SWAP2 SWAP1 POP CALLVALUE PUSH2 0x344 JUMPI PUSH1 0x20 CALLDATASIZE PUSH1 0x3 NOT ADD SLT PUSH2 0x344 JUMPI PUSH1 0x8 SLOAD DUP3 CALLDATALOAD SWAP3 PUSH1 0xFF DUP3 AND PUSH2 0xE0B JUMPI DUP4 ISZERO DUP1 ISZERO PUSH2 0xE01 JUMPI JUMPDEST ISZERO PUSH2 0xDCC JUMPI POP PUSH1 0xFF NOT AND PUSH1 0x1 OR PUSH1 0x8 SSTORE PUSH1 0x9 DUP3 SWAP1 SSTORE MLOAD SWAP1 DUP2 MSTORE PUSH32 0x93608ECBCF057462DA63F5AEF413CE7F78C5E1B3BB51859D77A40845ECE2BFC3 SWAP1 PUSH1 0x20 SWAP1 LOG1 DUP1 RETURN JUMPDEST PUSH1 0x64 SWAP1 PUSH1 0x20 DUP5 MLOAD SWAP2 PUSH3 0x461BCD PUSH1 0xE5 SHL DUP4 MSTORE DUP3 ADD MSTORE PUSH1 0xF PUSH1 0x24 DUP3 ADD MSTORE PUSH15 0x496E76616C6964206F7574636F6D65 PUSH1 0x88 SHL PUSH1 0x44 DUP3 ADD MSTORE REVERT JUMPDEST POP PUSH1 0x1 DUP5 EQ PUSH2 0xD8A JUMP JUMPDEST PUSH1 0x64 SWAP1 PUSH1 0x20 DUP5 MLOAD SWAP2 PUSH3 0x461BCD PUSH1 0xE5 SHL DUP4 MSTORE DUP3 ADD MSTORE PUSH1 0x10 PUSH1 0x24 DUP3 ADD MSTORE PUSH16 0x105B1C9958591E481C995CDBDB1D9959 PUSH1 0x82 SHL PUSH1 0x44 DUP3 ADD MSTORE REVERT JUMPDEST POP POP CALLVALUE PUSH2 0x19A JUMPI DUP2 PUSH1 0x3 NOT CALLDATASIZE ADD SLT PUSH2 0x19A JUMPI PUSH1 0x20 SWAP1 PUSH1 0xFF PUSH1 0x8 SLOAD AND SWAP1 MLOAD SWAP1 ISZERO ISZERO DUP2 MSTORE RETURN JUMPDEST POP POP CALLVALUE PUSH2 0x19A JUMPI DUP2 PUSH1 0x3 NOT CALLDATASIZE ADD SLT PUSH2 0x19A JUMPI PUSH1 0x20 SWAP1 MLOAD PUSH1 0x12 DUP2 MSTORE RETURN JUMPDEST POP POP CALLVALUE PUSH2 0x19A JUMPI DUP2 PUSH1 0x3 NOT CALLDATASIZE ADD SLT PUSH2 0x19A JUMPI PUSH1 0x20 SWAP1 MLOAD PUSH32 0x0 DUP2 MSTORE RETURN JUMPDEST POP POP CALLVALUE PUSH2 0x19A JUMPI DUP2 PUSH1 0x3 NOT CALLDATASIZE ADD SLT PUSH2 0x19A JUMPI PUSH1 0x20 SWAP1 MLOAD PUSH32 0x0 DUP2 MSTORE RETURN JUMPDEST DUP4 SWAP2 POP CALLVALUE PUSH2 0x19A JUMPI PUSH1 0x60 CALLDATASIZE PUSH1 0x3 NOT ADD SLT PUSH2 0x19A JUMPI PUSH2 0xF13 PUSH2 0x1795 JUMP JUMPDEST PUSH2 0xF1B PUSH2 0x17AB JUMP JUMPDEST SWAP2 PUSH1 0x44 CALLDATALOAD SWAP4 DUP6 PUSH1 0x1 DUP1 PUSH1 0xA0 SHL SUB DUP5 AND SWAP2 DUP3 DUP2 MSTORE PUSH1 0x1 PUSH1 0x20 MSTORE KECCAK256 CALLER PUSH0 MSTORE PUSH1 0x20 MSTORE DUP6 PUSH0 KECCAK256 SLOAD SWAP2 PUSH0 NOT DUP4 LT PUSH2 0xF56 JUMPI JUMPDEST PUSH1 0x20 DUP8 PUSH2 0x48D DUP9 DUP9 DUP9 PUSH2 0x1A56 JUMP JUMPDEST DUP6 DUP4 LT PUSH2 0xFBE JUMPI DUP2 ISZERO PUSH2 0xFA8 JUMPI CALLER ISZERO PUSH2 0xF92 JUMPI POP PUSH0 SWAP1 DUP2 MSTORE PUSH1 0x1 PUSH1 0x20 SWAP1 DUP2 MSTORE DUP7 DUP3 KECCAK256 CALLER DUP4 MSTORE DUP2 MSTORE SWAP1 DUP7 SWAP1 KECCAK256 SWAP2 DUP6 SWAP1 SUB SWAP1 SWAP2 SSTORE DUP3 SWAP1 PUSH2 0x48D PUSH2 0xF48 JUMP JUMPDEST PUSH1 0x24 SWAP1 PUSH0 DUP9 MLOAD SWAP2 PUSH4 0x4A1406B1 PUSH1 0xE1 SHL DUP4 MSTORE DUP3 ADD MSTORE REVERT JUMPDEST PUSH1 0x24 SWAP1 PUSH0 DUP9 MLOAD SWAP2 PUSH4 0xE602DF05 PUSH1 0xE0 SHL DUP4 MSTORE DUP3 ADD MSTORE REVERT JUMPDEST DUP7 MLOAD PUSH4 0x7DC7A0D9 PUSH1 0xE1 SHL DUP2 MSTORE CALLER SWAP2 DUP2 ADD SWAP2 DUP3 MSTORE PUSH1 0x20 DUP3 ADD SWAP4 SWAP1 SWAP4 MSTORE PUSH1 0x40 DUP2 ADD DUP7 SWAP1 MSTORE DUP3 SWAP2 POP PUSH1 0x60 ADD SUB SWAP1 REVERT JUMPDEST POP POP CALLVALUE PUSH2 0x19A JUMPI DUP2 PUSH1 0x3 NOT CALLDATASIZE ADD SLT PUSH2 0x19A JUMPI PUSH1 0x20 SWAP1 PUSH1 0x2 SLOAD SWAP1 MLOAD SWAP1 DUP2 MSTORE RETURN JUMPDEST DUP3 DUP5 CALLVALUE PUSH2 0x785 JUMPI DUP2 PUSH1 0x3 NOT CALLDATASIZE ADD SLT PUSH2 0x785 JUMPI POP PUSH2 0x1024 PUSH2 0x1795 JUMP JUMPDEST PUSH1 0x24 CALLDATALOAD SWAP1 CALLER ISZERO PUSH2 0x109D JUMPI PUSH1 0x1 PUSH1 0x1 PUSH1 0xA0 SHL SUB AND SWAP1 DUP2 ISZERO PUSH2 0x1087 JUMPI PUSH1 0x20 SWAP4 POP CALLER PUSH0 MSTORE PUSH1 0x1 DUP5 MSTORE DUP3 PUSH0 KECCAK256 DUP3 PUSH0 MSTORE DUP5 MSTORE DUP1 DUP4 PUSH0 KECCAK256 SSTORE DUP3 MLOAD SWAP1 DUP2 MSTORE PUSH32 0x8C5BE1E5EBEC7D5BD14F71427D1E84F3DD0314C0F7B2291E5B200AC8C7C3B925 DUP5 CALLER SWAP3 LOG3 MLOAD PUSH1 0x1 DUP2 MSTORE RETURN JUMPDEST DUP3 MLOAD PUSH4 0x4A1406B1 PUSH1 0xE1 SHL DUP2 MSTORE PUSH0 DUP2 DUP7 ADD MSTORE PUSH1 0x24 SWAP1 REVERT JUMPDEST DUP3 MLOAD PUSH4 0xE602DF05 PUSH1 0xE0 SHL DUP2 MSTORE PUSH0 DUP2 DUP7 ADD MSTORE PUSH1 0x24 SWAP1 REVERT JUMPDEST DUP3 DUP5 CALLVALUE PUSH2 0x785 JUMPI DUP1 PUSH1 0x3 NOT CALLDATASIZE ADD SLT PUSH2 0x785 JUMPI POP PUSH1 0x6 SLOAD PUSH1 0x7 SLOAD DUP3 MLOAD SWAP2 DUP3 MSTORE PUSH1 0x20 DUP3 ADD MSTORE RETURN JUMPDEST SWAP2 SWAP1 POP CALLVALUE PUSH2 0x15C5 JUMPI PUSH1 0x60 CALLDATASIZE PUSH1 0x3 NOT ADD SLT PUSH2 0x15C5 JUMPI PUSH2 0x10F4 PUSH2 0x1786 JUMP JUMPDEST PUSH1 0x24 CALLDATALOAD PUSH2 0x10FF PUSH2 0x1A33 JUMP JUMPDEST PUSH2 0x110A DUP2 ISZERO ISZERO PUSH2 0x180B JUMP JUMPDEST PUSH2 0x1119 PUSH1 0xFF PUSH1 0x8 SLOAD AND ISZERO PUSH2 0x1857 JUMP JUMPDEST PUSH1 0x6 SLOAD SWAP4 DUP5 ISZERO ISZERO DUP1 PUSH2 0x1643 JUMPI JUMPDEST PUSH2 0x112F SWAP1 PUSH2 0x1895 JUMP JUMPDEST PUSH32 0x0 SWAP2 PUSH2 0x2710 PUSH2 0x1193 DUP2 PUSH2 0x118B PUSH2 0x1185 PUSH32 0x0 DUP9 PUSH2 0x18D0 JUMP JUMPDEST DUP6 PUSH2 0x18F1 JUMP JUMPDEST DIV SWAP5 DUP4 PUSH2 0x18F1 JUMP JUMPDEST DIV SWAP2 PUSH2 0x11A9 PUSH2 0x11A2 DUP5 DUP7 PUSH2 0x1922 JUMP JUMPDEST SWAP5 DUP4 PUSH2 0x1922 JUMP JUMPDEST SWAP7 PUSH1 0x44 CALLDATALOAD DUP9 LT PUSH2 0x160C JUMPI DUP6 ISZERO PUSH2 0x1413 JUMPI POP PUSH1 0x7 SLOAD DUP8 GT PUSH2 0x13D0 JUMPI PUSH32 0x0 PUSH32 0x0 PUSH1 0x1 PUSH1 0x1 PUSH1 0xA0 SHL SUB AND DUP1 EXTCODESIZE ISZERO PUSH2 0x13CC JUMPI DUP8 MLOAD PUSH4 0x79212195 PUSH1 0xE1 SHL DUP1 DUP3 MSTORE SWAP4 SWAP1 DUP12 SWAP1 DUP2 DUP2 DUP1 PUSH2 0x1238 DUP11 DUP10 ADDRESS CALLER DUP11 DUP7 ADD PUSH2 0x192F JUMP JUMPDEST SUB DUP2 DUP4 DUP9 GAS CALL DUP1 ISZERO PUSH2 0x13AE JUMPI PUSH2 0x13B8 JUMPI JUMPDEST POP POP PUSH2 0x1257 DUP11 PUSH1 0x7 SLOAD PUSH2 0x18D0 JUMP JUMPDEST PUSH1 0x7 SSTORE PUSH2 0x1266 DUP11 PUSH1 0x6 SLOAD PUSH2 0x1922 JUMP JUMPDEST PUSH1 0x6 SSTORE DUP2 EXTCODESIZE ISZERO PUSH2 0x13AA JUMPI DUP9 MLOAD DUP5 DUP2 MSTORE DUP12 SWAP1 DUP2 DUP2 DUP1 PUSH2 0x12A9 DUP16 PUSH32 0x0 CALLER ADDRESS DUP11 DUP7 ADD PUSH2 0x192F JUMP JUMPDEST SUB DUP2 DUP4 DUP9 GAS CALL DUP1 ISZERO PUSH2 0x13AE JUMPI PUSH2 0x1396 JUMPI JUMPDEST POP POP DUP7 PUSH2 0x1316 JUMPI JUMPDEST POP POP POP POP PUSH1 0x20 SWAP7 POP JUMPDEST DUP5 MLOAD SWAP4 ISZERO ISZERO DUP5 MSTORE DUP7 DUP5 ADD MSTORE DUP5 DUP5 DUP5 ADD MSTORE PUSH1 0x60 DUP4 ADD MSTORE PUSH1 0x80 DUP3 ADD MSTORE PUSH32 0xD55848F048CA7D5FD9869D414BB60A426C2B0125C8ADB982FEE123DA3F841ED8 PUSH1 0xA0 CALLER SWAP3 LOG2 PUSH1 0x1 PUSH1 0x5 SSTORE MLOAD SWAP1 DUP2 MSTORE RETURN JUMPDEST SWAP1 DUP11 SWAP3 SWAP2 DUP2 EXTCODESIZE ISZERO PUSH2 0x9B3 JUMPI DUP4 DUP9 SWAP6 PUSH2 0x135D DUP13 MLOAD SWAP8 DUP9 SWAP7 DUP8 SWAP6 DUP7 SWAP5 DUP6 MSTORE PUSH32 0x0 SWAP1 ADDRESS SWAP1 DUP7 ADD PUSH2 0x192F JUMP JUMPDEST SUB SWAP3 GAS CALL DUP1 ISZERO PUSH2 0x138C JUMPI PUSH2 0x1374 JUMPI JUMPDEST DUP1 DUP1 DUP1 PUSH2 0x12C2 JUMP JUMPDEST PUSH2 0x137E DUP9 SWAP2 PUSH2 0x17C1 JUMP JUMPDEST PUSH2 0x1388 JUMPI DUP7 PUSH2 0x136C JUMP JUMPDEST DUP7 DUP1 REVERT JUMPDEST DUP7 MLOAD RETURNDATASIZE DUP11 DUP3 RETURNDATACOPY RETURNDATASIZE SWAP1 REVERT JUMPDEST PUSH2 0x139F SWAP1 PUSH2 0x17C1 JUMP JUMPDEST PUSH2 0x13AA JUMPI DUP11 PUSH0 PUSH2 0x12BA JUMP JUMPDEST DUP11 DUP1 REVERT JUMPDEST DUP12 MLOAD RETURNDATASIZE DUP5 DUP3 RETURNDATACOPY RETURNDATASIZE SWAP1 REVERT JUMPDEST PUSH2 0x13C1 SWAP1 PUSH2 0x17C1 JUMP JUMPDEST PUSH2 0x13AA JUMPI DUP11 PUSH0 PUSH2 0x1249 JUMP JUMPDEST DUP10 DUP1 REVERT JUMPDEST PUSH1 0x64 SWAP1 PUSH1 0x20 DUP8 MLOAD SWAP2 PUSH3 0x461BCD PUSH1 0xE5 SHL DUP4 MSTORE DUP3 ADD MSTORE PUSH1 0x17 PUSH1 0x24 DUP3 ADD MSTORE PUSH32 0x496E73756666696369656E74204E4F2072657365727665000000000000000000 PUSH1 0x44 DUP3 ADD MSTORE REVERT JUMPDEST DUP8 GT PUSH2 0x15C9 JUMPI PUSH32 0x0 PUSH32 0x0 PUSH1 0x1 PUSH1 0x1 PUSH1 0xA0 SHL SUB AND DUP1 EXTCODESIZE ISZERO PUSH2 0x15C5 JUMPI DUP8 MLOAD PUSH4 0x79212195 PUSH1 0xE1 SHL DUP1 DUP3 MSTORE SWAP4 SWAP1 PUSH0 DUP2 DUP1 PUSH2 0x148C DUP10 DUP9 ADDRESS CALLER DUP10 DUP7 ADD PUSH2 0x192F JUMP JUMPDEST SUB DUP2 DUP4 DUP8 GAS CALL DUP1 ISZERO PUSH2 0x15BB JUMPI PUSH2 0x15A8 JUMPI JUMPDEST POP PUSH2 0x14AA DUP11 PUSH1 0x6 SLOAD PUSH2 0x18D0 JUMP JUMPDEST PUSH1 0x6 SSTORE PUSH2 0x14B9 DUP11 PUSH1 0x7 SLOAD PUSH2 0x1922 JUMP JUMPDEST PUSH1 0x7 SSTORE DUP2 EXTCODESIZE ISZERO PUSH2 0x13AA JUMPI DUP9 MLOAD DUP5 DUP2 MSTORE DUP12 SWAP1 DUP2 DUP2 DUP1 PUSH2 0x14FC DUP16 PUSH32 0x0 CALLER ADDRESS DUP11 DUP7 ADD PUSH2 0x192F JUMP JUMPDEST SUB DUP2 DUP4 DUP9 GAS CALL DUP1 ISZERO PUSH2 0x13AE JUMPI PUSH2 0x1594 JUMPI JUMPDEST POP POP DUP7 PUSH2 0x1522 JUMPI JUMPDEST POP POP POP POP PUSH1 0x20 SWAP7 POP PUSH2 0x12CB JUMP JUMPDEST SWAP1 DUP11 SWAP3 SWAP2 DUP2 EXTCODESIZE ISZERO PUSH2 0x9B3 JUMPI DUP4 DUP9 SWAP6 PUSH2 0x1569 DUP13 MLOAD SWAP8 DUP9 SWAP7 DUP8 SWAP6 DUP7 SWAP5 DUP6 MSTORE PUSH32 0x0 SWAP1 ADDRESS SWAP1 DUP7 ADD PUSH2 0x192F JUMP JUMPDEST SUB SWAP3 GAS CALL DUP1 ISZERO PUSH2 0x138C JUMPI PUSH2 0x1580 JUMPI JUMPDEST DUP1 DUP1 DUP1 PUSH2 0x1515 JUMP JUMPDEST PUSH2 0x158A DUP9 SWAP2 PUSH2 0x17C1 JUMP JUMPDEST PUSH2 0x1388 JUMPI DUP7 PUSH2 0x1578 JUMP JUMPDEST PUSH2 0x159D SWAP1 PUSH2 0x17C1 JUMP JUMPDEST PUSH2 0x13AA JUMPI DUP11 PUSH0 PUSH2 0x150D JUMP JUMPDEST PUSH2 0x15B3 SWAP2 SWAP12 POP PUSH2 0x17C1 JUMP JUMPDEST PUSH0 SWAP10 PUSH0 PUSH2 0x149D JUMP JUMPDEST DUP11 MLOAD RETURNDATASIZE PUSH0 DUP3 RETURNDATACOPY RETURNDATASIZE SWAP1 REVERT JUMPDEST PUSH0 DUP1 REVERT JUMPDEST PUSH1 0x64 SWAP1 PUSH1 0x20 DUP8 MLOAD SWAP2 PUSH3 0x461BCD PUSH1 0xE5 SHL DUP4 MSTORE DUP3 ADD MSTORE PUSH1 0x18 PUSH1 0x24 DUP3 ADD MSTORE PUSH32 0x496E73756666696369656E742059455320726573657276650000000000000000 PUSH1 0x44 DUP3 ADD MSTORE REVERT JUMPDEST DUP7 MLOAD PUSH3 0x461BCD PUSH1 0xE5 SHL DUP2 MSTORE PUSH1 0x20 DUP2 DUP5 ADD MSTORE PUSH1 0x11 PUSH1 0x24 DUP3 ADD MSTORE PUSH17 0x14DB1A5C1C1859D948195E18D959591959 PUSH1 0x7A SHL PUSH1 0x44 DUP3 ADD MSTORE PUSH1 0x64 SWAP1 REVERT JUMPDEST POP PUSH1 0x7 SLOAD ISZERO ISZERO PUSH2 0x1126 JUMP JUMPDEST DUP4 CALLVALUE PUSH2 0x15C5 JUMPI PUSH0 CALLDATASIZE PUSH1 0x3 NOT ADD SLT PUSH2 0x15C5 JUMPI PUSH0 SWAP3 PUSH1 0x3 SLOAD PUSH1 0x1 DUP2 PUSH1 0x1 SHR SWAP2 PUSH1 0x1 DUP2 AND DUP1 ISZERO PUSH2 0x1735 JUMPI JUMPDEST PUSH1 0x20 SWAP5 DUP6 DUP6 LT DUP3 EQ PUSH2 0x1722 JUMPI POP DUP4 DUP8 MSTORE SWAP1 DUP2 ISZERO PUSH2 0x1702 JUMPI POP PUSH1 0x1 EQ PUSH2 0x16A8 JUMPI JUMPDEST POP POP POP PUSH2 0xA94 DUP3 PUSH2 0xA9E SWAP5 SUB DUP4 PUSH2 0x17E9 JUMP JUMPDEST PUSH1 0x3 PUSH0 SWAP1 DUP2 MSTORE SWAP3 SWAP6 POP PUSH32 0xC2575A0E9E593C00F959F8C92F12DB2869C3395A3B0502D05E2516446F71F85B JUMPDEST DUP3 DUP5 LT PUSH2 0x16EF JUMPI POP POP POP DUP3 PUSH2 0xA9E SWAP5 PUSH2 0xA94 SWAP3 DUP3 ADD ADD SWAP5 PUSH2 0x1696 JUMP JUMPDEST DUP1 SLOAD DUP7 DUP6 ADD DUP9 ADD MSTORE SWAP3 DUP7 ADD SWAP3 DUP2 ADD PUSH2 0x16D3 JUMP JUMPDEST PUSH1 0xFF NOT AND DUP7 DUP6 ADD MSTORE POP POP ISZERO ISZERO PUSH1 0x5 SHL DUP4 ADD ADD SWAP3 POP PUSH2 0xA94 DUP3 PUSH2 0xA9E PUSH2 0x1696 JUMP JUMPDEST PUSH1 0x22 SWAP1 PUSH4 0x4E487B71 PUSH1 0xE0 SHL PUSH0 MSTORE MSTORE PUSH1 0x24 PUSH0 REVERT JUMPDEST SWAP3 PUSH1 0x7F AND SWAP3 PUSH2 0x1676 JUMP JUMPDEST PUSH1 0x20 DUP1 DUP3 MSTORE DUP3 MLOAD DUP2 DUP4 ADD DUP2 SWAP1 MSTORE SWAP1 SWAP4 SWAP3 PUSH0 JUMPDEST DUP3 DUP2 LT PUSH2 0x1772 JUMPI POP POP PUSH1 0x40 SWAP3 SWAP4 POP PUSH0 DUP4 DUP3 DUP5 ADD ADD MSTORE PUSH1 0x1F DUP1 NOT SWAP2 ADD AND ADD ADD SWAP1 JUMP JUMPDEST DUP2 DUP2 ADD DUP7 ADD MLOAD DUP5 DUP3 ADD PUSH1 0x40 ADD MSTORE DUP6 ADD PUSH2 0x1751 JUMP JUMPDEST PUSH1 0x4 CALLDATALOAD SWAP1 DUP2 ISZERO ISZERO DUP3 SUB PUSH2 0x15C5 JUMPI JUMP JUMPDEST PUSH1 0x4 CALLDATALOAD SWAP1 PUSH1 0x1 PUSH1 0x1 PUSH1 0xA0 SHL SUB DUP3 AND DUP3 SUB PUSH2 0x15C5 JUMPI JUMP JUMPDEST PUSH1 0x24 CALLDATALOAD SWAP1 PUSH1 0x1 PUSH1 0x1 PUSH1 0xA0 SHL SUB DUP3 AND DUP3 SUB PUSH2 0x15C5 JUMPI JUMP JUMPDEST PUSH8 0xFFFFFFFFFFFFFFFF DUP2 GT PUSH2 0x17D5 JUMPI PUSH1 0x40 MSTORE JUMP JUMPDEST PUSH4 0x4E487B71 PUSH1 0xE0 SHL PUSH0 MSTORE PUSH1 0x41 PUSH1 0x4 MSTORE PUSH1 0x24 PUSH0 REVERT JUMPDEST SWAP1 PUSH1 0x1F DUP1 NOT SWAP2 ADD AND DUP2 ADD SWAP1 DUP2 LT PUSH8 0xFFFFFFFFFFFFFFFF DUP3 GT OR PUSH2 0x17D5 JUMPI PUSH1 0x40 MSTORE JUMP JUMPDEST ISZERO PUSH2 0x1812 JUMPI JUMP JUMPDEST PUSH1 0x40 MLOAD PUSH3 0x461BCD PUSH1 0xE5 SHL DUP2 MSTORE PUSH1 0x20 PUSH1 0x4 DUP3 ADD MSTORE PUSH1 0x17 PUSH1 0x24 DUP3 ADD MSTORE PUSH32 0x416D6F756E74206D75737420626520706F736974697665000000000000000000 PUSH1 0x44 DUP3 ADD MSTORE PUSH1 0x64 SWAP1 REVERT JUMPDEST ISZERO PUSH2 0x185E JUMPI JUMP JUMPDEST PUSH1 0x40 MLOAD PUSH3 0x461BCD PUSH1 0xE5 SHL DUP2 MSTORE PUSH1 0x20 PUSH1 0x4 DUP3 ADD MSTORE PUSH1 0xF PUSH1 0x24 DUP3 ADD MSTORE PUSH15 0x13585C9AD95D081C995CDBDB1D9959 PUSH1 0x8A SHL PUSH1 0x44 DUP3 ADD MSTORE PUSH1 0x64 SWAP1 REVERT JUMPDEST ISZERO PUSH2 0x189C JUMPI JUMP JUMPDEST PUSH1 0x40 MLOAD PUSH3 0x461BCD PUSH1 0xE5 SHL DUP2 MSTORE PUSH1 0x20 PUSH1 0x4 DUP3 ADD MSTORE PUSH1 0xC PUSH1 0x24 DUP3 ADD MSTORE PUSH12 0x4E6F206C6971756964697479 PUSH1 0xA0 SHL PUSH1 0x44 DUP3 ADD MSTORE PUSH1 0x64 SWAP1 REVERT JUMPDEST SWAP2 SWAP1 DUP3 ADD DUP1 SWAP3 GT PUSH2 0x18DD JUMPI JUMP JUMPDEST PUSH4 0x4E487B71 PUSH1 0xE0 SHL PUSH0 MSTORE PUSH1 0x11 PUSH1 0x4 MSTORE PUSH1 0x24 PUSH0 REVERT JUMPDEST DUP2 DUP2 MUL SWAP3 SWAP2 DUP2 ISZERO SWAP2 DUP5 DIV EQ OR ISZERO PUSH2 0x18DD JUMPI JUMP JUMPDEST DUP2 ISZERO PUSH2 0x190E JUMPI DIV SWAP1 JUMP JUMPDEST PUSH4 0x4E487B71 PUSH1 0xE0 SHL PUSH0 MSTORE PUSH1 0x12 PUSH1 0x4 MSTORE PUSH1 0x24 PUSH0 REVERT JUMPDEST SWAP2 SWAP1 DUP3 SUB SWAP2 DUP3 GT PUSH2 0x18DD JUMPI JUMP JUMPDEST SWAP3 SWAP1 PUSH1 0xC0 SWAP5 SWAP3 PUSH1 0x1 DUP1 PUSH1 0xA0 SHL SUB DUP1 SWAP3 AND DUP6 MSTORE AND PUSH1 0x20 DUP5 ADD MSTORE PUSH1 0x40 DUP4 ADD MSTORE PUSH1 0x60 DUP3 ADD MSTORE PUSH1 0xA0 PUSH1 0x80 DUP3 ADD MSTORE PUSH0 PUSH1 0xA0 DUP3 ADD MSTORE ADD SWAP1 JUMP JUMPDEST ISZERO PUSH2 0x1969 JUMPI JUMP JUMPDEST PUSH1 0x40 MLOAD PUSH3 0x461BCD PUSH1 0xE5 SHL DUP2 MSTORE PUSH1 0x20 PUSH1 0x4 DUP3 ADD MSTORE PUSH1 0x15 PUSH1 0x24 DUP3 ADD MSTORE PUSH21 0x496E73756666696369656E74207265736572766573 PUSH1 0x58 SHL PUSH1 0x44 DUP3 ADD MSTORE PUSH1 0x64 SWAP1 REVERT JUMPDEST PUSH1 0x6 SLOAD PUSH1 0x7 SLOAD SWAP1 PUSH2 0x19B7 DUP3 DUP3 PUSH2 0x18D0 JUMP JUMPDEST ISZERO PUSH2 0x19E6 JUMPI PUSH2 0x2710 SWAP1 DUP2 DUP2 MUL SWAP2 DUP2 DUP4 DIV EQ DUP2 ISZERO OR ISZERO PUSH2 0x18DD JUMPI PUSH2 0x19E3 SWAP3 PUSH2 0x19DD SWAP2 PUSH2 0x18D0 JUMP JUMPDEST SWAP1 PUSH2 0x1904 JUMP JUMPDEST SWAP1 JUMP JUMPDEST POP POP PUSH2 0x1388 SWAP1 JUMP JUMPDEST ISZERO PUSH2 0x19F5 JUMPI JUMP JUMPDEST PUSH1 0x40 MLOAD PUSH3 0x461BCD PUSH1 0xE5 SHL DUP2 MSTORE PUSH1 0x20 PUSH1 0x4 DUP3 ADD MSTORE PUSH1 0x16 PUSH1 0x24 DUP3 ADD MSTORE PUSH22 0x496E73756666696369656E74204C5020746F6B656E73 PUSH1 0x50 SHL PUSH1 0x44 DUP3 ADD MSTORE PUSH1 0x64 SWAP1 REVERT JUMPDEST PUSH1 0x2 PUSH1 0x5 SLOAD EQ PUSH2 0x1A44 JUMPI PUSH1 0x2 PUSH1 0x5 SSTORE JUMP JUMPDEST PUSH1 0x40 MLOAD PUSH4 0x3EE5AEB5 PUSH1 0xE0 SHL DUP2 MSTORE PUSH1 0x4 SWAP1 REVERT JUMPDEST SWAP2 PUSH1 0x1 PUSH1 0x1 PUSH1 0xA0 SHL SUB DUP1 DUP5 AND SWAP3 DUP4 ISZERO PUSH2 0x1B05 JUMPI AND SWAP3 DUP4 ISZERO PUSH2 0x1AED JUMPI DUP3 PUSH0 MSTORE PUSH0 PUSH1 0x20 MSTORE PUSH1 0x40 PUSH0 KECCAK256 SLOAD SWAP1 DUP3 DUP3 LT PUSH2 0x1ABB JUMPI POP DUP2 PUSH0 DUP1 MLOAD PUSH1 0x20 PUSH2 0x1BAA DUP4 CODECOPY DUP2 MLOAD SWAP2 MSTORE SWAP3 PUSH1 0x20 SWAP3 DUP6 PUSH0 MSTORE PUSH0 DUP5 MSTORE SUB PUSH1 0x40 PUSH0 KECCAK256 SSTORE DUP5 PUSH0 MSTORE PUSH1 0x40 PUSH0 KECCAK256 DUP2 DUP2 SLOAD ADD SWAP1 SSTORE PUSH1 0x40 MLOAD SWAP1 DUP2 MSTORE LOG3 JUMP JUMPDEST PUSH1 0x40 MLOAD PUSH4 0x391434E3 PUSH1 0xE2 SHL DUP2 MSTORE PUSH1 0x1 PUSH1 0x1 PUSH1 0xA0 SHL SUB SWAP2 SWAP1 SWAP2 AND PUSH1 0x4 DUP3 ADD MSTORE PUSH1 0x24 DUP2 ADD SWAP2 SWAP1 SWAP2 MSTORE PUSH1 0x44 DUP2 ADD DUP3 SWAP1 MSTORE PUSH1 0x64 SWAP1 REVERT JUMPDEST PUSH1 0x40 MLOAD PUSH4 0xEC442F05 PUSH1 0xE0 SHL DUP2 MSTORE PUSH0 PUSH1 0x4 DUP3 ADD MSTORE PUSH1 0x24 SWAP1 REVERT JUMPDEST PUSH1 0x40 MLOAD PUSH4 0x4B637E8F PUSH1 0xE1 SHL DUP2 MSTORE PUSH0 PUSH1 0x4 DUP3 ADD MSTORE PUSH1 0x24 SWAP1 REVERT JUMPDEST SWAP2 SWAP1 PUSH1 0x1 PUSH1 0x1 PUSH1 0xA0 SHL SUB DUP4 AND SWAP1 DUP2 ISZERO PUSH2 0x1B05 JUMPI DUP2 PUSH0 MSTORE PUSH0 PUSH1 0x20 MSTORE PUSH1 0x40 PUSH0 KECCAK256 SLOAD SWAP4 DUP2 DUP6 LT PUSH2 0x1B77 JUMPI POP PUSH1 0x20 DUP2 PUSH0 DUP1 MLOAD PUSH1 0x20 PUSH2 0x1BAA DUP4 CODECOPY DUP2 MLOAD SWAP2 MSTORE SWAP3 PUSH0 SWAP6 SWAP7 DUP6 DUP8 MSTORE DUP7 DUP5 MSTORE SUB PUSH1 0x40 DUP7 KECCAK256 SSTORE DUP1 PUSH1 0x2 SLOAD SUB PUSH1 0x2 SSTORE PUSH1 0x40 MLOAD SWAP1 DUP2 MSTORE LOG3 JUMP JUMPDEST PUSH1 0x40 MLOAD PUSH4 0x391434E3 PUSH1 0xE2 SHL DUP2 MSTORE PUSH1 0x1 PUSH1 0x1 PUSH1 0xA0 SHL SUB SWAP2 SWAP1 SWAP2 AND PUSH1 0x4 DUP3 ADD MSTORE PUSH1 0x24 DUP2 ADD DUP6 SWAP1 MSTORE PUSH1 0x44 DUP2 ADD SWAP2 SWAP1 SWAP2 MSTORE PUSH1 0x64 SWAP1 REVERT INVALID 0xDD CALLCODE MSTORE 0xAD SHL 0xE2 0xC8 SWAP12 PUSH10 0xC2B068FC378DAA952BA7 CALL PUSH4 0xC4A11628 CREATE2 GAS 0x4D CREATE2 0x23 0xB3 0xEF LOG2 PUSH5 0x6970667358 0x22 SLT KECCAK256 PUSH30 0x9E2CA83E39C6F32DEEF138B6A6EE3101F4A4E58B33B094A7C146E77A5952 0xEC PUSH5 0x736F6C6343 STOP ADDMOD XOR STOP CALLER "},"methodIdentifiers":{"addLiquidity(uint256,uint256)":"9cd441da","allowance(address,address)":"dd62ed3e","approve(address,uint256)":"095ea7b3","balanceOf(address)":"70a08231","collateralToken()":"b2016bd4","conditionId()":"2ddc7de7","conditionalTokens()":"5bd9e299","decimals()":"313ce567","getReserves()":"0902f1ac","getSwapOutput(bool,uint256)":"827b6508","getYesPrice()":"8779086f","lpFeeRate()":"f5b9848d","name()":"06fdde03","noPositionId()":"60e30d9e","noReserve()":"72a9fa6e","protocolFeeRate()":"58f85880","redeemLPTokens(uint256)":"bdeda833","removeLiquidity(uint256)":"9c8f9f23","resolve(uint256)":"4f896d4f","resolved()":"3f6fa655","swap(bool,uint256,uint256)":"08c84c21","symbol()":"95d89b41","totalSupply()":"18160ddd","transfer(address,uint256)":"a9059cbb","transferFrom(address,address,uint256)":"23b872dd","treasury()":"61d027b3","winningOutcome()":"9b34ae03","yesPositionId()":"2474b6bc","yesReserve()":"b2670d74"}}}}}