{"project/contracts/ConditionalTokens.sol":{"ConditionalTokens":{"abi":[{"inputs":[],"stateMutability":"nonpayable","type":"constructor"},{"inputs":[{"internalType":"address","name":"sender","type":"address"},{"internalType":"uint256","name":"balance","type":"uint256"},{"internalType":"uint256","name":"needed","type":"uint256"},{"internalType":"uint256","name":"tokenId","type":"uint256"}],"name":"ERC1155InsufficientBalance","type":"error"},{"inputs":[{"internalType":"address","name":"approver","type":"address"}],"name":"ERC1155InvalidApprover","type":"error"},{"inputs":[{"internalType":"uint256","name":"idsLength","type":"uint256"},{"internalType":"uint256","name":"valuesLength","type":"uint256"}],"name":"ERC1155InvalidArrayLength","type":"error"},{"inputs":[{"internalType":"address","name":"operator","type":"address"}],"name":"ERC1155InvalidOperator","type":"error"},{"inputs":[{"internalType":"address","name":"receiver","type":"address"}],"name":"ERC1155InvalidReceiver","type":"error"},{"inputs":[{"internalType":"address","name":"sender","type":"address"}],"name":"ERC1155InvalidSender","type":"error"},{"inputs":[{"internalType":"address","name":"operator","type":"address"},{"internalType":"address","name":"owner","type":"address"}],"name":"ERC1155MissingApprovalForAll","type":"error"},{"anonymous":false,"inputs":[{"indexed":true,"internalType":"address","name":"account","type":"address"},{"indexed":true,"internalType":"address","name":"operator","type":"address"},{"indexed":false,"internalType":"bool","name":"approved","type":"bool"}],"name":"ApprovalForAll","type":"event"},{"anonymous":false,"inputs":[{"indexed":true,"internalType":"bytes32","name":"conditionId","type":"bytes32"},{"indexed":true,"internalType":"address","name":"oracle","type":"address"},{"indexed":true,"internalType":"bytes32","name":"questionId","type":"bytes32"},{"indexed":false,"internalType":"uint256","name":"outcomeSlotCount","type":"uint256"}],"name":"ConditionPreparation","type":"event"},{"anonymous":false,"inputs":[{"indexed":true,"internalType":"bytes32","name":"conditionId","type":"bytes32"},{"indexed":true,"internalType":"address","name":"oracle","type":"address"},{"indexed":true,"internalType":"bytes32","name":"questionId","type":"bytes32"},{"indexed":false,"internalType":"uint256","name":"outcomeSlotCount","type":"uint256"},{"indexed":false,"internalType":"uint256[]","name":"payoutNumerators","type":"uint256[]"}],"name":"ConditionResolution","type":"event"},{"anonymous":false,"inputs":[{"indexed":true,"internalType":"address","name":"stakeholder","type":"address"},{"indexed":false,"internalType":"contract IERC20","name":"collateralToken","type":"address"},{"indexed":true,"internalType":"bytes32","name":"parentCollectionId","type":"bytes32"},{"indexed":true,"internalType":"bytes32","name":"conditionId","type":"bytes32"},{"indexed":false,"internalType":"uint256[]","name":"partition","type":"uint256[]"},{"indexed":false,"internalType":"uint256","name":"amount","type":"uint256"}],"name":"PositionSplit","type":"event"},{"anonymous":false,"inputs":[{"indexed":true,"internalType":"address","name":"stakeholder","type":"address"},{"indexed":false,"internalType":"contract IERC20","name":"collateralToken","type":"address"},{"indexed":true,"internalType":"bytes32","name":"parentCollectionId","type":"bytes32"},{"indexed":true,"internalType":"bytes32","name":"conditionId","type":"bytes32"},{"indexed":false,"internalType":"uint256[]","name":"partition","type":"uint256[]"},{"indexed":false,"internalType":"uint256","name":"amount","type":"uint256"}],"name":"PositionsMerge","type":"event"},{"anonymous":false,"inputs":[{"indexed":true,"internalType":"address","name":"operator","type":"address"},{"indexed":true,"internalType":"address","name":"from","type":"address"},{"indexed":true,"internalType":"address","name":"to","type":"address"},{"indexed":false,"internalType":"uint256[]","name":"ids","type":"uint256[]"},{"indexed":false,"internalType":"uint256[]","name":"values","type":"uint256[]"}],"name":"TransferBatch","type":"event"},{"anonymous":false,"inputs":[{"indexed":true,"internalType":"address","name":"operator","type":"address"},{"indexed":true,"internalType":"address","name":"from","type":"address"},{"indexed":true,"internalType":"address","name":"to","type":"address"},{"indexed":false,"internalType":"uint256","name":"id","type":"uint256"},{"indexed":false,"internalType":"uint256","name":"value","type":"uint256"}],"name":"TransferSingle","type":"event"},{"anonymous":false,"inputs":[{"indexed":false,"internalType":"string","name":"value","type":"string"},{"indexed":true,"internalType":"uint256","name":"id","type":"uint256"}],"name":"URI","type":"event"},{"inputs":[{"internalType":"address","name":"account","type":"address"},{"internalType":"uint256","name":"id","type":"uint256"}],"name":"balanceOf","outputs":[{"internalType":"uint256","name":"","type":"uint256"}],"stateMutability":"view","type":"function"},{"inputs":[{"internalType":"address[]","name":"accounts","type":"address[]"},{"internalType":"uint256[]","name":"ids","type":"uint256[]"}],"name":"balanceOfBatch","outputs":[{"internalType":"uint256[]","name":"","type":"uint256[]"}],"stateMutability":"view","type":"function"},{"inputs":[{"internalType":"bytes32","name":"parentCollectionId","type":"bytes32"},{"internalType":"bytes32","name":"conditionId","type":"bytes32"},{"internalType":"uint256","name":"indexSet","type":"uint256"}],"name":"getCollectionId","outputs":[{"internalType":"bytes32","name":"","type":"bytes32"}],"stateMutability":"pure","type":"function"},{"inputs":[{"internalType":"address","name":"oracle","type":"address"},{"internalType":"bytes32","name":"questionId","type":"bytes32"},{"internalType":"uint256","name":"outcomeSlotCount","type":"uint256"}],"name":"getConditionId","outputs":[{"internalType":"bytes32","name":"","type":"bytes32"}],"stateMutability":"pure","type":"function"},{"inputs":[{"internalType":"bytes32","name":"conditionId","type":"bytes32"}],"name":"getOutcomeSlotCount","outputs":[{"internalType":"uint256","name":"","type":"uint256"}],"stateMutability":"view","type":"function"},{"inputs":[{"internalType":"contract IERC20","name":"collateralToken","type":"address"},{"internalType":"bytes32","name":"collectionId","type":"bytes32"}],"name":"getPositionId","outputs":[{"internalType":"uint256","name":"","type":"uint256"}],"stateMutability":"pure","type":"function"},{"inputs":[{"internalType":"address","name":"account","type":"address"},{"internalType":"address","name":"operator","type":"address"}],"name":"isApprovedForAll","outputs":[{"internalType":"bool","name":"","type":"bool"}],"stateMutability":"view","type":"function"},{"inputs":[{"internalType":"contract IERC20","name":"collateralToken","type":"address"},{"internalType":"bytes32","name":"parentCollectionId","type":"bytes32"},{"internalType":"bytes32","name":"conditionId","type":"bytes32"},{"internalType":"uint256[]","name":"partition","type":"uint256[]"},{"internalType":"uint256","name":"amount","type":"uint256"}],"name":"mergePositions","outputs":[],"stateMutability":"nonpayable","type":"function"},{"inputs":[{"internalType":"bytes32","name":"","type":"bytes32"}],"name":"outcomeSlotCounts","outputs":[{"internalType":"uint256","name":"","type":"uint256"}],"stateMutability":"view","type":"function"},{"inputs":[{"internalType":"bytes32","name":"","type":"bytes32"},{"internalType":"uint256","name":"","type":"uint256"}],"name":"payoutNumerators","outputs":[{"internalType":"uint256","name":"","type":"uint256"}],"stateMutability":"view","type":"function"},{"inputs":[{"internalType":"address","name":"oracle","type":"address"},{"internalType":"bytes32","name":"questionId","type":"bytes32"},{"internalType":"uint256","name":"outcomeSlotCount","type":"uint256"}],"name":"prepareCondition","outputs":[],"stateMutability":"nonpayable","type":"function"},{"inputs":[{"internalType":"bytes32","name":"questionId","type":"bytes32"},{"internalType":"uint256[]","name":"_payoutNumerators","type":"uint256[]"}],"name":"reportPayouts","outputs":[],"stateMutability":"nonpayable","type":"function"},{"inputs":[{"internalType":"address","name":"from","type":"address"},{"internalType":"address","name":"to","type":"address"},{"internalType":"uint256[]","name":"ids","type":"uint256[]"},{"internalType":"uint256[]","name":"values","type":"uint256[]"},{"internalType":"bytes","name":"data","type":"bytes"}],"name":"safeBatchTransferFrom","outputs":[],"stateMutability":"nonpayable","type":"function"},{"inputs":[{"internalType":"address","name":"from","type":"address"},{"internalType":"address","name":"to","type":"address"},{"internalType":"uint256","name":"id","type":"uint256"},{"internalType":"uint256","name":"value","type":"uint256"},{"internalType":"bytes","name":"data","type":"bytes"}],"name":"safeTransferFrom","outputs":[],"stateMutability":"nonpayable","type":"function"},{"inputs":[{"internalType":"address","name":"operator","type":"address"},{"internalType":"bool","name":"approved","type":"bool"}],"name":"setApprovalForAll","outputs":[],"stateMutability":"nonpayable","type":"function"},{"inputs":[{"internalType":"contract IERC20","name":"collateralToken","type":"address"},{"internalType":"bytes32","name":"parentCollectionId","type":"bytes32"},{"internalType":"bytes32","name":"conditionId","type":"bytes32"},{"internalType":"uint256[]","name":"partition","type":"uint256[]"},{"internalType":"uint256","name":"amount","type":"uint256"}],"name":"splitPosition","outputs":[],"stateMutability":"nonpayable","type":"function"},{"inputs":[{"internalType":"bytes4","name":"interfaceId","type":"bytes4"}],"name":"supportsInterface","outputs":[{"internalType":"bool","name":"","type":"bool"}],"stateMutability":"view","type":"function"},{"inputs":[{"internalType":"uint256","name":"","type":"uint256"}],"name":"uri","outputs":[{"internalType":"string","name":"","type":"string"}],"stateMutability":"view","type":"function"}],"evm":{"bytecode":{"linkReferences":{},"object":"6080346100d65760208101906001600160401b038211818310176100c2575f9160405252600254600190600181811c911680156100b8575b60208210146100a457601f811161005d575b5f6002556040516119d89081620000db8239f35b60025f52601f0160051c7f405787fa12a823e0f2b7631cc41b3ba8828b3321ca811111fa75cd3aa3bb5ace908101905b81811061009a5750610049565b5f8155820161008d565b634e487b7160e01b5f52602260045260245ffd5b90607f1690610037565b634e487b7160e01b5f52604160045260245ffd5b5f80fdfe60806040526004361015610011575f80fd5b5f3560e01c8062fdd58e1461012e57806301ffc9a7146101295780630504c814146101245780630e89341c1461011f5780632eb2c2d61461011a57806339dd7530146101155780634e1273f41461011057806372ce42751461010b578063852c6ae214610106578063856296f7146101015780639e7212ad146100fc578063a22cb465146100f7578063c49298ac146100f2578063d42dc0c2146100de578063d96ee754146100ed578063e985e9c5146100e8578063f242432a146100e35763f2521c12146100de575f80fd5b610bd3565b610d20565b610cbc565b610bfd565b610aee565b610a2e565b610954565b610933565b61091a565b6107dc565b6106a8565b610631565b610507565b6102b8565b610228565b6101a6565b610148565b6001600160a01b0381160361014457565b5f80fd5b3461014457604036600319011261014457602061018b60043561016a81610133565b6024355f525f835260405f209060018060a01b03165f5260205260405f2090565b54604051908152f35b6001600160e01b031981160361014457565b346101445760203660031901126101445760206004356101c581610194565b63ffffffff60e01b16636cdb3d1360e11b8114908115610203575b81156101f2575b506040519015158152f35b6301ffc9a760e01b1490505f6101e7565b6303a24d0760e21b811491506101e0565b634e487b7160e01b5f52603260045260245ffd5b34610144576040366003190112610144576024356004355f52600460205260405f20908154811015610144576020915f52815f200154604051908152f35b91908251928382525f5b848110610290575050825f602080949584010152601f8019910116010190565b602081830181015184830182015201610270565b9060206102b5928181520190610266565b90565b346101445760208060031936011261014457604051905f906002546001918160011c92600183169283156103b5575b6020851084146103a15784875260208701939081156103825750600114610329575b610325866103198188038261040e565b604051918291826102a4565b0390f35b60025f90815294509192917f405787fa12a823e0f2b7631cc41b3ba8828b3321ca811111fa75cd3aa3bb5ace5b8386106103715750505091019050610319826103255f610309565b805485870152948201948101610356565b60ff1916845250505090151560051b019050610319826103255f610309565b634e487b7160e01b5f52602260045260245ffd5b93607f16936102e7565b634e487b7160e01b5f52604160045260245ffd5b606081019081106001600160401b038211176103ee57604052565b6103bf565b602081019081106001600160401b038211176103ee57604052565b90601f801991011681019081106001600160401b038211176103ee57604052565b6001600160401b0381116103ee5760051b60200190565b9080601f830112156101445760209082356104608161042f565b9361046e604051958661040e565b81855260208086019260051b82010192831161014457602001905b828210610497575050505090565b81358152908301908301610489565b6001600160401b0381116103ee57601f01601f191660200190565b81601f82011215610144578035906104d8826104a6565b926104e6604051948561040e565b8284526020838301011161014457815f926020809301838601378301015290565b346101445760a0366003190112610144576004803561052581610133565b60243561053181610133565b6001600160401b0390604435828111610144576105519036908601610446565b90606435838111610144576105699036908701610446565b926084359081116101445761058190369087016104c1565b936001600160a01b0380821690338214158061060e575b6105e1578316156105ca57156105b4576105b2955061144d565b005b604051626a0d4560e21b81525f81880152602490fd5b604051632bfa23e760e11b81525f81890152602490fd5b6040805163711bec9160e11b815233818b019081526001600160a01b038616602082015290918291010390fd5b505f82815260016020908152604080832033845290915290205460ff1615610598565b3461014457604036600319011261014457602061065c60043561065381610133565b60243590610e42565b604051908152f35b9081518082526020808093019301915f5b828110610683575050505090565b835185529381019392810192600101610675565b9060206102b5928181520190610664565b34610144576040366003190112610144576004356001600160401b0380821161014457366023830112156101445781600401356106e48161042f565b926106f2604051948561040e565b8184526020916024602086019160051b8301019136831161014457602401905b82821061074b5785602435868111610144576103259161073961073f923690600401610446565b90610e92565b60405191829182610697565b838091833561075981610133565b815201910190610712565b9181601f84011215610144578235916001600160401b038311610144576020808501948460051b01011161014457565b9060a0600319830112610144576004356107ad81610133565b916024359160443591606435906001600160401b038211610144576107d491600401610764565b909160843590565b34610144576107ea36610794565b6107fb819694969392931515610f4f565b6040516323b872dd60e01b8152336004820152306024820152604481018290526020816064815f6001600160a01b038a165af180156108f257610845915f916108c3575b50610fbb565b5f5b8381106108895750906108847f2e6bb91f8cbcda0c93623c54d0403a43514fabc40084ec96b6d5379a74786298939260405193849333978561104d565b0390a4005b806108bd6108ad6108a76108a06001958989611007565b358b6110c4565b88610e42565b846108b6611017565b913361117d565b01610847565b6108e5915060203d6020116108eb575b6108dd818361040e565b810190610f9b565b5f61083f565b503d6108d3565b610fb0565b60609060031901126101445760043561090f81610133565b906024359060443590565b3461014457602061065c61092d366108f7565b91611078565b3461014457606036600319011261014457602061065c6044356024356110c4565b346101445761096236610794565b91610971839694961515610f4f565b5f5b8281106109f3575060405163a9059cbb60e01b815233600482015260248101849052926020846044815f6001600160a01b038a165af19081156108f2576109e5610884927f6f13ca62553fcc2bcd2372180a43949c1e4cebba603901ede2f4e14f36b282ca965f916108c35750610fbb565b60405193849333978561104d565b80610a1e85610a18610a12610a0b6001968989611007565b358c6110c4565b89610e42565b336112d6565b01610973565b8015150361014457565b3461014457604036600319011261014457600435610a4b81610133565b602435610a5781610a24565b6001600160a01b038216918215610ad757335f9081526001602090815260408083206001600160a01b0390941683529290522060ff1981541660ff831515161790557f17307eab39ab6107e8899845ad3d59bd9653f200f220920489ca2b5937696c3160405180610ad2339482919091602081019215159052565b0390a3005b60405162ced3e160e81b81525f6004820152602490fd5b34610144576040366003190112610144576004356024356001600160401b03811161014457610b21903690600401610764565b610b2c818433611078565b90815f52600460205260405f2054610b8e5761088481610b7f7fb44d84d3289691f71497564b85d4233648d9dbae8cbdbb4329f301c3a01858949386610b7a875f52600460205260405f2090565b6110e2565b60405191829133968184611166565b60405162461bcd60e51b815260206004820152601860248201527f5061796f75747320616c7265616479207265706f7274656400000000000000006044820152606490fd5b34610144576020366003190112610144576004355f526003602052602060405f2054604051908152f35b3461014457610c0b366108f7565b9091610c18828483611078565b90815f52600360205260405f2054610c77576108847fab3760c3bd2bb38b5bcf54dc79802ed67338b4cf29f3054ded67ed24661e417791835f5260036020528460405f205560405191829160018060a01b031695829190602083019252565b60405162461bcd60e51b815260206004820152601a60248201527f436f6e646974696f6e20616c72656164792070726570617265640000000000006044820152606490fd5b3461014457604036600319011261014457602060ff610d14600435610ce081610133565b60243590610ced82610133565b60018060a01b03165f526001845260405f209060018060a01b03165f5260205260405f2090565b54166040519015158152f35b346101445760a036600319011261014457600435610d3d81610133565b602435610d4981610133565b6084356001600160401b03811161014457610d689036906004016104c1565b906001600160a01b03838116903382141580610e1f575b610df857821615610de05715610dc9576105b292610dc16064356044359160405192600184526020840152604083019160018352606084015260808301604052565b92909161144d565b604051626a0d4560e21b81525f6004820152602490fd5b604051632bfa23e760e11b81525f6004820152602490fd5b60405163711bec9160e11b81523360048201526001600160a01b0386166024820152604490fd5b505f82815260016020908152604080832033845290915290205460ff1615610d7f565b906040519060208201926bffffffffffffffffffffffff199060601b168352603482015260348152610e73816103d3565b51902090565b8051821015610e8d5760209160051b010190565b610214565b91909180518351808203610f2d575050805190610ec7610eb18361042f565b92610ebf604051948561040e565b80845261042f565b60209190601f190136848401375f5b8151811015610f2557600581901b8281018401519087018401515f908152602081815260408083206001600160a01b039094168352929052205460019190610f1e8287610e79565b5201610ed6565b509193505050565b604051635b05999160e01b815260048101919091526024810191909152604490fd5b15610f5657565b60405162461bcd60e51b815260206004820152601760248201527f416d6f756e74206d75737420626520706f7369746976650000000000000000006044820152606490fd5b9081602091031261014457516102b581610a24565b6040513d5f823e3d90fd5b15610fc257565b60405162461bcd60e51b815260206004820152601a60248201527f436f6c6c61746572616c207472616e73666572206661696c65640000000000006044820152606490fd5b9190811015610e8d5760051b0190565b60405190611024826103f3565b5f8252565b81835290916001600160fb1b0383116101445760209260051b809284830137010190565b949392916040926110739260018060a01b03168752606060208801526060870191611029565b930152565b916040519160208301936bffffffffffffffffffffffff199060601b1684526034830152605482015260548152608081018181106001600160401b038211176103ee5760405251902090565b906040519060208201928352604082015260408152610e73816103d3565b906001600160401b0383116103ee576801000000000000000083116103ee578154838355808410611140575b5061111d90915f5260205f2090565b5f5b83811061112c5750505050565b60019060208435940193818401550161111f565b825f528360205f2091820191015b81811061115b575061110e565b5f815560010161114e565b6040906102b5949281528160208201520191611029565b6001600160a01b03811693929091908415610de0576111b960405192600184526020840152604083019160018352606084015260808301604052565b928151845190818103610f2d5750505f5b8251811015611224578060019160051b61121c611214876111ff602080868b010151958c010151945f525f60205260405f2090565b9060018060a01b03165f5260205260405f2090565b91825461163b565b9055016111ca565b5092919360018251145f1461129b576020828101518482015160408051928352928201525f9133917fc3d58168c5ae7397731d063d5bbf3d657854427343f4c083240f7aacaa2d0f629190a45b8051600103611291579060208061128f959301519101519133611936565b565b61128f9333611741565b5f6040517f4a39dc06d4c0dbc64b70af90fd698a233a518aa5d07e595d983b8c0526c8f7fb3391806112ce88888361165c565b0390a4611271565b6001600160a01b038116929091908315610dc95761131160405192600184526020840152604083019160018352606084015260808301604052565b91906040945f604051611323816103f3565b528151845190818103610f2d5750505f5b82518110156113c4578060051b60208082860101519187010151611363866111ff845f525f60205260405f2090565b5481811061138e57866111ff60019594936113879303935f525f60205260405f2090565b5501611334565b89516303dee4c560e01b81526001600160a01b038816600482015260248101919091526044810182905260648101839052608490fd5b5094505f939291506001815114841461141a5760209081015191810151604080519384529183015233917fc3d58168c5ae7397731d063d5bbf3d657854427343f4c083240f7aacaa2d0f6291819081015b0390a4565b60405133927f4a39dc06d4c0dbc64b70af90fd698a233a518aa5d07e595d983b8c0526c8f7fb928291611415918361165c565b949190918151845190818103610f2d5750505f5b825181101561154657600581901b83810160209081015191870101516001600160a01b03929186908a85166114c6575b60019482166114a4575b50505001611461565b6114bc916111ff611214925f525f60205260405f2090565b90555f858161149b565b91929390506114e08a6111ff845f525f60205260405f2090565b5483811061150f57918791846001969594036115078d6111ff855f525f60205260405f2090565b559450611491565b6040516303dee4c560e01b81526001600160a01b038c16600482015260248101919091526044810184905260648101839052608490fd5b5094919392909360018551145f146115f0576020858101518382015160408051928352928201526001600160a01b03838116929086169133917fc3d58168c5ae7397731d063d5bbf3d657854427343f4c083240f7aacaa2d0f6291a45b6001600160a01b0381166115b9575b5050505050565b84516001036115df576020806115d5960151920151923361196b565b5f808080806115b2565b6115eb9491923361183a565b6115d5565b6040516001600160a01b03828116919085169033907f4a39dc06d4c0dbc64b70af90fd698a233a518aa5d07e595d983b8c0526c8f7fb9080611633888c8361165c565b0390a46115a3565b9190820180921161164857565b634e487b7160e01b5f52601160045260245ffd5b90916116736102b593604084526040840190610664565b916020818403910152610664565b9081602091031261014457516102b581610194565b926116c46102b595936116d29360018060a01b031686525f602087015260a0604087015260a0860190610664565b908482036060860152610664565b916080818403910152610266565b93906102b595936116c4916116d29460018060a01b03809216885216602087015260a0604087015260a0860190610664565b3d1561173c573d90611723826104a6565b91611731604051938461040e565b82523d5f602084013e565b606090565b9293919093843b611753575050505050565b602091611776604051948593849363bc197c8160e01b9889865260048601611696565b03815f6001600160a01b0388165af15f9181611809575b506117cc578261179b611712565b80519190826117c557604051632bfa23e760e11b81526001600160a01b0383166004820152602490fd5b6020915001fd5b6001600160e01b031916036117e657505f808080806115b2565b604051632bfa23e760e11b81526001600160a01b03919091166004820152602490fd5b61182c91925060203d602011611833575b611824818361040e565b810190611681565b905f61178d565b503d61181a565b939290949194853b61184f575b505050505050565b611872602093604051958694859463bc197c8160e01b998a8752600487016116e0565b03815f6001600160a01b0388165af15f91816118b2575b50611897578261179b611712565b6001600160e01b031916036117e657505f8080808080611847565b6118cc91925060203d60201161183357611824818361040e565b905f611889565b909260a0926102b59594600180861b031683525f6020840152604083015260608201528160808201520190610266565b91926102b595949160a094600180871b038092168552166020840152604083015260608201528160808201520190610266565b9293919093843b611948575050505050565b602091611776604051948593849363f23a6e6160e01b98898652600486016118d3565b939290949194853b61197f57505050505050565b611872602093604051958694859463f23a6e6160e01b998a87526004870161190356fea2646970667358221220eb7d716a719d60d42396fefc0345ec019aec0861d332a1702ec9962a784caf2364736f6c63430008180033","opcodes":"PUSH1 0x80 CALLVALUE PUSH2 0xD6 JUMPI PUSH1 0x20 DUP2 ADD SWAP1 PUSH1 0x1 PUSH1 0x1 PUSH1 0x40 SHL SUB DUP3 GT DUP2 DUP4 LT OR PUSH2 0xC2 JUMPI PUSH0 SWAP2 PUSH1 0x40 MSTORE MSTORE PUSH1 0x2 SLOAD PUSH1 0x1 SWAP1 PUSH1 0x1 DUP2 DUP2 SHR SWAP2 AND DUP1 ISZERO PUSH2 0xB8 JUMPI JUMPDEST PUSH1 0x20 DUP3 LT EQ PUSH2 0xA4 JUMPI PUSH1 0x1F DUP2 GT PUSH2 0x5D JUMPI JUMPDEST PUSH0 PUSH1 0x2 SSTORE PUSH1 0x40 MLOAD PUSH2 0x19D8 SWAP1 DUP2 PUSH3 0xDB DUP3 CODECOPY RETURN JUMPDEST PUSH1 0x2 PUSH0 MSTORE PUSH1 0x1F ADD PUSH1 0x5 SHR PUSH32 0x405787FA12A823E0F2B7631CC41B3BA8828B3321CA811111FA75CD3AA3BB5ACE SWAP1 DUP2 ADD SWAP1 JUMPDEST DUP2 DUP2 LT PUSH2 0x9A JUMPI POP PUSH2 0x49 JUMP JUMPDEST PUSH0 DUP2 SSTORE DUP3 ADD PUSH2 0x8D JUMP JUMPDEST PUSH4 0x4E487B71 PUSH1 0xE0 SHL PUSH0 MSTORE PUSH1 0x22 PUSH1 0x4 MSTORE PUSH1 0x24 PUSH0 REVERT JUMPDEST SWAP1 PUSH1 0x7F AND SWAP1 PUSH2 0x37 JUMP JUMPDEST PUSH4 0x4E487B71 PUSH1 0xE0 SHL PUSH0 MSTORE PUSH1 0x41 PUSH1 0x4 MSTORE PUSH1 0x24 PUSH0 REVERT JUMPDEST PUSH0 DUP1 REVERT INVALID PUSH1 0x80 PUSH1 0x40 MSTORE PUSH1 0x4 CALLDATASIZE LT ISZERO PUSH2 0x11 JUMPI PUSH0 DUP1 REVERT JUMPDEST PUSH0 CALLDATALOAD PUSH1 0xE0 SHR DUP1 PUSH3 0xFDD58E EQ PUSH2 0x12E JUMPI DUP1 PUSH4 0x1FFC9A7 EQ PUSH2 0x129 JUMPI DUP1 PUSH4 0x504C814 EQ PUSH2 0x124 JUMPI DUP1 PUSH4 0xE89341C EQ PUSH2 0x11F JUMPI DUP1 PUSH4 0x2EB2C2D6 EQ PUSH2 0x11A JUMPI DUP1 PUSH4 0x39DD7530 EQ PUSH2 0x115 JUMPI DUP1 PUSH4 0x4E1273F4 EQ PUSH2 0x110 JUMPI DUP1 PUSH4 0x72CE4275 EQ PUSH2 0x10B JUMPI DUP1 PUSH4 0x852C6AE2 EQ PUSH2 0x106 JUMPI DUP1 PUSH4 0x856296F7 EQ PUSH2 0x101 JUMPI DUP1 PUSH4 0x9E7212AD EQ PUSH2 0xFC JUMPI DUP1 PUSH4 0xA22CB465 EQ PUSH2 0xF7 JUMPI DUP1 PUSH4 0xC49298AC EQ PUSH2 0xF2 JUMPI DUP1 PUSH4 0xD42DC0C2 EQ PUSH2 0xDE JUMPI DUP1 PUSH4 0xD96EE754 EQ PUSH2 0xED JUMPI DUP1 PUSH4 0xE985E9C5 EQ PUSH2 0xE8 JUMPI DUP1 PUSH4 0xF242432A EQ PUSH2 0xE3 JUMPI PUSH4 0xF2521C12 EQ PUSH2 0xDE JUMPI PUSH0 DUP1 REVERT JUMPDEST PUSH2 0xBD3 JUMP JUMPDEST PUSH2 0xD20 JUMP JUMPDEST PUSH2 0xCBC JUMP JUMPDEST PUSH2 0xBFD JUMP JUMPDEST PUSH2 0xAEE JUMP JUMPDEST PUSH2 0xA2E JUMP JUMPDEST PUSH2 0x954 JUMP JUMPDEST PUSH2 0x933 JUMP JUMPDEST PUSH2 0x91A JUMP JUMPDEST PUSH2 0x7DC JUMP JUMPDEST PUSH2 0x6A8 JUMP JUMPDEST PUSH2 0x631 JUMP JUMPDEST PUSH2 0x507 JUMP JUMPDEST PUSH2 0x2B8 JUMP JUMPDEST PUSH2 0x228 JUMP JUMPDEST PUSH2 0x1A6 JUMP JUMPDEST PUSH2 0x148 JUMP JUMPDEST PUSH1 0x1 PUSH1 0x1 PUSH1 0xA0 SHL SUB DUP2 AND SUB PUSH2 0x144 JUMPI JUMP JUMPDEST PUSH0 DUP1 REVERT JUMPDEST CALLVALUE PUSH2 0x144 JUMPI PUSH1 0x40 CALLDATASIZE PUSH1 0x3 NOT ADD SLT PUSH2 0x144 JUMPI PUSH1 0x20 PUSH2 0x18B PUSH1 0x4 CALLDATALOAD PUSH2 0x16A DUP2 PUSH2 0x133 JUMP JUMPDEST PUSH1 0x24 CALLDATALOAD PUSH0 MSTORE PUSH0 DUP4 MSTORE PUSH1 0x40 PUSH0 KECCAK256 SWAP1 PUSH1 0x1 DUP1 PUSH1 0xA0 SHL SUB AND PUSH0 MSTORE PUSH1 0x20 MSTORE PUSH1 0x40 PUSH0 KECCAK256 SWAP1 JUMP JUMPDEST SLOAD PUSH1 0x40 MLOAD SWAP1 DUP2 MSTORE RETURN JUMPDEST PUSH1 0x1 PUSH1 0x1 PUSH1 0xE0 SHL SUB NOT DUP2 AND SUB PUSH2 0x144 JUMPI JUMP JUMPDEST CALLVALUE PUSH2 0x144 JUMPI PUSH1 0x20 CALLDATASIZE PUSH1 0x3 NOT ADD SLT PUSH2 0x144 JUMPI PUSH1 0x20 PUSH1 0x4 CALLDATALOAD PUSH2 0x1C5 DUP2 PUSH2 0x194 JUMP JUMPDEST PUSH4 0xFFFFFFFF PUSH1 0xE0 SHL AND PUSH4 0x6CDB3D13 PUSH1 0xE1 SHL DUP2 EQ SWAP1 DUP2 ISZERO PUSH2 0x203 JUMPI JUMPDEST DUP2 ISZERO PUSH2 0x1F2 JUMPI JUMPDEST POP PUSH1 0x40 MLOAD SWAP1 ISZERO ISZERO DUP2 MSTORE RETURN JUMPDEST PUSH4 0x1FFC9A7 PUSH1 0xE0 SHL EQ SWAP1 POP PUSH0 PUSH2 0x1E7 JUMP JUMPDEST PUSH4 0x3A24D07 PUSH1 0xE2 SHL DUP2 EQ SWAP2 POP PUSH2 0x1E0 JUMP JUMPDEST PUSH4 0x4E487B71 PUSH1 0xE0 SHL PUSH0 MSTORE PUSH1 0x32 PUSH1 0x4 MSTORE PUSH1 0x24 PUSH0 REVERT JUMPDEST CALLVALUE PUSH2 0x144 JUMPI PUSH1 0x40 CALLDATASIZE PUSH1 0x3 NOT ADD SLT PUSH2 0x144 JUMPI PUSH1 0x24 CALLDATALOAD PUSH1 0x4 CALLDATALOAD PUSH0 MSTORE PUSH1 0x4 PUSH1 0x20 MSTORE PUSH1 0x40 PUSH0 KECCAK256 SWAP1 DUP2 SLOAD DUP2 LT ISZERO PUSH2 0x144 JUMPI PUSH1 0x20 SWAP2 PUSH0 MSTORE DUP2 PUSH0 KECCAK256 ADD SLOAD PUSH1 0x40 MLOAD SWAP1 DUP2 MSTORE RETURN JUMPDEST SWAP2 SWAP1 DUP3 MLOAD SWAP3 DUP4 DUP3 MSTORE PUSH0 JUMPDEST DUP5 DUP2 LT PUSH2 0x290 JUMPI POP POP DUP3 PUSH0 PUSH1 0x20 DUP1 SWAP5 SWAP6 DUP5 ADD ADD MSTORE PUSH1 0x1F DUP1 NOT SWAP2 ADD AND ADD ADD SWAP1 JUMP JUMPDEST PUSH1 0x20 DUP2 DUP4 ADD DUP2 ADD MLOAD DUP5 DUP4 ADD DUP3 ADD MSTORE ADD PUSH2 0x270 JUMP JUMPDEST SWAP1 PUSH1 0x20 PUSH2 0x2B5 SWAP3 DUP2 DUP2 MSTORE ADD SWAP1 PUSH2 0x266 JUMP JUMPDEST SWAP1 JUMP JUMPDEST CALLVALUE PUSH2 0x144 JUMPI PUSH1 0x20 DUP1 PUSH1 0x3 NOT CALLDATASIZE ADD SLT PUSH2 0x144 JUMPI PUSH1 0x40 MLOAD SWAP1 PUSH0 SWAP1 PUSH1 0x2 SLOAD PUSH1 0x1 SWAP2 DUP2 PUSH1 0x1 SHR SWAP3 PUSH1 0x1 DUP4 AND SWAP3 DUP4 ISZERO PUSH2 0x3B5 JUMPI JUMPDEST PUSH1 0x20 DUP6 LT DUP5 EQ PUSH2 0x3A1 JUMPI DUP5 DUP8 MSTORE PUSH1 0x20 DUP8 ADD SWAP4 SWAP1 DUP2 ISZERO PUSH2 0x382 JUMPI POP PUSH1 0x1 EQ PUSH2 0x329 JUMPI JUMPDEST PUSH2 0x325 DUP7 PUSH2 0x319 DUP2 DUP9 SUB DUP3 PUSH2 0x40E JUMP JUMPDEST PUSH1 0x40 MLOAD SWAP2 DUP3 SWAP2 DUP3 PUSH2 0x2A4 JUMP JUMPDEST SUB SWAP1 RETURN JUMPDEST PUSH1 0x2 PUSH0 SWAP1 DUP2 MSTORE SWAP5 POP SWAP2 SWAP3 SWAP2 PUSH32 0x405787FA12A823E0F2B7631CC41B3BA8828B3321CA811111FA75CD3AA3BB5ACE JUMPDEST DUP4 DUP7 LT PUSH2 0x371 JUMPI POP POP POP SWAP2 ADD SWAP1 POP PUSH2 0x319 DUP3 PUSH2 0x325 PUSH0 PUSH2 0x309 JUMP JUMPDEST DUP1 SLOAD DUP6 DUP8 ADD MSTORE SWAP5 DUP3 ADD SWAP5 DUP2 ADD PUSH2 0x356 JUMP JUMPDEST PUSH1 0xFF NOT AND DUP5 MSTORE POP POP POP SWAP1 ISZERO ISZERO PUSH1 0x5 SHL ADD SWAP1 POP PUSH2 0x319 DUP3 PUSH2 0x325 PUSH0 PUSH2 0x309 JUMP JUMPDEST PUSH4 0x4E487B71 PUSH1 0xE0 SHL PUSH0 MSTORE PUSH1 0x22 PUSH1 0x4 MSTORE PUSH1 0x24 PUSH0 REVERT JUMPDEST SWAP4 PUSH1 0x7F AND SWAP4 PUSH2 0x2E7 JUMP JUMPDEST PUSH4 0x4E487B71 PUSH1 0xE0 SHL PUSH0 MSTORE PUSH1 0x41 PUSH1 0x4 MSTORE PUSH1 0x24 PUSH0 REVERT JUMPDEST PUSH1 0x60 DUP2 ADD SWAP1 DUP2 LT PUSH1 0x1 PUSH1 0x1 PUSH1 0x40 SHL SUB DUP3 GT OR PUSH2 0x3EE JUMPI PUSH1 0x40 MSTORE JUMP JUMPDEST PUSH2 0x3BF JUMP JUMPDEST PUSH1 0x20 DUP2 ADD SWAP1 DUP2 LT PUSH1 0x1 PUSH1 0x1 PUSH1 0x40 SHL SUB DUP3 GT OR PUSH2 0x3EE JUMPI PUSH1 0x40 MSTORE JUMP JUMPDEST SWAP1 PUSH1 0x1F DUP1 NOT SWAP2 ADD AND DUP2 ADD SWAP1 DUP2 LT PUSH1 0x1 PUSH1 0x1 PUSH1 0x40 SHL SUB DUP3 GT OR PUSH2 0x3EE JUMPI PUSH1 0x40 MSTORE JUMP JUMPDEST PUSH1 0x1 PUSH1 0x1 PUSH1 0x40 SHL SUB DUP2 GT PUSH2 0x3EE JUMPI PUSH1 0x5 SHL PUSH1 0x20 ADD SWAP1 JUMP JUMPDEST SWAP1 DUP1 PUSH1 0x1F DUP4 ADD SLT ISZERO PUSH2 0x144 JUMPI PUSH1 0x20 SWAP1 DUP3 CALLDATALOAD PUSH2 0x460 DUP2 PUSH2 0x42F JUMP JUMPDEST SWAP4 PUSH2 0x46E PUSH1 0x40 MLOAD SWAP6 DUP7 PUSH2 0x40E JUMP JUMPDEST DUP2 DUP6 MSTORE PUSH1 0x20 DUP1 DUP7 ADD SWAP3 PUSH1 0x5 SHL DUP3 ADD ADD SWAP3 DUP4 GT PUSH2 0x144 JUMPI PUSH1 0x20 ADD SWAP1 JUMPDEST DUP3 DUP3 LT PUSH2 0x497 JUMPI POP POP POP POP SWAP1 JUMP JUMPDEST DUP2 CALLDATALOAD DUP2 MSTORE SWAP1 DUP4 ADD SWAP1 DUP4 ADD PUSH2 0x489 JUMP JUMPDEST PUSH1 0x1 PUSH1 0x1 PUSH1 0x40 SHL SUB DUP2 GT PUSH2 0x3EE JUMPI PUSH1 0x1F ADD PUSH1 0x1F NOT AND PUSH1 0x20 ADD SWAP1 JUMP JUMPDEST DUP2 PUSH1 0x1F DUP3 ADD SLT ISZERO PUSH2 0x144 JUMPI DUP1 CALLDATALOAD SWAP1 PUSH2 0x4D8 DUP3 PUSH2 0x4A6 JUMP JUMPDEST SWAP3 PUSH2 0x4E6 PUSH1 0x40 MLOAD SWAP5 DUP6 PUSH2 0x40E JUMP JUMPDEST DUP3 DUP5 MSTORE PUSH1 0x20 DUP4 DUP4 ADD ADD GT PUSH2 0x144 JUMPI DUP2 PUSH0 SWAP3 PUSH1 0x20 DUP1 SWAP4 ADD DUP4 DUP7 ADD CALLDATACOPY DUP4 ADD ADD MSTORE SWAP1 JUMP JUMPDEST CALLVALUE PUSH2 0x144 JUMPI PUSH1 0xA0 CALLDATASIZE PUSH1 0x3 NOT ADD SLT PUSH2 0x144 JUMPI PUSH1 0x4 DUP1 CALLDATALOAD PUSH2 0x525 DUP2 PUSH2 0x133 JUMP JUMPDEST PUSH1 0x24 CALLDATALOAD PUSH2 0x531 DUP2 PUSH2 0x133 JUMP JUMPDEST PUSH1 0x1 PUSH1 0x1 PUSH1 0x40 SHL SUB SWAP1 PUSH1 0x44 CALLDATALOAD DUP3 DUP2 GT PUSH2 0x144 JUMPI PUSH2 0x551 SWAP1 CALLDATASIZE SWAP1 DUP7 ADD PUSH2 0x446 JUMP JUMPDEST SWAP1 PUSH1 0x64 CALLDATALOAD DUP4 DUP2 GT PUSH2 0x144 JUMPI PUSH2 0x569 SWAP1 CALLDATASIZE SWAP1 DUP8 ADD PUSH2 0x446 JUMP JUMPDEST SWAP3 PUSH1 0x84 CALLDATALOAD SWAP1 DUP2 GT PUSH2 0x144 JUMPI PUSH2 0x581 SWAP1 CALLDATASIZE SWAP1 DUP8 ADD PUSH2 0x4C1 JUMP JUMPDEST SWAP4 PUSH1 0x1 PUSH1 0x1 PUSH1 0xA0 SHL SUB DUP1 DUP3 AND SWAP1 CALLER DUP3 EQ ISZERO DUP1 PUSH2 0x60E JUMPI JUMPDEST PUSH2 0x5E1 JUMPI DUP4 AND ISZERO PUSH2 0x5CA JUMPI ISZERO PUSH2 0x5B4 JUMPI PUSH2 0x5B2 SWAP6 POP PUSH2 0x144D JUMP JUMPDEST STOP JUMPDEST PUSH1 0x40 MLOAD PUSH3 0x6A0D45 PUSH1 0xE2 SHL DUP2 MSTORE PUSH0 DUP2 DUP9 ADD MSTORE PUSH1 0x24 SWAP1 REVERT JUMPDEST PUSH1 0x40 MLOAD PUSH4 0x2BFA23E7 PUSH1 0xE1 SHL DUP2 MSTORE PUSH0 DUP2 DUP10 ADD MSTORE PUSH1 0x24 SWAP1 REVERT JUMPDEST PUSH1 0x40 DUP1 MLOAD PUSH4 0x711BEC91 PUSH1 0xE1 SHL DUP2 MSTORE CALLER DUP2 DUP12 ADD SWAP1 DUP2 MSTORE PUSH1 0x1 PUSH1 0x1 PUSH1 0xA0 SHL SUB DUP7 AND PUSH1 0x20 DUP3 ADD MSTORE SWAP1 SWAP2 DUP3 SWAP2 ADD SUB SWAP1 REVERT JUMPDEST POP PUSH0 DUP3 DUP2 MSTORE PUSH1 0x1 PUSH1 0x20 SWAP1 DUP2 MSTORE PUSH1 0x40 DUP1 DUP4 KECCAK256 CALLER DUP5 MSTORE SWAP1 SWAP2 MSTORE SWAP1 KECCAK256 SLOAD PUSH1 0xFF AND ISZERO PUSH2 0x598 JUMP JUMPDEST CALLVALUE PUSH2 0x144 JUMPI PUSH1 0x40 CALLDATASIZE PUSH1 0x3 NOT ADD SLT PUSH2 0x144 JUMPI PUSH1 0x20 PUSH2 0x65C PUSH1 0x4 CALLDATALOAD PUSH2 0x653 DUP2 PUSH2 0x133 JUMP JUMPDEST PUSH1 0x24 CALLDATALOAD SWAP1 PUSH2 0xE42 JUMP JUMPDEST PUSH1 0x40 MLOAD SWAP1 DUP2 MSTORE RETURN JUMPDEST SWAP1 DUP2 MLOAD DUP1 DUP3 MSTORE PUSH1 0x20 DUP1 DUP1 SWAP4 ADD SWAP4 ADD SWAP2 PUSH0 JUMPDEST DUP3 DUP2 LT PUSH2 0x683 JUMPI POP POP POP POP SWAP1 JUMP JUMPDEST DUP4 MLOAD DUP6 MSTORE SWAP4 DUP2 ADD SWAP4 SWAP3 DUP2 ADD SWAP3 PUSH1 0x1 ADD PUSH2 0x675 JUMP JUMPDEST SWAP1 PUSH1 0x20 PUSH2 0x2B5 SWAP3 DUP2 DUP2 MSTORE ADD SWAP1 PUSH2 0x664 JUMP JUMPDEST CALLVALUE PUSH2 0x144 JUMPI PUSH1 0x40 CALLDATASIZE PUSH1 0x3 NOT ADD SLT PUSH2 0x144 JUMPI PUSH1 0x4 CALLDATALOAD PUSH1 0x1 PUSH1 0x1 PUSH1 0x40 SHL SUB DUP1 DUP3 GT PUSH2 0x144 JUMPI CALLDATASIZE PUSH1 0x23 DUP4 ADD SLT ISZERO PUSH2 0x144 JUMPI DUP2 PUSH1 0x4 ADD CALLDATALOAD PUSH2 0x6E4 DUP2 PUSH2 0x42F JUMP JUMPDEST SWAP3 PUSH2 0x6F2 PUSH1 0x40 MLOAD SWAP5 DUP6 PUSH2 0x40E JUMP JUMPDEST DUP2 DUP5 MSTORE PUSH1 0x20 SWAP2 PUSH1 0x24 PUSH1 0x20 DUP7 ADD SWAP2 PUSH1 0x5 SHL DUP4 ADD ADD SWAP2 CALLDATASIZE DUP4 GT PUSH2 0x144 JUMPI PUSH1 0x24 ADD SWAP1 JUMPDEST DUP3 DUP3 LT PUSH2 0x74B JUMPI DUP6 PUSH1 0x24 CALLDATALOAD DUP7 DUP2 GT PUSH2 0x144 JUMPI PUSH2 0x325 SWAP2 PUSH2 0x739 PUSH2 0x73F SWAP3 CALLDATASIZE SWAP1 PUSH1 0x4 ADD PUSH2 0x446 JUMP JUMPDEST SWAP1 PUSH2 0xE92 JUMP JUMPDEST PUSH1 0x40 MLOAD SWAP2 DUP3 SWAP2 DUP3 PUSH2 0x697 JUMP JUMPDEST DUP4 DUP1 SWAP2 DUP4 CALLDATALOAD PUSH2 0x759 DUP2 PUSH2 0x133 JUMP JUMPDEST DUP2 MSTORE ADD SWAP2 ADD SWAP1 PUSH2 0x712 JUMP JUMPDEST SWAP2 DUP2 PUSH1 0x1F DUP5 ADD SLT ISZERO PUSH2 0x144 JUMPI DUP3 CALLDATALOAD SWAP2 PUSH1 0x1 PUSH1 0x1 PUSH1 0x40 SHL SUB DUP4 GT PUSH2 0x144 JUMPI PUSH1 0x20 DUP1 DUP6 ADD SWAP5 DUP5 PUSH1 0x5 SHL ADD ADD GT PUSH2 0x144 JUMPI JUMP JUMPDEST SWAP1 PUSH1 0xA0 PUSH1 0x3 NOT DUP4 ADD SLT PUSH2 0x144 JUMPI PUSH1 0x4 CALLDATALOAD PUSH2 0x7AD DUP2 PUSH2 0x133 JUMP JUMPDEST SWAP2 PUSH1 0x24 CALLDATALOAD SWAP2 PUSH1 0x44 CALLDATALOAD SWAP2 PUSH1 0x64 CALLDATALOAD SWAP1 PUSH1 0x1 PUSH1 0x1 PUSH1 0x40 SHL SUB DUP3 GT PUSH2 0x144 JUMPI PUSH2 0x7D4 SWAP2 PUSH1 0x4 ADD PUSH2 0x764 JUMP JUMPDEST SWAP1 SWAP2 PUSH1 0x84 CALLDATALOAD SWAP1 JUMP JUMPDEST CALLVALUE PUSH2 0x144 JUMPI PUSH2 0x7EA CALLDATASIZE PUSH2 0x794 JUMP JUMPDEST PUSH2 0x7FB DUP2 SWAP7 SWAP5 SWAP7 SWAP4 SWAP3 SWAP4 ISZERO ISZERO PUSH2 0xF4F JUMP JUMPDEST PUSH1 0x40 MLOAD PUSH4 0x23B872DD PUSH1 0xE0 SHL DUP2 MSTORE CALLER PUSH1 0x4 DUP3 ADD MSTORE ADDRESS PUSH1 0x24 DUP3 ADD MSTORE PUSH1 0x44 DUP2 ADD DUP3 SWAP1 MSTORE PUSH1 0x20 DUP2 PUSH1 0x64 DUP2 PUSH0 PUSH1 0x1 PUSH1 0x1 PUSH1 0xA0 SHL SUB DUP11 AND GAS CALL DUP1 ISZERO PUSH2 0x8F2 JUMPI PUSH2 0x845 SWAP2 PUSH0 SWAP2 PUSH2 0x8C3 JUMPI JUMPDEST POP PUSH2 0xFBB JUMP JUMPDEST PUSH0 JUMPDEST DUP4 DUP2 LT PUSH2 0x889 JUMPI POP SWAP1 PUSH2 0x884 PUSH32 0x2E6BB91F8CBCDA0C93623C54D0403A43514FABC40084EC96B6D5379A74786298 SWAP4 SWAP3 PUSH1 0x40 MLOAD SWAP4 DUP5 SWAP4 CALLER SWAP8 DUP6 PUSH2 0x104D JUMP JUMPDEST SUB SWAP1 LOG4 STOP JUMPDEST DUP1 PUSH2 0x8BD PUSH2 0x8AD PUSH2 0x8A7 PUSH2 0x8A0 PUSH1 0x1 SWAP6 DUP10 DUP10 PUSH2 0x1007 JUMP JUMPDEST CALLDATALOAD DUP12 PUSH2 0x10C4 JUMP JUMPDEST DUP9 PUSH2 0xE42 JUMP JUMPDEST DUP5 PUSH2 0x8B6 PUSH2 0x1017 JUMP JUMPDEST SWAP2 CALLER PUSH2 0x117D JUMP JUMPDEST ADD PUSH2 0x847 JUMP JUMPDEST PUSH2 0x8E5 SWAP2 POP PUSH1 0x20 RETURNDATASIZE PUSH1 0x20 GT PUSH2 0x8EB JUMPI JUMPDEST PUSH2 0x8DD DUP2 DUP4 PUSH2 0x40E JUMP JUMPDEST DUP2 ADD SWAP1 PUSH2 0xF9B JUMP JUMPDEST PUSH0 PUSH2 0x83F JUMP JUMPDEST POP RETURNDATASIZE PUSH2 0x8D3 JUMP JUMPDEST PUSH2 0xFB0 JUMP JUMPDEST PUSH1 0x60 SWAP1 PUSH1 0x3 NOT ADD SLT PUSH2 0x144 JUMPI PUSH1 0x4 CALLDATALOAD PUSH2 0x90F DUP2 PUSH2 0x133 JUMP JUMPDEST SWAP1 PUSH1 0x24 CALLDATALOAD SWAP1 PUSH1 0x44 CALLDATALOAD SWAP1 JUMP JUMPDEST CALLVALUE PUSH2 0x144 JUMPI PUSH1 0x20 PUSH2 0x65C PUSH2 0x92D CALLDATASIZE PUSH2 0x8F7 JUMP JUMPDEST SWAP2 PUSH2 0x1078 JUMP JUMPDEST CALLVALUE PUSH2 0x144 JUMPI PUSH1 0x60 CALLDATASIZE PUSH1 0x3 NOT ADD SLT PUSH2 0x144 JUMPI PUSH1 0x20 PUSH2 0x65C PUSH1 0x44 CALLDATALOAD PUSH1 0x24 CALLDATALOAD PUSH2 0x10C4 JUMP JUMPDEST CALLVALUE PUSH2 0x144 JUMPI PUSH2 0x962 CALLDATASIZE PUSH2 0x794 JUMP JUMPDEST SWAP2 PUSH2 0x971 DUP4 SWAP7 SWAP5 SWAP7 ISZERO ISZERO PUSH2 0xF4F JUMP JUMPDEST PUSH0 JUMPDEST DUP3 DUP2 LT PUSH2 0x9F3 JUMPI POP PUSH1 0x40 MLOAD PUSH4 0xA9059CBB PUSH1 0xE0 SHL DUP2 MSTORE CALLER PUSH1 0x4 DUP3 ADD MSTORE PUSH1 0x24 DUP2 ADD DUP5 SWAP1 MSTORE SWAP3 PUSH1 0x20 DUP5 PUSH1 0x44 DUP2 PUSH0 PUSH1 0x1 PUSH1 0x1 PUSH1 0xA0 SHL SUB DUP11 AND GAS CALL SWAP1 DUP2 ISZERO PUSH2 0x8F2 JUMPI PUSH2 0x9E5 PUSH2 0x884 SWAP3 PUSH32 0x6F13CA62553FCC2BCD2372180A43949C1E4CEBBA603901EDE2F4E14F36B282CA SWAP7 PUSH0 SWAP2 PUSH2 0x8C3 JUMPI POP PUSH2 0xFBB JUMP JUMPDEST PUSH1 0x40 MLOAD SWAP4 DUP5 SWAP4 CALLER SWAP8 DUP6 PUSH2 0x104D JUMP JUMPDEST DUP1 PUSH2 0xA1E DUP6 PUSH2 0xA18 PUSH2 0xA12 PUSH2 0xA0B PUSH1 0x1 SWAP7 DUP10 DUP10 PUSH2 0x1007 JUMP JUMPDEST CALLDATALOAD DUP13 PUSH2 0x10C4 JUMP JUMPDEST DUP10 PUSH2 0xE42 JUMP JUMPDEST CALLER PUSH2 0x12D6 JUMP JUMPDEST ADD PUSH2 0x973 JUMP JUMPDEST DUP1 ISZERO ISZERO SUB PUSH2 0x144 JUMPI JUMP JUMPDEST CALLVALUE PUSH2 0x144 JUMPI PUSH1 0x40 CALLDATASIZE PUSH1 0x3 NOT ADD SLT PUSH2 0x144 JUMPI PUSH1 0x4 CALLDATALOAD PUSH2 0xA4B DUP2 PUSH2 0x133 JUMP JUMPDEST PUSH1 0x24 CALLDATALOAD PUSH2 0xA57 DUP2 PUSH2 0xA24 JUMP JUMPDEST PUSH1 0x1 PUSH1 0x1 PUSH1 0xA0 SHL SUB DUP3 AND SWAP2 DUP3 ISZERO PUSH2 0xAD7 JUMPI CALLER PUSH0 SWAP1 DUP2 MSTORE PUSH1 0x1 PUSH1 0x20 SWAP1 DUP2 MSTORE PUSH1 0x40 DUP1 DUP4 KECCAK256 PUSH1 0x1 PUSH1 0x1 PUSH1 0xA0 SHL SUB SWAP1 SWAP5 AND DUP4 MSTORE SWAP3 SWAP1 MSTORE KECCAK256 PUSH1 0xFF NOT DUP2 SLOAD AND PUSH1 0xFF DUP4 ISZERO ISZERO AND OR SWAP1 SSTORE PUSH32 0x17307EAB39AB6107E8899845AD3D59BD9653F200F220920489CA2B5937696C31 PUSH1 0x40 MLOAD DUP1 PUSH2 0xAD2 CALLER SWAP5 DUP3 SWAP2 SWAP1 SWAP2 PUSH1 0x20 DUP2 ADD SWAP3 ISZERO ISZERO SWAP1 MSTORE JUMP JUMPDEST SUB SWAP1 LOG3 STOP JUMPDEST PUSH1 0x40 MLOAD PUSH3 0xCED3E1 PUSH1 0xE8 SHL DUP2 MSTORE PUSH0 PUSH1 0x4 DUP3 ADD MSTORE PUSH1 0x24 SWAP1 REVERT JUMPDEST CALLVALUE PUSH2 0x144 JUMPI PUSH1 0x40 CALLDATASIZE PUSH1 0x3 NOT ADD SLT PUSH2 0x144 JUMPI PUSH1 0x4 CALLDATALOAD PUSH1 0x24 CALLDATALOAD PUSH1 0x1 PUSH1 0x1 PUSH1 0x40 SHL SUB DUP2 GT PUSH2 0x144 JUMPI PUSH2 0xB21 SWAP1 CALLDATASIZE SWAP1 PUSH1 0x4 ADD PUSH2 0x764 JUMP JUMPDEST PUSH2 0xB2C DUP2 DUP5 CALLER PUSH2 0x1078 JUMP JUMPDEST SWAP1 DUP2 PUSH0 MSTORE PUSH1 0x4 PUSH1 0x20 MSTORE PUSH1 0x40 PUSH0 KECCAK256 SLOAD PUSH2 0xB8E JUMPI PUSH2 0x884 DUP2 PUSH2 0xB7F PUSH32 0xB44D84D3289691F71497564B85D4233648D9DBAE8CBDBB4329F301C3A0185894 SWAP4 DUP7 PUSH2 0xB7A DUP8 PUSH0 MSTORE PUSH1 0x4 PUSH1 0x20 MSTORE PUSH1 0x40 PUSH0 KECCAK256 SWAP1 JUMP JUMPDEST PUSH2 0x10E2 JUMP JUMPDEST PUSH1 0x40 MLOAD SWAP2 DUP3 SWAP2 CALLER SWAP7 DUP2 DUP5 PUSH2 0x1166 JUMP JUMPDEST PUSH1 0x40 MLOAD PUSH3 0x461BCD PUSH1 0xE5 SHL DUP2 MSTORE PUSH1 0x20 PUSH1 0x4 DUP3 ADD MSTORE PUSH1 0x18 PUSH1 0x24 DUP3 ADD MSTORE PUSH32 0x5061796F75747320616C7265616479207265706F727465640000000000000000 PUSH1 0x44 DUP3 ADD MSTORE PUSH1 0x64 SWAP1 REVERT JUMPDEST CALLVALUE PUSH2 0x144 JUMPI PUSH1 0x20 CALLDATASIZE PUSH1 0x3 NOT ADD SLT PUSH2 0x144 JUMPI PUSH1 0x4 CALLDATALOAD PUSH0 MSTORE PUSH1 0x3 PUSH1 0x20 MSTORE PUSH1 0x20 PUSH1 0x40 PUSH0 KECCAK256 SLOAD PUSH1 0x40 MLOAD SWAP1 DUP2 MSTORE RETURN JUMPDEST CALLVALUE PUSH2 0x144 JUMPI PUSH2 0xC0B CALLDATASIZE PUSH2 0x8F7 JUMP JUMPDEST SWAP1 SWAP2 PUSH2 0xC18 DUP3 DUP5 DUP4 PUSH2 0x1078 JUMP JUMPDEST SWAP1 DUP2 PUSH0 MSTORE PUSH1 0x3 PUSH1 0x20 MSTORE PUSH1 0x40 PUSH0 KECCAK256 SLOAD PUSH2 0xC77 JUMPI PUSH2 0x884 PUSH32 0xAB3760C3BD2BB38B5BCF54DC79802ED67338B4CF29F3054DED67ED24661E4177 SWAP2 DUP4 PUSH0 MSTORE PUSH1 0x3 PUSH1 0x20 MSTORE DUP5 PUSH1 0x40 PUSH0 KECCAK256 SSTORE PUSH1 0x40 MLOAD SWAP2 DUP3 SWAP2 PUSH1 0x1 DUP1 PUSH1 0xA0 SHL SUB AND SWAP6 DUP3 SWAP2 SWAP1 PUSH1 0x20 DUP4 ADD SWAP3 MSTORE JUMP JUMPDEST PUSH1 0x40 MLOAD PUSH3 0x461BCD PUSH1 0xE5 SHL DUP2 MSTORE PUSH1 0x20 PUSH1 0x4 DUP3 ADD MSTORE PUSH1 0x1A PUSH1 0x24 DUP3 ADD MSTORE PUSH32 0x436F6E646974696F6E20616C7265616479207072657061726564000000000000 PUSH1 0x44 DUP3 ADD MSTORE PUSH1 0x64 SWAP1 REVERT JUMPDEST CALLVALUE PUSH2 0x144 JUMPI PUSH1 0x40 CALLDATASIZE PUSH1 0x3 NOT ADD SLT PUSH2 0x144 JUMPI PUSH1 0x20 PUSH1 0xFF PUSH2 0xD14 PUSH1 0x4 CALLDATALOAD PUSH2 0xCE0 DUP2 PUSH2 0x133 JUMP JUMPDEST PUSH1 0x24 CALLDATALOAD SWAP1 PUSH2 0xCED DUP3 PUSH2 0x133 JUMP JUMPDEST PUSH1 0x1 DUP1 PUSH1 0xA0 SHL SUB AND PUSH0 MSTORE PUSH1 0x1 DUP5 MSTORE PUSH1 0x40 PUSH0 KECCAK256 SWAP1 PUSH1 0x1 DUP1 PUSH1 0xA0 SHL SUB AND PUSH0 MSTORE PUSH1 0x20 MSTORE PUSH1 0x40 PUSH0 KECCAK256 SWAP1 JUMP JUMPDEST SLOAD AND PUSH1 0x40 MLOAD SWAP1 ISZERO ISZERO DUP2 MSTORE RETURN JUMPDEST CALLVALUE PUSH2 0x144 JUMPI PUSH1 0xA0 CALLDATASIZE PUSH1 0x3 NOT ADD SLT PUSH2 0x144 JUMPI PUSH1 0x4 CALLDATALOAD PUSH2 0xD3D DUP2 PUSH2 0x133 JUMP JUMPDEST PUSH1 0x24 CALLDATALOAD PUSH2 0xD49 DUP2 PUSH2 0x133 JUMP JUMPDEST PUSH1 0x84 CALLDATALOAD PUSH1 0x1 PUSH1 0x1 PUSH1 0x40 SHL SUB DUP2 GT PUSH2 0x144 JUMPI PUSH2 0xD68 SWAP1 CALLDATASIZE SWAP1 PUSH1 0x4 ADD PUSH2 0x4C1 JUMP JUMPDEST SWAP1 PUSH1 0x1 PUSH1 0x1 PUSH1 0xA0 SHL SUB DUP4 DUP2 AND SWAP1 CALLER DUP3 EQ ISZERO DUP1 PUSH2 0xE1F JUMPI JUMPDEST PUSH2 0xDF8 JUMPI DUP3 AND ISZERO PUSH2 0xDE0 JUMPI ISZERO PUSH2 0xDC9 JUMPI PUSH2 0x5B2 SWAP3 PUSH2 0xDC1 PUSH1 0x64 CALLDATALOAD PUSH1 0x44 CALLDATALOAD SWAP2 PUSH1 0x40 MLOAD SWAP3 PUSH1 0x1 DUP5 MSTORE PUSH1 0x20 DUP5 ADD MSTORE PUSH1 0x40 DUP4 ADD SWAP2 PUSH1 0x1 DUP4 MSTORE PUSH1 0x60 DUP5 ADD MSTORE PUSH1 0x80 DUP4 ADD PUSH1 0x40 MSTORE JUMP JUMPDEST SWAP3 SWAP1 SWAP2 PUSH2 0x144D JUMP JUMPDEST PUSH1 0x40 MLOAD PUSH3 0x6A0D45 PUSH1 0xE2 SHL DUP2 MSTORE PUSH0 PUSH1 0x4 DUP3 ADD MSTORE PUSH1 0x24 SWAP1 REVERT JUMPDEST PUSH1 0x40 MLOAD PUSH4 0x2BFA23E7 PUSH1 0xE1 SHL DUP2 MSTORE PUSH0 PUSH1 0x4 DUP3 ADD MSTORE PUSH1 0x24 SWAP1 REVERT JUMPDEST PUSH1 0x40 MLOAD PUSH4 0x711BEC91 PUSH1 0xE1 SHL DUP2 MSTORE CALLER PUSH1 0x4 DUP3 ADD MSTORE PUSH1 0x1 PUSH1 0x1 PUSH1 0xA0 SHL SUB DUP7 AND PUSH1 0x24 DUP3 ADD MSTORE PUSH1 0x44 SWAP1 REVERT JUMPDEST POP PUSH0 DUP3 DUP2 MSTORE PUSH1 0x1 PUSH1 0x20 SWAP1 DUP2 MSTORE PUSH1 0x40 DUP1 DUP4 KECCAK256 CALLER DUP5 MSTORE SWAP1 SWAP2 MSTORE SWAP1 KECCAK256 SLOAD PUSH1 0xFF AND ISZERO PUSH2 0xD7F JUMP JUMPDEST SWAP1 PUSH1 0x40 MLOAD SWAP1 PUSH1 0x20 DUP3 ADD SWAP3 PUSH12 0xFFFFFFFFFFFFFFFFFFFFFFFF NOT SWAP1 PUSH1 0x60 SHL AND DUP4 MSTORE PUSH1 0x34 DUP3 ADD MSTORE PUSH1 0x34 DUP2 MSTORE PUSH2 0xE73 DUP2 PUSH2 0x3D3 JUMP JUMPDEST MLOAD SWAP1 KECCAK256 SWAP1 JUMP JUMPDEST DUP1 MLOAD DUP3 LT ISZERO PUSH2 0xE8D JUMPI PUSH1 0x20 SWAP2 PUSH1 0x5 SHL ADD ADD SWAP1 JUMP JUMPDEST PUSH2 0x214 JUMP JUMPDEST SWAP2 SWAP1 SWAP2 DUP1 MLOAD DUP4 MLOAD DUP1 DUP3 SUB PUSH2 0xF2D JUMPI POP POP DUP1 MLOAD SWAP1 PUSH2 0xEC7 PUSH2 0xEB1 DUP4 PUSH2 0x42F JUMP JUMPDEST SWAP3 PUSH2 0xEBF PUSH1 0x40 MLOAD SWAP5 DUP6 PUSH2 0x40E JUMP JUMPDEST DUP1 DUP5 MSTORE PUSH2 0x42F JUMP JUMPDEST PUSH1 0x20 SWAP2 SWAP1 PUSH1 0x1F NOT ADD CALLDATASIZE DUP5 DUP5 ADD CALLDATACOPY PUSH0 JUMPDEST DUP2 MLOAD DUP2 LT ISZERO PUSH2 0xF25 JUMPI PUSH1 0x5 DUP2 SWAP1 SHL DUP3 DUP2 ADD DUP5 ADD MLOAD SWAP1 DUP8 ADD DUP5 ADD MLOAD PUSH0 SWAP1 DUP2 MSTORE PUSH1 0x20 DUP2 DUP2 MSTORE PUSH1 0x40 DUP1 DUP4 KECCAK256 PUSH1 0x1 PUSH1 0x1 PUSH1 0xA0 SHL SUB SWAP1 SWAP5 AND DUP4 MSTORE SWAP3 SWAP1 MSTORE KECCAK256 SLOAD PUSH1 0x1 SWAP2 SWAP1 PUSH2 0xF1E DUP3 DUP8 PUSH2 0xE79 JUMP JUMPDEST MSTORE ADD PUSH2 0xED6 JUMP JUMPDEST POP SWAP2 SWAP4 POP POP POP JUMP JUMPDEST PUSH1 0x40 MLOAD PUSH4 0x5B059991 PUSH1 0xE0 SHL DUP2 MSTORE PUSH1 0x4 DUP2 ADD SWAP2 SWAP1 SWAP2 MSTORE PUSH1 0x24 DUP2 ADD SWAP2 SWAP1 SWAP2 MSTORE PUSH1 0x44 SWAP1 REVERT JUMPDEST ISZERO PUSH2 0xF56 JUMPI JUMP JUMPDEST PUSH1 0x40 MLOAD PUSH3 0x461BCD PUSH1 0xE5 SHL DUP2 MSTORE PUSH1 0x20 PUSH1 0x4 DUP3 ADD MSTORE PUSH1 0x17 PUSH1 0x24 DUP3 ADD MSTORE PUSH32 0x416D6F756E74206D75737420626520706F736974697665000000000000000000 PUSH1 0x44 DUP3 ADD MSTORE PUSH1 0x64 SWAP1 REVERT JUMPDEST SWAP1 DUP2 PUSH1 0x20 SWAP2 SUB SLT PUSH2 0x144 JUMPI MLOAD PUSH2 0x2B5 DUP2 PUSH2 0xA24 JUMP JUMPDEST PUSH1 0x40 MLOAD RETURNDATASIZE PUSH0 DUP3 RETURNDATACOPY RETURNDATASIZE SWAP1 REVERT JUMPDEST ISZERO PUSH2 0xFC2 JUMPI JUMP JUMPDEST PUSH1 0x40 MLOAD PUSH3 0x461BCD PUSH1 0xE5 SHL DUP2 MSTORE PUSH1 0x20 PUSH1 0x4 DUP3 ADD MSTORE PUSH1 0x1A PUSH1 0x24 DUP3 ADD MSTORE PUSH32 0x436F6C6C61746572616C207472616E73666572206661696C6564000000000000 PUSH1 0x44 DUP3 ADD MSTORE PUSH1 0x64 SWAP1 REVERT JUMPDEST SWAP2 SWAP1 DUP2 LT ISZERO PUSH2 0xE8D JUMPI PUSH1 0x5 SHL ADD SWAP1 JUMP JUMPDEST PUSH1 0x40 MLOAD SWAP1 PUSH2 0x1024 DUP3 PUSH2 0x3F3 JUMP JUMPDEST PUSH0 DUP3 MSTORE JUMP JUMPDEST DUP2 DUP4 MSTORE SWAP1 SWAP2 PUSH1 0x1 PUSH1 0x1 PUSH1 0xFB SHL SUB DUP4 GT PUSH2 0x144 JUMPI PUSH1 0x20 SWAP3 PUSH1 0x5 SHL DUP1 SWAP3 DUP5 DUP4 ADD CALLDATACOPY ADD ADD SWAP1 JUMP JUMPDEST SWAP5 SWAP4 SWAP3 SWAP2 PUSH1 0x40 SWAP3 PUSH2 0x1073 SWAP3 PUSH1 0x1 DUP1 PUSH1 0xA0 SHL SUB AND DUP8 MSTORE PUSH1 0x60 PUSH1 0x20 DUP9 ADD MSTORE PUSH1 0x60 DUP8 ADD SWAP2 PUSH2 0x1029 JUMP JUMPDEST SWAP4 ADD MSTORE JUMP JUMPDEST SWAP2 PUSH1 0x40 MLOAD SWAP2 PUSH1 0x20 DUP4 ADD SWAP4 PUSH12 0xFFFFFFFFFFFFFFFFFFFFFFFF NOT SWAP1 PUSH1 0x60 SHL AND DUP5 MSTORE PUSH1 0x34 DUP4 ADD MSTORE PUSH1 0x54 DUP3 ADD MSTORE PUSH1 0x54 DUP2 MSTORE PUSH1 0x80 DUP2 ADD DUP2 DUP2 LT PUSH1 0x1 PUSH1 0x1 PUSH1 0x40 SHL SUB DUP3 GT OR PUSH2 0x3EE JUMPI PUSH1 0x40 MSTORE MLOAD SWAP1 KECCAK256 SWAP1 JUMP JUMPDEST SWAP1 PUSH1 0x40 MLOAD SWAP1 PUSH1 0x20 DUP3 ADD SWAP3 DUP4 MSTORE PUSH1 0x40 DUP3 ADD MSTORE PUSH1 0x40 DUP2 MSTORE PUSH2 0xE73 DUP2 PUSH2 0x3D3 JUMP JUMPDEST SWAP1 PUSH1 0x1 PUSH1 0x1 PUSH1 0x40 SHL SUB DUP4 GT PUSH2 0x3EE JUMPI PUSH9 0x10000000000000000 DUP4 GT PUSH2 0x3EE JUMPI DUP2 SLOAD DUP4 DUP4 SSTORE DUP1 DUP5 LT PUSH2 0x1140 JUMPI JUMPDEST POP PUSH2 0x111D SWAP1 SWAP2 PUSH0 MSTORE PUSH1 0x20 PUSH0 KECCAK256 SWAP1 JUMP JUMPDEST PUSH0 JUMPDEST DUP4 DUP2 LT PUSH2 0x112C JUMPI POP POP POP POP JUMP JUMPDEST PUSH1 0x1 SWAP1 PUSH1 0x20 DUP5 CALLDATALOAD SWAP5 ADD SWAP4 DUP2 DUP5 ADD SSTORE ADD PUSH2 0x111F JUMP JUMPDEST DUP3 PUSH0 MSTORE DUP4 PUSH1 0x20 PUSH0 KECCAK256 SWAP2 DUP3 ADD SWAP2 ADD JUMPDEST DUP2 DUP2 LT PUSH2 0x115B JUMPI POP PUSH2 0x110E JUMP JUMPDEST PUSH0 DUP2 SSTORE PUSH1 0x1 ADD PUSH2 0x114E JUMP JUMPDEST PUSH1 0x40 SWAP1 PUSH2 0x2B5 SWAP5 SWAP3 DUP2 MSTORE DUP2 PUSH1 0x20 DUP3 ADD MSTORE ADD SWAP2 PUSH2 0x1029 JUMP JUMPDEST PUSH1 0x1 PUSH1 0x1 PUSH1 0xA0 SHL SUB DUP2 AND SWAP4 SWAP3 SWAP1 SWAP2 SWAP1 DUP5 ISZERO PUSH2 0xDE0 JUMPI PUSH2 0x11B9 PUSH1 0x40 MLOAD SWAP3 PUSH1 0x1 DUP5 MSTORE PUSH1 0x20 DUP5 ADD MSTORE PUSH1 0x40 DUP4 ADD SWAP2 PUSH1 0x1 DUP4 MSTORE PUSH1 0x60 DUP5 ADD MSTORE PUSH1 0x80 DUP4 ADD PUSH1 0x40 MSTORE JUMP JUMPDEST SWAP3 DUP2 MLOAD DUP5 MLOAD SWAP1 DUP2 DUP2 SUB PUSH2 0xF2D JUMPI POP POP PUSH0 JUMPDEST DUP3 MLOAD DUP2 LT ISZERO PUSH2 0x1224 JUMPI DUP1 PUSH1 0x1 SWAP2 PUSH1 0x5 SHL PUSH2 0x121C PUSH2 0x1214 DUP8 PUSH2 0x11FF PUSH1 0x20 DUP1 DUP7 DUP12 ADD ADD MLOAD SWAP6 DUP13 ADD ADD MLOAD SWAP5 PUSH0 MSTORE PUSH0 PUSH1 0x20 MSTORE PUSH1 0x40 PUSH0 KECCAK256 SWAP1 JUMP JUMPDEST SWAP1 PUSH1 0x1 DUP1 PUSH1 0xA0 SHL SUB AND PUSH0 MSTORE PUSH1 0x20 MSTORE PUSH1 0x40 PUSH0 KECCAK256 SWAP1 JUMP JUMPDEST SWAP2 DUP3 SLOAD PUSH2 0x163B JUMP JUMPDEST SWAP1 SSTORE ADD PUSH2 0x11CA JUMP JUMPDEST POP SWAP3 SWAP2 SWAP4 PUSH1 0x1 DUP3 MLOAD EQ PUSH0 EQ PUSH2 0x129B JUMPI PUSH1 0x20 DUP3 DUP2 ADD MLOAD DUP5 DUP3 ADD MLOAD PUSH1 0x40 DUP1 MLOAD SWAP3 DUP4 MSTORE SWAP3 DUP3 ADD MSTORE PUSH0 SWAP2 CALLER SWAP2 PUSH32 0xC3D58168C5AE7397731D063D5BBF3D657854427343F4C083240F7AACAA2D0F62 SWAP2 SWAP1 LOG4 JUMPDEST DUP1 MLOAD PUSH1 0x1 SUB PUSH2 0x1291 JUMPI SWAP1 PUSH1 0x20 DUP1 PUSH2 0x128F SWAP6 SWAP4 ADD MLOAD SWAP2 ADD MLOAD SWAP2 CALLER PUSH2 0x1936 JUMP JUMPDEST JUMP JUMPDEST PUSH2 0x128F SWAP4 CALLER PUSH2 0x1741 JUMP JUMPDEST PUSH0 PUSH1 0x40 MLOAD PUSH32 0x4A39DC06D4C0DBC64B70AF90FD698A233A518AA5D07E595D983B8C0526C8F7FB CALLER SWAP2 DUP1 PUSH2 0x12CE DUP9 DUP9 DUP4 PUSH2 0x165C JUMP JUMPDEST SUB SWAP1 LOG4 PUSH2 0x1271 JUMP JUMPDEST PUSH1 0x1 PUSH1 0x1 PUSH1 0xA0 SHL SUB DUP2 AND SWAP3 SWAP1 SWAP2 SWAP1 DUP4 ISZERO PUSH2 0xDC9 JUMPI PUSH2 0x1311 PUSH1 0x40 MLOAD SWAP3 PUSH1 0x1 DUP5 MSTORE PUSH1 0x20 DUP5 ADD MSTORE PUSH1 0x40 DUP4 ADD SWAP2 PUSH1 0x1 DUP4 MSTORE PUSH1 0x60 DUP5 ADD MSTORE PUSH1 0x80 DUP4 ADD PUSH1 0x40 MSTORE JUMP JUMPDEST SWAP2 SWAP1 PUSH1 0x40 SWAP5 PUSH0 PUSH1 0x40 MLOAD PUSH2 0x1323 DUP2 PUSH2 0x3F3 JUMP JUMPDEST MSTORE DUP2 MLOAD DUP5 MLOAD SWAP1 DUP2 DUP2 SUB PUSH2 0xF2D JUMPI POP POP PUSH0 JUMPDEST DUP3 MLOAD DUP2 LT ISZERO PUSH2 0x13C4 JUMPI DUP1 PUSH1 0x5 SHL PUSH1 0x20 DUP1 DUP3 DUP7 ADD ADD MLOAD SWAP2 DUP8 ADD ADD MLOAD PUSH2 0x1363 DUP7 PUSH2 0x11FF DUP5 PUSH0 MSTORE PUSH0 PUSH1 0x20 MSTORE PUSH1 0x40 PUSH0 KECCAK256 SWAP1 JUMP JUMPDEST SLOAD DUP2 DUP2 LT PUSH2 0x138E JUMPI DUP7 PUSH2 0x11FF PUSH1 0x1 SWAP6 SWAP5 SWAP4 PUSH2 0x1387 SWAP4 SUB SWAP4 PUSH0 MSTORE PUSH0 PUSH1 0x20 MSTORE PUSH1 0x40 PUSH0 KECCAK256 SWAP1 JUMP JUMPDEST SSTORE ADD PUSH2 0x1334 JUMP JUMPDEST DUP10 MLOAD PUSH4 0x3DEE4C5 PUSH1 0xE0 SHL DUP2 MSTORE PUSH1 0x1 PUSH1 0x1 PUSH1 0xA0 SHL SUB DUP9 AND PUSH1 0x4 DUP3 ADD MSTORE PUSH1 0x24 DUP2 ADD SWAP2 SWAP1 SWAP2 MSTORE PUSH1 0x44 DUP2 ADD DUP3 SWAP1 MSTORE PUSH1 0x64 DUP2 ADD DUP4 SWAP1 MSTORE PUSH1 0x84 SWAP1 REVERT JUMPDEST POP SWAP5 POP PUSH0 SWAP4 SWAP3 SWAP2 POP PUSH1 0x1 DUP2 MLOAD EQ DUP5 EQ PUSH2 0x141A JUMPI PUSH1 0x20 SWAP1 DUP2 ADD MLOAD SWAP2 DUP2 ADD MLOAD PUSH1 0x40 DUP1 MLOAD SWAP4 DUP5 MSTORE SWAP2 DUP4 ADD MSTORE CALLER SWAP2 PUSH32 0xC3D58168C5AE7397731D063D5BBF3D657854427343F4C083240F7AACAA2D0F62 SWAP2 DUP2 SWAP1 DUP2 ADD JUMPDEST SUB SWAP1 LOG4 JUMP JUMPDEST PUSH1 0x40 MLOAD CALLER SWAP3 PUSH32 0x4A39DC06D4C0DBC64B70AF90FD698A233A518AA5D07E595D983B8C0526C8F7FB SWAP3 DUP3 SWAP2 PUSH2 0x1415 SWAP2 DUP4 PUSH2 0x165C JUMP JUMPDEST SWAP5 SWAP2 SWAP1 SWAP2 DUP2 MLOAD DUP5 MLOAD SWAP1 DUP2 DUP2 SUB PUSH2 0xF2D JUMPI POP POP PUSH0 JUMPDEST DUP3 MLOAD DUP2 LT ISZERO PUSH2 0x1546 JUMPI PUSH1 0x5 DUP2 SWAP1 SHL DUP4 DUP2 ADD PUSH1 0x20 SWAP1 DUP2 ADD MLOAD SWAP2 DUP8 ADD ADD MLOAD PUSH1 0x1 PUSH1 0x1 PUSH1 0xA0 SHL SUB SWAP3 SWAP2 DUP7 SWAP1 DUP11 DUP6 AND PUSH2 0x14C6 JUMPI JUMPDEST PUSH1 0x1 SWAP5 DUP3 AND PUSH2 0x14A4 JUMPI JUMPDEST POP POP POP ADD PUSH2 0x1461 JUMP JUMPDEST PUSH2 0x14BC SWAP2 PUSH2 0x11FF PUSH2 0x1214 SWAP3 PUSH0 MSTORE PUSH0 PUSH1 0x20 MSTORE PUSH1 0x40 PUSH0 KECCAK256 SWAP1 JUMP JUMPDEST SWAP1 SSTORE PUSH0 DUP6 DUP2 PUSH2 0x149B JUMP JUMPDEST SWAP2 SWAP3 SWAP4 SWAP1 POP PUSH2 0x14E0 DUP11 PUSH2 0x11FF DUP5 PUSH0 MSTORE PUSH0 PUSH1 0x20 MSTORE PUSH1 0x40 PUSH0 KECCAK256 SWAP1 JUMP JUMPDEST SLOAD DUP4 DUP2 LT PUSH2 0x150F JUMPI SWAP2 DUP8 SWAP2 DUP5 PUSH1 0x1 SWAP7 SWAP6 SWAP5 SUB PUSH2 0x1507 DUP14 PUSH2 0x11FF DUP6 PUSH0 MSTORE PUSH0 PUSH1 0x20 MSTORE PUSH1 0x40 PUSH0 KECCAK256 SWAP1 JUMP JUMPDEST SSTORE SWAP5 POP PUSH2 0x1491 JUMP JUMPDEST PUSH1 0x40 MLOAD PUSH4 0x3DEE4C5 PUSH1 0xE0 SHL DUP2 MSTORE PUSH1 0x1 PUSH1 0x1 PUSH1 0xA0 SHL SUB DUP13 AND PUSH1 0x4 DUP3 ADD MSTORE PUSH1 0x24 DUP2 ADD SWAP2 SWAP1 SWAP2 MSTORE PUSH1 0x44 DUP2 ADD DUP5 SWAP1 MSTORE PUSH1 0x64 DUP2 ADD DUP4 SWAP1 MSTORE PUSH1 0x84 SWAP1 REVERT JUMPDEST POP SWAP5 SWAP2 SWAP4 SWAP3 SWAP1 SWAP4 PUSH1 0x1 DUP6 MLOAD EQ PUSH0 EQ PUSH2 0x15F0 JUMPI PUSH1 0x20 DUP6 DUP2 ADD MLOAD DUP4 DUP3 ADD MLOAD PUSH1 0x40 DUP1 MLOAD SWAP3 DUP4 MSTORE SWAP3 DUP3 ADD MSTORE PUSH1 0x1 PUSH1 0x1 PUSH1 0xA0 SHL SUB DUP4 DUP2 AND SWAP3 SWAP1 DUP7 AND SWAP2 CALLER SWAP2 PUSH32 0xC3D58168C5AE7397731D063D5BBF3D657854427343F4C083240F7AACAA2D0F62 SWAP2 LOG4 JUMPDEST PUSH1 0x1 PUSH1 0x1 PUSH1 0xA0 SHL SUB DUP2 AND PUSH2 0x15B9 JUMPI JUMPDEST POP POP POP POP POP JUMP JUMPDEST DUP5 MLOAD PUSH1 0x1 SUB PUSH2 0x15DF JUMPI PUSH1 0x20 DUP1 PUSH2 0x15D5 SWAP7 ADD MLOAD SWAP3 ADD MLOAD SWAP3 CALLER PUSH2 0x196B JUMP JUMPDEST PUSH0 DUP1 DUP1 DUP1 DUP1 PUSH2 0x15B2 JUMP JUMPDEST PUSH2 0x15EB SWAP5 SWAP2 SWAP3 CALLER PUSH2 0x183A JUMP JUMPDEST PUSH2 0x15D5 JUMP JUMPDEST PUSH1 0x40 MLOAD PUSH1 0x1 PUSH1 0x1 PUSH1 0xA0 SHL SUB DUP3 DUP2 AND SWAP2 SWAP1 DUP6 AND SWAP1 CALLER SWAP1 PUSH32 0x4A39DC06D4C0DBC64B70AF90FD698A233A518AA5D07E595D983B8C0526C8F7FB SWAP1 DUP1 PUSH2 0x1633 DUP9 DUP13 DUP4 PUSH2 0x165C JUMP JUMPDEST SUB SWAP1 LOG4 PUSH2 0x15A3 JUMP JUMPDEST SWAP2 SWAP1 DUP3 ADD DUP1 SWAP3 GT PUSH2 0x1648 JUMPI JUMP JUMPDEST PUSH4 0x4E487B71 PUSH1 0xE0 SHL PUSH0 MSTORE PUSH1 0x11 PUSH1 0x4 MSTORE PUSH1 0x24 PUSH0 REVERT JUMPDEST SWAP1 SWAP2 PUSH2 0x1673 PUSH2 0x2B5 SWAP4 PUSH1 0x40 DUP5 MSTORE PUSH1 0x40 DUP5 ADD SWAP1 PUSH2 0x664 JUMP JUMPDEST SWAP2 PUSH1 0x20 DUP2 DUP5 SUB SWAP2 ADD MSTORE PUSH2 0x664 JUMP JUMPDEST SWAP1 DUP2 PUSH1 0x20 SWAP2 SUB SLT PUSH2 0x144 JUMPI MLOAD PUSH2 0x2B5 DUP2 PUSH2 0x194 JUMP JUMPDEST SWAP3 PUSH2 0x16C4 PUSH2 0x2B5 SWAP6 SWAP4 PUSH2 0x16D2 SWAP4 PUSH1 0x1 DUP1 PUSH1 0xA0 SHL SUB AND DUP7 MSTORE PUSH0 PUSH1 0x20 DUP8 ADD MSTORE PUSH1 0xA0 PUSH1 0x40 DUP8 ADD MSTORE PUSH1 0xA0 DUP7 ADD SWAP1 PUSH2 0x664 JUMP JUMPDEST SWAP1 DUP5 DUP3 SUB PUSH1 0x60 DUP7 ADD MSTORE PUSH2 0x664 JUMP JUMPDEST SWAP2 PUSH1 0x80 DUP2 DUP5 SUB SWAP2 ADD MSTORE PUSH2 0x266 JUMP JUMPDEST SWAP4 SWAP1 PUSH2 0x2B5 SWAP6 SWAP4 PUSH2 0x16C4 SWAP2 PUSH2 0x16D2 SWAP5 PUSH1 0x1 DUP1 PUSH1 0xA0 SHL SUB DUP1 SWAP3 AND DUP9 MSTORE AND PUSH1 0x20 DUP8 ADD MSTORE PUSH1 0xA0 PUSH1 0x40 DUP8 ADD MSTORE PUSH1 0xA0 DUP7 ADD SWAP1 PUSH2 0x664 JUMP JUMPDEST RETURNDATASIZE ISZERO PUSH2 0x173C JUMPI RETURNDATASIZE SWAP1 PUSH2 0x1723 DUP3 PUSH2 0x4A6 JUMP JUMPDEST SWAP2 PUSH2 0x1731 PUSH1 0x40 MLOAD SWAP4 DUP5 PUSH2 0x40E JUMP JUMPDEST DUP3 MSTORE RETURNDATASIZE PUSH0 PUSH1 0x20 DUP5 ADD RETURNDATACOPY JUMP JUMPDEST PUSH1 0x60 SWAP1 JUMP JUMPDEST SWAP3 SWAP4 SWAP2 SWAP1 SWAP4 DUP5 EXTCODESIZE PUSH2 0x1753 JUMPI POP POP POP POP POP JUMP JUMPDEST PUSH1 0x20 SWAP2 PUSH2 0x1776 PUSH1 0x40 MLOAD SWAP5 DUP6 SWAP4 DUP5 SWAP4 PUSH4 0xBC197C81 PUSH1 0xE0 SHL SWAP9 DUP10 DUP7 MSTORE PUSH1 0x4 DUP7 ADD PUSH2 0x1696 JUMP JUMPDEST SUB DUP2 PUSH0 PUSH1 0x1 PUSH1 0x1 PUSH1 0xA0 SHL SUB DUP9 AND GAS CALL PUSH0 SWAP2 DUP2 PUSH2 0x1809 JUMPI JUMPDEST POP PUSH2 0x17CC JUMPI DUP3 PUSH2 0x179B PUSH2 0x1712 JUMP JUMPDEST DUP1 MLOAD SWAP2 SWAP1 DUP3 PUSH2 0x17C5 JUMPI PUSH1 0x40 MLOAD PUSH4 0x2BFA23E7 PUSH1 0xE1 SHL DUP2 MSTORE PUSH1 0x1 PUSH1 0x1 PUSH1 0xA0 SHL SUB DUP4 AND PUSH1 0x4 DUP3 ADD MSTORE PUSH1 0x24 SWAP1 REVERT JUMPDEST PUSH1 0x20 SWAP2 POP ADD REVERT JUMPDEST PUSH1 0x1 PUSH1 0x1 PUSH1 0xE0 SHL SUB NOT AND SUB PUSH2 0x17E6 JUMPI POP PUSH0 DUP1 DUP1 DUP1 DUP1 PUSH2 0x15B2 JUMP JUMPDEST PUSH1 0x40 MLOAD PUSH4 0x2BFA23E7 PUSH1 0xE1 SHL DUP2 MSTORE PUSH1 0x1 PUSH1 0x1 PUSH1 0xA0 SHL SUB SWAP2 SWAP1 SWAP2 AND PUSH1 0x4 DUP3 ADD MSTORE PUSH1 0x24 SWAP1 REVERT JUMPDEST PUSH2 0x182C SWAP2 SWAP3 POP PUSH1 0x20 RETURNDATASIZE PUSH1 0x20 GT PUSH2 0x1833 JUMPI JUMPDEST PUSH2 0x1824 DUP2 DUP4 PUSH2 0x40E JUMP JUMPDEST DUP2 ADD SWAP1 PUSH2 0x1681 JUMP JUMPDEST SWAP1 PUSH0 PUSH2 0x178D JUMP JUMPDEST POP RETURNDATASIZE PUSH2 0x181A JUMP JUMPDEST SWAP4 SWAP3 SWAP1 SWAP5 SWAP2 SWAP5 DUP6 EXTCODESIZE PUSH2 0x184F JUMPI JUMPDEST POP POP POP POP POP POP JUMP JUMPDEST PUSH2 0x1872 PUSH1 0x20 SWAP4 PUSH1 0x40 MLOAD SWAP6 DUP7 SWAP5 DUP6 SWAP5 PUSH4 0xBC197C81 PUSH1 0xE0 SHL SWAP10 DUP11 DUP8 MSTORE PUSH1 0x4 DUP8 ADD PUSH2 0x16E0 JUMP JUMPDEST SUB DUP2 PUSH0 PUSH1 0x1 PUSH1 0x1 PUSH1 0xA0 SHL SUB DUP9 AND GAS CALL PUSH0 SWAP2 DUP2 PUSH2 0x18B2 JUMPI JUMPDEST POP PUSH2 0x1897 JUMPI DUP3 PUSH2 0x179B PUSH2 0x1712 JUMP JUMPDEST PUSH1 0x1 PUSH1 0x1 PUSH1 0xE0 SHL SUB NOT AND SUB PUSH2 0x17E6 JUMPI POP PUSH0 DUP1 DUP1 DUP1 DUP1 DUP1 PUSH2 0x1847 JUMP JUMPDEST PUSH2 0x18CC SWAP2 SWAP3 POP PUSH1 0x20 RETURNDATASIZE PUSH1 0x20 GT PUSH2 0x1833 JUMPI PUSH2 0x1824 DUP2 DUP4 PUSH2 0x40E JUMP JUMPDEST SWAP1 PUSH0 PUSH2 0x1889 JUMP JUMPDEST SWAP1 SWAP3 PUSH1 0xA0 SWAP3 PUSH2 0x2B5 SWAP6 SWAP5 PUSH1 0x1 DUP1 DUP7 SHL SUB AND DUP4 MSTORE PUSH0 PUSH1 0x20 DUP5 ADD MSTORE PUSH1 0x40 DUP4 ADD MSTORE PUSH1 0x60 DUP3 ADD MSTORE DUP2 PUSH1 0x80 DUP3 ADD MSTORE ADD SWAP1 PUSH2 0x266 JUMP JUMPDEST SWAP2 SWAP3 PUSH2 0x2B5 SWAP6 SWAP5 SWAP2 PUSH1 0xA0 SWAP5 PUSH1 0x1 DUP1 DUP8 SHL SUB DUP1 SWAP3 AND DUP6 MSTORE AND PUSH1 0x20 DUP5 ADD MSTORE PUSH1 0x40 DUP4 ADD MSTORE PUSH1 0x60 DUP3 ADD MSTORE DUP2 PUSH1 0x80 DUP3 ADD MSTORE ADD SWAP1 PUSH2 0x266 JUMP JUMPDEST SWAP3 SWAP4 SWAP2 SWAP1 SWAP4 DUP5 EXTCODESIZE PUSH2 0x1948 JUMPI POP POP POP POP POP JUMP JUMPDEST PUSH1 0x20 SWAP2 PUSH2 0x1776 PUSH1 0x40 MLOAD SWAP5 DUP6 SWAP4 DUP5 SWAP4 PUSH4 0xF23A6E61 PUSH1 0xE0 SHL SWAP9 DUP10 DUP7 MSTORE PUSH1 0x4 DUP7 ADD PUSH2 0x18D3 JUMP JUMPDEST SWAP4 SWAP3 SWAP1 SWAP5 SWAP2 SWAP5 DUP6 EXTCODESIZE PUSH2 0x197F JUMPI POP POP POP POP POP POP JUMP JUMPDEST PUSH2 0x1872 PUSH1 0x20 SWAP4 PUSH1 0x40 MLOAD SWAP6 DUP7 SWAP5 DUP6 SWAP5 PUSH4 0xF23A6E61 PUSH1 0xE0 SHL SWAP10 DUP11 DUP8 MSTORE PUSH1 0x4 DUP8 ADD PUSH2 0x1903 JUMP INVALID LOG2 PUSH5 0x6970667358 0x22 SLT KECCAK256 0xEB PUSH30 0x716A719D60D42396FEFC0345EC019AEC0861D332A1702EC9962A784CAF23 PUSH5 0x736F6C6343 STOP ADDMOD XOR STOP CALLER "},"methodIdentifiers":{"balanceOf(address,uint256)":"00fdd58e","balanceOfBatch(address[],uint256[])":"4e1273f4","getCollectionId(bytes32,bytes32,uint256)":"856296f7","getConditionId(address,bytes32,uint256)":"852c6ae2","getOutcomeSlotCount(bytes32)":"d42dc0c2","getPositionId(address,bytes32)":"39dd7530","isApprovedForAll(address,address)":"e985e9c5","mergePositions(address,bytes32,bytes32,uint256[],uint256)":"9e7212ad","outcomeSlotCounts(bytes32)":"f2521c12","payoutNumerators(bytes32,uint256)":"0504c814","prepareCondition(address,bytes32,uint256)":"d96ee754","reportPayouts(bytes32,uint256[])":"c49298ac","safeBatchTransferFrom(address,address,uint256[],uint256[],bytes)":"2eb2c2d6","safeTransferFrom(address,address,uint256,uint256,bytes)":"f242432a","setApprovalForAll(address,bool)":"a22cb465","splitPosition(address,bytes32,bytes32,uint256[],uint256)":"72ce4275","supportsInterface(bytes4)":"01ffc9a7","uri(uint256)":"0e89341c"}}}}}