{"project/contracts/ProxyWalletFactory.sol":{"ProxyWalletFactory":{"abi":[{"inputs":[],"stateMutability":"nonpayable","type":"constructor"},{"inputs":[{"internalType":"address","name":"owner","type":"address"}],"name":"OwnableInvalidOwner","type":"error"},{"inputs":[{"internalType":"address","name":"account","type":"address"}],"name":"OwnableUnauthorizedAccount","type":"error"},{"anonymous":false,"inputs":[{"indexed":true,"internalType":"address","name":"newImplementation","type":"address"}],"name":"ImplementationUpdated","type":"event"},{"anonymous":false,"inputs":[{"indexed":true,"internalType":"address","name":"previousOwner","type":"address"},{"indexed":true,"internalType":"address","name":"newOwner","type":"address"}],"name":"OwnershipTransferred","type":"event"},{"anonymous":false,"inputs":[{"indexed":true,"internalType":"address","name":"instance","type":"address"},{"indexed":true,"internalType":"address","name":"user","type":"address"}],"name":"ProxyCreation","type":"event"},{"inputs":[],"name":"getImplementation","outputs":[{"internalType":"address","name":"","type":"address"}],"stateMutability":"view","type":"function"},{"inputs":[{"internalType":"address","name":"","type":"address"},{"internalType":"address","name":"user","type":"address"}],"name":"getInstanceAddress","outputs":[{"internalType":"address","name":"","type":"address"}],"stateMutability":"view","type":"function"},{"inputs":[],"name":"implementation","outputs":[{"internalType":"address","name":"","type":"address"}],"stateMutability":"view","type":"function"},{"inputs":[{"internalType":"address","name":"","type":"address"},{"internalType":"address","name":"instanceAddress","type":"address"},{"internalType":"address","name":"user","type":"address"}],"name":"maybeMakeWallet","outputs":[{"internalType":"address","name":"","type":"address"}],"stateMutability":"nonpayable","type":"function"},{"inputs":[],"name":"owner","outputs":[{"internalType":"address","name":"","type":"address"}],"stateMutability":"view","type":"function"},{"inputs":[{"components":[{"internalType":"address","name":"to","type":"address"},{"internalType":"bytes","name":"data","type":"bytes"},{"internalType":"uint256","name":"value","type":"uint256"}],"internalType":"struct ProxyWalletFactory.Call[]","name":"calls","type":"tuple[]"}],"name":"proxy","outputs":[{"internalType":"bytes[]","name":"","type":"bytes[]"}],"stateMutability":"payable","type":"function"},{"inputs":[],"name":"renounceOwnership","outputs":[],"stateMutability":"nonpayable","type":"function"},{"inputs":[{"internalType":"address","name":"_newImplementation","type":"address"}],"name":"setImplementation","outputs":[],"stateMutability":"nonpayable","type":"function"},{"inputs":[{"internalType":"address","name":"newOwner","type":"address"}],"name":"transferOwnership","outputs":[],"stateMutability":"nonpayable","type":"function"}],"evm":{"bytecode":{"linkReferences":{},"object":"608060405234801561000f575f80fd5b50338061003557604051631e4fbdf760e01b81525f600482015260240160405180910390fd5b61003e81610044565b50610093565b5f80546001600160a01b038381166001600160a01b0319831681178455604051919092169283917f8be0079c531659141344cd1fd0a4f28419497f9722a3daafe3b4186f6b6457e09190a35050565b61144d806100a05f395ff3fe608060405260043610610084575f3560e01c80638da5cb5b116100575780638da5cb5b14610119578063aaf10f4214610135578063d784d42614610152578063dfb17f4814610171578063f2fde38b14610190575f80fd5b80635b03e04b146100885780635c60da1b146100c45780636d5fa22a146100e3578063715018a614610103575b5f80fd5b348015610093575f80fd5b506100a76100a236600461053a565b6101af565b6040516001600160a01b0390911681526020015b60405180910390f35b3480156100cf575f80fd5b506001546100a7906001600160a01b031681565b6100f66100f136600461057a565b6102b8565b6040516100bb919061060b565b34801561010e575f80fd5b50610117610302565b005b348015610124575f80fd5b505f546001600160a01b03166100a7565b348015610140575f80fd5b506001546001600160a01b03166100a7565b34801561015d575f80fd5b5061011761016c366004610683565b610315565b34801561017c575f80fd5b506100a761018b36600461069c565b610366565b34801561019b575f80fd5b506101176101aa366004610683565b61045a565b5f6001600160a01b0383163b156101c75750816102b1565b6040516001600160a01b038316905f90829085906101e490610512565b6001600160a01b0390911681526020018190604051809103905ff5905080158015610211573d5f803e3d5ffd5b509050846001600160a01b0316816001600160a01b03161461026d5760405162461bcd60e51b815260206004820152601060248201526f082c8c8e4cae6e640dad2e6dac2e8c6d60831b60448201526064015b60405180910390fd5b836001600160a01b0316816001600160a01b03167f4f51faf6c4561ff95f067657e43439f0f856d97c04d9ec9070a6199ad418e23560405160405180910390a39150505b9392505050565b606060405162461bcd60e51b8152600401610264906020808252818101527f5573652077616c6c65742e657865637574654261746368206469726563746c79604082015260600190565b61030a610497565b6103135f6104c3565b565b61031d610497565b600180546001600160a01b0319166001600160a01b0383169081179091556040517f310ba5f1d2ed074b51e2eccd052a47ae9ab7c6b800d1fca3db3999d6a592ca03905f90a250565b6040515f906001600160a01b03831690829061038460208201610512565b601f1982820381018352601f9091011660408181526001600160a01b03871660208301529192505f910160405160208183030381529060405290505f60ff60f81b308585856040516020016103da9291906106cd565b6040516020818303038152906040528051906020012060405160200161043794939291906001600160f81b031994909416845260609290921b6bffffffffffffffffffffffff191660018401526015830152603582015260550190565b60408051808303601f190181529190528051602090910120979650505050505050565b610462610497565b6001600160a01b03811661048b57604051631e4fbdf760e01b81525f6004820152602401610264565b610494816104c3565b50565b5f546001600160a01b031633146103135760405163118cdaa760e01b8152336004820152602401610264565b5f80546001600160a01b038381166001600160a01b0319831681178455604051919092169283917f8be0079c531659141344cd1fd0a4f28419497f9722a3daafe3b4186f6b6457e09190a35050565b610d1c806106fc83390190565b80356001600160a01b0381168114610535575f80fd5b919050565b5f805f6060848603121561054c575f80fd5b6105558461051f565b92506105636020850161051f565b91506105716040850161051f565b90509250925092565b5f806020838503121561058b575f80fd5b823567ffffffffffffffff808211156105a2575f80fd5b818501915085601f8301126105b5575f80fd5b8135818111156105c3575f80fd5b8660208260051b85010111156105d7575f80fd5b60209290920196919550909350505050565b5f5b838110156106035781810151838201526020016105eb565b50505f910152565b5f602080830181845280855180835260408601915060408160051b87010192508387015f5b8281101561067657878503603f1901845281518051808752610657818989018a85016105e9565b601f01601f191695909501860194509285019290850190600101610630565b5092979650505050505050565b5f60208284031215610693575f80fd5b6102b18261051f565b5f80604083850312156106ad575f80fd5b6106b68361051f565b91506106c46020840161051f565b90509250929050565b5f83516106de8184602088016105e9565b8351908301906106f28183602088016105e9565b0194935050505056fe60a060405234801561000f575f80fd5b50604051610d1c380380610d1c83398101604081905261002e9161003f565b6001600160a01b031660805261006c565b5f6020828403121561004f575f80fd5b81516001600160a01b0381168114610065575f80fd5b9392505050565b608051610c836100995f395f8181610152015281816101bb0152818161027d01526106440152610c835ff3fe608060405260043610610087575f3560e01c80638a89b44b116100575780638a89b44b1461018a5780638da5cb5b146101aa578063a04a0908146101dd578063bc197c81146101fd578063f23a6e6114610244575f80fd5b806301ffc9a7146100925780632d0335ab146100d75780637ecebe0014610119578063893d20e814610144575f80fd5b3661008e57005b5f80fd5b34801561009d575f80fd5b506100c26100ac3660046107db565b6001600160e01b031916630271189760e51b1490565b60405190151581526020015b60405180910390f35b3480156100e2575f80fd5b5061010b6100f1366004610824565b6001600160a01b03165f9081526020819052604090205490565b6040519081526020016100ce565b348015610124575f80fd5b5061010b610133366004610824565b5f6020819052908152604090205481565b34801561014f575f80fd5b507f00000000000000000000000000000000000000000000000000000000000000005b6040516001600160a01b0390911681526020016100ce565b61019d610198366004610885565b610270565b6040516100ce9190610907565b3480156101b5575f80fd5b506101727f000000000000000000000000000000000000000000000000000000000000000081565b6101f06101eb3660046109a7565b610637565b6040516100ce91906109fd565b348015610208575f80fd5b5061022b610217366004610a0f565b63bc197c8160e01b98975050505050505050565b6040516001600160e01b031990911681526020016100ce565b34801561024f575f80fd5b5061022b61025e366004610ac2565b63f23a6e6160e01b9695505050505050565b6060336001600160a01b037f000000000000000000000000000000000000000000000000000000000000000016146102dc5760405162461bcd60e51b815260206004820152600a60248201526927b7363c9037bbb732b960b11b60448201526064015b60405180910390fd5b5f8267ffffffffffffffff8111156102f6576102f6610b35565b60405190808252806020026020018201604052801561032957816020015b60608152602001906001900390816103145790505b5090505f5b8381101561062f575f8086868481811061034a5761034a610b49565b905060200281019061035c9190610b5d565b61036a906020810190610824565b6001600160a01b031687878581811061038557610385610b49565b90506020028101906103979190610b5d565b604001358888868181106103ad576103ad610b49565b90506020028101906103bf9190610b5d565b6103cd906020810190610b7b565b6040516103db929190610bbe565b5f6040518083038185875af1925050503d805f8114610415576040519150601f19603f3d011682016040523d82523d5f602084013e61041a565b606091505b509150915081156105175786868481811061043757610437610b49565b90506020028101906104499190610b5d565b610457906020810190610824565b6001600160a01b03167ff4800c13ce03d6b46be439e64c27067ebb2921fda2eff0daa77e8e3bae518a3088888681811061049357610493610b49565b90506020028101906104a59190610b5d565b604001358989878181106104bb576104bb610b49565b90506020028101906104cd9190610b5d565b6104db906020810190610b7b565b856040516104ec9493929190610bf5565b60405180910390a28084848151811061050757610507610b49565b6020026020010181905250610625565b86868481811061052957610529610b49565b905060200281019061053b9190610b5d565b610549906020810190610824565b6001600160a01b03167f8d1ecf04e6462600e647fec505da5fb931c5d7e2c8171df5f6629beab50ec07f88888681811061058557610585610b49565b90506020028101906105979190610b5d565b604001358989878181106105ad576105ad610b49565b90506020028101906105bf9190610b5d565b6105cd906020810190610b7b565b6040516105dc93929190610c2b565b60405180910390a260405162461bcd60e51b815260206004820152601660248201527510985d18da08195e1958dd5d1a5bdb8819985a5b195960521b60448201526064016102d3565b505060010161032e565b509392505050565b6060336001600160a01b037f0000000000000000000000000000000000000000000000000000000000000000161461069e5760405162461bcd60e51b815260206004820152600a60248201526927b7363c9037bbb732b960b11b60448201526064016102d3565b5f80866001600160a01b03168487876040516106bb929190610bbe565b5f6040518083038185875af1925050503d805f81146106f5576040519150601f19603f3d011682016040523d82523d5f602084013e6106fa565b606091505b5091509150811561075157866001600160a01b03167ff4800c13ce03d6b46be439e64c27067ebb2921fda2eff0daa77e8e3bae518a30858888856040516107449493929190610bf5565b60405180910390a26107d1565b866001600160a01b03167f8d1ecf04e6462600e647fec505da5fb931c5d7e2c8171df5f6629beab50ec07f85888860405161078e93929190610c2b565b60405180910390a260405162461bcd60e51b815260206004820152601060248201526f115e1958dd5d1a5bdb8819985a5b195960821b60448201526064016102d3565b9695505050505050565b5f602082840312156107eb575f80fd5b81356001600160e01b031981168114610802575f80fd5b9392505050565b80356001600160a01b038116811461081f575f80fd5b919050565b5f60208284031215610834575f80fd5b61080282610809565b5f8083601f84011261084d575f80fd5b50813567ffffffffffffffff811115610864575f80fd5b6020830191508360208260051b850101111561087e575f80fd5b9250929050565b5f8060208385031215610896575f80fd5b823567ffffffffffffffff8111156108ac575f80fd5b6108b88582860161083d565b90969095509350505050565b5f81518084525f5b818110156108e8576020818501810151868301820152016108cc565b505f602082860101526020601f19601f83011685010191505092915050565b5f60208083016020845280855180835260408601915060408160051b8701019250602087015f5b8281101561095c57603f1988860301845261094a8583516108c4565b9450928501929085019060010161092e565b5092979650505050505050565b5f8083601f840112610979575f80fd5b50813567ffffffffffffffff811115610990575f80fd5b60208301915083602082850101111561087e575f80fd5b5f805f80606085870312156109ba575f80fd5b6109c385610809565b9350602085013567ffffffffffffffff8111156109de575f80fd5b6109ea87828801610969565b9598909750949560400135949350505050565b602081525f61080260208301846108c4565b5f805f805f805f8060a0898b031215610a26575f80fd5b610a2f89610809565b9750610a3d60208a01610809565b9650604089013567ffffffffffffffff80821115610a59575f80fd5b610a658c838d0161083d565b909850965060608b0135915080821115610a7d575f80fd5b610a898c838d0161083d565b909650945060808b0135915080821115610aa1575f80fd5b50610aae8b828c01610969565b999c989b5096995094979396929594505050565b5f805f805f8060a08789031215610ad7575f80fd5b610ae087610809565b9550610aee60208801610809565b94506040870135935060608701359250608087013567ffffffffffffffff811115610b17575f80fd5b610b2389828a01610969565b979a9699509497509295939492505050565b634e487b7160e01b5f52604160045260245ffd5b634e487b7160e01b5f52603260045260245ffd5b5f8235605e19833603018112610b71575f80fd5b9190910192915050565b5f808335601e19843603018112610b90575f80fd5b83018035915067ffffffffffffffff821115610baa575f80fd5b60200191503681900382131561087e575f80fd5b818382375f9101908152919050565b81835281816020850137505f828201602090810191909152601f909101601f19169091010190565b848152606060208201525f610c0e606083018587610bcd565b8281036040840152610c2081856108c4565b979650505050505050565b838152604060208201525f610c44604083018486610bcd565b9594505050505056fea2646970667358221220e2410ab2bdb91d07dc020c6845b5598fd3532668ca3a8c3c5bf5a863dd9a9d2c64736f6c63430008180033a26469706673582212203a62fd3ce74af4eb3915bde3c3b0f8a83879d1330cc1ff34b859eead0267406f64736f6c63430008180033","opcodes":"PUSH1 0x80 PUSH1 0x40 MSTORE CALLVALUE DUP1 ISZERO PUSH2 0xF JUMPI PUSH0 DUP1 REVERT JUMPDEST POP CALLER DUP1 PUSH2 0x35 JUMPI PUSH1 0x40 MLOAD PUSH4 0x1E4FBDF7 PUSH1 0xE0 SHL DUP2 MSTORE PUSH0 PUSH1 0x4 DUP3 ADD MSTORE PUSH1 0x24 ADD PUSH1 0x40 MLOAD DUP1 SWAP2 SUB SWAP1 REVERT JUMPDEST PUSH2 0x3E DUP2 PUSH2 0x44 JUMP JUMPDEST POP PUSH2 0x93 JUMP JUMPDEST PUSH0 DUP1 SLOAD PUSH1 0x1 PUSH1 0x1 PUSH1 0xA0 SHL SUB DUP4 DUP2 AND PUSH1 0x1 PUSH1 0x1 PUSH1 0xA0 SHL SUB NOT DUP4 AND DUP2 OR DUP5 SSTORE PUSH1 0x40 MLOAD SWAP2 SWAP1 SWAP3 AND SWAP3 DUP4 SWAP2 PUSH32 0x8BE0079C531659141344CD1FD0A4F28419497F9722A3DAAFE3B4186F6B6457E0 SWAP2 SWAP1 LOG3 POP POP JUMP JUMPDEST PUSH2 0x144D DUP1 PUSH2 0xA0 PUSH0 CODECOPY PUSH0 RETURN INVALID PUSH1 0x80 PUSH1 0x40 MSTORE PUSH1 0x4 CALLDATASIZE LT PUSH2 0x84 JUMPI PUSH0 CALLDATALOAD PUSH1 0xE0 SHR DUP1 PUSH4 0x8DA5CB5B GT PUSH2 0x57 JUMPI DUP1 PUSH4 0x8DA5CB5B EQ PUSH2 0x119 JUMPI DUP1 PUSH4 0xAAF10F42 EQ PUSH2 0x135 JUMPI DUP1 PUSH4 0xD784D426 EQ PUSH2 0x152 JUMPI DUP1 PUSH4 0xDFB17F48 EQ PUSH2 0x171 JUMPI DUP1 PUSH4 0xF2FDE38B EQ PUSH2 0x190 JUMPI PUSH0 DUP1 REVERT JUMPDEST DUP1 PUSH4 0x5B03E04B EQ PUSH2 0x88 JUMPI DUP1 PUSH4 0x5C60DA1B EQ PUSH2 0xC4 JUMPI DUP1 PUSH4 0x6D5FA22A EQ PUSH2 0xE3 JUMPI DUP1 PUSH4 0x715018A6 EQ PUSH2 0x103 JUMPI JUMPDEST PUSH0 DUP1 REVERT JUMPDEST CALLVALUE DUP1 ISZERO PUSH2 0x93 JUMPI PUSH0 DUP1 REVERT JUMPDEST POP PUSH2 0xA7 PUSH2 0xA2 CALLDATASIZE PUSH1 0x4 PUSH2 0x53A JUMP JUMPDEST PUSH2 0x1AF JUMP JUMPDEST PUSH1 0x40 MLOAD PUSH1 0x1 PUSH1 0x1 PUSH1 0xA0 SHL SUB SWAP1 SWAP2 AND DUP2 MSTORE PUSH1 0x20 ADD JUMPDEST PUSH1 0x40 MLOAD DUP1 SWAP2 SUB SWAP1 RETURN JUMPDEST CALLVALUE DUP1 ISZERO PUSH2 0xCF JUMPI PUSH0 DUP1 REVERT JUMPDEST POP PUSH1 0x1 SLOAD PUSH2 0xA7 SWAP1 PUSH1 0x1 PUSH1 0x1 PUSH1 0xA0 SHL SUB AND DUP2 JUMP JUMPDEST PUSH2 0xF6 PUSH2 0xF1 CALLDATASIZE PUSH1 0x4 PUSH2 0x57A JUMP JUMPDEST PUSH2 0x2B8 JUMP JUMPDEST PUSH1 0x40 MLOAD PUSH2 0xBB SWAP2 SWAP1 PUSH2 0x60B JUMP JUMPDEST CALLVALUE DUP1 ISZERO PUSH2 0x10E JUMPI PUSH0 DUP1 REVERT JUMPDEST POP PUSH2 0x117 PUSH2 0x302 JUMP JUMPDEST STOP JUMPDEST CALLVALUE DUP1 ISZERO PUSH2 0x124 JUMPI PUSH0 DUP1 REVERT JUMPDEST POP PUSH0 SLOAD PUSH1 0x1 PUSH1 0x1 PUSH1 0xA0 SHL SUB AND PUSH2 0xA7 JUMP JUMPDEST CALLVALUE DUP1 ISZERO PUSH2 0x140 JUMPI PUSH0 DUP1 REVERT JUMPDEST POP PUSH1 0x1 SLOAD PUSH1 0x1 PUSH1 0x1 PUSH1 0xA0 SHL SUB AND PUSH2 0xA7 JUMP JUMPDEST CALLVALUE DUP1 ISZERO PUSH2 0x15D JUMPI PUSH0 DUP1 REVERT JUMPDEST POP PUSH2 0x117 PUSH2 0x16C CALLDATASIZE PUSH1 0x4 PUSH2 0x683 JUMP JUMPDEST PUSH2 0x315 JUMP JUMPDEST CALLVALUE DUP1 ISZERO PUSH2 0x17C JUMPI PUSH0 DUP1 REVERT JUMPDEST POP PUSH2 0xA7 PUSH2 0x18B CALLDATASIZE PUSH1 0x4 PUSH2 0x69C JUMP JUMPDEST PUSH2 0x366 JUMP JUMPDEST CALLVALUE DUP1 ISZERO PUSH2 0x19B JUMPI PUSH0 DUP1 REVERT JUMPDEST POP PUSH2 0x117 PUSH2 0x1AA CALLDATASIZE PUSH1 0x4 PUSH2 0x683 JUMP JUMPDEST PUSH2 0x45A JUMP JUMPDEST PUSH0 PUSH1 0x1 PUSH1 0x1 PUSH1 0xA0 SHL SUB DUP4 AND EXTCODESIZE ISZERO PUSH2 0x1C7 JUMPI POP DUP2 PUSH2 0x2B1 JUMP JUMPDEST PUSH1 0x40 MLOAD PUSH1 0x1 PUSH1 0x1 PUSH1 0xA0 SHL SUB DUP4 AND SWAP1 PUSH0 SWAP1 DUP3 SWAP1 DUP6 SWAP1 PUSH2 0x1E4 SWAP1 PUSH2 0x512 JUMP JUMPDEST PUSH1 0x1 PUSH1 0x1 PUSH1 0xA0 SHL SUB SWAP1 SWAP2 AND DUP2 MSTORE PUSH1 0x20 ADD DUP2 SWAP1 PUSH1 0x40 MLOAD DUP1 SWAP2 SUB SWAP1 PUSH0 CREATE2 SWAP1 POP DUP1 ISZERO DUP1 ISZERO PUSH2 0x211 JUMPI RETURNDATASIZE PUSH0 DUP1 RETURNDATACOPY RETURNDATASIZE PUSH0 REVERT JUMPDEST POP SWAP1 POP DUP5 PUSH1 0x1 PUSH1 0x1 PUSH1 0xA0 SHL SUB AND DUP2 PUSH1 0x1 PUSH1 0x1 PUSH1 0xA0 SHL SUB AND EQ PUSH2 0x26D JUMPI PUSH1 0x40 MLOAD PUSH3 0x461BCD PUSH1 0xE5 SHL DUP2 MSTORE PUSH1 0x20 PUSH1 0x4 DUP3 ADD MSTORE PUSH1 0x10 PUSH1 0x24 DUP3 ADD MSTORE PUSH16 0x82C8C8E4CAE6E640DAD2E6DAC2E8C6D PUSH1 0x83 SHL PUSH1 0x44 DUP3 ADD MSTORE PUSH1 0x64 ADD JUMPDEST PUSH1 0x40 MLOAD DUP1 SWAP2 SUB SWAP1 REVERT JUMPDEST DUP4 PUSH1 0x1 PUSH1 0x1 PUSH1 0xA0 SHL SUB AND DUP2 PUSH1 0x1 PUSH1 0x1 PUSH1 0xA0 SHL SUB AND PUSH32 0x4F51FAF6C4561FF95F067657E43439F0F856D97C04D9EC9070A6199AD418E235 PUSH1 0x40 MLOAD PUSH1 0x40 MLOAD DUP1 SWAP2 SUB SWAP1 LOG3 SWAP2 POP POP JUMPDEST SWAP4 SWAP3 POP POP POP JUMP JUMPDEST PUSH1 0x60 PUSH1 0x40 MLOAD PUSH3 0x461BCD PUSH1 0xE5 SHL DUP2 MSTORE PUSH1 0x4 ADD PUSH2 0x264 SWAP1 PUSH1 0x20 DUP1 DUP3 MSTORE DUP2 DUP2 ADD MSTORE PUSH32 0x5573652077616C6C65742E657865637574654261746368206469726563746C79 PUSH1 0x40 DUP3 ADD MSTORE PUSH1 0x60 ADD SWAP1 JUMP JUMPDEST PUSH2 0x30A PUSH2 0x497 JUMP JUMPDEST PUSH2 0x313 PUSH0 PUSH2 0x4C3 JUMP JUMPDEST JUMP JUMPDEST PUSH2 0x31D PUSH2 0x497 JUMP JUMPDEST PUSH1 0x1 DUP1 SLOAD PUSH1 0x1 PUSH1 0x1 PUSH1 0xA0 SHL SUB NOT AND PUSH1 0x1 PUSH1 0x1 PUSH1 0xA0 SHL SUB DUP4 AND SWAP1 DUP2 OR SWAP1 SWAP2 SSTORE PUSH1 0x40 MLOAD PUSH32 0x310BA5F1D2ED074B51E2ECCD052A47AE9AB7C6B800D1FCA3DB3999D6A592CA03 SWAP1 PUSH0 SWAP1 LOG2 POP JUMP JUMPDEST PUSH1 0x40 MLOAD PUSH0 SWAP1 PUSH1 0x1 PUSH1 0x1 PUSH1 0xA0 SHL SUB DUP4 AND SWAP1 DUP3 SWAP1 PUSH2 0x384 PUSH1 0x20 DUP3 ADD PUSH2 0x512 JUMP JUMPDEST PUSH1 0x1F NOT DUP3 DUP3 SUB DUP2 ADD DUP4 MSTORE PUSH1 0x1F SWAP1 SWAP2 ADD AND PUSH1 0x40 DUP2 DUP2 MSTORE PUSH1 0x1 PUSH1 0x1 PUSH1 0xA0 SHL SUB DUP8 AND PUSH1 0x20 DUP4 ADD MSTORE SWAP2 SWAP3 POP PUSH0 SWAP2 ADD PUSH1 0x40 MLOAD PUSH1 0x20 DUP2 DUP4 SUB SUB DUP2 MSTORE SWAP1 PUSH1 0x40 MSTORE SWAP1 POP PUSH0 PUSH1 0xFF PUSH1 0xF8 SHL ADDRESS DUP6 DUP6 DUP6 PUSH1 0x40 MLOAD PUSH1 0x20 ADD PUSH2 0x3DA SWAP3 SWAP2 SWAP1 PUSH2 0x6CD JUMP JUMPDEST PUSH1 0x40 MLOAD PUSH1 0x20 DUP2 DUP4 SUB SUB DUP2 MSTORE SWAP1 PUSH1 0x40 MSTORE DUP1 MLOAD SWAP1 PUSH1 0x20 ADD KECCAK256 PUSH1 0x40 MLOAD PUSH1 0x20 ADD PUSH2 0x437 SWAP5 SWAP4 SWAP3 SWAP2 SWAP1 PUSH1 0x1 PUSH1 0x1 PUSH1 0xF8 SHL SUB NOT SWAP5 SWAP1 SWAP5 AND DUP5 MSTORE PUSH1 0x60 SWAP3 SWAP1 SWAP3 SHL PUSH12 0xFFFFFFFFFFFFFFFFFFFFFFFF NOT AND PUSH1 0x1 DUP5 ADD MSTORE PUSH1 0x15 DUP4 ADD MSTORE PUSH1 0x35 DUP3 ADD MSTORE PUSH1 0x55 ADD SWAP1 JUMP JUMPDEST PUSH1 0x40 DUP1 MLOAD DUP1 DUP4 SUB PUSH1 0x1F NOT ADD DUP2 MSTORE SWAP2 SWAP1 MSTORE DUP1 MLOAD PUSH1 0x20 SWAP1 SWAP2 ADD KECCAK256 SWAP8 SWAP7 POP POP POP POP POP POP POP JUMP JUMPDEST PUSH2 0x462 PUSH2 0x497 JUMP JUMPDEST PUSH1 0x1 PUSH1 0x1 PUSH1 0xA0 SHL SUB DUP2 AND PUSH2 0x48B JUMPI PUSH1 0x40 MLOAD PUSH4 0x1E4FBDF7 PUSH1 0xE0 SHL DUP2 MSTORE PUSH0 PUSH1 0x4 DUP3 ADD MSTORE PUSH1 0x24 ADD PUSH2 0x264 JUMP JUMPDEST PUSH2 0x494 DUP2 PUSH2 0x4C3 JUMP JUMPDEST POP JUMP JUMPDEST PUSH0 SLOAD PUSH1 0x1 PUSH1 0x1 PUSH1 0xA0 SHL SUB AND CALLER EQ PUSH2 0x313 JUMPI PUSH1 0x40 MLOAD PUSH4 0x118CDAA7 PUSH1 0xE0 SHL DUP2 MSTORE CALLER PUSH1 0x4 DUP3 ADD MSTORE PUSH1 0x24 ADD PUSH2 0x264 JUMP JUMPDEST PUSH0 DUP1 SLOAD PUSH1 0x1 PUSH1 0x1 PUSH1 0xA0 SHL SUB DUP4 DUP2 AND PUSH1 0x1 PUSH1 0x1 PUSH1 0xA0 SHL SUB NOT DUP4 AND DUP2 OR DUP5 SSTORE PUSH1 0x40 MLOAD SWAP2 SWAP1 SWAP3 AND SWAP3 DUP4 SWAP2 PUSH32 0x8BE0079C531659141344CD1FD0A4F28419497F9722A3DAAFE3B4186F6B6457E0 SWAP2 SWAP1 LOG3 POP POP JUMP JUMPDEST PUSH2 0xD1C DUP1 PUSH2 0x6FC DUP4 CODECOPY ADD SWAP1 JUMP JUMPDEST DUP1 CALLDATALOAD PUSH1 0x1 PUSH1 0x1 PUSH1 0xA0 SHL SUB DUP2 AND DUP2 EQ PUSH2 0x535 JUMPI PUSH0 DUP1 REVERT JUMPDEST SWAP2 SWAP1 POP JUMP JUMPDEST PUSH0 DUP1 PUSH0 PUSH1 0x60 DUP5 DUP7 SUB SLT ISZERO PUSH2 0x54C JUMPI PUSH0 DUP1 REVERT JUMPDEST PUSH2 0x555 DUP5 PUSH2 0x51F JUMP JUMPDEST SWAP3 POP PUSH2 0x563 PUSH1 0x20 DUP6 ADD PUSH2 0x51F JUMP JUMPDEST SWAP2 POP PUSH2 0x571 PUSH1 0x40 DUP6 ADD PUSH2 0x51F JUMP JUMPDEST SWAP1 POP SWAP3 POP SWAP3 POP SWAP3 JUMP JUMPDEST PUSH0 DUP1 PUSH1 0x20 DUP4 DUP6 SUB SLT ISZERO PUSH2 0x58B JUMPI PUSH0 DUP1 REVERT JUMPDEST DUP3 CALLDATALOAD PUSH8 0xFFFFFFFFFFFFFFFF DUP1 DUP3 GT ISZERO PUSH2 0x5A2 JUMPI PUSH0 DUP1 REVERT JUMPDEST DUP2 DUP6 ADD SWAP2 POP DUP6 PUSH1 0x1F DUP4 ADD SLT PUSH2 0x5B5 JUMPI PUSH0 DUP1 REVERT JUMPDEST DUP2 CALLDATALOAD DUP2 DUP2 GT ISZERO PUSH2 0x5C3 JUMPI PUSH0 DUP1 REVERT JUMPDEST DUP7 PUSH1 0x20 DUP3 PUSH1 0x5 SHL DUP6 ADD ADD GT ISZERO PUSH2 0x5D7 JUMPI PUSH0 DUP1 REVERT JUMPDEST PUSH1 0x20 SWAP3 SWAP1 SWAP3 ADD SWAP7 SWAP2 SWAP6 POP SWAP1 SWAP4 POP POP POP POP JUMP JUMPDEST PUSH0 JUMPDEST DUP4 DUP2 LT ISZERO PUSH2 0x603 JUMPI DUP2 DUP2 ADD MLOAD DUP4 DUP3 ADD MSTORE PUSH1 0x20 ADD PUSH2 0x5EB JUMP JUMPDEST POP POP PUSH0 SWAP2 ADD MSTORE JUMP JUMPDEST PUSH0 PUSH1 0x20 DUP1 DUP4 ADD DUP2 DUP5 MSTORE DUP1 DUP6 MLOAD DUP1 DUP4 MSTORE PUSH1 0x40 DUP7 ADD SWAP2 POP PUSH1 0x40 DUP2 PUSH1 0x5 SHL DUP8 ADD ADD SWAP3 POP DUP4 DUP8 ADD PUSH0 JUMPDEST DUP3 DUP2 LT ISZERO PUSH2 0x676 JUMPI DUP8 DUP6 SUB PUSH1 0x3F NOT ADD DUP5 MSTORE DUP2 MLOAD DUP1 MLOAD DUP1 DUP8 MSTORE PUSH2 0x657 DUP2 DUP10 DUP10 ADD DUP11 DUP6 ADD PUSH2 0x5E9 JUMP JUMPDEST PUSH1 0x1F ADD PUSH1 0x1F NOT AND SWAP6 SWAP1 SWAP6 ADD DUP7 ADD SWAP5 POP SWAP3 DUP6 ADD SWAP3 SWAP1 DUP6 ADD SWAP1 PUSH1 0x1 ADD PUSH2 0x630 JUMP JUMPDEST POP SWAP3 SWAP8 SWAP7 POP POP POP POP POP POP POP JUMP JUMPDEST PUSH0 PUSH1 0x20 DUP3 DUP5 SUB SLT ISZERO PUSH2 0x693 JUMPI PUSH0 DUP1 REVERT JUMPDEST PUSH2 0x2B1 DUP3 PUSH2 0x51F JUMP JUMPDEST PUSH0 DUP1 PUSH1 0x40 DUP4 DUP6 SUB SLT ISZERO PUSH2 0x6AD JUMPI PUSH0 DUP1 REVERT JUMPDEST PUSH2 0x6B6 DUP4 PUSH2 0x51F JUMP JUMPDEST SWAP2 POP PUSH2 0x6C4 PUSH1 0x20 DUP5 ADD PUSH2 0x51F JUMP JUMPDEST SWAP1 POP SWAP3 POP SWAP3 SWAP1 POP JUMP JUMPDEST PUSH0 DUP4 MLOAD PUSH2 0x6DE DUP2 DUP5 PUSH1 0x20 DUP9 ADD PUSH2 0x5E9 JUMP JUMPDEST DUP4 MLOAD SWAP1 DUP4 ADD SWAP1 PUSH2 0x6F2 DUP2 DUP4 PUSH1 0x20 DUP9 ADD PUSH2 0x5E9 JUMP JUMPDEST ADD SWAP5 SWAP4 POP POP POP POP JUMP INVALID PUSH1 0xA0 PUSH1 0x40 MSTORE CALLVALUE DUP1 ISZERO PUSH2 0xF JUMPI PUSH0 DUP1 REVERT JUMPDEST POP PUSH1 0x40 MLOAD PUSH2 0xD1C CODESIZE SUB DUP1 PUSH2 0xD1C DUP4 CODECOPY DUP2 ADD PUSH1 0x40 DUP2 SWAP1 MSTORE PUSH2 0x2E SWAP2 PUSH2 0x3F JUMP JUMPDEST PUSH1 0x1 PUSH1 0x1 PUSH1 0xA0 SHL SUB AND PUSH1 0x80 MSTORE PUSH2 0x6C JUMP JUMPDEST PUSH0 PUSH1 0x20 DUP3 DUP5 SUB SLT ISZERO PUSH2 0x4F JUMPI PUSH0 DUP1 REVERT JUMPDEST DUP2 MLOAD PUSH1 0x1 PUSH1 0x1 PUSH1 0xA0 SHL SUB DUP2 AND DUP2 EQ PUSH2 0x65 JUMPI PUSH0 DUP1 REVERT JUMPDEST SWAP4 SWAP3 POP POP POP JUMP JUMPDEST PUSH1 0x80 MLOAD PUSH2 0xC83 PUSH2 0x99 PUSH0 CODECOPY PUSH0 DUP2 DUP2 PUSH2 0x152 ADD MSTORE DUP2 DUP2 PUSH2 0x1BB ADD MSTORE DUP2 DUP2 PUSH2 0x27D ADD MSTORE PUSH2 0x644 ADD MSTORE PUSH2 0xC83 PUSH0 RETURN INVALID PUSH1 0x80 PUSH1 0x40 MSTORE PUSH1 0x4 CALLDATASIZE LT PUSH2 0x87 JUMPI PUSH0 CALLDATALOAD PUSH1 0xE0 SHR DUP1 PUSH4 0x8A89B44B GT PUSH2 0x57 JUMPI DUP1 PUSH4 0x8A89B44B EQ PUSH2 0x18A JUMPI DUP1 PUSH4 0x8DA5CB5B EQ PUSH2 0x1AA JUMPI DUP1 PUSH4 0xA04A0908 EQ PUSH2 0x1DD JUMPI DUP1 PUSH4 0xBC197C81 EQ PUSH2 0x1FD JUMPI DUP1 PUSH4 0xF23A6E61 EQ PUSH2 0x244 JUMPI PUSH0 DUP1 REVERT JUMPDEST DUP1 PUSH4 0x1FFC9A7 EQ PUSH2 0x92 JUMPI DUP1 PUSH4 0x2D0335AB EQ PUSH2 0xD7 JUMPI DUP1 PUSH4 0x7ECEBE00 EQ PUSH2 0x119 JUMPI DUP1 PUSH4 0x893D20E8 EQ PUSH2 0x144 JUMPI PUSH0 DUP1 REVERT JUMPDEST CALLDATASIZE PUSH2 0x8E JUMPI STOP JUMPDEST PUSH0 DUP1 REVERT JUMPDEST CALLVALUE DUP1 ISZERO PUSH2 0x9D JUMPI PUSH0 DUP1 REVERT JUMPDEST POP PUSH2 0xC2 PUSH2 0xAC CALLDATASIZE PUSH1 0x4 PUSH2 0x7DB JUMP JUMPDEST PUSH1 0x1 PUSH1 0x1 PUSH1 0xE0 SHL SUB NOT AND PUSH4 0x2711897 PUSH1 0xE5 SHL EQ SWAP1 JUMP JUMPDEST PUSH1 0x40 MLOAD SWAP1 ISZERO ISZERO DUP2 MSTORE PUSH1 0x20 ADD JUMPDEST PUSH1 0x40 MLOAD DUP1 SWAP2 SUB SWAP1 RETURN JUMPDEST CALLVALUE DUP1 ISZERO PUSH2 0xE2 JUMPI PUSH0 DUP1 REVERT JUMPDEST POP PUSH2 0x10B PUSH2 0xF1 CALLDATASIZE PUSH1 0x4 PUSH2 0x824 JUMP JUMPDEST PUSH1 0x1 PUSH1 0x1 PUSH1 0xA0 SHL SUB AND PUSH0 SWAP1 DUP2 MSTORE PUSH1 0x20 DUP2 SWAP1 MSTORE PUSH1 0x40 SWAP1 KECCAK256 SLOAD SWAP1 JUMP JUMPDEST PUSH1 0x40 MLOAD SWAP1 DUP2 MSTORE PUSH1 0x20 ADD PUSH2 0xCE JUMP JUMPDEST CALLVALUE DUP1 ISZERO PUSH2 0x124 JUMPI PUSH0 DUP1 REVERT JUMPDEST POP PUSH2 0x10B PUSH2 0x133 CALLDATASIZE PUSH1 0x4 PUSH2 0x824 JUMP JUMPDEST PUSH0 PUSH1 0x20 DUP2 SWAP1 MSTORE SWAP1 DUP2 MSTORE PUSH1 0x40 SWAP1 KECCAK256 SLOAD DUP2 JUMP JUMPDEST CALLVALUE DUP1 ISZERO PUSH2 0x14F JUMPI PUSH0 DUP1 REVERT JUMPDEST POP PUSH32 0x0 JUMPDEST PUSH1 0x40 MLOAD PUSH1 0x1 PUSH1 0x1 PUSH1 0xA0 SHL SUB SWAP1 SWAP2 AND DUP2 MSTORE PUSH1 0x20 ADD PUSH2 0xCE JUMP JUMPDEST PUSH2 0x19D PUSH2 0x198 CALLDATASIZE PUSH1 0x4 PUSH2 0x885 JUMP JUMPDEST PUSH2 0x270 JUMP JUMPDEST PUSH1 0x40 MLOAD PUSH2 0xCE SWAP2 SWAP1 PUSH2 0x907 JUMP JUMPDEST CALLVALUE DUP1 ISZERO PUSH2 0x1B5 JUMPI PUSH0 DUP1 REVERT JUMPDEST POP PUSH2 0x172 PUSH32 0x0 DUP2 JUMP JUMPDEST PUSH2 0x1F0 PUSH2 0x1EB CALLDATASIZE PUSH1 0x4 PUSH2 0x9A7 JUMP JUMPDEST PUSH2 0x637 JUMP JUMPDEST PUSH1 0x40 MLOAD PUSH2 0xCE SWAP2 SWAP1 PUSH2 0x9FD JUMP JUMPDEST CALLVALUE DUP1 ISZERO PUSH2 0x208 JUMPI PUSH0 DUP1 REVERT JUMPDEST POP PUSH2 0x22B PUSH2 0x217 CALLDATASIZE PUSH1 0x4 PUSH2 0xA0F JUMP JUMPDEST PUSH4 0xBC197C81 PUSH1 0xE0 SHL SWAP9 SWAP8 POP POP POP POP POP POP POP POP JUMP JUMPDEST PUSH1 0x40 MLOAD PUSH1 0x1 PUSH1 0x1 PUSH1 0xE0 SHL SUB NOT SWAP1 SWAP2 AND DUP2 MSTORE PUSH1 0x20 ADD PUSH2 0xCE JUMP JUMPDEST CALLVALUE DUP1 ISZERO PUSH2 0x24F JUMPI PUSH0 DUP1 REVERT JUMPDEST POP PUSH2 0x22B PUSH2 0x25E CALLDATASIZE PUSH1 0x4 PUSH2 0xAC2 JUMP JUMPDEST PUSH4 0xF23A6E61 PUSH1 0xE0 SHL SWAP7 SWAP6 POP POP POP POP POP POP JUMP JUMPDEST PUSH1 0x60 CALLER PUSH1 0x1 PUSH1 0x1 PUSH1 0xA0 SHL SUB PUSH32 0x0 AND EQ PUSH2 0x2DC JUMPI PUSH1 0x40 MLOAD PUSH3 0x461BCD PUSH1 0xE5 SHL DUP2 MSTORE PUSH1 0x20 PUSH1 0x4 DUP3 ADD MSTORE PUSH1 0xA PUSH1 0x24 DUP3 ADD MSTORE PUSH10 0x27B7363C9037BBB732B9 PUSH1 0xB1 SHL PUSH1 0x44 DUP3 ADD MSTORE PUSH1 0x64 ADD JUMPDEST PUSH1 0x40 MLOAD DUP1 SWAP2 SUB SWAP1 REVERT JUMPDEST PUSH0 DUP3 PUSH8 0xFFFFFFFFFFFFFFFF DUP2 GT ISZERO PUSH2 0x2F6 JUMPI PUSH2 0x2F6 PUSH2 0xB35 JUMP JUMPDEST PUSH1 0x40 MLOAD SWAP1 DUP1 DUP3 MSTORE DUP1 PUSH1 0x20 MUL PUSH1 0x20 ADD DUP3 ADD PUSH1 0x40 MSTORE DUP1 ISZERO PUSH2 0x329 JUMPI DUP2 PUSH1 0x20 ADD JUMPDEST PUSH1 0x60 DUP2 MSTORE PUSH1 0x20 ADD SWAP1 PUSH1 0x1 SWAP1 SUB SWAP1 DUP2 PUSH2 0x314 JUMPI SWAP1 POP JUMPDEST POP SWAP1 POP PUSH0 JUMPDEST DUP4 DUP2 LT ISZERO PUSH2 0x62F JUMPI PUSH0 DUP1 DUP7 DUP7 DUP5 DUP2 DUP2 LT PUSH2 0x34A JUMPI PUSH2 0x34A PUSH2 0xB49 JUMP JUMPDEST SWAP1 POP PUSH1 0x20 MUL DUP2 ADD SWAP1 PUSH2 0x35C SWAP2 SWAP1 PUSH2 0xB5D JUMP JUMPDEST PUSH2 0x36A SWAP1 PUSH1 0x20 DUP2 ADD SWAP1 PUSH2 0x824 JUMP JUMPDEST PUSH1 0x1 PUSH1 0x1 PUSH1 0xA0 SHL SUB AND DUP8 DUP8 DUP6 DUP2 DUP2 LT PUSH2 0x385 JUMPI PUSH2 0x385 PUSH2 0xB49 JUMP JUMPDEST SWAP1 POP PUSH1 0x20 MUL DUP2 ADD SWAP1 PUSH2 0x397 SWAP2 SWAP1 PUSH2 0xB5D JUMP JUMPDEST PUSH1 0x40 ADD CALLDATALOAD DUP9 DUP9 DUP7 DUP2 DUP2 LT PUSH2 0x3AD JUMPI PUSH2 0x3AD PUSH2 0xB49 JUMP JUMPDEST SWAP1 POP PUSH1 0x20 MUL DUP2 ADD SWAP1 PUSH2 0x3BF SWAP2 SWAP1 PUSH2 0xB5D JUMP JUMPDEST PUSH2 0x3CD SWAP1 PUSH1 0x20 DUP2 ADD SWAP1 PUSH2 0xB7B JUMP JUMPDEST PUSH1 0x40 MLOAD PUSH2 0x3DB SWAP3 SWAP2 SWAP1 PUSH2 0xBBE JUMP JUMPDEST PUSH0 PUSH1 0x40 MLOAD DUP1 DUP4 SUB DUP2 DUP6 DUP8 GAS CALL SWAP3 POP POP POP RETURNDATASIZE DUP1 PUSH0 DUP2 EQ PUSH2 0x415 JUMPI PUSH1 0x40 MLOAD SWAP2 POP PUSH1 0x1F NOT PUSH1 0x3F RETURNDATASIZE ADD AND DUP3 ADD PUSH1 0x40 MSTORE RETURNDATASIZE DUP3 MSTORE RETURNDATASIZE PUSH0 PUSH1 0x20 DUP5 ADD RETURNDATACOPY PUSH2 0x41A JUMP JUMPDEST PUSH1 0x60 SWAP2 POP JUMPDEST POP SWAP2 POP SWAP2 POP DUP2 ISZERO PUSH2 0x517 JUMPI DUP7 DUP7 DUP5 DUP2 DUP2 LT PUSH2 0x437 JUMPI PUSH2 0x437 PUSH2 0xB49 JUMP JUMPDEST SWAP1 POP PUSH1 0x20 MUL DUP2 ADD SWAP1 PUSH2 0x449 SWAP2 SWAP1 PUSH2 0xB5D JUMP JUMPDEST PUSH2 0x457 SWAP1 PUSH1 0x20 DUP2 ADD SWAP1 PUSH2 0x824 JUMP JUMPDEST PUSH1 0x1 PUSH1 0x1 PUSH1 0xA0 SHL SUB AND PUSH32 0xF4800C13CE03D6B46BE439E64C27067EBB2921FDA2EFF0DAA77E8E3BAE518A30 DUP9 DUP9 DUP7 DUP2 DUP2 LT PUSH2 0x493 JUMPI PUSH2 0x493 PUSH2 0xB49 JUMP JUMPDEST SWAP1 POP PUSH1 0x20 MUL DUP2 ADD SWAP1 PUSH2 0x4A5 SWAP2 SWAP1 PUSH2 0xB5D JUMP JUMPDEST PUSH1 0x40 ADD CALLDATALOAD DUP10 DUP10 DUP8 DUP2 DUP2 LT PUSH2 0x4BB JUMPI PUSH2 0x4BB PUSH2 0xB49 JUMP JUMPDEST SWAP1 POP PUSH1 0x20 MUL DUP2 ADD SWAP1 PUSH2 0x4CD SWAP2 SWAP1 PUSH2 0xB5D JUMP JUMPDEST PUSH2 0x4DB SWAP1 PUSH1 0x20 DUP2 ADD SWAP1 PUSH2 0xB7B JUMP JUMPDEST DUP6 PUSH1 0x40 MLOAD PUSH2 0x4EC SWAP5 SWAP4 SWAP3 SWAP2 SWAP1 PUSH2 0xBF5 JUMP JUMPDEST PUSH1 0x40 MLOAD DUP1 SWAP2 SUB SWAP1 LOG2 DUP1 DUP5 DUP5 DUP2 MLOAD DUP2 LT PUSH2 0x507 JUMPI PUSH2 0x507 PUSH2 0xB49 JUMP JUMPDEST PUSH1 0x20 MUL PUSH1 0x20 ADD ADD DUP2 SWAP1 MSTORE POP PUSH2 0x625 JUMP JUMPDEST DUP7 DUP7 DUP5 DUP2 DUP2 LT PUSH2 0x529 JUMPI PUSH2 0x529 PUSH2 0xB49 JUMP JUMPDEST SWAP1 POP PUSH1 0x20 MUL DUP2 ADD SWAP1 PUSH2 0x53B SWAP2 SWAP1 PUSH2 0xB5D JUMP JUMPDEST PUSH2 0x549 SWAP1 PUSH1 0x20 DUP2 ADD SWAP1 PUSH2 0x824 JUMP JUMPDEST PUSH1 0x1 PUSH1 0x1 PUSH1 0xA0 SHL SUB AND PUSH32 0x8D1ECF04E6462600E647FEC505DA5FB931C5D7E2C8171DF5F6629BEAB50EC07F DUP9 DUP9 DUP7 DUP2 DUP2 LT PUSH2 0x585 JUMPI PUSH2 0x585 PUSH2 0xB49 JUMP JUMPDEST SWAP1 POP PUSH1 0x20 MUL DUP2 ADD SWAP1 PUSH2 0x597 SWAP2 SWAP1 PUSH2 0xB5D JUMP JUMPDEST PUSH1 0x40 ADD CALLDATALOAD DUP10 DUP10 DUP8 DUP2 DUP2 LT PUSH2 0x5AD JUMPI PUSH2 0x5AD PUSH2 0xB49 JUMP JUMPDEST SWAP1 POP PUSH1 0x20 MUL DUP2 ADD SWAP1 PUSH2 0x5BF SWAP2 SWAP1 PUSH2 0xB5D JUMP JUMPDEST PUSH2 0x5CD SWAP1 PUSH1 0x20 DUP2 ADD SWAP1 PUSH2 0xB7B JUMP JUMPDEST PUSH1 0x40 MLOAD PUSH2 0x5DC SWAP4 SWAP3 SWAP2 SWAP1 PUSH2 0xC2B JUMP JUMPDEST PUSH1 0x40 MLOAD DUP1 SWAP2 SUB SWAP1 LOG2 PUSH1 0x40 MLOAD PUSH3 0x461BCD PUSH1 0xE5 SHL DUP2 MSTORE PUSH1 0x20 PUSH1 0x4 DUP3 ADD MSTORE PUSH1 0x16 PUSH1 0x24 DUP3 ADD MSTORE PUSH22 0x10985D18DA08195E1958DD5D1A5BDB8819985A5B1959 PUSH1 0x52 SHL PUSH1 0x44 DUP3 ADD MSTORE PUSH1 0x64 ADD PUSH2 0x2D3 JUMP JUMPDEST POP POP PUSH1 0x1 ADD PUSH2 0x32E JUMP JUMPDEST POP SWAP4 SWAP3 POP POP POP JUMP JUMPDEST PUSH1 0x60 CALLER PUSH1 0x1 PUSH1 0x1 PUSH1 0xA0 SHL SUB PUSH32 0x0 AND EQ PUSH2 0x69E JUMPI PUSH1 0x40 MLOAD PUSH3 0x461BCD PUSH1 0xE5 SHL DUP2 MSTORE PUSH1 0x20 PUSH1 0x4 DUP3 ADD MSTORE PUSH1 0xA PUSH1 0x24 DUP3 ADD MSTORE PUSH10 0x27B7363C9037BBB732B9 PUSH1 0xB1 SHL PUSH1 0x44 DUP3 ADD MSTORE PUSH1 0x64 ADD PUSH2 0x2D3 JUMP JUMPDEST PUSH0 DUP1 DUP7 PUSH1 0x1 PUSH1 0x1 PUSH1 0xA0 SHL SUB AND DUP5 DUP8 DUP8 PUSH1 0x40 MLOAD PUSH2 0x6BB SWAP3 SWAP2 SWAP1 PUSH2 0xBBE JUMP JUMPDEST PUSH0 PUSH1 0x40 MLOAD DUP1 DUP4 SUB DUP2 DUP6 DUP8 GAS CALL SWAP3 POP POP POP RETURNDATASIZE DUP1 PUSH0 DUP2 EQ PUSH2 0x6F5 JUMPI PUSH1 0x40 MLOAD SWAP2 POP PUSH1 0x1F NOT PUSH1 0x3F RETURNDATASIZE ADD AND DUP3 ADD PUSH1 0x40 MSTORE RETURNDATASIZE DUP3 MSTORE RETURNDATASIZE PUSH0 PUSH1 0x20 DUP5 ADD RETURNDATACOPY PUSH2 0x6FA JUMP JUMPDEST PUSH1 0x60 SWAP2 POP JUMPDEST POP SWAP2 POP SWAP2 POP DUP2 ISZERO PUSH2 0x751 JUMPI DUP7 PUSH1 0x1 PUSH1 0x1 PUSH1 0xA0 SHL SUB AND PUSH32 0xF4800C13CE03D6B46BE439E64C27067EBB2921FDA2EFF0DAA77E8E3BAE518A30 DUP6 DUP9 DUP9 DUP6 PUSH1 0x40 MLOAD PUSH2 0x744 SWAP5 SWAP4 SWAP3 SWAP2 SWAP1 PUSH2 0xBF5 JUMP JUMPDEST PUSH1 0x40 MLOAD DUP1 SWAP2 SUB SWAP1 LOG2 PUSH2 0x7D1 JUMP JUMPDEST DUP7 PUSH1 0x1 PUSH1 0x1 PUSH1 0xA0 SHL SUB AND PUSH32 0x8D1ECF04E6462600E647FEC505DA5FB931C5D7E2C8171DF5F6629BEAB50EC07F DUP6 DUP9 DUP9 PUSH1 0x40 MLOAD PUSH2 0x78E SWAP4 SWAP3 SWAP2 SWAP1 PUSH2 0xC2B JUMP JUMPDEST PUSH1 0x40 MLOAD DUP1 SWAP2 SUB SWAP1 LOG2 PUSH1 0x40 MLOAD PUSH3 0x461BCD PUSH1 0xE5 SHL DUP2 MSTORE PUSH1 0x20 PUSH1 0x4 DUP3 ADD MSTORE PUSH1 0x10 PUSH1 0x24 DUP3 ADD MSTORE PUSH16 0x115E1958DD5D1A5BDB8819985A5B1959 PUSH1 0x82 SHL PUSH1 0x44 DUP3 ADD MSTORE PUSH1 0x64 ADD PUSH2 0x2D3 JUMP JUMPDEST SWAP7 SWAP6 POP POP POP POP POP POP JUMP JUMPDEST PUSH0 PUSH1 0x20 DUP3 DUP5 SUB SLT ISZERO PUSH2 0x7EB JUMPI PUSH0 DUP1 REVERT JUMPDEST DUP2 CALLDATALOAD PUSH1 0x1 PUSH1 0x1 PUSH1 0xE0 SHL SUB NOT DUP2 AND DUP2 EQ PUSH2 0x802 JUMPI PUSH0 DUP1 REVERT JUMPDEST SWAP4 SWAP3 POP POP POP JUMP JUMPDEST DUP1 CALLDATALOAD PUSH1 0x1 PUSH1 0x1 PUSH1 0xA0 SHL SUB DUP2 AND DUP2 EQ PUSH2 0x81F JUMPI PUSH0 DUP1 REVERT JUMPDEST SWAP2 SWAP1 POP JUMP JUMPDEST PUSH0 PUSH1 0x20 DUP3 DUP5 SUB SLT ISZERO PUSH2 0x834 JUMPI PUSH0 DUP1 REVERT JUMPDEST PUSH2 0x802 DUP3 PUSH2 0x809 JUMP JUMPDEST PUSH0 DUP1 DUP4 PUSH1 0x1F DUP5 ADD SLT PUSH2 0x84D JUMPI PUSH0 DUP1 REVERT JUMPDEST POP DUP2 CALLDATALOAD PUSH8 0xFFFFFFFFFFFFFFFF DUP2 GT ISZERO PUSH2 0x864 JUMPI PUSH0 DUP1 REVERT JUMPDEST PUSH1 0x20 DUP4 ADD SWAP2 POP DUP4 PUSH1 0x20 DUP3 PUSH1 0x5 SHL DUP6 ADD ADD GT ISZERO PUSH2 0x87E JUMPI PUSH0 DUP1 REVERT JUMPDEST SWAP3 POP SWAP3 SWAP1 POP JUMP JUMPDEST PUSH0 DUP1 PUSH1 0x20 DUP4 DUP6 SUB SLT ISZERO PUSH2 0x896 JUMPI PUSH0 DUP1 REVERT JUMPDEST DUP3 CALLDATALOAD PUSH8 0xFFFFFFFFFFFFFFFF DUP2 GT ISZERO PUSH2 0x8AC JUMPI PUSH0 DUP1 REVERT JUMPDEST PUSH2 0x8B8 DUP6 DUP3 DUP7 ADD PUSH2 0x83D JUMP JUMPDEST SWAP1 SWAP7 SWAP1 SWAP6 POP SWAP4 POP POP POP POP JUMP JUMPDEST PUSH0 DUP2 MLOAD DUP1 DUP5 MSTORE PUSH0 JUMPDEST DUP2 DUP2 LT ISZERO PUSH2 0x8E8 JUMPI PUSH1 0x20 DUP2 DUP6 ADD DUP2 ADD MLOAD DUP7 DUP4 ADD DUP3 ADD MSTORE ADD PUSH2 0x8CC JUMP JUMPDEST POP PUSH0 PUSH1 0x20 DUP3 DUP7 ADD ADD MSTORE PUSH1 0x20 PUSH1 0x1F NOT PUSH1 0x1F DUP4 ADD AND DUP6 ADD ADD SWAP2 POP POP SWAP3 SWAP2 POP POP JUMP JUMPDEST PUSH0 PUSH1 0x20 DUP1 DUP4 ADD PUSH1 0x20 DUP5 MSTORE DUP1 DUP6 MLOAD DUP1 DUP4 MSTORE PUSH1 0x40 DUP7 ADD SWAP2 POP PUSH1 0x40 DUP2 PUSH1 0x5 SHL DUP8 ADD ADD SWAP3 POP PUSH1 0x20 DUP8 ADD PUSH0 JUMPDEST DUP3 DUP2 LT ISZERO PUSH2 0x95C JUMPI PUSH1 0x3F NOT DUP9 DUP7 SUB ADD DUP5 MSTORE PUSH2 0x94A DUP6 DUP4 MLOAD PUSH2 0x8C4 JUMP JUMPDEST SWAP5 POP SWAP3 DUP6 ADD SWAP3 SWAP1 DUP6 ADD SWAP1 PUSH1 0x1 ADD PUSH2 0x92E JUMP JUMPDEST POP SWAP3 SWAP8 SWAP7 POP POP POP POP POP POP POP JUMP JUMPDEST PUSH0 DUP1 DUP4 PUSH1 0x1F DUP5 ADD SLT PUSH2 0x979 JUMPI PUSH0 DUP1 REVERT JUMPDEST POP DUP2 CALLDATALOAD PUSH8 0xFFFFFFFFFFFFFFFF DUP2 GT ISZERO PUSH2 0x990 JUMPI PUSH0 DUP1 REVERT JUMPDEST PUSH1 0x20 DUP4 ADD SWAP2 POP DUP4 PUSH1 0x20 DUP3 DUP6 ADD ADD GT ISZERO PUSH2 0x87E JUMPI PUSH0 DUP1 REVERT JUMPDEST PUSH0 DUP1 PUSH0 DUP1 PUSH1 0x60 DUP6 DUP8 SUB SLT ISZERO PUSH2 0x9BA JUMPI PUSH0 DUP1 REVERT JUMPDEST PUSH2 0x9C3 DUP6 PUSH2 0x809 JUMP JUMPDEST SWAP4 POP PUSH1 0x20 DUP6 ADD CALLDATALOAD PUSH8 0xFFFFFFFFFFFFFFFF DUP2 GT ISZERO PUSH2 0x9DE JUMPI PUSH0 DUP1 REVERT JUMPDEST PUSH2 0x9EA DUP8 DUP3 DUP9 ADD PUSH2 0x969 JUMP JUMPDEST SWAP6 SWAP9 SWAP1 SWAP8 POP SWAP5 SWAP6 PUSH1 0x40 ADD CALLDATALOAD SWAP5 SWAP4 POP POP POP POP JUMP JUMPDEST PUSH1 0x20 DUP2 MSTORE PUSH0 PUSH2 0x802 PUSH1 0x20 DUP4 ADD DUP5 PUSH2 0x8C4 JUMP JUMPDEST PUSH0 DUP1 PUSH0 DUP1 PUSH0 DUP1 PUSH0 DUP1 PUSH1 0xA0 DUP10 DUP12 SUB SLT ISZERO PUSH2 0xA26 JUMPI PUSH0 DUP1 REVERT JUMPDEST PUSH2 0xA2F DUP10 PUSH2 0x809 JUMP JUMPDEST SWAP8 POP PUSH2 0xA3D PUSH1 0x20 DUP11 ADD PUSH2 0x809 JUMP JUMPDEST SWAP7 POP PUSH1 0x40 DUP10 ADD CALLDATALOAD PUSH8 0xFFFFFFFFFFFFFFFF DUP1 DUP3 GT ISZERO PUSH2 0xA59 JUMPI PUSH0 DUP1 REVERT JUMPDEST PUSH2 0xA65 DUP13 DUP4 DUP14 ADD PUSH2 0x83D JUMP JUMPDEST SWAP1 SWAP9 POP SWAP7 POP PUSH1 0x60 DUP12 ADD CALLDATALOAD SWAP2 POP DUP1 DUP3 GT ISZERO PUSH2 0xA7D JUMPI PUSH0 DUP1 REVERT JUMPDEST PUSH2 0xA89 DUP13 DUP4 DUP14 ADD PUSH2 0x83D JUMP JUMPDEST SWAP1 SWAP7 POP SWAP5 POP PUSH1 0x80 DUP12 ADD CALLDATALOAD SWAP2 POP DUP1 DUP3 GT ISZERO PUSH2 0xAA1 JUMPI PUSH0 DUP1 REVERT JUMPDEST POP PUSH2 0xAAE DUP12 DUP3 DUP13 ADD PUSH2 0x969 JUMP JUMPDEST SWAP10 SWAP13 SWAP9 SWAP12 POP SWAP7 SWAP10 POP SWAP5 SWAP8 SWAP4 SWAP7 SWAP3 SWAP6 SWAP5 POP POP POP JUMP JUMPDEST PUSH0 DUP1 PUSH0 DUP1 PUSH0 DUP1 PUSH1 0xA0 DUP8 DUP10 SUB SLT ISZERO PUSH2 0xAD7 JUMPI PUSH0 DUP1 REVERT JUMPDEST PUSH2 0xAE0 DUP8 PUSH2 0x809 JUMP JUMPDEST SWAP6 POP PUSH2 0xAEE PUSH1 0x20 DUP9 ADD PUSH2 0x809 JUMP JUMPDEST SWAP5 POP PUSH1 0x40 DUP8 ADD CALLDATALOAD SWAP4 POP PUSH1 0x60 DUP8 ADD CALLDATALOAD SWAP3 POP PUSH1 0x80 DUP8 ADD CALLDATALOAD PUSH8 0xFFFFFFFFFFFFFFFF DUP2 GT ISZERO PUSH2 0xB17 JUMPI PUSH0 DUP1 REVERT JUMPDEST PUSH2 0xB23 DUP10 DUP3 DUP11 ADD PUSH2 0x969 JUMP JUMPDEST SWAP8 SWAP11 SWAP7 SWAP10 POP SWAP5 SWAP8 POP SWAP3 SWAP6 SWAP4 SWAP5 SWAP3 POP POP POP JUMP JUMPDEST PUSH4 0x4E487B71 PUSH1 0xE0 SHL PUSH0 MSTORE PUSH1 0x41 PUSH1 0x4 MSTORE PUSH1 0x24 PUSH0 REVERT JUMPDEST PUSH4 0x4E487B71 PUSH1 0xE0 SHL PUSH0 MSTORE PUSH1 0x32 PUSH1 0x4 MSTORE PUSH1 0x24 PUSH0 REVERT JUMPDEST PUSH0 DUP3 CALLDATALOAD PUSH1 0x5E NOT DUP4 CALLDATASIZE SUB ADD DUP2 SLT PUSH2 0xB71 JUMPI PUSH0 DUP1 REVERT JUMPDEST SWAP2 SWAP1 SWAP2 ADD SWAP3 SWAP2 POP POP JUMP JUMPDEST PUSH0 DUP1 DUP4 CALLDATALOAD PUSH1 0x1E NOT DUP5 CALLDATASIZE SUB ADD DUP2 SLT PUSH2 0xB90 JUMPI PUSH0 DUP1 REVERT JUMPDEST DUP4 ADD DUP1 CALLDATALOAD SWAP2 POP PUSH8 0xFFFFFFFFFFFFFFFF DUP3 GT ISZERO PUSH2 0xBAA JUMPI PUSH0 DUP1 REVERT JUMPDEST PUSH1 0x20 ADD SWAP2 POP CALLDATASIZE DUP2 SWAP1 SUB DUP3 SGT ISZERO PUSH2 0x87E JUMPI PUSH0 DUP1 REVERT JUMPDEST DUP2 DUP4 DUP3 CALLDATACOPY PUSH0 SWAP2 ADD SWAP1 DUP2 MSTORE SWAP2 SWAP1 POP JUMP JUMPDEST DUP2 DUP4 MSTORE DUP2 DUP2 PUSH1 0x20 DUP6 ADD CALLDATACOPY POP PUSH0 DUP3 DUP3 ADD PUSH1 0x20 SWAP1 DUP2 ADD SWAP2 SWAP1 SWAP2 MSTORE PUSH1 0x1F SWAP1 SWAP2 ADD PUSH1 0x1F NOT AND SWAP1 SWAP2 ADD ADD SWAP1 JUMP JUMPDEST DUP5 DUP2 MSTORE PUSH1 0x60 PUSH1 0x20 DUP3 ADD MSTORE PUSH0 PUSH2 0xC0E PUSH1 0x60 DUP4 ADD DUP6 DUP8 PUSH2 0xBCD JUMP JUMPDEST DUP3 DUP2 SUB PUSH1 0x40 DUP5 ADD MSTORE PUSH2 0xC20 DUP2 DUP6 PUSH2 0x8C4 JUMP JUMPDEST SWAP8 SWAP7 POP POP POP POP POP POP POP JUMP JUMPDEST DUP4 DUP2 MSTORE PUSH1 0x40 PUSH1 0x20 DUP3 ADD MSTORE PUSH0 PUSH2 0xC44 PUSH1 0x40 DUP4 ADD DUP5 DUP7 PUSH2 0xBCD JUMP JUMPDEST SWAP6 SWAP5 POP POP POP POP POP JUMP INVALID LOG2 PUSH5 0x6970667358 0x22 SLT KECCAK256 0xE2 COINBASE EXP 0xB2 0xBD 0xB9 SAR SMOD 0xDC MUL 0xC PUSH9 0x45B5598FD3532668CA GASPRICE DUP13 EXTCODECOPY JUMPDEST CREATE2 0xA8 PUSH4 0xDD9A9D2C PUSH5 0x736F6C6343 STOP ADDMOD XOR STOP CALLER LOG2 PUSH5 0x6970667358 0x22 SLT KECCAK256 GASPRICE PUSH3 0xFD3CE7 BLOBBASEFEE DELEGATECALL 0xEB CODECOPY ISZERO 0xBD 0xE3 0xC3 0xB0 0xF8 0xA8 CODESIZE PUSH26 0xD1330CC1FF34B859EEAD0267406F64736F6C6343000818003300 "},"methodIdentifiers":{"getImplementation()":"aaf10f42","getInstanceAddress(address,address)":"dfb17f48","implementation()":"5c60da1b","maybeMakeWallet(address,address,address)":"5b03e04b","owner()":"8da5cb5b","proxy((address,bytes,uint256)[])":"6d5fa22a","renounceOwnership()":"715018a6","setImplementation(address)":"d784d426","transferOwnership(address)":"f2fde38b"}}}}}