{"project/contracts/CTFExchange.sol":{"CTFExchange":{"abi":[{"inputs":[{"internalType":"address","name":"_collateral","type":"address"},{"internalType":"address","name":"_ctf","type":"address"},{"internalType":"address","name":"_proxyFactory","type":"address"},{"internalType":"address","name":"","type":"address"}],"stateMutability":"nonpayable","type":"constructor"},{"inputs":[],"name":"AccessControlBadConfirmation","type":"error"},{"inputs":[{"internalType":"address","name":"account","type":"address"},{"internalType":"bytes32","name":"neededRole","type":"bytes32"}],"name":"AccessControlUnauthorizedAccount","type":"error"},{"anonymous":false,"inputs":[{"indexed":true,"internalType":"bytes32","name":"orderHash","type":"bytes32"},{"indexed":true,"internalType":"address","name":"maker","type":"address"},{"indexed":true,"internalType":"address","name":"taker","type":"address"},{"indexed":false,"internalType":"uint256","name":"makerAssetId","type":"uint256"},{"indexed":false,"internalType":"uint256","name":"takerAssetId","type":"uint256"},{"indexed":false,"internalType":"uint256","name":"makerAmountFilled","type":"uint256"},{"indexed":false,"internalType":"uint256","name":"takerAmountFilled","type":"uint256"},{"indexed":false,"internalType":"uint256","name":"fee","type":"uint256"}],"name":"OrderFilled","type":"event"},{"anonymous":false,"inputs":[{"indexed":true,"internalType":"bytes32","name":"takerOrderHash","type":"bytes32"},{"indexed":false,"internalType":"bytes32[]","name":"makerOrderHashes","type":"bytes32[]"},{"indexed":false,"internalType":"uint256","name":"takerFilled","type":"uint256"},{"indexed":false,"internalType":"uint256[]","name":"makerFilled","type":"uint256[]"}],"name":"OrdersMatched","type":"event"},{"anonymous":false,"inputs":[{"indexed":true,"internalType":"bytes32","name":"role","type":"bytes32"},{"indexed":true,"internalType":"bytes32","name":"previousAdminRole","type":"bytes32"},{"indexed":true,"internalType":"bytes32","name":"newAdminRole","type":"bytes32"}],"name":"RoleAdminChanged","type":"event"},{"anonymous":false,"inputs":[{"indexed":true,"internalType":"bytes32","name":"role","type":"bytes32"},{"indexed":true,"internalType":"address","name":"account","type":"address"},{"indexed":true,"internalType":"address","name":"sender","type":"address"}],"name":"RoleGranted","type":"event"},{"anonymous":false,"inputs":[{"indexed":true,"internalType":"bytes32","name":"role","type":"bytes32"},{"indexed":true,"internalType":"address","name":"account","type":"address"},{"indexed":true,"internalType":"address","name":"sender","type":"address"}],"name":"RoleRevoked","type":"event"},{"anonymous":false,"inputs":[{"indexed":true,"internalType":"uint256","name":"token0","type":"uint256"},{"indexed":true,"internalType":"uint256","name":"token1","type":"uint256"},{"indexed":true,"internalType":"bytes32","name":"conditionId","type":"bytes32"}],"name":"TokenRegistered","type":"event"},{"anonymous":false,"inputs":[],"name":"TradingPaused","type":"event"},{"anonymous":false,"inputs":[],"name":"TradingUnpaused","type":"event"},{"inputs":[],"name":"DEFAULT_ADMIN_ROLE","outputs":[{"internalType":"bytes32","name":"","type":"bytes32"}],"stateMutability":"view","type":"function"},{"inputs":[],"name":"OPERATOR_ROLE","outputs":[{"internalType":"bytes32","name":"","type":"bytes32"}],"stateMutability":"view","type":"function"},{"inputs":[],"name":"collateral","outputs":[{"internalType":"contract IERC20","name":"","type":"address"}],"stateMutability":"view","type":"function"},{"inputs":[{"internalType":"uint256","name":"","type":"uint256"}],"name":"complements","outputs":[{"internalType":"uint256","name":"","type":"uint256"}],"stateMutability":"view","type":"function"},{"inputs":[{"internalType":"uint256","name":"","type":"uint256"}],"name":"conditionIds","outputs":[{"internalType":"bytes32","name":"","type":"bytes32"}],"stateMutability":"view","type":"function"},{"inputs":[],"name":"ctf","outputs":[{"internalType":"contract IERC1155","name":"","type":"address"}],"stateMutability":"view","type":"function"},{"inputs":[{"components":[{"internalType":"address","name":"maker","type":"address"},{"internalType":"address","name":"makerAsset","type":"address"},{"internalType":"address","name":"takerAsset","type":"address"},{"internalType":"uint256","name":"makerAmount","type":"uint256"},{"internalType":"uint256","name":"takerAmount","type":"uint256"},{"internalType":"uint256","name":"salt","type":"uint256"},{"internalType":"uint256","name":"expiry","type":"uint256"},{"internalType":"uint8","name":"side","type":"uint8"},{"internalType":"bytes","name":"signature","type":"bytes"}],"internalType":"struct CTFExchange.Order","name":"order","type":"tuple"},{"internalType":"uint256","name":"fillAmount","type":"uint256"}],"name":"fillOrder","outputs":[],"stateMutability":"nonpayable","type":"function"},{"inputs":[{"components":[{"internalType":"address","name":"maker","type":"address"},{"internalType":"address","name":"makerAsset","type":"address"},{"internalType":"address","name":"takerAsset","type":"address"},{"internalType":"uint256","name":"makerAmount","type":"uint256"},{"internalType":"uint256","name":"takerAmount","type":"uint256"},{"internalType":"uint256","name":"salt","type":"uint256"},{"internalType":"uint256","name":"expiry","type":"uint256"},{"internalType":"uint8","name":"side","type":"uint8"},{"internalType":"bytes","name":"signature","type":"bytes"}],"internalType":"struct CTFExchange.Order[]","name":"orders","type":"tuple[]"},{"internalType":"uint256[]","name":"fillAmounts","type":"uint256[]"}],"name":"fillOrders","outputs":[],"stateMutability":"nonpayable","type":"function"},{"inputs":[{"internalType":"bytes32","name":"","type":"bytes32"}],"name":"filledOrders","outputs":[{"internalType":"bool","name":"","type":"bool"}],"stateMutability":"view","type":"function"},{"inputs":[],"name":"getCollateral","outputs":[{"internalType":"address","name":"","type":"address"}],"stateMutability":"view","type":"function"},{"inputs":[{"internalType":"uint256","name":"token","type":"uint256"}],"name":"getComplement","outputs":[{"internalType":"uint256","name":"","type":"uint256"}],"stateMutability":"view","type":"function"},{"inputs":[{"internalType":"uint256","name":"token","type":"uint256"}],"name":"getConditionId","outputs":[{"internalType":"bytes32","name":"","type":"bytes32"}],"stateMutability":"view","type":"function"},{"inputs":[],"name":"getCtf","outputs":[{"internalType":"address","name":"","type":"address"}],"stateMutability":"view","type":"function"},{"inputs":[{"internalType":"bytes32","name":"orderHash","type":"bytes32"}],"name":"getOrderStatus","outputs":[{"internalType":"uint256","name":"","type":"uint256"}],"stateMutability":"view","type":"function"},{"inputs":[],"name":"getProxyFactory","outputs":[{"internalType":"address","name":"","type":"address"}],"stateMutability":"view","type":"function"},{"inputs":[{"internalType":"bytes32","name":"role","type":"bytes32"}],"name":"getRoleAdmin","outputs":[{"internalType":"bytes32","name":"","type":"bytes32"}],"stateMutability":"view","type":"function"},{"inputs":[],"name":"getSafeFactory","outputs":[{"internalType":"address","name":"","type":"address"}],"stateMutability":"pure","type":"function"},{"inputs":[{"internalType":"bytes32","name":"role","type":"bytes32"},{"internalType":"address","name":"account","type":"address"}],"name":"grantRole","outputs":[],"stateMutability":"nonpayable","type":"function"},{"inputs":[{"internalType":"bytes32","name":"role","type":"bytes32"},{"internalType":"address","name":"account","type":"address"}],"name":"hasRole","outputs":[{"internalType":"bool","name":"","type":"bool"}],"stateMutability":"view","type":"function"},{"inputs":[{"components":[{"internalType":"address","name":"maker","type":"address"},{"internalType":"address","name":"makerAsset","type":"address"},{"internalType":"address","name":"takerAsset","type":"address"},{"internalType":"uint256","name":"makerAmount","type":"uint256"},{"internalType":"uint256","name":"takerAmount","type":"uint256"},{"internalType":"uint256","name":"salt","type":"uint256"},{"internalType":"uint256","name":"expiry","type":"uint256"},{"internalType":"uint8","name":"side","type":"uint8"},{"internalType":"bytes","name":"signature","type":"bytes"}],"internalType":"struct CTFExchange.Order","name":"order","type":"tuple"}],"name":"hashOrder","outputs":[{"internalType":"bytes32","name":"","type":"bytes32"}],"stateMutability":"pure","type":"function"},{"inputs":[{"internalType":"bytes32","name":"orderHash","type":"bytes32"}],"name":"isOrderFilled","outputs":[{"internalType":"bool","name":"","type":"bool"}],"stateMutability":"view","type":"function"},{"inputs":[{"components":[{"internalType":"address","name":"maker","type":"address"},{"internalType":"address","name":"makerAsset","type":"address"},{"internalType":"address","name":"takerAsset","type":"address"},{"internalType":"uint256","name":"makerAmount","type":"uint256"},{"internalType":"uint256","name":"takerAmount","type":"uint256"},{"internalType":"uint256","name":"salt","type":"uint256"},{"internalType":"uint256","name":"expiry","type":"uint256"},{"internalType":"uint8","name":"side","type":"uint8"},{"internalType":"bytes","name":"signature","type":"bytes"}],"internalType":"struct CTFExchange.Order","name":"takerOrder","type":"tuple"},{"components":[{"internalType":"address","name":"maker","type":"address"},{"internalType":"address","name":"makerAsset","type":"address"},{"internalType":"address","name":"takerAsset","type":"address"},{"internalType":"uint256","name":"makerAmount","type":"uint256"},{"internalType":"uint256","name":"takerAmount","type":"uint256"},{"internalType":"uint256","name":"salt","type":"uint256"},{"internalType":"uint256","name":"expiry","type":"uint256"},{"internalType":"uint8","name":"side","type":"uint8"},{"internalType":"bytes","name":"signature","type":"bytes"}],"internalType":"struct CTFExchange.Order[]","name":"makerOrders","type":"tuple[]"},{"internalType":"uint256","name":"takerFillAmount","type":"uint256"},{"internalType":"uint256[]","name":"makerFillAmounts","type":"uint256[]"}],"name":"matchOrders","outputs":[],"stateMutability":"nonpayable","type":"function"},{"inputs":[],"name":"pauseTrading","outputs":[],"stateMutability":"nonpayable","type":"function"},{"inputs":[],"name":"paused","outputs":[{"internalType":"bool","name":"","type":"bool"}],"stateMutability":"view","type":"function"},{"inputs":[],"name":"proxyFactory","outputs":[{"internalType":"address","name":"","type":"address"}],"stateMutability":"view","type":"function"},{"inputs":[{"internalType":"uint256","name":"token","type":"uint256"},{"internalType":"uint256","name":"complement","type":"uint256"},{"internalType":"bytes32","name":"conditionId","type":"bytes32"}],"name":"registerToken","outputs":[],"stateMutability":"nonpayable","type":"function"},{"inputs":[{"internalType":"bytes32","name":"role","type":"bytes32"},{"internalType":"address","name":"callerConfirmation","type":"address"}],"name":"renounceRole","outputs":[],"stateMutability":"nonpayable","type":"function"},{"inputs":[{"internalType":"bytes32","name":"role","type":"bytes32"},{"internalType":"address","name":"account","type":"address"}],"name":"revokeRole","outputs":[],"stateMutability":"nonpayable","type":"function"},{"inputs":[{"internalType":"address","name":"_newProxyFactory","type":"address"}],"name":"setProxyFactory","outputs":[],"stateMutability":"nonpayable","type":"function"},{"inputs":[{"internalType":"address","name":"","type":"address"}],"name":"setSafeFactory","outputs":[],"stateMutability":"nonpayable","type":"function"},{"inputs":[{"internalType":"bytes4","name":"interfaceId","type":"bytes4"}],"name":"supportsInterface","outputs":[{"internalType":"bool","name":"","type":"bool"}],"stateMutability":"view","type":"function"},{"inputs":[],"name":"unpauseTrading","outputs":[],"stateMutability":"nonpayable","type":"function"}],"evm":{"bytecode":{"linkReferences":{},"object":"60c060405234801562000010575f80fd5b50604051620013db380380620013db83398101604081905262000033916200016a565b6001600160a01b0384811660805283811660a052600180546001600160a01b0319169184169190911790556200006a5f33620000a2565b50620000977f97667070c54ef182b0f5858b034beac1b6f3089aa2d3188bb1e8929f4fa9b92933620000a2565b5050505050620001c4565b5f828152602081815260408083206001600160a01b038516845290915281205460ff1662000145575f838152602081815260408083206001600160a01b03861684529091529020805460ff19166001179055620000fc3390565b6001600160a01b0316826001600160a01b0316847f2f8788117e7eff1d82e926ec794901d17c78024a50270940304540a733656f0d60405160405180910390a450600162000148565b505f5b92915050565b80516001600160a01b038116811462000165575f80fd5b919050565b5f805f80608085870312156200017e575f80fd5b62000189856200014e565b935062000199602086016200014e565b9250620001a9604086016200014e565b9150620001b9606086016200014e565b905092959194509250565b60805160a0516111e7620001f45f395f818161023501526102c701525f818161033a015261047f01526111e75ff3fe608060405234801561000f575f80fd5b50600436106101e7575f3560e01c806373a3d97611610109578063d547741f1161009e578063ec7e08eb1161006e578063ec7e08eb146104a1578063f5b541a6146104b4578063f859ffa0146104c8578063fbddd751146104ea575f80fd5b8063d547741f14610429578063d7fb272f1461043c578063d8c55af71461045b578063d8dfeb451461047a575f80fd5b8063a217fddf116100d9578063a217fddf146103dc578063abeaae5e146103e3578063b28c51c014610405578063c10f1a7514610416575f80fd5b806373a3d9761461039157806375d7370a146103a457806391d14854146103aa578063a10f3dce146103bd575f80fd5b80634544f0551161017f5780635c1548fb1161014f5780635c1548fb146103385780635c975abb1461035e57806368c7450f1461036b5780636f1b4ad81461037e575f80fd5b80634544f055146102eb578063456068d2146102fe57806346423aa714610306578063538b6a2714610319575f80fd5b8063248a9ca3116101ba578063248a9ca31461026f5780632f2ff15d1461029f57806336568abe146102b25780633b521d78146102c5575f80fd5b806301ffc9a7146101eb5780631031e36e146102135780631bfdb6951461021d57806322a9339f14610230575b5f80fd5b6101fe6101f9366004610da6565b6104fd565b60405190151581526020015b60405180910390f35b61021b610533565b005b61021b61022b366004610e33565b610575565b6102577f000000000000000000000000000000000000000000000000000000000000000081565b6040516001600160a01b03909116815260200161020a565b61029161027d366004610eca565b5f9081526020819052604090206001015490565b60405190815260200161020a565b61021b6102ad366004610efc565b6106fa565b61021b6102c0366004610efc565b610724565b7f0000000000000000000000000000000000000000000000000000000000000000610257565b61021b6102f9366004610f26565b61075c565b61021b61076a565b610291610314366004610eca565b6107a9565b610291610327366004610eca565b60026020525f908152604090205481565b7f0000000000000000000000000000000000000000000000000000000000000000610257565b6005546101fe9060ff1681565b61021b610379366004610f3f565b6107d0565b61021b61038c366004610f68565b61083d565b61029161039f366004610fcf565b610911565b5f610257565b6101fe6103b8366004610efc565b6109e7565b6102916103cb366004610eca565b5f9081526002602052604090205490565b6102915f81565b6101fe6103f1366004610eca565b60046020525f908152604090205460ff1681565b6001546001600160a01b0316610257565b600154610257906001600160a01b031681565b61021b610437366004610efc565b610a0f565b61029161044a366004610eca565b5f9081526003602052604090205490565b610291610469366004610eca565b60036020525f908152604090205481565b6102577f000000000000000000000000000000000000000000000000000000000000000081565b61021b6104af366004611009565b610a33565b6102915f8051602061119283398151915281565b6101fe6104d6366004610eca565b5f9081526004602052604090205460ff1690565b61021b6104f8366004610f26565b610c3b565b5f6001600160e01b03198216637965db0b60e01b148061052d57506301ffc9a760e01b6001600160e01b03198316145b92915050565b5f61053d81610c68565b6005805460ff191660011790556040517f02b874a66f7edefaaca8e06ecdb0825247542b983cc7c499a3d7f1bb34e72728905f90a150565b5f8051602061119283398151915261058c81610c68565b60055460ff16156105b85760405162461bcd60e51b81526004016105af9061104b565b60405180910390fd5b5f6105c288610911565b90505f8667ffffffffffffffff8111156105de576105de611073565b604051908082528060200260200182016040528015610607578160200160208202803683370190505b5090505f5b878110156106a65761063b89898381811061062957610629611087565b905060200281019061039f919061109b565b82828151811061064d5761064d611087565b60200260200101818152505061069e89898381811061066e5761066e611087565b9050602002810190610680919061109b565b87878481811061069257610692611087565b90506020020135610a33565b60010161060c565b506106b18987610a33565b817f1274dd86d363dcf0b62a0b328a2e3c35f498f7512b66f68aa46b134bb5734919828888886040516106e794939291906110ba565b60405180910390a2505050505050505050565b5f8281526020819052604090206001015461071481610c68565b61071e8383610c75565b50505050565b6001600160a01b038116331461074d5760405163334bd91960e11b815260040160405180910390fd5b6107578282610d04565b505050565b5f61076681610c68565b5050565b5f61077481610c68565b6005805460ff191690556040517f2185a7ecc28b84536b7b3d3cf472d9215a2bc8f2302d7331cb56db0a44239f32905f90a150565b5f8181526004602052604081205460ff166107c4575f6107c7565b60015b60ff1692915050565b5f6107da81610c68565b5f8481526002602090815260408083208690558583528083208790558683526003909152808220849055848252808220849055518391859187917fbc9a2432e8aeb48327246cddd6e872ef452812b4243c04e6bfb786a2cd8faf0d91a450505050565b5f8051602061119283398151915261085481610c68565b60055460ff16156108775760405162461bcd60e51b81526004016105af9061104b565b8382146108be5760405162461bcd60e51b8152602060048201526015602482015274082e4e4c2f240d8cadccee8d040dad2e6dac2e8c6d605b1b60448201526064016105af565b5f5b84811015610909576109018686838181106108dd576108dd611087565b90506020028101906108ef919061109b565b85858481811061069257610692611087565b6001016108c0565b505050505050565b5f61091f6020830183610f26565b61092f6040840160208501610f26565b61093f6060850160408601610f26565b6060850135608086013560a087013560c08801356109646101008a0160e08b0161112f565b604051606098891b6bffffffffffffffffffffffff19908116602083015297891b881660348201529590971b9095166048850152605c840192909252607c830152609c82015260bc81019190915260f89190911b6001600160f81b03191660dc82015260dd01604051602081830303815290604052805190602001209050919050565b5f918252602082815260408084206001600160a01b0393909316845291905290205460ff1690565b5f82815260208190526040902060010154610a2981610c68565b61071e8383610d04565b5f80516020611192833981519152610a4a81610c68565b60055460ff1615610a6d5760405162461bcd60e51b81526004016105af9061104b565b5f610a7784610911565b5f8181526004602052604090205490915060ff1615610acf5760405162461bcd60e51b815260206004820152601460248201527313dc99195c88185b1c9958591e48199a5b1b195960621b60448201526064016105af565b8360c00135421115610b135760405162461bcd60e51b815260206004820152600d60248201526c13dc99195c88195e1c1a5c9959609a1b60448201526064016105af565b5f8311610b625760405162461bcd60e51b815260206004820152601c60248201527f46696c6c20616d6f756e74206d75737420626520706f7369746976650000000060448201526064016105af565b5f818152600460205260408120805460ff19166001179055612710610b8885601961114f565b610b929190611172565b905033610ba26020870187610f26565b6001600160a01b0316837fd0a08e8c493f9c94f29311604c9de1b4e8c8d4c06bd0c789af57f2d65bfec0f6610bdd60408a0160208b01610f26565b6001600160a01b0316610bf660608b0160408c01610f26565b604080519283526001600160a01b0391909116602083015260608b810135838301526080808d0135918401919091528201879052519081900360a00190a45050505050565b5f610c4581610c68565b50600180546001600160a01b0319166001600160a01b0392909216919091179055565b610c728133610d6d565b50565b5f610c8083836109e7565b610cfd575f838152602081815260408083206001600160a01b03861684529091529020805460ff19166001179055610cb53390565b6001600160a01b0316826001600160a01b0316847f2f8788117e7eff1d82e926ec794901d17c78024a50270940304540a733656f0d60405160405180910390a450600161052d565b505f61052d565b5f610d0f83836109e7565b15610cfd575f838152602081815260408083206001600160a01b0386168085529252808320805460ff1916905551339286917ff6391f5c32d9c69d2a47ea670b442974b53935d1edc7fd64eb21e047a839171b9190a450600161052d565b610d7782826109e7565b6107665760405163e2517d3f60e01b81526001600160a01b0382166004820152602481018390526044016105af565b5f60208284031215610db6575f80fd5b81356001600160e01b031981168114610dcd575f80fd5b9392505050565b5f6101208284031215610de5575f80fd5b50919050565b5f8083601f840112610dfb575f80fd5b50813567ffffffffffffffff811115610e12575f80fd5b6020830191508360208260051b8501011115610e2c575f80fd5b9250929050565b5f805f805f8060808789031215610e48575f80fd5b863567ffffffffffffffff80821115610e5f575f80fd5b610e6b8a838b01610dd4565b97506020890135915080821115610e80575f80fd5b610e8c8a838b01610deb565b9097509550604089013594506060890135915080821115610eab575f80fd5b50610eb889828a01610deb565b979a9699509497509295939492505050565b5f60208284031215610eda575f80fd5b5035919050565b80356001600160a01b0381168114610ef7575f80fd5b919050565b5f8060408385031215610f0d575f80fd5b82359150610f1d60208401610ee1565b90509250929050565b5f60208284031215610f36575f80fd5b610dcd82610ee1565b5f805f60608486031215610f51575f80fd5b505081359360208301359350604090920135919050565b5f805f8060408587031215610f7b575f80fd5b843567ffffffffffffffff80821115610f92575f80fd5b610f9e88838901610deb565b90965094506020870135915080821115610fb6575f80fd5b50610fc387828801610deb565b95989497509550505050565b5f60208284031215610fdf575f80fd5b813567ffffffffffffffff811115610ff5575f80fd5b61100184828501610dd4565b949350505050565b5f806040838503121561101a575f80fd5b823567ffffffffffffffff811115611030575f80fd5b61103c85828601610dd4565b95602094909401359450505050565b6020808252600e908201526d151c98591a5b99c81c185d5cd95960921b604082015260600190565b634e487b7160e01b5f52604160045260245ffd5b634e487b7160e01b5f52603260045260245ffd5b5f823561011e198336030181126110b0575f80fd5b9190910192915050565b606080825285519082018190525f906020906080840190828901845b828110156110f2578151845292840192908401906001016110d6565b50505083820187905283810360408501528481526001600160fb1b03851115611119575f80fd5b8460051b80878484013701019695505050505050565b5f6020828403121561113f575f80fd5b813560ff81168114610dcd575f80fd5b808202811582820484141761052d57634e487b7160e01b5f52601160045260245ffd5b5f8261118c57634e487b7160e01b5f52601260045260245ffd5b50049056fe97667070c54ef182b0f5858b034beac1b6f3089aa2d3188bb1e8929f4fa9b929a264697066735822122001e01ae9cdc8feac8bbc4ac3e4cb87abc94392d26b91f793550d74755ad9675564736f6c63430008180033","opcodes":"PUSH1 0xC0 PUSH1 0x40 MSTORE CALLVALUE DUP1 ISZERO PUSH3 0x10 JUMPI PUSH0 DUP1 REVERT JUMPDEST POP PUSH1 0x40 MLOAD PUSH3 0x13DB CODESIZE SUB DUP1 PUSH3 0x13DB DUP4 CODECOPY DUP2 ADD PUSH1 0x40 DUP2 SWAP1 MSTORE PUSH3 0x33 SWAP2 PUSH3 0x16A JUMP JUMPDEST PUSH1 0x1 PUSH1 0x1 PUSH1 0xA0 SHL SUB DUP5 DUP2 AND PUSH1 0x80 MSTORE DUP4 DUP2 AND PUSH1 0xA0 MSTORE PUSH1 0x1 DUP1 SLOAD PUSH1 0x1 PUSH1 0x1 PUSH1 0xA0 SHL SUB NOT AND SWAP2 DUP5 AND SWAP2 SWAP1 SWAP2 OR SWAP1 SSTORE PUSH3 0x6A PUSH0 CALLER PUSH3 0xA2 JUMP JUMPDEST POP PUSH3 0x97 PUSH32 0x97667070C54EF182B0F5858B034BEAC1B6F3089AA2D3188BB1E8929F4FA9B929 CALLER PUSH3 0xA2 JUMP JUMPDEST POP POP POP POP POP PUSH3 0x1C4 JUMP JUMPDEST PUSH0 DUP3 DUP2 MSTORE PUSH1 0x20 DUP2 DUP2 MSTORE PUSH1 0x40 DUP1 DUP4 KECCAK256 PUSH1 0x1 PUSH1 0x1 PUSH1 0xA0 SHL SUB DUP6 AND DUP5 MSTORE SWAP1 SWAP2 MSTORE DUP2 KECCAK256 SLOAD PUSH1 0xFF AND PUSH3 0x145 JUMPI PUSH0 DUP4 DUP2 MSTORE PUSH1 0x20 DUP2 DUP2 MSTORE PUSH1 0x40 DUP1 DUP4 KECCAK256 PUSH1 0x1 PUSH1 0x1 PUSH1 0xA0 SHL SUB DUP7 AND DUP5 MSTORE SWAP1 SWAP2 MSTORE SWAP1 KECCAK256 DUP1 SLOAD PUSH1 0xFF NOT AND PUSH1 0x1 OR SWAP1 SSTORE PUSH3 0xFC CALLER SWAP1 JUMP JUMPDEST PUSH1 0x1 PUSH1 0x1 PUSH1 0xA0 SHL SUB AND DUP3 PUSH1 0x1 PUSH1 0x1 PUSH1 0xA0 SHL SUB AND DUP5 PUSH32 0x2F8788117E7EFF1D82E926EC794901D17C78024A50270940304540A733656F0D PUSH1 0x40 MLOAD PUSH1 0x40 MLOAD DUP1 SWAP2 SUB SWAP1 LOG4 POP PUSH1 0x1 PUSH3 0x148 JUMP JUMPDEST POP PUSH0 JUMPDEST SWAP3 SWAP2 POP POP JUMP JUMPDEST DUP1 MLOAD PUSH1 0x1 PUSH1 0x1 PUSH1 0xA0 SHL SUB DUP2 AND DUP2 EQ PUSH3 0x165 JUMPI PUSH0 DUP1 REVERT JUMPDEST SWAP2 SWAP1 POP JUMP JUMPDEST PUSH0 DUP1 PUSH0 DUP1 PUSH1 0x80 DUP6 DUP8 SUB SLT ISZERO PUSH3 0x17E JUMPI PUSH0 DUP1 REVERT JUMPDEST PUSH3 0x189 DUP6 PUSH3 0x14E JUMP JUMPDEST SWAP4 POP PUSH3 0x199 PUSH1 0x20 DUP7 ADD PUSH3 0x14E JUMP JUMPDEST SWAP3 POP PUSH3 0x1A9 PUSH1 0x40 DUP7 ADD PUSH3 0x14E JUMP JUMPDEST SWAP2 POP PUSH3 0x1B9 PUSH1 0x60 DUP7 ADD PUSH3 0x14E JUMP JUMPDEST SWAP1 POP SWAP3 SWAP6 SWAP2 SWAP5 POP SWAP3 POP JUMP JUMPDEST PUSH1 0x80 MLOAD PUSH1 0xA0 MLOAD PUSH2 0x11E7 PUSH3 0x1F4 PUSH0 CODECOPY PUSH0 DUP2 DUP2 PUSH2 0x235 ADD MSTORE PUSH2 0x2C7 ADD MSTORE PUSH0 DUP2 DUP2 PUSH2 0x33A ADD MSTORE PUSH2 0x47F ADD MSTORE PUSH2 0x11E7 PUSH0 RETURN INVALID PUSH1 0x80 PUSH1 0x40 MSTORE CALLVALUE DUP1 ISZERO PUSH2 0xF JUMPI PUSH0 DUP1 REVERT JUMPDEST POP PUSH1 0x4 CALLDATASIZE LT PUSH2 0x1E7 JUMPI PUSH0 CALLDATALOAD PUSH1 0xE0 SHR DUP1 PUSH4 0x73A3D976 GT PUSH2 0x109 JUMPI DUP1 PUSH4 0xD547741F GT PUSH2 0x9E JUMPI DUP1 PUSH4 0xEC7E08EB GT PUSH2 0x6E JUMPI DUP1 PUSH4 0xEC7E08EB EQ PUSH2 0x4A1 JUMPI DUP1 PUSH4 0xF5B541A6 EQ PUSH2 0x4B4 JUMPI DUP1 PUSH4 0xF859FFA0 EQ PUSH2 0x4C8 JUMPI DUP1 PUSH4 0xFBDDD751 EQ PUSH2 0x4EA JUMPI PUSH0 DUP1 REVERT JUMPDEST DUP1 PUSH4 0xD547741F EQ PUSH2 0x429 JUMPI DUP1 PUSH4 0xD7FB272F EQ PUSH2 0x43C JUMPI DUP1 PUSH4 0xD8C55AF7 EQ PUSH2 0x45B JUMPI DUP1 PUSH4 0xD8DFEB45 EQ PUSH2 0x47A JUMPI PUSH0 DUP1 REVERT JUMPDEST DUP1 PUSH4 0xA217FDDF GT PUSH2 0xD9 JUMPI DUP1 PUSH4 0xA217FDDF EQ PUSH2 0x3DC JUMPI DUP1 PUSH4 0xABEAAE5E EQ PUSH2 0x3E3 JUMPI DUP1 PUSH4 0xB28C51C0 EQ PUSH2 0x405 JUMPI DUP1 PUSH4 0xC10F1A75 EQ PUSH2 0x416 JUMPI PUSH0 DUP1 REVERT JUMPDEST DUP1 PUSH4 0x73A3D976 EQ PUSH2 0x391 JUMPI DUP1 PUSH4 0x75D7370A EQ PUSH2 0x3A4 JUMPI DUP1 PUSH4 0x91D14854 EQ PUSH2 0x3AA JUMPI DUP1 PUSH4 0xA10F3DCE EQ PUSH2 0x3BD JUMPI PUSH0 DUP1 REVERT JUMPDEST DUP1 PUSH4 0x4544F055 GT PUSH2 0x17F JUMPI DUP1 PUSH4 0x5C1548FB GT PUSH2 0x14F JUMPI DUP1 PUSH4 0x5C1548FB EQ PUSH2 0x338 JUMPI DUP1 PUSH4 0x5C975ABB EQ PUSH2 0x35E JUMPI DUP1 PUSH4 0x68C7450F EQ PUSH2 0x36B JUMPI DUP1 PUSH4 0x6F1B4AD8 EQ PUSH2 0x37E JUMPI PUSH0 DUP1 REVERT JUMPDEST DUP1 PUSH4 0x4544F055 EQ PUSH2 0x2EB JUMPI DUP1 PUSH4 0x456068D2 EQ PUSH2 0x2FE JUMPI DUP1 PUSH4 0x46423AA7 EQ PUSH2 0x306 JUMPI DUP1 PUSH4 0x538B6A27 EQ PUSH2 0x319 JUMPI PUSH0 DUP1 REVERT JUMPDEST DUP1 PUSH4 0x248A9CA3 GT PUSH2 0x1BA JUMPI DUP1 PUSH4 0x248A9CA3 EQ PUSH2 0x26F JUMPI DUP1 PUSH4 0x2F2FF15D EQ PUSH2 0x29F JUMPI DUP1 PUSH4 0x36568ABE EQ PUSH2 0x2B2 JUMPI DUP1 PUSH4 0x3B521D78 EQ PUSH2 0x2C5 JUMPI PUSH0 DUP1 REVERT JUMPDEST DUP1 PUSH4 0x1FFC9A7 EQ PUSH2 0x1EB JUMPI DUP1 PUSH4 0x1031E36E EQ PUSH2 0x213 JUMPI DUP1 PUSH4 0x1BFDB695 EQ PUSH2 0x21D JUMPI DUP1 PUSH4 0x22A9339F EQ PUSH2 0x230 JUMPI JUMPDEST PUSH0 DUP1 REVERT JUMPDEST PUSH2 0x1FE PUSH2 0x1F9 CALLDATASIZE PUSH1 0x4 PUSH2 0xDA6 JUMP JUMPDEST PUSH2 0x4FD JUMP JUMPDEST PUSH1 0x40 MLOAD SWAP1 ISZERO ISZERO DUP2 MSTORE PUSH1 0x20 ADD JUMPDEST PUSH1 0x40 MLOAD DUP1 SWAP2 SUB SWAP1 RETURN JUMPDEST PUSH2 0x21B PUSH2 0x533 JUMP JUMPDEST STOP JUMPDEST PUSH2 0x21B PUSH2 0x22B CALLDATASIZE PUSH1 0x4 PUSH2 0xE33 JUMP JUMPDEST PUSH2 0x575 JUMP JUMPDEST PUSH2 0x257 PUSH32 0x0 DUP2 JUMP JUMPDEST PUSH1 0x40 MLOAD PUSH1 0x1 PUSH1 0x1 PUSH1 0xA0 SHL SUB SWAP1 SWAP2 AND DUP2 MSTORE PUSH1 0x20 ADD PUSH2 0x20A JUMP JUMPDEST PUSH2 0x291 PUSH2 0x27D CALLDATASIZE PUSH1 0x4 PUSH2 0xECA JUMP JUMPDEST PUSH0 SWAP1 DUP2 MSTORE PUSH1 0x20 DUP2 SWAP1 MSTORE PUSH1 0x40 SWAP1 KECCAK256 PUSH1 0x1 ADD SLOAD SWAP1 JUMP JUMPDEST PUSH1 0x40 MLOAD SWAP1 DUP2 MSTORE PUSH1 0x20 ADD PUSH2 0x20A JUMP JUMPDEST PUSH2 0x21B PUSH2 0x2AD CALLDATASIZE PUSH1 0x4 PUSH2 0xEFC JUMP JUMPDEST PUSH2 0x6FA JUMP JUMPDEST PUSH2 0x21B PUSH2 0x2C0 CALLDATASIZE PUSH1 0x4 PUSH2 0xEFC JUMP JUMPDEST PUSH2 0x724 JUMP JUMPDEST PUSH32 0x0 PUSH2 0x257 JUMP JUMPDEST PUSH2 0x21B PUSH2 0x2F9 CALLDATASIZE PUSH1 0x4 PUSH2 0xF26 JUMP JUMPDEST PUSH2 0x75C JUMP JUMPDEST PUSH2 0x21B PUSH2 0x76A JUMP JUMPDEST PUSH2 0x291 PUSH2 0x314 CALLDATASIZE PUSH1 0x4 PUSH2 0xECA JUMP JUMPDEST PUSH2 0x7A9 JUMP JUMPDEST PUSH2 0x291 PUSH2 0x327 CALLDATASIZE PUSH1 0x4 PUSH2 0xECA JUMP JUMPDEST PUSH1 0x2 PUSH1 0x20 MSTORE PUSH0 SWAP1 DUP2 MSTORE PUSH1 0x40 SWAP1 KECCAK256 SLOAD DUP2 JUMP JUMPDEST PUSH32 0x0 PUSH2 0x257 JUMP JUMPDEST PUSH1 0x5 SLOAD PUSH2 0x1FE SWAP1 PUSH1 0xFF AND DUP2 JUMP JUMPDEST PUSH2 0x21B PUSH2 0x379 CALLDATASIZE PUSH1 0x4 PUSH2 0xF3F JUMP JUMPDEST PUSH2 0x7D0 JUMP JUMPDEST PUSH2 0x21B PUSH2 0x38C CALLDATASIZE PUSH1 0x4 PUSH2 0xF68 JUMP JUMPDEST PUSH2 0x83D JUMP JUMPDEST PUSH2 0x291 PUSH2 0x39F CALLDATASIZE PUSH1 0x4 PUSH2 0xFCF JUMP JUMPDEST PUSH2 0x911 JUMP JUMPDEST PUSH0 PUSH2 0x257 JUMP JUMPDEST PUSH2 0x1FE PUSH2 0x3B8 CALLDATASIZE PUSH1 0x4 PUSH2 0xEFC JUMP JUMPDEST PUSH2 0x9E7 JUMP JUMPDEST PUSH2 0x291 PUSH2 0x3CB CALLDATASIZE PUSH1 0x4 PUSH2 0xECA JUMP JUMPDEST PUSH0 SWAP1 DUP2 MSTORE PUSH1 0x2 PUSH1 0x20 MSTORE PUSH1 0x40 SWAP1 KECCAK256 SLOAD SWAP1 JUMP JUMPDEST PUSH2 0x291 PUSH0 DUP2 JUMP JUMPDEST PUSH2 0x1FE PUSH2 0x3F1 CALLDATASIZE PUSH1 0x4 PUSH2 0xECA JUMP JUMPDEST PUSH1 0x4 PUSH1 0x20 MSTORE PUSH0 SWAP1 DUP2 MSTORE PUSH1 0x40 SWAP1 KECCAK256 SLOAD PUSH1 0xFF AND DUP2 JUMP JUMPDEST PUSH1 0x1 SLOAD PUSH1 0x1 PUSH1 0x1 PUSH1 0xA0 SHL SUB AND PUSH2 0x257 JUMP JUMPDEST PUSH1 0x1 SLOAD PUSH2 0x257 SWAP1 PUSH1 0x1 PUSH1 0x1 PUSH1 0xA0 SHL SUB AND DUP2 JUMP JUMPDEST PUSH2 0x21B PUSH2 0x437 CALLDATASIZE PUSH1 0x4 PUSH2 0xEFC JUMP JUMPDEST PUSH2 0xA0F JUMP JUMPDEST PUSH2 0x291 PUSH2 0x44A CALLDATASIZE PUSH1 0x4 PUSH2 0xECA JUMP JUMPDEST PUSH0 SWAP1 DUP2 MSTORE PUSH1 0x3 PUSH1 0x20 MSTORE PUSH1 0x40 SWAP1 KECCAK256 SLOAD SWAP1 JUMP JUMPDEST PUSH2 0x291 PUSH2 0x469 CALLDATASIZE PUSH1 0x4 PUSH2 0xECA JUMP JUMPDEST PUSH1 0x3 PUSH1 0x20 MSTORE PUSH0 SWAP1 DUP2 MSTORE PUSH1 0x40 SWAP1 KECCAK256 SLOAD DUP2 JUMP JUMPDEST PUSH2 0x257 PUSH32 0x0 DUP2 JUMP JUMPDEST PUSH2 0x21B PUSH2 0x4AF CALLDATASIZE PUSH1 0x4 PUSH2 0x1009 JUMP JUMPDEST PUSH2 0xA33 JUMP JUMPDEST PUSH2 0x291 PUSH0 DUP1 MLOAD PUSH1 0x20 PUSH2 0x1192 DUP4 CODECOPY DUP2 MLOAD SWAP2 MSTORE DUP2 JUMP JUMPDEST PUSH2 0x1FE PUSH2 0x4D6 CALLDATASIZE PUSH1 0x4 PUSH2 0xECA JUMP JUMPDEST PUSH0 SWAP1 DUP2 MSTORE PUSH1 0x4 PUSH1 0x20 MSTORE PUSH1 0x40 SWAP1 KECCAK256 SLOAD PUSH1 0xFF AND SWAP1 JUMP JUMPDEST PUSH2 0x21B PUSH2 0x4F8 CALLDATASIZE PUSH1 0x4 PUSH2 0xF26 JUMP JUMPDEST PUSH2 0xC3B JUMP JUMPDEST PUSH0 PUSH1 0x1 PUSH1 0x1 PUSH1 0xE0 SHL SUB NOT DUP3 AND PUSH4 0x7965DB0B PUSH1 0xE0 SHL EQ DUP1 PUSH2 0x52D JUMPI POP PUSH4 0x1FFC9A7 PUSH1 0xE0 SHL PUSH1 0x1 PUSH1 0x1 PUSH1 0xE0 SHL SUB NOT DUP4 AND EQ JUMPDEST SWAP3 SWAP2 POP POP JUMP JUMPDEST PUSH0 PUSH2 0x53D DUP2 PUSH2 0xC68 JUMP JUMPDEST PUSH1 0x5 DUP1 SLOAD PUSH1 0xFF NOT AND PUSH1 0x1 OR SWAP1 SSTORE PUSH1 0x40 MLOAD PUSH32 0x2B874A66F7EDEFAACA8E06ECDB0825247542B983CC7C499A3D7F1BB34E72728 SWAP1 PUSH0 SWAP1 LOG1 POP JUMP JUMPDEST PUSH0 DUP1 MLOAD PUSH1 0x20 PUSH2 0x1192 DUP4 CODECOPY DUP2 MLOAD SWAP2 MSTORE PUSH2 0x58C DUP2 PUSH2 0xC68 JUMP JUMPDEST PUSH1 0x5 SLOAD PUSH1 0xFF AND ISZERO PUSH2 0x5B8 JUMPI PUSH1 0x40 MLOAD PUSH3 0x461BCD PUSH1 0xE5 SHL DUP2 MSTORE PUSH1 0x4 ADD PUSH2 0x5AF SWAP1 PUSH2 0x104B JUMP JUMPDEST PUSH1 0x40 MLOAD DUP1 SWAP2 SUB SWAP1 REVERT JUMPDEST PUSH0 PUSH2 0x5C2 DUP9 PUSH2 0x911 JUMP JUMPDEST SWAP1 POP PUSH0 DUP7 PUSH8 0xFFFFFFFFFFFFFFFF DUP2 GT ISZERO PUSH2 0x5DE JUMPI PUSH2 0x5DE PUSH2 0x1073 JUMP JUMPDEST PUSH1 0x40 MLOAD SWAP1 DUP1 DUP3 MSTORE DUP1 PUSH1 0x20 MUL PUSH1 0x20 ADD DUP3 ADD PUSH1 0x40 MSTORE DUP1 ISZERO PUSH2 0x607 JUMPI DUP2 PUSH1 0x20 ADD PUSH1 0x20 DUP3 MUL DUP1 CALLDATASIZE DUP4 CALLDATACOPY ADD SWAP1 POP JUMPDEST POP SWAP1 POP PUSH0 JUMPDEST DUP8 DUP2 LT ISZERO PUSH2 0x6A6 JUMPI PUSH2 0x63B DUP10 DUP10 DUP4 DUP2 DUP2 LT PUSH2 0x629 JUMPI PUSH2 0x629 PUSH2 0x1087 JUMP JUMPDEST SWAP1 POP PUSH1 0x20 MUL DUP2 ADD SWAP1 PUSH2 0x39F SWAP2 SWAP1 PUSH2 0x109B JUMP JUMPDEST DUP3 DUP3 DUP2 MLOAD DUP2 LT PUSH2 0x64D JUMPI PUSH2 0x64D PUSH2 0x1087 JUMP JUMPDEST PUSH1 0x20 MUL PUSH1 0x20 ADD ADD DUP2 DUP2 MSTORE POP POP PUSH2 0x69E DUP10 DUP10 DUP4 DUP2 DUP2 LT PUSH2 0x66E JUMPI PUSH2 0x66E PUSH2 0x1087 JUMP JUMPDEST SWAP1 POP PUSH1 0x20 MUL DUP2 ADD SWAP1 PUSH2 0x680 SWAP2 SWAP1 PUSH2 0x109B JUMP JUMPDEST DUP8 DUP8 DUP5 DUP2 DUP2 LT PUSH2 0x692 JUMPI PUSH2 0x692 PUSH2 0x1087 JUMP JUMPDEST SWAP1 POP PUSH1 0x20 MUL ADD CALLDATALOAD PUSH2 0xA33 JUMP JUMPDEST PUSH1 0x1 ADD PUSH2 0x60C JUMP JUMPDEST POP PUSH2 0x6B1 DUP10 DUP8 PUSH2 0xA33 JUMP JUMPDEST DUP2 PUSH32 0x1274DD86D363DCF0B62A0B328A2E3C35F498F7512B66F68AA46B134BB5734919 DUP3 DUP9 DUP9 DUP9 PUSH1 0x40 MLOAD PUSH2 0x6E7 SWAP5 SWAP4 SWAP3 SWAP2 SWAP1 PUSH2 0x10BA JUMP JUMPDEST PUSH1 0x40 MLOAD DUP1 SWAP2 SUB SWAP1 LOG2 POP POP POP POP POP POP POP POP POP JUMP JUMPDEST PUSH0 DUP3 DUP2 MSTORE PUSH1 0x20 DUP2 SWAP1 MSTORE PUSH1 0x40 SWAP1 KECCAK256 PUSH1 0x1 ADD SLOAD PUSH2 0x714 DUP2 PUSH2 0xC68 JUMP JUMPDEST PUSH2 0x71E DUP4 DUP4 PUSH2 0xC75 JUMP JUMPDEST POP POP POP POP JUMP JUMPDEST PUSH1 0x1 PUSH1 0x1 PUSH1 0xA0 SHL SUB DUP2 AND CALLER EQ PUSH2 0x74D JUMPI PUSH1 0x40 MLOAD PUSH4 0x334BD919 PUSH1 0xE1 SHL DUP2 MSTORE PUSH1 0x4 ADD PUSH1 0x40 MLOAD DUP1 SWAP2 SUB SWAP1 REVERT JUMPDEST PUSH2 0x757 DUP3 DUP3 PUSH2 0xD04 JUMP JUMPDEST POP POP POP JUMP JUMPDEST PUSH0 PUSH2 0x766 DUP2 PUSH2 0xC68 JUMP JUMPDEST POP POP JUMP JUMPDEST PUSH0 PUSH2 0x774 DUP2 PUSH2 0xC68 JUMP JUMPDEST PUSH1 0x5 DUP1 SLOAD PUSH1 0xFF NOT AND SWAP1 SSTORE PUSH1 0x40 MLOAD PUSH32 0x2185A7ECC28B84536B7B3D3CF472D9215A2BC8F2302D7331CB56DB0A44239F32 SWAP1 PUSH0 SWAP1 LOG1 POP JUMP JUMPDEST PUSH0 DUP2 DUP2 MSTORE PUSH1 0x4 PUSH1 0x20 MSTORE PUSH1 0x40 DUP2 KECCAK256 SLOAD PUSH1 0xFF AND PUSH2 0x7C4 JUMPI PUSH0 PUSH2 0x7C7 JUMP JUMPDEST PUSH1 0x1 JUMPDEST PUSH1 0xFF AND SWAP3 SWAP2 POP POP JUMP JUMPDEST PUSH0 PUSH2 0x7DA DUP2 PUSH2 0xC68 JUMP JUMPDEST PUSH0 DUP5 DUP2 MSTORE PUSH1 0x2 PUSH1 0x20 SWAP1 DUP2 MSTORE PUSH1 0x40 DUP1 DUP4 KECCAK256 DUP7 SWAP1 SSTORE DUP6 DUP4 MSTORE DUP1 DUP4 KECCAK256 DUP8 SWAP1 SSTORE DUP7 DUP4 MSTORE PUSH1 0x3 SWAP1 SWAP2 MSTORE DUP1 DUP3 KECCAK256 DUP5 SWAP1 SSTORE DUP5 DUP3 MSTORE DUP1 DUP3 KECCAK256 DUP5 SWAP1 SSTORE MLOAD DUP4 SWAP2 DUP6 SWAP2 DUP8 SWAP2 PUSH32 0xBC9A2432E8AEB48327246CDDD6E872EF452812B4243C04E6BFB786A2CD8FAF0D SWAP2 LOG4 POP POP POP POP JUMP JUMPDEST PUSH0 DUP1 MLOAD PUSH1 0x20 PUSH2 0x1192 DUP4 CODECOPY DUP2 MLOAD SWAP2 MSTORE PUSH2 0x854 DUP2 PUSH2 0xC68 JUMP JUMPDEST PUSH1 0x5 SLOAD PUSH1 0xFF AND ISZERO PUSH2 0x877 JUMPI PUSH1 0x40 MLOAD PUSH3 0x461BCD PUSH1 0xE5 SHL DUP2 MSTORE PUSH1 0x4 ADD PUSH2 0x5AF SWAP1 PUSH2 0x104B JUMP JUMPDEST DUP4 DUP3 EQ PUSH2 0x8BE JUMPI PUSH1 0x40 MLOAD PUSH3 0x461BCD PUSH1 0xE5 SHL DUP2 MSTORE PUSH1 0x20 PUSH1 0x4 DUP3 ADD MSTORE PUSH1 0x15 PUSH1 0x24 DUP3 ADD MSTORE PUSH21 0x82E4E4C2F240D8CADCCEE8D040DAD2E6DAC2E8C6D PUSH1 0x5B SHL PUSH1 0x44 DUP3 ADD MSTORE PUSH1 0x64 ADD PUSH2 0x5AF JUMP JUMPDEST PUSH0 JUMPDEST DUP5 DUP2 LT ISZERO PUSH2 0x909 JUMPI PUSH2 0x901 DUP7 DUP7 DUP4 DUP2 DUP2 LT PUSH2 0x8DD JUMPI PUSH2 0x8DD PUSH2 0x1087 JUMP JUMPDEST SWAP1 POP PUSH1 0x20 MUL DUP2 ADD SWAP1 PUSH2 0x8EF SWAP2 SWAP1 PUSH2 0x109B JUMP JUMPDEST DUP6 DUP6 DUP5 DUP2 DUP2 LT PUSH2 0x692 JUMPI PUSH2 0x692 PUSH2 0x1087 JUMP JUMPDEST PUSH1 0x1 ADD PUSH2 0x8C0 JUMP JUMPDEST POP POP POP POP POP POP JUMP JUMPDEST PUSH0 PUSH2 0x91F PUSH1 0x20 DUP4 ADD DUP4 PUSH2 0xF26 JUMP JUMPDEST PUSH2 0x92F PUSH1 0x40 DUP5 ADD PUSH1 0x20 DUP6 ADD PUSH2 0xF26 JUMP JUMPDEST PUSH2 0x93F PUSH1 0x60 DUP6 ADD PUSH1 0x40 DUP7 ADD PUSH2 0xF26 JUMP JUMPDEST PUSH1 0x60 DUP6 ADD CALLDATALOAD PUSH1 0x80 DUP7 ADD CALLDATALOAD PUSH1 0xA0 DUP8 ADD CALLDATALOAD PUSH1 0xC0 DUP9 ADD CALLDATALOAD PUSH2 0x964 PUSH2 0x100 DUP11 ADD PUSH1 0xE0 DUP12 ADD PUSH2 0x112F JUMP JUMPDEST PUSH1 0x40 MLOAD PUSH1 0x60 SWAP9 DUP10 SHL PUSH12 0xFFFFFFFFFFFFFFFFFFFFFFFF NOT SWAP1 DUP2 AND PUSH1 0x20 DUP4 ADD MSTORE SWAP8 DUP10 SHL DUP9 AND PUSH1 0x34 DUP3 ADD MSTORE SWAP6 SWAP1 SWAP8 SHL SWAP1 SWAP6 AND PUSH1 0x48 DUP6 ADD MSTORE PUSH1 0x5C DUP5 ADD SWAP3 SWAP1 SWAP3 MSTORE PUSH1 0x7C DUP4 ADD MSTORE PUSH1 0x9C DUP3 ADD MSTORE PUSH1 0xBC DUP2 ADD SWAP2 SWAP1 SWAP2 MSTORE PUSH1 0xF8 SWAP2 SWAP1 SWAP2 SHL PUSH1 0x1 PUSH1 0x1 PUSH1 0xF8 SHL SUB NOT AND PUSH1 0xDC DUP3 ADD MSTORE PUSH1 0xDD ADD PUSH1 0x40 MLOAD PUSH1 0x20 DUP2 DUP4 SUB SUB DUP2 MSTORE SWAP1 PUSH1 0x40 MSTORE DUP1 MLOAD SWAP1 PUSH1 0x20 ADD KECCAK256 SWAP1 POP SWAP2 SWAP1 POP JUMP JUMPDEST PUSH0 SWAP2 DUP3 MSTORE PUSH1 0x20 DUP3 DUP2 MSTORE PUSH1 0x40 DUP1 DUP5 KECCAK256 PUSH1 0x1 PUSH1 0x1 PUSH1 0xA0 SHL SUB SWAP4 SWAP1 SWAP4 AND DUP5 MSTORE SWAP2 SWAP1 MSTORE SWAP1 KECCAK256 SLOAD PUSH1 0xFF AND SWAP1 JUMP JUMPDEST PUSH0 DUP3 DUP2 MSTORE PUSH1 0x20 DUP2 SWAP1 MSTORE PUSH1 0x40 SWAP1 KECCAK256 PUSH1 0x1 ADD SLOAD PUSH2 0xA29 DUP2 PUSH2 0xC68 JUMP JUMPDEST PUSH2 0x71E DUP4 DUP4 PUSH2 0xD04 JUMP JUMPDEST PUSH0 DUP1 MLOAD PUSH1 0x20 PUSH2 0x1192 DUP4 CODECOPY DUP2 MLOAD SWAP2 MSTORE PUSH2 0xA4A DUP2 PUSH2 0xC68 JUMP JUMPDEST PUSH1 0x5 SLOAD PUSH1 0xFF AND ISZERO PUSH2 0xA6D JUMPI PUSH1 0x40 MLOAD PUSH3 0x461BCD PUSH1 0xE5 SHL DUP2 MSTORE PUSH1 0x4 ADD PUSH2 0x5AF SWAP1 PUSH2 0x104B JUMP JUMPDEST PUSH0 PUSH2 0xA77 DUP5 PUSH2 0x911 JUMP JUMPDEST PUSH0 DUP2 DUP2 MSTORE PUSH1 0x4 PUSH1 0x20 MSTORE PUSH1 0x40 SWAP1 KECCAK256 SLOAD SWAP1 SWAP2 POP PUSH1 0xFF AND ISZERO PUSH2 0xACF JUMPI PUSH1 0x40 MLOAD PUSH3 0x461BCD PUSH1 0xE5 SHL DUP2 MSTORE PUSH1 0x20 PUSH1 0x4 DUP3 ADD MSTORE PUSH1 0x14 PUSH1 0x24 DUP3 ADD MSTORE PUSH20 0x13DC99195C88185B1C9958591E48199A5B1B1959 PUSH1 0x62 SHL PUSH1 0x44 DUP3 ADD MSTORE PUSH1 0x64 ADD PUSH2 0x5AF JUMP JUMPDEST DUP4 PUSH1 0xC0 ADD CALLDATALOAD TIMESTAMP GT ISZERO PUSH2 0xB13 JUMPI PUSH1 0x40 MLOAD PUSH3 0x461BCD PUSH1 0xE5 SHL DUP2 MSTORE PUSH1 0x20 PUSH1 0x4 DUP3 ADD MSTORE PUSH1 0xD PUSH1 0x24 DUP3 ADD MSTORE PUSH13 0x13DC99195C88195E1C1A5C9959 PUSH1 0x9A SHL PUSH1 0x44 DUP3 ADD MSTORE PUSH1 0x64 ADD PUSH2 0x5AF JUMP JUMPDEST PUSH0 DUP4 GT PUSH2 0xB62 JUMPI PUSH1 0x40 MLOAD PUSH3 0x461BCD PUSH1 0xE5 SHL DUP2 MSTORE PUSH1 0x20 PUSH1 0x4 DUP3 ADD MSTORE PUSH1 0x1C PUSH1 0x24 DUP3 ADD MSTORE PUSH32 0x46696C6C20616D6F756E74206D75737420626520706F73697469766500000000 PUSH1 0x44 DUP3 ADD MSTORE PUSH1 0x64 ADD PUSH2 0x5AF JUMP JUMPDEST PUSH0 DUP2 DUP2 MSTORE PUSH1 0x4 PUSH1 0x20 MSTORE PUSH1 0x40 DUP2 KECCAK256 DUP1 SLOAD PUSH1 0xFF NOT AND PUSH1 0x1 OR SWAP1 SSTORE PUSH2 0x2710 PUSH2 0xB88 DUP6 PUSH1 0x19 PUSH2 0x114F JUMP JUMPDEST PUSH2 0xB92 SWAP2 SWAP1 PUSH2 0x1172 JUMP JUMPDEST SWAP1 POP CALLER PUSH2 0xBA2 PUSH1 0x20 DUP8 ADD DUP8 PUSH2 0xF26 JUMP JUMPDEST PUSH1 0x1 PUSH1 0x1 PUSH1 0xA0 SHL SUB AND DUP4 PUSH32 0xD0A08E8C493F9C94F29311604C9DE1B4E8C8D4C06BD0C789AF57F2D65BFEC0F6 PUSH2 0xBDD PUSH1 0x40 DUP11 ADD PUSH1 0x20 DUP12 ADD PUSH2 0xF26 JUMP JUMPDEST PUSH1 0x1 PUSH1 0x1 PUSH1 0xA0 SHL SUB AND PUSH2 0xBF6 PUSH1 0x60 DUP12 ADD PUSH1 0x40 DUP13 ADD PUSH2 0xF26 JUMP JUMPDEST PUSH1 0x40 DUP1 MLOAD SWAP3 DUP4 MSTORE PUSH1 0x1 PUSH1 0x1 PUSH1 0xA0 SHL SUB SWAP2 SWAP1 SWAP2 AND PUSH1 0x20 DUP4 ADD MSTORE PUSH1 0x60 DUP12 DUP2 ADD CALLDATALOAD DUP4 DUP4 ADD MSTORE PUSH1 0x80 DUP1 DUP14 ADD CALLDATALOAD SWAP2 DUP5 ADD SWAP2 SWAP1 SWAP2 MSTORE DUP3 ADD DUP8 SWAP1 MSTORE MLOAD SWAP1 DUP2 SWAP1 SUB PUSH1 0xA0 ADD SWAP1 LOG4 POP POP POP POP POP JUMP JUMPDEST PUSH0 PUSH2 0xC45 DUP2 PUSH2 0xC68 JUMP JUMPDEST POP PUSH1 0x1 DUP1 SLOAD PUSH1 0x1 PUSH1 0x1 PUSH1 0xA0 SHL SUB NOT AND PUSH1 0x1 PUSH1 0x1 PUSH1 0xA0 SHL SUB SWAP3 SWAP1 SWAP3 AND SWAP2 SWAP1 SWAP2 OR SWAP1 SSTORE JUMP JUMPDEST PUSH2 0xC72 DUP2 CALLER PUSH2 0xD6D JUMP JUMPDEST POP JUMP JUMPDEST PUSH0 PUSH2 0xC80 DUP4 DUP4 PUSH2 0x9E7 JUMP JUMPDEST PUSH2 0xCFD JUMPI PUSH0 DUP4 DUP2 MSTORE PUSH1 0x20 DUP2 DUP2 MSTORE PUSH1 0x40 DUP1 DUP4 KECCAK256 PUSH1 0x1 PUSH1 0x1 PUSH1 0xA0 SHL SUB DUP7 AND DUP5 MSTORE SWAP1 SWAP2 MSTORE SWAP1 KECCAK256 DUP1 SLOAD PUSH1 0xFF NOT AND PUSH1 0x1 OR SWAP1 SSTORE PUSH2 0xCB5 CALLER SWAP1 JUMP JUMPDEST PUSH1 0x1 PUSH1 0x1 PUSH1 0xA0 SHL SUB AND DUP3 PUSH1 0x1 PUSH1 0x1 PUSH1 0xA0 SHL SUB AND DUP5 PUSH32 0x2F8788117E7EFF1D82E926EC794901D17C78024A50270940304540A733656F0D PUSH1 0x40 MLOAD PUSH1 0x40 MLOAD DUP1 SWAP2 SUB SWAP1 LOG4 POP PUSH1 0x1 PUSH2 0x52D JUMP JUMPDEST POP PUSH0 PUSH2 0x52D JUMP JUMPDEST PUSH0 PUSH2 0xD0F DUP4 DUP4 PUSH2 0x9E7 JUMP JUMPDEST ISZERO PUSH2 0xCFD JUMPI PUSH0 DUP4 DUP2 MSTORE PUSH1 0x20 DUP2 DUP2 MSTORE PUSH1 0x40 DUP1 DUP4 KECCAK256 PUSH1 0x1 PUSH1 0x1 PUSH1 0xA0 SHL SUB DUP7 AND DUP1 DUP6 MSTORE SWAP3 MSTORE DUP1 DUP4 KECCAK256 DUP1 SLOAD PUSH1 0xFF NOT AND SWAP1 SSTORE MLOAD CALLER SWAP3 DUP7 SWAP2 PUSH32 0xF6391F5C32D9C69D2A47EA670B442974B53935D1EDC7FD64EB21E047A839171B SWAP2 SWAP1 LOG4 POP PUSH1 0x1 PUSH2 0x52D JUMP JUMPDEST PUSH2 0xD77 DUP3 DUP3 PUSH2 0x9E7 JUMP JUMPDEST PUSH2 0x766 JUMPI PUSH1 0x40 MLOAD PUSH4 0xE2517D3F PUSH1 0xE0 SHL DUP2 MSTORE PUSH1 0x1 PUSH1 0x1 PUSH1 0xA0 SHL SUB DUP3 AND PUSH1 0x4 DUP3 ADD MSTORE PUSH1 0x24 DUP2 ADD DUP4 SWAP1 MSTORE PUSH1 0x44 ADD PUSH2 0x5AF JUMP JUMPDEST PUSH0 PUSH1 0x20 DUP3 DUP5 SUB SLT ISZERO PUSH2 0xDB6 JUMPI PUSH0 DUP1 REVERT JUMPDEST DUP2 CALLDATALOAD PUSH1 0x1 PUSH1 0x1 PUSH1 0xE0 SHL SUB NOT DUP2 AND DUP2 EQ PUSH2 0xDCD JUMPI PUSH0 DUP1 REVERT JUMPDEST SWAP4 SWAP3 POP POP POP JUMP JUMPDEST PUSH0 PUSH2 0x120 DUP3 DUP5 SUB SLT ISZERO PUSH2 0xDE5 JUMPI PUSH0 DUP1 REVERT JUMPDEST POP SWAP2 SWAP1 POP JUMP JUMPDEST PUSH0 DUP1 DUP4 PUSH1 0x1F DUP5 ADD SLT PUSH2 0xDFB JUMPI PUSH0 DUP1 REVERT JUMPDEST POP DUP2 CALLDATALOAD PUSH8 0xFFFFFFFFFFFFFFFF DUP2 GT ISZERO PUSH2 0xE12 JUMPI PUSH0 DUP1 REVERT JUMPDEST PUSH1 0x20 DUP4 ADD SWAP2 POP DUP4 PUSH1 0x20 DUP3 PUSH1 0x5 SHL DUP6 ADD ADD GT ISZERO PUSH2 0xE2C JUMPI PUSH0 DUP1 REVERT JUMPDEST SWAP3 POP SWAP3 SWAP1 POP JUMP JUMPDEST PUSH0 DUP1 PUSH0 DUP1 PUSH0 DUP1 PUSH1 0x80 DUP8 DUP10 SUB SLT ISZERO PUSH2 0xE48 JUMPI PUSH0 DUP1 REVERT JUMPDEST DUP7 CALLDATALOAD PUSH8 0xFFFFFFFFFFFFFFFF DUP1 DUP3 GT ISZERO PUSH2 0xE5F JUMPI PUSH0 DUP1 REVERT JUMPDEST PUSH2 0xE6B DUP11 DUP4 DUP12 ADD PUSH2 0xDD4 JUMP JUMPDEST SWAP8 POP PUSH1 0x20 DUP10 ADD CALLDATALOAD SWAP2 POP DUP1 DUP3 GT ISZERO PUSH2 0xE80 JUMPI PUSH0 DUP1 REVERT JUMPDEST PUSH2 0xE8C DUP11 DUP4 DUP12 ADD PUSH2 0xDEB JUMP JUMPDEST SWAP1 SWAP8 POP SWAP6 POP PUSH1 0x40 DUP10 ADD CALLDATALOAD SWAP5 POP PUSH1 0x60 DUP10 ADD CALLDATALOAD SWAP2 POP DUP1 DUP3 GT ISZERO PUSH2 0xEAB JUMPI PUSH0 DUP1 REVERT JUMPDEST POP PUSH2 0xEB8 DUP10 DUP3 DUP11 ADD PUSH2 0xDEB JUMP JUMPDEST SWAP8 SWAP11 SWAP7 SWAP10 POP SWAP5 SWAP8 POP SWAP3 SWAP6 SWAP4 SWAP5 SWAP3 POP POP POP JUMP JUMPDEST PUSH0 PUSH1 0x20 DUP3 DUP5 SUB SLT ISZERO PUSH2 0xEDA JUMPI PUSH0 DUP1 REVERT JUMPDEST POP CALLDATALOAD SWAP2 SWAP1 POP JUMP JUMPDEST DUP1 CALLDATALOAD PUSH1 0x1 PUSH1 0x1 PUSH1 0xA0 SHL SUB DUP2 AND DUP2 EQ PUSH2 0xEF7 JUMPI PUSH0 DUP1 REVERT JUMPDEST SWAP2 SWAP1 POP JUMP JUMPDEST PUSH0 DUP1 PUSH1 0x40 DUP4 DUP6 SUB SLT ISZERO PUSH2 0xF0D JUMPI PUSH0 DUP1 REVERT JUMPDEST DUP3 CALLDATALOAD SWAP2 POP PUSH2 0xF1D PUSH1 0x20 DUP5 ADD PUSH2 0xEE1 JUMP JUMPDEST SWAP1 POP SWAP3 POP SWAP3 SWAP1 POP JUMP JUMPDEST PUSH0 PUSH1 0x20 DUP3 DUP5 SUB SLT ISZERO PUSH2 0xF36 JUMPI PUSH0 DUP1 REVERT JUMPDEST PUSH2 0xDCD DUP3 PUSH2 0xEE1 JUMP JUMPDEST PUSH0 DUP1 PUSH0 PUSH1 0x60 DUP5 DUP7 SUB SLT ISZERO PUSH2 0xF51 JUMPI PUSH0 DUP1 REVERT JUMPDEST POP POP DUP2 CALLDATALOAD SWAP4 PUSH1 0x20 DUP4 ADD CALLDATALOAD SWAP4 POP PUSH1 0x40 SWAP1 SWAP3 ADD CALLDATALOAD SWAP2 SWAP1 POP JUMP JUMPDEST PUSH0 DUP1 PUSH0 DUP1 PUSH1 0x40 DUP6 DUP8 SUB SLT ISZERO PUSH2 0xF7B JUMPI PUSH0 DUP1 REVERT JUMPDEST DUP5 CALLDATALOAD PUSH8 0xFFFFFFFFFFFFFFFF DUP1 DUP3 GT ISZERO PUSH2 0xF92 JUMPI PUSH0 DUP1 REVERT JUMPDEST PUSH2 0xF9E DUP9 DUP4 DUP10 ADD PUSH2 0xDEB JUMP JUMPDEST SWAP1 SWAP7 POP SWAP5 POP PUSH1 0x20 DUP8 ADD CALLDATALOAD SWAP2 POP DUP1 DUP3 GT ISZERO PUSH2 0xFB6 JUMPI PUSH0 DUP1 REVERT JUMPDEST POP PUSH2 0xFC3 DUP8 DUP3 DUP9 ADD PUSH2 0xDEB JUMP JUMPDEST SWAP6 SWAP9 SWAP5 SWAP8 POP SWAP6 POP POP POP POP JUMP JUMPDEST PUSH0 PUSH1 0x20 DUP3 DUP5 SUB SLT ISZERO PUSH2 0xFDF JUMPI PUSH0 DUP1 REVERT JUMPDEST DUP2 CALLDATALOAD PUSH8 0xFFFFFFFFFFFFFFFF DUP2 GT ISZERO PUSH2 0xFF5 JUMPI PUSH0 DUP1 REVERT JUMPDEST PUSH2 0x1001 DUP5 DUP3 DUP6 ADD PUSH2 0xDD4 JUMP JUMPDEST SWAP5 SWAP4 POP POP POP POP JUMP JUMPDEST PUSH0 DUP1 PUSH1 0x40 DUP4 DUP6 SUB SLT ISZERO PUSH2 0x101A JUMPI PUSH0 DUP1 REVERT JUMPDEST DUP3 CALLDATALOAD PUSH8 0xFFFFFFFFFFFFFFFF DUP2 GT ISZERO PUSH2 0x1030 JUMPI PUSH0 DUP1 REVERT JUMPDEST PUSH2 0x103C DUP6 DUP3 DUP7 ADD PUSH2 0xDD4 JUMP JUMPDEST SWAP6 PUSH1 0x20 SWAP5 SWAP1 SWAP5 ADD CALLDATALOAD SWAP5 POP POP POP POP JUMP JUMPDEST PUSH1 0x20 DUP1 DUP3 MSTORE PUSH1 0xE SWAP1 DUP3 ADD MSTORE PUSH14 0x151C98591A5B99C81C185D5CD959 PUSH1 0x92 SHL PUSH1 0x40 DUP3 ADD MSTORE PUSH1 0x60 ADD SWAP1 JUMP JUMPDEST PUSH4 0x4E487B71 PUSH1 0xE0 SHL PUSH0 MSTORE PUSH1 0x41 PUSH1 0x4 MSTORE PUSH1 0x24 PUSH0 REVERT JUMPDEST PUSH4 0x4E487B71 PUSH1 0xE0 SHL PUSH0 MSTORE PUSH1 0x32 PUSH1 0x4 MSTORE PUSH1 0x24 PUSH0 REVERT JUMPDEST PUSH0 DUP3 CALLDATALOAD PUSH2 0x11E NOT DUP4 CALLDATASIZE SUB ADD DUP2 SLT PUSH2 0x10B0 JUMPI PUSH0 DUP1 REVERT JUMPDEST SWAP2 SWAP1 SWAP2 ADD SWAP3 SWAP2 POP POP JUMP JUMPDEST PUSH1 0x60 DUP1 DUP3 MSTORE DUP6 MLOAD SWAP1 DUP3 ADD DUP2 SWAP1 MSTORE PUSH0 SWAP1 PUSH1 0x20 SWAP1 PUSH1 0x80 DUP5 ADD SWAP1 DUP3 DUP10 ADD DUP5 JUMPDEST DUP3 DUP2 LT ISZERO PUSH2 0x10F2 JUMPI DUP2 MLOAD DUP5 MSTORE SWAP3 DUP5 ADD SWAP3 SWAP1 DUP5 ADD SWAP1 PUSH1 0x1 ADD PUSH2 0x10D6 JUMP JUMPDEST POP POP POP DUP4 DUP3 ADD DUP8 SWAP1 MSTORE DUP4 DUP2 SUB PUSH1 0x40 DUP6 ADD MSTORE DUP5 DUP2 MSTORE PUSH1 0x1 PUSH1 0x1 PUSH1 0xFB SHL SUB DUP6 GT ISZERO PUSH2 0x1119 JUMPI PUSH0 DUP1 REVERT JUMPDEST DUP5 PUSH1 0x5 SHL DUP1 DUP8 DUP5 DUP5 ADD CALLDATACOPY ADD ADD SWAP7 SWAP6 POP POP POP POP POP POP JUMP JUMPDEST PUSH0 PUSH1 0x20 DUP3 DUP5 SUB SLT ISZERO PUSH2 0x113F JUMPI PUSH0 DUP1 REVERT JUMPDEST DUP2 CALLDATALOAD PUSH1 0xFF DUP2 AND DUP2 EQ PUSH2 0xDCD JUMPI PUSH0 DUP1 REVERT JUMPDEST DUP1 DUP3 MUL DUP2 ISZERO DUP3 DUP3 DIV DUP5 EQ OR PUSH2 0x52D JUMPI PUSH4 0x4E487B71 PUSH1 0xE0 SHL PUSH0 MSTORE PUSH1 0x11 PUSH1 0x4 MSTORE PUSH1 0x24 PUSH0 REVERT JUMPDEST PUSH0 DUP3 PUSH2 0x118C JUMPI PUSH4 0x4E487B71 PUSH1 0xE0 SHL PUSH0 MSTORE PUSH1 0x12 PUSH1 0x4 MSTORE PUSH1 0x24 PUSH0 REVERT JUMPDEST POP DIV SWAP1 JUMP INVALID SWAP8 PUSH7 0x7070C54EF182B0 CREATE2 DUP6 DUP12 SUB 0x4B 0xEA 0xC1 0xB6 RETURN ADDMOD SWAP11 LOG2 0xD3 XOR DUP12 0xB1 0xE8 SWAP3 SWAP16 0x4F 0xA9 0xB9 0x29 LOG2 PUSH5 0x6970667358 0x22 SLT KECCAK256 ADD 0xE0 BYTE 0xE9 0xCD 0xC8 INVALID 0xAC DUP12 0xBC BLOBBASEFEE 0xC3 0xE4 0xCB DUP8 0xAB 0xC9 NUMBER SWAP3 0xD2 PUSH12 0x91F793550D74755AD9675564 PUSH20 0x6F6C634300081800330000000000000000000000 "},"methodIdentifiers":{"DEFAULT_ADMIN_ROLE()":"a217fddf","OPERATOR_ROLE()":"f5b541a6","collateral()":"d8dfeb45","complements(uint256)":"538b6a27","conditionIds(uint256)":"d8c55af7","ctf()":"22a9339f","fillOrder((address,address,address,uint256,uint256,uint256,uint256,uint8,bytes),uint256)":"ec7e08eb","fillOrders((address,address,address,uint256,uint256,uint256,uint256,uint8,bytes)[],uint256[])":"6f1b4ad8","filledOrders(bytes32)":"abeaae5e","getCollateral()":"5c1548fb","getComplement(uint256)":"a10f3dce","getConditionId(uint256)":"d7fb272f","getCtf()":"3b521d78","getOrderStatus(bytes32)":"46423aa7","getProxyFactory()":"b28c51c0","getRoleAdmin(bytes32)":"248a9ca3","getSafeFactory()":"75d7370a","grantRole(bytes32,address)":"2f2ff15d","hasRole(bytes32,address)":"91d14854","hashOrder((address,address,address,uint256,uint256,uint256,uint256,uint8,bytes))":"73a3d976","isOrderFilled(bytes32)":"f859ffa0","matchOrders((address,address,address,uint256,uint256,uint256,uint256,uint8,bytes),(address,address,address,uint256,uint256,uint256,uint256,uint8,bytes)[],uint256,uint256[])":"1bfdb695","pauseTrading()":"1031e36e","paused()":"5c975abb","proxyFactory()":"c10f1a75","registerToken(uint256,uint256,bytes32)":"68c7450f","renounceRole(bytes32,address)":"36568abe","revokeRole(bytes32,address)":"d547741f","setProxyFactory(address)":"fbddd751","setSafeFactory(address)":"4544f055","supportsInterface(bytes4)":"01ffc9a7","unpauseTrading()":"456068d2"}}}}}