{"project/contracts/AMMPoolFactory.sol":{"AMMPoolFactory":{"abi":[{"inputs":[],"stateMutability":"nonpayable","type":"constructor"},{"inputs":[{"internalType":"address","name":"target","type":"address"}],"name":"AddressEmptyCode","type":"error"},{"inputs":[{"internalType":"address","name":"implementation","type":"address"}],"name":"ERC1967InvalidImplementation","type":"error"},{"inputs":[],"name":"ERC1967NonPayable","type":"error"},{"inputs":[],"name":"FailedCall","type":"error"},{"inputs":[],"name":"InvalidInitialization","type":"error"},{"inputs":[],"name":"NotInitializing","type":"error"},{"inputs":[{"internalType":"address","name":"owner","type":"address"}],"name":"OwnableInvalidOwner","type":"error"},{"inputs":[{"internalType":"address","name":"account","type":"address"}],"name":"OwnableUnauthorizedAccount","type":"error"},{"inputs":[],"name":"UUPSUnauthorizedCallContext","type":"error"},{"inputs":[{"internalType":"bytes32","name":"slot","type":"bytes32"}],"name":"UUPSUnsupportedProxiableUUID","type":"error"},{"anonymous":false,"inputs":[{"indexed":false,"internalType":"uint256","name":"lpFee","type":"uint256"},{"indexed":false,"internalType":"uint256","name":"protocolFee","type":"uint256"}],"name":"DefaultFeesUpdated","type":"event"},{"anonymous":false,"inputs":[{"indexed":false,"internalType":"uint256","name":"minLPFee","type":"uint256"},{"indexed":false,"internalType":"uint256","name":"maxLPFee","type":"uint256"},{"indexed":false,"internalType":"uint256","name":"minProtocolFee","type":"uint256"},{"indexed":false,"internalType":"uint256","name":"maxProtocolFee","type":"uint256"}],"name":"FeeLimitsUpdated","type":"event"},{"anonymous":false,"inputs":[{"indexed":false,"internalType":"uint64","name":"version","type":"uint64"}],"name":"Initialized","type":"event"},{"anonymous":false,"inputs":[{"indexed":true,"internalType":"address","name":"previousOwner","type":"address"},{"indexed":true,"internalType":"address","name":"newOwner","type":"address"}],"name":"OwnershipTransferred","type":"event"},{"anonymous":false,"inputs":[{"indexed":true,"internalType":"address","name":"pool","type":"address"},{"indexed":true,"internalType":"bytes32","name":"conditionId","type":"bytes32"},{"indexed":false,"internalType":"uint256","name":"yesPositionId","type":"uint256"},{"indexed":false,"internalType":"uint256","name":"noPositionId","type":"uint256"},{"indexed":false,"internalType":"uint256","name":"lpFee","type":"uint256"},{"indexed":false,"internalType":"uint256","name":"protocolFee","type":"uint256"}],"name":"PoolCreated","type":"event"},{"anonymous":false,"inputs":[{"indexed":false,"internalType":"address","name":"newTreasury","type":"address"}],"name":"TreasuryUpdated","type":"event"},{"anonymous":false,"inputs":[{"indexed":true,"internalType":"address","name":"implementation","type":"address"}],"name":"Upgraded","type":"event"},{"inputs":[],"name":"UPGRADE_INTERFACE_VERSION","outputs":[{"internalType":"string","name":"","type":"string"}],"stateMutability":"view","type":"function"},{"inputs":[{"internalType":"uint256","name":"","type":"uint256"}],"name":"allPools","outputs":[{"internalType":"address","name":"","type":"address"}],"stateMutability":"view","type":"function"},{"inputs":[],"name":"collateralToken","outputs":[{"internalType":"address","name":"","type":"address"}],"stateMutability":"view","type":"function"},{"inputs":[],"name":"conditionalTokens","outputs":[{"internalType":"address","name":"","type":"address"}],"stateMutability":"view","type":"function"},{"inputs":[{"internalType":"address","name":"oracle","type":"address"},{"internalType":"bytes32","name":"questionId","type":"bytes32"},{"internalType":"string","name":"name","type":"string"},{"internalType":"string","name":"symbol","type":"string"},{"internalType":"uint256","name":"lpFee","type":"uint256"},{"internalType":"uint256","name":"protocolFee","type":"uint256"}],"name":"createPool","outputs":[{"internalType":"address","name":"pool","type":"address"}],"stateMutability":"nonpayable","type":"function"},{"inputs":[],"name":"defaultLPFee","outputs":[{"internalType":"uint256","name":"","type":"uint256"}],"stateMutability":"view","type":"function"},{"inputs":[],"name":"defaultProtocolFee","outputs":[{"internalType":"uint256","name":"","type":"uint256"}],"stateMutability":"view","type":"function"},{"inputs":[{"internalType":"bytes32","name":"conditionId","type":"bytes32"}],"name":"getPool","outputs":[{"internalType":"address","name":"","type":"address"}],"stateMutability":"view","type":"function"},{"inputs":[{"internalType":"address","name":"_collateralToken","type":"address"},{"internalType":"address","name":"_conditionalTokens","type":"address"},{"internalType":"address","name":"_treasury","type":"address"}],"name":"initialize","outputs":[],"stateMutability":"nonpayable","type":"function"},{"inputs":[],"name":"maxLPFee","outputs":[{"internalType":"uint256","name":"","type":"uint256"}],"stateMutability":"view","type":"function"},{"inputs":[],"name":"maxProtocolFee","outputs":[{"internalType":"uint256","name":"","type":"uint256"}],"stateMutability":"view","type":"function"},{"inputs":[],"name":"minLPFee","outputs":[{"internalType":"uint256","name":"","type":"uint256"}],"stateMutability":"view","type":"function"},{"inputs":[],"name":"minProtocolFee","outputs":[{"internalType":"uint256","name":"","type":"uint256"}],"stateMutability":"view","type":"function"},{"inputs":[],"name":"owner","outputs":[{"internalType":"address","name":"","type":"address"}],"stateMutability":"view","type":"function"},{"inputs":[],"name":"poolCount","outputs":[{"internalType":"uint256","name":"","type":"uint256"}],"stateMutability":"view","type":"function"},{"inputs":[{"internalType":"bytes32","name":"","type":"bytes32"}],"name":"pools","outputs":[{"internalType":"address","name":"","type":"address"}],"stateMutability":"view","type":"function"},{"inputs":[],"name":"proxiableUUID","outputs":[{"internalType":"bytes32","name":"","type":"bytes32"}],"stateMutability":"view","type":"function"},{"inputs":[],"name":"renounceOwnership","outputs":[],"stateMutability":"nonpayable","type":"function"},{"inputs":[{"internalType":"uint256","name":"_lpFee","type":"uint256"},{"internalType":"uint256","name":"_protocolFee","type":"uint256"}],"name":"setDefaultFees","outputs":[],"stateMutability":"nonpayable","type":"function"},{"inputs":[{"internalType":"uint256","name":"_minLPFee","type":"uint256"},{"internalType":"uint256","name":"_maxLPFee","type":"uint256"},{"internalType":"uint256","name":"_minProtocolFee","type":"uint256"},{"internalType":"uint256","name":"_maxProtocolFee","type":"uint256"}],"name":"setFeeLimits","outputs":[],"stateMutability":"nonpayable","type":"function"},{"inputs":[{"internalType":"address","name":"_treasury","type":"address"}],"name":"setTreasury","outputs":[],"stateMutability":"nonpayable","type":"function"},{"inputs":[{"internalType":"address","name":"newOwner","type":"address"}],"name":"transferOwnership","outputs":[],"stateMutability":"nonpayable","type":"function"},{"inputs":[],"name":"treasury","outputs":[{"internalType":"address","name":"","type":"address"}],"stateMutability":"view","type":"function"},{"inputs":[{"internalType":"address","name":"newImplementation","type":"address"},{"internalType":"bytes","name":"data","type":"bytes"}],"name":"upgradeToAndCall","outputs":[],"stateMutability":"payable","type":"function"}],"evm":{"bytecode":{"linkReferences":{},"object":"60a080604052346100cc57306080527ff0c57e16840df040f15088dc2f81fe391c3923bec73e23a9662efc9c229c6a009081549060ff8260401c166100bd57506001600160401b036002600160401b031982821601610078575b60405161376990816100d1823960805181818161077201526108340152f35b6001600160401b031990911681179091556040519081527fc7f505b2f371ae2175ee4913f4499e1f2633a7b5936321eed1cdaeb6115181d290602090a15f8080610059565b63f92ee8a960e01b8152600490fd5b5f80fdfe6080604052600436101562000012575f80fd5b5f803560e01c80632851ebac1462000bb75780632a6677c71462000a9c57806341d1de971462000a53578063421bcbdf1462000a335780634f1ef28614620007dd57806352d1902d146200075d5780635bd9e29914620007325780635ee31c7c146200071257806361d027b314620006e7578063715018a614620006795780638da5cb5b1462000641578063abce0cd51462000621578063ad3cb1cc14620005ab578063b2016bd41462000582578063b5217bb4146200054d578063b9bdb4ef14620004a6578063c0c53b8b14620002de578063d74fb90d14620002be578063e904e09d146200029e578063f0f4426014620001e7578063f2fde38b14620001b2578063f30853fb1462000192578063f525cb6814620001725763f6c00927146200013b575f80fd5b346200016f5760203660031901126200016f57602090600435815260098252604060018060a01b0391205416604051908152f35b80fd5b50346200016f57806003193601126200016f576020600a54604051908152f35b50346200016f57806003193601126200016f576020600354604051908152f35b50346200016f5760203660031901126200016f57620001e4620001d4620011f0565b620001de62001422565b620013af565b80f35b50346200016f5760203660031901126200016f5762000205620011f0565b6200020f62001422565b6001600160a01b0316801562000266576020817f7dae230f18360d76a040c81f050aa14eb9d6dc7901b20fc5d855e2a20fe814d1926bffffffffffffffffffffffff60a01b6002541617600255604051908152a180f35b60405162461bcd60e51b815260206004820152601060248201526f496e76616c696420747265617375727960801b6044820152606490fd5b50346200016f57806003193601126200016f576020600554604051908152f35b50346200016f57806003193601126200016f576020600754604051908152f35b50346200016f5760603660031901126200016f57620002fc620011f0565b6001600160a01b036024358181169290839003620004a25760443590828216809203620004a2577ff0c57e16840df040f15088dc2f81fe391c3923bec73e23a9662efc9c229c6a009384549360ff8560401c16159467ffffffffffffffff81168015908162000499575b60011490816200048e575b15908162000484575b50620004725767ffffffffffffffff19811660011787558562000452575b50620003a36200145c565b620003ad6200145c565b620003b833620013af565b620003c26200145c565b6bffffffffffffffffffffffff60a01b921682875416178655816001541617600155600254161760025560326003556101f4600455600a60055560c86006556096600755603260085562000414575080f35b68ff00000000000000001981541690557fc7f505b2f371ae2175ee4913f4499e1f2633a7b5936321eed1cdaeb6115181d2602060405160018152a180f35b68ffffffffffffffffff1916680100000000000000011786555f62000398565b60405163f92ee8a960e01b8152600490fd5b9050155f6200037a565b303b15915062000371565b87915062000366565b5f80fd5b50346200016f5760403660031901126200016f577fd31db2d23fe42d625fd61189088b6ca9e19f1d03ed676d9480fee9705dfca3006040600435602435620004ed62001422565b6003548210158062000540575b62000505906200132d565b6005548110158062000533575b6200051d906200136b565b816007558060085582519182526020820152a180f35b5060065481111562000512565b50600454821115620004fa565b50346200016f5760203660031901126200016f57602090600435815260098252604060018060a01b0391205416604051908152f35b50346200016f57806003193601126200016f57546040516001600160a01b039091168152602090f35b50346200016f57806003193601126200016f57604051604081019080821067ffffffffffffffff8311176200060d57620006099160405260058152640352e302e360dc1b6020820152604051918291602083526020830190620012ed565b0390f35b634e487b7160e01b5f52604160045260245ffd5b50346200016f57806003193601126200016f576020600454604051908152f35b50346200016f57806003193601126200016f575f8051602062003714833981519152546040516001600160a01b039091168152602090f35b50346200016f57806003193601126200016f576200069662001422565b5f805160206200371483398151915280546001600160a01b031981169091555f906001600160a01b03167f8be0079c531659141344cd1fd0a4f28419497f9722a3daafe3b4186f6b6457e08280a380f35b50346200016f57806003193601126200016f576002546040516001600160a01b039091168152602090f35b50346200016f57806003193601126200016f576020600654604051908152f35b50346200016f57806003193601126200016f576001546040516001600160a01b039091168152602090f35b50346200016f57806003193601126200016f577f00000000000000000000000000000000000000000000000000000000000000006001600160a01b03163003620007cb5760206040517f360894a13ba1a3210667c828492db98dca3e2076cc3735a920a3ca505d382bbc8152f35b60405163703e46dd60e11b8152600490fd5b5060403660031901126200016f57620007f5620011f0565b60243567ffffffffffffffff811162000a2f573660238201121562000a2f576200082a90369060248160040135910162001247565b6001600160a01b037f0000000000000000000000000000000000000000000000000000000000000000811630811490811562000a00575b50620007cb576200087162001422565b6040516352d1902d60e01b8152908316926020918281600481885afa869181620009cb575b50620008b557604051634c9c8ce360e01b815260048101869052602490fd5b9385947f360894a13ba1a3210667c828492db98dca3e2076cc3735a920a3ca505d382bbc90818103620009b35750823b156200099a5780546001600160a01b0319168217905560405185917fbc7cd75a20ee27fd9adebab32041f755214dbc6bffa90cc0225b39da2e5c2d3b8380a28451156200097c57508084846200096e96519101845af4903d1562000972573d6200094f816200122a565b906200095f604051928362001207565b81528581943d92013e6200149e565b5080f35b606092506200149e565b9350505050346200098b575080f35b63b398979f60e01b8152600490fd5b604051634c9c8ce360e01b815260048101839052602490fd5b60249060405190632a87526960e21b82526004820152fd5b9091508381813d8311620009f8575b620009e6818362001207565b81010312620004a25751905f62000896565b503d620009da565b9050817f360894a13ba1a3210667c828492db98dca3e2076cc3735a920a3ca505d382bbc541614155f62000861565b8280fd5b50346200016f57806003193601126200016f576020600854604051908152f35b50346200016f5760203660031901126200016f5760043590600a548210156200016f57602062000a8383620012a3565b905460405160039290921b1c6001600160a01b03168152f35b50346200016f5760803660031901126200016f5760643560243560043560443562000ac662001422565b82821162000b7b5783811162000b36577f7729779159307ca6c59cd8533245b6b4b8f92ab117061a96dee2b18c6efc82499362000b309183600355846004558060055581600655604051948594859094939260609260808301968352602083015260408201520152565b0390a180f35b60405162461bcd60e51b815260206004820152601a60248201527f496e76616c69642070726f746f636f6c206665652072616e67650000000000006044820152606490fd5b60405162461bcd60e51b8152602060048201526014602482015273496e76616c6964204c50206665652072616e676560601b6044820152606490fd5b5034620004a25760c0366003190112620004a25762000bd5620011f0565b906024359060443567ffffffffffffffff8111620004a25762000bfd90369060040162001282565b9160643567ffffffffffffffff8111620004a25762000c2190369060040162001282565b9260843560a435918115620011e5575b8215620011da575b60035482101580620011cd575b62000c51906200132d565b60055483101580620011c0575b62000c69906200136b565b600154604051634296357160e11b81526001600160a01b03898116600483015260248201879052600260448301529091169790946020866064818c5afa95861562001140575f9662001186575b505f868152600960205260409020546001600160a01b03166200114b57883b15620004a25760405163365bb9d560e21b81526001600160a01b03831660048201526024810191909152600260448201525f81606481838d5af18015620011405762001121575b506040519063856296f760e01b8252866004830152856024830152600260448301526020826064818c5afa91821562001116578792620010dc575b506040519763856296f760e01b89528760048a01528660248a0152600160448a01526020896064818d5afa988915620010d157889962001090575b50875460405163039dd75360e41b81526001600160a01b0390911660048201819052602482019490945298999798969760208880604481015b0381845afa97881562001085578a9862001048575b5060405163039dd75360e41b81526001600160a01b0385166004820152602481019b909b526020908b908180604481015b03915afa998a156200103d57899a62001003575b50600154600254604051956001600160a01b0391821693919092169161220d870180881167ffffffffffffffff9091111762000fef5786959493929162000e8662000e9d9261220d620015078a3961016061220d8a018181520190620012ed565b9061220d88018203602061220d8a010152620012ed565b93604061220d87010152606061220d8601015288608061220d860101528760a061220d860101528a60c061220d860101528560e061220d860101528661010061220d8601015261012061220d8501015260018060a01b031661014061220d84010152039086f0801562000fe45784865260096020526040862080546001600160a01b0319166001600160a01b03929092169182179055600a5490956801000000000000000082101562000fd057509262000fc57f6a8809def78dc86b8283b720aa0252607294925c6a692dc5083e4a576a3844f8936020989362000f898760018b9901600a55620012a3565b81549060031b9089821b9160018060a01b03901b1916179055604051948594859094939260609260808301968352602083015260408201520152565b0390a3604051908152f35b634e487b7160e01b81526041600452602490fd5b6040513d87823e3d90fd5b634e487b7160e01b8c52604160045260248cfd5b9099506020813d60201162001034575b81620010226020938362001207565b81010312620004a25751985f62000e25565b3d915062001013565b6040513d8b823e3d90fd5b9097506020813d6020116200107c575b81620010676020938362001207565b81010312620004a257519662000e1162000de0565b3d915062001058565b6040513d8c823e3d90fd5b969798506020873d602011620010c8575b81620010b06020938362001207565b81010312620004a25762000dcb965198979662000d92565b3d9150620010a1565b6040513d8a823e3d90fd5b9091506020813d6020116200110d575b81620010fb6020938362001207565b81010312620004a25751905f62000d57565b3d9150620010ec565b6040513d89823e3d90fd5b90955067ffffffffffffffff81116200060d576040525f945f62000d1c565b6040513d5f823e3d90fd5b60405162461bcd60e51b8152602060048201526013602482015272506f6f6c20616c72656164792065786973747360681b6044820152606490fd5b9095506020813d602011620011b7575b81620011a56020938362001207565b81010312620004a25751945f62000cb6565b3d915062001196565b5060065483111562000c5e565b5060045482111562000c46565b600854925062000c39565b600754915062000c31565b600435906001600160a01b0382168203620004a257565b90601f8019910116810190811067ffffffffffffffff8211176200060d57604052565b67ffffffffffffffff81116200060d57601f01601f191660200190565b92919262001255826200122a565b9162001265604051938462001207565b829481845281830111620004a2578281602093845f960137010152565b9080601f83011215620004a257816020620012a09335910162001247565b90565b600a54811015620012d957600a5f527fc65a7bb8d6351c1cf70c95a316cc6a92839c986682d98bc35f958f4883f9d2a801905f90565b634e487b7160e01b5f52603260045260245ffd5b91908251928382525f5b84811062001318575050825f602080949584010152601f8019910116010190565b602081830181015184830182015201620012f7565b156200133557565b60405162461bcd60e51b815260206004820152600e60248201526d496e76616c6964204c502066656560901b6044820152606490fd5b156200137357565b60405162461bcd60e51b8152602060048201526014602482015273496e76616c69642070726f746f636f6c2066656560601b6044820152606490fd5b6001600160a01b039081169081156200140a575f805160206200371483398151915280546001600160a01b031981168417909155167f8be0079c531659141344cd1fd0a4f28419497f9722a3daafe3b4186f6b6457e05f80a3565b604051631e4fbdf760e01b81525f6004820152602490fd5b5f8051602062003714833981519152546001600160a01b031633036200144457565b60405163118cdaa760e01b8152336004820152602490fd5b60ff7ff0c57e16840df040f15088dc2f81fe391c3923bec73e23a9662efc9c229c6a005460401c16156200148c57565b604051631afcd79f60e31b8152600490fd5b90620014c75750805115620014b557602081519101fd5b60405163d6bda27560e01b8152600490fd5b81511580620014fc575b620014da575090565b604051639996b31560e01b81526001600160a01b039091166004820152602490fd5b50803b15620014d156fe6101a0604052346200048a576200220d803803806200001e816200048e565b928339810161016080838303126200048a5782516001600160401b0391908281116200048a578362000052918601620004b4565b936020808201518481116200048a57620000be9562000073918401620004b4565b90620000826040840162000524565b620000906060850162000524565b90608085015160a08601519060c08701519260e0880151946101009c8d8a0151976101209d8e8c0162000524565b9c620000cf610140809d0162000524565b9a835182811162000395576003918254916001968784811c941680156200047f575b878510146200046b578190601f9485811162000418575b508790858311600114620003b5575f92620003a9575b50505f1982861b1c191690871b1783555b8051938411620003955760049485548781811c911680156200038a575b8282101462000377579081848796959493116200031e575b5080928511600114620002b457505f93620002a8575b505082851b925f19911b1c19161790555b6005556001600160a01b039182166080521660a05260c05260e0528852835283526101809384528452604051611cd395909490866200053a87396080518661043f015260a0518681816102c9015281816104e30152818161086b01528181610d44015281816112a80152611507015260c05186610f5b015260e0518681816102a601528181610529015281816108b201528181610f960152818161134b01526114e6015251858181610360015281816105820152818161090e01528181610d0c0152818161128701526115a7015251848181610c2b0152610dc701525183818161018201528181610bb701526111f3015251828181610b9601528181610d8b0152611222015251818181610cc5015281816113ff01526116140152f35b015191505f806200017a565b929190879550601f198516875f52845f20945f905b828210620003045750508511620002ea575b50505050811b0190556200018b565b01519060f8845f19921b161c191690555f808080620002db565b8484015187558a98909601959384019390810190620002c9565b909192939450865f52815f208480880160051c8201928489106200036d575b918a91899897969594930160051c01915b8281106200035e57505062000164565b5f81558897508a91016200034e565b925081926200033d565b602287634e487b7160e01b5f525260245ffd5b90607f16906200014c565b634e487b7160e01b5f52604160045260245ffd5b015190505f806200011e565b90899350601f19831691875f52895f20925f5b8b828210620004015750508411620003e9575b505050811b0183556200012f565b01515f1983881b60f8161c191690555f8080620003db565b8385015186558d97909501949384019301620003c8565b909150855f52875f208580850160051c8201928a861062000461575b918b91869594930160051c01915b8281106200045257505062000108565b5f81558594508b910162000442565b9250819262000434565b634e487b7160e01b5f52602260045260245ffd5b93607f1693620000f1565b5f80fd5b6040519190601f01601f191682016001600160401b038111838210176200039557604052565b919080601f840112156200048a5782516001600160401b0381116200039557602090620004ea601f8201601f191683016200048e565b928184528282870101116200048a575f5b818110620005105750825f9394955001015290565b8581018301518482018401528201620004fb565b51906001600160a01b03821682036200048a5756fe6080604081815260049182361015610015575f80fd5b5f925f3560e01c91826306fdde03146117225750816308c84c211461119a5781630902f1ac14611175578163095ea7b3146110cb57816318160ddd146110ac57816323b872dd14610fb95781632474b6bc14610f7e5781632ddc7de714610f43578163313ce56714610f275781633f6fa65514610f035781634f896d4f14610dae57816358f8588014610d735781635bd9e29914610d2f57816360e30d9e14610cf457816361d027b314610cb057816370a0823114610c7957816372a9fa6e14610c5a5781637dc0d1d014610c16578163827b650814610b6a5781638779086f14610b4657816395d89b4114610a415781639b34ae0314610a225781639c8f9f23146107c45781639cd441da1461049f578163a9059cbb1461046e578163b2016bd41461042a578163b2670d741461040b578163bdeda833146101f557508063dd62ed3e146101a95763f5b9848d1461016c575f80fd5b346101a557816003193601126101a557602090517f00000000000000000000000000000000000000000000000000000000000000008152f35b5080fd5b50346101a557806003193601126101a5576020916101c5611869565b826101ce61187f565b6001600160a01b03928316845260018652922091165f908152908352819020549051908152f35b9190503461034f57602036600319011261034f57813591610214611b07565b60ff60085416156103d35761022a8315156118df565b3384528360205261024083838620541015611ac2565b6002549261024f841515611969565b61027260016009541494855f146103c85761026d6006545b846119c5565b6119d8565b938415610399576102999190156103855761028f856006546119f6565b6006555b33611bf1565b60095460010361035d57837f0000000000000000000000000000000000000000000000000000000000000000915b7f00000000000000000000000000000000000000000000000000000000000000006001600160a01b0316803b1561034f5761031d93838793875196879586948593637921219560e11b8552339030908601611a03565b03925af180156103535761033b575b60208383600160055551908152f35b6103458491611895565b61034f578261032c565b8280fd5b82513d86823e3d90fd5b837f0000000000000000000000000000000000000000000000000000000000000000916102c7565b610391856007546119f6565b600755610293565b835162461bcd60e51b81526020818501526009602482015268139bc81c185e5bdd5d60ba1b6044820152606490fd5b61026d600754610267565b6020606492519162461bcd60e51b8352820152601360248201527213585c9ad95d081b9bdd081c995cdbdb1d9959606a1b6044820152fd5b5050346101a557816003193601126101a5576020906006549051908152f35b5050346101a557816003193601126101a557517f00000000000000000000000000000000000000000000000000000000000000006001600160a01b03168152602090f35b5050346101a557806003193601126101a55760209061049861048e611869565b6024359033611b2a565b5160018152f35b9190503461034f578060031936011261034f578135602435936104c0611b07565b811515806107bb575b6104d2906118df565b6104e160ff600854161561192b565b7f00000000000000000000000000000000000000000000000000000000000000006001600160a01b0316803b156101a5578351637921219560e11b80825290838180610552887f000000000000000000000000000000000000000000000000000000000000000030338e8601611a03565b038183875af180156107b15790849161079d575b5050813b1561034f57845190815290829082908183816105ab8c7f000000000000000000000000000000000000000000000000000000000000000030338f8601611a03565b03925af180156107935790829161077c575b5050600254908161074f576105d286846119a4565b916103e89081841061070c578181018091116106f9575f80516020611c7e83398151915260206001935f936002558484528382528884208181540190558851908152a36103e71982019182116106e65750925b610630841515611ac2565b61063c826006546119a4565b60065561064b856007546119a4565b60075533156106d057507f64b83944e79c3ce8d4c297411de637c3e102d064677aac0c163976ebdcd6f50e83602095610686826002546119a4565b600255335f525f8752845f2082815401905584518281525f5f80516020611c7e833981519152893393a38451938452602084015260408301523391606090a2600160055551908152f35b6024905f84519163ec442f0560e01b8352820152fd5b634e487b7160e01b815260118552602490fd5b601187634e487b7160e01b5f525260245ffd5b855162461bcd60e51b8152602081890152601e60248201527f496e73756666696369656e7420696e697469616c206c697175696469747900006044820152606490fd5b506107769061026d610766600654600754906119a4565b9161077188866119a4565b6119c5565b92610625565b61078590611895565b61079057805f6105bd565b80fd5b84513d84823e3d90fd5b6107a690611895565b61034f57825f610566565b86513d86823e3d90fd5b508415156104c9565b839150346101a55760203660031901126101a55780356107e2611b07565b6107ed8115156118df565b3383528260205261080381858520541015611ac2565b60025492610812841515611969565b600654926108248561026d86866119c5565b946108366007549161026d83876119c5565b9486151580610a19575b156109e05761085c916108548888936119f6565b6006556119f6565b6007556108698333611bf1565b7f00000000000000000000000000000000000000000000000000000000000000006001600160a01b031690813b1561034f578651637921219560e11b808252908481806108db8b7f000000000000000000000000000000000000000000000000000000000000000033308a8601611a03565b038183885af180156109d6579085916109c2575b5050823b156109be576109399284928388938b519687958694859384527f000000000000000000000000000000000000000000000000000000000000000090339030908601611a03565b03925af180156109b4576109a0575b50507f1dc8bb69df2b8e91fbdcbfcf93d951b3f0000f085a95fe3f7946d6161439245d84518061098c33948688846040919493926060820195825260208201520152565b0390a2600160055582519182526020820152f35b6109aa8291611895565b6107905780610948565b86513d84823e3d90fd5b8380fd5b6109cb90611895565b6109be5783896108ef565b89513d87823e3d90fd5b875162461bcd60e51b81526020818501526013602482015272125b9cdd59999a58da595b9d081bdd5d1c1d5d606a1b6044820152606490fd5b50851515610840565b5050346101a557816003193601126101a5576020906009549051908152f35b8383346101a557816003193601126101a55780519180938054916001908360011c9260018516948515610b3c575b6020958686108114610b2957858952908115610b055750600114610aad575b610aa98787610a9f828c03836118bd565b5191829182611813565b0390f35b81529295507f8a35acfbc15ff81a39ae7d344fd709f28e8600b4aa8c65c6b64bfe7fe36bd19b5b828410610af25750505082610aa994610a9f92820101948680610a8e565b8054868501880152928601928101610ad4565b60ff19168887015250505050151560051b8301019250610a9f82610aa98680610a8e565b634e487b7160e01b845260228352602484fd5b93607f1693610a6f565b5050346101a557816003193601126101a557602090610b63611a7a565b9051908152f35b82843461079057816003193601126107905750610b8561185a565b602435610be3612710610bdb6102677f00000000000000000000000000000000000000000000000000000000000000007f00000000000000000000000000000000000000000000000000000000000000006119a4565b0480926119f6565b9115610c0357610bf7600754831115611a36565b82519182526020820152f35b610c11600654831115611a36565b610bf7565b5050346101a557816003193601126101a557517f00000000000000000000000000000000000000000000000000000000000000006001600160a01b03168152602090f35b5050346101a557816003193601126101a5576020906007549051908152f35b5050346101a55760203660031901126101a55760209181906001600160a01b03610ca1611869565b16815280845220549051908152f35b5050346101a557816003193601126101a557517f00000000000000000000000000000000000000000000000000000000000000006001600160a01b03168152602090f35b5050346101a557816003193601126101a557602090517f00000000000000000000000000000000000000000000000000000000000000008152f35b5050346101a557816003193601126101a557517f00000000000000000000000000000000000000000000000000000000000000006001600160a01b03168152602090f35b5050346101a557816003193601126101a557602090517f00000000000000000000000000000000000000000000000000000000000000008152f35b9190503461034f57602036600319011261034f578135917f00000000000000000000000000000000000000000000000000000000000000006001600160a01b03163303610ec1576008549060ff8216610e8b5783158015610e81575b15610e4c575060ff19166001176008556009829055519081527f93608ecbcf057462da63f5aef413ce7f78c5e1b3bb51859d77a40845ece2bfc390602090a180f35b606490602084519162461bcd60e51b8352820152600f60248201526e496e76616c6964206f7574636f6d6560881b6044820152fd5b5060018414610e0a565b606490602084519162461bcd60e51b8352820152601060248201526f105b1c9958591e481c995cdbdb1d995960821b6044820152fd5b6020606492519162461bcd60e51b8352820152601760248201527f4f6e6c79206f7261636c652063616e207265736f6c76650000000000000000006044820152fd5b5050346101a557816003193601126101a55760209060ff6008541690519015158152f35b5050346101a557816003193601126101a5576020905160128152f35b5050346101a557816003193601126101a557602090517f00000000000000000000000000000000000000000000000000000000000000008152f35b5050346101a557816003193601126101a557602090517f00000000000000000000000000000000000000000000000000000000000000008152f35b839150346101a55760603660031901126101a557610fd5611869565b610fdd61187f565b91604435938560018060a01b03841691828152600160205220335f52602052855f2054915f198310611018575b602087610498888888611b2a565b85831061108057811561106a57331561105457505f9081526001602090815286822033835281529086902091859003909155829061049861100a565b6024905f885191634a1406b160e11b8352820152fd5b6024905f88519163e602df0560e01b8352820152fd5b8651637dc7a0d960e11b8152339181019182526020820193909352604081018690528291506060010390fd5b5050346101a557816003193601126101a5576020906002549051908152f35b828434610790578160031936011261079057506110e6611869565b60243590331561115f576001600160a01b03169081156111495760209350335f5260018452825f20825f52845280835f205582519081527f8c5be1e5ebec7d5bd14f71427d1e84f3dd0314c0f7b2291e5b200ac8c7c3b925843392a35160018152f35b8251634a1406b160e11b81525f81860152602490fd5b825163e602df0560e01b81525f81860152602490fd5b8284346107905780600319360112610790575060065460075482519182526020820152f35b91905034611699576060366003190112611699576111b661185a565b6024356111c1611b07565b6111cc8115156118df565b6111db60ff600854161561192b565b6006549384151580611717575b6111f190611969565b7f0000000000000000000000000000000000000000000000000000000000000000916127106112558161124d6112477f0000000000000000000000000000000000000000000000000000000000000000886119a4565b856119c5565b0494836119c5565b049161126b61126484866119f6565b94836119f6565b9660443588106116e05785156114de5750600754871161149b577f00000000000000000000000000000000000000000000000000000000000000007f00000000000000000000000000000000000000000000000000000000000000006001600160a01b0316803b15611497578751637921219560e11b80825293908b908181806112fa8a8930338a8601611a03565b038183885af1801561147957611483575b505061132261131a88876119f6565b6007546119a4565b6007556113318a6006546119f6565b600655813b156114755788518481528b908181806113748f7f000000000000000000000000000000000000000000000000000000000000000033308a8601611a03565b038183885af1801561147957611461575b5050866113e1575b50505050602096505b84519315158452868401528484840152606083015260808201527fd55848f048ca7d5fd9869d414bb60a426c2b0125c8adb982fee123da3f841ed860a03392a2600160055551908152f35b908a9291813b156109be578388956114288c519788968795869485527f00000000000000000000000000000000000000000000000000000000000000009030908601611a03565b03925af180156114575761143f575b80808061138d565b6114498891611895565b6114535786611437565b8680fd5b86513d8a823e3d90fd5b61146a90611895565b611475578a5f611385565b8a80fd5b8b513d84823e3d90fd5b61148c90611895565b611475578a5f61130b565b8980fd5b606490602087519162461bcd60e51b8352820152601760248201527f496e73756666696369656e74204e4f20726573657276650000000000000000006044820152fd5b871161169d577f00000000000000000000000000000000000000000000000000000000000000007f00000000000000000000000000000000000000000000000000000000000000006001600160a01b0316803b15611699578751637921219560e11b80825293905f818061155789883033898601611a03565b038183875af1801561168f5761167c575b5061157e61157688876119f6565b6006546119a4565b60065561158d8a6007546119f6565b600755813b156114755788518481528b908181806115d08f7f000000000000000000000000000000000000000000000000000000000000000033308a8601611a03565b038183885af1801561147957611668575b5050866115f6575b5050505060209650611396565b908a9291813b156109be5783889561163d8c519788968795869485527f00000000000000000000000000000000000000000000000000000000000000009030908601611a03565b03925af1801561145757611654575b8080806115e9565b61165e8891611895565b611453578661164c565b61167190611895565b611475578a5f6115e1565b611687919b50611895565b5f995f611568565b8a513d5f823e3d90fd5b5f80fd5b606490602087519162461bcd60e51b8352820152601860248201527f496e73756666696369656e7420594553207265736572766500000000000000006044820152fd5b865162461bcd60e51b8152602081840152601160248201527014db1a5c1c1859d948195e18d959591959607a1b6044820152606490fd5b5060075415156111e8565b8334611699575f366003190112611699575f9260035460018160011c91600181168015611809575b60209485851082146117f657508387529081156117d6575060011461177c575b505050610a9f82610aa99403836118bd565b60035f9081529295507fc2575a0e9e593c00f959f8c92f12db2869c3395a3b0502d05e2516446f71f85b5b8284106117c35750505082610aa994610a9f928201019461176a565b80548685018801529286019281016117a7565b60ff1916868501525050151560051b8301019250610a9f82610aa961176a565b602290634e487b7160e01b5f525260245ffd5b92607f169261174a565b602080825282518183018190529093925f5b82811061184657505060409293505f838284010152601f8019910116010190565b818101860151848201604001528501611825565b60043590811515820361169957565b600435906001600160a01b038216820361169957565b602435906001600160a01b038216820361169957565b67ffffffffffffffff81116118a957604052565b634e487b7160e01b5f52604160045260245ffd5b90601f8019910116810190811067ffffffffffffffff8211176118a957604052565b156118e657565b60405162461bcd60e51b815260206004820152601760248201527f416d6f756e74206d75737420626520706f7369746976650000000000000000006044820152606490fd5b1561193257565b60405162461bcd60e51b815260206004820152600f60248201526e13585c9ad95d081c995cdbdb1d9959608a1b6044820152606490fd5b1561197057565b60405162461bcd60e51b815260206004820152600c60248201526b4e6f206c697175696469747960a01b6044820152606490fd5b919082018092116119b157565b634e487b7160e01b5f52601160045260245ffd5b818102929181159184041417156119b157565b81156119e2570490565b634e487b7160e01b5f52601260045260245ffd5b919082039182116119b157565b929060c0949260018060a01b0380921685521660208401526040830152606082015260a060808201525f60a08201520190565b15611a3d57565b60405162461bcd60e51b8152602060048201526015602482015274496e73756666696369656e7420726573657276657360581b6044820152606490fd5b60065460075490611a8b82826119a4565b15611aba57612710908183029183830414831517156119b157611ab792611ab1916119a4565b906119d8565b90565b505061138890565b15611ac957565b60405162461bcd60e51b8152602060048201526016602482015275496e73756666696369656e74204c5020746f6b656e7360501b6044820152606490fd5b600260055414611b18576002600555565b604051633ee5aeb560e01b8152600490fd5b916001600160a01b03808416928315611bd95716928315611bc157825f525f60205260405f205490828210611b8f5750815f80516020611c7e83398151915292602092855f525f84520360405f2055845f5260405f20818154019055604051908152a3565b60405163391434e360e21b81526001600160a01b03919091166004820152602481019190915260448101829052606490fd5b60405163ec442f0560e01b81525f6004820152602490fd5b604051634b637e8f60e11b81525f6004820152602490fd5b91906001600160a01b038316908115611bd957815f525f60205260405f205493818510611c4b57506020815f80516020611c7e833981519152925f95968587528684520360408620558060025403600255604051908152a3565b60405163391434e360e21b81526001600160a01b03919091166004820152602481018590526044810191909152606490fdfeddf252ad1be2c89b69c2b068fc378daa952ba7f163c4a11628f55a4df523b3efa2646970667358221220ab5d2af8f28911d025dabec53558cc416ae39d6c4b4115bbab424cd6a2dddb8964736f6c634300081800339016d09d72d40fdae2fd8ceac6b6234c7706214fd39c1cd1e609a0528c199300a26469706673582212200ddb626ccd97f13c4ed3038fba78f1b98a43992dbd6d0d07d8d587bdc3e12c2164736f6c63430008180033","opcodes":"PUSH1 0xA0 DUP1 PUSH1 0x40 MSTORE CALLVALUE PUSH2 0xCC JUMPI ADDRESS PUSH1 0x80 MSTORE PUSH32 0xF0C57E16840DF040F15088DC2F81FE391C3923BEC73E23A9662EFC9C229C6A00 SWAP1 DUP2 SLOAD SWAP1 PUSH1 0xFF DUP3 PUSH1 0x40 SHR AND PUSH2 0xBD JUMPI POP PUSH1 0x1 PUSH1 0x1 PUSH1 0x40 SHL SUB PUSH1 0x2 PUSH1 0x1 PUSH1 0x40 SHL SUB NOT DUP3 DUP3 AND ADD PUSH2 0x78 JUMPI JUMPDEST PUSH1 0x40 MLOAD PUSH2 0x3769 SWAP1 DUP2 PUSH2 0xD1 DUP3 CODECOPY PUSH1 0x80 MLOAD DUP2 DUP2 DUP2 PUSH2 0x772 ADD MSTORE PUSH2 0x834 ADD MSTORE RETURN JUMPDEST PUSH1 0x1 PUSH1 0x1 PUSH1 0x40 SHL SUB NOT SWAP1 SWAP2 AND DUP2 OR SWAP1 SWAP2 SSTORE PUSH1 0x40 MLOAD SWAP1 DUP2 MSTORE PUSH32 0xC7F505B2F371AE2175EE4913F4499E1F2633A7B5936321EED1CDAEB6115181D2 SWAP1 PUSH1 0x20 SWAP1 LOG1 PUSH0 DUP1 DUP1 PUSH2 0x59 JUMP JUMPDEST PUSH4 0xF92EE8A9 PUSH1 0xE0 SHL DUP2 MSTORE PUSH1 0x4 SWAP1 REVERT JUMPDEST PUSH0 DUP1 REVERT INVALID PUSH1 0x80 PUSH1 0x40 MSTORE PUSH1 0x4 CALLDATASIZE LT ISZERO PUSH3 0x12 JUMPI PUSH0 DUP1 REVERT JUMPDEST PUSH0 DUP1 CALLDATALOAD PUSH1 0xE0 SHR DUP1 PUSH4 0x2851EBAC EQ PUSH3 0xBB7 JUMPI DUP1 PUSH4 0x2A6677C7 EQ PUSH3 0xA9C JUMPI DUP1 PUSH4 0x41D1DE97 EQ PUSH3 0xA53 JUMPI DUP1 PUSH4 0x421BCBDF EQ PUSH3 0xA33 JUMPI DUP1 PUSH4 0x4F1EF286 EQ PUSH3 0x7DD JUMPI DUP1 PUSH4 0x52D1902D EQ PUSH3 0x75D JUMPI DUP1 PUSH4 0x5BD9E299 EQ PUSH3 0x732 JUMPI DUP1 PUSH4 0x5EE31C7C EQ PUSH3 0x712 JUMPI DUP1 PUSH4 0x61D027B3 EQ PUSH3 0x6E7 JUMPI DUP1 PUSH4 0x715018A6 EQ PUSH3 0x679 JUMPI DUP1 PUSH4 0x8DA5CB5B EQ PUSH3 0x641 JUMPI DUP1 PUSH4 0xABCE0CD5 EQ PUSH3 0x621 JUMPI DUP1 PUSH4 0xAD3CB1CC EQ PUSH3 0x5AB JUMPI DUP1 PUSH4 0xB2016BD4 EQ PUSH3 0x582 JUMPI DUP1 PUSH4 0xB5217BB4 EQ PUSH3 0x54D JUMPI DUP1 PUSH4 0xB9BDB4EF EQ PUSH3 0x4A6 JUMPI DUP1 PUSH4 0xC0C53B8B EQ PUSH3 0x2DE JUMPI DUP1 PUSH4 0xD74FB90D EQ PUSH3 0x2BE JUMPI DUP1 PUSH4 0xE904E09D EQ PUSH3 0x29E JUMPI DUP1 PUSH4 0xF0F44260 EQ PUSH3 0x1E7 JUMPI DUP1 PUSH4 0xF2FDE38B EQ PUSH3 0x1B2 JUMPI DUP1 PUSH4 0xF30853FB EQ PUSH3 0x192 JUMPI DUP1 PUSH4 0xF525CB68 EQ PUSH3 0x172 JUMPI PUSH4 0xF6C00927 EQ PUSH3 0x13B JUMPI PUSH0 DUP1 REVERT JUMPDEST CALLVALUE PUSH3 0x16F JUMPI PUSH1 0x20 CALLDATASIZE PUSH1 0x3 NOT ADD SLT PUSH3 0x16F JUMPI PUSH1 0x20 SWAP1 PUSH1 0x4 CALLDATALOAD DUP2 MSTORE PUSH1 0x9 DUP3 MSTORE PUSH1 0x40 PUSH1 0x1 DUP1 PUSH1 0xA0 SHL SUB SWAP2 KECCAK256 SLOAD AND PUSH1 0x40 MLOAD SWAP1 DUP2 MSTORE RETURN JUMPDEST DUP1 REVERT JUMPDEST POP CALLVALUE PUSH3 0x16F JUMPI DUP1 PUSH1 0x3 NOT CALLDATASIZE ADD SLT PUSH3 0x16F JUMPI PUSH1 0x20 PUSH1 0xA SLOAD PUSH1 0x40 MLOAD SWAP1 DUP2 MSTORE RETURN JUMPDEST POP CALLVALUE PUSH3 0x16F JUMPI DUP1 PUSH1 0x3 NOT CALLDATASIZE ADD SLT PUSH3 0x16F JUMPI PUSH1 0x20 PUSH1 0x3 SLOAD PUSH1 0x40 MLOAD SWAP1 DUP2 MSTORE RETURN JUMPDEST POP CALLVALUE PUSH3 0x16F JUMPI PUSH1 0x20 CALLDATASIZE PUSH1 0x3 NOT ADD SLT PUSH3 0x16F JUMPI PUSH3 0x1E4 PUSH3 0x1D4 PUSH3 0x11F0 JUMP JUMPDEST PUSH3 0x1DE PUSH3 0x1422 JUMP JUMPDEST PUSH3 0x13AF JUMP JUMPDEST DUP1 RETURN JUMPDEST POP CALLVALUE PUSH3 0x16F JUMPI PUSH1 0x20 CALLDATASIZE PUSH1 0x3 NOT ADD SLT PUSH3 0x16F JUMPI PUSH3 0x205 PUSH3 0x11F0 JUMP JUMPDEST PUSH3 0x20F PUSH3 0x1422 JUMP JUMPDEST PUSH1 0x1 PUSH1 0x1 PUSH1 0xA0 SHL SUB AND DUP1 ISZERO PUSH3 0x266 JUMPI PUSH1 0x20 DUP2 PUSH32 0x7DAE230F18360D76A040C81F050AA14EB9D6DC7901B20FC5D855E2A20FE814D1 SWAP3 PUSH12 0xFFFFFFFFFFFFFFFFFFFFFFFF PUSH1 0xA0 SHL PUSH1 0x2 SLOAD AND OR PUSH1 0x2 SSTORE PUSH1 0x40 MLOAD SWAP1 DUP2 MSTORE LOG1 DUP1 RETURN JUMPDEST PUSH1 0x40 MLOAD PUSH3 0x461BCD PUSH1 0xE5 SHL DUP2 MSTORE PUSH1 0x20 PUSH1 0x4 DUP3 ADD MSTORE PUSH1 0x10 PUSH1 0x24 DUP3 ADD MSTORE PUSH16 0x496E76616C6964207472656173757279 PUSH1 0x80 SHL PUSH1 0x44 DUP3 ADD MSTORE PUSH1 0x64 SWAP1 REVERT JUMPDEST POP CALLVALUE PUSH3 0x16F JUMPI DUP1 PUSH1 0x3 NOT CALLDATASIZE ADD SLT PUSH3 0x16F JUMPI PUSH1 0x20 PUSH1 0x5 SLOAD PUSH1 0x40 MLOAD SWAP1 DUP2 MSTORE RETURN JUMPDEST POP CALLVALUE PUSH3 0x16F JUMPI DUP1 PUSH1 0x3 NOT CALLDATASIZE ADD SLT PUSH3 0x16F JUMPI PUSH1 0x20 PUSH1 0x7 SLOAD PUSH1 0x40 MLOAD SWAP1 DUP2 MSTORE RETURN JUMPDEST POP CALLVALUE PUSH3 0x16F JUMPI PUSH1 0x60 CALLDATASIZE PUSH1 0x3 NOT ADD SLT PUSH3 0x16F JUMPI PUSH3 0x2FC PUSH3 0x11F0 JUMP JUMPDEST PUSH1 0x1 PUSH1 0x1 PUSH1 0xA0 SHL SUB PUSH1 0x24 CALLDATALOAD DUP2 DUP2 AND SWAP3 SWAP1 DUP4 SWAP1 SUB PUSH3 0x4A2 JUMPI PUSH1 0x44 CALLDATALOAD SWAP1 DUP3 DUP3 AND DUP1 SWAP3 SUB PUSH3 0x4A2 JUMPI PUSH32 0xF0C57E16840DF040F15088DC2F81FE391C3923BEC73E23A9662EFC9C229C6A00 SWAP4 DUP5 SLOAD SWAP4 PUSH1 0xFF DUP6 PUSH1 0x40 SHR AND ISZERO SWAP5 PUSH8 0xFFFFFFFFFFFFFFFF DUP2 AND DUP1 ISZERO SWAP1 DUP2 PUSH3 0x499 JUMPI JUMPDEST PUSH1 0x1 EQ SWAP1 DUP2 PUSH3 0x48E JUMPI JUMPDEST ISZERO SWAP1 DUP2 PUSH3 0x484 JUMPI JUMPDEST POP PUSH3 0x472 JUMPI PUSH8 0xFFFFFFFFFFFFFFFF NOT DUP2 AND PUSH1 0x1 OR DUP8 SSTORE DUP6 PUSH3 0x452 JUMPI JUMPDEST POP PUSH3 0x3A3 PUSH3 0x145C JUMP JUMPDEST PUSH3 0x3AD PUSH3 0x145C JUMP JUMPDEST PUSH3 0x3B8 CALLER PUSH3 0x13AF JUMP JUMPDEST PUSH3 0x3C2 PUSH3 0x145C JUMP JUMPDEST PUSH12 0xFFFFFFFFFFFFFFFFFFFFFFFF PUSH1 0xA0 SHL SWAP3 AND DUP3 DUP8 SLOAD AND OR DUP7 SSTORE DUP2 PUSH1 0x1 SLOAD AND OR PUSH1 0x1 SSTORE PUSH1 0x2 SLOAD AND OR PUSH1 0x2 SSTORE PUSH1 0x32 PUSH1 0x3 SSTORE PUSH2 0x1F4 PUSH1 0x4 SSTORE PUSH1 0xA PUSH1 0x5 SSTORE PUSH1 0xC8 PUSH1 0x6 SSTORE PUSH1 0x96 PUSH1 0x7 SSTORE PUSH1 0x32 PUSH1 0x8 SSTORE PUSH3 0x414 JUMPI POP DUP1 RETURN JUMPDEST PUSH9 0xFF0000000000000000 NOT DUP2 SLOAD AND SWAP1 SSTORE PUSH32 0xC7F505B2F371AE2175EE4913F4499E1F2633A7B5936321EED1CDAEB6115181D2 PUSH1 0x20 PUSH1 0x40 MLOAD PUSH1 0x1 DUP2 MSTORE LOG1 DUP1 RETURN JUMPDEST PUSH9 0xFFFFFFFFFFFFFFFFFF NOT AND PUSH9 0x10000000000000001 OR DUP7 SSTORE PUSH0 PUSH3 0x398 JUMP JUMPDEST PUSH1 0x40 MLOAD PUSH4 0xF92EE8A9 PUSH1 0xE0 SHL DUP2 MSTORE PUSH1 0x4 SWAP1 REVERT JUMPDEST SWAP1 POP ISZERO PUSH0 PUSH3 0x37A JUMP JUMPDEST ADDRESS EXTCODESIZE ISZERO SWAP2 POP PUSH3 0x371 JUMP JUMPDEST DUP8 SWAP2 POP PUSH3 0x366 JUMP JUMPDEST PUSH0 DUP1 REVERT JUMPDEST POP CALLVALUE PUSH3 0x16F JUMPI PUSH1 0x40 CALLDATASIZE PUSH1 0x3 NOT ADD SLT PUSH3 0x16F JUMPI PUSH32 0xD31DB2D23FE42D625FD61189088B6CA9E19F1D03ED676D9480FEE9705DFCA300 PUSH1 0x40 PUSH1 0x4 CALLDATALOAD PUSH1 0x24 CALLDATALOAD PUSH3 0x4ED PUSH3 0x1422 JUMP JUMPDEST PUSH1 0x3 SLOAD DUP3 LT ISZERO DUP1 PUSH3 0x540 JUMPI JUMPDEST PUSH3 0x505 SWAP1 PUSH3 0x132D JUMP JUMPDEST PUSH1 0x5 SLOAD DUP2 LT ISZERO DUP1 PUSH3 0x533 JUMPI JUMPDEST PUSH3 0x51D SWAP1 PUSH3 0x136B JUMP JUMPDEST DUP2 PUSH1 0x7 SSTORE DUP1 PUSH1 0x8 SSTORE DUP3 MLOAD SWAP2 DUP3 MSTORE PUSH1 0x20 DUP3 ADD MSTORE LOG1 DUP1 RETURN JUMPDEST POP PUSH1 0x6 SLOAD DUP2 GT ISZERO PUSH3 0x512 JUMP JUMPDEST POP PUSH1 0x4 SLOAD DUP3 GT ISZERO PUSH3 0x4FA JUMP JUMPDEST POP CALLVALUE PUSH3 0x16F JUMPI PUSH1 0x20 CALLDATASIZE PUSH1 0x3 NOT ADD SLT PUSH3 0x16F JUMPI PUSH1 0x20 SWAP1 PUSH1 0x4 CALLDATALOAD DUP2 MSTORE PUSH1 0x9 DUP3 MSTORE PUSH1 0x40 PUSH1 0x1 DUP1 PUSH1 0xA0 SHL SUB SWAP2 KECCAK256 SLOAD AND PUSH1 0x40 MLOAD SWAP1 DUP2 MSTORE RETURN JUMPDEST POP CALLVALUE PUSH3 0x16F JUMPI DUP1 PUSH1 0x3 NOT CALLDATASIZE ADD SLT PUSH3 0x16F JUMPI SLOAD PUSH1 0x40 MLOAD PUSH1 0x1 PUSH1 0x1 PUSH1 0xA0 SHL SUB SWAP1 SWAP2 AND DUP2 MSTORE PUSH1 0x20 SWAP1 RETURN JUMPDEST POP CALLVALUE PUSH3 0x16F JUMPI DUP1 PUSH1 0x3 NOT CALLDATASIZE ADD SLT PUSH3 0x16F JUMPI PUSH1 0x40 MLOAD PUSH1 0x40 DUP2 ADD SWAP1 DUP1 DUP3 LT PUSH8 0xFFFFFFFFFFFFFFFF DUP4 GT OR PUSH3 0x60D JUMPI PUSH3 0x609 SWAP2 PUSH1 0x40 MSTORE PUSH1 0x5 DUP2 MSTORE PUSH5 0x352E302E3 PUSH1 0xDC SHL PUSH1 0x20 DUP3 ADD MSTORE PUSH1 0x40 MLOAD SWAP2 DUP3 SWAP2 PUSH1 0x20 DUP4 MSTORE PUSH1 0x20 DUP4 ADD SWAP1 PUSH3 0x12ED JUMP JUMPDEST SUB SWAP1 RETURN JUMPDEST PUSH4 0x4E487B71 PUSH1 0xE0 SHL PUSH0 MSTORE PUSH1 0x41 PUSH1 0x4 MSTORE PUSH1 0x24 PUSH0 REVERT JUMPDEST POP CALLVALUE PUSH3 0x16F JUMPI DUP1 PUSH1 0x3 NOT CALLDATASIZE ADD SLT PUSH3 0x16F JUMPI PUSH1 0x20 PUSH1 0x4 SLOAD PUSH1 0x40 MLOAD SWAP1 DUP2 MSTORE RETURN JUMPDEST POP CALLVALUE PUSH3 0x16F JUMPI DUP1 PUSH1 0x3 NOT CALLDATASIZE ADD SLT PUSH3 0x16F JUMPI PUSH0 DUP1 MLOAD PUSH1 0x20 PUSH3 0x3714 DUP4 CODECOPY DUP2 MLOAD SWAP2 MSTORE SLOAD PUSH1 0x40 MLOAD PUSH1 0x1 PUSH1 0x1 PUSH1 0xA0 SHL SUB SWAP1 SWAP2 AND DUP2 MSTORE PUSH1 0x20 SWAP1 RETURN JUMPDEST POP CALLVALUE PUSH3 0x16F JUMPI DUP1 PUSH1 0x3 NOT CALLDATASIZE ADD SLT PUSH3 0x16F JUMPI PUSH3 0x696 PUSH3 0x1422 JUMP JUMPDEST PUSH0 DUP1 MLOAD PUSH1 0x20 PUSH3 0x3714 DUP4 CODECOPY DUP2 MLOAD SWAP2 MSTORE DUP1 SLOAD PUSH1 0x1 PUSH1 0x1 PUSH1 0xA0 SHL SUB NOT DUP2 AND SWAP1 SWAP2 SSTORE PUSH0 SWAP1 PUSH1 0x1 PUSH1 0x1 PUSH1 0xA0 SHL SUB AND PUSH32 0x8BE0079C531659141344CD1FD0A4F28419497F9722A3DAAFE3B4186F6B6457E0 DUP3 DUP1 LOG3 DUP1 RETURN JUMPDEST POP CALLVALUE PUSH3 0x16F JUMPI DUP1 PUSH1 0x3 NOT CALLDATASIZE ADD SLT PUSH3 0x16F JUMPI PUSH1 0x2 SLOAD PUSH1 0x40 MLOAD PUSH1 0x1 PUSH1 0x1 PUSH1 0xA0 SHL SUB SWAP1 SWAP2 AND DUP2 MSTORE PUSH1 0x20 SWAP1 RETURN JUMPDEST POP CALLVALUE PUSH3 0x16F JUMPI DUP1 PUSH1 0x3 NOT CALLDATASIZE ADD SLT PUSH3 0x16F JUMPI PUSH1 0x20 PUSH1 0x6 SLOAD PUSH1 0x40 MLOAD SWAP1 DUP2 MSTORE RETURN JUMPDEST POP CALLVALUE PUSH3 0x16F JUMPI DUP1 PUSH1 0x3 NOT CALLDATASIZE ADD SLT PUSH3 0x16F JUMPI PUSH1 0x1 SLOAD PUSH1 0x40 MLOAD PUSH1 0x1 PUSH1 0x1 PUSH1 0xA0 SHL SUB SWAP1 SWAP2 AND DUP2 MSTORE PUSH1 0x20 SWAP1 RETURN JUMPDEST POP CALLVALUE PUSH3 0x16F JUMPI DUP1 PUSH1 0x3 NOT CALLDATASIZE ADD SLT PUSH3 0x16F JUMPI PUSH32 0x0 PUSH1 0x1 PUSH1 0x1 PUSH1 0xA0 SHL SUB AND ADDRESS SUB PUSH3 0x7CB JUMPI PUSH1 0x20 PUSH1 0x40 MLOAD PUSH32 0x360894A13BA1A3210667C828492DB98DCA3E2076CC3735A920A3CA505D382BBC DUP2 MSTORE RETURN JUMPDEST PUSH1 0x40 MLOAD PUSH4 0x703E46DD PUSH1 0xE1 SHL DUP2 MSTORE PUSH1 0x4 SWAP1 REVERT JUMPDEST POP PUSH1 0x40 CALLDATASIZE PUSH1 0x3 NOT ADD SLT PUSH3 0x16F JUMPI PUSH3 0x7F5 PUSH3 0x11F0 JUMP JUMPDEST PUSH1 0x24 CALLDATALOAD PUSH8 0xFFFFFFFFFFFFFFFF DUP2 GT PUSH3 0xA2F JUMPI CALLDATASIZE PUSH1 0x23 DUP3 ADD SLT ISZERO PUSH3 0xA2F JUMPI PUSH3 0x82A SWAP1 CALLDATASIZE SWAP1 PUSH1 0x24 DUP2 PUSH1 0x4 ADD CALLDATALOAD SWAP2 ADD PUSH3 0x1247 JUMP JUMPDEST PUSH1 0x1 PUSH1 0x1 PUSH1 0xA0 SHL SUB PUSH32 0x0 DUP2 AND ADDRESS DUP2 EQ SWAP1 DUP2 ISZERO PUSH3 0xA00 JUMPI JUMPDEST POP PUSH3 0x7CB JUMPI PUSH3 0x871 PUSH3 0x1422 JUMP JUMPDEST PUSH1 0x40 MLOAD PUSH4 0x52D1902D PUSH1 0xE0 SHL DUP2 MSTORE SWAP1 DUP4 AND SWAP3 PUSH1 0x20 SWAP2 DUP3 DUP2 PUSH1 0x4 DUP2 DUP9 GAS STATICCALL DUP7 SWAP2 DUP2 PUSH3 0x9CB JUMPI JUMPDEST POP PUSH3 0x8B5 JUMPI PUSH1 0x40 MLOAD PUSH4 0x4C9C8CE3 PUSH1 0xE0 SHL DUP2 MSTORE PUSH1 0x4 DUP2 ADD DUP7 SWAP1 MSTORE PUSH1 0x24 SWAP1 REVERT JUMPDEST SWAP4 DUP6 SWAP5 PUSH32 0x360894A13BA1A3210667C828492DB98DCA3E2076CC3735A920A3CA505D382BBC SWAP1 DUP2 DUP2 SUB PUSH3 0x9B3 JUMPI POP DUP3 EXTCODESIZE ISZERO PUSH3 0x99A JUMPI DUP1 SLOAD PUSH1 0x1 PUSH1 0x1 PUSH1 0xA0 SHL SUB NOT AND DUP3 OR SWAP1 SSTORE PUSH1 0x40 MLOAD DUP6 SWAP2 PUSH32 0xBC7CD75A20EE27FD9ADEBAB32041F755214DBC6BFFA90CC0225B39DA2E5C2D3B DUP4 DUP1 LOG2 DUP5 MLOAD ISZERO PUSH3 0x97C JUMPI POP DUP1 DUP5 DUP5 PUSH3 0x96E SWAP7 MLOAD SWAP2 ADD DUP5 GAS DELEGATECALL SWAP1 RETURNDATASIZE ISZERO PUSH3 0x972 JUMPI RETURNDATASIZE PUSH3 0x94F DUP2 PUSH3 0x122A JUMP JUMPDEST SWAP1 PUSH3 0x95F PUSH1 0x40 MLOAD SWAP3 DUP4 PUSH3 0x1207 JUMP JUMPDEST DUP2 MSTORE DUP6 DUP2 SWAP5 RETURNDATASIZE SWAP3 ADD RETURNDATACOPY PUSH3 0x149E JUMP JUMPDEST POP DUP1 RETURN JUMPDEST PUSH1 0x60 SWAP3 POP PUSH3 0x149E JUMP JUMPDEST SWAP4 POP POP POP POP CALLVALUE PUSH3 0x98B JUMPI POP DUP1 RETURN JUMPDEST PUSH4 0xB398979F PUSH1 0xE0 SHL DUP2 MSTORE PUSH1 0x4 SWAP1 REVERT JUMPDEST PUSH1 0x40 MLOAD PUSH4 0x4C9C8CE3 PUSH1 0xE0 SHL DUP2 MSTORE PUSH1 0x4 DUP2 ADD DUP4 SWAP1 MSTORE PUSH1 0x24 SWAP1 REVERT JUMPDEST PUSH1 0x24 SWAP1 PUSH1 0x40 MLOAD SWAP1 PUSH4 0x2A875269 PUSH1 0xE2 SHL DUP3 MSTORE PUSH1 0x4 DUP3 ADD MSTORE REVERT JUMPDEST SWAP1 SWAP2 POP DUP4 DUP2 DUP2 RETURNDATASIZE DUP4 GT PUSH3 0x9F8 JUMPI JUMPDEST PUSH3 0x9E6 DUP2 DUP4 PUSH3 0x1207 JUMP JUMPDEST DUP2 ADD SUB SLT PUSH3 0x4A2 JUMPI MLOAD SWAP1 PUSH0 PUSH3 0x896 JUMP JUMPDEST POP RETURNDATASIZE PUSH3 0x9DA JUMP JUMPDEST SWAP1 POP DUP2 PUSH32 0x360894A13BA1A3210667C828492DB98DCA3E2076CC3735A920A3CA505D382BBC SLOAD AND EQ ISZERO PUSH0 PUSH3 0x861 JUMP JUMPDEST DUP3 DUP1 REVERT JUMPDEST POP CALLVALUE PUSH3 0x16F JUMPI DUP1 PUSH1 0x3 NOT CALLDATASIZE ADD SLT PUSH3 0x16F JUMPI PUSH1 0x20 PUSH1 0x8 SLOAD PUSH1 0x40 MLOAD SWAP1 DUP2 MSTORE RETURN JUMPDEST POP CALLVALUE PUSH3 0x16F JUMPI PUSH1 0x20 CALLDATASIZE PUSH1 0x3 NOT ADD SLT PUSH3 0x16F JUMPI PUSH1 0x4 CALLDATALOAD SWAP1 PUSH1 0xA SLOAD DUP3 LT ISZERO PUSH3 0x16F JUMPI PUSH1 0x20 PUSH3 0xA83 DUP4 PUSH3 0x12A3 JUMP JUMPDEST SWAP1 SLOAD PUSH1 0x40 MLOAD PUSH1 0x3 SWAP3 SWAP1 SWAP3 SHL SHR PUSH1 0x1 PUSH1 0x1 PUSH1 0xA0 SHL SUB AND DUP2 MSTORE RETURN JUMPDEST POP CALLVALUE PUSH3 0x16F JUMPI PUSH1 0x80 CALLDATASIZE PUSH1 0x3 NOT ADD SLT PUSH3 0x16F JUMPI PUSH1 0x64 CALLDATALOAD PUSH1 0x24 CALLDATALOAD PUSH1 0x4 CALLDATALOAD PUSH1 0x44 CALLDATALOAD PUSH3 0xAC6 PUSH3 0x1422 JUMP JUMPDEST DUP3 DUP3 GT PUSH3 0xB7B JUMPI DUP4 DUP2 GT PUSH3 0xB36 JUMPI PUSH32 0x7729779159307CA6C59CD8533245B6B4B8F92AB117061A96DEE2B18C6EFC8249 SWAP4 PUSH3 0xB30 SWAP2 DUP4 PUSH1 0x3 SSTORE DUP5 PUSH1 0x4 SSTORE DUP1 PUSH1 0x5 SSTORE DUP2 PUSH1 0x6 SSTORE PUSH1 0x40 MLOAD SWAP5 DUP6 SWAP5 DUP6 SWAP1 SWAP5 SWAP4 SWAP3 PUSH1 0x60 SWAP3 PUSH1 0x80 DUP4 ADD SWAP7 DUP4 MSTORE PUSH1 0x20 DUP4 ADD MSTORE PUSH1 0x40 DUP3 ADD MSTORE ADD MSTORE JUMP JUMPDEST SUB SWAP1 LOG1 DUP1 RETURN JUMPDEST PUSH1 0x40 MLOAD PUSH3 0x461BCD PUSH1 0xE5 SHL DUP2 MSTORE PUSH1 0x20 PUSH1 0x4 DUP3 ADD MSTORE PUSH1 0x1A PUSH1 0x24 DUP3 ADD MSTORE PUSH32 0x496E76616C69642070726F746F636F6C206665652072616E6765000000000000 PUSH1 0x44 DUP3 ADD MSTORE PUSH1 0x64 SWAP1 REVERT JUMPDEST PUSH1 0x40 MLOAD PUSH3 0x461BCD PUSH1 0xE5 SHL DUP2 MSTORE PUSH1 0x20 PUSH1 0x4 DUP3 ADD MSTORE PUSH1 0x14 PUSH1 0x24 DUP3 ADD MSTORE PUSH20 0x496E76616C6964204C50206665652072616E6765 PUSH1 0x60 SHL PUSH1 0x44 DUP3 ADD MSTORE PUSH1 0x64 SWAP1 REVERT JUMPDEST POP CALLVALUE PUSH3 0x4A2 JUMPI PUSH1 0xC0 CALLDATASIZE PUSH1 0x3 NOT ADD SLT PUSH3 0x4A2 JUMPI PUSH3 0xBD5 PUSH3 0x11F0 JUMP JUMPDEST SWAP1 PUSH1 0x24 CALLDATALOAD SWAP1 PUSH1 0x44 CALLDATALOAD PUSH8 0xFFFFFFFFFFFFFFFF DUP2 GT PUSH3 0x4A2 JUMPI PUSH3 0xBFD SWAP1 CALLDATASIZE SWAP1 PUSH1 0x4 ADD PUSH3 0x1282 JUMP JUMPDEST SWAP2 PUSH1 0x64 CALLDATALOAD PUSH8 0xFFFFFFFFFFFFFFFF DUP2 GT PUSH3 0x4A2 JUMPI PUSH3 0xC21 SWAP1 CALLDATASIZE SWAP1 PUSH1 0x4 ADD PUSH3 0x1282 JUMP JUMPDEST SWAP3 PUSH1 0x84 CALLDATALOAD PUSH1 0xA4 CALLDATALOAD SWAP2 DUP2 ISZERO PUSH3 0x11E5 JUMPI JUMPDEST DUP3 ISZERO PUSH3 0x11DA JUMPI JUMPDEST PUSH1 0x3 SLOAD DUP3 LT ISZERO DUP1 PUSH3 0x11CD JUMPI JUMPDEST PUSH3 0xC51 SWAP1 PUSH3 0x132D JUMP JUMPDEST PUSH1 0x5 SLOAD DUP4 LT ISZERO DUP1 PUSH3 0x11C0 JUMPI JUMPDEST PUSH3 0xC69 SWAP1 PUSH3 0x136B JUMP JUMPDEST PUSH1 0x1 SLOAD PUSH1 0x40 MLOAD PUSH4 0x42963571 PUSH1 0xE1 SHL DUP2 MSTORE PUSH1 0x1 PUSH1 0x1 PUSH1 0xA0 SHL SUB DUP10 DUP2 AND PUSH1 0x4 DUP4 ADD MSTORE PUSH1 0x24 DUP3 ADD DUP8 SWAP1 MSTORE PUSH1 0x2 PUSH1 0x44 DUP4 ADD MSTORE SWAP1 SWAP2 AND SWAP8 SWAP1 SWAP5 PUSH1 0x20 DUP7 PUSH1 0x64 DUP2 DUP13 GAS STATICCALL SWAP6 DUP7 ISZERO PUSH3 0x1140 JUMPI PUSH0 SWAP7 PUSH3 0x1186 JUMPI JUMPDEST POP PUSH0 DUP7 DUP2 MSTORE PUSH1 0x9 PUSH1 0x20 MSTORE PUSH1 0x40 SWAP1 KECCAK256 SLOAD PUSH1 0x1 PUSH1 0x1 PUSH1 0xA0 SHL SUB AND PUSH3 0x114B JUMPI DUP9 EXTCODESIZE ISZERO PUSH3 0x4A2 JUMPI PUSH1 0x40 MLOAD PUSH4 0x365BB9D5 PUSH1 0xE2 SHL DUP2 MSTORE PUSH1 0x1 PUSH1 0x1 PUSH1 0xA0 SHL SUB DUP4 AND PUSH1 0x4 DUP3 ADD MSTORE PUSH1 0x24 DUP2 ADD SWAP2 SWAP1 SWAP2 MSTORE PUSH1 0x2 PUSH1 0x44 DUP3 ADD MSTORE PUSH0 DUP2 PUSH1 0x64 DUP2 DUP4 DUP14 GAS CALL DUP1 ISZERO PUSH3 0x1140 JUMPI PUSH3 0x1121 JUMPI JUMPDEST POP PUSH1 0x40 MLOAD SWAP1 PUSH4 0x856296F7 PUSH1 0xE0 SHL DUP3 MSTORE DUP7 PUSH1 0x4 DUP4 ADD MSTORE DUP6 PUSH1 0x24 DUP4 ADD MSTORE PUSH1 0x2 PUSH1 0x44 DUP4 ADD MSTORE PUSH1 0x20 DUP3 PUSH1 0x64 DUP2 DUP13 GAS STATICCALL SWAP2 DUP3 ISZERO PUSH3 0x1116 JUMPI DUP8 SWAP3 PUSH3 0x10DC JUMPI JUMPDEST POP PUSH1 0x40 MLOAD SWAP8 PUSH4 0x856296F7 PUSH1 0xE0 SHL DUP10 MSTORE DUP8 PUSH1 0x4 DUP11 ADD MSTORE DUP7 PUSH1 0x24 DUP11 ADD MSTORE PUSH1 0x1 PUSH1 0x44 DUP11 ADD MSTORE PUSH1 0x20 DUP10 PUSH1 0x64 DUP2 DUP14 GAS STATICCALL SWAP9 DUP10 ISZERO PUSH3 0x10D1 JUMPI DUP9 SWAP10 PUSH3 0x1090 JUMPI JUMPDEST POP DUP8 SLOAD PUSH1 0x40 MLOAD PUSH4 0x39DD753 PUSH1 0xE4 SHL DUP2 MSTORE PUSH1 0x1 PUSH1 0x1 PUSH1 0xA0 SHL SUB SWAP1 SWAP2 AND PUSH1 0x4 DUP3 ADD DUP2 SWAP1 MSTORE PUSH1 0x24 DUP3 ADD SWAP5 SWAP1 SWAP5 MSTORE SWAP9 SWAP10 SWAP8 SWAP9 SWAP7 SWAP8 PUSH1 0x20 DUP9 DUP1 PUSH1 0x44 DUP2 ADD JUMPDEST SUB DUP2 DUP5 GAS STATICCALL SWAP8 DUP9 ISZERO PUSH3 0x1085 JUMPI DUP11 SWAP9 PUSH3 0x1048 JUMPI JUMPDEST POP PUSH1 0x40 MLOAD PUSH4 0x39DD753 PUSH1 0xE4 SHL DUP2 MSTORE PUSH1 0x1 PUSH1 0x1 PUSH1 0xA0 SHL SUB DUP6 AND PUSH1 0x4 DUP3 ADD MSTORE PUSH1 0x24 DUP2 ADD SWAP12 SWAP1 SWAP12 MSTORE PUSH1 0x20 SWAP1 DUP12 SWAP1 DUP2 DUP1 PUSH1 0x44 DUP2 ADD JUMPDEST SUB SWAP2 GAS STATICCALL SWAP10 DUP11 ISZERO PUSH3 0x103D JUMPI DUP10 SWAP11 PUSH3 0x1003 JUMPI JUMPDEST POP PUSH1 0x1 SLOAD PUSH1 0x2 SLOAD PUSH1 0x40 MLOAD SWAP6 PUSH1 0x1 PUSH1 0x1 PUSH1 0xA0 SHL SUB SWAP2 DUP3 AND SWAP4 SWAP2 SWAP1 SWAP3 AND SWAP2 PUSH2 0x220D DUP8 ADD DUP1 DUP9 GT PUSH8 0xFFFFFFFFFFFFFFFF SWAP1 SWAP2 GT OR PUSH3 0xFEF JUMPI DUP7 SWAP6 SWAP5 SWAP4 SWAP3 SWAP2 PUSH3 0xE86 PUSH3 0xE9D SWAP3 PUSH2 0x220D PUSH3 0x1507 DUP11 CODECOPY PUSH2 0x160 PUSH2 0x220D DUP11 ADD DUP2 DUP2 MSTORE ADD SWAP1 PUSH3 0x12ED JUMP JUMPDEST SWAP1 PUSH2 0x220D DUP9 ADD DUP3 SUB PUSH1 0x20 PUSH2 0x220D DUP11 ADD ADD MSTORE PUSH3 0x12ED JUMP JUMPDEST SWAP4 PUSH1 0x40 PUSH2 0x220D DUP8 ADD ADD MSTORE PUSH1 0x60 PUSH2 0x220D DUP7 ADD ADD MSTORE DUP9 PUSH1 0x80 PUSH2 0x220D DUP7 ADD ADD MSTORE DUP8 PUSH1 0xA0 PUSH2 0x220D DUP7 ADD ADD MSTORE DUP11 PUSH1 0xC0 PUSH2 0x220D DUP7 ADD ADD MSTORE DUP6 PUSH1 0xE0 PUSH2 0x220D DUP7 ADD ADD MSTORE DUP7 PUSH2 0x100 PUSH2 0x220D DUP7 ADD ADD MSTORE PUSH2 0x120 PUSH2 0x220D DUP6 ADD ADD MSTORE PUSH1 0x1 DUP1 PUSH1 0xA0 SHL SUB AND PUSH2 0x140 PUSH2 0x220D DUP5 ADD ADD MSTORE SUB SWAP1 DUP7 CREATE DUP1 ISZERO PUSH3 0xFE4 JUMPI DUP5 DUP7 MSTORE PUSH1 0x9 PUSH1 0x20 MSTORE PUSH1 0x40 DUP7 KECCAK256 DUP1 SLOAD PUSH1 0x1 PUSH1 0x1 PUSH1 0xA0 SHL SUB NOT AND PUSH1 0x1 PUSH1 0x1 PUSH1 0xA0 SHL SUB SWAP3 SWAP1 SWAP3 AND SWAP2 DUP3 OR SWAP1 SSTORE PUSH1 0xA SLOAD SWAP1 SWAP6 PUSH9 0x10000000000000000 DUP3 LT ISZERO PUSH3 0xFD0 JUMPI POP SWAP3 PUSH3 0xFC5 PUSH32 0x6A8809DEF78DC86B8283B720AA0252607294925C6A692DC5083E4A576A3844F8 SWAP4 PUSH1 0x20 SWAP9 SWAP4 PUSH3 0xF89 DUP8 PUSH1 0x1 DUP12 SWAP10 ADD PUSH1 0xA SSTORE PUSH3 0x12A3 JUMP JUMPDEST DUP2 SLOAD SWAP1 PUSH1 0x3 SHL SWAP1 DUP10 DUP3 SHL SWAP2 PUSH1 0x1 DUP1 PUSH1 0xA0 SHL SUB SWAP1 SHL NOT AND OR SWAP1 SSTORE PUSH1 0x40 MLOAD SWAP5 DUP6 SWAP5 DUP6 SWAP1 SWAP5 SWAP4 SWAP3 PUSH1 0x60 SWAP3 PUSH1 0x80 DUP4 ADD SWAP7 DUP4 MSTORE PUSH1 0x20 DUP4 ADD MSTORE PUSH1 0x40 DUP3 ADD MSTORE ADD MSTORE JUMP JUMPDEST SUB SWAP1 LOG3 PUSH1 0x40 MLOAD SWAP1 DUP2 MSTORE RETURN JUMPDEST PUSH4 0x4E487B71 PUSH1 0xE0 SHL DUP2 MSTORE PUSH1 0x41 PUSH1 0x4 MSTORE PUSH1 0x24 SWAP1 REVERT JUMPDEST PUSH1 0x40 MLOAD RETURNDATASIZE DUP8 DUP3 RETURNDATACOPY RETURNDATASIZE SWAP1 REVERT JUMPDEST PUSH4 0x4E487B71 PUSH1 0xE0 SHL DUP13 MSTORE PUSH1 0x41 PUSH1 0x4 MSTORE PUSH1 0x24 DUP13 REVERT JUMPDEST SWAP1 SWAP10 POP PUSH1 0x20 DUP2 RETURNDATASIZE PUSH1 0x20 GT PUSH3 0x1034 JUMPI JUMPDEST DUP2 PUSH3 0x1022 PUSH1 0x20 SWAP4 DUP4 PUSH3 0x1207 JUMP JUMPDEST DUP2 ADD SUB SLT PUSH3 0x4A2 JUMPI MLOAD SWAP9 PUSH0 PUSH3 0xE25 JUMP JUMPDEST RETURNDATASIZE SWAP2 POP PUSH3 0x1013 JUMP JUMPDEST PUSH1 0x40 MLOAD RETURNDATASIZE DUP12 DUP3 RETURNDATACOPY RETURNDATASIZE SWAP1 REVERT JUMPDEST SWAP1 SWAP8 POP PUSH1 0x20 DUP2 RETURNDATASIZE PUSH1 0x20 GT PUSH3 0x107C JUMPI JUMPDEST DUP2 PUSH3 0x1067 PUSH1 0x20 SWAP4 DUP4 PUSH3 0x1207 JUMP JUMPDEST DUP2 ADD SUB SLT PUSH3 0x4A2 JUMPI MLOAD SWAP7 PUSH3 0xE11 PUSH3 0xDE0 JUMP JUMPDEST RETURNDATASIZE SWAP2 POP PUSH3 0x1058 JUMP JUMPDEST PUSH1 0x40 MLOAD RETURNDATASIZE DUP13 DUP3 RETURNDATACOPY RETURNDATASIZE SWAP1 REVERT JUMPDEST SWAP7 SWAP8 SWAP9 POP PUSH1 0x20 DUP8 RETURNDATASIZE PUSH1 0x20 GT PUSH3 0x10C8 JUMPI JUMPDEST DUP2 PUSH3 0x10B0 PUSH1 0x20 SWAP4 DUP4 PUSH3 0x1207 JUMP JUMPDEST DUP2 ADD SUB SLT PUSH3 0x4A2 JUMPI PUSH3 0xDCB SWAP7 MLOAD SWAP9 SWAP8 SWAP7 PUSH3 0xD92 JUMP JUMPDEST RETURNDATASIZE SWAP2 POP PUSH3 0x10A1 JUMP JUMPDEST PUSH1 0x40 MLOAD RETURNDATASIZE DUP11 DUP3 RETURNDATACOPY RETURNDATASIZE SWAP1 REVERT JUMPDEST SWAP1 SWAP2 POP PUSH1 0x20 DUP2 RETURNDATASIZE PUSH1 0x20 GT PUSH3 0x110D JUMPI JUMPDEST DUP2 PUSH3 0x10FB PUSH1 0x20 SWAP4 DUP4 PUSH3 0x1207 JUMP JUMPDEST DUP2 ADD SUB SLT PUSH3 0x4A2 JUMPI MLOAD SWAP1 PUSH0 PUSH3 0xD57 JUMP JUMPDEST RETURNDATASIZE SWAP2 POP PUSH3 0x10EC JUMP JUMPDEST PUSH1 0x40 MLOAD RETURNDATASIZE DUP10 DUP3 RETURNDATACOPY RETURNDATASIZE SWAP1 REVERT JUMPDEST SWAP1 SWAP6 POP PUSH8 0xFFFFFFFFFFFFFFFF DUP2 GT PUSH3 0x60D JUMPI PUSH1 0x40 MSTORE PUSH0 SWAP5 PUSH0 PUSH3 0xD1C JUMP JUMPDEST PUSH1 0x40 MLOAD RETURNDATASIZE PUSH0 DUP3 RETURNDATACOPY RETURNDATASIZE SWAP1 REVERT JUMPDEST PUSH1 0x40 MLOAD PUSH3 0x461BCD PUSH1 0xE5 SHL DUP2 MSTORE PUSH1 0x20 PUSH1 0x4 DUP3 ADD MSTORE PUSH1 0x13 PUSH1 0x24 DUP3 ADD MSTORE PUSH19 0x506F6F6C20616C726561647920657869737473 PUSH1 0x68 SHL PUSH1 0x44 DUP3 ADD MSTORE PUSH1 0x64 SWAP1 REVERT JUMPDEST SWAP1 SWAP6 POP PUSH1 0x20 DUP2 RETURNDATASIZE PUSH1 0x20 GT PUSH3 0x11B7 JUMPI JUMPDEST DUP2 PUSH3 0x11A5 PUSH1 0x20 SWAP4 DUP4 PUSH3 0x1207 JUMP JUMPDEST DUP2 ADD SUB SLT PUSH3 0x4A2 JUMPI MLOAD SWAP5 PUSH0 PUSH3 0xCB6 JUMP JUMPDEST RETURNDATASIZE SWAP2 POP PUSH3 0x1196 JUMP JUMPDEST POP PUSH1 0x6 SLOAD DUP4 GT ISZERO PUSH3 0xC5E JUMP JUMPDEST POP PUSH1 0x4 SLOAD DUP3 GT ISZERO PUSH3 0xC46 JUMP JUMPDEST PUSH1 0x8 SLOAD SWAP3 POP PUSH3 0xC39 JUMP JUMPDEST PUSH1 0x7 SLOAD SWAP2 POP PUSH3 0xC31 JUMP JUMPDEST PUSH1 0x4 CALLDATALOAD SWAP1 PUSH1 0x1 PUSH1 0x1 PUSH1 0xA0 SHL SUB DUP3 AND DUP3 SUB PUSH3 0x4A2 JUMPI JUMP JUMPDEST SWAP1 PUSH1 0x1F DUP1 NOT SWAP2 ADD AND DUP2 ADD SWAP1 DUP2 LT PUSH8 0xFFFFFFFFFFFFFFFF DUP3 GT OR PUSH3 0x60D JUMPI PUSH1 0x40 MSTORE JUMP JUMPDEST PUSH8 0xFFFFFFFFFFFFFFFF DUP2 GT PUSH3 0x60D JUMPI PUSH1 0x1F ADD PUSH1 0x1F NOT AND PUSH1 0x20 ADD SWAP1 JUMP JUMPDEST SWAP3 SWAP2 SWAP3 PUSH3 0x1255 DUP3 PUSH3 0x122A JUMP JUMPDEST SWAP2 PUSH3 0x1265 PUSH1 0x40 MLOAD SWAP4 DUP5 PUSH3 0x1207 JUMP JUMPDEST DUP3 SWAP5 DUP2 DUP5 MSTORE DUP2 DUP4 ADD GT PUSH3 0x4A2 JUMPI DUP3 DUP2 PUSH1 0x20 SWAP4 DUP5 PUSH0 SWAP7 ADD CALLDATACOPY ADD ADD MSTORE JUMP JUMPDEST SWAP1 DUP1 PUSH1 0x1F DUP4 ADD SLT ISZERO PUSH3 0x4A2 JUMPI DUP2 PUSH1 0x20 PUSH3 0x12A0 SWAP4 CALLDATALOAD SWAP2 ADD PUSH3 0x1247 JUMP JUMPDEST SWAP1 JUMP JUMPDEST PUSH1 0xA SLOAD DUP2 LT ISZERO PUSH3 0x12D9 JUMPI PUSH1 0xA PUSH0 MSTORE PUSH32 0xC65A7BB8D6351C1CF70C95A316CC6A92839C986682D98BC35F958F4883F9D2A8 ADD SWAP1 PUSH0 SWAP1 JUMP JUMPDEST PUSH4 0x4E487B71 PUSH1 0xE0 SHL PUSH0 MSTORE PUSH1 0x32 PUSH1 0x4 MSTORE PUSH1 0x24 PUSH0 REVERT JUMPDEST SWAP2 SWAP1 DUP3 MLOAD SWAP3 DUP4 DUP3 MSTORE PUSH0 JUMPDEST DUP5 DUP2 LT PUSH3 0x1318 JUMPI POP POP DUP3 PUSH0 PUSH1 0x20 DUP1 SWAP5 SWAP6 DUP5 ADD ADD MSTORE PUSH1 0x1F DUP1 NOT SWAP2 ADD AND ADD ADD SWAP1 JUMP JUMPDEST PUSH1 0x20 DUP2 DUP4 ADD DUP2 ADD MLOAD DUP5 DUP4 ADD DUP3 ADD MSTORE ADD PUSH3 0x12F7 JUMP JUMPDEST ISZERO PUSH3 0x1335 JUMPI JUMP JUMPDEST PUSH1 0x40 MLOAD PUSH3 0x461BCD PUSH1 0xE5 SHL DUP2 MSTORE PUSH1 0x20 PUSH1 0x4 DUP3 ADD MSTORE PUSH1 0xE PUSH1 0x24 DUP3 ADD MSTORE PUSH14 0x496E76616C6964204C5020666565 PUSH1 0x90 SHL PUSH1 0x44 DUP3 ADD MSTORE PUSH1 0x64 SWAP1 REVERT JUMPDEST ISZERO PUSH3 0x1373 JUMPI JUMP JUMPDEST PUSH1 0x40 MLOAD PUSH3 0x461BCD PUSH1 0xE5 SHL DUP2 MSTORE PUSH1 0x20 PUSH1 0x4 DUP3 ADD MSTORE PUSH1 0x14 PUSH1 0x24 DUP3 ADD MSTORE PUSH20 0x496E76616C69642070726F746F636F6C20666565 PUSH1 0x60 SHL PUSH1 0x44 DUP3 ADD MSTORE PUSH1 0x64 SWAP1 REVERT JUMPDEST PUSH1 0x1 PUSH1 0x1 PUSH1 0xA0 SHL SUB SWAP1 DUP2 AND SWAP1 DUP2 ISZERO PUSH3 0x140A JUMPI PUSH0 DUP1 MLOAD PUSH1 0x20 PUSH3 0x3714 DUP4 CODECOPY DUP2 MLOAD SWAP2 MSTORE DUP1 SLOAD PUSH1 0x1 PUSH1 0x1 PUSH1 0xA0 SHL SUB NOT DUP2 AND DUP5 OR SWAP1 SWAP2 SSTORE AND PUSH32 0x8BE0079C531659141344CD1FD0A4F28419497F9722A3DAAFE3B4186F6B6457E0 PUSH0 DUP1 LOG3 JUMP JUMPDEST PUSH1 0x40 MLOAD PUSH4 0x1E4FBDF7 PUSH1 0xE0 SHL DUP2 MSTORE PUSH0 PUSH1 0x4 DUP3 ADD MSTORE PUSH1 0x24 SWAP1 REVERT JUMPDEST PUSH0 DUP1 MLOAD PUSH1 0x20 PUSH3 0x3714 DUP4 CODECOPY DUP2 MLOAD SWAP2 MSTORE SLOAD PUSH1 0x1 PUSH1 0x1 PUSH1 0xA0 SHL SUB AND CALLER SUB PUSH3 0x1444 JUMPI JUMP JUMPDEST PUSH1 0x40 MLOAD PUSH4 0x118CDAA7 PUSH1 0xE0 SHL DUP2 MSTORE CALLER PUSH1 0x4 DUP3 ADD MSTORE PUSH1 0x24 SWAP1 REVERT JUMPDEST PUSH1 0xFF PUSH32 0xF0C57E16840DF040F15088DC2F81FE391C3923BEC73E23A9662EFC9C229C6A00 SLOAD PUSH1 0x40 SHR AND ISZERO PUSH3 0x148C JUMPI JUMP JUMPDEST PUSH1 0x40 MLOAD PUSH4 0x1AFCD79F PUSH1 0xE3 SHL DUP2 MSTORE PUSH1 0x4 SWAP1 REVERT JUMPDEST SWAP1 PUSH3 0x14C7 JUMPI POP DUP1 MLOAD ISZERO PUSH3 0x14B5 JUMPI PUSH1 0x20 DUP2 MLOAD SWAP2 ADD REVERT JUMPDEST PUSH1 0x40 MLOAD PUSH4 0xD6BDA275 PUSH1 0xE0 SHL DUP2 MSTORE PUSH1 0x4 SWAP1 REVERT JUMPDEST DUP2 MLOAD ISZERO DUP1 PUSH3 0x14FC JUMPI JUMPDEST PUSH3 0x14DA JUMPI POP SWAP1 JUMP JUMPDEST PUSH1 0x40 MLOAD PUSH4 0x9996B315 PUSH1 0xE0 SHL DUP2 MSTORE PUSH1 0x1 PUSH1 0x1 PUSH1 0xA0 SHL SUB SWAP1 SWAP2 AND PUSH1 0x4 DUP3 ADD MSTORE PUSH1 0x24 SWAP1 REVERT JUMPDEST POP DUP1 EXTCODESIZE ISZERO PUSH3 0x14D1 JUMP INVALID PUSH2 0x1A0 PUSH1 0x40 MSTORE CALLVALUE PUSH3 0x48A JUMPI PUSH3 0x220D DUP1 CODESIZE SUB DUP1 PUSH3 0x1E DUP2 PUSH3 0x48E JUMP JUMPDEST SWAP3 DUP4 CODECOPY DUP2 ADD PUSH2 0x160 DUP1 DUP4 DUP4 SUB SLT PUSH3 0x48A JUMPI DUP3 MLOAD PUSH1 0x1 PUSH1 0x1 PUSH1 0x40 SHL SUB SWAP2 SWAP1 DUP3 DUP2 GT PUSH3 0x48A JUMPI DUP4 PUSH3 0x52 SWAP2 DUP7 ADD PUSH3 0x4B4 JUMP JUMPDEST SWAP4 PUSH1 0x20 DUP1 DUP3 ADD MLOAD DUP5 DUP2 GT PUSH3 0x48A JUMPI PUSH3 0xBE SWAP6 PUSH3 0x73 SWAP2 DUP5 ADD PUSH3 0x4B4 JUMP JUMPDEST SWAP1 PUSH3 0x82 PUSH1 0x40 DUP5 ADD PUSH3 0x524 JUMP JUMPDEST PUSH3 0x90 PUSH1 0x60 DUP6 ADD PUSH3 0x524 JUMP JUMPDEST SWAP1 PUSH1 0x80 DUP6 ADD MLOAD PUSH1 0xA0 DUP7 ADD MLOAD SWAP1 PUSH1 0xC0 DUP8 ADD MLOAD SWAP3 PUSH1 0xE0 DUP9 ADD MLOAD SWAP5 PUSH2 0x100 SWAP13 DUP14 DUP11 ADD MLOAD SWAP8 PUSH2 0x120 SWAP14 DUP15 DUP13 ADD PUSH3 0x524 JUMP JUMPDEST SWAP13 PUSH3 0xCF PUSH2 0x140 DUP1 SWAP14 ADD PUSH3 0x524 JUMP JUMPDEST SWAP11 DUP4 MLOAD DUP3 DUP2 GT PUSH3 0x395 JUMPI PUSH1 0x3 SWAP2 DUP3 SLOAD SWAP2 PUSH1 0x1 SWAP7 DUP8 DUP5 DUP2 SHR SWAP5 AND DUP1 ISZERO PUSH3 0x47F JUMPI JUMPDEST DUP8 DUP6 LT EQ PUSH3 0x46B JUMPI DUP2 SWAP1 PUSH1 0x1F SWAP5 DUP6 DUP2 GT PUSH3 0x418 JUMPI JUMPDEST POP DUP8 SWAP1 DUP6 DUP4 GT PUSH1 0x1 EQ PUSH3 0x3B5 JUMPI PUSH0 SWAP3 PUSH3 0x3A9 JUMPI JUMPDEST POP POP PUSH0 NOT DUP3 DUP7 SHL SHR NOT AND SWAP1 DUP8 SHL OR DUP4 SSTORE JUMPDEST DUP1 MLOAD SWAP4 DUP5 GT PUSH3 0x395 JUMPI PUSH1 0x4 SWAP5 DUP6 SLOAD DUP8 DUP2 DUP2 SHR SWAP2 AND DUP1 ISZERO PUSH3 0x38A JUMPI JUMPDEST DUP3 DUP3 LT EQ PUSH3 0x377 JUMPI SWAP1 DUP2 DUP5 DUP8 SWAP7 SWAP6 SWAP5 SWAP4 GT PUSH3 0x31E JUMPI JUMPDEST POP DUP1 SWAP3 DUP6 GT PUSH1 0x1 EQ PUSH3 0x2B4 JUMPI POP PUSH0 SWAP4 PUSH3 0x2A8 JUMPI JUMPDEST POP POP DUP3 DUP6 SHL SWAP3 PUSH0 NOT SWAP2 SHL SHR NOT AND OR SWAP1 SSTORE JUMPDEST PUSH1 0x5 SSTORE PUSH1 0x1 PUSH1 0x1 PUSH1 0xA0 SHL SUB SWAP2 DUP3 AND PUSH1 0x80 MSTORE AND PUSH1 0xA0 MSTORE PUSH1 0xC0 MSTORE PUSH1 0xE0 MSTORE DUP9 MSTORE DUP4 MSTORE DUP4 MSTORE PUSH2 0x180 SWAP4 DUP5 MSTORE DUP5 MSTORE PUSH1 0x40 MLOAD PUSH2 0x1CD3 SWAP6 SWAP1 SWAP5 SWAP1 DUP7 PUSH3 0x53A DUP8 CODECOPY PUSH1 0x80 MLOAD DUP7 PUSH2 0x43F ADD MSTORE PUSH1 0xA0 MLOAD DUP7 DUP2 DUP2 PUSH2 0x2C9 ADD MSTORE DUP2 DUP2 PUSH2 0x4E3 ADD MSTORE DUP2 DUP2 PUSH2 0x86B ADD MSTORE DUP2 DUP2 PUSH2 0xD44 ADD MSTORE DUP2 DUP2 PUSH2 0x12A8 ADD MSTORE PUSH2 0x1507 ADD MSTORE PUSH1 0xC0 MLOAD DUP7 PUSH2 0xF5B ADD MSTORE PUSH1 0xE0 MLOAD DUP7 DUP2 DUP2 PUSH2 0x2A6 ADD MSTORE DUP2 DUP2 PUSH2 0x529 ADD MSTORE DUP2 DUP2 PUSH2 0x8B2 ADD MSTORE DUP2 DUP2 PUSH2 0xF96 ADD MSTORE DUP2 DUP2 PUSH2 0x134B ADD MSTORE PUSH2 0x14E6 ADD MSTORE MLOAD DUP6 DUP2 DUP2 PUSH2 0x360 ADD MSTORE DUP2 DUP2 PUSH2 0x582 ADD MSTORE DUP2 DUP2 PUSH2 0x90E ADD MSTORE DUP2 DUP2 PUSH2 0xD0C ADD MSTORE DUP2 DUP2 PUSH2 0x1287 ADD MSTORE PUSH2 0x15A7 ADD MSTORE MLOAD DUP5 DUP2 DUP2 PUSH2 0xC2B ADD MSTORE PUSH2 0xDC7 ADD MSTORE MLOAD DUP4 DUP2 DUP2 PUSH2 0x182 ADD MSTORE DUP2 DUP2 PUSH2 0xBB7 ADD MSTORE PUSH2 0x11F3 ADD MSTORE MLOAD DUP3 DUP2 DUP2 PUSH2 0xB96 ADD MSTORE DUP2 DUP2 PUSH2 0xD8B ADD MSTORE PUSH2 0x1222 ADD MSTORE MLOAD DUP2 DUP2 DUP2 PUSH2 0xCC5 ADD MSTORE DUP2 DUP2 PUSH2 0x13FF ADD MSTORE PUSH2 0x1614 ADD MSTORE RETURN JUMPDEST ADD MLOAD SWAP2 POP PUSH0 DUP1 PUSH3 0x17A JUMP JUMPDEST SWAP3 SWAP2 SWAP1 DUP8 SWAP6 POP PUSH1 0x1F NOT DUP6 AND DUP8 PUSH0 MSTORE DUP5 PUSH0 KECCAK256 SWAP5 PUSH0 SWAP1 JUMPDEST DUP3 DUP3 LT PUSH3 0x304 JUMPI POP POP DUP6 GT PUSH3 0x2EA JUMPI JUMPDEST POP POP POP POP DUP2 SHL ADD SWAP1 SSTORE PUSH3 0x18B JUMP JUMPDEST ADD MLOAD SWAP1 PUSH1 0xF8 DUP5 PUSH0 NOT SWAP3 SHL AND SHR NOT AND SWAP1 SSTORE PUSH0 DUP1 DUP1 DUP1 PUSH3 0x2DB JUMP JUMPDEST DUP5 DUP5 ADD MLOAD DUP8 SSTORE DUP11 SWAP9 SWAP1 SWAP7 ADD SWAP6 SWAP4 DUP5 ADD SWAP4 SWAP1 DUP2 ADD SWAP1 PUSH3 0x2C9 JUMP JUMPDEST SWAP1 SWAP2 SWAP3 SWAP4 SWAP5 POP DUP7 PUSH0 MSTORE DUP2 PUSH0 KECCAK256 DUP5 DUP1 DUP9 ADD PUSH1 0x5 SHR DUP3 ADD SWAP3 DUP5 DUP10 LT PUSH3 0x36D JUMPI JUMPDEST SWAP2 DUP11 SWAP2 DUP10 SWAP9 SWAP8 SWAP7 SWAP6 SWAP5 SWAP4 ADD PUSH1 0x5 SHR ADD SWAP2 JUMPDEST DUP3 DUP2 LT PUSH3 0x35E JUMPI POP POP PUSH3 0x164 JUMP JUMPDEST PUSH0 DUP2 SSTORE DUP9 SWAP8 POP DUP11 SWAP2 ADD PUSH3 0x34E JUMP JUMPDEST SWAP3 POP DUP2 SWAP3 PUSH3 0x33D JUMP JUMPDEST PUSH1 0x22 DUP8 PUSH4 0x4E487B71 PUSH1 0xE0 SHL PUSH0 MSTORE MSTORE PUSH1 0x24 PUSH0 REVERT JUMPDEST SWAP1 PUSH1 0x7F AND SWAP1 PUSH3 0x14C JUMP JUMPDEST PUSH4 0x4E487B71 PUSH1 0xE0 SHL PUSH0 MSTORE PUSH1 0x41 PUSH1 0x4 MSTORE PUSH1 0x24 PUSH0 REVERT JUMPDEST ADD MLOAD SWAP1 POP PUSH0 DUP1 PUSH3 0x11E JUMP JUMPDEST SWAP1 DUP10 SWAP4 POP PUSH1 0x1F NOT DUP4 AND SWAP2 DUP8 PUSH0 MSTORE DUP10 PUSH0 KECCAK256 SWAP3 PUSH0 JUMPDEST DUP12 DUP3 DUP3 LT PUSH3 0x401 JUMPI POP POP DUP5 GT PUSH3 0x3E9 JUMPI JUMPDEST POP POP POP DUP2 SHL ADD DUP4 SSTORE PUSH3 0x12F JUMP JUMPDEST ADD MLOAD PUSH0 NOT DUP4 DUP9 SHL PUSH1 0xF8 AND SHR NOT AND SWAP1 SSTORE PUSH0 DUP1 DUP1 PUSH3 0x3DB JUMP JUMPDEST DUP4 DUP6 ADD MLOAD DUP7 SSTORE DUP14 SWAP8 SWAP1 SWAP6 ADD SWAP5 SWAP4 DUP5 ADD SWAP4 ADD PUSH3 0x3C8 JUMP JUMPDEST SWAP1 SWAP2 POP DUP6 PUSH0 MSTORE DUP8 PUSH0 KECCAK256 DUP6 DUP1 DUP6 ADD PUSH1 0x5 SHR DUP3 ADD SWAP3 DUP11 DUP7 LT PUSH3 0x461 JUMPI JUMPDEST SWAP2 DUP12 SWAP2 DUP7 SWAP6 SWAP5 SWAP4 ADD PUSH1 0x5 SHR ADD SWAP2 JUMPDEST DUP3 DUP2 LT PUSH3 0x452 JUMPI POP POP PUSH3 0x108 JUMP JUMPDEST PUSH0 DUP2 SSTORE DUP6 SWAP5 POP DUP12 SWAP2 ADD PUSH3 0x442 JUMP JUMPDEST SWAP3 POP DUP2 SWAP3 PUSH3 0x434 JUMP JUMPDEST PUSH4 0x4E487B71 PUSH1 0xE0 SHL PUSH0 MSTORE PUSH1 0x22 PUSH1 0x4 MSTORE PUSH1 0x24 PUSH0 REVERT JUMPDEST SWAP4 PUSH1 0x7F AND SWAP4 PUSH3 0xF1 JUMP JUMPDEST PUSH0 DUP1 REVERT JUMPDEST PUSH1 0x40 MLOAD SWAP2 SWAP1 PUSH1 0x1F ADD PUSH1 0x1F NOT AND DUP3 ADD PUSH1 0x1 PUSH1 0x1 PUSH1 0x40 SHL SUB DUP2 GT DUP4 DUP3 LT OR PUSH3 0x395 JUMPI PUSH1 0x40 MSTORE JUMP JUMPDEST SWAP2 SWAP1 DUP1 PUSH1 0x1F DUP5 ADD SLT ISZERO PUSH3 0x48A JUMPI DUP3 MLOAD PUSH1 0x1 PUSH1 0x1 PUSH1 0x40 SHL SUB DUP2 GT PUSH3 0x395 JUMPI PUSH1 0x20 SWAP1 PUSH3 0x4EA PUSH1 0x1F DUP3 ADD PUSH1 0x1F NOT AND DUP4 ADD PUSH3 0x48E JUMP JUMPDEST SWAP3 DUP2 DUP5 MSTORE DUP3 DUP3 DUP8 ADD ADD GT PUSH3 0x48A JUMPI PUSH0 JUMPDEST DUP2 DUP2 LT PUSH3 0x510 JUMPI POP DUP3 PUSH0 SWAP4 SWAP5 SWAP6 POP ADD ADD MSTORE SWAP1 JUMP JUMPDEST DUP6 DUP2 ADD DUP4 ADD MLOAD DUP5 DUP3 ADD DUP5 ADD MSTORE DUP3 ADD PUSH3 0x4FB JUMP JUMPDEST MLOAD SWAP1 PUSH1 0x1 PUSH1 0x1 PUSH1 0xA0 SHL SUB DUP3 AND DUP3 SUB PUSH3 0x48A JUMPI JUMP INVALID PUSH1 0x80 PUSH1 0x40 DUP2 DUP2 MSTORE PUSH1 0x4 SWAP2 DUP3 CALLDATASIZE LT ISZERO PUSH2 0x15 JUMPI PUSH0 DUP1 REVERT JUMPDEST PUSH0 SWAP3 PUSH0 CALLDATALOAD PUSH1 0xE0 SHR SWAP2 DUP3 PUSH4 0x6FDDE03 EQ PUSH2 0x1722 JUMPI POP DUP2 PUSH4 0x8C84C21 EQ PUSH2 0x119A JUMPI DUP2 PUSH4 0x902F1AC EQ PUSH2 0x1175 JUMPI DUP2 PUSH4 0x95EA7B3 EQ PUSH2 0x10CB JUMPI DUP2 PUSH4 0x18160DDD EQ PUSH2 0x10AC JUMPI DUP2 PUSH4 0x23B872DD EQ PUSH2 0xFB9 JUMPI DUP2 PUSH4 0x2474B6BC EQ PUSH2 0xF7E JUMPI DUP2 PUSH4 0x2DDC7DE7 EQ PUSH2 0xF43 JUMPI DUP2 PUSH4 0x313CE567 EQ PUSH2 0xF27 JUMPI DUP2 PUSH4 0x3F6FA655 EQ PUSH2 0xF03 JUMPI DUP2 PUSH4 0x4F896D4F EQ PUSH2 0xDAE JUMPI DUP2 PUSH4 0x58F85880 EQ PUSH2 0xD73 JUMPI DUP2 PUSH4 0x5BD9E299 EQ PUSH2 0xD2F JUMPI DUP2 PUSH4 0x60E30D9E EQ PUSH2 0xCF4 JUMPI DUP2 PUSH4 0x61D027B3 EQ PUSH2 0xCB0 JUMPI DUP2 PUSH4 0x70A08231 EQ PUSH2 0xC79 JUMPI DUP2 PUSH4 0x72A9FA6E EQ PUSH2 0xC5A JUMPI DUP2 PUSH4 0x7DC0D1D0 EQ PUSH2 0xC16 JUMPI DUP2 PUSH4 0x827B6508 EQ PUSH2 0xB6A JUMPI DUP2 PUSH4 0x8779086F EQ PUSH2 0xB46 JUMPI DUP2 PUSH4 0x95D89B41 EQ PUSH2 0xA41 JUMPI DUP2 PUSH4 0x9B34AE03 EQ PUSH2 0xA22 JUMPI DUP2 PUSH4 0x9C8F9F23 EQ PUSH2 0x7C4 JUMPI DUP2 PUSH4 0x9CD441DA EQ PUSH2 0x49F JUMPI DUP2 PUSH4 0xA9059CBB EQ PUSH2 0x46E JUMPI DUP2 PUSH4 0xB2016BD4 EQ PUSH2 0x42A JUMPI DUP2 PUSH4 0xB2670D74 EQ PUSH2 0x40B JUMPI DUP2 PUSH4 0xBDEDA833 EQ PUSH2 0x1F5 JUMPI POP DUP1 PUSH4 0xDD62ED3E EQ PUSH2 0x1A9 JUMPI PUSH4 0xF5B9848D EQ PUSH2 0x16C JUMPI PUSH0 DUP1 REVERT JUMPDEST CALLVALUE PUSH2 0x1A5 JUMPI DUP2 PUSH1 0x3 NOT CALLDATASIZE ADD SLT PUSH2 0x1A5 JUMPI PUSH1 0x20 SWAP1 MLOAD PUSH32 0x0 DUP2 MSTORE RETURN JUMPDEST POP DUP1 REVERT JUMPDEST POP CALLVALUE PUSH2 0x1A5 JUMPI DUP1 PUSH1 0x3 NOT CALLDATASIZE ADD SLT PUSH2 0x1A5 JUMPI PUSH1 0x20 SWAP2 PUSH2 0x1C5 PUSH2 0x1869 JUMP JUMPDEST DUP3 PUSH2 0x1CE PUSH2 0x187F JUMP JUMPDEST PUSH1 0x1 PUSH1 0x1 PUSH1 0xA0 SHL SUB SWAP3 DUP4 AND DUP5 MSTORE PUSH1 0x1 DUP7 MSTORE SWAP3 KECCAK256 SWAP2 AND PUSH0 SWAP1 DUP2 MSTORE SWAP1 DUP4 MSTORE DUP2 SWAP1 KECCAK256 SLOAD SWAP1 MLOAD SWAP1 DUP2 MSTORE RETURN JUMPDEST SWAP2 SWAP1 POP CALLVALUE PUSH2 0x34F JUMPI PUSH1 0x20 CALLDATASIZE PUSH1 0x3 NOT ADD SLT PUSH2 0x34F JUMPI DUP2 CALLDATALOAD SWAP2 PUSH2 0x214 PUSH2 0x1B07 JUMP JUMPDEST PUSH1 0xFF PUSH1 0x8 SLOAD AND ISZERO PUSH2 0x3D3 JUMPI PUSH2 0x22A DUP4 ISZERO ISZERO PUSH2 0x18DF JUMP JUMPDEST CALLER DUP5 MSTORE DUP4 PUSH1 0x20 MSTORE PUSH2 0x240 DUP4 DUP4 DUP7 KECCAK256 SLOAD LT ISZERO PUSH2 0x1AC2 JUMP JUMPDEST PUSH1 0x2 SLOAD SWAP3 PUSH2 0x24F DUP5 ISZERO ISZERO PUSH2 0x1969 JUMP JUMPDEST PUSH2 0x272 PUSH1 0x1 PUSH1 0x9 SLOAD EQ SWAP5 DUP6 PUSH0 EQ PUSH2 0x3C8 JUMPI PUSH2 0x26D PUSH1 0x6 SLOAD JUMPDEST DUP5 PUSH2 0x19C5 JUMP JUMPDEST PUSH2 0x19D8 JUMP JUMPDEST SWAP4 DUP5 ISZERO PUSH2 0x399 JUMPI PUSH2 0x299 SWAP2 SWAP1 ISZERO PUSH2 0x385 JUMPI PUSH2 0x28F DUP6 PUSH1 0x6 SLOAD PUSH2 0x19F6 JUMP JUMPDEST PUSH1 0x6 SSTORE JUMPDEST CALLER PUSH2 0x1BF1 JUMP JUMPDEST PUSH1 0x9 SLOAD PUSH1 0x1 SUB PUSH2 0x35D JUMPI DUP4 PUSH32 0x0 SWAP2 JUMPDEST PUSH32 0x0 PUSH1 0x1 PUSH1 0x1 PUSH1 0xA0 SHL SUB AND DUP1 EXTCODESIZE ISZERO PUSH2 0x34F JUMPI PUSH2 0x31D SWAP4 DUP4 DUP8 SWAP4 DUP8 MLOAD SWAP7 DUP8 SWAP6 DUP7 SWAP5 DUP6 SWAP4 PUSH4 0x79212195 PUSH1 0xE1 SHL DUP6 MSTORE CALLER SWAP1 ADDRESS SWAP1 DUP7 ADD PUSH2 0x1A03 JUMP JUMPDEST SUB SWAP3 GAS CALL DUP1 ISZERO PUSH2 0x353 JUMPI PUSH2 0x33B JUMPI JUMPDEST PUSH1 0x20 DUP4 DUP4 PUSH1 0x1 PUSH1 0x5 SSTORE MLOAD SWAP1 DUP2 MSTORE RETURN JUMPDEST PUSH2 0x345 DUP5 SWAP2 PUSH2 0x1895 JUMP JUMPDEST PUSH2 0x34F JUMPI DUP3 PUSH2 0x32C JUMP JUMPDEST DUP3 DUP1 REVERT JUMPDEST DUP3 MLOAD RETURNDATASIZE DUP7 DUP3 RETURNDATACOPY RETURNDATASIZE SWAP1 REVERT JUMPDEST DUP4 PUSH32 0x0 SWAP2 PUSH2 0x2C7 JUMP JUMPDEST PUSH2 0x391 DUP6 PUSH1 0x7 SLOAD PUSH2 0x19F6 JUMP JUMPDEST PUSH1 0x7 SSTORE PUSH2 0x293 JUMP JUMPDEST DUP4 MLOAD PUSH3 0x461BCD PUSH1 0xE5 SHL DUP2 MSTORE PUSH1 0x20 DUP2 DUP6 ADD MSTORE PUSH1 0x9 PUSH1 0x24 DUP3 ADD MSTORE PUSH9 0x139BC81C185E5BDD5D PUSH1 0xBA SHL PUSH1 0x44 DUP3 ADD MSTORE PUSH1 0x64 SWAP1 REVERT JUMPDEST PUSH2 0x26D PUSH1 0x7 SLOAD PUSH2 0x267 JUMP JUMPDEST PUSH1 0x20 PUSH1 0x64 SWAP3 MLOAD SWAP2 PUSH3 0x461BCD PUSH1 0xE5 SHL DUP4 MSTORE DUP3 ADD MSTORE PUSH1 0x13 PUSH1 0x24 DUP3 ADD MSTORE PUSH19 0x13585C9AD95D081B9BDD081C995CDBDB1D9959 PUSH1 0x6A SHL PUSH1 0x44 DUP3 ADD MSTORE REVERT JUMPDEST POP POP CALLVALUE PUSH2 0x1A5 JUMPI DUP2 PUSH1 0x3 NOT CALLDATASIZE ADD SLT PUSH2 0x1A5 JUMPI PUSH1 0x20 SWAP1 PUSH1 0x6 SLOAD SWAP1 MLOAD SWAP1 DUP2 MSTORE RETURN JUMPDEST POP POP CALLVALUE PUSH2 0x1A5 JUMPI DUP2 PUSH1 0x3 NOT CALLDATASIZE ADD SLT PUSH2 0x1A5 JUMPI MLOAD PUSH32 0x0 PUSH1 0x1 PUSH1 0x1 PUSH1 0xA0 SHL SUB AND DUP2 MSTORE PUSH1 0x20 SWAP1 RETURN JUMPDEST POP POP CALLVALUE PUSH2 0x1A5 JUMPI DUP1 PUSH1 0x3 NOT CALLDATASIZE ADD SLT PUSH2 0x1A5 JUMPI PUSH1 0x20 SWAP1 PUSH2 0x498 PUSH2 0x48E PUSH2 0x1869 JUMP JUMPDEST PUSH1 0x24 CALLDATALOAD SWAP1 CALLER PUSH2 0x1B2A JUMP JUMPDEST MLOAD PUSH1 0x1 DUP2 MSTORE RETURN JUMPDEST SWAP2 SWAP1 POP CALLVALUE PUSH2 0x34F JUMPI DUP1 PUSH1 0x3 NOT CALLDATASIZE ADD SLT PUSH2 0x34F JUMPI DUP2 CALLDATALOAD PUSH1 0x24 CALLDATALOAD SWAP4 PUSH2 0x4C0 PUSH2 0x1B07 JUMP JUMPDEST DUP2 ISZERO ISZERO DUP1 PUSH2 0x7BB JUMPI JUMPDEST PUSH2 0x4D2 SWAP1 PUSH2 0x18DF JUMP JUMPDEST PUSH2 0x4E1 PUSH1 0xFF PUSH1 0x8 SLOAD AND ISZERO PUSH2 0x192B JUMP JUMPDEST PUSH32 0x0 PUSH1 0x1 PUSH1 0x1 PUSH1 0xA0 SHL SUB AND DUP1 EXTCODESIZE ISZERO PUSH2 0x1A5 JUMPI DUP4 MLOAD PUSH4 0x79212195 PUSH1 0xE1 SHL DUP1 DUP3 MSTORE SWAP1 DUP4 DUP2 DUP1 PUSH2 0x552 DUP9 PUSH32 0x0 ADDRESS CALLER DUP15 DUP7 ADD PUSH2 0x1A03 JUMP JUMPDEST SUB DUP2 DUP4 DUP8 GAS CALL DUP1 ISZERO PUSH2 0x7B1 JUMPI SWAP1 DUP5 SWAP2 PUSH2 0x79D JUMPI JUMPDEST POP POP DUP2 EXTCODESIZE ISZERO PUSH2 0x34F JUMPI DUP5 MLOAD SWAP1 DUP2 MSTORE SWAP1 DUP3 SWAP1 DUP3 SWAP1 DUP2 DUP4 DUP2 PUSH2 0x5AB DUP13 PUSH32 0x0 ADDRESS CALLER DUP16 DUP7 ADD PUSH2 0x1A03 JUMP JUMPDEST SUB SWAP3 GAS CALL DUP1 ISZERO PUSH2 0x793 JUMPI SWAP1 DUP3 SWAP2 PUSH2 0x77C JUMPI JUMPDEST POP POP PUSH1 0x2 SLOAD SWAP1 DUP2 PUSH2 0x74F JUMPI PUSH2 0x5D2 DUP7 DUP5 PUSH2 0x19A4 JUMP JUMPDEST SWAP2 PUSH2 0x3E8 SWAP1 DUP2 DUP5 LT PUSH2 0x70C JUMPI DUP2 DUP2 ADD DUP1 SWAP2 GT PUSH2 0x6F9 JUMPI PUSH0 DUP1 MLOAD PUSH1 0x20 PUSH2 0x1C7E DUP4 CODECOPY DUP2 MLOAD SWAP2 MSTORE PUSH1 0x20 PUSH1 0x1 SWAP4 PUSH0 SWAP4 PUSH1 0x2 SSTORE DUP5 DUP5 MSTORE DUP4 DUP3 MSTORE DUP9 DUP5 KECCAK256 DUP2 DUP2 SLOAD ADD SWAP1 SSTORE DUP9 MLOAD SWAP1 DUP2 MSTORE LOG3 PUSH2 0x3E7 NOT DUP3 ADD SWAP2 DUP3 GT PUSH2 0x6E6 JUMPI POP SWAP3 JUMPDEST PUSH2 0x630 DUP5 ISZERO ISZERO PUSH2 0x1AC2 JUMP JUMPDEST PUSH2 0x63C DUP3 PUSH1 0x6 SLOAD PUSH2 0x19A4 JUMP JUMPDEST PUSH1 0x6 SSTORE PUSH2 0x64B DUP6 PUSH1 0x7 SLOAD PUSH2 0x19A4 JUMP JUMPDEST PUSH1 0x7 SSTORE CALLER ISZERO PUSH2 0x6D0 JUMPI POP PUSH32 0x64B83944E79C3CE8D4C297411DE637C3E102D064677AAC0C163976EBDCD6F50E DUP4 PUSH1 0x20 SWAP6 PUSH2 0x686 DUP3 PUSH1 0x2 SLOAD PUSH2 0x19A4 JUMP JUMPDEST PUSH1 0x2 SSTORE CALLER PUSH0 MSTORE PUSH0 DUP8 MSTORE DUP5 PUSH0 KECCAK256 DUP3 DUP2 SLOAD ADD SWAP1 SSTORE DUP5 MLOAD DUP3 DUP2 MSTORE PUSH0 PUSH0 DUP1 MLOAD PUSH1 0x20 PUSH2 0x1C7E DUP4 CODECOPY DUP2 MLOAD SWAP2 MSTORE DUP10 CALLER SWAP4 LOG3 DUP5 MLOAD SWAP4 DUP5 MSTORE PUSH1 0x20 DUP5 ADD MSTORE PUSH1 0x40 DUP4 ADD MSTORE CALLER SWAP2 PUSH1 0x60 SWAP1 LOG2 PUSH1 0x1 PUSH1 0x5 SSTORE MLOAD SWAP1 DUP2 MSTORE RETURN JUMPDEST PUSH1 0x24 SWAP1 PUSH0 DUP5 MLOAD SWAP2 PUSH4 0xEC442F05 PUSH1 0xE0 SHL DUP4 MSTORE DUP3 ADD MSTORE REVERT JUMPDEST PUSH4 0x4E487B71 PUSH1 0xE0 SHL DUP2 MSTORE PUSH1 0x11 DUP6 MSTORE PUSH1 0x24 SWAP1 REVERT JUMPDEST PUSH1 0x11 DUP8 PUSH4 0x4E487B71 PUSH1 0xE0 SHL PUSH0 MSTORE MSTORE PUSH1 0x24 PUSH0 REVERT JUMPDEST DUP6 MLOAD PUSH3 0x461BCD PUSH1 0xE5 SHL DUP2 MSTORE PUSH1 0x20 DUP2 DUP10 ADD MSTORE PUSH1 0x1E PUSH1 0x24 DUP3 ADD MSTORE PUSH32 0x496E73756666696369656E7420696E697469616C206C69717569646974790000 PUSH1 0x44 DUP3 ADD MSTORE PUSH1 0x64 SWAP1 REVERT JUMPDEST POP PUSH2 0x776 SWAP1 PUSH2 0x26D PUSH2 0x766 PUSH1 0x6 SLOAD PUSH1 0x7 SLOAD SWAP1 PUSH2 0x19A4 JUMP JUMPDEST SWAP2 PUSH2 0x771 DUP9 DUP7 PUSH2 0x19A4 JUMP JUMPDEST PUSH2 0x19C5 JUMP JUMPDEST SWAP3 PUSH2 0x625 JUMP JUMPDEST PUSH2 0x785 SWAP1 PUSH2 0x1895 JUMP JUMPDEST PUSH2 0x790 JUMPI DUP1 PUSH0 PUSH2 0x5BD JUMP JUMPDEST DUP1 REVERT JUMPDEST DUP5 MLOAD RETURNDATASIZE DUP5 DUP3 RETURNDATACOPY RETURNDATASIZE SWAP1 REVERT JUMPDEST PUSH2 0x7A6 SWAP1 PUSH2 0x1895 JUMP JUMPDEST PUSH2 0x34F JUMPI DUP3 PUSH0 PUSH2 0x566 JUMP JUMPDEST DUP7 MLOAD RETURNDATASIZE DUP7 DUP3 RETURNDATACOPY RETURNDATASIZE SWAP1 REVERT JUMPDEST POP DUP5 ISZERO ISZERO PUSH2 0x4C9 JUMP JUMPDEST DUP4 SWAP2 POP CALLVALUE PUSH2 0x1A5 JUMPI PUSH1 0x20 CALLDATASIZE PUSH1 0x3 NOT ADD SLT PUSH2 0x1A5 JUMPI DUP1 CALLDATALOAD PUSH2 0x7E2 PUSH2 0x1B07 JUMP JUMPDEST PUSH2 0x7ED DUP2 ISZERO ISZERO PUSH2 0x18DF JUMP JUMPDEST CALLER DUP4 MSTORE DUP3 PUSH1 0x20 MSTORE PUSH2 0x803 DUP2 DUP6 DUP6 KECCAK256 SLOAD LT ISZERO PUSH2 0x1AC2 JUMP JUMPDEST PUSH1 0x2 SLOAD SWAP3 PUSH2 0x812 DUP5 ISZERO ISZERO PUSH2 0x1969 JUMP JUMPDEST PUSH1 0x6 SLOAD SWAP3 PUSH2 0x824 DUP6 PUSH2 0x26D DUP7 DUP7 PUSH2 0x19C5 JUMP JUMPDEST SWAP5 PUSH2 0x836 PUSH1 0x7 SLOAD SWAP2 PUSH2 0x26D DUP4 DUP8 PUSH2 0x19C5 JUMP JUMPDEST SWAP5 DUP7 ISZERO ISZERO DUP1 PUSH2 0xA19 JUMPI JUMPDEST ISZERO PUSH2 0x9E0 JUMPI PUSH2 0x85C SWAP2 PUSH2 0x854 DUP9 DUP9 SWAP4 PUSH2 0x19F6 JUMP JUMPDEST PUSH1 0x6 SSTORE PUSH2 0x19F6 JUMP JUMPDEST PUSH1 0x7 SSTORE PUSH2 0x869 DUP4 CALLER PUSH2 0x1BF1 JUMP JUMPDEST PUSH32 0x0 PUSH1 0x1 PUSH1 0x1 PUSH1 0xA0 SHL SUB AND SWAP1 DUP2 EXTCODESIZE ISZERO PUSH2 0x34F JUMPI DUP7 MLOAD PUSH4 0x79212195 PUSH1 0xE1 SHL DUP1 DUP3 MSTORE SWAP1 DUP5 DUP2 DUP1 PUSH2 0x8DB DUP12 PUSH32 0x0 CALLER ADDRESS DUP11 DUP7 ADD PUSH2 0x1A03 JUMP JUMPDEST SUB DUP2 DUP4 DUP9 GAS CALL DUP1 ISZERO PUSH2 0x9D6 JUMPI SWAP1 DUP6 SWAP2 PUSH2 0x9C2 JUMPI JUMPDEST POP POP DUP3 EXTCODESIZE ISZERO PUSH2 0x9BE JUMPI PUSH2 0x939 SWAP3 DUP5 SWAP3 DUP4 DUP9 SWAP4 DUP12 MLOAD SWAP7 DUP8 SWAP6 DUP7 SWAP5 DUP6 SWAP4 DUP5 MSTORE PUSH32 0x0 SWAP1 CALLER SWAP1 ADDRESS SWAP1 DUP7 ADD PUSH2 0x1A03 JUMP JUMPDEST SUB SWAP3 GAS CALL DUP1 ISZERO PUSH2 0x9B4 JUMPI PUSH2 0x9A0 JUMPI JUMPDEST POP POP PUSH32 0x1DC8BB69DF2B8E91FBDCBFCF93D951B3F0000F085A95FE3F7946D6161439245D DUP5 MLOAD DUP1 PUSH2 0x98C CALLER SWAP5 DUP7 DUP9 DUP5 PUSH1 0x40 SWAP2 SWAP5 SWAP4 SWAP3 PUSH1 0x60 DUP3 ADD SWAP6 DUP3 MSTORE PUSH1 0x20 DUP3 ADD MSTORE ADD MSTORE JUMP JUMPDEST SUB SWAP1 LOG2 PUSH1 0x1 PUSH1 0x5 SSTORE DUP3 MLOAD SWAP2 DUP3 MSTORE PUSH1 0x20 DUP3 ADD MSTORE RETURN JUMPDEST PUSH2 0x9AA DUP3 SWAP2 PUSH2 0x1895 JUMP JUMPDEST PUSH2 0x790 JUMPI DUP1 PUSH2 0x948 JUMP JUMPDEST DUP7 MLOAD RETURNDATASIZE DUP5 DUP3 RETURNDATACOPY RETURNDATASIZE SWAP1 REVERT JUMPDEST DUP4 DUP1 REVERT JUMPDEST PUSH2 0x9CB SWAP1 PUSH2 0x1895 JUMP JUMPDEST PUSH2 0x9BE JUMPI DUP4 DUP10 PUSH2 0x8EF JUMP JUMPDEST DUP10 MLOAD RETURNDATASIZE DUP8 DUP3 RETURNDATACOPY RETURNDATASIZE SWAP1 REVERT JUMPDEST DUP8 MLOAD PUSH3 0x461BCD PUSH1 0xE5 SHL DUP2 MSTORE PUSH1 0x20 DUP2 DUP6 ADD MSTORE PUSH1 0x13 PUSH1 0x24 DUP3 ADD MSTORE PUSH19 0x125B9CDD59999A58DA595B9D081BDD5D1C1D5D PUSH1 0x6A SHL PUSH1 0x44 DUP3 ADD MSTORE PUSH1 0x64 SWAP1 REVERT JUMPDEST POP DUP6 ISZERO ISZERO PUSH2 0x840 JUMP JUMPDEST POP POP CALLVALUE PUSH2 0x1A5 JUMPI DUP2 PUSH1 0x3 NOT CALLDATASIZE ADD SLT PUSH2 0x1A5 JUMPI PUSH1 0x20 SWAP1 PUSH1 0x9 SLOAD SWAP1 MLOAD SWAP1 DUP2 MSTORE RETURN JUMPDEST DUP4 DUP4 CALLVALUE PUSH2 0x1A5 JUMPI DUP2 PUSH1 0x3 NOT CALLDATASIZE ADD SLT PUSH2 0x1A5 JUMPI DUP1 MLOAD SWAP2 DUP1 SWAP4 DUP1 SLOAD SWAP2 PUSH1 0x1 SWAP1 DUP4 PUSH1 0x1 SHR SWAP3 PUSH1 0x1 DUP6 AND SWAP5 DUP6 ISZERO PUSH2 0xB3C JUMPI JUMPDEST PUSH1 0x20 SWAP6 DUP7 DUP7 LT DUP2 EQ PUSH2 0xB29 JUMPI DUP6 DUP10 MSTORE SWAP1 DUP2 ISZERO PUSH2 0xB05 JUMPI POP PUSH1 0x1 EQ PUSH2 0xAAD JUMPI JUMPDEST PUSH2 0xAA9 DUP8 DUP8 PUSH2 0xA9F DUP3 DUP13 SUB DUP4 PUSH2 0x18BD JUMP JUMPDEST MLOAD SWAP2 DUP3 SWAP2 DUP3 PUSH2 0x1813 JUMP JUMPDEST SUB SWAP1 RETURN JUMPDEST DUP2 MSTORE SWAP3 SWAP6 POP PUSH32 0x8A35ACFBC15FF81A39AE7D344FD709F28E8600B4AA8C65C6B64BFE7FE36BD19B JUMPDEST DUP3 DUP5 LT PUSH2 0xAF2 JUMPI POP POP POP DUP3 PUSH2 0xAA9 SWAP5 PUSH2 0xA9F SWAP3 DUP3 ADD ADD SWAP5 DUP7 DUP1 PUSH2 0xA8E JUMP JUMPDEST DUP1 SLOAD DUP7 DUP6 ADD DUP9 ADD MSTORE SWAP3 DUP7 ADD SWAP3 DUP2 ADD PUSH2 0xAD4 JUMP JUMPDEST PUSH1 0xFF NOT AND DUP9 DUP8 ADD MSTORE POP POP POP POP ISZERO ISZERO PUSH1 0x5 SHL DUP4 ADD ADD SWAP3 POP PUSH2 0xA9F DUP3 PUSH2 0xAA9 DUP7 DUP1 PUSH2 0xA8E JUMP JUMPDEST PUSH4 0x4E487B71 PUSH1 0xE0 SHL DUP5 MSTORE PUSH1 0x22 DUP4 MSTORE PUSH1 0x24 DUP5 REVERT JUMPDEST SWAP4 PUSH1 0x7F AND SWAP4 PUSH2 0xA6F JUMP JUMPDEST POP POP CALLVALUE PUSH2 0x1A5 JUMPI DUP2 PUSH1 0x3 NOT CALLDATASIZE ADD SLT PUSH2 0x1A5 JUMPI PUSH1 0x20 SWAP1 PUSH2 0xB63 PUSH2 0x1A7A JUMP JUMPDEST SWAP1 MLOAD SWAP1 DUP2 MSTORE RETURN JUMPDEST DUP3 DUP5 CALLVALUE PUSH2 0x790 JUMPI DUP2 PUSH1 0x3 NOT CALLDATASIZE ADD SLT PUSH2 0x790 JUMPI POP PUSH2 0xB85 PUSH2 0x185A JUMP JUMPDEST PUSH1 0x24 CALLDATALOAD PUSH2 0xBE3 PUSH2 0x2710 PUSH2 0xBDB PUSH2 0x267 PUSH32 0x0 PUSH32 0x0 PUSH2 0x19A4 JUMP JUMPDEST DIV DUP1 SWAP3 PUSH2 0x19F6 JUMP JUMPDEST SWAP2 ISZERO PUSH2 0xC03 JUMPI PUSH2 0xBF7 PUSH1 0x7 SLOAD DUP4 GT ISZERO PUSH2 0x1A36 JUMP JUMPDEST DUP3 MLOAD SWAP2 DUP3 MSTORE PUSH1 0x20 DUP3 ADD MSTORE RETURN JUMPDEST PUSH2 0xC11 PUSH1 0x6 SLOAD DUP4 GT ISZERO PUSH2 0x1A36 JUMP JUMPDEST PUSH2 0xBF7 JUMP JUMPDEST POP POP CALLVALUE PUSH2 0x1A5 JUMPI DUP2 PUSH1 0x3 NOT CALLDATASIZE ADD SLT PUSH2 0x1A5 JUMPI MLOAD PUSH32 0x0 PUSH1 0x1 PUSH1 0x1 PUSH1 0xA0 SHL SUB AND DUP2 MSTORE PUSH1 0x20 SWAP1 RETURN JUMPDEST POP POP CALLVALUE PUSH2 0x1A5 JUMPI DUP2 PUSH1 0x3 NOT CALLDATASIZE ADD SLT PUSH2 0x1A5 JUMPI PUSH1 0x20 SWAP1 PUSH1 0x7 SLOAD SWAP1 MLOAD SWAP1 DUP2 MSTORE RETURN JUMPDEST POP POP CALLVALUE PUSH2 0x1A5 JUMPI PUSH1 0x20 CALLDATASIZE PUSH1 0x3 NOT ADD SLT PUSH2 0x1A5 JUMPI PUSH1 0x20 SWAP2 DUP2 SWAP1 PUSH1 0x1 PUSH1 0x1 PUSH1 0xA0 SHL SUB PUSH2 0xCA1 PUSH2 0x1869 JUMP JUMPDEST AND DUP2 MSTORE DUP1 DUP5 MSTORE KECCAK256 SLOAD SWAP1 MLOAD SWAP1 DUP2 MSTORE RETURN JUMPDEST POP POP CALLVALUE PUSH2 0x1A5 JUMPI DUP2 PUSH1 0x3 NOT CALLDATASIZE ADD SLT PUSH2 0x1A5 JUMPI MLOAD PUSH32 0x0 PUSH1 0x1 PUSH1 0x1 PUSH1 0xA0 SHL SUB AND DUP2 MSTORE PUSH1 0x20 SWAP1 RETURN JUMPDEST POP POP CALLVALUE PUSH2 0x1A5 JUMPI DUP2 PUSH1 0x3 NOT CALLDATASIZE ADD SLT PUSH2 0x1A5 JUMPI PUSH1 0x20 SWAP1 MLOAD PUSH32 0x0 DUP2 MSTORE RETURN JUMPDEST POP POP CALLVALUE PUSH2 0x1A5 JUMPI DUP2 PUSH1 0x3 NOT CALLDATASIZE ADD SLT PUSH2 0x1A5 JUMPI MLOAD PUSH32 0x0 PUSH1 0x1 PUSH1 0x1 PUSH1 0xA0 SHL SUB AND DUP2 MSTORE PUSH1 0x20 SWAP1 RETURN JUMPDEST POP POP CALLVALUE PUSH2 0x1A5 JUMPI DUP2 PUSH1 0x3 NOT CALLDATASIZE ADD SLT PUSH2 0x1A5 JUMPI PUSH1 0x20 SWAP1 MLOAD PUSH32 0x0 DUP2 MSTORE RETURN JUMPDEST SWAP2 SWAP1 POP CALLVALUE PUSH2 0x34F JUMPI PUSH1 0x20 CALLDATASIZE PUSH1 0x3 NOT ADD SLT PUSH2 0x34F JUMPI DUP2 CALLDATALOAD SWAP2 PUSH32 0x0 PUSH1 0x1 PUSH1 0x1 PUSH1 0xA0 SHL SUB AND CALLER SUB PUSH2 0xEC1 JUMPI PUSH1 0x8 SLOAD SWAP1 PUSH1 0xFF DUP3 AND PUSH2 0xE8B JUMPI DUP4 ISZERO DUP1 ISZERO PUSH2 0xE81 JUMPI JUMPDEST ISZERO PUSH2 0xE4C JUMPI POP PUSH1 0xFF NOT AND PUSH1 0x1 OR PUSH1 0x8 SSTORE PUSH1 0x9 DUP3 SWAP1 SSTORE MLOAD SWAP1 DUP2 MSTORE PUSH32 0x93608ECBCF057462DA63F5AEF413CE7F78C5E1B3BB51859D77A40845ECE2BFC3 SWAP1 PUSH1 0x20 SWAP1 LOG1 DUP1 RETURN JUMPDEST PUSH1 0x64 SWAP1 PUSH1 0x20 DUP5 MLOAD SWAP2 PUSH3 0x461BCD PUSH1 0xE5 SHL DUP4 MSTORE DUP3 ADD MSTORE PUSH1 0xF PUSH1 0x24 DUP3 ADD MSTORE PUSH15 0x496E76616C6964206F7574636F6D65 PUSH1 0x88 SHL PUSH1 0x44 DUP3 ADD MSTORE REVERT JUMPDEST POP PUSH1 0x1 DUP5 EQ PUSH2 0xE0A JUMP JUMPDEST PUSH1 0x64 SWAP1 PUSH1 0x20 DUP5 MLOAD SWAP2 PUSH3 0x461BCD PUSH1 0xE5 SHL DUP4 MSTORE DUP3 ADD MSTORE PUSH1 0x10 PUSH1 0x24 DUP3 ADD MSTORE PUSH16 0x105B1C9958591E481C995CDBDB1D9959 PUSH1 0x82 SHL PUSH1 0x44 DUP3 ADD MSTORE REVERT JUMPDEST PUSH1 0x20 PUSH1 0x64 SWAP3 MLOAD SWAP2 PUSH3 0x461BCD PUSH1 0xE5 SHL DUP4 MSTORE DUP3 ADD MSTORE PUSH1 0x17 PUSH1 0x24 DUP3 ADD MSTORE PUSH32 0x4F6E6C79206F7261636C652063616E207265736F6C7665000000000000000000 PUSH1 0x44 DUP3 ADD MSTORE REVERT JUMPDEST POP POP CALLVALUE PUSH2 0x1A5 JUMPI DUP2 PUSH1 0x3 NOT CALLDATASIZE ADD SLT PUSH2 0x1A5 JUMPI PUSH1 0x20 SWAP1 PUSH1 0xFF PUSH1 0x8 SLOAD AND SWAP1 MLOAD SWAP1 ISZERO ISZERO DUP2 MSTORE RETURN JUMPDEST POP POP CALLVALUE PUSH2 0x1A5 JUMPI DUP2 PUSH1 0x3 NOT CALLDATASIZE ADD SLT PUSH2 0x1A5 JUMPI PUSH1 0x20 SWAP1 MLOAD PUSH1 0x12 DUP2 MSTORE RETURN JUMPDEST POP POP CALLVALUE PUSH2 0x1A5 JUMPI DUP2 PUSH1 0x3 NOT CALLDATASIZE ADD SLT PUSH2 0x1A5 JUMPI PUSH1 0x20 SWAP1 MLOAD PUSH32 0x0 DUP2 MSTORE RETURN JUMPDEST POP POP CALLVALUE PUSH2 0x1A5 JUMPI DUP2 PUSH1 0x3 NOT CALLDATASIZE ADD SLT PUSH2 0x1A5 JUMPI PUSH1 0x20 SWAP1 MLOAD PUSH32 0x0 DUP2 MSTORE RETURN JUMPDEST DUP4 SWAP2 POP CALLVALUE PUSH2 0x1A5 JUMPI PUSH1 0x60 CALLDATASIZE PUSH1 0x3 NOT ADD SLT PUSH2 0x1A5 JUMPI PUSH2 0xFD5 PUSH2 0x1869 JUMP JUMPDEST PUSH2 0xFDD PUSH2 0x187F JUMP JUMPDEST SWAP2 PUSH1 0x44 CALLDATALOAD SWAP4 DUP6 PUSH1 0x1 DUP1 PUSH1 0xA0 SHL SUB DUP5 AND SWAP2 DUP3 DUP2 MSTORE PUSH1 0x1 PUSH1 0x20 MSTORE KECCAK256 CALLER PUSH0 MSTORE PUSH1 0x20 MSTORE DUP6 PUSH0 KECCAK256 SLOAD SWAP2 PUSH0 NOT DUP4 LT PUSH2 0x1018 JUMPI JUMPDEST PUSH1 0x20 DUP8 PUSH2 0x498 DUP9 DUP9 DUP9 PUSH2 0x1B2A JUMP JUMPDEST DUP6 DUP4 LT PUSH2 0x1080 JUMPI DUP2 ISZERO PUSH2 0x106A JUMPI CALLER ISZERO PUSH2 0x1054 JUMPI POP PUSH0 SWAP1 DUP2 MSTORE PUSH1 0x1 PUSH1 0x20 SWAP1 DUP2 MSTORE DUP7 DUP3 KECCAK256 CALLER DUP4 MSTORE DUP2 MSTORE SWAP1 DUP7 SWAP1 KECCAK256 SWAP2 DUP6 SWAP1 SUB SWAP1 SWAP2 SSTORE DUP3 SWAP1 PUSH2 0x498 PUSH2 0x100A JUMP JUMPDEST PUSH1 0x24 SWAP1 PUSH0 DUP9 MLOAD SWAP2 PUSH4 0x4A1406B1 PUSH1 0xE1 SHL DUP4 MSTORE DUP3 ADD MSTORE REVERT JUMPDEST PUSH1 0x24 SWAP1 PUSH0 DUP9 MLOAD SWAP2 PUSH4 0xE602DF05 PUSH1 0xE0 SHL DUP4 MSTORE DUP3 ADD MSTORE REVERT JUMPDEST DUP7 MLOAD PUSH4 0x7DC7A0D9 PUSH1 0xE1 SHL DUP2 MSTORE CALLER SWAP2 DUP2 ADD SWAP2 DUP3 MSTORE PUSH1 0x20 DUP3 ADD SWAP4 SWAP1 SWAP4 MSTORE PUSH1 0x40 DUP2 ADD DUP7 SWAP1 MSTORE DUP3 SWAP2 POP PUSH1 0x60 ADD SUB SWAP1 REVERT JUMPDEST POP POP CALLVALUE PUSH2 0x1A5 JUMPI DUP2 PUSH1 0x3 NOT CALLDATASIZE ADD SLT PUSH2 0x1A5 JUMPI PUSH1 0x20 SWAP1 PUSH1 0x2 SLOAD SWAP1 MLOAD SWAP1 DUP2 MSTORE RETURN JUMPDEST DUP3 DUP5 CALLVALUE PUSH2 0x790 JUMPI DUP2 PUSH1 0x3 NOT CALLDATASIZE ADD SLT PUSH2 0x790 JUMPI POP PUSH2 0x10E6 PUSH2 0x1869 JUMP JUMPDEST PUSH1 0x24 CALLDATALOAD SWAP1 CALLER ISZERO PUSH2 0x115F JUMPI PUSH1 0x1 PUSH1 0x1 PUSH1 0xA0 SHL SUB AND SWAP1 DUP2 ISZERO PUSH2 0x1149 JUMPI PUSH1 0x20 SWAP4 POP CALLER PUSH0 MSTORE PUSH1 0x1 DUP5 MSTORE DUP3 PUSH0 KECCAK256 DUP3 PUSH0 MSTORE DUP5 MSTORE DUP1 DUP4 PUSH0 KECCAK256 SSTORE DUP3 MLOAD SWAP1 DUP2 MSTORE PUSH32 0x8C5BE1E5EBEC7D5BD14F71427D1E84F3DD0314C0F7B2291E5B200AC8C7C3B925 DUP5 CALLER SWAP3 LOG3 MLOAD PUSH1 0x1 DUP2 MSTORE RETURN JUMPDEST DUP3 MLOAD PUSH4 0x4A1406B1 PUSH1 0xE1 SHL DUP2 MSTORE PUSH0 DUP2 DUP7 ADD MSTORE PUSH1 0x24 SWAP1 REVERT JUMPDEST DUP3 MLOAD PUSH4 0xE602DF05 PUSH1 0xE0 SHL DUP2 MSTORE PUSH0 DUP2 DUP7 ADD MSTORE PUSH1 0x24 SWAP1 REVERT JUMPDEST DUP3 DUP5 CALLVALUE PUSH2 0x790 JUMPI DUP1 PUSH1 0x3 NOT CALLDATASIZE ADD SLT PUSH2 0x790 JUMPI POP PUSH1 0x6 SLOAD PUSH1 0x7 SLOAD DUP3 MLOAD SWAP2 DUP3 MSTORE PUSH1 0x20 DUP3 ADD MSTORE RETURN JUMPDEST SWAP2 SWAP1 POP CALLVALUE PUSH2 0x1699 JUMPI PUSH1 0x60 CALLDATASIZE PUSH1 0x3 NOT ADD SLT PUSH2 0x1699 JUMPI PUSH2 0x11B6 PUSH2 0x185A JUMP JUMPDEST PUSH1 0x24 CALLDATALOAD PUSH2 0x11C1 PUSH2 0x1B07 JUMP JUMPDEST PUSH2 0x11CC DUP2 ISZERO ISZERO PUSH2 0x18DF JUMP JUMPDEST PUSH2 0x11DB PUSH1 0xFF PUSH1 0x8 SLOAD AND ISZERO PUSH2 0x192B JUMP JUMPDEST PUSH1 0x6 SLOAD SWAP4 DUP5 ISZERO ISZERO DUP1 PUSH2 0x1717 JUMPI JUMPDEST PUSH2 0x11F1 SWAP1 PUSH2 0x1969 JUMP JUMPDEST PUSH32 0x0 SWAP2 PUSH2 0x2710 PUSH2 0x1255 DUP2 PUSH2 0x124D PUSH2 0x1247 PUSH32 0x0 DUP9 PUSH2 0x19A4 JUMP JUMPDEST DUP6 PUSH2 0x19C5 JUMP JUMPDEST DIV SWAP5 DUP4 PUSH2 0x19C5 JUMP JUMPDEST DIV SWAP2 PUSH2 0x126B PUSH2 0x1264 DUP5 DUP7 PUSH2 0x19F6 JUMP JUMPDEST SWAP5 DUP4 PUSH2 0x19F6 JUMP JUMPDEST SWAP7 PUSH1 0x44 CALLDATALOAD DUP9 LT PUSH2 0x16E0 JUMPI DUP6 ISZERO PUSH2 0x14DE JUMPI POP PUSH1 0x7 SLOAD DUP8 GT PUSH2 0x149B JUMPI PUSH32 0x0 PUSH32 0x0 PUSH1 0x1 PUSH1 0x1 PUSH1 0xA0 SHL SUB AND DUP1 EXTCODESIZE ISZERO PUSH2 0x1497 JUMPI DUP8 MLOAD PUSH4 0x79212195 PUSH1 0xE1 SHL DUP1 DUP3 MSTORE SWAP4 SWAP1 DUP12 SWAP1 DUP2 DUP2 DUP1 PUSH2 0x12FA DUP11 DUP10 ADDRESS CALLER DUP11 DUP7 ADD PUSH2 0x1A03 JUMP JUMPDEST SUB DUP2 DUP4 DUP9 GAS CALL DUP1 ISZERO PUSH2 0x1479 JUMPI PUSH2 0x1483 JUMPI JUMPDEST POP POP PUSH2 0x1322 PUSH2 0x131A DUP9 DUP8 PUSH2 0x19F6 JUMP JUMPDEST PUSH1 0x7 SLOAD PUSH2 0x19A4 JUMP JUMPDEST PUSH1 0x7 SSTORE PUSH2 0x1331 DUP11 PUSH1 0x6 SLOAD PUSH2 0x19F6 JUMP JUMPDEST PUSH1 0x6 SSTORE DUP2 EXTCODESIZE ISZERO PUSH2 0x1475 JUMPI DUP9 MLOAD DUP5 DUP2 MSTORE DUP12 SWAP1 DUP2 DUP2 DUP1 PUSH2 0x1374 DUP16 PUSH32 0x0 CALLER ADDRESS DUP11 DUP7 ADD PUSH2 0x1A03 JUMP JUMPDEST SUB DUP2 DUP4 DUP9 GAS CALL DUP1 ISZERO PUSH2 0x1479 JUMPI PUSH2 0x1461 JUMPI JUMPDEST POP POP DUP7 PUSH2 0x13E1 JUMPI JUMPDEST POP POP POP POP PUSH1 0x20 SWAP7 POP JUMPDEST DUP5 MLOAD SWAP4 ISZERO ISZERO DUP5 MSTORE DUP7 DUP5 ADD MSTORE DUP5 DUP5 DUP5 ADD MSTORE PUSH1 0x60 DUP4 ADD MSTORE PUSH1 0x80 DUP3 ADD MSTORE PUSH32 0xD55848F048CA7D5FD9869D414BB60A426C2B0125C8ADB982FEE123DA3F841ED8 PUSH1 0xA0 CALLER SWAP3 LOG2 PUSH1 0x1 PUSH1 0x5 SSTORE MLOAD SWAP1 DUP2 MSTORE RETURN JUMPDEST SWAP1 DUP11 SWAP3 SWAP2 DUP2 EXTCODESIZE ISZERO PUSH2 0x9BE JUMPI DUP4 DUP9 SWAP6 PUSH2 0x1428 DUP13 MLOAD SWAP8 DUP9 SWAP7 DUP8 SWAP6 DUP7 SWAP5 DUP6 MSTORE PUSH32 0x0 SWAP1 ADDRESS SWAP1 DUP7 ADD PUSH2 0x1A03 JUMP JUMPDEST SUB SWAP3 GAS CALL DUP1 ISZERO PUSH2 0x1457 JUMPI PUSH2 0x143F JUMPI JUMPDEST DUP1 DUP1 DUP1 PUSH2 0x138D JUMP JUMPDEST PUSH2 0x1449 DUP9 SWAP2 PUSH2 0x1895 JUMP JUMPDEST PUSH2 0x1453 JUMPI DUP7 PUSH2 0x1437 JUMP JUMPDEST DUP7 DUP1 REVERT JUMPDEST DUP7 MLOAD RETURNDATASIZE DUP11 DUP3 RETURNDATACOPY RETURNDATASIZE SWAP1 REVERT JUMPDEST PUSH2 0x146A SWAP1 PUSH2 0x1895 JUMP JUMPDEST PUSH2 0x1475 JUMPI DUP11 PUSH0 PUSH2 0x1385 JUMP JUMPDEST DUP11 DUP1 REVERT JUMPDEST DUP12 MLOAD RETURNDATASIZE DUP5 DUP3 RETURNDATACOPY RETURNDATASIZE SWAP1 REVERT JUMPDEST PUSH2 0x148C SWAP1 PUSH2 0x1895 JUMP JUMPDEST PUSH2 0x1475 JUMPI DUP11 PUSH0 PUSH2 0x130B JUMP JUMPDEST DUP10 DUP1 REVERT JUMPDEST PUSH1 0x64 SWAP1 PUSH1 0x20 DUP8 MLOAD SWAP2 PUSH3 0x461BCD PUSH1 0xE5 SHL DUP4 MSTORE DUP3 ADD MSTORE PUSH1 0x17 PUSH1 0x24 DUP3 ADD MSTORE PUSH32 0x496E73756666696369656E74204E4F2072657365727665000000000000000000 PUSH1 0x44 DUP3 ADD MSTORE REVERT JUMPDEST DUP8 GT PUSH2 0x169D JUMPI PUSH32 0x0 PUSH32 0x0 PUSH1 0x1 PUSH1 0x1 PUSH1 0xA0 SHL SUB AND DUP1 EXTCODESIZE ISZERO PUSH2 0x1699 JUMPI DUP8 MLOAD PUSH4 0x79212195 PUSH1 0xE1 SHL DUP1 DUP3 MSTORE SWAP4 SWAP1 PUSH0 DUP2 DUP1 PUSH2 0x1557 DUP10 DUP9 ADDRESS CALLER DUP10 DUP7 ADD PUSH2 0x1A03 JUMP JUMPDEST SUB DUP2 DUP4 DUP8 GAS CALL DUP1 ISZERO PUSH2 0x168F JUMPI PUSH2 0x167C JUMPI JUMPDEST POP PUSH2 0x157E PUSH2 0x1576 DUP9 DUP8 PUSH2 0x19F6 JUMP JUMPDEST PUSH1 0x6 SLOAD PUSH2 0x19A4 JUMP JUMPDEST PUSH1 0x6 SSTORE PUSH2 0x158D DUP11 PUSH1 0x7 SLOAD PUSH2 0x19F6 JUMP JUMPDEST PUSH1 0x7 SSTORE DUP2 EXTCODESIZE ISZERO PUSH2 0x1475 JUMPI DUP9 MLOAD DUP5 DUP2 MSTORE DUP12 SWAP1 DUP2 DUP2 DUP1 PUSH2 0x15D0 DUP16 PUSH32 0x0 CALLER ADDRESS DUP11 DUP7 ADD PUSH2 0x1A03 JUMP JUMPDEST SUB DUP2 DUP4 DUP9 GAS CALL DUP1 ISZERO PUSH2 0x1479 JUMPI PUSH2 0x1668 JUMPI JUMPDEST POP POP DUP7 PUSH2 0x15F6 JUMPI JUMPDEST POP POP POP POP PUSH1 0x20 SWAP7 POP PUSH2 0x1396 JUMP JUMPDEST SWAP1 DUP11 SWAP3 SWAP2 DUP2 EXTCODESIZE ISZERO PUSH2 0x9BE JUMPI DUP4 DUP9 SWAP6 PUSH2 0x163D DUP13 MLOAD SWAP8 DUP9 SWAP7 DUP8 SWAP6 DUP7 SWAP5 DUP6 MSTORE PUSH32 0x0 SWAP1 ADDRESS SWAP1 DUP7 ADD PUSH2 0x1A03 JUMP JUMPDEST SUB SWAP3 GAS CALL DUP1 ISZERO PUSH2 0x1457 JUMPI PUSH2 0x1654 JUMPI JUMPDEST DUP1 DUP1 DUP1 PUSH2 0x15E9 JUMP JUMPDEST PUSH2 0x165E DUP9 SWAP2 PUSH2 0x1895 JUMP JUMPDEST PUSH2 0x1453 JUMPI DUP7 PUSH2 0x164C JUMP JUMPDEST PUSH2 0x1671 SWAP1 PUSH2 0x1895 JUMP JUMPDEST PUSH2 0x1475 JUMPI DUP11 PUSH0 PUSH2 0x15E1 JUMP JUMPDEST PUSH2 0x1687 SWAP2 SWAP12 POP PUSH2 0x1895 JUMP JUMPDEST PUSH0 SWAP10 PUSH0 PUSH2 0x1568 JUMP JUMPDEST DUP11 MLOAD RETURNDATASIZE PUSH0 DUP3 RETURNDATACOPY RETURNDATASIZE SWAP1 REVERT JUMPDEST PUSH0 DUP1 REVERT JUMPDEST PUSH1 0x64 SWAP1 PUSH1 0x20 DUP8 MLOAD SWAP2 PUSH3 0x461BCD PUSH1 0xE5 SHL DUP4 MSTORE DUP3 ADD MSTORE PUSH1 0x18 PUSH1 0x24 DUP3 ADD MSTORE PUSH32 0x496E73756666696369656E742059455320726573657276650000000000000000 PUSH1 0x44 DUP3 ADD MSTORE REVERT JUMPDEST DUP7 MLOAD PUSH3 0x461BCD PUSH1 0xE5 SHL DUP2 MSTORE PUSH1 0x20 DUP2 DUP5 ADD MSTORE PUSH1 0x11 PUSH1 0x24 DUP3 ADD MSTORE PUSH17 0x14DB1A5C1C1859D948195E18D959591959 PUSH1 0x7A SHL PUSH1 0x44 DUP3 ADD MSTORE PUSH1 0x64 SWAP1 REVERT JUMPDEST POP PUSH1 0x7 SLOAD ISZERO ISZERO PUSH2 0x11E8 JUMP JUMPDEST DUP4 CALLVALUE PUSH2 0x1699 JUMPI PUSH0 CALLDATASIZE PUSH1 0x3 NOT ADD SLT PUSH2 0x1699 JUMPI PUSH0 SWAP3 PUSH1 0x3 SLOAD PUSH1 0x1 DUP2 PUSH1 0x1 SHR SWAP2 PUSH1 0x1 DUP2 AND DUP1 ISZERO PUSH2 0x1809 JUMPI JUMPDEST PUSH1 0x20 SWAP5 DUP6 DUP6 LT DUP3 EQ PUSH2 0x17F6 JUMPI POP DUP4 DUP8 MSTORE SWAP1 DUP2 ISZERO PUSH2 0x17D6 JUMPI POP PUSH1 0x1 EQ PUSH2 0x177C JUMPI JUMPDEST POP POP POP PUSH2 0xA9F DUP3 PUSH2 0xAA9 SWAP5 SUB DUP4 PUSH2 0x18BD JUMP JUMPDEST PUSH1 0x3 PUSH0 SWAP1 DUP2 MSTORE SWAP3 SWAP6 POP PUSH32 0xC2575A0E9E593C00F959F8C92F12DB2869C3395A3B0502D05E2516446F71F85B JUMPDEST DUP3 DUP5 LT PUSH2 0x17C3 JUMPI POP POP POP DUP3 PUSH2 0xAA9 SWAP5 PUSH2 0xA9F SWAP3 DUP3 ADD ADD SWAP5 PUSH2 0x176A JUMP JUMPDEST DUP1 SLOAD DUP7 DUP6 ADD DUP9 ADD MSTORE SWAP3 DUP7 ADD SWAP3 DUP2 ADD PUSH2 0x17A7 JUMP JUMPDEST PUSH1 0xFF NOT AND DUP7 DUP6 ADD MSTORE POP POP ISZERO ISZERO PUSH1 0x5 SHL DUP4 ADD ADD SWAP3 POP PUSH2 0xA9F DUP3 PUSH2 0xAA9 PUSH2 0x176A JUMP JUMPDEST PUSH1 0x22 SWAP1 PUSH4 0x4E487B71 PUSH1 0xE0 SHL PUSH0 MSTORE MSTORE PUSH1 0x24 PUSH0 REVERT JUMPDEST SWAP3 PUSH1 0x7F AND SWAP3 PUSH2 0x174A JUMP JUMPDEST PUSH1 0x20 DUP1 DUP3 MSTORE DUP3 MLOAD DUP2 DUP4 ADD DUP2 SWAP1 MSTORE SWAP1 SWAP4 SWAP3 PUSH0 JUMPDEST DUP3 DUP2 LT PUSH2 0x1846 JUMPI POP POP PUSH1 0x40 SWAP3 SWAP4 POP PUSH0 DUP4 DUP3 DUP5 ADD ADD MSTORE PUSH1 0x1F DUP1 NOT SWAP2 ADD AND ADD ADD SWAP1 JUMP JUMPDEST DUP2 DUP2 ADD DUP7 ADD MLOAD DUP5 DUP3 ADD PUSH1 0x40 ADD MSTORE DUP6 ADD PUSH2 0x1825 JUMP JUMPDEST PUSH1 0x4 CALLDATALOAD SWAP1 DUP2 ISZERO ISZERO DUP3 SUB PUSH2 0x1699 JUMPI JUMP JUMPDEST PUSH1 0x4 CALLDATALOAD SWAP1 PUSH1 0x1 PUSH1 0x1 PUSH1 0xA0 SHL SUB DUP3 AND DUP3 SUB PUSH2 0x1699 JUMPI JUMP JUMPDEST PUSH1 0x24 CALLDATALOAD SWAP1 PUSH1 0x1 PUSH1 0x1 PUSH1 0xA0 SHL SUB DUP3 AND DUP3 SUB PUSH2 0x1699 JUMPI JUMP JUMPDEST PUSH8 0xFFFFFFFFFFFFFFFF DUP2 GT PUSH2 0x18A9 JUMPI PUSH1 0x40 MSTORE JUMP JUMPDEST PUSH4 0x4E487B71 PUSH1 0xE0 SHL PUSH0 MSTORE PUSH1 0x41 PUSH1 0x4 MSTORE PUSH1 0x24 PUSH0 REVERT JUMPDEST SWAP1 PUSH1 0x1F DUP1 NOT SWAP2 ADD AND DUP2 ADD SWAP1 DUP2 LT PUSH8 0xFFFFFFFFFFFFFFFF DUP3 GT OR PUSH2 0x18A9 JUMPI PUSH1 0x40 MSTORE JUMP JUMPDEST ISZERO PUSH2 0x18E6 JUMPI JUMP JUMPDEST PUSH1 0x40 MLOAD PUSH3 0x461BCD PUSH1 0xE5 SHL DUP2 MSTORE PUSH1 0x20 PUSH1 0x4 DUP3 ADD MSTORE PUSH1 0x17 PUSH1 0x24 DUP3 ADD MSTORE PUSH32 0x416D6F756E74206D75737420626520706F736974697665000000000000000000 PUSH1 0x44 DUP3 ADD MSTORE PUSH1 0x64 SWAP1 REVERT JUMPDEST ISZERO PUSH2 0x1932 JUMPI JUMP JUMPDEST PUSH1 0x40 MLOAD PUSH3 0x461BCD PUSH1 0xE5 SHL DUP2 MSTORE PUSH1 0x20 PUSH1 0x4 DUP3 ADD MSTORE PUSH1 0xF PUSH1 0x24 DUP3 ADD MSTORE PUSH15 0x13585C9AD95D081C995CDBDB1D9959 PUSH1 0x8A SHL PUSH1 0x44 DUP3 ADD MSTORE PUSH1 0x64 SWAP1 REVERT JUMPDEST ISZERO PUSH2 0x1970 JUMPI JUMP JUMPDEST PUSH1 0x40 MLOAD PUSH3 0x461BCD PUSH1 0xE5 SHL DUP2 MSTORE PUSH1 0x20 PUSH1 0x4 DUP3 ADD MSTORE PUSH1 0xC PUSH1 0x24 DUP3 ADD MSTORE PUSH12 0x4E6F206C6971756964697479 PUSH1 0xA0 SHL PUSH1 0x44 DUP3 ADD MSTORE PUSH1 0x64 SWAP1 REVERT JUMPDEST SWAP2 SWAP1 DUP3 ADD DUP1 SWAP3 GT PUSH2 0x19B1 JUMPI JUMP JUMPDEST PUSH4 0x4E487B71 PUSH1 0xE0 SHL PUSH0 MSTORE PUSH1 0x11 PUSH1 0x4 MSTORE PUSH1 0x24 PUSH0 REVERT JUMPDEST DUP2 DUP2 MUL SWAP3 SWAP2 DUP2 ISZERO SWAP2 DUP5 DIV EQ OR ISZERO PUSH2 0x19B1 JUMPI JUMP JUMPDEST DUP2 ISZERO PUSH2 0x19E2 JUMPI DIV SWAP1 JUMP JUMPDEST PUSH4 0x4E487B71 PUSH1 0xE0 SHL PUSH0 MSTORE PUSH1 0x12 PUSH1 0x4 MSTORE PUSH1 0x24 PUSH0 REVERT JUMPDEST SWAP2 SWAP1 DUP3 SUB SWAP2 DUP3 GT PUSH2 0x19B1 JUMPI JUMP JUMPDEST SWAP3 SWAP1 PUSH1 0xC0 SWAP5 SWAP3 PUSH1 0x1 DUP1 PUSH1 0xA0 SHL SUB DUP1 SWAP3 AND DUP6 MSTORE AND PUSH1 0x20 DUP5 ADD MSTORE PUSH1 0x40 DUP4 ADD MSTORE PUSH1 0x60 DUP3 ADD MSTORE PUSH1 0xA0 PUSH1 0x80 DUP3 ADD MSTORE PUSH0 PUSH1 0xA0 DUP3 ADD MSTORE ADD SWAP1 JUMP JUMPDEST ISZERO PUSH2 0x1A3D JUMPI JUMP JUMPDEST PUSH1 0x40 MLOAD PUSH3 0x461BCD PUSH1 0xE5 SHL DUP2 MSTORE PUSH1 0x20 PUSH1 0x4 DUP3 ADD MSTORE PUSH1 0x15 PUSH1 0x24 DUP3 ADD MSTORE PUSH21 0x496E73756666696369656E74207265736572766573 PUSH1 0x58 SHL PUSH1 0x44 DUP3 ADD MSTORE PUSH1 0x64 SWAP1 REVERT JUMPDEST PUSH1 0x6 SLOAD PUSH1 0x7 SLOAD SWAP1 PUSH2 0x1A8B DUP3 DUP3 PUSH2 0x19A4 JUMP JUMPDEST ISZERO PUSH2 0x1ABA JUMPI PUSH2 0x2710 SWAP1 DUP2 DUP4 MUL SWAP2 DUP4 DUP4 DIV EQ DUP4 ISZERO OR ISZERO PUSH2 0x19B1 JUMPI PUSH2 0x1AB7 SWAP3 PUSH2 0x1AB1 SWAP2 PUSH2 0x19A4 JUMP JUMPDEST SWAP1 PUSH2 0x19D8 JUMP JUMPDEST SWAP1 JUMP JUMPDEST POP POP PUSH2 0x1388 SWAP1 JUMP JUMPDEST ISZERO PUSH2 0x1AC9 JUMPI JUMP JUMPDEST PUSH1 0x40 MLOAD PUSH3 0x461BCD PUSH1 0xE5 SHL DUP2 MSTORE PUSH1 0x20 PUSH1 0x4 DUP3 ADD MSTORE PUSH1 0x16 PUSH1 0x24 DUP3 ADD MSTORE PUSH22 0x496E73756666696369656E74204C5020746F6B656E73 PUSH1 0x50 SHL PUSH1 0x44 DUP3 ADD MSTORE PUSH1 0x64 SWAP1 REVERT JUMPDEST PUSH1 0x2 PUSH1 0x5 SLOAD EQ PUSH2 0x1B18 JUMPI PUSH1 0x2 PUSH1 0x5 SSTORE JUMP JUMPDEST PUSH1 0x40 MLOAD PUSH4 0x3EE5AEB5 PUSH1 0xE0 SHL DUP2 MSTORE PUSH1 0x4 SWAP1 REVERT JUMPDEST SWAP2 PUSH1 0x1 PUSH1 0x1 PUSH1 0xA0 SHL SUB DUP1 DUP5 AND SWAP3 DUP4 ISZERO PUSH2 0x1BD9 JUMPI AND SWAP3 DUP4 ISZERO PUSH2 0x1BC1 JUMPI DUP3 PUSH0 MSTORE PUSH0 PUSH1 0x20 MSTORE PUSH1 0x40 PUSH0 KECCAK256 SLOAD SWAP1 DUP3 DUP3 LT PUSH2 0x1B8F JUMPI POP DUP2 PUSH0 DUP1 MLOAD PUSH1 0x20 PUSH2 0x1C7E DUP4 CODECOPY DUP2 MLOAD SWAP2 MSTORE SWAP3 PUSH1 0x20 SWAP3 DUP6 PUSH0 MSTORE PUSH0 DUP5 MSTORE SUB PUSH1 0x40 PUSH0 KECCAK256 SSTORE DUP5 PUSH0 MSTORE PUSH1 0x40 PUSH0 KECCAK256 DUP2 DUP2 SLOAD ADD SWAP1 SSTORE PUSH1 0x40 MLOAD SWAP1 DUP2 MSTORE LOG3 JUMP JUMPDEST PUSH1 0x40 MLOAD PUSH4 0x391434E3 PUSH1 0xE2 SHL DUP2 MSTORE PUSH1 0x1 PUSH1 0x1 PUSH1 0xA0 SHL SUB SWAP2 SWAP1 SWAP2 AND PUSH1 0x4 DUP3 ADD MSTORE PUSH1 0x24 DUP2 ADD SWAP2 SWAP1 SWAP2 MSTORE PUSH1 0x44 DUP2 ADD DUP3 SWAP1 MSTORE PUSH1 0x64 SWAP1 REVERT JUMPDEST PUSH1 0x40 MLOAD PUSH4 0xEC442F05 PUSH1 0xE0 SHL DUP2 MSTORE PUSH0 PUSH1 0x4 DUP3 ADD MSTORE PUSH1 0x24 SWAP1 REVERT JUMPDEST PUSH1 0x40 MLOAD PUSH4 0x4B637E8F PUSH1 0xE1 SHL DUP2 MSTORE PUSH0 PUSH1 0x4 DUP3 ADD MSTORE PUSH1 0x24 SWAP1 REVERT JUMPDEST SWAP2 SWAP1 PUSH1 0x1 PUSH1 0x1 PUSH1 0xA0 SHL SUB DUP4 AND SWAP1 DUP2 ISZERO PUSH2 0x1BD9 JUMPI DUP2 PUSH0 MSTORE PUSH0 PUSH1 0x20 MSTORE PUSH1 0x40 PUSH0 KECCAK256 SLOAD SWAP4 DUP2 DUP6 LT PUSH2 0x1C4B JUMPI POP PUSH1 0x20 DUP2 PUSH0 DUP1 MLOAD PUSH1 0x20 PUSH2 0x1C7E DUP4 CODECOPY DUP2 MLOAD SWAP2 MSTORE SWAP3 PUSH0 SWAP6 SWAP7 DUP6 DUP8 MSTORE DUP7 DUP5 MSTORE SUB PUSH1 0x40 DUP7 KECCAK256 SSTORE DUP1 PUSH1 0x2 SLOAD SUB PUSH1 0x2 SSTORE PUSH1 0x40 MLOAD SWAP1 DUP2 MSTORE LOG3 JUMP JUMPDEST PUSH1 0x40 MLOAD PUSH4 0x391434E3 PUSH1 0xE2 SHL DUP2 MSTORE PUSH1 0x1 PUSH1 0x1 PUSH1 0xA0 SHL SUB SWAP2 SWAP1 SWAP2 AND PUSH1 0x4 DUP3 ADD MSTORE PUSH1 0x24 DUP2 ADD DUP6 SWAP1 MSTORE PUSH1 0x44 DUP2 ADD SWAP2 SWAP1 SWAP2 MSTORE PUSH1 0x64 SWAP1 REVERT INVALID 0xDD CALLCODE MSTORE 0xAD SHL 0xE2 0xC8 SWAP12 PUSH10 0xC2B068FC378DAA952BA7 CALL PUSH4 0xC4A11628 CREATE2 GAS 0x4D CREATE2 0x23 0xB3 0xEF LOG2 PUSH5 0x6970667358 0x22 SLT KECCAK256 0xAB TSTORE 0x2A 0xF8 CALLCODE DUP10 GT 0xD0 0x25 0xDA 0xBE 0xC5 CALLDATALOAD PC 0xCC COINBASE PUSH11 0xE39D6C4B4115BBAB424CD6 LOG2 0xDD 0xDB DUP10 PUSH5 0x736F6C6343 STOP ADDMOD XOR STOP CALLER SWAP1 AND 0xD0 SWAP14 PUSH19 0xD40FDAE2FD8CEAC6B6234C7706214FD39C1CD1 0xE6 MULMOD LOG0 MSTORE DUP13 NOT SWAP4 STOP LOG2 PUSH5 0x6970667358 0x22 SLT KECCAK256 0xD 0xDB PUSH3 0x6CCD97 CALL EXTCODECOPY 0x4E 0xD3 SUB DUP16 0xBA PUSH25 0xF1B98A43992DBD6D0D07D8D587BDC3E12C2164736F6C634300 ADDMOD XOR STOP CALLER "},"methodIdentifiers":{"UPGRADE_INTERFACE_VERSION()":"ad3cb1cc","allPools(uint256)":"41d1de97","collateralToken()":"b2016bd4","conditionalTokens()":"5bd9e299","createPool(address,bytes32,string,string,uint256,uint256)":"2851ebac","defaultLPFee()":"d74fb90d","defaultProtocolFee()":"421bcbdf","getPool(bytes32)":"f6c00927","initialize(address,address,address)":"c0c53b8b","maxLPFee()":"abce0cd5","maxProtocolFee()":"5ee31c7c","minLPFee()":"f30853fb","minProtocolFee()":"e904e09d","owner()":"8da5cb5b","poolCount()":"f525cb68","pools(bytes32)":"b5217bb4","proxiableUUID()":"52d1902d","renounceOwnership()":"715018a6","setDefaultFees(uint256,uint256)":"b9bdb4ef","setFeeLimits(uint256,uint256,uint256,uint256)":"2a6677c7","setTreasury(address)":"f0f44260","transferOwnership(address)":"f2fde38b","treasury()":"61d027b3","upgradeToAndCall(address,bytes)":"4f1ef286"}}}}}