{
  "_format": "hh3-artifact-1",
  "contractName": "MockUSDTFaucet",
  "sourceName": "contracts/MockUSDTFaucet.sol",
  "abi": [
    {
      "inputs": [
        {
          "internalType": "address",
          "name": "_mockUSDTAddress",
          "type": "address"
        }
      ],
      "stateMutability": "nonpayable",
      "type": "constructor"
    },
    {
      "inputs": [
        {
          "internalType": "address",
          "name": "owner",
          "type": "address"
        }
      ],
      "name": "OwnableInvalidOwner",
      "type": "error"
    },
    {
      "inputs": [
        {
          "internalType": "address",
          "name": "account",
          "type": "address"
        }
      ],
      "name": "OwnableUnauthorizedAccount",
      "type": "error"
    },
    {
      "inputs": [],
      "name": "ReentrancyGuardReentrantCall",
      "type": "error"
    },
    {
      "anonymous": false,
      "inputs": [
        {
          "indexed": true,
          "internalType": "address",
          "name": "donor",
          "type": "address"
        },
        {
          "indexed": false,
          "internalType": "uint256",
          "name": "amount",
          "type": "uint256"
        }
      ],
      "name": "FaucetRefilled",
      "type": "event"
    },
    {
      "anonymous": false,
      "inputs": [
        {
          "indexed": false,
          "internalType": "bool",
          "name": "active",
          "type": "bool"
        }
      ],
      "name": "FaucetToggled",
      "type": "event"
    },
    {
      "anonymous": false,
      "inputs": [
        {
          "indexed": false,
          "internalType": "uint256",
          "name": "newLockTime",
          "type": "uint256"
        }
      ],
      "name": "LockTimeUpdated",
      "type": "event"
    },
    {
      "anonymous": false,
      "inputs": [
        {
          "indexed": true,
          "internalType": "address",
          "name": "previousOwner",
          "type": "address"
        },
        {
          "indexed": true,
          "internalType": "address",
          "name": "newOwner",
          "type": "address"
        }
      ],
      "name": "OwnershipTransferred",
      "type": "event"
    },
    {
      "anonymous": false,
      "inputs": [
        {
          "indexed": true,
          "internalType": "address",
          "name": "requester",
          "type": "address"
        },
        {
          "indexed": false,
          "internalType": "uint256",
          "name": "amount",
          "type": "uint256"
        },
        {
          "indexed": false,
          "internalType": "uint256",
          "name": "timestamp",
          "type": "uint256"
        }
      ],
      "name": "TokensRequested",
      "type": "event"
    },
    {
      "anonymous": false,
      "inputs": [
        {
          "indexed": false,
          "internalType": "uint256",
          "name": "newAmount",
          "type": "uint256"
        }
      ],
      "name": "WithdrawalAmountUpdated",
      "type": "event"
    },
    {
      "inputs": [
        {
          "internalType": "address",
          "name": "user",
          "type": "address"
        }
      ],
      "name": "canRequest",
      "outputs": [
        {
          "internalType": "bool",
          "name": "",
          "type": "bool"
        }
      ],
      "stateMutability": "view",
      "type": "function"
    },
    {
      "inputs": [
        {
          "internalType": "uint256",
          "name": "_amount",
          "type": "uint256"
        }
      ],
      "name": "emergencyWithdraw",
      "outputs": [],
      "stateMutability": "nonpayable",
      "type": "function"
    },
    {
      "inputs": [],
      "name": "faucetActive",
      "outputs": [
        {
          "internalType": "bool",
          "name": "",
          "type": "bool"
        }
      ],
      "stateMutability": "view",
      "type": "function"
    },
    {
      "inputs": [],
      "name": "getFaucetBalance",
      "outputs": [
        {
          "internalType": "uint256",
          "name": "",
          "type": "uint256"
        }
      ],
      "stateMutability": "view",
      "type": "function"
    },
    {
      "inputs": [
        {
          "internalType": "address",
          "name": "user",
          "type": "address"
        }
      ],
      "name": "getRemainingAllowance",
      "outputs": [
        {
          "internalType": "uint256",
          "name": "",
          "type": "uint256"
        }
      ],
      "stateMutability": "view",
      "type": "function"
    },
    {
      "inputs": [
        {
          "internalType": "address",
          "name": "user",
          "type": "address"
        }
      ],
      "name": "getTimeUntilNextRequest",
      "outputs": [
        {
          "internalType": "uint256",
          "name": "",
          "type": "uint256"
        }
      ],
      "stateMutability": "view",
      "type": "function"
    },
    {
      "inputs": [
        {
          "internalType": "address",
          "name": "",
          "type": "address"
        }
      ],
      "name": "lastWithdrawalTime",
      "outputs": [
        {
          "internalType": "uint256",
          "name": "",
          "type": "uint256"
        }
      ],
      "stateMutability": "view",
      "type": "function"
    },
    {
      "inputs": [],
      "name": "lockTime",
      "outputs": [
        {
          "internalType": "uint256",
          "name": "",
          "type": "uint256"
        }
      ],
      "stateMutability": "view",
      "type": "function"
    },
    {
      "inputs": [],
      "name": "maxTotalWithdrawal",
      "outputs": [
        {
          "internalType": "uint256",
          "name": "",
          "type": "uint256"
        }
      ],
      "stateMutability": "view",
      "type": "function"
    },
    {
      "inputs": [],
      "name": "mockUSDT",
      "outputs": [
        {
          "internalType": "contract IERC20",
          "name": "",
          "type": "address"
        }
      ],
      "stateMutability": "view",
      "type": "function"
    },
    {
      "inputs": [],
      "name": "owner",
      "outputs": [
        {
          "internalType": "address",
          "name": "",
          "type": "address"
        }
      ],
      "stateMutability": "view",
      "type": "function"
    },
    {
      "inputs": [],
      "name": "renounceOwnership",
      "outputs": [],
      "stateMutability": "nonpayable",
      "type": "function"
    },
    {
      "inputs": [],
      "name": "requestTokens",
      "outputs": [],
      "stateMutability": "nonpayable",
      "type": "function"
    },
    {
      "inputs": [
        {
          "internalType": "uint256",
          "name": "_lockTime",
          "type": "uint256"
        }
      ],
      "name": "setLockTime",
      "outputs": [],
      "stateMutability": "nonpayable",
      "type": "function"
    },
    {
      "inputs": [
        {
          "internalType": "uint256",
          "name": "_maxAmount",
          "type": "uint256"
        }
      ],
      "name": "setMaxTotalWithdrawal",
      "outputs": [],
      "stateMutability": "nonpayable",
      "type": "function"
    },
    {
      "inputs": [
        {
          "internalType": "uint256",
          "name": "_amount",
          "type": "uint256"
        }
      ],
      "name": "setWithdrawalAmount",
      "outputs": [],
      "stateMutability": "nonpayable",
      "type": "function"
    },
    {
      "inputs": [],
      "name": "toggleFaucet",
      "outputs": [],
      "stateMutability": "nonpayable",
      "type": "function"
    },
    {
      "inputs": [
        {
          "internalType": "address",
          "name": "",
          "type": "address"
        }
      ],
      "name": "totalWithdrawn",
      "outputs": [
        {
          "internalType": "uint256",
          "name": "",
          "type": "uint256"
        }
      ],
      "stateMutability": "view",
      "type": "function"
    },
    {
      "inputs": [
        {
          "internalType": "address",
          "name": "newOwner",
          "type": "address"
        }
      ],
      "name": "transferOwnership",
      "outputs": [],
      "stateMutability": "nonpayable",
      "type": "function"
    },
    {
      "inputs": [],
      "name": "withdrawalAmount",
      "outputs": [
        {
          "internalType": "uint256",
          "name": "",
          "type": "uint256"
        }
      ],
      "stateMutability": "view",
      "type": "function"
    }
  ],
  "bytecode": "0x60a03461015257601f610dfc38819003918201601f19168301916001600160401b038311848410176101565780849260209460405283398101031261015257516001600160a01b038082169182900361015257331561013a575f543360018060a01b03198216175f55604051913391167f8be0079c531659141344cd1fd0a4f28419497f9722a3daafe3b4186f6b6457e05f80a36001805562989680600255620151806003556305f5e100600655600160ff19600754161760075581156100f85750608052604051610c91908161016b823960805181818161010e015281816101fd015281816104e20152818161063e0152610aea0152f35b62461bcd60e51b815260206004820152601560248201527f496e76616c696420746f6b656e206164647265737300000000000000000000006044820152606490fd5b604051631e4fbdf760e01b81525f6004820152602490fd5b5f80fd5b634e487b7160e01b5f52604160045260245ffdfe6080604090808252600480361015610015575f80fd5b5f3560e01c918262fefa6814610a30575081630a64143a146109f55781630d668087146109d7578163168ee33a14610940578163295711f9146108e5578163359cf2b7146105c25781634de5120e146105895781635312ea8e1461048a578163715018a6146104335781638da5cb5b1461040c57816390559584146103e95781639c37288c146103b0578163ae04d45d14610321578163bba661b314610302578163e6e268f4146102e4578163eacd8075146102b4578163ef0920651461027d578163f1f959a6146101d0578163f2fde38b14610141575063fcd0bc8d146100fb575f80fd5b3461013d575f36600319011261013d57517f00000000000000000000000000000000000000000000000000000000000000006001600160a01b03168152602090f35b5f80fd5b823461013d57602036600319011261013d576001600160a01b0382358181169391929084900361013d57610173610c30565b83156101ba5750505f54826bffffffffffffffffffffffff60a01b8216175f55167f8be0079c531659141344cd1fd0a4f28419497f9722a3daafe3b4186f6b6457e05f80a3005b905f6024925191631e4fbdf760e01b8352820152fd5b823461013d575f36600319011261013d5780516370a0823160e01b815230928101929092526020826024817f00000000000000000000000000000000000000000000000000000000000000006001600160a01b03165afa908115610274575f9161023f575b6020925051908152f35b90506020823d60201161026c575b8161025a60209383610a6b565b8101031261013d576020915190610235565b3d915061024d565b513d5f823e3d90fd5b90503461013d57602036600319011261013d5735906001600160a01b038216820361013d576102ad602092610bfe565b9051908152f35b90503461013d57602036600319011261013d5735906001600160a01b038216820361013d576102ad602092610bc5565b823461013d575f36600319011261013d576020906002549051908152f35b3461013d57602036600319011261013d5761031b610c30565b35600655005b90503461013d57602036600319011261013d5780359061033f610c30565b603c8210610377577f66e1e7d52aa5579a07f828553a0869fe33d5885fccb9f6f88faf5e1785869864602083858160035551908152a1005b606490602084519162461bcd60e51b83528201526013602482015272131bd8dac81d1a5b59481d1bdbc81cda1bdc9d606a1b6044820152fd5b90503461013d57602036600319011261013d5735906001600160a01b038216820361013d576103e0602092610ab9565b90519015158152f35b823461013d575f36600319011261013d5760209060ff6007541690519015158152f35b823461013d575f36600319011261013d575f5490516001600160a01b039091168152602090f35b3461013d575f36600319011261013d5761044b610c30565b5f80546001600160a01b0319811682556001600160a01b03167f8be0079c531659141344cd1fd0a4f28419497f9722a3daafe3b4186f6b6457e08280a3005b90503461013d57602036600319011261013d576104a5610c30565b5f8054835163a9059cbb60e01b81526001600160a01b039182168482019081528435602080830191909152919391928492918390036040019183917f0000000000000000000000000000000000000000000000000000000000000000165af190811561057f575f91610550575b501561051a57005b6020606492519162461bcd60e51b8352820152601160248201527015da5d1a191c985dd85b0819985a5b1959607a1b6044820152fd5b610572915060203d602011610578575b61056a8183610a6b565b810190610aa1565b5f610512565b503d610560565b83513d5f823e3d90fd5b823461013d57602036600319011261013d5781356001600160a01b038116929083900361013d576020925f528252805f20549051908152f35b823461013d575f36600319011261013d57600280600154146108d7578060015560ff600754161561089457335f52602092808452610606835f205460035490610a4a565b421061085157335f5260058452825f205461062383548092610a4a565b600654106108045783516370a0823160e01b815230838201527f00000000000000000000000000000000000000000000000000000000000000006001600160a01b031691908681602481865afa9081156107fa575f916107cd575b501061078a57846106d75f9233845284835242878520558554600584526106a9888620918254610a4a565b90558554875163a9059cbb60e01b815233878201908152602081019290925294859384928391604090910190565b03925af1908115610780575f91610763575b50156107285750907f1545c907bc00c8c1959efb40287a1f8a7f5bc5041e5d550c3adef488ef337508915492815193845242908401523392a260018055005b825162461bcd60e51b81529081018490526015602482015274151bdad95b881d1c985b9cd9995c8819985a5b1959605a1b6044820152606490fd5b61077a9150853d87116105785761056a8183610a6b565b856106e9565b84513d5f823e3d90fd5b835162461bcd60e51b8152808301869052601b60248201527f496e73756666696369656e74206661756365742062616c616e636500000000006044820152606490fd5b90508681813d83116107f3575b6107e48183610a6b565b8101031261013d57518761067e565b503d6107da565b86513d5f823e3d90fd5b835162461bcd60e51b8152808301869052602160248201527f4c69666574696d65207769746864726177616c206c696d6974207265616368656044820152601960fa1b6064820152608490fd5b825162461bcd60e51b8152908101849052601f60248201527f506c656173652077616974206265666f7265206e6578742072657175657374006044820152606490fd5b815162461bcd60e51b8152602081850152601c60248201527f4661756365742069732063757272656e746c7920696e616374697665000000006044820152606490fd5b5051633ee5aeb560e01b8152fd5b823461013d575f36600319011261013d5760207f87e7975983dfa9eadba810a775cce04da400ce8dcc3f201b0e2def605d58911d91610922610c30565b6007549060ff8083161516809260ff191617600755519015158152a1005b90503461013d57602036600319011261013d5780359061095e610c30565b8115610994577f743c5e222045e26fab3c2d65fbb6c7e7581fc1867626ef2015336017a96af699602083858160025551908152a1005b606490602084519162461bcd60e51b8352820152601d60248201527f416d6f756e74206d7573742062652067726561746572207468616e20300000006044820152fd5b823461013d575f36600319011261013d576020906003549051908152f35b90503461013d57602036600319011261013d57356001600160a01b038116919082900361013d576020915f5260058252805f20549051908152f35b3461013d575f36600319011261013d576020906006548152f35b91908201809211610a5757565b634e487b7160e01b5f52601160045260245ffd5b90601f8019910116810190811067ffffffffffffffff821117610a8d57604052565b634e487b7160e01b5f52604160045260245ffd5b9081602091031261013d5751801515810361013d5790565b60ff6007541615610bb3576040516370a0823160e01b81523060048201526020916001600160a01b039083836024817f000000000000000000000000000000000000000000000000000000000000000086165afa928315610ba8575f93610b79575b50600254809310610b715716805f5260048352610b3f60405f205460035490610a4a565b4210610b6a57610b59926005915f525260405f2054610a4a565b60065410610b6657600190565b5f90565b5050505f90565b505050505f90565b9092508381813d8311610ba1575b610b918183610a6b565b8101031261013d5751915f610b1b565b503d610b87565b6040513d5f823e3d90fd5b505f90565b91908203918211610a5757565b6001600160a01b03165f90815260046020526040902054600354610be891610a4a565b80421015610bb357610bfb904290610bb8565b90565b6001600160a01b03165f908152600560205260409020546006549081811015610c2a57610bfb91610bb8565b50505f90565b5f546001600160a01b03163303610c4357565b60405163118cdaa760e01b8152336004820152602490fdfea2646970667358221220dd85f0e2408d469710b0e07562c8241cd646f860f51aec2816dda44d4561456964736f6c63430008180033",
  "linkReferences": {},
  "deployedLinkReferences": {},
  "immutableReferences": {
    "11491": [
      {
        "length": 32,
        "start": 270
      },
      {
        "length": 32,
        "start": 509
      },
      {
        "length": 32,
        "start": 1250
      },
      {
        "length": 32,
        "start": 1598
      },
      {
        "length": 32,
        "start": 2794
      }
    ]
  },
  "inputSourceName": "project/contracts/MockUSDTFaucet.sol",
  "buildInfoId": "solc-0_8_24-eb300560ace755abfe5bde684ce2ad1a3e614016"
}