{
  "_format": "hh3-artifact-1",
  "contractName": "MockUSDTFaucet",
  "sourceName": "contracts/MockUSDTFaucet.sol",
  "abi": [
    {
      "inputs": [
        {
          "internalType": "address",
          "name": "_mockUSDTAddress",
          "type": "address"
        }
      ],
      "stateMutability": "nonpayable",
      "type": "constructor"
    },
    {
      "inputs": [
        {
          "internalType": "address",
          "name": "owner",
          "type": "address"
        }
      ],
      "name": "OwnableInvalidOwner",
      "type": "error"
    },
    {
      "inputs": [
        {
          "internalType": "address",
          "name": "account",
          "type": "address"
        }
      ],
      "name": "OwnableUnauthorizedAccount",
      "type": "error"
    },
    {
      "inputs": [],
      "name": "ReentrancyGuardReentrantCall",
      "type": "error"
    },
    {
      "anonymous": false,
      "inputs": [
        {
          "indexed": true,
          "internalType": "address",
          "name": "donor",
          "type": "address"
        },
        {
          "indexed": false,
          "internalType": "uint256",
          "name": "amount",
          "type": "uint256"
        }
      ],
      "name": "FaucetRefilled",
      "type": "event"
    },
    {
      "anonymous": false,
      "inputs": [
        {
          "indexed": false,
          "internalType": "bool",
          "name": "active",
          "type": "bool"
        }
      ],
      "name": "FaucetToggled",
      "type": "event"
    },
    {
      "anonymous": false,
      "inputs": [
        {
          "indexed": false,
          "internalType": "uint256",
          "name": "newLockTime",
          "type": "uint256"
        }
      ],
      "name": "LockTimeUpdated",
      "type": "event"
    },
    {
      "anonymous": false,
      "inputs": [
        {
          "indexed": true,
          "internalType": "address",
          "name": "previousOwner",
          "type": "address"
        },
        {
          "indexed": true,
          "internalType": "address",
          "name": "newOwner",
          "type": "address"
        }
      ],
      "name": "OwnershipTransferred",
      "type": "event"
    },
    {
      "anonymous": false,
      "inputs": [
        {
          "indexed": true,
          "internalType": "address",
          "name": "requester",
          "type": "address"
        },
        {
          "indexed": false,
          "internalType": "uint256",
          "name": "amount",
          "type": "uint256"
        },
        {
          "indexed": false,
          "internalType": "uint256",
          "name": "timestamp",
          "type": "uint256"
        }
      ],
      "name": "TokensRequested",
      "type": "event"
    },
    {
      "anonymous": false,
      "inputs": [
        {
          "indexed": false,
          "internalType": "uint256",
          "name": "newAmount",
          "type": "uint256"
        }
      ],
      "name": "WithdrawalAmountUpdated",
      "type": "event"
    },
    {
      "inputs": [
        {
          "internalType": "address",
          "name": "user",
          "type": "address"
        }
      ],
      "name": "canRequest",
      "outputs": [
        {
          "internalType": "bool",
          "name": "",
          "type": "bool"
        }
      ],
      "stateMutability": "view",
      "type": "function"
    },
    {
      "inputs": [
        {
          "internalType": "uint256",
          "name": "_amount",
          "type": "uint256"
        }
      ],
      "name": "emergencyWithdraw",
      "outputs": [],
      "stateMutability": "nonpayable",
      "type": "function"
    },
    {
      "inputs": [],
      "name": "faucetActive",
      "outputs": [
        {
          "internalType": "bool",
          "name": "",
          "type": "bool"
        }
      ],
      "stateMutability": "view",
      "type": "function"
    },
    {
      "inputs": [],
      "name": "getFaucetBalance",
      "outputs": [
        {
          "internalType": "uint256",
          "name": "",
          "type": "uint256"
        }
      ],
      "stateMutability": "view",
      "type": "function"
    },
    {
      "inputs": [
        {
          "internalType": "address",
          "name": "user",
          "type": "address"
        }
      ],
      "name": "getRemainingAllowance",
      "outputs": [
        {
          "internalType": "uint256",
          "name": "",
          "type": "uint256"
        }
      ],
      "stateMutability": "view",
      "type": "function"
    },
    {
      "inputs": [
        {
          "internalType": "address",
          "name": "user",
          "type": "address"
        }
      ],
      "name": "getTimeUntilNextRequest",
      "outputs": [
        {
          "internalType": "uint256",
          "name": "",
          "type": "uint256"
        }
      ],
      "stateMutability": "view",
      "type": "function"
    },
    {
      "inputs": [
        {
          "internalType": "address",
          "name": "",
          "type": "address"
        }
      ],
      "name": "lastWithdrawalTime",
      "outputs": [
        {
          "internalType": "uint256",
          "name": "",
          "type": "uint256"
        }
      ],
      "stateMutability": "view",
      "type": "function"
    },
    {
      "inputs": [],
      "name": "lockTime",
      "outputs": [
        {
          "internalType": "uint256",
          "name": "",
          "type": "uint256"
        }
      ],
      "stateMutability": "view",
      "type": "function"
    },
    {
      "inputs": [],
      "name": "maxTotalWithdrawal",
      "outputs": [
        {
          "internalType": "uint256",
          "name": "",
          "type": "uint256"
        }
      ],
      "stateMutability": "view",
      "type": "function"
    },
    {
      "inputs": [],
      "name": "mockUSDT",
      "outputs": [
        {
          "internalType": "contract IERC20",
          "name": "",
          "type": "address"
        }
      ],
      "stateMutability": "view",
      "type": "function"
    },
    {
      "inputs": [],
      "name": "owner",
      "outputs": [
        {
          "internalType": "address",
          "name": "",
          "type": "address"
        }
      ],
      "stateMutability": "view",
      "type": "function"
    },
    {
      "inputs": [],
      "name": "renounceOwnership",
      "outputs": [],
      "stateMutability": "nonpayable",
      "type": "function"
    },
    {
      "inputs": [],
      "name": "requestTokens",
      "outputs": [],
      "stateMutability": "nonpayable",
      "type": "function"
    },
    {
      "inputs": [
        {
          "internalType": "uint256",
          "name": "_lockTime",
          "type": "uint256"
        }
      ],
      "name": "setLockTime",
      "outputs": [],
      "stateMutability": "nonpayable",
      "type": "function"
    },
    {
      "inputs": [
        {
          "internalType": "uint256",
          "name": "_maxAmount",
          "type": "uint256"
        }
      ],
      "name": "setMaxTotalWithdrawal",
      "outputs": [],
      "stateMutability": "nonpayable",
      "type": "function"
    },
    {
      "inputs": [
        {
          "internalType": "uint256",
          "name": "_amount",
          "type": "uint256"
        }
      ],
      "name": "setWithdrawalAmount",
      "outputs": [],
      "stateMutability": "nonpayable",
      "type": "function"
    },
    {
      "inputs": [],
      "name": "toggleFaucet",
      "outputs": [],
      "stateMutability": "nonpayable",
      "type": "function"
    },
    {
      "inputs": [
        {
          "internalType": "address",
          "name": "",
          "type": "address"
        }
      ],
      "name": "totalWithdrawn",
      "outputs": [
        {
          "internalType": "uint256",
          "name": "",
          "type": "uint256"
        }
      ],
      "stateMutability": "view",
      "type": "function"
    },
    {
      "inputs": [
        {
          "internalType": "address",
          "name": "newOwner",
          "type": "address"
        }
      ],
      "name": "transferOwnership",
      "outputs": [],
      "stateMutability": "nonpayable",
      "type": "function"
    },
    {
      "inputs": [],
      "name": "withdrawalAmount",
      "outputs": [
        {
          "internalType": "uint256",
          "name": "",
          "type": "uint256"
        }
      ],
      "stateMutability": "view",
      "type": "function"
    }
  ],
  "bytecode": "0x60a060405262989680600255620151806003556305f5e1006006556007805460ff19166001179055348015610032575f80fd5b50604051610e38380380610e388339810160408190526100519161013b565b338061007757604051631e4fbdf760e01b81525f60048201526024015b60405180910390fd5b610080816100ec565b50600180556001600160a01b0381166100db5760405162461bcd60e51b815260206004820152601560248201527f496e76616c696420746f6b656e20616464726573730000000000000000000000604482015260640161006e565b6001600160a01b0316608052610168565b5f80546001600160a01b038381166001600160a01b0319831681178455604051919092169283917f8be0079c531659141344cd1fd0a4f28419497f9722a3daafe3b4186f6b6457e09190a35050565b5f6020828403121561014b575f80fd5b81516001600160a01b0381168114610161575f80fd5b9392505050565b608051610c956101a35f395f8181610296015281816104f90152818161060c015281816107140152818161083f0152610a570152610c955ff3fe608060405234801561000f575f80fd5b5060043610610126575f3560e01c806390559584116100a9578063eacd80751161006e578063eacd807514610250578063ef09206514610263578063f1f959a614610276578063f2fde38b1461027e578063fcd0bc8d14610291575f80fd5b806390559584146101f15780639c37288c1461020e578063ae04d45d14610221578063bba661b314610234578063e6e268f414610247575f80fd5b8063359cf2b7116100ef578063359cf2b71461018b5780634de5120e146101935780635312ea8e146101b2578063715018a6146101c55780638da5cb5b146101cd575f80fd5b8062fefa681461012a5780630a64143a146101465780630d66808714610165578063168ee33a1461016e578063295711f914610183575b5f80fd5b61013360065481565b6040519081526020015b60405180910390f35b610133610154366004610bac565b60056020525f908152604090205481565b61013360035481565b61018161017c366004610bd2565b6102b8565b005b610181610350565b6101816103a5565b6101336101a1366004610bac565b60046020525f908152604090205481565b6101816101c0366004610bd2565b61070a565b610181610803565b5f546001600160a01b03165b6040516001600160a01b03909116815260200161013d565b6007546101fe9060ff1681565b604051901515815260200161013d565b6101fe61021c366004610bac565b610814565b61018161022f366004610bd2565b61092d565b610181610242366004610bd2565b6109b1565b61013360025481565b61013361025e366004610bac565b6109be565b610133610271366004610bac565b610a09565b610133610a40565b61018161028c366004610bac565b610acd565b6101d97f000000000000000000000000000000000000000000000000000000000000000081565b6102c0610b07565b5f81116103145760405162461bcd60e51b815260206004820152601d60248201527f416d6f756e74206d7573742062652067726561746572207468616e203000000060448201526064015b60405180910390fd5b60028190556040518181527f743c5e222045e26fab3c2d65fbb6c7e7581fc1867626ef2015336017a96af699906020015b60405180910390a150565b610358610b07565b6007805460ff8082161560ff1990921682179092556040519116151581527f87e7975983dfa9eadba810a775cce04da400ce8dcc3f201b0e2def605d58911d9060200160405180910390a1565b6103ad610b33565b60075460ff166103ff5760405162461bcd60e51b815260206004820152601c60248201527f4661756365742069732063757272656e746c7920696e61637469766500000000604482015260640161030b565b600354335f9081526004602052604090205461041b9190610bfd565b42101561046a5760405162461bcd60e51b815260206004820152601f60248201527f506c656173652077616974206265666f7265206e657874207265717565737400604482015260640161030b565b600654600254335f908152600560205260409020546104899190610bfd565b11156104e15760405162461bcd60e51b815260206004820152602160248201527f4c69666574696d65207769746864726177616c206c696d6974207265616368656044820152601960fa1b606482015260840161030b565b6002546040516370a0823160e01b81523060048201527f00000000000000000000000000000000000000000000000000000000000000006001600160a01b0316906370a0823190602401602060405180830381865afa158015610546573d5f803e3d5ffd5b505050506040513d601f19601f8201168201806040525081019061056a9190610c16565b10156105b85760405162461bcd60e51b815260206004820152601b60248201527f496e73756666696369656e74206661756365742062616c616e63650000000000604482015260640161030b565b335f908152600460209081526040808320429055600254600590925282208054919290916105e7908490610bfd565b909155505060025460405163a9059cbb60e01b815233600482015260248101919091527f00000000000000000000000000000000000000000000000000000000000000006001600160a01b03169063a9059cbb906044016020604051808303815f875af115801561065a573d5f803e3d5ffd5b505050506040513d601f19601f8201168201806040525081019061067e9190610c2d565b6106c25760405162461bcd60e51b8152602060048201526015602482015274151bdad95b881d1c985b9cd9995c8819985a5b1959605a1b604482015260640161030b565b6002546040805191825242602083015233917f1545c907bc00c8c1959efb40287a1f8a7f5bc5041e5d550c3adef488ef337508910160405180910390a261070860018055565b565b610712610b07565b7f00000000000000000000000000000000000000000000000000000000000000006001600160a01b031663a9059cbb6107525f546001600160a01b031690565b6040516001600160e01b031960e084901b1681526001600160a01b039091166004820152602481018490526044016020604051808303815f875af115801561079c573d5f803e3d5ffd5b505050506040513d601f19601f820116820180604052508101906107c09190610c2d565b6108005760405162461bcd60e51b815260206004820152601160248201527015da5d1a191c985dd85b0819985a5b1959607a1b604482015260640161030b565b50565b61080b610b07565b6107085f610b5d565b6007545f9060ff1661082757505f919050565b6002546040516370a0823160e01b81523060048201527f00000000000000000000000000000000000000000000000000000000000000006001600160a01b0316906370a0823190602401602060405180830381865afa15801561088c573d5f803e3d5ffd5b505050506040513d601f19601f820116820180604052508101906108b09190610c16565b10156108bd57505f919050565b6003546001600160a01b0383165f908152600460205260409020546108e29190610bfd565b4210156108f057505f919050565b6006546002546001600160a01b0384165f908152600560205260409020546109189190610bfd565b111561092557505f919050565b506001919050565b610935610b07565b603c81101561097c5760405162461bcd60e51b8152602060048201526013602482015272131bd8dac81d1a5b59481d1bdbc81cda1bdc9d606a1b604482015260640161030b565b60038190556040518181527f66e1e7d52aa5579a07f828553a0869fe33d5885fccb9f6f88faf5e178586986490602001610345565b6109b9610b07565b600655565b6003546001600160a01b0382165f90815260046020526040812054909182916109e79190610bfd565b90508042106109f857505f92915050565b610a024282610c4c565b9392505050565b6001600160a01b0381165f908152600560205260408120546006548110610a3257505f92915050565b80600654610a029190610c4c565b6040516370a0823160e01b81523060048201525f907f00000000000000000000000000000000000000000000000000000000000000006001600160a01b0316906370a0823190602401602060405180830381865afa158015610aa4573d5f803e3d5ffd5b505050506040513d601f19601f82011682018060405250810190610ac89190610c16565b905090565b610ad5610b07565b6001600160a01b038116610afe57604051631e4fbdf760e01b81525f600482015260240161030b565b61080081610b5d565b5f546001600160a01b031633146107085760405163118cdaa760e01b815233600482015260240161030b565b600260015403610b5657604051633ee5aeb560e01b815260040160405180910390fd5b6002600155565b5f80546001600160a01b038381166001600160a01b0319831681178455604051919092169283917f8be0079c531659141344cd1fd0a4f28419497f9722a3daafe3b4186f6b6457e09190a35050565b5f60208284031215610bbc575f80fd5b81356001600160a01b0381168114610a02575f80fd5b5f60208284031215610be2575f80fd5b5035919050565b634e487b7160e01b5f52601160045260245ffd5b80820180821115610c1057610c10610be9565b92915050565b5f60208284031215610c26575f80fd5b5051919050565b5f60208284031215610c3d575f80fd5b81518015158114610a02575f80fd5b81810381811115610c1057610c10610be956fea2646970667358221220a35e1f322818ad5d6d06504e290e1fdf927e153d09b4c0e8dcf92dd5a7e307f164736f6c63430008180033",
  "linkReferences": {},
  "deployedLinkReferences": {},
  "immutableReferences": {
    "8769": [
      {
        "length": 32,
        "start": 662
      },
      {
        "length": 32,
        "start": 1273
      },
      {
        "length": 32,
        "start": 1548
      },
      {
        "length": 32,
        "start": 1812
      },
      {
        "length": 32,
        "start": 2111
      },
      {
        "length": 32,
        "start": 2647
      }
    ]
  },
  "inputSourceName": "project/contracts/MockUSDTFaucet.sol",
  "buildInfoId": "solc-0_8_24-4b8256df37d0ae5987733eced395d5e58f39f0fe"
}