{
  "_format": "hh3-artifact-1",
  "contractName": "ProxyWalletFactory",
  "sourceName": "contracts/ProxyWalletFactory.sol",
  "abi": [
    {
      "inputs": [],
      "stateMutability": "nonpayable",
      "type": "constructor"
    },
    {
      "inputs": [
        {
          "internalType": "address",
          "name": "owner",
          "type": "address"
        }
      ],
      "name": "OwnableInvalidOwner",
      "type": "error"
    },
    {
      "inputs": [
        {
          "internalType": "address",
          "name": "account",
          "type": "address"
        }
      ],
      "name": "OwnableUnauthorizedAccount",
      "type": "error"
    },
    {
      "anonymous": false,
      "inputs": [
        {
          "indexed": true,
          "internalType": "address",
          "name": "newImplementation",
          "type": "address"
        }
      ],
      "name": "ImplementationUpdated",
      "type": "event"
    },
    {
      "anonymous": false,
      "inputs": [
        {
          "indexed": true,
          "internalType": "address",
          "name": "previousOwner",
          "type": "address"
        },
        {
          "indexed": true,
          "internalType": "address",
          "name": "newOwner",
          "type": "address"
        }
      ],
      "name": "OwnershipTransferred",
      "type": "event"
    },
    {
      "anonymous": false,
      "inputs": [
        {
          "indexed": true,
          "internalType": "address",
          "name": "instance",
          "type": "address"
        },
        {
          "indexed": true,
          "internalType": "address",
          "name": "user",
          "type": "address"
        }
      ],
      "name": "ProxyCreation",
      "type": "event"
    },
    {
      "inputs": [],
      "name": "getImplementation",
      "outputs": [
        {
          "internalType": "address",
          "name": "",
          "type": "address"
        }
      ],
      "stateMutability": "view",
      "type": "function"
    },
    {
      "inputs": [
        {
          "internalType": "address",
          "name": "",
          "type": "address"
        },
        {
          "internalType": "address",
          "name": "user",
          "type": "address"
        }
      ],
      "name": "getInstanceAddress",
      "outputs": [
        {
          "internalType": "address",
          "name": "",
          "type": "address"
        }
      ],
      "stateMutability": "view",
      "type": "function"
    },
    {
      "inputs": [],
      "name": "implementation",
      "outputs": [
        {
          "internalType": "address",
          "name": "",
          "type": "address"
        }
      ],
      "stateMutability": "view",
      "type": "function"
    },
    {
      "inputs": [
        {
          "internalType": "address",
          "name": "",
          "type": "address"
        },
        {
          "internalType": "address",
          "name": "instanceAddress",
          "type": "address"
        },
        {
          "internalType": "address",
          "name": "user",
          "type": "address"
        }
      ],
      "name": "maybeMakeWallet",
      "outputs": [
        {
          "internalType": "address",
          "name": "",
          "type": "address"
        }
      ],
      "stateMutability": "nonpayable",
      "type": "function"
    },
    {
      "inputs": [],
      "name": "owner",
      "outputs": [
        {
          "internalType": "address",
          "name": "",
          "type": "address"
        }
      ],
      "stateMutability": "view",
      "type": "function"
    },
    {
      "inputs": [
        {
          "components": [
            {
              "internalType": "address",
              "name": "to",
              "type": "address"
            },
            {
              "internalType": "bytes",
              "name": "data",
              "type": "bytes"
            },
            {
              "internalType": "uint256",
              "name": "value",
              "type": "uint256"
            }
          ],
          "internalType": "struct ProxyWalletFactory.Call[]",
          "name": "calls",
          "type": "tuple[]"
        }
      ],
      "name": "proxy",
      "outputs": [
        {
          "internalType": "bytes[]",
          "name": "",
          "type": "bytes[]"
        }
      ],
      "stateMutability": "payable",
      "type": "function"
    },
    {
      "inputs": [],
      "name": "renounceOwnership",
      "outputs": [],
      "stateMutability": "nonpayable",
      "type": "function"
    },
    {
      "inputs": [
        {
          "internalType": "address",
          "name": "_newImplementation",
          "type": "address"
        }
      ],
      "name": "setImplementation",
      "outputs": [],
      "stateMutability": "nonpayable",
      "type": "function"
    },
    {
      "inputs": [
        {
          "internalType": "address",
          "name": "newOwner",
          "type": "address"
        }
      ],
      "name": "transferOwnership",
      "outputs": [],
      "stateMutability": "nonpayable",
      "type": "function"
    }
  ],
  "bytecode": "0x60808060405234610078573315610063575f8054336001600160a01b03198216811783556040519290916001600160a01b0316907f8be0079c531659141344cd1fd0a4f28419497f9722a3daafe3b4186f6b6457e09080a36115be908161007d8239f35b631e4fbdf760e01b81525f6004820152602490fd5b5f80fdfe604060808152600480361015610013575f80fd5b5f3560e01c80635b03e04b146103a95780635c60da1b1461027d5780636d5fa22a14610323578063715018a6146102cc5780638da5cb5b146102a5578063aaf10f421461027d578063d784d42614610217578063dfb17f481461010d5763f2fde38b1461007e575f80fd5b34610109576020366003190112610109576100976103f7565b906100a0610545565b6001600160a01b039182169283156100f35750505f54826bffffffffffffffffffffffff60a01b8216175f55167f8be0079c531659141344cd1fd0a4f28419497f9722a3daafe3b4186f6b6457e05f80a3005b905f6024925191631e4fbdf760e01b8352820152fd5b5f80fd5b50346101095781600319360112610109576101266103f7565b506001600160a01b038061013861040d565b166110189260209480519461014f878201876104fa565b80865261057187870139805194838787015286865281860167ffffffffffffffff9680821088831117610204576101ac9082855261019a61019460608301809661051c565b8261051c565b03605f1981018352603f1901826104fa565b519020918151928784019460ff60f81b86523060601b602186015260358501526055840152605583526080830195838710908711176101f15750849052519020168152f35b604190634e487b7160e01b5f525260245ffd5b604185634e487b7160e01b5f525260245ffd5b34610109576020366003190112610109576102306103f7565b610238610545565b600180546001600160a01b0319166001600160a01b039290921691821790557f310ba5f1d2ed074b51e2eccd052a47ae9ab7c6b800d1fca3db3999d6a592ca035f80a2005b8234610109575f3660031901126101095760015490516001600160a01b039091168152602090f35b8234610109575f366003190112610109575f5490516001600160a01b039091168152602090f35b34610109575f366003190112610109576102e4610545565b5f80546001600160a01b0319811682556001600160a01b03167f8be0079c531659141344cd1fd0a4f28419497f9722a3daafe3b4186f6b6457e08280a3005b5060203660031901126101095767ffffffffffffffff81358181116101095736602382011215610109578083013591821161010957602490369260051b010111610109576020606492519162461bcd60e51b8352820152602060248201527f5573652077616c6c65742e657865637574654261746368206469726563746c796044820152fd5b8234610109576060366003190112610109576103c36103f7565b506103cc61040d565b60443591906001600160a01b03908184168403610109576020936103ef91610423565b915191168152f35b600435906001600160a01b038216820361010957565b602435906001600160a01b038216820361010957565b90813b6104f6576040516001600160a01b0391821691906110189081810167ffffffffffffffff8111828210176104e25781602091869461057183398481520301905ff580156104d75781169216820361049f57817f4f51faf6c4561ff95f067657e43439f0f856d97c04d9ec9070a6199ad418e2355f80a390565b60405162461bcd60e51b815260206004820152601060248201526f082c8c8e4cae6e640dad2e6dac2e8c6d60831b6044820152606490fd5b6040513d5f823e3d90fd5b634e487b7160e01b5f52604160045260245ffd5b5090565b90601f8019910116810190811067ffffffffffffffff8211176104e257604052565b908151915f5b838110610532575050015f815290565b8060208092840101518185015201610522565b5f546001600160a01b0316330361055857565b60405163118cdaa760e01b8152336004820152602490fdfe60c034610145576001600160401b0390601f61101838819003918201601f191683019291908484118385101761013157816020928492604096875283398101031261014557516001600160a01b038116810361014557608052600b6020825161006781610149565b828152016a141c9bde1e55d85b1b195d60aa1b8152209060016020825161008d81610149565b82815201603160f81b8152209080519160208301937f8b73c3c69bb8fe3d512ecc4cf759cc79239f7b179b0ffacaa9a75d522b39400f85528284015260608301524660808301523060a083015260a0825260c0820193828510908511176101315783905251902060a052610eb390816101658239608051818181610239015281816105db015281816107300152610a7f015260a05181818161031301526109e60152f35b634e487b7160e01b5f52604160045260245ffd5b5f80fd5b604081019081106001600160401b038211176101315760405256fe6080604090808252600480361015610021575b505050361561001f575f80fd5b005b5f3560e01c91826301ffc9a714610a09575081632d0335ab146109995781633644e515146109cf5781637ecebe0014610999578163893d20e8146106ed5781638a89b44b146106f25781638da5cb5b146106ed578163a04a09081461058f578163aff2d5ee146101cb578163bc197c8114610144578163f23a6e61146100f0575063fa2c322d146100b3578080610012565b346100ec575f3660031901126100ec57602090517f50951fe990efbd6182c4475e502cea0fd67be6229aa8ce079a484588a8902cc48152f35b5f80fd5b82346100ec5760a03660031901126100ec5761010a610a3e565b50610113610a54565b5060843567ffffffffffffffff81116100ec5760209261013591369101610b1d565b50505163f23a6e6160e01b8152f35b82346100ec5760a03660031901126100ec5761015e610a3e565b50610167610a54565b5067ffffffffffffffff6044358181116100ec576101889036908501610aae565b50506064358181116100ec576101a19036908501610aae565b50506084359081116100ec576020926101bc91369101610b1d565b50505163bc197c8160e01b8152f35b905060a03660031901126100ec576101e1610a3e565b906101ea610a54565b67ffffffffffffffff936044358581116100ec5761020b9036908501610b1d565b6064358781116100ec576102229036908701610b1d565b6084359791956001600160a01b03928316949290917f0000000000000000000000000000000000000000000000000000000000000000821686036105575789421161052057855f526020975f8952875f209a8b549b5f198d1461050d57988c9d8b9c9d9a92829c9360018d01905561029b368b8b610cfd565b8481519101209b8b8451958601947f50951fe990efbd6182c4475e502cea0fd67be6229aa8ce079a484588a8902cc486528601528789169c8d6060870152608086015260a085015260c084015260c0835260e0830191838310828411176104fa57828d528351902061190160f01b61010085019081527f0000000000000000000000000000000000000000000000000000000000000000610102860152610122850191909152604283529261016001908111828210176104e75761038193610378938b979693610372938f52519020923691610cfd565b90610d33565b90929192610d6d565b16036104b0575f809187518585823780868101848152039134905af1966103a6610c6b565b97156104255750948697847ff4800c13ce03d6b46be439e64c27067ebb2921fda2eff0daa77e8e3bae518a307f03a8e3abe17734f998ec7aacc8db66f8ab07e8096a306018130db6d465f0da749461042199610409869c8b519384933485610cba565b0390a28551908152a351928284938452830190610adf565b0390f35b8686867f8d1ecf04e6462600e647fec505da5fb931c5d7e2c8171df5f6629beab50ec07f608495876104668551928392348452878985015287840191610c9a565b0390a25162461bcd60e51b815291820152602160248201527f4d6574612d7472616e73616374696f6e20657865637574696f6e206661696c656044820152601960fa1b6064820152fd5b855162461bcd60e51b81528089018890526011602482015270496e76616c6964207369676e617475726560781b6044820152606490fd5b60418e634e487b7160e01b5f525260245ffd5b60418f634e487b7160e01b5f525260245ffd5b60118c634e487b7160e01b5f525260245ffd5b865162461bcd60e51b81526020818b0152601160248201527014da59db985d1d5c9948195e1c1a5c9959607a1b6044820152606490fd5b865162461bcd60e51b81526020818b015260126024820152712ab9b2b91036bab9ba1031329037bbb732b960711b6044820152606490fd5b905060603660031901126100ec576105a5610a3e565b9160243567ffffffffffffffff81116100ec576105c59036908401610b1d565b6001600160a01b039460443592909190610602337f0000000000000000000000000000000000000000000000000000000000000000891614610b4b565b5f8086518484823780858101838152039087875af195610620610c6b565b96156106755750916106608661042198937ff4800c13ce03d6b46be439e64c27067ebb2921fda2eff0daa77e8e3bae518a30958851958695169785610cba565b0390a251918291602083526020830190610adf565b602086847f8d1ecf04e6462600e647fec505da5fb931c5d7e2c8171df5f6629beab50ec07f87896106ba6064988f87519485948552888a860152169587840191610c9a565b0390a25162461bcd60e51b815291820152601060248201526f115e1958dd5d1a5bdb8819985a5b195960821b6044820152fd5b610a6a565b60209150366003190182136100ec57803567ffffffffffffffff81116100ec5761071f9036908301610aae565b6001600160a01b03929091610757337f0000000000000000000000000000000000000000000000000000000000000000861614610b4b565b61076083610bba565b9361076d87519586610b84565b83855261077984610bba565b601f1901865f5b828110610989575050505f5b8481106107ef57878787825191808301818452825180915281858501958260051b8601019301915f955b8287106107c35785850386f35b9091929382806107df600193603f198a82030186528851610adf565b96019201960195929190926107b6565b5f806108046107ff848988610bd2565b610c08565b8a80610811868b8a610bd2565b013561082a610821878c8b610bd2565b8d810190610c1c565b8093519384928337810185815203925af1610843610c6b565b90156108d9579081847ff4800c13ce03d6b46be439e64c27067ebb2921fda2eff0daa77e8e3bae518a3085826108ba6001978f8f6108ad908f8b818561089c83836108966107ff838f996108a49a610bd2565b9c610bd2565b01359b610bd2565b90810190610c1c565b9151958695169785610cba565b0390a26108c78289610ce9565b526108d28188610ce9565b500161078c565b606485898b867f8d1ecf04e6462600e647fec505da5fb931c5d7e2c8171df5f6629beab50ec07f8b8a61095061093861092f8c61091a6107ff828888610bd2565b9589610927838389610bd2565b013595610bd2565b88810190610c1c565b9587519485948552888a860152169587840191610c9a565b0390a25162461bcd60e51b815291820152601660248201527510985d18da08195e1958dd5d1a5bdb8819985a5b195960521b6044820152fd5b606082828a010152018790610780565b82346100ec5760203660031901126100ec576020906001600160a01b036109be610a3e565b165f525f8252805f20549051908152f35b82346100ec575f3660031901126100ec57602090517f00000000000000000000000000000000000000000000000000000000000000008152f35b90346100ec5760203660031901126100ec57359063ffffffff60e01b82168092036100ec57602091630271189760e51b148152f35b600435906001600160a01b03821682036100ec57565b602435906001600160a01b03821682036100ec57565b346100ec575f3660031901126100ec576040517f00000000000000000000000000000000000000000000000000000000000000006001600160a01b03168152602090f35b9181601f840112156100ec5782359167ffffffffffffffff83116100ec576020808501948460051b0101116100ec57565b91908251928382525f5b848110610b09575050825f602080949584010152601f8019910116010190565b602081830181015184830182015201610ae9565b9181601f840112156100ec5782359167ffffffffffffffff83116100ec57602083818601950101116100ec57565b15610b5257565b60405162461bcd60e51b815260206004820152600a60248201526927b7363c9037bbb732b960b11b6044820152606490fd5b90601f8019910116810190811067ffffffffffffffff821117610ba657604052565b634e487b7160e01b5f52604160045260245ffd5b67ffffffffffffffff8111610ba65760051b60200190565b9190811015610bf45760051b81013590605e19813603018212156100ec570190565b634e487b7160e01b5f52603260045260245ffd5b356001600160a01b03811681036100ec5790565b903590601e19813603018212156100ec570180359067ffffffffffffffff82116100ec576020019181360383136100ec57565b67ffffffffffffffff8111610ba657601f01601f191660200190565b3d15610c95573d90610c7c82610c4f565b91610c8a6040519384610b84565b82523d5f602084013e565b606090565b908060209392818452848401375f828201840152601f01601f1916010190565b9291610ce69492610cd8928552606060208601526060850191610c9a565b916040818403910152610adf565b90565b8051821015610bf45760209160051b010190565b929192610d0982610c4f565b91610d176040519384610b84565b8294818452818301116100ec578281602093845f960137010152565b8151919060418303610d6357610d5c9250602082015190606060408401519301515f1a90610df0565b9192909190565b50505f9160029190565b6004811015610ddc5780610d7f575050565b60018103610d995760405163f645eedf60e01b8152600490fd5b60028103610dba5760405163fce698f760e01b815260048101839052602490fd5b600314610dc45750565b602490604051906335e2f38360e21b82526004820152fd5b634e487b7160e01b5f52602160045260245ffd5b91907f7fffffffffffffffffffffffffffffff5d576e7357a4501ddfe92f46681b20a08411610e72579160209360809260ff5f9560405194855216868401526040830152606082015282805260015afa15610e67575f516001600160a01b03811615610e5d57905f905f90565b505f906001905f90565b6040513d5f823e3d90fd5b5050505f916003919056fea264697066735822122042b8d92cd57354b663dbda664b96608a615be5c1a0ef996c89af8b55363c0c6664736f6c63430008180033a26469706673582212200579ef36238e398e7ee4784792018043e9df83f354bcf5b47523a4e1cd9029d864736f6c63430008180033",
  "linkReferences": {},
  "deployedLinkReferences": {},
  "immutableReferences": {},
  "inputSourceName": "project/contracts/ProxyWalletFactory.sol",
  "buildInfoId": "solc-0_8_24-eb300560ace755abfe5bde684ce2ad1a3e614016"
}