{
  "_format": "hh3-artifact-1",
  "contractName": "CTFExchange",
  "sourceName": "contracts/CTFExchange.sol",
  "abi": [
    {
      "inputs": [
        {
          "internalType": "address",
          "name": "_collateral",
          "type": "address"
        },
        {
          "internalType": "address",
          "name": "_ctf",
          "type": "address"
        },
        {
          "internalType": "address",
          "name": "_proxyFactory",
          "type": "address"
        },
        {
          "internalType": "address",
          "name": "",
          "type": "address"
        }
      ],
      "stateMutability": "nonpayable",
      "type": "constructor"
    },
    {
      "inputs": [],
      "name": "AccessControlBadConfirmation",
      "type": "error"
    },
    {
      "inputs": [
        {
          "internalType": "address",
          "name": "account",
          "type": "address"
        },
        {
          "internalType": "bytes32",
          "name": "neededRole",
          "type": "bytes32"
        }
      ],
      "name": "AccessControlUnauthorizedAccount",
      "type": "error"
    },
    {
      "anonymous": false,
      "inputs": [
        {
          "indexed": true,
          "internalType": "bytes32",
          "name": "orderHash",
          "type": "bytes32"
        },
        {
          "indexed": true,
          "internalType": "address",
          "name": "maker",
          "type": "address"
        },
        {
          "indexed": true,
          "internalType": "address",
          "name": "taker",
          "type": "address"
        },
        {
          "indexed": false,
          "internalType": "uint256",
          "name": "makerAssetId",
          "type": "uint256"
        },
        {
          "indexed": false,
          "internalType": "uint256",
          "name": "takerAssetId",
          "type": "uint256"
        },
        {
          "indexed": false,
          "internalType": "uint256",
          "name": "makerAmountFilled",
          "type": "uint256"
        },
        {
          "indexed": false,
          "internalType": "uint256",
          "name": "takerAmountFilled",
          "type": "uint256"
        },
        {
          "indexed": false,
          "internalType": "uint256",
          "name": "fee",
          "type": "uint256"
        }
      ],
      "name": "OrderFilled",
      "type": "event"
    },
    {
      "anonymous": false,
      "inputs": [
        {
          "indexed": true,
          "internalType": "bytes32",
          "name": "takerOrderHash",
          "type": "bytes32"
        },
        {
          "indexed": false,
          "internalType": "bytes32[]",
          "name": "makerOrderHashes",
          "type": "bytes32[]"
        },
        {
          "indexed": false,
          "internalType": "uint256",
          "name": "takerFilled",
          "type": "uint256"
        },
        {
          "indexed": false,
          "internalType": "uint256[]",
          "name": "makerFilled",
          "type": "uint256[]"
        }
      ],
      "name": "OrdersMatched",
      "type": "event"
    },
    {
      "anonymous": false,
      "inputs": [
        {
          "indexed": true,
          "internalType": "bytes32",
          "name": "role",
          "type": "bytes32"
        },
        {
          "indexed": true,
          "internalType": "bytes32",
          "name": "previousAdminRole",
          "type": "bytes32"
        },
        {
          "indexed": true,
          "internalType": "bytes32",
          "name": "newAdminRole",
          "type": "bytes32"
        }
      ],
      "name": "RoleAdminChanged",
      "type": "event"
    },
    {
      "anonymous": false,
      "inputs": [
        {
          "indexed": true,
          "internalType": "bytes32",
          "name": "role",
          "type": "bytes32"
        },
        {
          "indexed": true,
          "internalType": "address",
          "name": "account",
          "type": "address"
        },
        {
          "indexed": true,
          "internalType": "address",
          "name": "sender",
          "type": "address"
        }
      ],
      "name": "RoleGranted",
      "type": "event"
    },
    {
      "anonymous": false,
      "inputs": [
        {
          "indexed": true,
          "internalType": "bytes32",
          "name": "role",
          "type": "bytes32"
        },
        {
          "indexed": true,
          "internalType": "address",
          "name": "account",
          "type": "address"
        },
        {
          "indexed": true,
          "internalType": "address",
          "name": "sender",
          "type": "address"
        }
      ],
      "name": "RoleRevoked",
      "type": "event"
    },
    {
      "anonymous": false,
      "inputs": [
        {
          "indexed": true,
          "internalType": "uint256",
          "name": "token0",
          "type": "uint256"
        },
        {
          "indexed": true,
          "internalType": "uint256",
          "name": "token1",
          "type": "uint256"
        },
        {
          "indexed": true,
          "internalType": "bytes32",
          "name": "conditionId",
          "type": "bytes32"
        }
      ],
      "name": "TokenRegistered",
      "type": "event"
    },
    {
      "anonymous": false,
      "inputs": [],
      "name": "TradingPaused",
      "type": "event"
    },
    {
      "anonymous": false,
      "inputs": [],
      "name": "TradingUnpaused",
      "type": "event"
    },
    {
      "inputs": [],
      "name": "DEFAULT_ADMIN_ROLE",
      "outputs": [
        {
          "internalType": "bytes32",
          "name": "",
          "type": "bytes32"
        }
      ],
      "stateMutability": "view",
      "type": "function"
    },
    {
      "inputs": [],
      "name": "OPERATOR_ROLE",
      "outputs": [
        {
          "internalType": "bytes32",
          "name": "",
          "type": "bytes32"
        }
      ],
      "stateMutability": "view",
      "type": "function"
    },
    {
      "inputs": [],
      "name": "collateral",
      "outputs": [
        {
          "internalType": "contract IERC20",
          "name": "",
          "type": "address"
        }
      ],
      "stateMutability": "view",
      "type": "function"
    },
    {
      "inputs": [
        {
          "internalType": "uint256",
          "name": "",
          "type": "uint256"
        }
      ],
      "name": "complements",
      "outputs": [
        {
          "internalType": "uint256",
          "name": "",
          "type": "uint256"
        }
      ],
      "stateMutability": "view",
      "type": "function"
    },
    {
      "inputs": [
        {
          "internalType": "uint256",
          "name": "",
          "type": "uint256"
        }
      ],
      "name": "conditionIds",
      "outputs": [
        {
          "internalType": "bytes32",
          "name": "",
          "type": "bytes32"
        }
      ],
      "stateMutability": "view",
      "type": "function"
    },
    {
      "inputs": [],
      "name": "ctf",
      "outputs": [
        {
          "internalType": "contract IERC1155",
          "name": "",
          "type": "address"
        }
      ],
      "stateMutability": "view",
      "type": "function"
    },
    {
      "inputs": [
        {
          "components": [
            {
              "internalType": "address",
              "name": "maker",
              "type": "address"
            },
            {
              "internalType": "address",
              "name": "makerAsset",
              "type": "address"
            },
            {
              "internalType": "address",
              "name": "takerAsset",
              "type": "address"
            },
            {
              "internalType": "uint256",
              "name": "makerAmount",
              "type": "uint256"
            },
            {
              "internalType": "uint256",
              "name": "takerAmount",
              "type": "uint256"
            },
            {
              "internalType": "uint256",
              "name": "salt",
              "type": "uint256"
            },
            {
              "internalType": "uint256",
              "name": "expiry",
              "type": "uint256"
            },
            {
              "internalType": "uint8",
              "name": "side",
              "type": "uint8"
            },
            {
              "internalType": "bytes",
              "name": "signature",
              "type": "bytes"
            }
          ],
          "internalType": "struct CTFExchange.Order",
          "name": "order",
          "type": "tuple"
        },
        {
          "internalType": "uint256",
          "name": "fillAmount",
          "type": "uint256"
        }
      ],
      "name": "fillOrder",
      "outputs": [],
      "stateMutability": "nonpayable",
      "type": "function"
    },
    {
      "inputs": [
        {
          "components": [
            {
              "internalType": "address",
              "name": "maker",
              "type": "address"
            },
            {
              "internalType": "address",
              "name": "makerAsset",
              "type": "address"
            },
            {
              "internalType": "address",
              "name": "takerAsset",
              "type": "address"
            },
            {
              "internalType": "uint256",
              "name": "makerAmount",
              "type": "uint256"
            },
            {
              "internalType": "uint256",
              "name": "takerAmount",
              "type": "uint256"
            },
            {
              "internalType": "uint256",
              "name": "salt",
              "type": "uint256"
            },
            {
              "internalType": "uint256",
              "name": "expiry",
              "type": "uint256"
            },
            {
              "internalType": "uint8",
              "name": "side",
              "type": "uint8"
            },
            {
              "internalType": "bytes",
              "name": "signature",
              "type": "bytes"
            }
          ],
          "internalType": "struct CTFExchange.Order[]",
          "name": "orders",
          "type": "tuple[]"
        },
        {
          "internalType": "uint256[]",
          "name": "fillAmounts",
          "type": "uint256[]"
        }
      ],
      "name": "fillOrders",
      "outputs": [],
      "stateMutability": "nonpayable",
      "type": "function"
    },
    {
      "inputs": [
        {
          "internalType": "bytes32",
          "name": "",
          "type": "bytes32"
        }
      ],
      "name": "filledOrders",
      "outputs": [
        {
          "internalType": "bool",
          "name": "",
          "type": "bool"
        }
      ],
      "stateMutability": "view",
      "type": "function"
    },
    {
      "inputs": [],
      "name": "getCollateral",
      "outputs": [
        {
          "internalType": "address",
          "name": "",
          "type": "address"
        }
      ],
      "stateMutability": "view",
      "type": "function"
    },
    {
      "inputs": [
        {
          "internalType": "uint256",
          "name": "token",
          "type": "uint256"
        }
      ],
      "name": "getComplement",
      "outputs": [
        {
          "internalType": "uint256",
          "name": "",
          "type": "uint256"
        }
      ],
      "stateMutability": "view",
      "type": "function"
    },
    {
      "inputs": [
        {
          "internalType": "uint256",
          "name": "token",
          "type": "uint256"
        }
      ],
      "name": "getConditionId",
      "outputs": [
        {
          "internalType": "bytes32",
          "name": "",
          "type": "bytes32"
        }
      ],
      "stateMutability": "view",
      "type": "function"
    },
    {
      "inputs": [],
      "name": "getCtf",
      "outputs": [
        {
          "internalType": "address",
          "name": "",
          "type": "address"
        }
      ],
      "stateMutability": "view",
      "type": "function"
    },
    {
      "inputs": [
        {
          "internalType": "bytes32",
          "name": "orderHash",
          "type": "bytes32"
        }
      ],
      "name": "getOrderStatus",
      "outputs": [
        {
          "internalType": "uint256",
          "name": "",
          "type": "uint256"
        }
      ],
      "stateMutability": "view",
      "type": "function"
    },
    {
      "inputs": [],
      "name": "getProxyFactory",
      "outputs": [
        {
          "internalType": "address",
          "name": "",
          "type": "address"
        }
      ],
      "stateMutability": "view",
      "type": "function"
    },
    {
      "inputs": [
        {
          "internalType": "bytes32",
          "name": "role",
          "type": "bytes32"
        }
      ],
      "name": "getRoleAdmin",
      "outputs": [
        {
          "internalType": "bytes32",
          "name": "",
          "type": "bytes32"
        }
      ],
      "stateMutability": "view",
      "type": "function"
    },
    {
      "inputs": [],
      "name": "getSafeFactory",
      "outputs": [
        {
          "internalType": "address",
          "name": "",
          "type": "address"
        }
      ],
      "stateMutability": "pure",
      "type": "function"
    },
    {
      "inputs": [
        {
          "internalType": "bytes32",
          "name": "role",
          "type": "bytes32"
        },
        {
          "internalType": "address",
          "name": "account",
          "type": "address"
        }
      ],
      "name": "grantRole",
      "outputs": [],
      "stateMutability": "nonpayable",
      "type": "function"
    },
    {
      "inputs": [
        {
          "internalType": "bytes32",
          "name": "role",
          "type": "bytes32"
        },
        {
          "internalType": "address",
          "name": "account",
          "type": "address"
        }
      ],
      "name": "hasRole",
      "outputs": [
        {
          "internalType": "bool",
          "name": "",
          "type": "bool"
        }
      ],
      "stateMutability": "view",
      "type": "function"
    },
    {
      "inputs": [
        {
          "components": [
            {
              "internalType": "address",
              "name": "maker",
              "type": "address"
            },
            {
              "internalType": "address",
              "name": "makerAsset",
              "type": "address"
            },
            {
              "internalType": "address",
              "name": "takerAsset",
              "type": "address"
            },
            {
              "internalType": "uint256",
              "name": "makerAmount",
              "type": "uint256"
            },
            {
              "internalType": "uint256",
              "name": "takerAmount",
              "type": "uint256"
            },
            {
              "internalType": "uint256",
              "name": "salt",
              "type": "uint256"
            },
            {
              "internalType": "uint256",
              "name": "expiry",
              "type": "uint256"
            },
            {
              "internalType": "uint8",
              "name": "side",
              "type": "uint8"
            },
            {
              "internalType": "bytes",
              "name": "signature",
              "type": "bytes"
            }
          ],
          "internalType": "struct CTFExchange.Order",
          "name": "order",
          "type": "tuple"
        }
      ],
      "name": "hashOrder",
      "outputs": [
        {
          "internalType": "bytes32",
          "name": "",
          "type": "bytes32"
        }
      ],
      "stateMutability": "pure",
      "type": "function"
    },
    {
      "inputs": [
        {
          "internalType": "bytes32",
          "name": "orderHash",
          "type": "bytes32"
        }
      ],
      "name": "isOrderFilled",
      "outputs": [
        {
          "internalType": "bool",
          "name": "",
          "type": "bool"
        }
      ],
      "stateMutability": "view",
      "type": "function"
    },
    {
      "inputs": [
        {
          "components": [
            {
              "internalType": "address",
              "name": "maker",
              "type": "address"
            },
            {
              "internalType": "address",
              "name": "makerAsset",
              "type": "address"
            },
            {
              "internalType": "address",
              "name": "takerAsset",
              "type": "address"
            },
            {
              "internalType": "uint256",
              "name": "makerAmount",
              "type": "uint256"
            },
            {
              "internalType": "uint256",
              "name": "takerAmount",
              "type": "uint256"
            },
            {
              "internalType": "uint256",
              "name": "salt",
              "type": "uint256"
            },
            {
              "internalType": "uint256",
              "name": "expiry",
              "type": "uint256"
            },
            {
              "internalType": "uint8",
              "name": "side",
              "type": "uint8"
            },
            {
              "internalType": "bytes",
              "name": "signature",
              "type": "bytes"
            }
          ],
          "internalType": "struct CTFExchange.Order",
          "name": "takerOrder",
          "type": "tuple"
        },
        {
          "components": [
            {
              "internalType": "address",
              "name": "maker",
              "type": "address"
            },
            {
              "internalType": "address",
              "name": "makerAsset",
              "type": "address"
            },
            {
              "internalType": "address",
              "name": "takerAsset",
              "type": "address"
            },
            {
              "internalType": "uint256",
              "name": "makerAmount",
              "type": "uint256"
            },
            {
              "internalType": "uint256",
              "name": "takerAmount",
              "type": "uint256"
            },
            {
              "internalType": "uint256",
              "name": "salt",
              "type": "uint256"
            },
            {
              "internalType": "uint256",
              "name": "expiry",
              "type": "uint256"
            },
            {
              "internalType": "uint8",
              "name": "side",
              "type": "uint8"
            },
            {
              "internalType": "bytes",
              "name": "signature",
              "type": "bytes"
            }
          ],
          "internalType": "struct CTFExchange.Order[]",
          "name": "makerOrders",
          "type": "tuple[]"
        },
        {
          "internalType": "uint256",
          "name": "takerFillAmount",
          "type": "uint256"
        },
        {
          "internalType": "uint256[]",
          "name": "makerFillAmounts",
          "type": "uint256[]"
        }
      ],
      "name": "matchOrders",
      "outputs": [],
      "stateMutability": "nonpayable",
      "type": "function"
    },
    {
      "inputs": [],
      "name": "pauseTrading",
      "outputs": [],
      "stateMutability": "nonpayable",
      "type": "function"
    },
    {
      "inputs": [],
      "name": "paused",
      "outputs": [
        {
          "internalType": "bool",
          "name": "",
          "type": "bool"
        }
      ],
      "stateMutability": "view",
      "type": "function"
    },
    {
      "inputs": [],
      "name": "proxyFactory",
      "outputs": [
        {
          "internalType": "address",
          "name": "",
          "type": "address"
        }
      ],
      "stateMutability": "view",
      "type": "function"
    },
    {
      "inputs": [
        {
          "internalType": "uint256",
          "name": "token",
          "type": "uint256"
        },
        {
          "internalType": "uint256",
          "name": "complement",
          "type": "uint256"
        },
        {
          "internalType": "bytes32",
          "name": "conditionId",
          "type": "bytes32"
        }
      ],
      "name": "registerToken",
      "outputs": [],
      "stateMutability": "nonpayable",
      "type": "function"
    },
    {
      "inputs": [
        {
          "internalType": "bytes32",
          "name": "role",
          "type": "bytes32"
        },
        {
          "internalType": "address",
          "name": "callerConfirmation",
          "type": "address"
        }
      ],
      "name": "renounceRole",
      "outputs": [],
      "stateMutability": "nonpayable",
      "type": "function"
    },
    {
      "inputs": [
        {
          "internalType": "bytes32",
          "name": "role",
          "type": "bytes32"
        },
        {
          "internalType": "address",
          "name": "account",
          "type": "address"
        }
      ],
      "name": "revokeRole",
      "outputs": [],
      "stateMutability": "nonpayable",
      "type": "function"
    },
    {
      "inputs": [
        {
          "internalType": "address",
          "name": "_newProxyFactory",
          "type": "address"
        }
      ],
      "name": "setProxyFactory",
      "outputs": [],
      "stateMutability": "nonpayable",
      "type": "function"
    },
    {
      "inputs": [
        {
          "internalType": "address",
          "name": "",
          "type": "address"
        }
      ],
      "name": "setSafeFactory",
      "outputs": [],
      "stateMutability": "nonpayable",
      "type": "function"
    },
    {
      "inputs": [
        {
          "internalType": "bytes4",
          "name": "interfaceId",
          "type": "bytes4"
        }
      ],
      "name": "supportsInterface",
      "outputs": [
        {
          "internalType": "bool",
          "name": "",
          "type": "bool"
        }
      ],
      "stateMutability": "view",
      "type": "function"
    },
    {
      "inputs": [],
      "name": "unpauseTrading",
      "outputs": [],
      "stateMutability": "nonpayable",
      "type": "function"
    }
  ],
  "bytecode": "0x60c034620000dd57601f620015d038819003918201601f19168301916001600160401b03831184841017620000e157808492608094604052833981010312620000dd576200004d81620000f5565b906200005c60208201620000f5565b916200007960606200007160408501620000f5565b9301620000f5565b506001600160a01b0390811660805291821660a052600180546001600160a01b03191691909216179055620000ae336200010a565b50620000ba336200017a565b5060405161137590816200021b82396080518161041b015260a0518161097b0152f35b5f80fd5b634e487b7160e01b5f52604160045260245ffd5b51906001600160a01b0382168203620000dd57565b6001600160a01b03165f8181525f80516020620015b0833981519152602052604090205460ff1662000175575f8181525f80516020620015b083398151915260205260408120805460ff191660011790553391905f80516020620015908339815191528180a4600190565b505f90565b6001600160a01b03165f8181527fee57cd81e84075558e8fcc182a1f4393f91fc97f963a136e66b7f949a62f319f60205260409020547f97667070c54ef182b0f5858b034beac1b6f3089aa2d3188bb1e8929f4fa9b929919060ff166200021457815f525f60205260405f20815f5260205260405f20600160ff1982541617905533915f80516020620015908339815191525f80a4600190565b50505f9056fe6080806040526004361015610012575f80fd5b5f3560e01c90816301ffc9a714610f33575080631031e36e14610ee85780631bfdb69514610a5957806322a9339f14610966578063248a9ca314610a2d5780632f2ff15d146109f157806336568abe146109aa5780633b521d78146109665780634544f05514610944578063456068d2146108fc57806346423aa7146108bb578063538b6a27146104f45780635c1548fb146104065780635c975abb1461089957806368c7450f146108235780636f1b4ad8146105ae57806373a3d9761461056657806375d7370a146104da57806391d148541461051e578063a10f3dce146104f4578063a217fddf146104da578063abeaae5e146101c3578063b28c51c0146104b2578063c10f1a75146104b2578063d547741f14610474578063d7fb272f1461044a578063d8c55af71461044a578063d8dfeb4514610406578063ec7e08eb1461022c578063f5b541a6146101f2578063f859ffa0146101c35763fbddd7511461017c575f80fd5b346101bf5760203660031901126101bf57610195610fcd565b61019d611141565b600180546001600160a01b0319166001600160a01b0392909216919091179055005b5f80fd5b346101bf5760203660031901126101bf576004355f526004602052602060ff60405f2054166040519015158152f35b346101bf575f3660031901126101bf5760206040517f97667070c54ef182b0f5858b034beac1b6f3089aa2d3188bb1e8929f4fa9b9298152f35b346101bf576003196040368201126101bf576004359067ffffffffffffffff82116101bf57610120826004019183360301126101bf57602491823590610270611197565b61027f60ff6005541615610fe3565b6102888361107f565b91825f526020936004855260ff60405f2054166103cb5760c4830135421161039757811561035357835f526004855260405f20600160ff19825416179055601982029182046019036103405761271060a09260845f80516020611320833981519152956102f76103089561106b565b99600180881b03958691830161106b565b1698856103176044840161106b565b16906040519a8b528a0152606481013560408a01520135606088015204608086015233951693a4005b85634e487b7160e01b5f5260116004525ffd5b60405162461bcd60e51b815260048101869052601c818801527f46696c6c20616d6f756e74206d75737420626520706f736974697665000000006044820152606490fd5b60405162461bcd60e51b815260048101869052600d818801526c13dc99195c88195e1c1a5c9959609a1b6044820152606490fd5b60405162461bcd60e51b8152600481018690526014818801527313dc99195c88185b1c9958591e48199a5b1b195960621b6044820152606490fd5b346101bf575f3660031901126101bf576040517f00000000000000000000000000000000000000000000000000000000000000006001600160a01b03168152602090f35b346101bf5760203660031901126101bf576004355f526003602052602060405f2054604051908152f35b346101bf5760403660031901126101bf576104b0600435610493610fb7565b90805f525f6020526104ab600160405f200154611210565b6112ad565b005b346101bf575f3660031901126101bf576001546040516001600160a01b039091168152602090f35b346101bf575f3660031901126101bf5760206040515f8152f35b346101bf5760203660031901126101bf576004355f526002602052602060405f2054604051908152f35b346101bf5760403660031901126101bf57610537610fb7565b6004355f525f60205260405f209060018060a01b03165f52602052602060ff60405f2054166040519015158152f35b346101bf576003196020368201126101bf576004359067ffffffffffffffff82116101bf576101209082360301126101bf576105a660209160040161107f565b604051908152f35b346101bf5760403660031901126101bf5767ffffffffffffffff6004358181116101bf576105e0903690600401610f86565b9060249283359081116101bf576105fb903690600401610f86565b93610604611197565b60ff9260059561061960ff6005541615610fe3565b8086036107e7575f5b86811061062b57005b610636818885611038565b61064182848861105b565b359061064b611197565b610658888b541615610fe3565b6106618161107f565b805f52602092600484528960405f2054166107ac5760c0830135421161077857801561073457815f526004845260405f20600160ff1982541617905560198082029182040361072157905f8051602061132083398151915260a084936106ca600198979661106b565b956127108980851b0392836106e0848a0161106b565b1697846106ef6040830161106b565b169360609160809586926040519c8d528c01528281013560408c0152013590890152049086015233951693a401610622565b87634e487b7160e01b5f5260116004525ffd5b60405162461bcd60e51b815260048101859052601c818a01527f46696c6c20616d6f756e74206d75737420626520706f736974697665000000006044820152606490fd5b60405162461bcd60e51b815260048101859052600d818a01526c13dc99195c88195e1c1a5c9959609a1b6044820152606490fd5b60405162461bcd60e51b8152600481018590526014818a01527313dc99195c88185b1c9958591e48199a5b1b195960621b6044820152606490fd5b60405162461bcd60e51b81526020600482015260158185015274082e4e4c2f240d8cadccee8d040dad2e6dac2e8c6d605b1b6044820152606490fd5b346101bf5760603660031901126101bf57604435602435600435610845611141565b805f5260026020528160405f2055815f528060405f2055805f5260036020528260405f2055815f528260405f20557fbc9a2432e8aeb48327246cddd6e872ef452812b4243c04e6bfb786a2cd8faf0d5f80a4005b346101bf575f3660031901126101bf57602060ff600554166040519015158152f35b346101bf5760203660031901126101bf576004355f52600460205260ff60405f2054165f146108f457602060015b60ff60405191168152f35b60205f6108e9565b346101bf575f3660031901126101bf57610914611141565b60ff19600554166005557f2185a7ecc28b84536b7b3d3cf472d9215a2bc8f2302d7331cb56db0a44239f325f80a1005b346101bf5760203660031901126101bf5761095d610fcd565b506104b0611141565b346101bf575f3660031901126101bf576040517f00000000000000000000000000000000000000000000000000000000000000006001600160a01b03168152602090f35b346101bf5760403660031901126101bf576109c3610fb7565b336001600160a01b038216036109df576104b0906004356112ad565b60405163334bd91960e11b8152600490fd5b346101bf5760403660031901126101bf576104b0600435610a10610fb7565b90805f525f602052610a28600160405f200154611210565b611231565b346101bf5760203660031901126101bf576004355f525f6020526020600160405f200154604051908152f35b346101bf576003196080368201126101bf5767ffffffffffffffff600435116101bf5761012090600435360301126101bf5760243567ffffffffffffffff81116101bf57610aab903690600401610f86565b60643567ffffffffffffffff81116101bf57610acb903690600401610f86565b9091610ad5611197565b610ae460ff6005541615610fe3565b610af260043560040161107f565b93610afc82611020565b604051929067ffffffffffffffff601f8201601f1916850190811190851117610ed457601f01601f19168301604052808352610b3781611020565b601f19013660208501375f5b818110610da157505050610b55611197565b610b6460ff6005541615610fe3565b610b7260043560040161107f565b91825f52600460205260ff60405f205416610d655760c460043501354211610d305760443515610ceb57825f52600460205260405f2092600193600160ff198254161790556019604435026044358104601903610cd757610bd760043560040161106b565b915f8051602061132083398151915260a06001600160a01b0361271081610c0260043560240161106b565b169582610c1360446004350161106b565b16604051978852602088015260646004350135604088015260846004350135606088015204608086015233951693a46040519260608401906060855283518092526020608086019401915f5b818110610cc25750505060443560208501525082820360408401528082526001600160fb1b0381116101bf577f1274dd86d363dcf0b62a0b328a2e3c35f498f7512b66f68aa46b134bb573491993602092849260051b80928583013701030190a2005b83518652602095860195909301928201610c5f565b634e487b7160e01b5f52601160045260245ffd5b60405162461bcd60e51b815260206004820152601c60248201527f46696c6c20616d6f756e74206d75737420626520706f736974697665000000006044820152606490fd5b60405162461bcd60e51b815260206004820152600d60248201526c13dc99195c88195e1c1a5c9959609a1b6044820152606490fd5b60405162461bcd60e51b815260206004820152601460248201527313dc99195c88185b1c9958591e48199a5b1b195960621b6044820152606490fd5b610db4610daf828486611038565b61107f565b8451821015610ec05760208260051b86010152610dd2818385611038565b90610dde81878961105b565b3591610de8611197565b610df760ff6005541615610fe3565b610e008161107f565b90815f52600460205260ff60405f205416610d655760c08101354211610d30578315610ceb57815f52600460205260405f20600160ff1982541617905560199184838102048303610cd7575f8051602061132083398151915260a0600196612710610e6a8661106b565b968980851b039283610e7e60208a0161106b565b1697608085610e8f6040840161106b565b16916060926040519b8c5260208c01528281013560408c01520135908901520204608086015233951693a401610b43565b634e487b7160e01b5f52603260045260245ffd5b634e487b7160e01b5f52604160045260245ffd5b346101bf575f3660031901126101bf57610f00611141565b600160ff1960055416176005557f02b874a66f7edefaaca8e06ecdb0825247542b983cc7c499a3d7f1bb34e727285f80a1005b346101bf5760203660031901126101bf576004359063ffffffff60e01b82168092036101bf57602091637965db0b60e01b8114908115610f75575b5015158152f35b6301ffc9a760e01b14905083610f6e565b9181601f840112156101bf5782359167ffffffffffffffff83116101bf576020808501948460051b0101116101bf57565b602435906001600160a01b03821682036101bf57565b600435906001600160a01b03821682036101bf57565b15610fea57565b60405162461bcd60e51b815260206004820152600e60248201526d151c98591a5b99c81c185d5cd95960921b6044820152606490fd5b67ffffffffffffffff8111610ed45760051b60200190565b9190811015610ec05760051b8101359061011e19813603018212156101bf570190565b9190811015610ec05760051b0190565b356001600160a01b03811681036101bf5790565b6110888161106b565b906110956020820161106b565b906110a26040820161106b565b9160e08201359160ff831683036101bf5760c0916040519460208601966bffffffffffffffffffffffff199283809260601b16895260601b16603487015260601b1660488501526060810135605c8501526080810135607c85015260a0810135609c850152013560bc83015260ff60f81b9060f81b1660dc82015260bd815260e0810181811067ffffffffffffffff821117610ed45760405251902090565b335f9081527fad3228b676f7d3cd4284a5443f17f1962b36e491b30a40b2405849e597ba5fb5602052604090205460ff161561117957565b60405163e2517d3f60e01b81523360048201525f6024820152604490fd5b335f9081527fee57cd81e84075558e8fcc182a1f4393f91fc97f963a136e66b7f949a62f319f60205260409020547f97667070c54ef182b0f5858b034beac1b6f3089aa2d3188bb1e8929f4fa9b9299060ff16156111f25750565b6044906040519063e2517d3f60e01b82523360048301526024820152fd5b805f525f60205260405f20335f5260205260ff60405f205416156111f25750565b90815f525f60205260405f209060018060a01b031690815f5260205260ff60405f205416155f146112a757815f525f60205260405f20815f5260205260405f20600160ff1982541617905533917f2f8788117e7eff1d82e926ec794901d17c78024a50270940304540a733656f0d5f80a4600190565b50505f90565b90815f525f60205260405f209060018060a01b031690815f5260205260ff60405f2054165f146112a757815f525f60205260405f20815f5260205260405f2060ff19815416905533917ff6391f5c32d9c69d2a47ea670b442974b53935d1edc7fd64eb21e047a839171b5f80a460019056fed0a08e8c493f9c94f29311604c9de1b4e8c8d4c06bd0c789af57f2d65bfec0f6a2646970667358221220ce159e90eb86a81b59c042832f8e178af7e2a14504e93dfa160b58d5ea05401e64736f6c634300081800332f8788117e7eff1d82e926ec794901d17c78024a50270940304540a733656f0dad3228b676f7d3cd4284a5443f17f1962b36e491b30a40b2405849e597ba5fb5",
  "linkReferences": {},
  "deployedLinkReferences": {},
  "immutableReferences": {
    "10462": [
      {
        "length": 32,
        "start": 1051
      }
    ],
    "10465": [
      {
        "length": 32,
        "start": 2427
      }
    ]
  },
  "inputSourceName": "project/contracts/CTFExchange.sol",
  "buildInfoId": "solc-0_8_24-eb300560ace755abfe5bde684ce2ad1a3e614016"
}