{
  "_format": "hh3-artifact-1",
  "contractName": "AMMPool",
  "sourceName": "contracts/AMMPool.sol",
  "abi": [
    {
      "inputs": [
        {
          "internalType": "string",
          "name": "name",
          "type": "string"
        },
        {
          "internalType": "string",
          "name": "symbol",
          "type": "string"
        },
        {
          "internalType": "address",
          "name": "_collateralToken",
          "type": "address"
        },
        {
          "internalType": "address",
          "name": "_conditionalTokens",
          "type": "address"
        },
        {
          "internalType": "bytes32",
          "name": "_conditionId",
          "type": "bytes32"
        },
        {
          "internalType": "uint256",
          "name": "_yesPositionId",
          "type": "uint256"
        },
        {
          "internalType": "uint256",
          "name": "_noPositionId",
          "type": "uint256"
        },
        {
          "internalType": "uint256",
          "name": "_lpFeeRate",
          "type": "uint256"
        },
        {
          "internalType": "uint256",
          "name": "_protocolFeeRate",
          "type": "uint256"
        },
        {
          "internalType": "address",
          "name": "_treasury",
          "type": "address"
        },
        {
          "internalType": "address",
          "name": "_oracle",
          "type": "address"
        }
      ],
      "stateMutability": "nonpayable",
      "type": "constructor"
    },
    {
      "inputs": [
        {
          "internalType": "address",
          "name": "spender",
          "type": "address"
        },
        {
          "internalType": "uint256",
          "name": "allowance",
          "type": "uint256"
        },
        {
          "internalType": "uint256",
          "name": "needed",
          "type": "uint256"
        }
      ],
      "name": "ERC20InsufficientAllowance",
      "type": "error"
    },
    {
      "inputs": [
        {
          "internalType": "address",
          "name": "sender",
          "type": "address"
        },
        {
          "internalType": "uint256",
          "name": "balance",
          "type": "uint256"
        },
        {
          "internalType": "uint256",
          "name": "needed",
          "type": "uint256"
        }
      ],
      "name": "ERC20InsufficientBalance",
      "type": "error"
    },
    {
      "inputs": [
        {
          "internalType": "address",
          "name": "approver",
          "type": "address"
        }
      ],
      "name": "ERC20InvalidApprover",
      "type": "error"
    },
    {
      "inputs": [
        {
          "internalType": "address",
          "name": "receiver",
          "type": "address"
        }
      ],
      "name": "ERC20InvalidReceiver",
      "type": "error"
    },
    {
      "inputs": [
        {
          "internalType": "address",
          "name": "sender",
          "type": "address"
        }
      ],
      "name": "ERC20InvalidSender",
      "type": "error"
    },
    {
      "inputs": [
        {
          "internalType": "address",
          "name": "spender",
          "type": "address"
        }
      ],
      "name": "ERC20InvalidSpender",
      "type": "error"
    },
    {
      "inputs": [],
      "name": "ReentrancyGuardReentrantCall",
      "type": "error"
    },
    {
      "anonymous": false,
      "inputs": [
        {
          "indexed": true,
          "internalType": "address",
          "name": "owner",
          "type": "address"
        },
        {
          "indexed": true,
          "internalType": "address",
          "name": "spender",
          "type": "address"
        },
        {
          "indexed": false,
          "internalType": "uint256",
          "name": "value",
          "type": "uint256"
        }
      ],
      "name": "Approval",
      "type": "event"
    },
    {
      "anonymous": false,
      "inputs": [
        {
          "indexed": true,
          "internalType": "address",
          "name": "provider",
          "type": "address"
        },
        {
          "indexed": false,
          "internalType": "uint256",
          "name": "yesAmount",
          "type": "uint256"
        },
        {
          "indexed": false,
          "internalType": "uint256",
          "name": "noAmount",
          "type": "uint256"
        },
        {
          "indexed": false,
          "internalType": "uint256",
          "name": "lpTokens",
          "type": "uint256"
        }
      ],
      "name": "LiquidityAdded",
      "type": "event"
    },
    {
      "anonymous": false,
      "inputs": [
        {
          "indexed": true,
          "internalType": "address",
          "name": "provider",
          "type": "address"
        },
        {
          "indexed": false,
          "internalType": "uint256",
          "name": "yesAmount",
          "type": "uint256"
        },
        {
          "indexed": false,
          "internalType": "uint256",
          "name": "noAmount",
          "type": "uint256"
        },
        {
          "indexed": false,
          "internalType": "uint256",
          "name": "lpTokens",
          "type": "uint256"
        }
      ],
      "name": "LiquidityRemoved",
      "type": "event"
    },
    {
      "anonymous": false,
      "inputs": [
        {
          "indexed": false,
          "internalType": "uint256",
          "name": "winningOutcome",
          "type": "uint256"
        }
      ],
      "name": "MarketResolved",
      "type": "event"
    },
    {
      "anonymous": false,
      "inputs": [
        {
          "indexed": true,
          "internalType": "address",
          "name": "user",
          "type": "address"
        },
        {
          "indexed": false,
          "internalType": "bool",
          "name": "buyYes",
          "type": "bool"
        },
        {
          "indexed": false,
          "internalType": "uint256",
          "name": "amountIn",
          "type": "uint256"
        },
        {
          "indexed": false,
          "internalType": "uint256",
          "name": "amountOut",
          "type": "uint256"
        },
        {
          "indexed": false,
          "internalType": "uint256",
          "name": "lpFee",
          "type": "uint256"
        },
        {
          "indexed": false,
          "internalType": "uint256",
          "name": "protocolFee",
          "type": "uint256"
        }
      ],
      "name": "Swap",
      "type": "event"
    },
    {
      "anonymous": false,
      "inputs": [
        {
          "indexed": true,
          "internalType": "address",
          "name": "from",
          "type": "address"
        },
        {
          "indexed": true,
          "internalType": "address",
          "name": "to",
          "type": "address"
        },
        {
          "indexed": false,
          "internalType": "uint256",
          "name": "value",
          "type": "uint256"
        }
      ],
      "name": "Transfer",
      "type": "event"
    },
    {
      "inputs": [
        {
          "internalType": "uint256",
          "name": "yesAmount",
          "type": "uint256"
        },
        {
          "internalType": "uint256",
          "name": "noAmount",
          "type": "uint256"
        }
      ],
      "name": "addLiquidity",
      "outputs": [
        {
          "internalType": "uint256",
          "name": "lpTokens",
          "type": "uint256"
        }
      ],
      "stateMutability": "nonpayable",
      "type": "function"
    },
    {
      "inputs": [
        {
          "internalType": "address",
          "name": "owner",
          "type": "address"
        },
        {
          "internalType": "address",
          "name": "spender",
          "type": "address"
        }
      ],
      "name": "allowance",
      "outputs": [
        {
          "internalType": "uint256",
          "name": "",
          "type": "uint256"
        }
      ],
      "stateMutability": "view",
      "type": "function"
    },
    {
      "inputs": [
        {
          "internalType": "address",
          "name": "spender",
          "type": "address"
        },
        {
          "internalType": "uint256",
          "name": "value",
          "type": "uint256"
        }
      ],
      "name": "approve",
      "outputs": [
        {
          "internalType": "bool",
          "name": "",
          "type": "bool"
        }
      ],
      "stateMutability": "nonpayable",
      "type": "function"
    },
    {
      "inputs": [
        {
          "internalType": "address",
          "name": "account",
          "type": "address"
        }
      ],
      "name": "balanceOf",
      "outputs": [
        {
          "internalType": "uint256",
          "name": "",
          "type": "uint256"
        }
      ],
      "stateMutability": "view",
      "type": "function"
    },
    {
      "inputs": [],
      "name": "collateralToken",
      "outputs": [
        {
          "internalType": "contract IERC20",
          "name": "",
          "type": "address"
        }
      ],
      "stateMutability": "view",
      "type": "function"
    },
    {
      "inputs": [],
      "name": "conditionId",
      "outputs": [
        {
          "internalType": "bytes32",
          "name": "",
          "type": "bytes32"
        }
      ],
      "stateMutability": "view",
      "type": "function"
    },
    {
      "inputs": [],
      "name": "conditionalTokens",
      "outputs": [
        {
          "internalType": "contract IConditionalTokens",
          "name": "",
          "type": "address"
        }
      ],
      "stateMutability": "view",
      "type": "function"
    },
    {
      "inputs": [],
      "name": "decimals",
      "outputs": [
        {
          "internalType": "uint8",
          "name": "",
          "type": "uint8"
        }
      ],
      "stateMutability": "view",
      "type": "function"
    },
    {
      "inputs": [],
      "name": "getReserves",
      "outputs": [
        {
          "internalType": "uint256",
          "name": "",
          "type": "uint256"
        },
        {
          "internalType": "uint256",
          "name": "",
          "type": "uint256"
        }
      ],
      "stateMutability": "view",
      "type": "function"
    },
    {
      "inputs": [
        {
          "internalType": "bool",
          "name": "buyYes",
          "type": "bool"
        },
        {
          "internalType": "uint256",
          "name": "amountIn",
          "type": "uint256"
        }
      ],
      "name": "getSwapOutput",
      "outputs": [
        {
          "internalType": "uint256",
          "name": "amountOut",
          "type": "uint256"
        },
        {
          "internalType": "uint256",
          "name": "totalFee",
          "type": "uint256"
        }
      ],
      "stateMutability": "view",
      "type": "function"
    },
    {
      "inputs": [],
      "name": "getYesPrice",
      "outputs": [
        {
          "internalType": "uint256",
          "name": "",
          "type": "uint256"
        }
      ],
      "stateMutability": "view",
      "type": "function"
    },
    {
      "inputs": [],
      "name": "lpFeeRate",
      "outputs": [
        {
          "internalType": "uint256",
          "name": "",
          "type": "uint256"
        }
      ],
      "stateMutability": "view",
      "type": "function"
    },
    {
      "inputs": [],
      "name": "name",
      "outputs": [
        {
          "internalType": "string",
          "name": "",
          "type": "string"
        }
      ],
      "stateMutability": "view",
      "type": "function"
    },
    {
      "inputs": [],
      "name": "noPositionId",
      "outputs": [
        {
          "internalType": "uint256",
          "name": "",
          "type": "uint256"
        }
      ],
      "stateMutability": "view",
      "type": "function"
    },
    {
      "inputs": [],
      "name": "noReserve",
      "outputs": [
        {
          "internalType": "uint256",
          "name": "",
          "type": "uint256"
        }
      ],
      "stateMutability": "view",
      "type": "function"
    },
    {
      "inputs": [
        {
          "internalType": "address",
          "name": "",
          "type": "address"
        },
        {
          "internalType": "address",
          "name": "",
          "type": "address"
        },
        {
          "internalType": "uint256[]",
          "name": "",
          "type": "uint256[]"
        },
        {
          "internalType": "uint256[]",
          "name": "",
          "type": "uint256[]"
        },
        {
          "internalType": "bytes",
          "name": "",
          "type": "bytes"
        }
      ],
      "name": "onERC1155BatchReceived",
      "outputs": [
        {
          "internalType": "bytes4",
          "name": "",
          "type": "bytes4"
        }
      ],
      "stateMutability": "pure",
      "type": "function"
    },
    {
      "inputs": [
        {
          "internalType": "address",
          "name": "",
          "type": "address"
        },
        {
          "internalType": "address",
          "name": "",
          "type": "address"
        },
        {
          "internalType": "uint256",
          "name": "",
          "type": "uint256"
        },
        {
          "internalType": "uint256",
          "name": "",
          "type": "uint256"
        },
        {
          "internalType": "bytes",
          "name": "",
          "type": "bytes"
        }
      ],
      "name": "onERC1155Received",
      "outputs": [
        {
          "internalType": "bytes4",
          "name": "",
          "type": "bytes4"
        }
      ],
      "stateMutability": "pure",
      "type": "function"
    },
    {
      "inputs": [],
      "name": "oracle",
      "outputs": [
        {
          "internalType": "address",
          "name": "",
          "type": "address"
        }
      ],
      "stateMutability": "view",
      "type": "function"
    },
    {
      "inputs": [],
      "name": "protocolFeeRate",
      "outputs": [
        {
          "internalType": "uint256",
          "name": "",
          "type": "uint256"
        }
      ],
      "stateMutability": "view",
      "type": "function"
    },
    {
      "inputs": [
        {
          "internalType": "uint256",
          "name": "lpTokens",
          "type": "uint256"
        }
      ],
      "name": "redeemLPTokens",
      "outputs": [
        {
          "internalType": "uint256",
          "name": "payout",
          "type": "uint256"
        }
      ],
      "stateMutability": "nonpayable",
      "type": "function"
    },
    {
      "inputs": [
        {
          "internalType": "uint256",
          "name": "lpTokens",
          "type": "uint256"
        }
      ],
      "name": "removeLiquidity",
      "outputs": [
        {
          "internalType": "uint256",
          "name": "yesAmount",
          "type": "uint256"
        },
        {
          "internalType": "uint256",
          "name": "noAmount",
          "type": "uint256"
        }
      ],
      "stateMutability": "nonpayable",
      "type": "function"
    },
    {
      "inputs": [
        {
          "internalType": "uint256",
          "name": "_winningOutcome",
          "type": "uint256"
        }
      ],
      "name": "resolve",
      "outputs": [],
      "stateMutability": "nonpayable",
      "type": "function"
    },
    {
      "inputs": [],
      "name": "resolved",
      "outputs": [
        {
          "internalType": "bool",
          "name": "",
          "type": "bool"
        }
      ],
      "stateMutability": "view",
      "type": "function"
    },
    {
      "inputs": [
        {
          "internalType": "bytes4",
          "name": "interfaceId",
          "type": "bytes4"
        }
      ],
      "name": "supportsInterface",
      "outputs": [
        {
          "internalType": "bool",
          "name": "",
          "type": "bool"
        }
      ],
      "stateMutability": "pure",
      "type": "function"
    },
    {
      "inputs": [
        {
          "internalType": "bool",
          "name": "buyYes",
          "type": "bool"
        },
        {
          "internalType": "uint256",
          "name": "amountIn",
          "type": "uint256"
        },
        {
          "internalType": "uint256",
          "name": "minAmountOut",
          "type": "uint256"
        }
      ],
      "name": "swap",
      "outputs": [
        {
          "internalType": "uint256",
          "name": "amountOut",
          "type": "uint256"
        }
      ],
      "stateMutability": "nonpayable",
      "type": "function"
    },
    {
      "inputs": [],
      "name": "symbol",
      "outputs": [
        {
          "internalType": "string",
          "name": "",
          "type": "string"
        }
      ],
      "stateMutability": "view",
      "type": "function"
    },
    {
      "inputs": [],
      "name": "totalSupply",
      "outputs": [
        {
          "internalType": "uint256",
          "name": "",
          "type": "uint256"
        }
      ],
      "stateMutability": "view",
      "type": "function"
    },
    {
      "inputs": [
        {
          "internalType": "address",
          "name": "to",
          "type": "address"
        },
        {
          "internalType": "uint256",
          "name": "value",
          "type": "uint256"
        }
      ],
      "name": "transfer",
      "outputs": [
        {
          "internalType": "bool",
          "name": "",
          "type": "bool"
        }
      ],
      "stateMutability": "nonpayable",
      "type": "function"
    },
    {
      "inputs": [
        {
          "internalType": "address",
          "name": "from",
          "type": "address"
        },
        {
          "internalType": "address",
          "name": "to",
          "type": "address"
        },
        {
          "internalType": "uint256",
          "name": "value",
          "type": "uint256"
        }
      ],
      "name": "transferFrom",
      "outputs": [
        {
          "internalType": "bool",
          "name": "",
          "type": "bool"
        }
      ],
      "stateMutability": "nonpayable",
      "type": "function"
    },
    {
      "inputs": [],
      "name": "treasury",
      "outputs": [
        {
          "internalType": "address",
          "name": "",
          "type": "address"
        }
      ],
      "stateMutability": "view",
      "type": "function"
    },
    {
      "inputs": [],
      "name": "winningOutcome",
      "outputs": [
        {
          "internalType": "uint256",
          "name": "",
          "type": "uint256"
        }
      ],
      "stateMutability": "view",
      "type": "function"
    },
    {
      "inputs": [],
      "name": "yesPositionId",
      "outputs": [
        {
          "internalType": "uint256",
          "name": "",
          "type": "uint256"
        }
      ],
      "stateMutability": "view",
      "type": "function"
    },
    {
      "inputs": [],
      "name": "yesReserve",
      "outputs": [
        {
          "internalType": "uint256",
          "name": "",
          "type": "uint256"
        }
      ],
      "stateMutability": "view",
      "type": "function"
    }
  ],
  "bytecode": "0x6101a0604052346200048a57620023a7803803806200001e816200048e565b928339810161016080838303126200048a5782516001600160401b0391908281116200048a578362000052918601620004b4565b936020808201518481116200048a57620000be9562000073918401620004b4565b90620000826040840162000524565b620000906060850162000524565b90608085015160a08601519060c08701519260e0880151946101009c8d8a0151976101209d8e8c0162000524565b9c620000cf610140809d0162000524565b9a835182811162000395576003918254916001968784811c941680156200047f575b878510146200046b578190601f9485811162000418575b508790858311600114620003b5575f92620003a9575b50505f1982861b1c191690871b1783555b8051938411620003955760049485548781811c911680156200038a575b8282101462000377579081848796959493116200031e575b5080928511600114620002b457505f93620002a8575b505082851b925f19911b1c19161790555b6005556001600160a01b039182166080521660a05260c05260e0528852835283526101809384528452604051611e6d95909490866200053a873960805186610545015260a051868181610345015281816105e90152818161096e01528181610e47015281816113ab015261160a015260c0518661105e015260e0518681816103220152818161062f015281816109b5015281816110990152818161144e01526115e90152518581816103dc0152818161068801528181610a1101528181610e0f0152818161138a01526116aa015251848181610d2e0152610eca0152518381816101a301528181610cba01526112f6015251828181610c9901528181610e8e0152611325015251818181610dc80152818161150201526117170152f35b015191505f806200017a565b929190879550601f198516875f52845f20945f905b828210620003045750508511620002ea575b50505050811b0190556200018b565b01519060f8845f19921b161c191690555f808080620002db565b8484015187558a98909601959384019390810190620002c9565b909192939450865f52815f208480880160051c8201928489106200036d575b918a91899897969594930160051c01915b8281106200035e57505062000164565b5f81558897508a91016200034e565b925081926200033d565b602287634e487b7160e01b5f525260245ffd5b90607f16906200014c565b634e487b7160e01b5f52604160045260245ffd5b015190505f806200011e565b90899350601f19831691875f52895f20925f5b8b828210620004015750508411620003e9575b505050811b0183556200012f565b01515f1983881b60f8161c191690555f8080620003db565b8385015186558d97909501949384019301620003c8565b909150855f52875f208580850160051c8201928a861062000461575b918b91869594930160051c01915b8281106200045257505062000108565b5f81558594508b910162000442565b9250819262000434565b634e487b7160e01b5f52602260045260245ffd5b93607f1693620000f1565b5f80fd5b6040519190601f01601f191682016001600160401b038111838210176200039557604052565b919080601f840112156200048a5782516001600160401b0381116200039557602090620004ea601f8201601f191683016200048e565b928184528282870101116200048a575f5b818110620005105750825f9394955001015290565b8581018301518482018401528201620004fb565b51906001600160a01b03821682036200048a5756fe6080604081815260049182361015610015575f80fd5b5f925f3560e01c91826301ffc9a7146119195750816306fdde031461182557816308c84c211461129d5781630902f1ac14611278578163095ea7b3146111ce57816318160ddd146111af57816323b872dd146110bc5781632474b6bc146110815781632ddc7de714611046578163313ce5671461102a5781633f6fa655146110065781634f896d4f14610eb157816358f8588014610e765781635bd9e29914610e3257816360e30d9e14610df757816361d027b314610db357816370a0823114610d7c57816372a9fa6e14610d5d5781637dc0d1d014610d19578163827b650814610c6d5781638779086f14610c4957816395d89b4114610b445781639b34ae0314610b255781639c8f9f23146108c75781639cd441da146105a5578163a9059cbb14610574578163b2016bd414610530578163b2670d7414610511578163bc197c8114610487578163bdeda83314610271578163dd62ed3e14610224578163f23a6e61146101ca575063f5b9848d1461018d575f80fd5b346101c657816003193601126101c657602090517f00000000000000000000000000000000000000000000000000000000000000008152f35b5080fd5b8284346102215760a0366003190112610221576101e56119a4565b506101ee6119ba565b506084359067ffffffffffffffff8211610221575060209261021291369101611a01565b50505163f23a6e6160e01b8152f35b80fd5b5050346101c657806003193601126101c6576020916102416119a4565b8261024a6119ba565b6001600160a01b03928316845260018652922091165f908152908352819020549051908152f35b919050346103cb5760203660031901126103cb57813591610290611ca1565b60ff600854161561044f576102a6831515611a79565b338452836020526102bc83838620541015611c5c565b600254926102cb841515611b03565b6102ee60016009541494855f14610444576102e96006545b84611b5f565b611b72565b938415610415576103159190156104015761030b85600654611b90565b6006555b33611d8b565b6009546001036103d957837f0000000000000000000000000000000000000000000000000000000000000000915b7f00000000000000000000000000000000000000000000000000000000000000006001600160a01b0316803b156103cb5761039993838793875196879586948593637921219560e11b8552339030908601611b9d565b03925af180156103cf576103b7575b60208383600160055551908152f35b6103c18491611a2f565b6103cb57826103a8565b8280fd5b82513d86823e3d90fd5b837f000000000000000000000000000000000000000000000000000000000000000091610343565b61040d85600754611b90565b60075561030f565b835162461bcd60e51b81526020818501526009602482015268139bc81c185e5bdd5d60ba1b6044820152606490fd5b6102e96007546102e3565b6020606492519162461bcd60e51b8352820152601360248201527213585c9ad95d081b9bdd081c995cdbdb1d9959606a1b6044820152fd5b8284346102215760a0366003190112610221576104a26119a4565b506104ab6119ba565b5067ffffffffffffffff906044358281116101c6576104cd90369086016119d0565b50506064358281116101c6576104e690369086016119d0565b5050608435918211610221575060209261050291369101611a01565b50505163bc197c8160e01b8152f35b5050346101c657816003193601126101c6576020906006549051908152f35b5050346101c657816003193601126101c657517f00000000000000000000000000000000000000000000000000000000000000006001600160a01b03168152602090f35b5050346101c657806003193601126101c65760209061059e6105946119a4565b6024359033611cc4565b5160018152f35b919050346103cb57806003193601126103cb578135602435936105c6611ca1565b811515806108be575b6105d890611a79565b6105e760ff6008541615611ac5565b7f00000000000000000000000000000000000000000000000000000000000000006001600160a01b0316803b156101c6578351637921219560e11b80825290838180610658887f000000000000000000000000000000000000000000000000000000000000000030338e8601611b9d565b038183875af180156108b4579084916108a0575b5050813b156103cb57845190815290829082908183816106b18c7f000000000000000000000000000000000000000000000000000000000000000030338f8601611b9d565b03925af1801561089657908291610882575b50506002549081610855576106d88684611b3e565b916103e890818410610812578181018091116107ff575f80516020611e1883398151915260206001935f936002558484528382528884208181540190558851908152a36103e71982019182116107ec5750925b610736841515611c5c565b61074282600654611b3e565b60065561075185600754611b3e565b60075533156107d657507f64b83944e79c3ce8d4c297411de637c3e102d064677aac0c163976ebdcd6f50e8360209561078c82600254611b3e565b600255335f525f8752845f2082815401905584518281525f5f80516020611e18833981519152893393a38451938452602084015260408301523391606090a2600160055551908152f35b6024905f84519163ec442f0560e01b8352820152fd5b634e487b7160e01b815260118552602490fd5b601187634e487b7160e01b5f525260245ffd5b855162461bcd60e51b8152602081890152601e60248201527f496e73756666696369656e7420696e697469616c206c697175696469747900006044820152606490fd5b5061087c906102e961086c60065460075490611b3e565b916108778886611b3e565b611b5f565b9261072b565b61088b90611a2f565b61022157805f6106c3565b84513d84823e3d90fd5b6108a990611a2f565b6103cb57825f61066c565b86513d86823e3d90fd5b508415156105cf565b839150346101c65760203660031901126101c65780356108e5611ca1565b6108f0811515611a79565b3383528260205261090681858520541015611c5c565b60025492610915841515611b03565b60065492610927856102e98686611b5f565b94610939600754916102e98387611b5f565b9486151580610b1c575b15610ae35761095f91610957888893611b90565b600655611b90565b60075561096c8333611d8b565b7f00000000000000000000000000000000000000000000000000000000000000006001600160a01b031690813b156103cb578651637921219560e11b808252908481806109de8b7f000000000000000000000000000000000000000000000000000000000000000033308a8601611b9d565b038183885af18015610ad957908591610ac5575b5050823b15610ac157610a3c9284928388938b519687958694859384527f000000000000000000000000000000000000000000000000000000000000000090339030908601611b9d565b03925af18015610ab757610aa3575b50507f1dc8bb69df2b8e91fbdcbfcf93d951b3f0000f085a95fe3f7946d6161439245d845180610a8f33948688846040919493926060820195825260208201520152565b0390a2600160055582519182526020820152f35b610aad8291611a2f565b6102215780610a4b565b86513d84823e3d90fd5b8380fd5b610ace90611a2f565b610ac15783896109f2565b89513d87823e3d90fd5b875162461bcd60e51b81526020818501526013602482015272125b9cdd59999a58da595b9d081bdd5d1c1d5d606a1b6044820152606490fd5b50851515610943565b5050346101c657816003193601126101c6576020906009549051908152f35b8383346101c657816003193601126101c65780519180938054916001908360011c9260018516948515610c3f575b6020958686108114610c2c57858952908115610c085750600114610bb0575b610bac8787610ba2828c0383611a57565b519182918261194e565b0390f35b81529295507f8a35acfbc15ff81a39ae7d344fd709f28e8600b4aa8c65c6b64bfe7fe36bd19b5b828410610bf55750505082610bac94610ba292820101948680610b91565b8054868501880152928601928101610bd7565b60ff19168887015250505050151560051b8301019250610ba282610bac8680610b91565b634e487b7160e01b845260228352602484fd5b93607f1693610b72565b5050346101c657816003193601126101c657602090610c66611c14565b9051908152f35b82843461022157816003193601126102215750610c88611995565b602435610ce6612710610cde6102e37f00000000000000000000000000000000000000000000000000000000000000007f0000000000000000000000000000000000000000000000000000000000000000611b3e565b048092611b90565b9115610d0657610cfa600754831115611bd0565b82519182526020820152f35b610d14600654831115611bd0565b610cfa565b5050346101c657816003193601126101c657517f00000000000000000000000000000000000000000000000000000000000000006001600160a01b03168152602090f35b5050346101c657816003193601126101c6576020906007549051908152f35b5050346101c65760203660031901126101c65760209181906001600160a01b03610da46119a4565b16815280845220549051908152f35b5050346101c657816003193601126101c657517f00000000000000000000000000000000000000000000000000000000000000006001600160a01b03168152602090f35b5050346101c657816003193601126101c657602090517f00000000000000000000000000000000000000000000000000000000000000008152f35b5050346101c657816003193601126101c657517f00000000000000000000000000000000000000000000000000000000000000006001600160a01b03168152602090f35b5050346101c657816003193601126101c657602090517f00000000000000000000000000000000000000000000000000000000000000008152f35b919050346103cb5760203660031901126103cb578135917f00000000000000000000000000000000000000000000000000000000000000006001600160a01b03163303610fc4576008549060ff8216610f8e5783158015610f84575b15610f4f575060ff19166001176008556009829055519081527f93608ecbcf057462da63f5aef413ce7f78c5e1b3bb51859d77a40845ece2bfc390602090a180f35b606490602084519162461bcd60e51b8352820152600f60248201526e496e76616c6964206f7574636f6d6560881b6044820152fd5b5060018414610f0d565b606490602084519162461bcd60e51b8352820152601060248201526f105b1c9958591e481c995cdbdb1d995960821b6044820152fd5b6020606492519162461bcd60e51b8352820152601760248201527f4f6e6c79206f7261636c652063616e207265736f6c76650000000000000000006044820152fd5b5050346101c657816003193601126101c65760209060ff6008541690519015158152f35b5050346101c657816003193601126101c6576020905160128152f35b5050346101c657816003193601126101c657602090517f00000000000000000000000000000000000000000000000000000000000000008152f35b5050346101c657816003193601126101c657602090517f00000000000000000000000000000000000000000000000000000000000000008152f35b839150346101c65760603660031901126101c6576110d86119a4565b6110e06119ba565b91604435938560018060a01b03841691828152600160205220335f52602052855f2054915f19831061111b575b60208761059e888888611cc4565b85831061118357811561116d57331561115757505f9081526001602090815286822033835281529086902091859003909155829061059e61110d565b6024905f885191634a1406b160e11b8352820152fd5b6024905f88519163e602df0560e01b8352820152fd5b8651637dc7a0d960e11b8152339181019182526020820193909352604081018690528291506060010390fd5b5050346101c657816003193601126101c6576020906002549051908152f35b828434610221578160031936011261022157506111e96119a4565b602435903315611262576001600160a01b031690811561124c5760209350335f5260018452825f20825f52845280835f205582519081527f8c5be1e5ebec7d5bd14f71427d1e84f3dd0314c0f7b2291e5b200ac8c7c3b925843392a35160018152f35b8251634a1406b160e11b81525f81860152602490fd5b825163e602df0560e01b81525f81860152602490fd5b8284346102215780600319360112610221575060065460075482519182526020820152f35b9190503461179c57606036600319011261179c576112b9611995565b6024356112c4611ca1565b6112cf811515611a79565b6112de60ff6008541615611ac5565b600654938415158061181a575b6112f490611b03565b7f0000000000000000000000000000000000000000000000000000000000000000916127106113588161135061134a7f000000000000000000000000000000000000000000000000000000000000000088611b3e565b85611b5f565b049483611b5f565b049161136e6113678486611b90565b9483611b90565b9660443588106117e35785156115e15750600754871161159e577f00000000000000000000000000000000000000000000000000000000000000007f00000000000000000000000000000000000000000000000000000000000000006001600160a01b0316803b1561159a578751637921219560e11b80825293908b908181806113fd8a8930338a8601611b9d565b038183885af1801561157c57611586575b505061142561141d8887611b90565b600754611b3e565b6007556114348a600654611b90565b600655813b156115785788518481528b908181806114778f7f000000000000000000000000000000000000000000000000000000000000000033308a8601611b9d565b038183885af1801561157c57611564575b5050866114e4575b50505050602096505b84519315158452868401528484840152606083015260808201527fd55848f048ca7d5fd9869d414bb60a426c2b0125c8adb982fee123da3f841ed860a03392a2600160055551908152f35b908a9291813b15610ac15783889561152b8c519788968795869485527f00000000000000000000000000000000000000000000000000000000000000009030908601611b9d565b03925af1801561155a57611542575b808080611490565b61154c8891611a2f565b611556578661153a565b8680fd5b86513d8a823e3d90fd5b61156d90611a2f565b611578578a5f611488565b8a80fd5b8b513d84823e3d90fd5b61158f90611a2f565b611578578a5f61140e565b8980fd5b606490602087519162461bcd60e51b8352820152601760248201527f496e73756666696369656e74204e4f20726573657276650000000000000000006044820152fd5b87116117a0577f00000000000000000000000000000000000000000000000000000000000000007f00000000000000000000000000000000000000000000000000000000000000006001600160a01b0316803b1561179c578751637921219560e11b80825293905f818061165a89883033898601611b9d565b038183875af180156117925761177f575b506116816116798887611b90565b600654611b3e565b6006556116908a600754611b90565b600755813b156115785788518481528b908181806116d38f7f000000000000000000000000000000000000000000000000000000000000000033308a8601611b9d565b038183885af1801561157c5761176b575b5050866116f9575b5050505060209650611499565b908a9291813b15610ac1578388956117408c519788968795869485527f00000000000000000000000000000000000000000000000000000000000000009030908601611b9d565b03925af1801561155a57611757575b8080806116ec565b6117618891611a2f565b611556578661174f565b61177490611a2f565b611578578a5f6116e4565b61178a919b50611a2f565b5f995f61166b565b8a513d5f823e3d90fd5b5f80fd5b606490602087519162461bcd60e51b8352820152601860248201527f496e73756666696369656e7420594553207265736572766500000000000000006044820152fd5b865162461bcd60e51b8152602081840152601160248201527014db1a5c1c1859d948195e18d959591959607a1b6044820152606490fd5b5060075415156112eb565b823461179c575f36600319011261179c578051905f9260035460018160011c9160018116801561190f575b60209485851082146118fc57508387529081156118dc5750600114611882575b505050610ba282610bac940383611a57565b60035f9081529295507fc2575a0e9e593c00f959f8c92f12db2869c3395a3b0502d05e2516446f71f85b5b8284106118c95750505082610bac94610ba29282010194611870565b80548685018801529286019281016118ad565b60ff1916868501525050151560051b8301019250610ba282610bac611870565b602290634e487b7160e01b5f525260245ffd5b92607f1692611850565b903461179c57602036600319011261179c57359063ffffffff60e01b821680920361179c57602091630271189760e51b148152f35b602080825282518183018190529093925f5b82811061198157505060409293505f838284010152601f8019910116010190565b818101860151848201604001528501611960565b60043590811515820361179c57565b600435906001600160a01b038216820361179c57565b602435906001600160a01b038216820361179c57565b9181601f8401121561179c5782359167ffffffffffffffff831161179c576020808501948460051b01011161179c57565b9181601f8401121561179c5782359167ffffffffffffffff831161179c576020838186019501011161179c57565b67ffffffffffffffff8111611a4357604052565b634e487b7160e01b5f52604160045260245ffd5b90601f8019910116810190811067ffffffffffffffff821117611a4357604052565b15611a8057565b60405162461bcd60e51b815260206004820152601760248201527f416d6f756e74206d75737420626520706f7369746976650000000000000000006044820152606490fd5b15611acc57565b60405162461bcd60e51b815260206004820152600f60248201526e13585c9ad95d081c995cdbdb1d9959608a1b6044820152606490fd5b15611b0a57565b60405162461bcd60e51b815260206004820152600c60248201526b4e6f206c697175696469747960a01b6044820152606490fd5b91908201809211611b4b57565b634e487b7160e01b5f52601160045260245ffd5b81810292918115918404141715611b4b57565b8115611b7c570490565b634e487b7160e01b5f52601260045260245ffd5b91908203918211611b4b57565b929060c0949260018060a01b0380921685521660208401526040830152606082015260a060808201525f60a08201520190565b15611bd757565b60405162461bcd60e51b8152602060048201526015602482015274496e73756666696369656e7420726573657276657360581b6044820152606490fd5b60065460075490611c258282611b3e565b15611c545761271090818302918383041483151715611b4b57611c5192611c4b91611b3e565b90611b72565b90565b505061138890565b15611c6357565b60405162461bcd60e51b8152602060048201526016602482015275496e73756666696369656e74204c5020746f6b656e7360501b6044820152606490fd5b600260055414611cb2576002600555565b604051633ee5aeb560e01b8152600490fd5b916001600160a01b03808416928315611d735716928315611d5b57825f525f60205260405f205490828210611d295750815f80516020611e1883398151915292602092855f525f84520360405f2055845f5260405f20818154019055604051908152a3565b60405163391434e360e21b81526001600160a01b03919091166004820152602481019190915260448101829052606490fd5b60405163ec442f0560e01b81525f6004820152602490fd5b604051634b637e8f60e11b81525f6004820152602490fd5b91906001600160a01b038316908115611d7357815f525f60205260405f205493818510611de557506020815f80516020611e18833981519152925f95968587528684520360408620558060025403600255604051908152a3565b60405163391434e360e21b81526001600160a01b03919091166004820152602481018590526044810191909152606490fdfeddf252ad1be2c89b69c2b068fc378daa952ba7f163c4a11628f55a4df523b3efa2646970667358221220db43ef3fb1ed87eee1f33290e02ccf53c457e27a9a0873128eb1c2e80249bd2f64736f6c63430008180033",
  "linkReferences": {},
  "deployedLinkReferences": {},
  "immutableReferences": {
    "8391": [
      {
        "length": 32,
        "start": 1349
      }
    ],
    "8394": [
      {
        "length": 32,
        "start": 837
      },
      {
        "length": 32,
        "start": 1513
      },
      {
        "length": 32,
        "start": 2414
      },
      {
        "length": 32,
        "start": 3655
      },
      {
        "length": 32,
        "start": 5035
      },
      {
        "length": 32,
        "start": 5642
      }
    ],
    "8396": [
      {
        "length": 32,
        "start": 4190
      }
    ],
    "8398": [
      {
        "length": 32,
        "start": 802
      },
      {
        "length": 32,
        "start": 1583
      },
      {
        "length": 32,
        "start": 2485
      },
      {
        "length": 32,
        "start": 4249
      },
      {
        "length": 32,
        "start": 5198
      },
      {
        "length": 32,
        "start": 5609
      }
    ],
    "8400": [
      {
        "length": 32,
        "start": 988
      },
      {
        "length": 32,
        "start": 1672
      },
      {
        "length": 32,
        "start": 2577
      },
      {
        "length": 32,
        "start": 3599
      },
      {
        "length": 32,
        "start": 5002
      },
      {
        "length": 32,
        "start": 5802
      }
    ],
    "8402": [
      {
        "length": 32,
        "start": 3374
      },
      {
        "length": 32,
        "start": 3786
      }
    ],
    "8404": [
      {
        "length": 32,
        "start": 419
      },
      {
        "length": 32,
        "start": 3258
      },
      {
        "length": 32,
        "start": 4854
      }
    ],
    "8406": [
      {
        "length": 32,
        "start": 3225
      },
      {
        "length": 32,
        "start": 3726
      },
      {
        "length": 32,
        "start": 4901
      }
    ],
    "8408": [
      {
        "length": 32,
        "start": 3528
      },
      {
        "length": 32,
        "start": 5378
      },
      {
        "length": 32,
        "start": 5911
      }
    ]
  },
  "inputSourceName": "project/contracts/AMMPool.sol",
  "buildInfoId": "solc-0_8_24-5f4f45cbae88525d91aac6ca054ab2fedce47c32"
}