{
  "_format": "hh3-artifact-1",
  "contractName": "AMMPoolFactory",
  "sourceName": "contracts/AMMPoolFactory.sol",
  "abi": [
    {
      "inputs": [],
      "stateMutability": "nonpayable",
      "type": "constructor"
    },
    {
      "inputs": [
        {
          "internalType": "address",
          "name": "target",
          "type": "address"
        }
      ],
      "name": "AddressEmptyCode",
      "type": "error"
    },
    {
      "inputs": [
        {
          "internalType": "address",
          "name": "implementation",
          "type": "address"
        }
      ],
      "name": "ERC1967InvalidImplementation",
      "type": "error"
    },
    {
      "inputs": [],
      "name": "ERC1967NonPayable",
      "type": "error"
    },
    {
      "inputs": [],
      "name": "FailedCall",
      "type": "error"
    },
    {
      "inputs": [],
      "name": "InvalidInitialization",
      "type": "error"
    },
    {
      "inputs": [],
      "name": "NotInitializing",
      "type": "error"
    },
    {
      "inputs": [
        {
          "internalType": "address",
          "name": "owner",
          "type": "address"
        }
      ],
      "name": "OwnableInvalidOwner",
      "type": "error"
    },
    {
      "inputs": [
        {
          "internalType": "address",
          "name": "account",
          "type": "address"
        }
      ],
      "name": "OwnableUnauthorizedAccount",
      "type": "error"
    },
    {
      "inputs": [],
      "name": "UUPSUnauthorizedCallContext",
      "type": "error"
    },
    {
      "inputs": [
        {
          "internalType": "bytes32",
          "name": "slot",
          "type": "bytes32"
        }
      ],
      "name": "UUPSUnsupportedProxiableUUID",
      "type": "error"
    },
    {
      "anonymous": false,
      "inputs": [
        {
          "indexed": false,
          "internalType": "uint256",
          "name": "lpFee",
          "type": "uint256"
        },
        {
          "indexed": false,
          "internalType": "uint256",
          "name": "protocolFee",
          "type": "uint256"
        }
      ],
      "name": "DefaultFeesUpdated",
      "type": "event"
    },
    {
      "anonymous": false,
      "inputs": [
        {
          "indexed": false,
          "internalType": "uint256",
          "name": "minLPFee",
          "type": "uint256"
        },
        {
          "indexed": false,
          "internalType": "uint256",
          "name": "maxLPFee",
          "type": "uint256"
        },
        {
          "indexed": false,
          "internalType": "uint256",
          "name": "minProtocolFee",
          "type": "uint256"
        },
        {
          "indexed": false,
          "internalType": "uint256",
          "name": "maxProtocolFee",
          "type": "uint256"
        }
      ],
      "name": "FeeLimitsUpdated",
      "type": "event"
    },
    {
      "anonymous": false,
      "inputs": [
        {
          "indexed": false,
          "internalType": "uint64",
          "name": "version",
          "type": "uint64"
        }
      ],
      "name": "Initialized",
      "type": "event"
    },
    {
      "anonymous": false,
      "inputs": [
        {
          "indexed": true,
          "internalType": "address",
          "name": "previousOwner",
          "type": "address"
        },
        {
          "indexed": true,
          "internalType": "address",
          "name": "newOwner",
          "type": "address"
        }
      ],
      "name": "OwnershipTransferred",
      "type": "event"
    },
    {
      "anonymous": false,
      "inputs": [
        {
          "indexed": true,
          "internalType": "address",
          "name": "pool",
          "type": "address"
        },
        {
          "indexed": true,
          "internalType": "bytes32",
          "name": "conditionId",
          "type": "bytes32"
        },
        {
          "indexed": false,
          "internalType": "uint256",
          "name": "yesPositionId",
          "type": "uint256"
        },
        {
          "indexed": false,
          "internalType": "uint256",
          "name": "noPositionId",
          "type": "uint256"
        },
        {
          "indexed": false,
          "internalType": "uint256",
          "name": "lpFee",
          "type": "uint256"
        },
        {
          "indexed": false,
          "internalType": "uint256",
          "name": "protocolFee",
          "type": "uint256"
        }
      ],
      "name": "PoolCreated",
      "type": "event"
    },
    {
      "anonymous": false,
      "inputs": [
        {
          "indexed": false,
          "internalType": "address",
          "name": "newTreasury",
          "type": "address"
        }
      ],
      "name": "TreasuryUpdated",
      "type": "event"
    },
    {
      "anonymous": false,
      "inputs": [
        {
          "indexed": true,
          "internalType": "address",
          "name": "implementation",
          "type": "address"
        }
      ],
      "name": "Upgraded",
      "type": "event"
    },
    {
      "inputs": [],
      "name": "UPGRADE_INTERFACE_VERSION",
      "outputs": [
        {
          "internalType": "string",
          "name": "",
          "type": "string"
        }
      ],
      "stateMutability": "view",
      "type": "function"
    },
    {
      "inputs": [
        {
          "internalType": "uint256",
          "name": "",
          "type": "uint256"
        }
      ],
      "name": "allPools",
      "outputs": [
        {
          "internalType": "address",
          "name": "",
          "type": "address"
        }
      ],
      "stateMutability": "view",
      "type": "function"
    },
    {
      "inputs": [],
      "name": "collateralToken",
      "outputs": [
        {
          "internalType": "address",
          "name": "",
          "type": "address"
        }
      ],
      "stateMutability": "view",
      "type": "function"
    },
    {
      "inputs": [],
      "name": "conditionalTokens",
      "outputs": [
        {
          "internalType": "address",
          "name": "",
          "type": "address"
        }
      ],
      "stateMutability": "view",
      "type": "function"
    },
    {
      "inputs": [
        {
          "internalType": "address",
          "name": "oracle",
          "type": "address"
        },
        {
          "internalType": "bytes32",
          "name": "questionId",
          "type": "bytes32"
        },
        {
          "internalType": "string",
          "name": "name",
          "type": "string"
        },
        {
          "internalType": "string",
          "name": "symbol",
          "type": "string"
        },
        {
          "internalType": "uint256",
          "name": "lpFee",
          "type": "uint256"
        },
        {
          "internalType": "uint256",
          "name": "protocolFee",
          "type": "uint256"
        }
      ],
      "name": "createPool",
      "outputs": [
        {
          "internalType": "address",
          "name": "pool",
          "type": "address"
        }
      ],
      "stateMutability": "nonpayable",
      "type": "function"
    },
    {
      "inputs": [],
      "name": "defaultLPFee",
      "outputs": [
        {
          "internalType": "uint256",
          "name": "",
          "type": "uint256"
        }
      ],
      "stateMutability": "view",
      "type": "function"
    },
    {
      "inputs": [],
      "name": "defaultProtocolFee",
      "outputs": [
        {
          "internalType": "uint256",
          "name": "",
          "type": "uint256"
        }
      ],
      "stateMutability": "view",
      "type": "function"
    },
    {
      "inputs": [
        {
          "internalType": "bytes32",
          "name": "conditionId",
          "type": "bytes32"
        }
      ],
      "name": "getPool",
      "outputs": [
        {
          "internalType": "address",
          "name": "",
          "type": "address"
        }
      ],
      "stateMutability": "view",
      "type": "function"
    },
    {
      "inputs": [
        {
          "internalType": "address",
          "name": "_collateralToken",
          "type": "address"
        },
        {
          "internalType": "address",
          "name": "_conditionalTokens",
          "type": "address"
        },
        {
          "internalType": "address",
          "name": "_treasury",
          "type": "address"
        }
      ],
      "name": "initialize",
      "outputs": [],
      "stateMutability": "nonpayable",
      "type": "function"
    },
    {
      "inputs": [],
      "name": "maxLPFee",
      "outputs": [
        {
          "internalType": "uint256",
          "name": "",
          "type": "uint256"
        }
      ],
      "stateMutability": "view",
      "type": "function"
    },
    {
      "inputs": [],
      "name": "maxProtocolFee",
      "outputs": [
        {
          "internalType": "uint256",
          "name": "",
          "type": "uint256"
        }
      ],
      "stateMutability": "view",
      "type": "function"
    },
    {
      "inputs": [],
      "name": "minLPFee",
      "outputs": [
        {
          "internalType": "uint256",
          "name": "",
          "type": "uint256"
        }
      ],
      "stateMutability": "view",
      "type": "function"
    },
    {
      "inputs": [],
      "name": "minProtocolFee",
      "outputs": [
        {
          "internalType": "uint256",
          "name": "",
          "type": "uint256"
        }
      ],
      "stateMutability": "view",
      "type": "function"
    },
    {
      "inputs": [],
      "name": "owner",
      "outputs": [
        {
          "internalType": "address",
          "name": "",
          "type": "address"
        }
      ],
      "stateMutability": "view",
      "type": "function"
    },
    {
      "inputs": [],
      "name": "poolCount",
      "outputs": [
        {
          "internalType": "uint256",
          "name": "",
          "type": "uint256"
        }
      ],
      "stateMutability": "view",
      "type": "function"
    },
    {
      "inputs": [
        {
          "internalType": "bytes32",
          "name": "",
          "type": "bytes32"
        }
      ],
      "name": "pools",
      "outputs": [
        {
          "internalType": "address",
          "name": "",
          "type": "address"
        }
      ],
      "stateMutability": "view",
      "type": "function"
    },
    {
      "inputs": [],
      "name": "proxiableUUID",
      "outputs": [
        {
          "internalType": "bytes32",
          "name": "",
          "type": "bytes32"
        }
      ],
      "stateMutability": "view",
      "type": "function"
    },
    {
      "inputs": [],
      "name": "renounceOwnership",
      "outputs": [],
      "stateMutability": "nonpayable",
      "type": "function"
    },
    {
      "inputs": [
        {
          "internalType": "uint256",
          "name": "_lpFee",
          "type": "uint256"
        },
        {
          "internalType": "uint256",
          "name": "_protocolFee",
          "type": "uint256"
        }
      ],
      "name": "setDefaultFees",
      "outputs": [],
      "stateMutability": "nonpayable",
      "type": "function"
    },
    {
      "inputs": [
        {
          "internalType": "uint256",
          "name": "_minLPFee",
          "type": "uint256"
        },
        {
          "internalType": "uint256",
          "name": "_maxLPFee",
          "type": "uint256"
        },
        {
          "internalType": "uint256",
          "name": "_minProtocolFee",
          "type": "uint256"
        },
        {
          "internalType": "uint256",
          "name": "_maxProtocolFee",
          "type": "uint256"
        }
      ],
      "name": "setFeeLimits",
      "outputs": [],
      "stateMutability": "nonpayable",
      "type": "function"
    },
    {
      "inputs": [
        {
          "internalType": "address",
          "name": "_treasury",
          "type": "address"
        }
      ],
      "name": "setTreasury",
      "outputs": [],
      "stateMutability": "nonpayable",
      "type": "function"
    },
    {
      "inputs": [
        {
          "internalType": "address",
          "name": "newOwner",
          "type": "address"
        }
      ],
      "name": "transferOwnership",
      "outputs": [],
      "stateMutability": "nonpayable",
      "type": "function"
    },
    {
      "inputs": [],
      "name": "treasury",
      "outputs": [
        {
          "internalType": "address",
          "name": "",
          "type": "address"
        }
      ],
      "stateMutability": "view",
      "type": "function"
    },
    {
      "inputs": [
        {
          "internalType": "address",
          "name": "newImplementation",
          "type": "address"
        },
        {
          "internalType": "bytes",
          "name": "data",
          "type": "bytes"
        }
      ],
      "name": "upgradeToAndCall",
      "outputs": [],
      "stateMutability": "payable",
      "type": "function"
    }
  ],
  "bytecode": "0x60a080604052346100cc57306080527ff0c57e16840df040f15088dc2f81fe391c3923bec73e23a9662efc9c229c6a009081549060ff8260401c166100bd57506001600160401b036002600160401b031982821601610078575b60405161364390816100d1823960805181818161077201526108340152f35b6001600160401b031990911681179091556040519081527fc7f505b2f371ae2175ee4913f4499e1f2633a7b5936321eed1cdaeb6115181d290602090a15f8080610059565b63f92ee8a960e01b8152600490fd5b5f80fdfe6080604052600436101562000012575f80fd5b5f803560e01c80632851ebac1462000bb75780632a6677c71462000a9c57806341d1de971462000a53578063421bcbdf1462000a335780634f1ef28614620007dd57806352d1902d146200075d5780635bd9e29914620007325780635ee31c7c146200071257806361d027b314620006e7578063715018a614620006795780638da5cb5b1462000641578063abce0cd51462000621578063ad3cb1cc14620005ab578063b2016bd41462000582578063b5217bb4146200054d578063b9bdb4ef14620004a6578063c0c53b8b14620002de578063d74fb90d14620002be578063e904e09d146200029e578063f0f4426014620001e7578063f2fde38b14620001b2578063f30853fb1462000192578063f525cb6814620001725763f6c00927146200013b575f80fd5b346200016f5760203660031901126200016f57602090600435815260098252604060018060a01b0391205416604051908152f35b80fd5b50346200016f57806003193601126200016f576020600a54604051908152f35b50346200016f57806003193601126200016f576020600354604051908152f35b50346200016f5760203660031901126200016f57620001e4620001d4620011be565b620001de620013f0565b6200137d565b80f35b50346200016f5760203660031901126200016f5762000205620011be565b6200020f620013f0565b6001600160a01b0316801562000266576020817f7dae230f18360d76a040c81f050aa14eb9d6dc7901b20fc5d855e2a20fe814d1926bffffffffffffffffffffffff60a01b6002541617600255604051908152a180f35b60405162461bcd60e51b815260206004820152601060248201526f496e76616c696420747265617375727960801b6044820152606490fd5b50346200016f57806003193601126200016f576020600554604051908152f35b50346200016f57806003193601126200016f576020600754604051908152f35b50346200016f5760603660031901126200016f57620002fc620011be565b6001600160a01b036024358181169290839003620004a25760443590828216809203620004a2577ff0c57e16840df040f15088dc2f81fe391c3923bec73e23a9662efc9c229c6a009384549360ff8560401c16159467ffffffffffffffff81168015908162000499575b60011490816200048e575b15908162000484575b50620004725767ffffffffffffffff19811660011787558562000452575b50620003a36200142a565b620003ad6200142a565b620003b8336200137d565b620003c26200142a565b6bffffffffffffffffffffffff60a01b921682875416178655816001541617600155600254161760025560326003556101f4600455600a60055560c86006556096600755603260085562000414575080f35b68ff00000000000000001981541690557fc7f505b2f371ae2175ee4913f4499e1f2633a7b5936321eed1cdaeb6115181d2602060405160018152a180f35b68ffffffffffffffffff1916680100000000000000011786555f62000398565b60405163f92ee8a960e01b8152600490fd5b9050155f6200037a565b303b15915062000371565b87915062000366565b5f80fd5b50346200016f5760403660031901126200016f577fd31db2d23fe42d625fd61189088b6ca9e19f1d03ed676d9480fee9705dfca3006040600435602435620004ed620013f0565b6003548210158062000540575b6200050590620012fb565b6005548110158062000533575b6200051d9062001339565b816007558060085582519182526020820152a180f35b5060065481111562000512565b50600454821115620004fa565b50346200016f5760203660031901126200016f57602090600435815260098252604060018060a01b0391205416604051908152f35b50346200016f57806003193601126200016f57546040516001600160a01b039091168152602090f35b50346200016f57806003193601126200016f57604051604081019080821067ffffffffffffffff8311176200060d57620006099160405260058152640352e302e360dc1b6020820152604051918291602083526020830190620012bb565b0390f35b634e487b7160e01b5f52604160045260245ffd5b50346200016f57806003193601126200016f576020600454604051908152f35b50346200016f57806003193601126200016f575f80516020620035ee833981519152546040516001600160a01b039091168152602090f35b50346200016f57806003193601126200016f5762000696620013f0565b5f80516020620035ee83398151915280546001600160a01b031981169091555f906001600160a01b03167f8be0079c531659141344cd1fd0a4f28419497f9722a3daafe3b4186f6b6457e08280a380f35b50346200016f57806003193601126200016f576002546040516001600160a01b039091168152602090f35b50346200016f57806003193601126200016f576020600654604051908152f35b50346200016f57806003193601126200016f576001546040516001600160a01b039091168152602090f35b50346200016f57806003193601126200016f577f00000000000000000000000000000000000000000000000000000000000000006001600160a01b03163003620007cb5760206040517f360894a13ba1a3210667c828492db98dca3e2076cc3735a920a3ca505d382bbc8152f35b60405163703e46dd60e11b8152600490fd5b5060403660031901126200016f57620007f5620011be565b60243567ffffffffffffffff811162000a2f573660238201121562000a2f576200082a90369060248160040135910162001215565b6001600160a01b037f0000000000000000000000000000000000000000000000000000000000000000811630811490811562000a00575b50620007cb5762000871620013f0565b6040516352d1902d60e01b8152908316926020918281600481885afa869181620009cb575b50620008b557604051634c9c8ce360e01b815260048101869052602490fd5b9385947f360894a13ba1a3210667c828492db98dca3e2076cc3735a920a3ca505d382bbc90818103620009b35750823b156200099a5780546001600160a01b0319168217905560405185917fbc7cd75a20ee27fd9adebab32041f755214dbc6bffa90cc0225b39da2e5c2d3b8380a28451156200097c57508084846200096e96519101845af4903d1562000972573d6200094f81620011f8565b906200095f6040519283620011d5565b81528581943d92013e6200146c565b5080f35b606092506200146c565b9350505050346200098b575080f35b63b398979f60e01b8152600490fd5b604051634c9c8ce360e01b815260048101839052602490fd5b60249060405190632a87526960e21b82526004820152fd5b9091508381813d8311620009f8575b620009e68183620011d5565b81010312620004a25751905f62000896565b503d620009da565b9050817f360894a13ba1a3210667c828492db98dca3e2076cc3735a920a3ca505d382bbc541614155f62000861565b8280fd5b50346200016f57806003193601126200016f576020600854604051908152f35b50346200016f5760203660031901126200016f5760043590600a548210156200016f57602062000a838362001271565b905460405160039290921b1c6001600160a01b03168152f35b50346200016f5760803660031901126200016f5760643560243560043560443562000ac6620013f0565b82821162000b7b5783811162000b36577f7729779159307ca6c59cd8533245b6b4b8f92ab117061a96dee2b18c6efc82499362000b309183600355846004558060055581600655604051948594859094939260609260808301968352602083015260408201520152565b0390a180f35b60405162461bcd60e51b815260206004820152601a60248201527f496e76616c69642070726f746f636f6c206665652072616e67650000000000006044820152606490fd5b60405162461bcd60e51b8152602060048201526014602482015273496e76616c6964204c50206665652072616e676560601b6044820152606490fd5b5034620004a25760c0366003190112620004a25762000bd5620011be565b6024359160443567ffffffffffffffff8111620004a25762000bfc90369060040162001250565b9160643567ffffffffffffffff8111620004a25762000c2090369060040162001250565b9260843560a435918115620011b3575b8215620011a8575b600354821015806200119b575b62000c5090620012fb565b600554831015806200118e575b62000c689062001339565b600154604051634296357160e11b81526001600160a01b0395861660048201819052602482018a90526002604483015291909516976020866064818c5afa9586156200110e575f9662001154575b505f868152600960205260409020546001600160a01b03166200111957883b15620004a2576040519163365bb9d560e21b835260048301526024820152600260448201525f81606481838c5af180156200110e57620010ef575b5060405163856296f760e01b8152856004820152846024820152600160448201526020816064818b5afa908115620010e4578691620010ac575b506040519663856296f760e01b8852866004890152856024890152600260448901526020886064818c5afa978815620010a157879862001060575b50865460405163039dd75360e41b81526001600160a01b0390911660048201819052602482019390935297989697959660208780604481015b0381845afa9687156200105557899762001018575b5060405163039dd75360e41b81526001600160a01b0384166004820152602481019a909a526020908a908180604481015b03915afa9889156200100d57889962000fd3575b50600154600254604051946001600160a01b03918216939190921691612119860180871167ffffffffffffffff9091111762000fbf57859493929162000e7862000e8f92612119620014d5893961014061211989018181520190620012bb565b9061211987018203602061211989010152620012bb565b6121198501604081019490945260608401919091526080830189905260a0830188905260c083018b905260e08301869052610100830187905261012090920152039086f0801562000fb45784865260096020526040862080546001600160a01b0319166001600160a01b03929092169182179055600a5490956801000000000000000082101562000fa057509262000f957f6a8809def78dc86b8283b720aa0252607294925c6a692dc5083e4a576a3844f8936020989362000f598760018b9901600a5562001271565b81549060031b9089821b9160018060a01b03901b1916179055604051948594859094939260609260808301968352602083015260408201520152565b0390a3604051908152f35b634e487b7160e01b81526041600452602490fd5b6040513d87823e3d90fd5b634e487b7160e01b8b52604160045260248bfd5b9098506020813d60201162001004575b8162000ff260209383620011d5565b81010312620004a25751975f62000e18565b3d915062000fe3565b6040513d8a823e3d90fd5b9096506020813d6020116200104c575b816200103760209383620011d5565b81010312620004a257519562000e0462000dd3565b3d915062001028565b6040513d8b823e3d90fd5b959697506020863d60201162001098575b816200108060209383620011d5565b81010312620004a25762000dbe955197969562000d85565b3d915062001071565b6040513d89823e3d90fd5b90506020813d602011620010db575b81620010ca60209383620011d5565b81010312620004a257515f62000d4a565b3d9150620010bb565b6040513d88823e3d90fd5b90945067ffffffffffffffff81116200060d576040525f935f62000d10565b6040513d5f823e3d90fd5b60405162461bcd60e51b8152602060048201526013602482015272506f6f6c20616c72656164792065786973747360681b6044820152606490fd5b9095506020813d60201162001185575b816200117360209383620011d5565b81010312620004a25751945f62000cb6565b3d915062001164565b5060065483111562000c5d565b5060045482111562000c45565b600854925062000c38565b600754915062000c30565b600435906001600160a01b0382168203620004a257565b90601f8019910116810190811067ffffffffffffffff8211176200060d57604052565b67ffffffffffffffff81116200060d57601f01601f191660200190565b9291926200122382620011f8565b91620012336040519384620011d5565b829481845281830111620004a2578281602093845f960137010152565b9080601f83011215620004a2578160206200126e9335910162001215565b90565b600a54811015620012a757600a5f527fc65a7bb8d6351c1cf70c95a316cc6a92839c986682d98bc35f958f4883f9d2a801905f90565b634e487b7160e01b5f52603260045260245ffd5b91908251928382525f5b848110620012e6575050825f602080949584010152601f8019910116010190565b602081830181015184830182015201620012c5565b156200130357565b60405162461bcd60e51b815260206004820152600e60248201526d496e76616c6964204c502066656560901b6044820152606490fd5b156200134157565b60405162461bcd60e51b8152602060048201526014602482015273496e76616c69642070726f746f636f6c2066656560601b6044820152606490fd5b6001600160a01b03908116908115620013d8575f80516020620035ee83398151915280546001600160a01b031981168417909155167f8be0079c531659141344cd1fd0a4f28419497f9722a3daafe3b4186f6b6457e05f80a3565b604051631e4fbdf760e01b81525f6004820152602490fd5b5f80516020620035ee833981519152546001600160a01b031633036200141257565b60405163118cdaa760e01b8152336004820152602490fd5b60ff7ff0c57e16840df040f15088dc2f81fe391c3923bec73e23a9662efc9c229c6a005460401c16156200145a57565b604051631afcd79f60e31b8152600490fd5b906200149557508051156200148357602081519101fd5b60405163d6bda27560e01b8152600490fd5b81511580620014ca575b620014a8575090565b604051639996b31560e01b81526001600160a01b039091166004820152602490fd5b50803b156200149f56fe610180604052346200046a5762002119803803806200001e816200046e565b92833981019061014080828403126200046a5781516001600160401b0391908281116200046a57846200005391850162000494565b9160209485850151908282116200046a576200007191860162000494565b92620000806040860162000504565b6200008e6060870162000504565b90608087015160a08801519160c08901519360e08a0151956101009b8c8c015198620000bf610120809e0162000504565b9b835182811162000375576003918254916001968784811c941680156200045f575b878510146200044b578190601f94858111620003f8575b50879085831160011462000395575f9262000389575b50505f1982861b1c191690871b1783555b8051938411620003755760049485548781811c911680156200036a575b828210146200035757908184879695949311620002fe575b50809285116001146200029457505f9362000288575b505082851b925f19911b1c19161790555b6005556001600160a01b039182166080521660a05260c05260e052865284528152610160918252604051611bff94909390856200051a863960805185610434015260a0518581816102be015281816104d80152818161086001528181610cf5015281816111e6015261143c015260c05185610e99015260e05185818161029b0152818161051e015281816108a701528181610ed401528181611280015261141b015251848181610355015281816105770152818161090301528181610cbd015281816111c501526114d301525183818161017701528181610bac0152611131015251828181610b8b01528181610d3c0152611160015251818181610c760152818161133401526115400152f35b015191505f806200016a565b929190879550601f198516875f52845f20945f905b828210620002e45750508511620002ca575b50505050811b0190556200017b565b01519060f8845f19921b161c191690555f808080620002bb565b8484015187558a98909601959384019390810190620002a9565b909192939450865f52815f208480880160051c8201928489106200034d575b918a91899897969594930160051c01915b8281106200033e57505062000154565b5f81558897508a91016200032e565b925081926200031d565b602287634e487b7160e01b5f525260245ffd5b90607f16906200013c565b634e487b7160e01b5f52604160045260245ffd5b015190505f806200010e565b90899350601f19831691875f52895f20925f5b8b828210620003e15750508411620003c9575b505050811b0183556200011f565b01515f1983881b60f8161c191690555f8080620003bb565b8385015186558d97909501949384019301620003a8565b909150855f52875f208580850160051c8201928a861062000441575b918b91869594930160051c01915b82811062000432575050620000f8565b5f81558594508b910162000422565b9250819262000414565b634e487b7160e01b5f52602260045260245ffd5b93607f1693620000e1565b5f80fd5b6040519190601f01601f191682016001600160401b038111838210176200037557604052565b919080601f840112156200046a5782516001600160401b0381116200037557602090620004ca601f8201601f191683016200046e565b928184528282870101116200046a575f5b818110620004f05750825f9394955001015290565b8581018301518482018401528201620004db565b51906001600160a01b03821682036200046a5756fe6080604081815260049182361015610015575f80fd5b5f925f3560e01c91826306fdde031461164e5750816308c84c21146110d85781630902f1ac146110b3578163095ea7b31461100957816318160ddd14610fea57816323b872dd14610ef75781632474b6bc14610ebc5781632ddc7de714610e81578163313ce56714610e655781633f6fa65514610e415781634f896d4f14610d5f57816358f8588014610d245781635bd9e29914610ce057816360e30d9e14610ca557816361d027b314610c6157816370a0823114610c2a57816372a9fa6e14610c0b578163827b650814610b5f5781638779086f14610b3b57816395d89b4114610a365781639b34ae0314610a175781639c8f9f23146107b95781639cd441da14610494578163a9059cbb14610463578163b2016bd41461041f578163b2670d7414610400578163bdeda833146101ea57508063dd62ed3e1461019e5763f5b9848d14610161575f80fd5b3461019a578160031936011261019a57602090517f00000000000000000000000000000000000000000000000000000000000000008152f35b5080fd5b503461019a578060031936011261019a576020916101ba611795565b826101c36117ab565b6001600160a01b03928316845260018652922091165f908152908352819020549051908152f35b9190503461034457602036600319011261034457813591610209611a33565b60ff60085416156103c85761021f83151561180b565b33845283602052610235838386205410156119ee565b60025492610244841515611895565b61026760016009541494855f146103bd576102626006545b846118f1565b611904565b93841561038e5761028e91901561037a5761028485600654611922565b6006555b33611b1d565b60095460010361035257837f0000000000000000000000000000000000000000000000000000000000000000915b7f00000000000000000000000000000000000000000000000000000000000000006001600160a01b0316803b156103445761031293838793875196879586948593637921219560e11b855233903090860161192f565b03925af1801561034857610330575b60208383600160055551908152f35b61033a84916117c1565b6103445782610321565b8280fd5b82513d86823e3d90fd5b837f0000000000000000000000000000000000000000000000000000000000000000916102bc565b61038685600754611922565b600755610288565b835162461bcd60e51b81526020818501526009602482015268139bc81c185e5bdd5d60ba1b6044820152606490fd5b61026260075461025c565b6020606492519162461bcd60e51b8352820152601360248201527213585c9ad95d081b9bdd081c995cdbdb1d9959606a1b6044820152fd5b50503461019a578160031936011261019a576020906006549051908152f35b50503461019a578160031936011261019a57517f00000000000000000000000000000000000000000000000000000000000000006001600160a01b03168152602090f35b50503461019a578060031936011261019a5760209061048d610483611795565b6024359033611a56565b5160018152f35b919050346103445780600319360112610344578135602435936104b5611a33565b811515806107b0575b6104c79061180b565b6104d660ff6008541615611857565b7f00000000000000000000000000000000000000000000000000000000000000006001600160a01b0316803b1561019a578351637921219560e11b80825290838180610547887f000000000000000000000000000000000000000000000000000000000000000030338e860161192f565b038183875af180156107a657908491610792575b5050813b1561034457845190815290829082908183816105a08c7f000000000000000000000000000000000000000000000000000000000000000030338f860161192f565b03925af1801561078857908291610771575b50506002549081610744576105c786846118d0565b916103e890818410610701578181018091116106ee575f80516020611baa83398151915260206001935f936002558484528382528884208181540190558851908152a36103e71982019182116106db5750925b6106258415156119ee565b610631826006546118d0565b600655610640856007546118d0565b60075533156106c557507f64b83944e79c3ce8d4c297411de637c3e102d064677aac0c163976ebdcd6f50e8360209561067b826002546118d0565b600255335f525f8752845f2082815401905584518281525f5f80516020611baa833981519152893393a38451938452602084015260408301523391606090a2600160055551908152f35b6024905f84519163ec442f0560e01b8352820152fd5b634e487b7160e01b815260118552602490fd5b601187634e487b7160e01b5f525260245ffd5b855162461bcd60e51b8152602081890152601e60248201527f496e73756666696369656e7420696e697469616c206c697175696469747900006044820152606490fd5b5061076b9061026261075b600654600754906118d0565b9161076688866118d0565b6118f1565b9261061a565b61077a906117c1565b61078557805f6105b2565b80fd5b84513d84823e3d90fd5b61079b906117c1565b61034457825f61055b565b86513d86823e3d90fd5b508415156104be565b8391503461019a57602036600319011261019a5780356107d7611a33565b6107e281151561180b565b338352826020526107f8818585205410156119ee565b60025492610807841515611895565b600654926108198561026286866118f1565b9461082b6007549161026283876118f1565b9486151580610a0e575b156109d55761085191610849888893611922565b600655611922565b60075561085e8333611b1d565b7f00000000000000000000000000000000000000000000000000000000000000006001600160a01b031690813b15610344578651637921219560e11b808252908481806108d08b7f000000000000000000000000000000000000000000000000000000000000000033308a860161192f565b038183885af180156109cb579085916109b7575b5050823b156109b35761092e9284928388938b519687958694859384527f00000000000000000000000000000000000000000000000000000000000000009033903090860161192f565b03925af180156109a957610995575b50507f1dc8bb69df2b8e91fbdcbfcf93d951b3f0000f085a95fe3f7946d6161439245d84518061098133948688846040919493926060820195825260208201520152565b0390a2600160055582519182526020820152f35b61099f82916117c1565b610785578061093d565b86513d84823e3d90fd5b8380fd5b6109c0906117c1565b6109b35783896108e4565b89513d87823e3d90fd5b875162461bcd60e51b81526020818501526013602482015272125b9cdd59999a58da595b9d081bdd5d1c1d5d606a1b6044820152606490fd5b50851515610835565b50503461019a578160031936011261019a576020906009549051908152f35b83833461019a578160031936011261019a5780519180938054916001908360011c9260018516948515610b31575b6020958686108114610b1e57858952908115610afa5750600114610aa2575b610a9e8787610a94828c03836117e9565b519182918261173f565b0390f35b81529295507f8a35acfbc15ff81a39ae7d344fd709f28e8600b4aa8c65c6b64bfe7fe36bd19b5b828410610ae75750505082610a9e94610a9492820101948680610a83565b8054868501880152928601928101610ac9565b60ff19168887015250505050151560051b8301019250610a9482610a9e8680610a83565b634e487b7160e01b845260228352602484fd5b93607f1693610a64565b50503461019a578160031936011261019a57602090610b586119a6565b9051908152f35b82843461078557816003193601126107855750610b7a611786565b602435610bd8612710610bd061025c7f00000000000000000000000000000000000000000000000000000000000000007f00000000000000000000000000000000000000000000000000000000000000006118d0565b048092611922565b9115610bf857610bec600754831115611962565b82519182526020820152f35b610c06600654831115611962565b610bec565b50503461019a578160031936011261019a576020906007549051908152f35b50503461019a57602036600319011261019a5760209181906001600160a01b03610c52611795565b16815280845220549051908152f35b50503461019a578160031936011261019a57517f00000000000000000000000000000000000000000000000000000000000000006001600160a01b03168152602090f35b50503461019a578160031936011261019a57602090517f00000000000000000000000000000000000000000000000000000000000000008152f35b50503461019a578160031936011261019a57517f00000000000000000000000000000000000000000000000000000000000000006001600160a01b03168152602090f35b50503461019a578160031936011261019a57602090517f00000000000000000000000000000000000000000000000000000000000000008152f35b919050346103445760203660031901126103445760085482359260ff8216610e0b5783158015610e01575b15610dcc575060ff19166001176008556009829055519081527f93608ecbcf057462da63f5aef413ce7f78c5e1b3bb51859d77a40845ece2bfc390602090a180f35b606490602084519162461bcd60e51b8352820152600f60248201526e496e76616c6964206f7574636f6d6560881b6044820152fd5b5060018414610d8a565b606490602084519162461bcd60e51b8352820152601060248201526f105b1c9958591e481c995cdbdb1d995960821b6044820152fd5b50503461019a578160031936011261019a5760209060ff6008541690519015158152f35b50503461019a578160031936011261019a576020905160128152f35b50503461019a578160031936011261019a57602090517f00000000000000000000000000000000000000000000000000000000000000008152f35b50503461019a578160031936011261019a57602090517f00000000000000000000000000000000000000000000000000000000000000008152f35b8391503461019a57606036600319011261019a57610f13611795565b610f1b6117ab565b91604435938560018060a01b03841691828152600160205220335f52602052855f2054915f198310610f56575b60208761048d888888611a56565b858310610fbe578115610fa8573315610f9257505f9081526001602090815286822033835281529086902091859003909155829061048d610f48565b6024905f885191634a1406b160e11b8352820152fd5b6024905f88519163e602df0560e01b8352820152fd5b8651637dc7a0d960e11b8152339181019182526020820193909352604081018690528291506060010390fd5b50503461019a578160031936011261019a576020906002549051908152f35b82843461078557816003193601126107855750611024611795565b60243590331561109d576001600160a01b03169081156110875760209350335f5260018452825f20825f52845280835f205582519081527f8c5be1e5ebec7d5bd14f71427d1e84f3dd0314c0f7b2291e5b200ac8c7c3b925843392a35160018152f35b8251634a1406b160e11b81525f81860152602490fd5b825163e602df0560e01b81525f81860152602490fd5b8284346107855780600319360112610785575060065460075482519182526020820152f35b919050346115c55760603660031901126115c5576110f4611786565b6024356110ff611a33565b61110a81151561180b565b61111960ff6008541615611857565b6006549384151580611643575b61112f90611895565b7f0000000000000000000000000000000000000000000000000000000000000000916127106111938161118b6111857f0000000000000000000000000000000000000000000000000000000000000000886118d0565b856118f1565b0494836118f1565b04916111a96111a28486611922565b9483611922565b96604435881061160c578515611413575060075487116113d0577f00000000000000000000000000000000000000000000000000000000000000007f00000000000000000000000000000000000000000000000000000000000000006001600160a01b0316803b156113cc578751637921219560e11b80825293908b908181806112388a8930338a860161192f565b038183885af180156113ae576113b8575b50506112578a6007546118d0565b6007556112668a600654611922565b600655813b156113aa5788518481528b908181806112a98f7f000000000000000000000000000000000000000000000000000000000000000033308a860161192f565b038183885af180156113ae57611396575b505086611316575b50505050602096505b84519315158452868401528484840152606083015260808201527fd55848f048ca7d5fd9869d414bb60a426c2b0125c8adb982fee123da3f841ed860a03392a2600160055551908152f35b908a9291813b156109b35783889561135d8c519788968795869485527f0000000000000000000000000000000000000000000000000000000000000000903090860161192f565b03925af1801561138c57611374575b8080806112c2565b61137e88916117c1565b611388578661136c565b8680fd5b86513d8a823e3d90fd5b61139f906117c1565b6113aa578a5f6112ba565b8a80fd5b8b513d84823e3d90fd5b6113c1906117c1565b6113aa578a5f611249565b8980fd5b606490602087519162461bcd60e51b8352820152601760248201527f496e73756666696369656e74204e4f20726573657276650000000000000000006044820152fd5b87116115c9577f00000000000000000000000000000000000000000000000000000000000000007f00000000000000000000000000000000000000000000000000000000000000006001600160a01b0316803b156115c5578751637921219560e11b80825293905f818061148c8988303389860161192f565b038183875af180156115bb576115a8575b506114aa8a6006546118d0565b6006556114b98a600754611922565b600755813b156113aa5788518481528b908181806114fc8f7f000000000000000000000000000000000000000000000000000000000000000033308a860161192f565b038183885af180156113ae57611594575b505086611522575b50505050602096506112cb565b908a9291813b156109b3578388956115698c519788968795869485527f0000000000000000000000000000000000000000000000000000000000000000903090860161192f565b03925af1801561138c57611580575b808080611515565b61158a88916117c1565b6113885786611578565b61159d906117c1565b6113aa578a5f61150d565b6115b3919b506117c1565b5f995f61149d565b8a513d5f823e3d90fd5b5f80fd5b606490602087519162461bcd60e51b8352820152601860248201527f496e73756666696369656e7420594553207265736572766500000000000000006044820152fd5b865162461bcd60e51b8152602081840152601160248201527014db1a5c1c1859d948195e18d959591959607a1b6044820152606490fd5b506007541515611126565b83346115c5575f3660031901126115c5575f9260035460018160011c91600181168015611735575b6020948585108214611722575083875290811561170257506001146116a8575b505050610a9482610a9e9403836117e9565b60035f9081529295507fc2575a0e9e593c00f959f8c92f12db2869c3395a3b0502d05e2516446f71f85b5b8284106116ef5750505082610a9e94610a949282010194611696565b80548685018801529286019281016116d3565b60ff1916868501525050151560051b8301019250610a9482610a9e611696565b602290634e487b7160e01b5f525260245ffd5b92607f1692611676565b602080825282518183018190529093925f5b82811061177257505060409293505f838284010152601f8019910116010190565b818101860151848201604001528501611751565b6004359081151582036115c557565b600435906001600160a01b03821682036115c557565b602435906001600160a01b03821682036115c557565b67ffffffffffffffff81116117d557604052565b634e487b7160e01b5f52604160045260245ffd5b90601f8019910116810190811067ffffffffffffffff8211176117d557604052565b1561181257565b60405162461bcd60e51b815260206004820152601760248201527f416d6f756e74206d75737420626520706f7369746976650000000000000000006044820152606490fd5b1561185e57565b60405162461bcd60e51b815260206004820152600f60248201526e13585c9ad95d081c995cdbdb1d9959608a1b6044820152606490fd5b1561189c57565b60405162461bcd60e51b815260206004820152600c60248201526b4e6f206c697175696469747960a01b6044820152606490fd5b919082018092116118dd57565b634e487b7160e01b5f52601160045260245ffd5b818102929181159184041417156118dd57565b811561190e570490565b634e487b7160e01b5f52601260045260245ffd5b919082039182116118dd57565b929060c0949260018060a01b0380921685521660208401526040830152606082015260a060808201525f60a08201520190565b1561196957565b60405162461bcd60e51b8152602060048201526015602482015274496e73756666696369656e7420726573657276657360581b6044820152606490fd5b600654600754906119b782826118d0565b156119e657612710908181029181830414811517156118dd576119e3926119dd916118d0565b90611904565b90565b505061138890565b156119f557565b60405162461bcd60e51b8152602060048201526016602482015275496e73756666696369656e74204c5020746f6b656e7360501b6044820152606490fd5b600260055414611a44576002600555565b604051633ee5aeb560e01b8152600490fd5b916001600160a01b03808416928315611b055716928315611aed57825f525f60205260405f205490828210611abb5750815f80516020611baa83398151915292602092855f525f84520360405f2055845f5260405f20818154019055604051908152a3565b60405163391434e360e21b81526001600160a01b03919091166004820152602481019190915260448101829052606490fd5b60405163ec442f0560e01b81525f6004820152602490fd5b604051634b637e8f60e11b81525f6004820152602490fd5b91906001600160a01b038316908115611b0557815f525f60205260405f205493818510611b7757506020815f80516020611baa833981519152925f95968587528684520360408620558060025403600255604051908152a3565b60405163391434e360e21b81526001600160a01b03919091166004820152602481018590526044810191909152606490fdfeddf252ad1be2c89b69c2b068fc378daa952ba7f163c4a11628f55a4df523b3efa26469706673582212207d9e2ca83e39c6f32deef138b6a6ee3101f4a4e58b33b094a7c146e77a5952ec64736f6c634300081800339016d09d72d40fdae2fd8ceac6b6234c7706214fd39c1cd1e609a0528c199300a2646970667358221220278a185ec21e4dfc82e9a0c29d1b5816365a56269720385463c1b3ae4177121164736f6c63430008180033",
  "linkReferences": {},
  "deployedLinkReferences": {},
  "immutableReferences": {
    "482": [
      {
        "length": 32,
        "start": 1906
      },
      {
        "length": 32,
        "start": 2100
      }
    ]
  },
  "inputSourceName": "project/contracts/AMMPoolFactory.sol",
  "buildInfoId": "solc-0_8_24-eb300560ace755abfe5bde684ce2ad1a3e614016"
}